:020000040800F2
:10000000003C0020193B0008C1FE0008053B000829
:10001000053B0008053B0008053B00080000000008
:100020000000000000000000000000004D3B000840
:10003000053B0008000000006D3D0008B59E00086B
:10004000013E0008013E0008013E0008013E000894
:10005000013E0008013E0008013E0008013E000884
:10006000013E0008013E0008013E0008013E000874
:10007000013E0008013E0008013E0008013E000864
:10008000013E0008013E0008013E0008013E000854
:10009000013E0008013E0008013E0008013E000844
:1000A000013E0008013E0008013E0008013E000834
:1000B000013E0008013E0008013E0008013E000824
:1000C000013E0008013E0008013E0008013E000814
:1000D000013E0008013E0008013E0008013E000804
:1000E000013E0008013E0008013E0008013E0008F4
:1000F000013E0008013E0008013E0008013E0008E4
:0C010000013E0008013E0008013E00081E
:1001400030B490F800F020F007016FF0000C10F0D0
:10015000070491F820F040F048804FF000046FF061
:100160000700D1E9002391F840F000F1080082FA7D
:100170004CF2A4FA8CF283FA4CF3A2FA8CF34BBB48
:10018000D1E9022382FA4CF200F10800A4FA8CF2C1
:1001900083FA4CF3A2FA8CF3E3B9D1E9042382FA8F
:1001A0004CF200F10800A4FA8CF283FA4CF3A2FAA4
:1001B0008CF37BB9D1E9062301F1200182FA4CF2DC
:1001C00000F10800A4FA8CF283FA4CF3A2FA8CF343
:1001D000002BC6D0002A04BF04301A4612BAB2FA65
:1001E00082F200EBD20030BC7047D1E9002304F06A
:1001F0000305C4F100004FEAC50514F0040F91F89F
:1002000040F00CFA05F562EA05021CBF63EA05033B
:1002100062464FF00004AAE7844641EA000313F067
:1002200003036DD1403A41D351F8043B40F8043BFD
:1002300051F8043B40F8043B51F8043B40F8043BC0
:1002400051F8043B40F8043B51F8043B40F8043BB0
:1002500051F8043B40F8043B51F8043B40F8043BA0
:1002600051F8043B40F8043B51F8043B40F8043B90
:1002700051F8043B40F8043B51F8043B40F8043B80
:1002800051F8043B40F8043B51F8043B40F8043B70
:1002900051F8043B40F8043B51F8043B40F8043B60
:1002A00051F8043B40F8043B403ABDD2303211D300
:1002B00051F8043B40F8043B51F8043B40F8043B40
:1002C00051F8043B40F8043B51F8043B40F8043B30
:1002D000103AEDD20C3205D351F8043B40F8043B00
:1002E000043AF9D2043208D0D2071CBF11F8013BFE
:1002F00000F8013B01D30B8803806046704700BFC4
:10030000082A13D38B078DD010F003038AD0C3F1D2
:100310000403D21ADB071CBF11F8013B00F8013BB4
:1003200080D331F8023B20F8023B7BE7043AD9D373
:10033000013A11F8013B00F8013BF9D20B78037048
:100340004B7843708B788370604670477BB972B985
:100350000029BEBF00204FF0004106E008BF002882
:100360001CBF6FF000414FF0FF3000F057B8ADF107
:10037000080C6DE904CE002909DB002B1ADB00F024
:100380004FF8DDF804E0DDE9022304B07047404295
:1003900061EB4101002B1BDB00F042F8DDF804E0CB
:1003A000DDE9022304B0404261EB4101524263EBBC
:1003B00043037047524263EB430300F031F8DDF82A
:1003C00004E0DDE9022304B0404261EB41017047E3
:1003D000524263EB430300F023F8DDF804E0DDE96B
:1003E000022304B0524263EB4303704753B94AB946
:1003F000002908BF00281CBF4FF0FF314FF0FF302D
:1004000000F00CB8ADF1080C6DE904CE00F008F86E
:10041000DDF804E0DDE9022304B07047704700BF57
:100420002DE9F0478C468E46089E1546044619462F
:10043000002B40F0D080724547D9B2FA82F74FB115
:10044000C7F120030EFA07FC20FA03F3BD4043EA8C
:100450000C0CBC404FEA154EA8B2BCFBFEF8230CB6
:100460000EFB18CC08FB00F943EA0C43994528D948
:10047000EB1808F1FF3204D2994502D9A8F1020223
:100480002B44A3EB0903A4B2B3FBFEFC0EFB1C330D
:100490000CFB00F044EA0344A04214D92C190CF1DF
:1004A000FF3304D2A04202D9ACF102032C44241A37
:1004B00043EA02401EB1FC40002334607360BDE893
:1004C000F0874246DDE76346F1E7002A79D0B2FAC9
:1004D00082F3002B3FD01946C1F1200302FA01F547
:1004E0002EFA03F20EFA01FE20FA03F343EA0E039A
:1004F0004FEA154E00FA01F4B2FBFEFCAFB20EFB60
:100500001C201A0C0CFB07F842EA004290455AD90D
:10051000AA180CF1FF3004D2904502D9ACF10200C8
:100520002A44A2EB08029BB2B2FBFEFC0EFB1C228B
:100530000CFB07F743EA02439F4246D9EB180CF144
:10054000FF3204D29F4202D9ACF102022B44DB1BE2
:1005500042EA004202E0AEEB020301224FEA154EEE
:10056000AFB2B3FBFEFC200C0EFB1C330CFB07F8F8
:1005700040EA034398452AD9EB180CF1FF3004D226
:10058000984502D9ACF102002B44A3EB0803A4B2B6
:10059000B3FBFEFC0EFB1C330CFB07F744EA0344E1
:1005A000A74216D92C190CF1FF3304D2A74202D965
:1005B000ACF102032C44E41B43EA00400F46114611
:1005C00078E71F2188E76046ABE76246BFE76046F1
:1005D000DBE76346EFE7734506D916B90021084605
:1005E0006DE7C6E9000EF9E7B3FA83F787B97345FB
:1005F00001D3824207D8841A6EEB030301209C4684
:100600001EB900215BE73846FAE7C6E9004CF8E777
:10061000C7F1200CBB4022FA0CF51D4320FA0CF167
:100620002EFA0CF30EFA07FE41EA0E014FEA1549C5
:1006300000FA07F4B3FBF9F81FFA85FE09FB18303E
:100640000B0C08FB0EFA43EA00439A4502FA07F244
:1006500040D9EB1808F1FF3004D29A4502D9A8F12D
:1006600002002B44A3EB0A0389B2B3FBF9F809FBA0
:10067000183308FB0EFE41EA03418E452CD9691858
:1006800008F1FF3304D28E4502D9A8F102032944B0
:1006900043EA0040A0FB0298A1EB0E014145CE4683
:1006A000434602D306D14C4504D2B9EB020E68EBA7
:1006B00005030138002EA4D0B4EB0E0261EB030158
:1006C00001FA0CFC22FA07F34CEA0303F940C6E9ED
:1006D000003196E74046C5E74346D9E710B558B123
:1006E000024683681548834216D21548834213D3C5
:1006F000DB681046984710BD124C40F2F253224678
:10070000114912480EF0D2FF11480EF0CFFF40F20F
:10071000F25120460EF0C1FF0A4C40F2F25322463D
:100720000C490A480EF0C2FF0B490C480EF0BEFF00
:1007300040F2F25120460EF0B0FF00BF602A0108DF
:100740003C2A0108E02C0108142D0108282D01087D
:10075000482D01085C2D01089C2E0108A42E0108DB
:1007600010B558B1024683681548834216D2154821
:10077000834213D31B691046984710BD124C40F2B8
:100780001F632246114912480EF090FF11480EF0E7
:100790008DFF40F21F6120460EF07FFF0A4C40F2B1
:1007A0001F6322460C490A480EF080FF0B490C4893
:1007B0000EF07CFF40F21F6120460EF06EFF00BF7E
:1007C000602A01083C2A0108E02C0108142D0108C8
:1007D000282D0108482D01085C2D01089C2E0108D8
:1007E000A42E010810B543681C68012303FA01F127
:1007F0000C4203D092B1FFF771FF10BD094C40F2DB
:10080000F7632246084909480EF050FF08480EF0E9
:100810004DFF40F2F76120460EF03FFFFFF7A0FFCB
:10082000EBE700BFE02C0108BC2E0108282D0108D1
:10083000FC2E010838B5436805691C6801238B400C
:100840001C4208D02C68234202D0B2FA82F252092C
:10085000FFF7C8FF38BD084C40F222732246074913
:1008600007480EF023FF07480EF020FF40F22271E8
:1008700020460EF012FF00BFE02C0108BC2E01083C
:10088000282D0108FC2E010830B589B00022002374
:10089000CDE90623002404940423039302940194D5
:1008A00000940C4B4FF482520B490C480BF0F2FBB6
:1008B0000B4D224608212846FFF7BCFF4FF47A7003
:1008C00000210CF0A3FE012208212846FFF7B2FF09
:1008D000FEE700BF83F5000880110020C803002058
:1008E000882601082DE9F84304460D46131D50F8EB
:1008F00023607EB9C368012191400B43C360043279
:1009000040F82250EB001A1DADB285520633C55295
:10091000BDE8F883F700043730F807904FEAC908BC
:1009200008F1060830F808309E420AD1EB001A1D83
:1009300024F802900633E652ADB224F80850E5538D
:10094000E6E7074A012107480FF0BDF9002383F3CA
:100950001188BFF36F8F0423184602DFE6E700BF5C
:10096000102F01080C2C010870B5B2F5802F31D280
:100970000346042A3ED9043AC81D20F007000A4461
:1009800022F00702121AD608172A43D91860866087
:100990000023C360B6FA86F1C1F1200EC1F124052F
:1009A000AD000735E9084B1CB34294BF0023012377
:1009B000002B45D0354C40F233332246344935487C
:1009C0000EF074FE34480EF071FE40F233312046D2
:1009D0000EF063FE2D4C40F20A3322462F492D487B
:1009E0000EF064FE2E480EF061FE40F20A31204601
:1009F0000EF053FE254C40F211332246294925487A
:100A00000EF054FE24480EF051FE40F21131204603
:100A10000EF043FE1D4C40F21D33224622491D4874
:100A20000EF044FE1C480EF041FE40F21D312046FF
:100A30000EF033FE03F1040C002440F82C40013387
:100A40007345F7DB1FFA81FC4FEA4C039BB24380EE
:100A50000024048043F001034380731A25F0070546
:100A6000AE1C9BB24FEA430E20F806E020F805C00A
:100A700022F00705961C845302444353538843F0E5
:100A8000010353800EF084FD70BD00BF342F0108B8
:100A900030300108282D0108E82F0108942F0108A3
:100AA000AC2F0108C42F01080430010808B5024822
:100AB0000EF0E5FD002008BD643001080F4B9842A0
:100AC00002D30F4B98420FD30E4B23B1984202D35F
:100AD0000D4B98420AD30D4B53B198420AD30C4B9D
:100AE000984209D3002070470120704701207047C9
:100AF00000207047002070470120704770240108D3
:100B00003CB00108000000000000000000000000F0
:100B10000000000070B504460D46194616465AB14D
:100B200064B129B93046FFF70BFB83B2013399B2A8
:100B30002A463046A04770BD034EF1E73046FFF726
:100B4000FFFA0130F7E700BFA0300108F8B540B167
:100B5000064603784578847804EB83040444002730
:100B600011E00B4CC62322460A490B480EF09EFDAD
:100B7000C62120460EF091FD01342046FFF7E0FA31
:100B8000013004440137AF42F6D3A01BF8BD00BFCB
:100B9000A8300108D8300108282D01082DE9F04FB0
:100BA00091B006920393134602F004020092C3F33D
:100BB000C20210F00303019340F05E8207468946AB
:100BC0000132041D00284BD0072940F25882039BB4
:100BD0005D1EDDF804B0CDF810B0CDF814B00026DD
:100BE0004FF0FF3A4FF00408CDF808B0C3460FB1FC
:100BF000039B2360531E0793002A40F35F81069BEB
:100C000013F0020229D04FF0010CE11B8B081AB13E
:100C1000B1F5007F80F05D81029A0F2A00F26981B0
:100C2000002F00F07A81DBB2029901F140026A44A0
:100C300002F8103C02F820ACBCF1000F00F0698112
:100C400063F07F0301F140026A4402F8103C049B08
:100C500001330493029B01330293043400223EE0EB
:100C600001F007031C44C3F10809B0E7002635E092
:100C7000002633E0002631E04FF00808C3462DE09F
:100C800025292BD10AF1010A01264FF00408C34699
:100C900024E04729ECD82A2912D32A39C9B20120E5
:100CA00000FA01F14FF6DA70014217D111F0625FDC
:100CB00040F0C28011F0010F40F08C8000260DE062
:100CC000252903D10AF1FF3A002607E0D2D82029CE
:100CD00004D0232902D0002600E000261D466B1C0C
:100CE0006978002900F04581002EC9D07A29BDD845
:100CF0004C29CED34C392E29EFD801A050F821F041
:100D0000DD0C0008DB0C0008DB0C0008DB0C000825
:100D1000DB0C0008DB0C0008DB0C0008DB0C000817
:100D2000DB0C0008DB0C0008DB0C0008DB0C000807
:100D3000CD0D0008DB0C0008DB0C0008DB0C000804
:100D4000DB0C0008DB0C0008DB0C0008DB0C0008E7
:100D5000DB0C0008390E0008DB0C0008CD0D000884
:100D6000CD0D0008390E0008390E0008390E0008B4
:100D7000DD0C0008CD0D0008790C0008DB0C000824
:100D8000DD0C0008DB0C0008970E0008CD0D0008F4
:100D9000970E0008DB0C0008DB0C0008A10E000811
:100DA000C50D0008CD0D0008DB0C0008DB0C0008A9
:100DB000CD0D0008DB0C0008BD0D00084FF0040845
:100DC000C3468BE74FF00408C34687E729786C29B0
:100DD00024D000264444013CB4FBF8F408FB04F49E
:100DE00027B1E11B5944494500F24C81002A5DD1ED
:100DF000BBF1040F00F0A480BBF1080F40F0A88005
:100E00001A99073121F0070101F108001A90D1E980
:100E100000010FB1C4E9000108345FE713F8021CB8
:100E20006C2904D000264FF00408C346D2E7002600
:100E30004FF00808C346CDE729784C291BD01A99F2
:100E4000073121F0070101F108001A90D1E90001F2
:100E5000073424F0070447B1E61B08364E4514D882
:100E60002D784C2D14D0C4E90001083400264FF031
:100E70000808C34632E71A99073121F0070101F14A
:100E800008001A90D1E90001E2E76FF01B00F0E0E2
:100E9000C4E90001E9E700264FF00408C34699E7DA
:100EA000324600264FF00408C34693E71A9A111DF4
:100EB0001A9112680392079A1D4698E60398FFF765
:100EC000FDFD844600287FF49AAE069B03F00202E3
:100ED0009BE6714C4FF422732246704970480EF025
:100EE000E5FB70480EF0E2FB4FF4227120460EF055
:100EF000D4FB694C40F28D232246684968480EF0C5
:100F0000D5FB69480EF0D2FB40F28D2120460EF051
:100F1000C4FB059B013305939CE6BCF1000F02D096
:100F200009F1010996E6009B13B109F1020991E666
:100F30000398FFF705F909EB000303F1020989E6BD
:100F40001A99081D1A90096807B121600434C5E692
:100F5000514C40F2D2232246504951480EF0A6FB94
:100F6000594652480EF0A2FB40F2D22120460EF024
:100F700094FBDDF808B0E31BB3F5806F11D207B323
:100F800000223A609B083B70009BF3B1059BFB700D
:100F9000049BBB708BBB019DDDF810A0DDF80C80BD
:100FA0004AE03D4C40F2DE2322463C493C480EF0EC
:100FB0007DFB3F480EF07AFB40F2DE2120460EF02A
:100FC0006CFB4B44A3F1080053E0059B7B70DFE70B
:100FD00001339B45DFD903F140026A4412F8101C2B
:100FE00012F9102C002AF3DA01F07F01E21B013222
:100FF0004A454AD804F8011BEAE7019BE9E7009B50
:101000003BB305F140036B4413F8203C04F8013B6B
:10101000019EE31B334401334B4539D805F14003AE
:101020006B4413F8103C04F8013B3246414620461D
:10103000FFF7F2F834440135AB4519D9BAF1000F86
:10104000DDD005F140036B4413F9103C002BD6DAD8
:10105000F1E705F140036B4413F8103C57F8238087
:10106000002247F823204046FFF76AF8461CD0E7E5
:10107000E01B11B0BDE8F08F6FF00D00F9E76FF0E5
:101080001B00F6E76FF01B00F3E76FF01B00F0E7C3
:101090006FF01B00EDE700BFA8300108F030010839
:1010A000282D0108F43001081831010834310108F5
:1010B0004C3101082DE9F04F97B000AF7961BA616A
:1010C000FB60002844D08346B0FA80F46409D7F866
:1010D0008030C3F3C0033B627B69002B45D09BF893
:1010E0000260B1462EB1D7F8803013F0010F00D066
:1010F000012423469BF803207A6222B1D7F880208E
:1011000012F0020F00D1A3B39BF80050AA00BA60FE
:10111000DBF804203A610BEB8505BA69AAB3002B12
:1011200000F02281B9F1100F00F2118107F14400A3
:101130004FF0000A4A462946FFF76EF89BF8023046
:101140001D444FF00008C7F80490C7F81CB08CE1AC
:10115000B34C40F2A5332246B249B3480EF0A6FA8A
:1011600040F2A53120460EF098FAFFF7EFFC7861C7
:10117000B5E7BB691BB1FA687969584698477C693D
:1011800020465C37BD46BDE8F08F7C69E3B94D442D
:1011900000237B6123E00444013501364E451AD219
:1011A0002A7800235BF822201946B869FFF7B2FCC1
:1011B000BAF1000FEFD0D7F888309845EBD22AF873
:1011C000180008F10108E6E70026C7F81C80B046C1
:1011D000D7F884A0E2E7C7F81480D7F81C80D7F8C6
:1011E000803003F00503FB604FF0000AA146C7F80A
:1011F0001CB08AE0594638690EF014FA002800F055
:1012000096806C46002387F82C30022387F82D3017
:101210008AB0694611F1100237D012251AB1042D97
:1012200001DD824B4B61002387F82830022387F8C9
:1012300029306ABB112D45DD122362B1042087F8E5
:101240002C00002087F82D0087F82E00012087F859
:101250002F00F86A086128F0010828F0020828F039
:10126000040828F03808022161F38818C3F30A0340
:1012700063F35328C8F31308002341466C4801F078
:101280005FFBA546A9F102093CE06FF00045C5E708
:101290002B46082D01DD386988610C2B01DDC1F872
:1012A0001CB001F12003002009E000F1300C07F12F
:1012B000280EF4441CF830CC03F801CB013001288F
:1012C000F3D9B7E76FF01B03B7E701233AE0D7F88C
:1012D000803013F0020F15D0002322461946B8695A
:1012E000FFF718FCD7F8843053B17B69D7F8882012
:1012F000934205D2D7F8842022F8130001337B6192
:10130000013881440AF1010A35467B6A9A451CD2AC
:101310002E4616F802BB6B78FA6952F82340204635
:10132000FFF7CCFB05463B6A002B7FF463AF002D33
:10133000CDD0D7F8803013F0010FCDD1FB68002B52
:10134000C3D10223A9EB0309DCE74C4618E7344C70
:1013500040F22D432246374933480EF0A7F940F2B8
:101360002D4120460EF099F9B9F1000F19D0D7F8A8
:10137000803013F0040F18D0B9F1100F04D8B24622
:1013800007F134000026D5E6254C4FF4876322464A
:10139000294925480EF08AF94FF4876120460EF05E
:1013A0007CF94FF0000A5646C8E64FF0000A564650
:1013B000C4E6594638690EF035F9002866D051E088
:1013C000174C40F2614322461C4917480EF06EF953
:1013D00040F2614120460EF060F9D7F8803013F0FA
:1013E000040F3FD0BAF10F0F0CD80AF101030AF134
:1013F000300207F1280102EB010A0AF8249C5FFA87
:1014000083FA2FE0064C40F2664322460C49064818
:101410000EF04CF940F2664120460EF03EF900BF56
:10142000A830010864310108282D01088031010825
:10143000842B010824320108443201086432010877
:1014400084320108D7F8803013F0020F3ED00F2EFF
:101450002FD8731C06F1300207F12801561806F840
:10146000149CDEB208F1010825467B6A984551D2EA
:101470002C4614F802BB95F80190FB6953F829003B
:10148000FFF71CFB05463B6A002B92D1002DD9D0FB
:10149000D7F8803013F0010F9FD00F2E90D8731C17
:1014A00006F1300207F12801561806F8149CDEB246
:1014B000D8E7664C40F26F432246654965480EF016
:1014C000F5F840F26F4120460EF0E7F8BAF10F0F41
:1014D00013D80AF101030AF1300207F128010A4486
:1014E00002F824BC0AF1020A5FFA8AFA07F15802EC
:1014F00052FA83F303F8249CB4E7544C40F274434B
:101500002246554953480EF0D1F840F27441204626
:101510000EF0C3F8D7F80490D7F81CB09BF8003051
:1015200087F854309BF80130334487F85530D7F8AA
:10153000803013F0020F0DD1CAF3470387F85730FC
:10154000D7F8803013F0010F06D113F0040F3AD111
:10155000002302E00023F1E7002387F85630DBF890
:1015600000003863786DCBF80000FA68B968584617
:10157000D7F81880C047041EFFF602AE386BCBF8D0
:101580000000FA68514607F13400C246C0470028FF
:1015900055DB04EB0008B96849447B6A01EB430161
:1015A000D7F80C904A467B69591A2846D047041E42
:1015B000FFF6E6AD08EB04054FF00008C7F824B0CD
:1015C000B346544619E05346C7E74FF0000A01E01E
:1015D0004FF0000A4A46012107F12C00A0470028DD
:1015E0002FDB05445346324649462046FFF792FA20
:1015F000002828DB054408F10108D84518D208F175
:10160000300307F12802134413F8143C87F82C30F8
:101610007A6A52F82360D7F88430002BD5D0D7F8F7
:1016200088309845D4D2D7F8843033F818A0D1E761
:10163000FA6800210846BB6998472C46A0E5044695
:101640009EE504469CE504469AE500BFA8300108E3
:1016500064320108282D010884320108014B18600A
:10166000704700BFA002002038B504460D46202276
:1016700000210DF087F9EB68E361AB68A3612B688B
:1016800023626B6863620022A2622A6922612BB125
:10169000591E0B4202D142F00102226104F12C00DA
:1016A0000122002110F083FD00B938BD054C302324
:1016B0002246054905480DF0F9FF302120460DF07E
:1016C000ECFF00BFB8320108E0320108282D010804
:1016D0002DE9F04F89B002929946002307930593B4
:1016E000436A8B42C0F00181834688464FF0000A6E
:1016F0000126CDF80CA065E07F4D8F232A467F4957
:101700007F480DF0D3FF21467E480DF0CFFF8F219B
:1017100028460DF0C2FF514658460EF0F9F8002356
:10172000059367E0DBF82030DBF8002003EB820153
:10173000039113F8221021F0010103F82210C9B21D
:1017400021F0020103F82210DBF800304344DBF8FB
:10175000102012F0010F05D1DBF824108B4205D3C5
:101760005B1A03E0DBF8241001390B40CBF80030A2
:10177000DBF80C108B4201D0002609E042F0080291
:10178000CBF81020002603E058460DF0F7FF2E4658
:10179000019D20460CF08CF980F0010010F0FF0F45
:1017A00040F0928085F31188BFF36F8F079931B1B4
:1017B000DBF818300BB15846984700230793002EEA
:1017C00000F095800BF11404EFF31187102383F3DD
:1017D0001288BFF36F8F20460CF05AF980F0010099
:1017E00010F0FF0F88D120460CF0C0F90197059A40
:1017F000002A90D106A958460DF066FF05460699C5
:1018000041458FD20028BFD1029B59EA03030BD177
:10181000002EBDD0DBF800A005AB07AA06995846FC
:101820000DF0DFFF0646B3E710F0A4FD0028EFD16E
:10183000002FEDD120460CF03BF980F0010010F0B4
:10184000FF0F21D187F31188BFF36F8F0BF12C00AD
:10185000029A4B4609F080FD0646EFF311851023EE
:1018600083F31288BFF36F8F20460CF011F980F0DC
:10187000010010F0FF0F18D120460CF077F9019508
:10188000B6FA86F6760983E71B4D40F23D132A46E9
:101890001D491B480DF00AFF21461C480DF006FFAC
:1018A00040F23D1128460DF0F8FE134D8F232A46D5
:1018B000124913480DF0FAFE214612480DF0F6FECB
:1018C0008F2128460DF0E9FE0B4D40F23D132A46CC
:1018D0000D490B480DF0EAFE21460C480DF0E6FEDE
:1018E00040F23D1128460DF0D8FE002303930398E3
:1018F00009B0BDE8F08F00BFEC3201081C330108CD
:10190000282D0108343301084C33010864330108E1
:101910002DE9F04104460D46C369084698478046C4
:1019200004F11406EFF31187102383F31288BFF339
:101930006F8F30460CF0ACF880F0010313F0FF0F0E
:1019400012D130460CF012F92B7843F001032B70C2
:10195000636803EB0800236913F0010F13D1636A76
:10196000984213D3C01A11E01A4C8F2322461A4909
:101970001A480DF09BFE314619480DF097FE8F2155
:1019800020460DF08AFE636A013B184060602046E5
:101990000DF0D2FE30460CF08BF880F0010010F014
:1019A000FF0F05D187F31188BFF36F8FBDE8F0817A
:1019B000084C40F23D1322460A4908480DF076FED5
:1019C000314609480DF072FE40F23D1120460DF0FF
:1019D00064FE00BFEC3201081C330108282D010809
:1019E000343301084C330108643301082DE9F04316
:1019F00083B0044600274BE0544C8F2322465449C1
:101A000054480DF053FE294653480DF04FFE8F21E8
:101A100020460DF042FE53F82210890869D15EE09D
:101A2000626A013A1340A36020460DF094FE01273C
:101A3000B9461EE013F8221041F0020103F822100B
:101A4000D4F80890E369404698474844236913F066
:101A5000010F04D1636A984204D3C01A02E0636A9A
:101A6000013B1840A0604FF0000902E04FF0000970
:101A7000C84628460CF01CF880F0010010F0FF0F5B
:101A800046D186F31188BFF36F8FB9F1000F50D0A4
:101A900004F11405EFF31186102383F31288BFF3CA
:101AA0006F8F28460BF0F4FF80F0010010F0FF0F5D
:101AB000A2D128460CF05AF801A920460DF018FED4
:101AC000236AA26803EB820801990029CED013F89B
:101AD000221011F0030117D002299CD0002113F825
:101AE000220010F0010FA5D119B9E36940469847CB
:101AF0000146A3680B44226912F0010F90D1626A7B
:101B0000934290D39B1A8EE74FF00009C846B0E786
:101B10000E4C40F23D13224610490E480DF0C6FD12
:101B200029460F480DF0C2FD40F23D1120460DF050
:101B3000B4FD17B1B8F1000F03D0404603B0BDE8C3
:101B4000F08304F12C0009F099FBF6E7EC32010870
:101B50001C330108282D0108343301084C330108D7
:101B6000643301082DE9F04104460D46C369084677
:101B70009847064604F11407EFF31188102383F306
:101B80001288BFF36F8F38460BF082FF80F00100A0
:101B900010F0FF0F15D138460BF0E8FF2B7823F03B
:101BA00001032B70236913F0020F19D0236AE26836
:101BB00003EB8203AB4213D02B6866F39F032B60C9
:101BC0001AE0264C8F232246254926480DF06EFD4B
:101BD000394625480DF06AFD8F2120460DF05DFD48
:101BE0002B7823F002032B70E268A3689A4215D089
:101BF000314620460DF0AFFD38460BF059FF80F01E
:101C0000010010F0FF0F18D188F31188BFF36F8F18
:101C100004F12C0009F032FBBDE8F0813344226965
:101C200012F0010F04D1626A934204D39B1A02E0BE
:101C3000626A013A1340A360DAE7084C40F23D13B0
:101C400022460A4907480DF031FD394608480DF093
:101C50002DFD40F23D1120460DF01FFDEC32010834
:101C60001C330108282D0108343301084C330108C6
:101C70006433010870B582B0044600F11405EFF337
:101C80001186102383F31288BFF36F8F28460BF061
:101C9000FFFE80F0010010F0FF0F18D128460BF076
:101CA00065FF01A920460DF023FD28460BF000FF3B
:101CB00080F0010010F0FF0F18D186F31188BFF3F8
:101CC0006F8F0198003818BF012002B070BD104C12
:101CD0008F2322460F4910480DF0E8FC29460F4893
:101CE0000DF0E4FC8F2120460DF0D7FC084C40F2AB
:101CF0003D1322460A4908480DF0D8FC29460948F8
:101D00000DF0D4FC40F23D1120460DF0C6FC00BFA2
:101D1000EC3201081C330108282D01083433010876
:101D20004C33010864330108034A536843F002034B
:101D300053600020704700BF002004E008B502494E
:101D40000DF018FE08BD00BF551E000810B560B1AB
:101D5000024683681548834215D21548834212D340
:101D60001B68FBB11046984710BD124CB6232246A3
:101D7000114912480DF09AFC11480DF097FCB6215C
:101D800020460DF08AFC0B4CB62322460D490B4829
:101D90000DF08CFC0C490D480DF088FCB621204656
:101DA0000DF07BFC6FF05700DEE700BFE42A01086E
:101DB000C82A010888330108C4330108282D010806
:101DC000482D0108D833010854350108A42E010814
:101DD00010B560B1024683681548834215D2154894
:101DE000834212D35B68FBB11046984710BD124C7A
:101DF000CC232246114912480DF058FC11480DF031
:101E000055FCCC2120460DF048FC0B4CCC2322463F
:101E10000D490B480DF04AFC0C490D480DF046FCED
:101E2000CC2120460DF039FC6FF05700DEE700BFF3
:101E3000E42A0108C82A010888330108C4330108CC
:101E4000282D0108482D0108D83301085435010810
:101E5000A42E010808B50B4641680C31012B11D0A6
:101E600007D81BB90948FFF7B3FF0EE06FF08500F4
:101E70000BE0023BDBB2012B01D8002005E06FF044
:101E8000850002E00148FFF761FF08BD70250108E9
:101E900010B5082808D8064B53F82040204610F00B
:101EA00049F918B1204610BD0024FBE70024F9E7EA
:101EB00040720108084B1A6842F480721A601A686E
:101EC00042F400721A601A6842F480621A60034B8E
:101ED000034A1A60704700BF003C0240EC02002039
:101EE0000024F40010B143685879704710B5064CCF
:101EF0004FF4A6732246054905480DF0D7FB4FF471
:101F0000A67120460DF0C9FB1C36010854360108A5
:101F1000282D010810B143681971704710B5054CA0
:101F2000F8232246044905480DF0C0FBF82120465D
:101F30000DF0B3FB1C36010854360108282D0108AA
:101F400010B540B104460368DB6803B19847636885
:101F500001229A7110BD054CA3232246044905486D
:101F60000DF0A4FBA32120460DF097FB1C360108C1
:101F700054360108282D010810B5034640B1B0FAC7
:101F800080F040091A6812690AB11846904710BDDE
:101F9000054CB7232246054905480DF087FBB721BC
:101FA00020460DF07AFB00BF1C36010854360108AC
:101FB000282D010810B518B102689268904710BD2D
:101FC000054CE9232246054905480DF06FFBE92140
:101FD00020460DF062FB00BF1C3601085436010894
:101FE000282D010810B520B10268526802B190474F
:101FF00010BD054CDB232246044905480DF056FB75
:10200000DB2120460DF049FB1C360108543601083F
:10201000282D010810B520B171B1026812689047EF
:1020200010BD0B4CCB2322460A490B480DF03EFB5A
:10203000CB2120460DF031FB054CCC23224607492D
:1020400005480DF033FBCC2120460DF026FB00BFE8
:102050001C36010854360108282D01086C36010889
:1020600038B50546144C00E01034144B9C4212D88D
:10207000124B9C421FD22046FFF734FF0028F3D0BA
:10208000294620460DF07BFD0028EDD0294620464C
:10209000FFF7C0FFE8E70A4C40F20A23224609494D
:1020A00009480DF003FB09480DF000FB40F20A213E
:1020B00020460DF0F2FA38BD542C0108642C0108BA
:1020C00080360108B0360108282D0108D4360108F1
:1020D00010B50C4B1B78012B04D101F0A1FE0A4B6B
:1020E000185810BD094C40F28F3322460849094860
:1020F0000DF0DCFA08480DF0D9FA40F28F31204695
:102100000DF0CBFA6F11002008000000F436010832
:1021100020370108282D01083437010810B530B1E7
:102120000346006884690CB11846A04710BD064CF0
:1021300040F27B132246054905480DF0B7FA40F2FC
:102140007B1120460DF0A9FA1C360108543601080F
:10215000282D010870B506460D460F4C0F4B9C42CA
:1021600009D80E4B9C4216D22A4631462046FFF72C
:10217000D5FF1034F2E70A4C40F2C3332246094936
:1021800009480DF093FA09480DF090FA40F2C33176
:1021900020460DF082FA70BD542C0108642C010811
:1021A00080360108B0360108282D0108D436010810
:1021B0002DE9F04107460546EDB195FAA5F6B6FAC8
:1021C00086F60E4C04EB06140123B3406FEA0308B5
:1021D00025EA0305237B002BEED02046FFF7CCFE3B
:1021E0000028E9D107EA0807636804221968204635
:1021F0000DF000FDE0E73846BDE8F081542C010801
:102200002DE9F041324D334BED1A8F2D94BF00254F
:1022100001258DB980460F462F4BBFF35B8F53E8E6
:10222000006F721C43E800210029F8D1BFF35B8FD7
:10223000002E49D1274C14E0284C40F2531322467B
:10224000274928480DF032FA40F2531120460DF08C
:1022500024FA63680422196820460DF0CBFC01358E
:1022600010341B4B9C4211D8194B9C421ED2237B2D
:10227000002BF4D02046FFF763FE2046FFF77CFEDC
:102280000028E6D00123AB401E43E8E7134C40F2A0
:102290005F132246144913480DF008FA13480DF055
:1022A00005FA40F25F1120460DF0F7F9B8F1000F82
:1022B0000BD056B13046FFF77BFF0646002FF8D013
:1022C0000A200DF062FCF4E700263046BDE8F081FC
:1022D000642C0108542C0108A00D00208036010850
:1022E00058370108282D0108B0360108D4360108F6
:1022F00008B5064B186018B1054B1B68092B00DCAC
:1023000008BD044808F0BAFFFAE700BF940D0020AA
:102310009C0D0020B403002008B5024808F0AEFF71
:1023200008BD00BFB403002030B589B000220F49BA
:102330000F4810F07DF80F4D00220023CDE9062351
:10234000002404940E2303930294019400940A4BF6
:102350004FF400620949284609F09CFE08492846C6
:1023600010F00EF8204609B030BD00BF1923000858
:10237000D00800204804002001280008C0210020C7
:1023800088370108014B53F8200070477872010824
:1023900048B108B5054A1060054B1960084600F0C1
:1023A00063FE002008BD6FF015007047A4020020F6
:1023B000900D002008B5054B1B781BB1034B012283
:1023C0001A7008BD024808F059FFF7E76C110020A9
:1023D000B403002008B5104BBFF35B8F53E8001F18
:1023E000013143E80012002AF8D1BFF35B8F30B906
:1023F0000A480CF0D1F90A4808F040FF08BD094B23
:10240000BFF35B8F53E8001F013943E80012002A35
:10241000F8D1BFF35B8FEBE7980D0020D0080020C8
:10242000B40300209C0D0020064B0022BFF35B8FFD
:1024300053E8000F43E800210029F9D1BFF35B8F77
:10244000704700BF980D002038B5FFF7EDFF054637
:10245000114C00E01034114B9C420CD80F4B9C42A5
:1024600019D22046FFF73EFD0028F3D0294620462A
:10247000FFF7B8FDEEE70A4C40F216232246094961
:1024800009480DF013F909480DF010F940F2162132
:1024900020460DF002F938BD542C0108642C0108C7
:1024A00080360108B0360108282D0108D43601080D
:1024B000034B18680028D4BF00200120704700BFDC
:1024C000980D002010B5044C04492046FFF7CCF8C5
:1024D000034B1C6010BD00BF300300206472010874
:1024E000880D002010B50023174A1370174A136097
:1024F000174A13604FF47A711648FFF749FFFFF748
:10250000E1FF154C154B9C420CD8144B9C4219D240
:102510001149611A09110131C9B22046FFF7FAFCCD
:102520001034EFE70E4C40F22B1322460D490E48B3
:102530000DF0BCF80D480DF0B9F840F22B11204613
:102540000DF0ABF810BD00BF6D110020980D0020FC
:102550009C0D002083FB0008542C0108642C01080A
:1025600080360108B0360108282D0108D43601084C
:1025700008B5014601480DF00FFB08BD30030020EF
:1025800008B50248FFF732FA08BD00BF300300204B
:1025900008B50146024B18680DF004FB08BD00BFEA
:1025A000880D002008B502480DF000FB08BD00BFF3
:1025B0003003002010B582B000220023CDE90023B3
:1025C000204B187808B902B010BD68460DF006FB24
:1025D000044680B1FFF744FD2046FFF7D9FF1A4BB0
:1025E000BFF35B8F53E8001F013943E80012002A54
:1025F000F8D1BFF35B8FFFF75BFF70B9134A136825
:10260000516813F57A7341F1000113605160ACB168
:10261000FFF7C8FFA0B10120D5E70FF005FF0B4A77
:1026200013685268C01A61EB020140F2E933984224
:1026300071F10001E2D3FFF707FFDFE70020C2E7F7
:102640000020C0E76C1100209C0D0020C80800206D
:10265000194B1B7803B1704710B500210120FFF71B
:10266000CFFD164C00E01034154B9C420BD8144B98
:102670009C4218D22046FFF735FC0028F3D02046B4
:10268000FFF798FCEFE70F4C40F2CF1322460E49BC
:102690000E480DF00BF80E480DF008F840F2CF117F
:1026A00020460CF0FAFFFFF785FF0028FBD1024B14
:1026B00001221A7010BD00BF6D110020542C0108BA
:1026C000642C010880360108B0360108282D010865
:1026D000D436010830B583B0354BBFF35B8F53E878
:1026E000002F511C43E800100028F8D1BFF35B8F86
:1026F000304B1B786BB9304B1B685BB3002A4BD057
:10270000092A27D12D480CF047F82D4808F0B6FDCE
:1027100020E0EFF31184102383F31288BFF36F8F4F
:1027200028480BF0B5F980F0010010F0FF0F13D12D
:10273000244D28460BF01AFAFFF73CFF28460BF011
:10274000B7F980F0010010F0FF0F14D184F3118865
:10275000BFF36F8F03B030BD1B4C8F2322461B4944
:102760001B480CF0A3FF17491A480CF09FFF8F215C
:1027700020460CF092FF144C40F23D1322461649BD
:1027800013480CF093FF294614480CF08FFF40F2D9
:102790003D1120460CF081FF00220023CDE90023EB
:1027A0004FF47A72002305480BF088FFD2E700BF90
:1027B0009C0D00206D110020940D0020D0080020F9
:1027C000B40300208C0D0020EC3201081C330108FA
:1027D000282D0108343301084C3301086433010803
:1027E00010B50446044B1B689847A0602146034877
:1027F0000DF0F8F910BD00BFA40200203003002046
:102800002DE9F041224B234A9B1A1B090DD00021D0
:102810000846FFF7F5FC8046A0B132260027FFF7F7
:1028200057FCFFF765FD002522E01B4C40F2CF333B
:1028300022461A491A480CF039FF40F2CF3120469F
:102840000CF02BFF4FF0FF364FF0FF37E7E7404625
:10285000FFF7AEFC804670B94FF0FF364FF0FF3700
:1028600009E02C4632463B460E4808F075FD2546E9
:10287000B8F1000FEBD1FFF79DFE04460028F6D11A
:10288000002DEED000210846FFF764FCEAE700BF08
:10289000642C0108542C0108803601089037010887
:1028A000282D0108B403002028B142681160436854
:1028B00001225A71704710B5064C40F2311322467E
:1028C000054906480CF0F2FE40F2311120460CF0AA
:1028D000E4FE00BF1C36010854360108282D01080B
:1028E0000248034BC01AC008704700BF542C0108AF
:1028F0007C2B010810B50C46FFF7F2FFA04203D96C
:10290000024B53F8340010BD0020FCE77C2B01087B
:1029100000B589B0059206930023079362B1074A78
:102920000C9B02930B9B01930A9B009305ABFEF754
:10293000C1FB09B05DF804FB0022F1E705FC0008CB
:102940002DE9F04F8BB004AF05461E468846C1F313
:102950004A24002C00F0978091460022FA603A61E8
:102960007A6104230293FB1801930A23009307F171
:102970000C0321464846FEF79DFBB0F5006F58D387
:10298000D9F804106D4600233B7302237B738AB091
:1029900004AC14F1100217D012201AB1042801DD82
:1029A000424B636100233B7002237B70CAB1034634
:1029B000082800DDA1610C2B02DD40F2FF73E3610A
:1029C00004F1200300210AE06FF00040E5E701F187
:1029D00018063E4416F8186C03F8016B0131012902
:1029E000F5D9112822DD122342B1042139730021C7
:1029F0007973B9730121F973F8682061002121F01E
:102A0000010121F0020121F0040121F0380102202E
:102A100060F38811C3F30A0363F353210023C1F366
:102A2000130123480DF071F9AD463BE06FF01B0335
:102A3000DAE760F35328C0F30A0A0AEB185017309C
:102A400020F007008008FFF793FD834620B304239E
:102A50000293FB1801930A230093534600F11002DE
:102A600021464846FFF754FF002815DA114C40F282
:102A700049132246104911480CF018FE40F2491142
:102A800020460CF00AFE04EB1154173424F007041E
:102A9000A008FFF76DFD8346334642462946584657
:102AA0000DF0C9F81C37BD46BDE8F08F08380108A5
:102AB000E42B01084838010874380108282D010862
:102AC0002DE9F04F85B00746884616469946DDF851
:102AD00038B0DDF840A0BAF1000F51D0119B03933C
:102AE000009353460F9A10210020FEF757F8051E59
:102AF00031DBB5F5006F3BD20BEB0500173020F052
:102B000007008008002424F0010424F0020424F0CB
:102B1000040467F3C50466F3881465F353246BF368
:102B20001F54FFF725FD064660B11030BAF1000FC3
:102B300008D0119B009353460F9A2946FEF72EF8B2
:102B400000281FDB4B462246414630460DF073F805
:102B500005B0BDE8F08F124C4FF4BF732246114907
:102B600011480CF0A3FD4FF4BF7120460CF095FD09
:102B700040F2FF730D4A02210D480DF0AEF8E7E771
:102B80000025B9E7064C40F2A31322460549064842
:102B90000CF08CFD40F2A31120460CF07EFD00BF2E
:102BA0004838010880380108282D01088C380108B0
:102BB000E42B0108406820B1034BC01A40F3CF005A
:102BC00070474FF0FF3070477C2B010838B5054641
:102BD0000C464B681A68CB689A4214D06368BFF3FE
:102BE0005B8F53E8002F511C43E800100028F8D1F8
:102BF000BFF35B8FA3689D5463681A68E3689A42C9
:102C000005D8002038BD08460DF083F8E6E7054CEE
:102C10007E232246044905480CF048FD7E212046CB
:102C20000CF03BFDC4380108F4380108282D0108D8
:102C30000EB400B582B0014603AB53F8042B0193E8
:102C4000034801F0A3FB02B05DF804EB03B070474A
:102C5000CD2B000810B584B011F0440F05D01A4BED
:102C60001B6833B9002004B010BD1849FFF7E0FF1E
:102C7000F9E717490968B2FBF1F2B2FBF3FC03FB79
:102C80001C224FF47A7E0EFB02F2B2FBF3F403FB3C
:102C900014210EFB01F1B1FBF3F10E4AA2FB0C3241
:102CA000D20A4FF4616303FB12CC0B4BA3FB0CE382
:102CB0005B0902910194C3EB0311ACEB810100911C
:102CC0000649FFF7B5FFCEE7A80D0020243901081B
:102CD000A40D0020C5B3A2918988888830390108E5
:102CE00061B108B52AB1064A52F8232012B9054A43
:102CF00000E0044A0449FFF79BFF08BD704700BF8E
:102D0000B87201084C390108543901082DE9F04125
:102D100005461746079EDDF8208081B900242EB1B4
:102D2000324611492846FFF783FF0444B8F1000FEB
:102D300014D06FB10B9B042B13D00C4909E00C4B42
:102D40000B9A53F822200B49FFF772FF0446E6E77F
:102D5000064942462846FFF76BFF04442046BDE87B
:102D6000F0810549F5E700BF6C3901085C390108BD
:102D7000CC72010864390108583901082DE9F04F77
:102D800089B0069207939DF85860042E35D8054601
:102D90000C4601F0020B01F0010AC1F3C00801F476
:102DA00080790CF025FF0246002833D01E492846C2
:102DB000FFF73EFF0746BBF1000F2DD132465146CB
:102DC00028460CF0CCFFB9F1000F01D0002313937B
:102DD00005969DF854300493149B0393139B029320
:102DE000129B019300230093069A41462846FFF761
:102DF0008DFF384409B0BDE8F08F0C4C4FF41873C8
:102E000022460B490B480CF051FC4FF41871204638
:102E10000CF043FC0027CEE7079A21462846FFF72F
:102E200019FF0744CAE700BF7C390108C43801080C
:102E300070390108282D010811F0100F0BD108B5C9
:102E400011F0200F03D00449FFF7F2FE08BD03493B
:102E5000FFF7EEFEFAE77047803901088439010870
:102E60002DE9F04105460F46164698460699FFF7AC
:102E7000E3FF002404E025492846FFF7D9FE01348A
:102E80004445F8DB002409E020492846FFF7D0FE3E
:102E90000BE01F492846FFF7CBFE01340F2C0CDC5A
:102EA000002C02DD14F0070FEED0B442F1D23A5DEF
:102EB00018492846FFF7BCFEEFE717492846FFF7F9
:102EC000B7FE002409E011492846FFF7B1FE0BE0E8
:102ED00012492846FFF7ACFE01340F2C13DC002CFE
:102EE00002DD14F0070FEED0B44207D23A5D0C4B6E
:102EF0009B5C13F0970FEBD12E22E9E7034928469C
:102F0000FFF796FEE8E7BDE8F08100BF88390108C9
:102F1000943901088C390108983901089C39010855
:102F200038AF01082DE9F04186B004469DF83850CD
:102F30000F9F119EADB9012B25D023484FF00008FB
:102F400037B13B46224621490CF03CFB00281EDBF2
:102F500056BB002D31D120460CF0DBFE06B0BDE89B
:102F6000F08104959DF8340003900C980290019331
:102F700000920B46164A525D12992046FFF7FEFE5C
:102F800080461448DCE713484FF00008D8E7124C9D
:102F900040F2BD232246114911480CF087FB40F254
:102FA000BD2120460CF079FB129B0093434632462C
:102FB000109920460CF0EBFECBE72A4612992046EA
:102FC0000CF0D9FEC7E700BF41FD00088D430008A3
:102FD000B0720108CD2B0008C4380108A0390108DF
:102FE000282D01082DE9F04383B00646056842F21A
:102FF0000F738B4228BF0B46184A052168460BF019
:103000002BFD04467368D3F804900B27DFF850803B
:1030100005E04A4639464046A8473F1A8044002FFB
:10302000F7D17368D3F804806F4605E04246214625
:103030003846A847241A0744002CF7D173685F6804
:103040001B24084E05E03A4621463046A847241A7C
:103050000644002CF7D103B0BDE8F083AC39010879
:10306000A472010888720108074B01221A6004E06B
:103070004008054A13685B001360044B9842F7D878
:10308000034B1860704700BFA40D002040420F00A2
:10309000A80D002010B558B102468368134883423A
:1030A00014D21348834211D3DB691046984710BDF0
:1030B000104CB8232246104910480CF0F7FA10487B
:1030C0000CF0F4FAB82120460CF0E7FA094CB823CA
:1030D00022460C4909480CF0E9FA0B490B480CF060
:1030E000E5FAB82120460CF0D8FA00BF7C2B010885
:1030F000182B0108D0390108C4330108282D010814
:10310000482D0108103A0108B83B0108A42E010817
:1031100070B506460D46002404E0315D0348FFF714
:10312000B9FF0134AC42F8D3284670BD142701081A
:1031300010B543681C680B480EF0FCFF80F00100DE
:1031400010F0FF0F03D123685B685C6010BD064C74
:1031500099232246054906480CF0A8FA99212046F1
:103160000CF09BFA14270108503B0108903B010822
:10317000282D0108014B03600020704714730108DB
:1031800010B50C4B1B78012B04D100F049FE0A4B03
:10319000185810BD094C40F28F332246084909489F
:1031A0000CF084FA08480CF081FA40F28F31204686
:1031B0000CF073FA6F11002008000000F4360108CB
:1031C00020370108282D01083437010880B504464E
:1031D0000D4616461F460AF035FB024600F020FE5B
:1031E000044B1A503A4631462846A047FFF7C8FF1D
:1031F00000F0A2FD0800000008B50348034A121AB7
:1032000000210CF04FFE08BDC80300207011002003
:1032100008B50648064A121A06490CF047FE064849
:10322000064A121A06490CF041FE08BD00000020B3
:10323000C40300203CB00108000000200000002072
:103240003CB001082DE9F04182B000AF0446D0F84F
:1032500000E0D0F804C085686E468AB06B4613F172
:10326000100200F0888014218AB10846042903DD89
:10327000DFF81C81C3F81480082801DDC3F818E0CA
:103280000C2801DDC3F81CC0102800DD1D621329C5
:1032900074DD14253AB10521397100217971B971B4
:1032A000F97178681861002121F0010121F0020113
:1032B00021F0040121F03801012363F38811C5F3E3
:1032C0000A0565F35321C1F3130100233148FFF7C9
:1032D00037FBB546D4F80CC026696569E8468AB064
:1032E0006B4613F110024CD0142182B10846042918
:1032F00003DDDFF8A4E0C3F814E0082801DDC3F81B
:1033000018C00C2800DDDE61102800DD1D621329C5
:103310003ADD14253AB10521397100217971B9716D
:10332000F97178681861002121F0010121F0020192
:1033300021F0040121F03801012666F38811C5F35C
:103340000A0565F35321C1F31301124D00232846EA
:10335000FFF7F6FAC546E369104A314628460CF0F5
:10336000BCFCA3690E4A314628460CF0B6FC08376F
:10337000BD46BDE8F0816FF0004175E76FF01B05B9
:1033800088E76FF00041B0E76FF01B05C2E700BFB0
:10339000D03B0108042C0108003C0108303C010826
:1033A000403C010838B504460D4611B10846FFF708
:1033B00049FF012C04D02946204607F025F838BDE6
:1033C000EFF30583103B034A012103480CF085FC11
:1033D000F1E700BF703C0108042C010830BFFFF783
:1033E000FDBF00BF38B50446054D2A460549FCF728
:1033F00013FF054A002160190BF0C4FA38BD00BF65
:1034000000000000882C01080400000070B506468A
:10341000054D064B1D444C1B2046FFF7E3FF083CBF
:10342000346705F1080070BD0000000004000000D2
:103430008169104B5A6942F480725A61BFF34F8F11
:10344000BFF36F8F31F8021C5A6922F480725A61FF
:10345000BFF34F8FBFF36F8F01F47F43B3F55F4F1F
:1034600001D000207047C9B2022901D00020704766
:103470000120704700ED00E008B54FF0000C83F824
:1034800000C0DDF808E08EF800C002F07F4CBCF10F
:103490007F4F13D102F00C0CBCF1080F04D012F0D6
:1034A000080F08D0084608BD054A012105480CF060
:1034B0000AFC0020F7E701221A70F4E70020F2E787
:1034C000843C0108042C010808B52B4A01212B4833
:1034D0000CF0F9FB2A4B9B6A13F0007F21D11D20D1
:1034E000274B9B6A13F0807F22D1254B9B6A13F4F4
:1034F000002F24D1224B9B6A13F4802F26D1204B1E
:103500009B6A13F4003F28D11D4B9B6A13F4803F44
:103510002AD11B4A936A6FEA03436FEA134393620B
:1035200008BD184A012115480CF0CDFB1E20D7E735
:10353000154A012111480CF0C6FB1F20D5E7134A9C
:1035400001210E480CF0BFFB2120D3E7104A0121D6
:103550000A480CF0B8FB2220D1E70E4A01210748A7
:103560000CF0B1FB2320CFE70B4A012103480CF0FC
:10357000AAFB2420CDE700BFB03C0108042C0108C1
:1035800000ED00E0C83C0108DC3C0108F83C010803
:10359000183D0108403D01085C3D010808B50023C5
:1035A0000B70034A012103480CF08DFB08BD00BFDE
:1035B000883D0108042C010890B583B000AF0F29A5
:1035C00023DC2F4C103900233B7102237B718AB01E
:1035D000EC461CF110021AD0122022B1042802DDA0
:1035E000284BCCF8143000233B7002237B70E2B1EF
:1035F0000346082801DDCCF818400C2B01DDCCF87F
:103600001C100CF1200300210DE01F4CDAE76FF0D5
:103610000040E2E701F1080404EB070E1EF808EC95
:1036200003F801EB01310129F4D9112824DD12231B
:103630004AB10421397100217971B9710121F971FF
:103640007868CCF81000002121F0010121F002017E
:1036500021F0040121F03801012060F38811C3F347
:103660000A0363F35321C1F3130100230748FFF753
:1036700067F90C37BD4690BD6FF01B03D8E700BF5C
:10368000AC3D0108E03D0108C43D0108042C0108DF
:10369000F8B505460F461446374A012137480CF065
:1036A00012FB374B9B6A13F4805F25D11626344BEF
:1036B0009B6A13F4006F26D1314B9B6A13F4007F91
:1036C00028D12F4B9B6A13F4806F3FD12C4B9B6A00
:1036D00013F4807F41D12A4B9B6A13F4005F43D1DE
:1036E000274A936A43F47F439362012128460CF0F2
:1036F000EDFB20703046F8BD224A01211F480CF036
:10370000E2FA1726D3E7204A01211C480CF0DBFA25
:103710001826D1E71D4A012118480CF0D4FA184A9E
:10372000936B926A12F4004F01D11926C9E7184A27
:10373000012112480CF0D1FA37B1114A936A23F4EF
:10374000004393621926BCE71926BAE7114A012102
:103750000A480CF0B8FA1A26B8E70F4A01210748C0
:103760000CF0B1FA1B26BBE70C4A012103480CF010
:10377000AAFA1C26B4E700BFF43D0108042C010896
:1037800000ED00E00C3E0108203E0108343E010837
:10379000503E0108683E0108843E01089C3E010835
:1037A0002DE9F04104460F461546504A0121504884
:1037B0000CF089FA4F4B9B6A13F0100F3CD1102686
:1037C0004C4B9B6A13F0080F3DD14A4B9B6A13F098
:1037D000020F3FD16FF01508464B9B6A13F0010FA3
:1037E00058D1444B9B6A13F0200F5AD1414B9B6A2E
:1037F00013F0100F04D13F4B9B6A13F0020F04D05B
:103800003C4B5B6813F4006F52D13A4B9B6A13F048
:10381000200F04D0374A536A23F400535362354AC9
:10382000936A43F0FF039362012120460CF04EFBA4
:1038300028703046BDE8F0812F4A01212C480CF059
:1038400042FA1126BCE72D4A012129480CF03BFA27
:103850001226BAE72A4A012125480CF034FA254BF2
:10386000D3F834809B6A13F0800F03D16FF01508F2
:103870001326B1E74346234A01211D480CF02DFAD7
:1038800037B11C4A936A23F0800393621326A3E79F
:103890001326A1E71C4A012115480CF014FA14263E
:1038A0009FE71A4A012112480CF00DFA15269DE7F0
:1038B000214640460CF041FBA0B90E4B9B6A13F029
:1038C000100FA2D0124C4FF498732246114912489F
:1038D0000BF0ECFE11480BF0E9FE4FF49871204616
:1038E0000BF0DBFE80F3098802268EE7CC3E010850
:1038F000042C010800ED00E0E43E0108203E010830
:10390000183F0108303F0108483F01089C3E01086C
:10391000683F01089C3F0108282D0108E83F010885
:1039200070B506460D463B4A01213B480CF0CBF9E9
:1039300000232B70394BDC6A14F0020425D1374B7D
:10394000DB6A002B29DB354BDB6A13F0804F50D04C
:10395000334A012130480CF0B6F93046FFF768FDD4
:1039600008BB2E4B9B6A13F0FF0F24D12B4B9B6A95
:1039700013F47F4F26D1294B9B6AB3F5803F28D3A0
:103980003046FFF7A1FD044605E0264A0121224802
:103990000CF099F90024204670BD234A01211E48ED
:1039A0000CF091F9F7E73368204A01211A480CF02E
:1039B00094F93468EFE72A4601213046FFF7F0FE1C
:1039C0000446E8E72A4601213046FFF761FE044637
:1039D000E1E7174C40F203332246164916480BF034
:1039E00065FE16480BF062FE40F2033120460BF0F4
:1039F00054FE0F4C40F2063322460E490E480BF09F
:103A000055FE0F480BF052FE40F2063120460BF0F7
:103A100044FE00BF0C400108042C010800ED00E04A
:103A20005840010824400108484001087840010836
:103A3000683F0108F0300108282D01089440010872
:103A4000B840010830B58FB0254B5D68C5F3080557
:103A5000002383F31188BFF36F8F0BAB00930DF13D
:103A60003603FFF709FD68B104469DF82C300DF1CF
:103A7000370229460CF02CFA05469DF837305BB129
:103A80000FB030BD174A012117480CF01CF9002176
:103A90000846FFF787FCF3E70DF10C0C206861681E
:103AA000A268E368ACE80F0020696169A269E36974
:103AB000ACE80F009DF836304BB10A9BC3F3080207
:103AC0004AB96FEA53236FEA43230A9303E00A9B40
:103AD0006FF308030A9303A92846FFF763FCCFE7B7
:103AE00000ED00E0E8400108042C0108044B5A698D
:103AF00042F010025A615A6922F008025A61704776
:103B000000ED00E0EFF30880EFF3098101B57246A4
:103B1000FFF798FF01BD00BF0A4880F30888102016
:103B200080F3118808484FF40461401880F3098835
:103B3000EFF314800221084380F31488BFF36F8FE2
:103B400000F06AF8003C0020402E00201EF0040F18
:103B50000CBFEFF30880EFF30980816911F8021CB4
:103B60000229FFD001B572460CF0A4F901BD00BFD7
:103B7000002807DB00F01F02400901239340024A9E
:103B800042F82030704700BF00E100E0002808DB69
:103B90000901C9B200F1604000F5614080F80013EE
:103BA000704700F00F000901C9B2014B195470476A
:103BB00014ED00E070B505460C4601310F2903D81D
:103BC00040B2FFF7E3FF70BD084E6B233246084951
:103BD00008480BF06BFD0F232A46214606480BF0E0
:103BE00065FD6B2130460BF058FD00BF24410108F4
:103BF0005C410108282D010878410108044B23F09D
:103C00007F03044A9360BFF34F8FBFF36F8F7047FA
:103C10000000000800ED00E008B5FFF7EFFF0B4AD9
:103C2000D2F8883023F47003C2F88830EFF314839D
:103C300023F0040383F31488BFF36F8FFFF7DCFADC
:103C4000FFF7E6FA00F0C2F806F06AFE00ED00E0C9
:103C50000E4B9B68A3B110F1160F0AD01A6EA2F199
:103C6000400C84450ED882420ED98A4206D80020E4
:103C700070471A6E8A4201D800207047186E70474C
:103C8000002070470020704700207047101100206E
:103C900010B4A2F120040D4942F8081C21F00101E2
:103CA00042F8081C42F8203C019B42F81C3C029B55
:103CB00042F8183C039B42F8143C4FF0807342F8E2
:103CC000043C04650023436710BC7047CD310008F5
:103CD00008B50E4615460B4A9060026F0A4B1A60F3
:103CE00000F0B2F82C4686F309880020034B984771
:103CF0002046002100220023014C204749FF0008F4
:103D0000CD31000810110020D40D0020014B1022ED
:103D10001A61704700ED00E0054B5A699B689A42B2
:103D200004D0044A536843F080535360704700BF87
:103D30001011002000ED00E008B50A4B9B6883429B
:103D400002D008F0E5F908BDEFF30583002BF8D0A9
:103D5000054B5A6842F080525A605A6A22F4004277
:103D60005A62EEE71011002000ED00E014498A6865
:103D70004FF030001044EFF3098C80E8F01F102062
:103D800080F31288BFF36F8F0E4F4FF000664A69C1
:103D90008A603E60106F0C4C2060506F00235367A8
:103DA00080F3118804B5104600F04EF8BDE80440D9
:103DB00002F1300090E8F01F8CF309887047000092
:103DC0001011002004ED00E0D40D0020002206E0D8
:103DD00003F00F030949194410230B760132322AEC
:103DE0000ADC53B2002BF3DB03F1604303F56143BC
:103DF000102183F80013F1E7704700BFFCEC00E0EE
:103E000008B5EFF30583103B044A02EBC301496890
:103E100052F833008847FFF77FFF08BD10280108DC
:103E20000148006870470000D40D002008B5034B1E
:103E3000034A0121034800F0DDF908BD000002201B
:103E400000000020E4A8010808B5036E403B0548C7
:103E5000036040234360044B8360012100F0ECF9D0
:103E600008BD00BFD80D002000000B15084AC2F89D
:103E700098000B6823F01F03034343F01003C2F8BC
:103E80009C308B6843F00103C2F8A030704700BF3C
:103E900000ED00E010B504460A4BD3F89030C3F3B0
:103EA0000723013B984203D8FFF7E0FF204610BDEF
:103EB0000346054A012105480BF00FFF6FF015007E
:103EC000F5E700BF00ED00E0BC410108FC2B010854
:103ED0002DE9F84380460F4699461646002509E02D
:103EE0002146F0B20CF055F8064610F1160F1AD024
:103EF00001360135BD4216DA05EB450408EB8404B2
:103F00006268002AF5D0B9F1000FE9D020460CF024
:103F10002FF80028E4D12B46044A012104480BF075
:103F2000DCFE6FF015063046BDE8F883E441010879
:103F3000FC2B010810B5034C01232278FFF7C8FFC2
:103F4000207010BD6E11002008B500230B4A1278B6
:103F5000FFF7BEFF10F1160F0FD0024606E0084B28
:103F6000C3F898200021C3F8A0100132044BD3F805
:103F70009030C3F307239342F1DC08BD6E1100209B
:103F800000ED00E0F0B585B0054603A8FFF7F2F8B4
:103F90000646002438E0B3F1007F00F0CC80B3F196
:103FA000805F00F0E580B3F1807F2CD1506851F83C
:103FB0000C109368202B40F2BA80B3F1004F00F24E
:103FC000B880013BB3FA83F3C3F11F035B0003F036
:103FD0003E0343F0885343F4801300900191029311
:103FE00007E0082343F0885343F430230090019105
:103FF000029369462878FFF74DFF0028C0F2D5806C
:104000002B7801332B700134B44280F0D1804FEA19
:10401000041C039901EB0412D068030D1B05B3F5D2
:10402000000F67D0B7D8B3F5001F19D0B3F5800FD4
:1040300043D0B3F5801FE6D1506851F80C10936857
:10404000202BCED9B3F1004F08D8013BB3FA83F34C
:10405000C3F11F035B0003F03E03C3E73E23C1E748
:10406000576851F80C109368202B22D9B3F1004FF8
:1040700021D8013BB3FA83F3C3F11F035B0003F0C4
:104080003E0343F0885343F40023009701910293C9
:1040900010F0010FADD0484C9523224647494848BF
:1040A0000BF004FB47480BF001FB952120460BF079
:1040B000F4FA0823E5E73E23E3E7506851F80C10D3
:1040C0009368202B12D9B3F1004F11D8013BB3FAFA
:1040D00083F3C3F11F035B0003F03E0343F0C063AF
:1040E00043F4003300900191029382E70823F5E73F
:1040F0003E23F3E7506851F80C109368202B12D937
:10410000B3F1004F11D8013BB3FA83F3C3F11F039E
:104110005B0003F03E0343F0885343F48023009098
:104120000191029365E70823F5E73E23F3E70823AF
:104130004FE73E234DE7506851F80C109368202B51
:1041400012D9B3F1004F11D8013BB3FA83F3C3F195
:104150001F035B0003F03E0343F0805343F48023CE
:1041600000900191029344E70823F5E73E23F3E72B
:10417000506851F80C109368202B12D9B3F1004FFE
:1041800011D8013BB3FA83F3C3F11F035B0003F0C3
:104190003E0343F0885343F40033009001910293AF
:1041A00027E70823F5E73E23F3E76FF0150000E06B
:1041B000002005B0F0BD00BF0C4201083C420108E0
:1041C000282D010864420108044B0522C3F89420FD
:1041D000BFF34F8FBFF36F8F704700BF00ED00E05C
:1041E000BFF35F8F024B0022C3F89420704700BFDB
:1041F00000ED00E038B50C46FFF79CFE10F1160FFD
:1042000000D038BD084D40F271132A4607490848CE
:104210000BF04CFA214607480BF048FA40F27111B6
:1042200028460BF03AFA00BF0C420108F0300108B2
:10423000282D01089442010838B50C46FFF784FE8A
:1042400010F1160F00D038BD084D4FF4C8732A4640
:10425000074908480BF02AFA214607480BF026FACE
:104260004FF4C87128460BF018FA00BF0C42010841
:10427000F0300108282D0108C042010838B5394B3B
:104280001D68394BD3F89030C3F307239D4203D800
:10429000FFF7A6FF00241FE0344C4FF4F5732246CD
:1042A000334934480BF002FA2F4BD3F89020C2F375
:1042B0000722294630480BF0F9F94FF4F5712046F2
:1042C0000BF0EBF9274B5B6804EB440103EB810136
:1042D0002046FFF7CBFD0134A542F3D827480570EF
:1042E000FFF750FE10F1160F10D0244B1A781E4B1A
:1042F000D3F89030C3F307239A4217DA1A4BC3F866
:1043000098200021C3F8A0100132F0E7174C40F2CA
:104310002D232246164917480BF0C8F918480BF010
:10432000C5F940F22D2120460BF0B7F9FFF74CFFFD
:104330000D4BD3F8903003F47F43B3F5006F01D1F8
:10434000002038BD094C40F2752322460D4909482A
:104350000BF0ACF90C480BF0A9F940F2752120469E
:104360000BF09BF9F0A8010800ED00E00C420108F9
:10437000F0300108282D0108F04201086E110020DC
:104380002443010850430108A043010870B586B0DA
:1043900006460D4611466846002400940194029496
:1043A00003940494059402228DF80220044A019299
:1043B000049605951A460AF001FC06B070BD00BFD0
:1043C000D1FF000808B5024B1B689847002008BDC4
:1043D000E40D0020034B1860034A937843F0020376
:1043E00093707047E40D0020B002002008B5064924
:1043F00021F00701C1F1005202F500320348FCF739
:10440000B3FA002008BD00BF8B490020E80D002052
:1044100010B50C4B1B78012B04D1FFF701FD0A4BA3
:10442000185810BD094C40F28F33224608490948FC
:104430000BF03CF908480BF039F940F28F31204677
:104440000BF02BF96F11002008000000F436010872
:1044500020370108282D01083437010838B50546F2
:10446000114C04E06368A168284698470C340F4B50
:104470009C4209D80D4B9C4214D22368002BF1D0EA
:104480002A689342F2D1EDE7094C162322460949E6
:1044900009480BF00BF909480BF008F916212046E2
:1044A0000BF0FBF838BD00BF642C0108642C010838
:1044B000D4430108FC430108282D0108D436010823
:1044C00000B585B005E00346094A012109480BF013
:1044D00004FC4FF0FF324FF0FF3301A9064806F00D
:1044E000CDFB0028EFD101A8FFF7B8FFF1E700BF2F
:1044F00024440108DC2B01088803002030B585B076
:104500000A9D0B9C01909DF820008DF808008DF805
:104510000910ADF80A20039354EA050306D0FFF70B
:1045200077FF0D4BD3F8803083420BD02A462346C9
:1045300001A90A480DF016FE041E06DB00242046E1
:1045400005B030BD00252C46F0E7054A022105489C
:104550000BF0B9FBF3E700BFB80B00208803002085
:104560003C440108DC2B010810B560B102468368A9
:104570001548834215D21548834212D31B68FBB1FC
:104580001046984710BD124CB623224611491248D6
:104590000BF08CF811480BF089F8B62120460BF08F
:1045A0007CF80B4CB62322460D490B480BF07EF8E5
:1045B0000C490D480BF07AF8B62120460BF06DF847
:1045C0006FF05700DEE700BFE42A0108C82A01089F
:1045D00088330108C4330108282D0108482D01083B
:1045E000D833010854350108A42E010800B583B062
:1045F000054A92E80300CDE9000169460348FFF748
:10460000B3FF03B05DF804FB882C01087025010896
:1046100008B500F01F02012393401F2806D8074A5F
:10462000526993430CBF0120002008BD0346044A91
:10463000012104480BF051FB0020F6E7003C01404B
:1046400078440108AC2B010808B500F01F020123D3
:1046500093401F2803D8064A5361002008BD034633
:10466000044A012104480BF038FB6FF01500F5E710
:10467000003C014078440108AC2B0108002399421A
:104680000ADD10B400EB030C044C04F80C200133D9
:104690009942F7DC10BC7047704700BFC002002091
:1046A000F8B50746002401E00134E4B27B78A34268
:1046B00017D93D7866193046FFF7AAFF0028F3D0D6
:1046C0003046FFF7C1FF074B53F83620002AEBD0E6
:1046D00006F01F0503EBC60359680120A840904768
:1046E000E2E7F8BDF40D002010B558B10346421EB4
:1046F000024207D1A0B923B3B3FA83F0C0F11F007F
:10470000C0B210BD104C60232246104910480AF078
:10471000CDFF10480AF0CAFF602120460AF0BDFF15
:10472000B0FA80F2C2F11F020F2AE4DD064C6123C9
:104730002246094906480AF0B9FF612120460AF0DD
:10474000ACFFFF20DDE700BF00450108444501083C
:10475000282D01087C450108A84501085FFA81FC65
:104760000CF102020A4B53F822200B0C22EA1141F1
:1047700093FAA3F34BB1B3FA83F3984001430CF1DE
:10478000020C034A42F82C1070472023F5E700BFC3
:1047900000380140C3B20233074A52F82320030C09
:1047A00002EA104093FAA3F31BB1B3FA83F3D840A3
:1047B00070472023FBE700BF0038014010B50446D6
:1047C000FFF792FF044B1856044B1A6814431C6001
:1047D0000BF0A8FB10BD00BFC0020020003C014050
:1047E000024A136823EA000313607047003C01404B
:1047F000032927D8DFE801F0020C151E184B9A6830
:1048000022EA00029A60DA6822EA0002DA6070475F
:10481000134B9A6802439A60DA6822EA0002DA606F
:1048200070470F4BDA680243DA609A6822EA0002A6
:104830009A6070470A4B9A6802439A60DA6810439C
:10484000D860704710B5074C4FF481732246064973
:1048500006480AF02BFF4FF4817120460AF01DFF35
:10486000003C014000450108F0300108282D0108F6
:1048700038B50C461546FFF737FF0C4B53F8303070
:10488000A34208D07BB9094B43F8304003EBC00387
:104890005D60002038BD054A02EBC0025268AA42A2
:1048A000F0D10020F6E76FF00F00F3E7F40D0020E1
:1048B00008B5FFF719FF044B002243F8302003EB43
:1048C000C0035A6008BD00BFF40D00200C4B1B68EC
:1048D00013F0020F09D10A4A136843F00103136071
:1048E000074B1B6813F0020FFAD0054A936823F0B8
:1048F00003039360024B9B6813F00C0FFAD17047CF
:10490000003802400C4B1A6822F480221A601A68A0
:1049100042F480321A60084B1B6813F4003FFAD04F
:10492000054A536F43F001035367034B5B6F13F06A
:10493000020FFAD0704700BF0038024039B133B1DE
:10494000B0FBF1F000FB02F2B2FBF3F0704710B5E0
:10495000054C47232246054905480AF0A7FE472192
:1049600020460AF09AFE00BF244601086846010866
:10497000282D0108F8B50C461546434B1E68042146
:1049800030460BF09DFB0746022130460BF098FBAA
:104990002388C3F30B010B46442929D809B2002907
:1049A00069D0013B432B69D8DFE803F03D53565AE9
:1049B0005D3F4968686868686868686868686868CA
:1049C0006063686868686868686868686868686874
:1049D00068686868686868686868683568686835BD
:1049E0006868683768686868686868396868683BD4
:1049F000A8290DD12E602368B3F5805F41D32A68C2
:104A0000C3F313330133B2FBF3F22A60002037E023
:104A10006FF0850034E02E60EDE72E60EBE72F604D
:104A2000E9E72860E7E72E60E5E700F0CBF802232E
:104A30004FF4A8720821FFF781FF2860DBE700F040
:104A4000C1F807234FF4A8720821FFF777FF286009
:104A5000D1E700232B60CEE74FF4FA432B60CAE77F
:104A600000232B60C7E7094B2B60C4E77F002F6052
:104A7000C1E72E60BFE76FF0850001E06FF08500B1
:104A8000F8BD0020FCE700BFEC02002000127A0015
:104A900008B51A4B9B6803F00C03082B25D0174A66
:104AA000136823F080731360144B1B6813F0007FAE
:104AB000FAD1134AD2F8043823F44033C2F8043848
:104AC000D2F8043823F0706343F0E063C2F804388E
:104AD00000F07CF8094A136843F080731360074BB9
:104AE0001B6813F0007FFAD008BDFFF7EFFE034A02
:104AF000936823F0F0039360D1E700BF00380240D1
:104B000000300240162806D8064BC34013F0010FB0
:104B100004D0002070476FF0850070476FF085006B
:104B2000704700BFEA00600038B500F071F8214C12
:104B300020460BF042FB05F0D7FA1F4B9B68C3F3EE
:104B400003131E4AD35C20FA03F513781C41A542D7
:104B500028D3FFF7D7FEFFF79BFF174A936823F090
:104B6000F0039360936823F0030343F00203936020
:104B7000114B9B6803F00C03082BF9D1A54215D209
:104B80000F4B0C4A1A600C4A936823F4E05343F429
:104B9000A0539360936823F4604343F4004393600D
:104BA000002038BD204605F057FBD2E7204605F02F
:104BB00053FBE5E7007A030A003802407CAE0108A7
:104BC000EC0200200048704700127A0008B50BF094
:104BD000F5FA0B4B59680B4A0A4040F4A84141F0E2
:104BE00008010A435A605A6822F440325A605968F0
:104BF000054A0A40054901430A435A6008BD00BFFF
:104C0000003802400080BFFF0080BFF0085400075A
:104C100082B0064B1A6C42F080521A641B6C03F08F
:104C200080530193019B02B0704700BF00380240DF
:104C300010B5044C2046FFF7CDFB2046FCF70EFDD7
:104C400010BD00BFE14C000808B505480DF072FA30
:104C500018B1FFF7EDFF002008BD6FF01200FBE771
:104C60001427010810B558B10246836813488342DF
:104C700014D21348834211D3DB691046984710BD04
:104C8000104CB8232246104910480AF00FFD104876
:104C90000AF00CFDB82120460AF0FFFC094CB823AD
:104CA00022460C4909480AF001FD0B490B480AF05D
:104CB000FDFCB82120460AF0F0FC00BF7C2B010867
:104CC000182B0108D0390108C4330108282D010828
:104CD000482D0108103A0108B83B0108A42E01082C
:104CE00010B504460A2805D0E1B20548FFF7BAFF1F
:104CF000204610BD0D210248FFF7B4FFF4E700BFC6
:104D00001427010840B2002808DB00F01F02400908
:104D1000012393404030024A42F82030704700BFE0
:104D200000E100E038B50C464568054B53F82130EA
:104D300028699847EB68002043F8340038BD00BF6D
:104D400090A9010838B50C4605690BF0AAFAA042F3
:104D500002D9AC60002038BD064C40F20623224642
:104D6000054906480AF0A2FC40F2062120460AF056
:104D700094FC00BF90460108CC460108282D01088C
:104D800010B560B1024683681548834215D21548B4
:104D9000834212D31B68FBB11046984710BD124CDA
:104DA000B6232246114912480AF080FC11480AF045
:104DB0007DFCB62120460AF070FC0B4CB62322463F
:104DC0000D490B480AF072FC0C490D480AF06EFCC4
:104DD000B62120460AF061FC6FF05700DEE700BF05
:104DE000E42A0108C82A010888330108C4330108ED
:104DF000282D0108482D0108D83301085435010831
:104E0000A42E010810B560B1844683681748834218
:104E100017D21748834214D39B691BB36046984747
:104E200010BD144C4FF4AC732246134913480AF0DA
:104E30003DFC13480AF03AFC4FF4AC7120460AF0EE
:104E40002CFC0C4C4FF4AC7322460E490B480AF074
:104E50002DFC0D490D480AF029FC4FF4AC71204699
:104E60000AF01BFC6FF05700DAE700BFE42A0108E4
:104E7000C82A010888330108C4330108282D010815
:104E8000482D0108D833010854350108A42E010823
:104E900010B560B1844683681748834217D217481B
:104EA000834214D3DB681BB36046984710BD144C93
:104EB0004FF48C732246134913480AF0F7FB13484A
:104EC0000AF0F4FB4FF48C7120460AF0E6FB0C4C20
:104ED0004FF48C7322460E490B480AF0E7FB0D494C
:104EE0000D480AF0E3FB4FF48C7120460AF0D5FB25
:104EF0006FF05700DAE700BFE42A0108C82A01086A
:104F000088330108C4330108282D0108482D010801
:104F1000D833010854350108A42E010810B560B13A
:104F2000024683681748834217D21748834214D336
:104F3000DB681BB31046984710BD144C40F2671352
:104F40002246134913480AF0B1FB13480AF0AEFB9E
:104F500040F2671120460AF0A0FB0C4C40F26713A8
:104F600022460E490B480AF0A1FB0D490D480AF0F4
:104F70009DFB40F2671120460AF08FFB6FF057004F
:104F8000DAE700BF902A0108802A0108F8460108E4
:104F9000C4330108282D0108482D01082C470108B9
:104FA00070480108A42E010810B50269136813B1F6
:104FB0005168984710BD084C4FF431732246074999
:104FC00007480AF073FB07480AF070FB4FF4317191
:104FD00020460AF062FB00BF9046010878480108AD
:104FE000282D01088C4801082DE9F04F85B00446B2
:104FF0000D461646D0F804B0D0F81090D9F80870D5
:105000000BF04FF987424FD27768D6F80C8008F042
:1050100001030193DBF8106020460BF042F9009089
:105020003F4B53F8253030469847031E18BF0123E5
:105030000393002843D120460BF037F90290394BF7
:1050400053F8253030469847374B53F825A002993E
:105050003046D047354B53F8253030469847019BB2
:10506000002B3CD0D9F80830009AA2EB0309C8F312
:10507000400839463046D04720460BF016F9014625
:10508000009A781E0BF0AEF981453FD2019B13B117
:105090006FF03D030393B8F1000F32D1DBF80C3011
:1050A000002243F8352036E0214CFA2322462149DC
:1050B00021480AF0FBFAFA2120460AF0EEFA1C4CCD
:1050C00040F2071322461D491B480AF0EFFA1C481C
:1050D0000AF0ECFA40F2071120460AF0DEFA009BD3
:1050E0004FEA5309B9458CBF4FF001084FF0000853
:1050F00000D89946009A394602980BF064F90746A1
:10510000B7E7294620460BF097F904E00D4B53F81A
:10511000253030469847039805B0BDE8F08F00BFB2
:1051200080A90108B0A90108C0A9010870A9010857
:1051300090460108B8480108282D0108F0480108E8
:1051400010490108A0A901082DE9F04383B00746E2
:105150004568D0F810802C69A9695D48FFF710FEFA
:10516000061EC0F28E80EB69012B40F2A080A96977
:10517000002208315648FFF745FE0646002840F059
:105180008780A96901AA08315148FFF781FEB0F173
:105190000009C0F284806B695A1C019BB3FBF2F3D7
:1051A000C8F81030A86A0CF0C5FF002800F087800E
:1051B00005F128000BF024F92B6A384698476B69F3
:1051C000A3627B685B68E362424B9C4212D0B4F1FD
:1051D000804F0FD0A3F57C439C420BD003F5806336
:1051E0009C4207D003F580639C4203D003F57843CB
:1051F0009C4203D1236823F070032360354B9C420B
:105200002AD0B4F1804F27D0A3F57C439C4223D011
:1052100003F580639C421FD003F580639C421BD042
:1052200003F578439C4217D003F570539C4213D08A
:1052300003F580639C420FD003F580639C420BD042
:10524000A3F598339C4207D003F580639C4203D0BA
:1052500003F580639C4203D1236823F440732360E9
:105260001C4B9C4203D003F580639C4201D1002378
:105270002363636943F001036361304603B0BDE813
:10528000F0833346144A012114480AF026FDF4E75E
:105290000346134A012111480AF01FFDEDE74B4672
:1052A000104A01210D480AF018FD4E46E5E70E4A66
:1052B00001210A480AF007FD6FF01506DDE70B4AE9
:1052C000012106480AF0FFFC6FF01206D5E700BF87
:1052D00070250108000001403C490108942B010899
:1052E0005C4901087C4901089C490108C049010842
:1052F0002DE9F84305460C46416802690E690C32F7
:105300000123A340DB43BFF35B8F52E8007F1F40C4
:1053100042E800700028F8D1BFF35B8FCF6807EB3D
:10532000C4090D4B53F824303046984757F8348061
:10533000002347F83430B8F1000F0AD0074B53F878
:105340002430304698470246D9F80430E1B2284666
:10535000C047BDE8F88300BF90A90108B0A90108C3
:1053600010B558B1024683681548834216D21548D5
:10537000834213D3DB681046984710BD124C40F2AD
:10538000F2532246114912480AF090F911480AF0E6
:105390008DF940F2F25120460AF07FF90A4C40F2B2
:1053A000F25322460C490A480AF080F90B490C488E
:1053B0000AF07CF940F2F25120460AF06EF900BF83
:1053C000602A01083C2A0108E02C0108142D01087C
:1053D000282D0108482D01085C2D01089C2E01088C
:1053E000A42E010810B558B10246836815488342BF
:1053F00016D21548834213D31B691046984710BD37
:10540000124C40F21F632246114912480AF04EF92D
:1054100011480AF04BF940F21F6120460AF03DF9AD
:105420000A4C40F21F6322460C490A480AF03EF932
:105430000B490C480AF03AF940F21F6120460AF085
:105440002CF900BF602A01083C2A0108E02C010861
:10545000142D0108282D0108482D01085C2D010894
:105460009C2E0108A42E010810B543681C68012376
:1054700003FA01F10C4203D092B1FFF771FF10BDA6
:10548000094C40F2F7632246084909480AF00EF930
:1054900008480AF00BF940F2F76120460AF0FDF8DF
:1054A000FFF7A0FFEBE700BFE02C0108BC2E0108CE
:1054B000282D0108FC2E010838B5436805691C68D1
:1054C00001238B401C4208D02C68234202D0B2FA40
:1054D00082F25209FFF7C8FF38BD084C40F2227330
:1054E0002246074907480AF0E1F807480AF0DEF8C3
:1054F00040F2227120460AF0D0F800BFE02C0108EB
:10550000BC2E0108282D0108FC2E010870B50028CA
:1055100042D01346864684686B4A94424CD26B4A0A
:10552000944249D34668006913F0FC6F55D103F0EB
:105530003002302A61D0664A1A40664DAA426CD0C9
:1055400003F00602042A78D013F4402240F082804F
:10555000B2F5402F00F0928013F4801F05D022B1E5
:1055600013F0010F01D083F4402323F48012356837
:105570004FF0010C0CFA01FC15EA0C0F00F08E80C4
:1055800013F0010F00F09A8003684CEA03030360F4
:1055900023687046984770BD4F4C40F253432246F3
:1055A0004E494F480AF082F84E480AF07FF840F220
:1055B000534120460AF071F8474C40F253432246CB
:1055C000494947480AF072F8484949480AF06EF8D4
:1055D00040F2534120460AF060F83F4C40F25C43F1
:1055E000224644493E480AF061F843480AF05EF812
:1055F00040F25C4120460AF050F8374C40F25F43DD
:1056000022463E4936480AF051F83D480AF04EF825
:1056100040F25F4120460AF040F82F4C40F26343CD
:10562000224638492E480AF041F837480AF03EF839
:1056300040F2634120460AF030F8274C40F26643BE
:105640002246324926480AF031F840F266412046A7
:105650000AF023F813F4003F7FF47AAF1E4C40F2B7
:10566000694322462A491E480AF020F829480AF0D0
:105670001DF840F2694120460AF00FF8164C40F23E
:105680006D432246244916480AF010F823480AF0D0
:105690000DF840F26D41204609F0FFFF0E4C40F23C
:1056A000794322461E490E480AF000F81D4809F0C9
:1056B000FDFF40F27941204609F0EFFF036823EA3D
:1056C0000C03036064E700BF602A01083C2A01085C
:1056D0000200030002000100E02C0108142D010863
:1056E000282D0108482D01085C2D01089C2E010879
:1056F000A42E0108FC4901086C4A0108904A0108DF
:10570000CC4A01080C4B01085C4B0108AC4B01086A
:10571000E04B0108304C01086C4C0108BC4C0108FE
:10572000BC2E0108FC2E0108002A3BD038B51546D6
:1057300002EB420C4FEA8C0CACF10C0C8C449CF844
:1057400008E04EF0020E8CF808E050B18468164A6A
:10575000944216D2154A944213D3A4682A46A0470D
:1057600038BD134C4FF47B7322461249124809F09E
:105770009DFF124809F09AFF4FF47B71204609F013
:105780008CFF0B4C4FF47B7322460D490A4809F0FD
:105790008DFF0C490C4809F089FF4FF47B712046BE
:1057A00009F07BFF00207047782A0108602A010871
:1057B000E84C0108C4330108282D0108482D0108D0
:1057C000184D0108504E0108A42E010838B505698E
:1057D000AB788B4215D00C4639B1022909D1012191
:1057E0000AF0D8FE00B9AC7038BD00210AF0D2FE34
:1057F000F8E7054A022105480AF065FA6FF08500CE
:10580000F2E70020F0E700BF544E0108242C010805
:1058100070B582B0066933888B4227D00C460429C4
:1058200012D0022914D1A6238DF807304368DD6B0E
:1058300001231A460DF10701A847051E10DB34802D
:105840000025284602B070BDA7238DF80730EDE78C
:10585000074A022107480AF036FA6FF08505F0E79B
:10586000054A012103480AF02EFAEAE70025E8E795
:105870006C4E0108242C0108884E01082DE9F047E0
:1058800082B005461F46DDF82890436893F84B30F8
:1058900053FA81F1C2F3C706B7F80680C8F3C70808
:1058A00001F00F038DF80430C1F3031141F0100132
:1058B0008DF8051066F04F038DF806300024A246DF
:1058C0000AE0174A012117480AF0FDF9504602B0D4
:1058D000BDE8F0870134E4B2A045F7D9331963F08D
:1058E0004F038DF806306B68D3F83CA001230322E8
:1058F00001A92846D047B0F1000AE2DBBA886B68FC
:10590000D3F83CA0002302FB04912846D047B0F115
:10591000000ADFDA044A012102480AF0D4F9D5E787
:10592000A44E0108242C0108C04E010830B583B0F4
:105930000446456895F84BC05CFA81F1C9B24FF056
:10594000200C8DF800C04FF0000C8DF801C04FF016
:10595000210C8DF802C08DF80310B3F804C0614427
:10596000C9B201398DF8041022218DF80510D10833
:105970008DF80610DB881A44D210013A8DF8072002
:10598000ED6B012308226946A847051E0ADB636800
:10599000DD6B0023079A06992046A847054628464E
:1059A00003B030BD2B46034A012103480AF095F9A4
:1059B000F5E700BFDC4E0108242C0108F0B583B0E8
:1059C000089E4768B3F806E0B3F804C00CFB0EF479
:1059D0001D89AC451BD1E4100EB31D68A54226D32A
:1059E00012F0070F2BD11EF0070F30D1002D3BD046
:1059F00097F844C0ACF1030C5FFA8CFCBCF1010FCA
:105A00002DD901940096FFF791FF03B0F0BD174A1E
:105A1000012117480AF057F96FF01500F5E7154A0C
:105A2000012113480AF04FF96FF03C00EDE7124AEC
:105A300001210F480AF047F96FF03C00E5E70F4AF3
:105A400001210B480AF03FF96FF01500DDE70C4A21
:105A5000012107480AF037F96FF01500D5E70194E6
:105A60000096FFF70BFFD0E70020CEE7F84E0108C5
:105A7000242C01080C4F0108284F0108444F01084D
:105A8000584F010870B582B00546466896F8443014
:105A90003BB1022B05D0033BDBB2012B35D90024EF
:105AA00010E08D238DF8043014238DF80530332356
:105AB0008DF80630F46B0123032201A92846A04784
:105AC00004467CBB96F84430022B32D0042B46D0DF
:105AD000002C5AD1DB238DF8043096F84430012B8A
:105AE0005AD0033BDBB2012B5AD920238DF8053065
:105AF0006B68DC6B0123022201A92846A0470446FB
:105B0000002851D1204602B070BDAD238DF804307D
