:020000040800F2
:10000000002E00209D240008E9C100088924000872
:1000100089240008892400088924000800000000C1
:10002000000000000000000000000000D1240008D3
:100030008924000800000000F1260008FD5E000889
:1000400085270008852700088527000885270008E0
:1000500085270008852700088527000885270008D0
:1000600085270008852700088527000885270008C0
:1000700085270008852700088527000885270008B0
:1000800085270008852700088527000885270008A0
:100090008527000885270008852700088527000890
:1000A0008527000885270008852700088527000880
:1000B0008527000885270008852700088527000870
:1000C0008527000885270008852700088527000860
:1000D0008527000885270008852700088527000850
:1000E0008527000885270008852700088527000840
:1000F0008527000885270008852700088527000830
:1001000030B490F800F020F007016FF0000C10F010
:10011000070491F820F040F048804FF000046FF0A1
:100120000700D1E9002391F840F000F1080082FABD
:100130004CF2A4FA8CF283FA4CF3A2FA8CF34BBB88
:10014000D1E9022382FA4CF200F10800A4FA8CF201
:1001500083FA4CF3A2FA8CF3E3B9D1E9042382FACF
:100160004CF200F10800A4FA8CF283FA4CF3A2FAE4
:100170008CF37BB9D1E9062301F1200182FA4CF21C
:1001800000F10800A4FA8CF283FA4CF3A2FA8CF383
:10019000002BC6D0002A04BF04301A4612BAB2FAA5
:1001A00082F200EBD20030BC7047D1E9002304F0AA
:1001B0000305C4F100004FEAC50514F0040F91F8DF
:1001C00040F00CFA05F562EA05021CBF63EA05037C
:1001D00062464FF00004AAE7844641EA000313F0A8
:1001E00003036DD1403A41D351F8043B40F8043B3E
:1001F00051F8043B40F8043B51F8043B40F8043B01
:1002000051F8043B40F8043B51F8043B40F8043BF0
:1002100051F8043B40F8043B51F8043B40F8043BE0
:1002200051F8043B40F8043B51F8043B40F8043BD0
:1002300051F8043B40F8043B51F8043B40F8043BC0
:1002400051F8043B40F8043B51F8043B40F8043BB0
:1002500051F8043B40F8043B51F8043B40F8043BA0
:1002600051F8043B40F8043B403ABDD2303211D340
:1002700051F8043B40F8043B51F8043B40F8043B80
:1002800051F8043B40F8043B51F8043B40F8043B70
:10029000103AEDD20C3205D351F8043B40F8043B40
:1002A000043AF9D2043208D0D2071CBF11F8013B3E
:1002B00000F8013B01D30B8803806046704700BF04
:1002C000082A13D38B078DD010F003038AD0C3F113
:1002D0000403D21ADB071CBF11F8013B00F8013BF5
:1002E00080D331F8023B20F8023B7BE7043AD9D3B4
:1002F000013A11F8013B00F8013BF9D20B78037089
:100300004B7843708B7883706046704780F0004074
:1003100002E000BF81F0004142001FBF5FEA4103DD
:1003200092EA030F7FEA226C7FEA236C6AD04FEADD
:100330001262D2EB1363C1BFD21841404840414022
:10034000B8BF5B42192B88BF704710F0004F40F4D4
:10035000000020F07F4018BF404211F0004F41F4F0
:10036000000121F07F4118BF494292EA030F3FD0BC
:10037000A2F1010241FA03FC10EB0C00C3F12003CF
:1003800001FA03F100F0004302D5494260EB40005E
:10039000B0F5000F13D3B0F1807F06D340084FEAC9
:1003A000310102F10102FE2A51D2B1F1004F40EBBE
:1003B000C25008BF20F0010040EA03007047490026
:1003C00040EB0000013A28BFB0F5000FEDD2B0FAC3
:1003D00080FCACF1080CB2EB0C0200FA0CF0AABFE6
:1003E00000EBC25052421843BCBFD0401843704784
:1003F00092F0000F81F4000106BF80F4000001328A
:10040000013BB5E74FEA41037FEA226C18BF7FEA60
:10041000236C21D092EA030F04D092F0000F08BFA2
:100420000846704790EA010F1CBF0020704712F089
:100430007F4F04D1400028BF40F00040704712F1C8
:1004400000723CBF00F50000704700F0004343F02D
:10045000FE4040F4000070477FEA226216BF084663
:100460007FEA23630146420206BF5FEA412390EA26
:10047000010F40F4800070474FF0000304E000BF1C
:1004800010F0004348BF40425FEA000C08BF7047CD
:1004900043F0964301464FF000001CE050EA010291
:1004A00008BF70474FF000030AE000BF50EA0102A6
:1004B00008BF704711F0004302D5404261EB410193
:1004C0005FEA010C02BF84460146002043F0B643B8
:1004D00008BFA3F18053A3F50003BCFA8CF2083ADD
:1004E000A3EBC25310DB01FA02FC634400FA02FCE6
:1004F000C2F12002BCF1004F20FA02F243EB0200ED
:1005000008BF20F00100704702F1200201FA02FC4E
:10051000C2F1200250EA4C0021FA02F243EB020041
:1005200008BF20EADC7070474FF0FF3C06E000BFD8
:100530004FF0010C02E000BF4FF0010C4DF804CD6C
:100540004FEA40024FEA41037FEA226C18BF7FEA7C
:10055000236C11D001B052EA530C18BF90EA010F7E
:1005600058BFB2EB030088BFC81738BF6FEAE1700D
:1005700018BF40F0010070477FEA226C02D15FEAA9
:10058000402C05D17FEA236CE4D15FEA412CE1D015
:100590005DF8040B704700BF844608466146FFE7DC
:1005A0000FB5FFF7C9FF002848BF10F1000F0FBDBE
:1005B0004DF808EDFFF7F4FF0CBF012000205DF8B7
:1005C00008FB00BF4DF808EDFFF7EAFF34BF01203C
:1005D00000205DF808FB00BF4DF808EDFFF7E0FFD5
:1005E00094BF012000205DF808FB00BF4DF808ED26
:1005F000FFF7D2FF94BF012000205DF808FB00BF89
:100600004DF808EDFFF7C8FF34BF012000205DF86A
:1006100008FB00BF4FEA4002B2F1FE4F0FD34FF08C
:100620009E03B3EB12620DD94FEA002343F000435F
:1006300010F0004F23FA02F018BF404270474FF00D
:100640000000704712F1610F01D1420205D110F094
:10065000004008BF6FF0004070474FF00000704747
:100660007BB972B90029BEBF00204FF0004106E0FF
:1006700008BF00281CBF6FF000414FF0FF3000F0B2
:1006800057B8ADF1080C6DE904CE002909DB002B49
:100690001ADB00F04FF8DDF804E0DDE9022304B0D6
:1006A0007047404261EB4101002B1BDB00F042F838
:1006B000DDF804E0DDE9022304B0404261EB4101D2
:1006C000524263EB43037047524263EB430300F033
:1006D00031F8DDF804E0DDE9022304B0404261EBCB
:1006E00041017047524263EB430300F023F8DDF809
:1006F00004E0DDE9022304B0524263EB4303704798
:1007000053B94AB9002908BF00281CBF4FF0FF3178
:100710004FF0FF3000F00CB8ADF1080C6DE904CEDD
:1007200000F008F8DDF804E0DDE9022304B07047CA
:10073000704700BF2DE9F0478C468E46089E15464F
:1007400004461946002B40F0D080724547D9B2FAD2
:1007500082F74FB1C7F120030EFA07FC20FA03F32A
:10076000BD4043EA0C0CBC404FEA154EA8B2BCFB9E
:10077000FEF8230C0EFB18CC08FB00F943EA0C43EF
:10078000994528D9EB1808F1FF3204D2994502D9CE
:10079000A8F102022B44A3EB0903A4B2B3FBFEFCB5
:1007A0000EFB1C330CFB00F044EA0344A04214D9B6
:1007B0002C190CF1FF3304D2A04202D9ACF1020390
:1007C0002C44241A43EA02401EB1FC40002334604A
:1007D0007360BDE8F0874246DDE76346F1E7002A33
:1007E00079D0B2FA82F3002B3FD01946C1F1200331
:1007F00002FA01F52EFA03F20EFA01FE20FA03F3D3
:1008000043EA0E034FEA154E00FA01F4B2FBFEFC78
:10081000AFB20EFB1C201A0C0CFB07F842EA004298
:1008200090455AD9AA180CF1FF3004D2904502D94C
:10083000ACF102002A44A2EB08029BB2B2FBFEFC20
:100840000EFB1C220CFB07F743EA02439F4246D9EA
:10085000EB180CF1FF3204D29F4202D9ACF1020234
:100860002B44DB1B42EA004202E0AEEB0203012212
:100870004FEA154EAFB2B3FBFEFC200C0EFB1C334F
:100880000CFB07F840EA034398452AD9EB180CF112
:10089000FF3004D2984502D9ACF102002B44A3EBFF
:1008A0000803A4B2B3FBFEFC0EFB1C330CFB07F7E2
:1008B00044EA0344A74216D92C190CF1FF3304D2A1
:1008C000A74202D9ACF102032C44E41B43EA0040E6
:1008D0000F46114678E71F2188E76046ABE762467E
:1008E000BFE76046DBE76346EFE7734506D916B915
:1008F000002108466DE7C6E9000EF9E7B3FA83F771
:1009000087B9734501D3824207D8841A6EEB03037B
:1009100001209C461EB900215BE73846FAE7C6E98C
:10092000004CF8E7C7F1200CBB4022FA0CF51D4340
:1009300020FA0CF12EFA0CF30EFA07FE41EA0E0132
:100940004FEA154900FA07F4B3FBF9F81FFA85FEE0
:1009500009FB18300B0C08FB0EFA43EA00439A45DA
:1009600002FA07F240D9EB1808F1FF3004D29A4599
:1009700002D9A8F102002B44A3EB0A0389B2B3FB0E
:10098000F9F809FB183308FB0EFE41EA03418E45D6
:100990002CD9691808F1FF3304D28E4502D9A8F189
:1009A0000203294443EA0040A0FB0298A1EB0E0198
:1009B0004145CE46434602D306D14C4504D2B9EB5D
:1009C000020E68EB05030138002EA4D0B4EB0E0232
:1009D00061EB030101FA0CFC22FA07F34CEA030372
:1009E000F940C6E9003196E74046C5E74346D9E7F6
:1009F00008B5064B18680AF082FD00F01BFB4FF4A7
:100A00009670002108F0D6FCF3E700BFC008002074
:100A10000023032B0DD803EB4302074931F81220C2
:100A2000824201D00133F4E703EB430301EB4300BF
:100A300070470020704700BF80F20008FF2805D0F3
:100A400008B5034B1B6803B1984708BD704700BF4A
:100A5000B807002010B5044C23689878FFF7EEFF24
:100A60000023236010BD00BFB407002008B5034B6E
:100A70001B681879FFF7E2FF08BD00BFB007002030
:100A800038B58568C088FFF7C3FF002842D0044608
:100A9000012D3CD1204B1B6883421AD0E378FF2BF9
:100AA00031D01E4D284607F039F91B4B1C604FF41E
:100AB0007A620023284607F097F82379FF2B29D084
:100AC000174B1C604FF4FA520023164807F08CF8BD
:100AD00020E0124807F022F90028DFD1114807F082
:100AE0001DF90D4B00221A60E078FFF7A7FF23796C
:100AF000FF2B0FD00A4B1C604FF4FA520023094819
:100B000007F072F806E0A078FFF798FFD5E70548F0
:100B100007F004F938BD00BFB4070020900300209F
:100B2000B00700206003002008B50549054806F01D
:100B3000A5FF0549054806F0A1FF002008BD00BF3C
:100B4000550A0008900300206D0A00086003002089
:100B5000014B1860704700BFB807002090F825309F
:100B6000064AA2FB031202F0FC0101EB92029B1A5F
:100B7000DBB2034A52F82300704700BFCDCCCCCC87
:100B800098F2000808B5054801F094F80448FFF70A
:100B9000DFFF044B01221A70002008BDB4EE0008EC
:100BA000FD0B0008CD1B002010B4044608460A6067
:100BB0000B71019B8B60CC6000230B614B610B764A
:100BC0004B76CB610B6281F82430012281F825201D
:100BD0008B62CB6234B123694BB11A465B69002B3F
:100BE000FBD15061044B1B681BB110BC70472161E5
:100BF000F8E7014B1860F8E7DC07002010B5704BF0
:100C00001C68002C00F0D380052800F2D080DFE8BB
:100C100010F03400060062009100B300CA00694B76
:100C20001B781BB120460AF0B2F9F8B92369002BF2
:100C300000F0BD8020460AF025FA002800F0B780B9
:100C4000237E013393FBF0F100FB1133DBB22376FB
:100C5000627E02329A4201DA9A1E6276627E934284
:100C600000D26376584B01221A70A0E020460AF0A9
:100C7000D4F9554B01221A7099E0524B1B781BB1E5
:100C800020460AF084F9E0B92369002B00F08F8038
:100C900020460AF0F7F9002800F08980237EBBB9CE
:100CA000421ED3B22376627E9A4200D96376627E78
:100CB00002329A4201DA023B6376434B01221A70F8
:100CC00075E020460AF074F93F4B01221A706EE07D
:100CD000013BDBB2E6E72269F2B1002302E0526990
:100CE0000133DBB2217E994201D9002AF7D1002AD3
:100CF0005DD0364B1B68062B05DC013333490B6096
:100D0000334941F823402E4B1A602E4B00221A70B3
:100D10002D4B01221A704AE020460AF038F90028CB
:100D200045D0284A137883F001031370264B012223
:100D30001A703CE0234B1B7833B1224B00221A700F
:100D4000214B01221A7032E0204B1B68002B0BDB79
:100D5000591E1E4A11601E4A52F82320184B1A6071
:100D6000194B01221A7022E0E36803B3144A13609E
:100D7000154B01221A701AE0124B1B78BBB12046AA
:100D80000AF005F998B194F825200132114B83FB44
:100D900002135B1003EB8303D31A84F825300A4B4C
:100DA00001221A7003E020460AF0F1F800B910BDE4
:100DB00020460AF070F9044B01221A70F7E700BFD1
:100DC000DC070020CC1B0020CD1B0020A00200204F
:100DD000BC0700206766666670B582B0164D0024B9
:100DE00000942346154A29462046FFF7DDFE144E9F
:100DF00000942346134A31462846FFF7D5FE124B8E
:100E000000930123114A12493046FFF7CDFE114DE0
:100E1000114B00930123114A29463046FFF7C4FEC7
:100E20000F4BEB6185F82440AC626423EB62322304
:100E30002B63204602B070BD88080020ACF2000889
:100E400050080020B4F20008850E0008BCF200082B
:100E500018080020E0070020650E0008C4F2000812
:100E6000A402002038B50446054D0021284600F0B4
:100E700013FF00231A46216828460BF09FF938BD5E
:100E8000B4EE000838B50546084C0021204600F0B5
:100E900003FF00231A46296820460BF08FF914231C
:100EA0000022034920460BF089F938BDB4EE000852
:100EB000CCF20008034668B179B1106880B190683F
:100EC00088B159609A600020187398735873074A64
:100ED0001A6070474FF0FF3070474FF0FF30704797
:100EE0004FF0FF3070474FF0FF307047DC2C0108A7
:100EF00008B5064A06490748FFF7DCFF18B9064B54
:100F0000044A1A6008BD4FF0FF30FBE70C2D0108C2
:100F1000C4080020200F0020C008002010B5064C97
:100F20000022114620680AF0A4FA14220121206848
:100F30000AF09FFA002010BDC0080020C2788B1F65
:100F40009A4241D100B583B000231A469E4608E07C
:100F500010F803C0F4445FFA8CFE7244D2B201333D
:100F6000DBB2A1F1020C6345F2DB10F80C307345E3
:100F700016D10139435C934212D1837873B9ADF82D
:100F800004308DF80630037953B9437943B9837936
:100F900033B90E4B18680AF0C3FA01E0E02B02D017
:100FA00003B05DF804FB01A90023ADF804308B7099
:100FB00083788DF804308DF805E08DF80620034B1A
:100FC00018680AF045FAEBE7704700BFC008002038
:100FD00070B582B00C46154638B101281BD10B788C
:100FE0005A1C0A700122EA5415E001AE0023ADF844
:100FF00004308DF806303146084B18680AF05DFA67
:101000002378EA18BDF804009DF80610E8529170A4
:1010100023780333237002B070BD00BFC0080020E6
:1010200008B50A460146024B18680AF08AFA08BD5C
:10103000300F002010B5064C20680AF04FFA00214E
:1010400020680AF029FAE02120680AF025FA10BD8C
:10105000C008002010B550B1836815498B4216D2E4
:1010600014498B4213D31B6C03B1984710BD124C2B
:1010700040F25B132246114911480AF044FC114822
:101080000AF041FC40F25B1120460AF033FC0A4CA6
:1010900040F25B1322460C4909480AF034FC0B4924
:1010A0000B480AF030FC40F25B1120460AF022FCAB
:1010B00004F20008A0F10008DCF200081CF30008AC
:1010C00030F3000850F3000864F30008A4F40008AB
:1010D000ACF4000810B550B1836815498B4216D2A4
:1010E00014498B4213D35B6B03B1984710BD124C6C
:1010F00040F231132246114911480AF004FC11480C
:101100000AF001FC40F2311120460AF0F3FB0A4CD0
:1011100040F2311322460C4909480AF0F4FB0B490E
:101120000B480AF0F0FB40F2311120460AF0E2FBD6
:1011300004F20008A0F10008DCF200081CF300082B
:1011400030F3000850F3000864F30008A4F400082A
:10115000ACF4000810B550B1836815498B4216D223
:1011600014498B4213D3DB6D03B1984710BD124C69
:101170004FF4DE732246114911480AF0C4FB1148AE
:101180000AF0C1FB4FF4DE7120460AF0B3FB0A4CB3
:101190004FF4DE7322460C4909480AF0B4FB0B49B0
:1011A0000B480AF0B0FB4FF4DE7120460AF0A2FBB8
:1011B00004F20008A0F10008DCF200081CF30008AB
:1011C00030F3000850F3000864F30008A4F40008AA
:1011D000ACF4000810B550B1836817498B4216D2A1
:1011E00016498B4213D3DB6B13B3984710BD144CD5
:1011F00040F24B132246134913480AF084FB13486C
:101200000AF081FB40F24B1120460AF073FB0C4CB4
:1012100040F24B1322460E490B480AF074FB0D496D
:101220000D480AF070FB40F24B1120460AF062FBB9
:101230006FF05700DAE700BF04F20008A0F10008E1
:10124000DCF200081CF3000830F3000850F300083B
:1012500064F30008A4F40008ACF4000810B560B111
:10126000844683681548834215D21548834212D3B9
:10127000DB6AFBB16046984710BD124CE923224659
:10128000114912480AF03FFB11480AF03CFBE921E2
:1012900020460AF02FFB0B4CE92322460D490B4850
:1012A0000AF031FB0C490D480AF02DFBE9212046DC
:1012B0000AF020FB6FF05700DEE700BF04F20008E1
:1012C000A0F10008DCF200081CF3000830F300086D
:1012D00050F3000864F30008A4F40008ACF400081C
:1012E00010B550B1836815498B4216D214498B4210
:1012F00013D39B6B03B1984710BD124C4FF49F73EF
:101300002246114911480AF0FEFA11480AF0FBFA88
:101310004FF49F7120460AF0EDFA0A4C4FF49F7388
:1013200022460C4909480AF0EEFA0B490B480AF02C
:10133000EAFA4FF49F7120460AF0DCFA04F2000842
:10134000A0F10008DCF200081CF3000830F30008EC
:1013500050F3000864F30008A4F40008ACF400089B
:1013600010B550B1836817498B4216D216498B428B
:1013700013D3DB6C13B3984710BD144C4FF4C273F6
:101380002246134913480AF0BEFA13480AF0BBFA82
:101390004FF4C27120460AF0ADFA0C4C4FF4C27300
:1013A00022460E490B480AF0AEFA0D490D480AF0E4
:1013B000AAFA4FF4C27120460AF09CFA6FF0570067
:1013C000DAE700BF04F20008A0F10008DCF2000830
:1013D0001CF3000830F3000850F3000864F3000821
:1013E000A4F40008ACF4000810B560B1844683682A
:1013F0001748834217D21748834214D31B6B1BB381
:101400006046984710BD144C40F20D132246134914
:1014100013480AF078FA13480AF075FA40F20D11F1
:1014200020460AF067FA0C4C40F20D1322460E4992
:101430000B480AF068FA0D490D480AF064FA40F2C8
:101440000D1120460AF056FA6FF05700DAE700BF98
:1014500004F20008A0F10008DCF200081CF3000808
:1014600030F3000850F3000864F30008A4F4000807
:10147000ACF4000838B578B1B0FA80F46409836838
:10148000194DAB421BD2194DAB4218D3A3B11B6E01
:1014900033B39847204638BD154C4FF4E4732246C9
:1014A000144915480AF02FFA14480AF02CFA4FF4A0
:1014B000E47120460AF01EFA6FF05704EAE70C4C7C
:1014C0004FF4E47322460E490B480AF01CFA0D490A
:1014D0000D480AF018FA4FF4E47120460AF00AFAAF
:1014E0006FF05704D6E700BF04F20008A0F100082F
:1014F000DCF200081CF3000830F3000850F3000889
:1015000064F30008A4F40008ACF4000810B50C461D
:1015100041608260C36000230374044B0360024691
:1015200003492068FFF7A6FF10BD00BF242D010866
:10153000CBB5000808B5164B1B68164A1268164949
:101540001648FFF7E3FF034608B1184608BD144BE1
:101550001B68144A126814491448FFF7D7FF034662
:101560000028F2D10D48124B1860124B0F4A1A6036
:101570004FF47A7109F0F0FF03460028E5D14FF4EB
:101580007A710C4B186809F0E7FF0346DDE700BFEE
:10159000981300209C130020302D01084C0F0020D0
:1015A000600F0020640F00202C2D0108340F002054
:1015B000480F0020300F0020B1F5004F09D2016123
:1015C000026000230381C3808380C38183814381C0
:1015D000704710B5064CC3232246064906480AF058
:1015E00092F906480AF08FF9C32120460AF082F9E1
:1015F000C4F40008F8F4000830F3000810F50008FF
:1016000010B5154C154B4FF40072154920460AF0E1
:1016100013F8144B1C60144C144B4FF40072144913
:1016200020460AF009F8134B1C60134C134B4FF47F
:1016300000721349204609F0FFFF124B1C60124C48
:10164000124B4FF400721249204609F0F5FF114B7E
:101650001C60002010BD00BFB817002048F500082E
:10166000A01500209C130020A017002050F50008B2
:10167000A0130020981300206813002058F50008DC
:10168000680F0020600F00208013002060F5000824
:1016900068110020640F002070B5B2F5802F31D2A0
:1016A0000346042A3ED9043AC81D20F007000A4424
:1016B00022F00702121AD608172A43D9186086604A
:1016C0000023C360B6FA86F1C1F1200EC1F12405F2
:1016D000AD000735E9084B1CB34294BF002301233A
:1016E000002B45D0354C40F233332246344935483F
:1016F0000AF009F934480AF006F940F2333120467D
:101700000AF0F8F82D4C40F20A3322462F492D48B2
:101710000AF0F9F82E480AF0F6F840F20A312046AD
:101720000AF0E8F8254C40F21133224629492548B1
:101730000AF0E9F824480AF0E6F840F211312046B0
:101740000AF0D8F81D4C40F21D33224622491D48AC
:101750000AF0D9F81C480AF0D6F840F21D312046AC
:101760000AF0C8F803F1040C002440F82C400133BF
:101770007345F7DB1FFA81FC4FEA4C039BB24380B1
:101780000024048043F001034380731A25F0070509
:10179000AE1C9BB24FEA430E20F806E020F805C0CD
:1017A00022F00705961C845302444353538843F0A8
:1017B000010353800AF003F870BD00BF68F500080C
:1017C00064F6000830F300081CF60008C8F50008AD
:1017D000E0F50008F8F5000838F6000808B50248FA
:1017E0000AF07AF8002008BD90F6000808B5024B10
:1017F0001B68984708BD00BFA8020020014B186075
:10180000704700BFA802002000B585B084460A4694
:1018100068460023009301930293039302238DF8FB
:101820000230044B0193614608F0D6FE05B05DF826
:1018300004FB00BFED1700082DE9F04182B080469F
:101840000E46154600272A4601A940460AF08AF8A6
:10185000044640B1024631460198FEF7BDFC2744DC
:1018600026442D1BEFD13A4608F1040140460AF008
:101870009EF818B9384602B0BDE8F081054C4923FE
:101880002246054905480AF03EF8492120460AF05B
:1018900031F800BFCCF60008F8F6000830F3000875
:1018A0002DE9F04182B080460E461546002702E041
:1018B00027442D1B0FD02A4601A940460AF065F89F
:1018C000044640B1002EF3D0024601993046FEF79F
:1018D00083FC2644ECE73A4608F10A0140460AF048
:1018E00066F818B9384602B0BDE8F081054C6423AB
:1018F0002246054905480AF006F86421204609F009
:10190000F9FF00BFCCF60008F8F6000830F3000835
:10191000034A536843F0020353600020704700BF3E
:10192000002004E008B502490AF062F808BD00BFD3
:101930003D1A000810B560B102468368154883421D
:1019400015D21548834212D31B68FBB11046984745
:1019500010BD124CB62322461149124809F0D3FF9C
:10196000114809F0D0FFB621204609F0C3FF0B4C07
:10197000B62322460D490B4809F0C5FF0C490D4816
:1019800009F0C1FFB621204609F0B4FF6FF05700FF
:10199000DEE700BF6CF1000850F1000804F7000812
:1019A0001CF3000830F3000850F3000840F700086B
:1019B000BCF80008ACF4000810B560B102468368BA
:1019C0001548834215D21548834212D35B68FBB198
:1019D0001046984710BD124CCC232246114912489C
:1019E00009F091FF114809F08EFFCC21204609F043
:1019F00081FF0B4CCC2322460D490B4809F083FF95
:101A00000C490D4809F07FFFCC21204609F072FFF8
:101A10006FF05700DEE700BF6CF1000850F10008DE
:101A200004F700081CF3000830F3000850F3000826
:101A300040F70008BCF80008ACF4000808B50B46F5
:101A400041680C31012B11D007D81BB90948FFF7A9
:101A5000B3FF0EE06FF085000BE0023BDBB2012B21
:101A600001D8002005E06FF0850002E00148FFF793
:101A700061FF08BDD8EC000810B5082808D8064B4F
:101A800053F8204020460CF016FF18B1204610BD38
:101A90000024FBE70024F9E7E82D0108084B1A6849
:101AA00042F480721A601A6842F400721A601A686E
:101AB00042F480621A60034B034A1A60704700BF09
:101AC000003C0240DC0200200024F400014B0360D3
:101AD000002070470C2E010870B544798C4279D9EA
:101AE00090F806C0944577D92346644528BF6346DD
:101AF000022B03D99D1EC5F3470500E0002537489A
:101B0000A0FB0303DB08AB4228BF2B46E01AC0B2A0
:101B1000ACEB030C5FFA8CFC5D1CA84204D9C41A20
:101B2000013CC4F3470400E00124654505D2ACEB59
:101B30000305013DC5F3470500E00125A0EB030EB9
:101B4000ACEB0306B645A8BFB646244EA6FB0E6E08
:101B50004FEADE0EBEF1010F38BF4FF0010EAC426E
:101B600028BF2C46A64528BFA646994207D38142E6
:101B700011D29A4211D3624511D3002400E000240F
:101B80005FFA8EFE734499420BDBA0EB0E0081429C
:101B900010DB012106E00024F2E70024F0E7012435
:101BA000EEE70121934207DCACEB0E0C624509DB4A
:101BB000012302E00021F5E701232CB131B93BB943
:101BC000002008E00023F8E7002004E0012002E004
:101BD000012000E0002070BD0020FCE7CDCCCCCC83
:101BE0002DE9F04F83B01E469DF83080294B9F6849
:101BF000002F49D0894614461B68002B47D0254B3F
:101C00009B7D03EB430307EB83070846FEF778FA57
:101C10008246002514E01F4B9B7B13F0010F1FD061
:101C20001C4890F917B0A4B219F80510CDF800803F
:101C3000B3B222460AF018FA83445C4424B2013558
:101C400055451DD27A792244124B1B8A9A42E2DD15
:101C5000B8F1000FDFD0BB7933441EB20024DAE7BD
:101C60000C4890F917B0A4B219F80510CDF800800F
:101C7000B3B222460AF018FA83445C4424B2DEE789
:101C8000002003B0BDE8F08F6FF01200F9E76FF0AD
:101C90001200F6E760180020054B5B7D8B4203D9EC
:101CA000034B9975002070476FF01500704700BF17
:101CB0006018002010B584B08368254A934236D25C
:101CC000244A934233D31B6A69469847224C234ADD
:101CD000121B234BA3FB0232D208224B5A75BDF8CC
:101CE00000001882BDF80210598208221A75BDF84A
:101CF0000C209A819DF808209A730022DA751A76D2
:101D00009C609A7501FB00F090420EDBC010154CF0
:101D1000606008F03BFB2060B0B1124B5A680021B4
:101D200008F072FB002004B010BD0730EEE70E4C47
:101D300040F22D3322460D490D4809F0E4FD40F2F2
:101D40002D31204609F0D6FD6FF00B00EBE700BF08
:101D5000A0F100086CF1000810F2000828F2000859
:101D6000ABAAAAAA601800205CF9000880F9000854
:101D700030F3000810B50C4B1B78012B04D100F098
:101D800011FD0A4B185810BD094C40F28F33224602
:101D90000849094809F0B7FD084809F0B4FD40F2C8
:101DA0008F31204609F0A6FDCF1B0020080000005F
:101DB000D4FA000800FB000830F3000814FB000808
:101DC00080B504460D4616461F4607F033FC024612
:101DD00000F0E8FC044B1A503A4631462846A0472A
:101DE000FFF7C8FF00F06AFC0800000008B50348D0
:101DF000034A121A00210AF0E9F908BD6003002025
:101E0000D01B002008B50648064A121A06490AF0F7
:101E1000E1F90648064A121A06490AF0DBF908BD3C
:101E2000000000205C030020DC31010800000020DD
:101E300000000020DC31010810B5044683684268C8
:101E40000168094809F048FD63692269E1680748AB
:101E500009F042FDE169064809F03EFDA169054827
:101E600009F03AFD10BD00BF38FB000868FB000810
:101E700098FB0008A8FB000838B504460D4611B1D0
:101E80000846FFF7D9FF012C04D02946204604F06C
:101E90009FFA38BDEFF305811039024809F01CFDA7
:101EA000F3E700BFD8FB000830BFFFF7FDBF00BF5E
:101EB00038B50446054D2A460549FEF78DF9054A11
:101EC0000021601908F0A0FA38BD00BF0000000032
:101ED00028F200080400000070B50646054D064BC8
:101EE0001D444C1B2046FFF7E3FF083C346705F117
:101EF000080070BD00000000040000008169104B64
:101F00005A6942F480725A61BFF34F8FBFF36F8FEB
:101F100031F8021C5A6922F480725A61BFF34F8F64
:101F2000BFF36F8F01F47F43B3F55F4F01D0002003
:101F30007047C9B2022901D00020704701207047C4
:101F400000ED00E008B54FF0000C83F800C0DDF8AC
:101F500008E08EF800C002F07F4CBCF17F4F11D139
:101F600002F00C0CBCF1080F04D012F0080F06D0E0
:101F7000084608BD044809F0AFFC0020F9E701223B
:101F80001A70F6E70020F4E7ECFB0008F8B5054608
:101F90000F4614462F4809F09FFC2F4B9B6A13F401
:101FA000805F25D116262C4B9B6A13F4006F24D139
:101FB000294B9B6A13F4007F24D1274B9B6A13F4AF
:101FC000806F37D1244B9B6A13F4807F37D1224B2B
:101FD0009B6A13F4005F37D11F4A936A43F47F432F
:101FE0009362012128460AF005F920703046F8BDB9
:101FF0001A4809F071FC1726D5E7194809F06CFC5E
:102000001826D5E7174809F067FC134B996B9B6AB4
:1020100013F4004F01D11926CFE7134809F05CFCF7
:1020200037B10D4A936A23F4004393621926C4E73B
:102030001926C2E70D4809F04FFC1A26C2E70C48E2
:1020400009F04AFC1B26C7E70A4809F045FC1C2694
:10205000C2E700BF18FC000800ED00E030FC0008FB
:1020600044FC000858FC000874FC00088CFC0008C4
:10207000A8FC0008C4FC000808B5244809F02CFCA2
:10208000234B9B6A13F0007F21D11D20204B9B6ABC
:1020900013F0807F20D11E4B9B6A13F4002F20D1B8
:1020A0001B4B9B6A13F4802F20D1194B9B6A13F4AE
:1020B000003F20D1164B9B6A13F4803F20D1144A75
:1020C000936A6FEA03436FEA1343936208BD1148B2
:1020D00009F002FC1E20D9E70F4809F0FDFB1F2084
:1020E000D9E70E4809F0F8FB2120D9E70C4809F0A0
:1020F000F3FB2220D9E70B4809F0EEFB2320D9E7B8
:10210000094809F0E9FB2420D9E700BFF4FC0008E6
:1021100000ED00E010FD000824FD000840FD00086F
:1021200060FD000888FD0008A4FD000808B5002334
:102130000B70024809F0D0FB08BD00BFD0FD0008BD
:1021400008B50A460F2905DC0349103A034809F08F
:10215000C3FB08BD0249F8E7F8FD00082CFE0008A3
:1021600010FE00082DE9F04104460F461546494887
:1021700009F0B2FB484B9B6A13F0100F3CD11026BC
:10218000454B9B6A13F0080F3BD1434B9B6A13F0FE
:10219000020F3BD16FF015083F4B9B6A13F0010F04
:1021A00050D13D4B9B6A13F0200F50D13A4B9B6AA4
:1021B00013F0100F04D1384B9B6A13F0020F04D0B8
:1021C000354B5B6813F4006F46D1334B9B6A13F0B9
:1021D000200F04D0304A536A23F4005353622E4A2E
:1021E000936A43F0FF039362012120460AF002F84C
:1021F00028703046BDE8F081284809F06DFB1126B3
:10220000BEE7274809F068FB1226BEE7254809F01B
:1022100063FB214BD3F834809B6A13F0800F03D10A
:102220006FF015081326B7E741461F4809F054FB25
:1022300037B1194A936A23F0800393621326ABE700
:102240001326A9E7194809F047FB1426A9E71848FF
:1022500009F042FB1526A9E7214640460AF001F89D
:10226000A0B90D4B9B6A13F0100FAED0114C4FF478
:10227000987322461049114809F045FB104809F0AF
:1022800042FB4FF49871204609F034FB80F3098833
:1022900002269AE740FE000800ED00E058FE000824
:1022A00044FC00088CFE0008A8FE0008C0FE0008E0
:1022B000C4FC0008E0FE000814FF000830F300082A
:1022C00060FF000870B506460D46364809F004FB6D
:1022D00000232B70344BDC6A14F0020423D1324B00
:1022E000DB6A002B25DB304BDB6A13F0804F48D0D4
:1022F0002E4809F0F1FA3046FFF700FEE8B92A4B04
:102300009B6A13F0FF0F1ED1274B9B6A13F47F4F7C
:1023100020D1254B9B6AB3F5803F22D33046FFF78F
:10232000ABFE044603E0224809F0D6FA002420461A
:1023300070BD204809F0D0FAF9E731681E4809F06D
:10234000CBFA3468F3E72A4601213046FFF70AFF4B
:102350000446ECE72A4601213046FFF717FE044603
:10236000E5E7164C40F2033322461549154809F0BB
:10237000CAFA154809F0C7FA40F20331204609F0BD
:10238000B9FA0E4C40F2063322460D490D4809F0C9
:10239000BAFA0E4809F0B7FA40F20631204609F0C1
:1023A000A9FA00BF84FF000800ED00E0D0FF00089C
:1023B0009CFF0008C0FF0008F0FF0008E0FE0008D6
:1023C0001000010830F3000814000108380001086B
:1023D00030B58FB0244B5D68C5F30805002383F347
:1023E0001188BFF36F8F0BAB00930DF13603FFF72E
:1023F000A9FD68B104469DF82C300DF1370229463D
:1024000009F0FAFE05469DF837304BB10FB030BDEC
:10241000164809F061FA00210846FFF72DFDF5E79F
:102420000DF10C0C20686168A268E368ACE80F004D
:1024300020696169A269E369ACE80F009DF8363054
:102440004BB10A9BC3F308024AB96FEA53236FEA00
:1024500043230A9303E00A9B6FF308030A9303A93B
:102460002846FFF709FDD1E700ED00E0680001080C
:10247000044B5A6942F010025A615A6922F008026C
:102480005A61704700ED00E0EFF30880EFF3098137
:1024900001B57246FFF79CFF01BD00BF0A4880F3FB
:1024A0000888102080F3118808484FF40461401810
:1024B00080F30988EFF314800221084380F3148825
:1024C000BFF36F8F00F06AF8002E0020402000203C
:1024D0001EF0040F0CBFEFF30880EFF30980816951
:1024E00011F8021C0229FFD001B5724609F076FEF0
:1024F00001BD00BF002807DB00F01F0240090123D7
:102500009340024A42F82030704700BF00E100E0EB
:10251000002808DB0901C9B200F1604000F5614004
:1025200080F80013704700F00F000901C9B2014B99
:102530001954704714ED00E070B505460C460131A2
:102540000F2903D840B2FFF7E3FF70BD084E6B239D
:1025500032460849084809F0D6F90F232A46214691
:10256000064809F0D0F96B21304609F0C3F900BFE5
:10257000A8000108E000010830F30008FC00010891
:10258000044B23F07F03044A9360BFF34F8FBFF3E4
:102590006F8F70470000000800ED00E008B5FFF7FE
:1025A000EFFF0B4AD2F8883023F47003C2F888306A
:1025B000EFF3148323F0040383F31488BFF36F8FC6
:1025C000FFF714FCFFF71EFC00F0C2F804F0AAF8B5
:1025D00000ED00E00E4B9B68A3B110F1160F0AD07E
:1025E0001A6EA2F1400C84450ED882420ED98A425E
:1025F00006D8002070471A6E8A4201D80020704722
:10260000186E704700207047002070470020704708
:10261000741B002010B4A2F120040D4942F8081CDC
:1026200021F0010142F8081C42F8203C019B42F8CD
:102630001C3C029B42F8183C039B42F8143C4FF0B0
:10264000807342F8043C04650023436710BC704764
:10265000C11D000808B50E4615460B4A9060026F72
:102660000A4B1A6000F0B2F82C4686F30988002065
:10267000034B98472046002100220023014C2047AD
:1026800071C20008C11D0008741B00207C180020C6
:10269000014B10221A61704700ED00E0054B5A69AA
:1026A0009B689A4204D0044A536843F080535360B5
:1026B000704700BF741B002000ED00E008B50A4B16
:1026C0009B68834202D005F0B1FC08BDEFF305839F
:1026D000002BF8D0054B5A6842F080525A605A6A73
:1026E00022F400425A62EEE7741B002000ED00E085
:1026F00014498A684FF030001044EFF3098C80E8E9
:10270000F01F102080F31288BFF36F8F0E4F4FF031
:1027100000664A698A603E60106F0C4C2060506F02
:102720000023536780F3118804B5104600F04EF87B
:10273000BDE8044002F1300090E8F01F8CF30988F6
:1027400070470000741B002004ED00E07C1800209E
:10275000002206E003F00F030949194410230B7609
:1027600001322F2A0ADC53B2002BF3DB03F1604362
:1027700003F56143102183F80013F1E7704700BFB0
:10278000FCEC00E008B5EFF30583103B044A02EBD4
:10279000C301496852F833008847FFF77FFF08BD3F
:1027A00008EF000801480068704700007C1800200E
:1027B00008B5034B034A0121034800F0A1F908BD05
:1027C00000000220000000200C2E010808B5036E56
:1027D000403B0548036040234360044B8360012174
:1027E00000F0B0F908BD00BF8018002000000B15F4
:1027F000084AC2F898000B6823F01F03034343F014
:102800001003C2F89C308B6843F00103C2F8A0307B
:10281000704700BF00ED00E0084BD3F89030C3F3E1
:102820000723013B984205D810B50446FFF7E0FFA7
:10283000204610BD6FF01500704700BF00ED00E0AE
:1028400010B5034C0123227809F056FD207010BD0D
:10285000CE1B002008B500230B4A127809F04CFD6E
:1028600010F1160F0FD0024606E0084BC3F898206F
:102870000021C3F8A0100132044BD3F89030C3F309
:1028800007239342F1DC08BDCE1B002000ED00E0E1
:10289000F0B585B0054603A8FFF718F906460024F1
:1028A00038E0B3F1007F00F0CC80B3F1805F00F03E
:1028B000E580B3F1807F2CD1506851F80C109368FB
:1028C000202B40F2BA80B3F1004F00F2B880013BF8
:1028D000B3FA83F3C3F11F035B0003F03E0343F03D
:1028E000885343F4801300900191029307E008237A
:1028F00043F0885343F430230090019102936946DA
:102900002878FFF789FF0028C0F2D5802B780133A3
:102910002B700134B44280F0D1804FEA041C03993B
:1029200001EB0412D068030D1B05B3F5000F67D04F
:10293000B7D8B3F5001F19D0B3F5800F43D0B3F566
:10294000801FE6D1506851F80C109368202BCED927
:10295000B3F1004F08D8013BB3FA83F3C3F11F036F
:102960005B0003F03E03C3E73E23C1E7576851F81D
:102970000C109368202B22D9B3F1004F21D8013BD2
:10298000B3FA83F3C3F11F035B0003F03E0343F08C
:10299000885343F4002300970191029310F0010F34
:1029A000ADD0484C952322464749484808F0ABFF34
:1029B000474808F0A8FF9521204608F09BFF082310
:1029C000E5E73E23E3E7506851F80C109368202BAD
:1029D00012D9B3F1004F11D8013BB3FA83F3C3F11D
:1029E0001F035B0003F03E0343F0C06343F4003376
:1029F00000900191029382E70823F5E73E23F3E775
:102A0000506851F80C109368202B12D9B3F1004F85
:102A100011D8013BB3FA83F3C3F11F035B0003F04A
:102A20003E0343F0885343F48023009001910293C6
:102A300065E70823F5E73E23F3E708234FE73E2346
:102A40004DE7506851F80C109368202B12D9B3F160
:102A5000004F11D8013BB3FA83F3C3F11F035B00AE
:102A600003F03E0343F0805343F480230090019130
:102A7000029344E70823F5E73E23F3E7506851F853
:102A80000C109368202B12D9B3F1004F11D8013BE1
:102A9000B3FA83F3C3F11F035B0003F03E0343F07B
:102AA000885343F4003300900191029327E70823F1
:102AB000F5E73E23F3E76FF0150000E0002005B0D6
:102AC000F0BD00BF3C0101086C01010830F30008B3
:102AD00094010108044B0522C3F89420BFF34F8FE3
:102AE000BFF36F8F704700BF00ED00E0BFF35F8F53
:102AF000024B0022C3F89420704700BF00ED00E0B5
:102B000038B50C46FFF79CFE10F1160F00D038BD0B
:102B1000084D40F271132A460749084808F0F3FEB1
:102B20002146074808F0EFFE40F27111284608F0F0
:102B3000E1FE00BF3C0101081000010830F300086D
:102B4000C401010838B50C46FFF784FE10F1160FDA
:102B500000D038BD084D4FF4C8732A4607490848CD
:102B600008F0D1FE2146074808F0CDFE4FF4C871A9
:102B7000284608F0BFFE00BF3C0101081000010814
:102B800030F30008F001010838B5394B1D68394BA6
:102B9000D3F89030C3F307239D4203D8FFF7A6FF75
:102BA00000241FE0344C4FF4F57322463349344877
:102BB00008F0A9FE2F4BD3F89020C2F30722294634
:102BC000304808F0A0FE4FF4F571204608F092FE60
:102BD000274B5B6804EB440103EB81012046FFF7C0
:102BE00007FE0134A542F3D827480570FFF750FED1
:102BF00010F1160F10D0244B1A781E4BD3F89030DA
:102C0000C3F307239A4217DA1A4BC3F8982000211E
:102C1000C3F8A0100132F0E7174C40F22D232246F2
:102C20001649174808F06FFE184808F06CFE40F28D
:102C30002D21204608F05EFEFFF74CFF0D4BD3F828
:102C4000903003F47F43B3F5006F01D1002038BD0D
:102C5000094C40F2752322460D49094808F053FEFD
:102C60000C4808F050FE40F27521204608F042FE64
:102C7000182E010800ED00E03C01010810000108D9
:102C800030F3000820020108CE1B00205402010886
:102C900080020108D002010808B5024B1B68984762
:102CA000002008BD8C180020034B1860034A93785D
:102CB00043F00203937070478C180020AC02002090
:102CC00008B5064921F00701C1F1005202F50032B2
:102CD0000348FEF7E1FC002008BD00BF8B3B00204D
:102CE0009018002010B50C4B1B78012B04D1FFF776
:102CF00059FD0A4B185810BD094C40F28F3322463B
:102D00000849094808F0FFFD084808F0FCFD40F2BA
:102D10008F31204608F0EEFDCF1B00200800000098
:102D2000D4FA000800FB000830F3000814FB000888
:102D300038B50546114C04E06368A16828469847F9
:102D40000C340F4B9C4209D80D4B9C4214D2236883
:102D5000002BF1D02A689342F2D1EDE7094C1623FB
:102D600022460949094808F0CEFD094808F0CBFD84
:102D70001621204608F0BEFD38BD00BF04F2000851
:102D800010F20008040301082C03010830F30008C6
:102D90005403010800B585B04FF0FF324FF0FF3308
:102DA00001A9044803F06AFE0028F5D101A8FFF745
:102DB000BFFFF1E73003002030B585B00A9D0B9CC2
:102DC00001909DF820008DF808008DF80910ADF8ED
:102DD0000A20039354EA050306D0FFF783FF094B4B
:102DE000D3F8803083420AD02A46234601A90648F8
:102DF0000BF07CFD002800DB002005B030BD002575
:102E00002C46F1E7700600203003002010B560B1B9
:102E1000024683681548834215D21548834212D36F
:102E20001B68FBB11046984710BD124CB6232246D2
:102E30001149124808F067FD114808F064FDB621F9
:102E4000204608F057FD0B4CB62322460D490B488F
:102E500008F059FD0C490D4808F055FDB6212046F3
:102E600008F048FD6FF05700DEE700BF6CF1000886
:102E700050F1000804F700081CF3000830F30008C4
:102E800050F3000840F70008BCF80008ACF4000854
:102E900000B583B0054A92E80300CDE90001694618
:102EA0000348FFF7B3FF03B05DF804FB28F2000806
:102EB000D8EC000800F01F02012393401F2806D819
:102EC000044A526993430CBF012000207047002040
:102ED000704700BF003C014000F01F0201239340F7
:102EE0001F2803D8034A5361002070476FF0150074
:102EF000704700BF003C0140002399420ADD10B436
:102F000000EB030C044C04F80C2001339942F7DC6D
:102F100010BC7047704700BFBC020020F8B50746E0
:102F2000002401E00134E4B27B78A34217D93D7854
:102F300066193046FFF7BEFF0028F3D03046FFF792
:102F4000CBFF074B53F83620002AEBD006F01F05C5
:102F500003EBC60359680120A8409047E2E7F8BD9B
:102F60009C18002010B558B10346421E024207D1FA
:102F7000A0B923B3B3FA83F0C0F11F00C0B210BDF3
:102F8000104C602322461049104808F0BCFC104841
:102F900008F0B9FC6021204608F0ACFCB0FA80F2E1
:102FA000C2F11F020F2AE4DD064C612322460949C3
:102FB000064808F0A8FC6121204608F09BFCFF2091
:102FC000DDE700BFE00301082404010830F3000836
:102FD0005C040108880401085FFA81FC0CF102021C
:102FE0000A4B53F822200B0C22EA114193FAA3F367
:102FF0004BB1B3FA83F3984001430CF1020C034A3E
:1030000042F82C1070472023F5E700BF003801403C
:10301000C3B20233074A52F82320030C02EA1040DD
:1030200093FAA3F31BB1B3FA83F3D840704720237C
:10303000FBE700BF0038014010B50446FFF792FFE0
:10304000044B1856044B1A6814431C6009F0FEF830
:1030500010BD00BFBC020020003C0140024A1368C2
:1030600023EA000313607047003C0140032927D87E
:10307000DFE801F0020C151E184B9A6822EA0002E4
:103080009A60DA6822EA0002DA607047134B9A68A5
:1030900002439A60DA6822EA0002DA6070470F4B56
:1030A000DA680243DA609A6822EA00029A6070479E
:1030B0000A4B9A6802439A60DA681043D8607047F6
:1030C00010B5074C4FF4817322460649064808F0B4
:1030D0001AFC4FF48171204608F00CFC003C0140C2
:1030E000E00301081000010830F3000838B50C4671
:1030F0001546FFF737FF0C4B53F83030A34208D08A
:103100007BB9094B43F8304003EBC0035D600020FE
:1031100038BD054A02EBC0025268AA42F0D1002035
:10312000F6E76FF00F00F3E79C18002008B5FFF7F3
:1031300019FF044B002243F8302003EBC0035A6010
:1031400008BD00BF9C1800200C4B1B6813F0020F39
:1031500009D10A4A136843F001031360074B1B6847
:1031600013F0020FFAD0054A936823F0030393602B
:10317000024B9B6813F00C0FFAD1704700380240E5
:103180000C4B1A6822F480221A601A6842F48032CA
:103190001A60084B1B6813F4003FFAD0054A536FBE
:1031A00043F001035367034B5B6F13F0020FFAD038
:1031B000704700BF0038024039B133B1B0FBF1F0C5
:1031C00000FB02F2B2FBF3F0704710B5054C472349
:1031D00022460549054808F096FB4721204608F09D
:1031E00089FB00BF040501084805010830F3000809
:1031F000F8B50C461546434B1E680421304609F0CD
:1032000015F907460221304609F010F92388C3F367
:103210000B010B46442929D809B2002969D0013B8A
:10322000432B69D8DFE803F03D53565A5D3F4968A8
:10323000686868686868686868686868606368681B
:1032400068686868686868686868686868686868FE
:103250006868686868686835686868356868683785
:1032600068686868686868396868683BA8290DD12B
:103270002E602368B3F5805F41D32A68C3F313330C
:103280000133B2FBF3F22A60002037E06FF08500D3
:1032900034E02E60EDE72E60EBE72F60E9E7286071
:1032A000E7E72E60E5E700F0CBF802234FF4A872C1
:1032B0000821FFF781FF2860DBE700F0C1F8072352
:1032C0004FF4A8720821FFF777FF2860D1E70023A9
:1032D0002B60CEE74FF4FA432B60CAE700232B6044
:1032E000C7E7094B2B60C4E77F002F60C1E72E6062
:1032F000BFE76FF0850001E06FF08500F8BD0020AA
:10330000FCE700BFDC02002000127A0008B51A4B6F
:103310009B6803F00C03082B25D0174A136823F091
:1033200080731360144B1B6813F0007FFAD1134AAB
:10333000D2F8043823F44033C2F80438D2F8043801
:1033400023F0706343F0E063C2F8043800F07CF8C7
:10335000094A136843F080731360074B1B6813F02E
:10336000007FFAD008BDFFF7EFFE034A936823F011
:10337000F0039360D1E700BF003802400030024004
:10338000162806D8064BC34013F0010F04D00020C6
:1033900070476FF0850070476FF08500704700BF81
:1033A000EA00600038B500F071F8214C204609F0C1
:1033B000BAF802F0BDFE1F4B9B68C3F303131E4A0D
:1033C000D35C20FA03F513781C41A54228D3FFF7FC
:1033D000D7FEFFF79BFF174A936823F0F003936033
:1033E000936823F0030343F002039360114B9B683F
:1033F00003F00C03082BF9D1A54215D20F4B0C4A50
:103400001A600C4A936823F4E05343F4A05393608A
:10341000936823F4604343F400439360002038BD75
:10342000204602F03DFFD2E7204602F039FFE5E7F3
:10343000007A030A003802409C310108DC020020B7
:103440000048704700127A0008B509F06DF80B4B80
:1034500059680B4A0A4040F4A84141F008010A4368
:103460005A605A6822F440325A605968054A0A4044
:10347000054901430A435A6008BD00BF00380240B5
:103480000080BFFF0080BFF00854000782B0064BE9
:103490001A6C42F080521A641B6C03F08053019343
:1034A000019B02B0704700BF0038024010B5044CC9
:1034B0002046FFF7F9FB2046FEF7A0F910BD00BF3C
:1034C0005D35000808B505480BF0F5F918B1FFF7B0
:1034D000EDFF002008BD6FF01200FBE760EE000872
:1034E00010B558B1024683681348834214D213487A
:1034F000834211D3DB691046984710BD104CB823A6
:1035000022461049104808F0FEF9104808F0FBF96F
:10351000B821204608F0EEF9094CB82322460C49A0
:10352000094808F0F0F90B490B4808F0ECF9B8210C
:10353000204608F0DFF900BF04F20008A0F10008FF
:10354000DCF200081CF3000830F3000850F3000818
:1035500064F30008A4F40008ACF4000810B50446B5
:103560000A2805D0E1B20548FFF7BAFF204610BD92
:103570000D210248FFF7B4FFF4E700BF60EE00083A
:1035800010B558B1024683681548834216D21548D3
:10359000834213D3DB681046984710BD124C40F2AB
:1035A000F25322461149124808F0ADF9114808F0CB
:1035B000AAF940F2F251204608F09CF90A4C40F278
:1035C000F25322460C490A4808F09DF90B490C4871
:1035D00008F099F940F2F251204608F08BF900BF4B
:1035E0000CF10008E8F0000870050108A4050108C6
:1035F00030F3000850F30008B8050108F806010888
:10360000ACF4000810B558B10246836815488342EF
:1036100016D21548834213D31B691046984710BD34
:10362000124C40F21F6322461149124808F06BF910
:10363000114808F068F940F21F61204608F05AF975
:103640000A4C40F21F6322460C490A4808F05BF915
:103650000B490C4808F057F940F21F61204608F06A
:1036600049F900BF0CF10008E8F0000870050108F6
:10367000A405010830F3000850F30008B80501085C
:10368000F8060108ACF4000810B543681C68012373
:1036900003FA01F10C4203D092B1FFF771FF10BDA4
:1036A000094C40F2F76322460849094808F02BF913
:1036B000084808F028F940F2F761204608F01AF9A6
:1036C000FFF7A0FFEBE700BF700501080007010846
:1036D00030F300084007010838B5436805691C68E5
:1036E00001238B401C4208D02C68234202D0B2FA3E
:1036F00082F25209FFF7C8FF38BD084C40F222732E
:1037000022460749074808F0FEF8074808F0FBF88A
:1037100040F22271204608F0EDF800BF7005010864
:103720000007010830F300084007010870B50028C1
:1037300042D01346864684686B4A94424CD26B4A08
:10374000944249D34668006913F0FC6F55D103F0E9
:103750003002302A61D0664A1A40664DAA426CD0C7
:1037600003F00602042A78D013F4402240F082804D
:10377000B2F5402F00F0928013F4801F05D022B1E3
:1037800013F0010F01D083F4402323F48012356835
:103790004FF0010C0CFA01FC15EA0C0F00F08E80C2
:1037A00013F0010F00F09A8003684CEA03030360F2
:1037B00023687046984770BD4F4C40F253432246F1
:1037C0004E494F4808F09FF84E4808F09CF840F2E8
:1037D0005341204608F08EF8474C40F253432246AE
:1037E0004949474808F08FF84849494808F08BF89C
:1037F00040F25341204608F07DF83F4C40F25C43D4
:10380000224644493E4808F07EF8434808F07BF8D9
:1038100040F25C41204608F06DF8374C40F25F43BF
:1038200022463E49364808F06EF83D4808F06BF8ED
:1038300040F25F41204608F05DF82F4C40F26343B0
:10384000224638492E4808F05EF8374808F05BF801
:1038500040F26341204608F04DF8274C40F26643A1
:1038600022463249264808F04EF840F2664120468A
:1038700008F040F813F4003F7FF47AAF1E4C40F29A
:10388000694322462A491E4808F03DF8294808F0B5
:103890003AF840F26941204608F02CF8164C40F204
:1038A0006D4322462449164808F02DF8234808F0B5
:1038B0002AF840F26D41204608F01CF80E4C40F208
:1038C000794322461E490E4808F01DF81D4808F0AD
:1038D0001AF840F27941204608F00CF8036823EA10
:1038E0000C03036064E700BF0CF10008E8F0000877
:1038F000020003000200010070050108A405010890
:1039000030F3000850F30008B8050108F806010874
:10391000ACF4000854070108C4070108E8070108CF
:103920002408010864080108B40801080409010812
:103930003809010888090108C4090108140A0108A6
:103940000007010840070108002A3BD038B515469A
:1039500002EB420C4FEA8C0CACF10C0C8C449CF842
:1039600008E04EF0020E8CF808E050B18468164A68
:10397000944216D2154A944213D3A4682A46A0470B
:1039800038BD134C4FF47B7322461249124807F09E
:10399000BAFF124807F0B7FF4FF47B71204607F0DB
:1039A000A9FF0B4C4FF47B7322460D490A4807F0E0
:1039B000AAFF0C490C4807F0A6FF4FF47B71204684
:1039C00007F098FF0020704724F100080CF1000870
:1039D000400A01081CF3000830F3000850F3000807
:1039E000700A0108A80B0108ACF400082DE9F041A9
:1039F000144643681E695A698A4217D99F69C1EB08
:103A0000C1054FEA850807EB8505084600F058FB1D
:103A1000084B1B5C1E4473689BB2636017F8083048
:103A20006370AB7923700020BDE8F0816FF0150062
:103A3000FAE700BFE82E0108F8B543681F695A6924
:103A40008A4229D906460C469D69C1EBC10305EBA4
:103A500083056B7913B10020A871F8BD384600F0DA
:103A6000A1FC08B90020F8E7204600F029FB0C4B28
:103A70001A5CBB5823F01003BB502146384600F0B7
:103A8000BDFC2146304609F014F92146384609F0BC
:103A900020F90020A871E0E76FF01500DDE700BF16
:103AA000E82E01082DE9F84F0C461F4641680E69C3
:103AB0004B69A34266D99046D1F818A0C4EBC4055F
:103AC0004FEA850B0AEB85052146304609F001F9DE
:103AD0008146002859D15AF80B30012B05D0022B12
:103AE0002ED06BB36FF0150927E0204600F0E8FAFE
:103AF000DFF89CA01AF800303344C3F80C8020464D
:103B000000F0DEFA1AF8003033449F602B794BB393
:103B1000204600F0D5FAAB680A9AB2FBF3F31C4AD0
:103B2000125C324451686FF30F010B435360012361
:103B3000AB712146304600F027FC4846BDE8F88FBF
:103B4000204600F0BDFADFF848A01AF800303344F0
:103B5000C3F80880204600F0B3FA1AF80030334466
:103B6000DF60D3E7204600F0ABFAEB680A9AB2FBBD
:103B7000F3F3074A125C324451686FF30F010B43B1
:103B80005360D4E76FF01509D7E76FF00F09D4E75A
:103B9000E82E01082DE9F04F93B080460E461446FA
:103BA000D0F80490D9F810A003A80AF073FED9F851
:103BB0001430B34240F27C81D9F818B0C6EBC60588
:103BC000AB0001930BEB8505AB79002B40F07381C3
:103BD0003146504609F07DF80746002840F06E81D6
:103BE0003146404609F065F8638803F4FE53B3F5A7
:103BF000FE5F71D022695369B3F5803F80F0618127
:103C0000637813F0070F04D199F80C30002B00F003
:103C10005B81E188A388994240F05981042B04D04C
:103C2000022B02D0012B40F05581137FC3F3801289
:103C3000B2EBD31F40F051810123AB71A3696B61DB
:103C4000637803F00703019A4BF8023062692A6136
:103C5000A288AA60E288EA602269127FC2F3801219
:103C60002A762169A28892FAA2F0B0FA80F00AB905
:103C70004FF0FF30E28892FAA2F7B7FA87F70AB955
:103C80004FF0FF37012B34D00B6803934B6804933C
:103C9000984B53F820300993974B53F827300A93E9
:103CA000A0780DA900F00F0008F0B2FF071E1CDB82
:103CB000607805A900F0070008F0C5FF071E14DBB7
:103CC000637803F00703012B00F0CC80022B1DD09A
:103CD000E3B16FF0150708E00123AB716B71A369C5
:103CE0006B6163692B6100232B76384613B0BDE806
:103CF000F08F0B6804934B6803937F4B53F820308D
:103D00000A937C4B53F827300993C9E7236993F84A
:103D10001C80C8F30110C8F3810808A908F0A5FFAA
:103D2000071EE2DB07A9404608F0B1FF071EDCDBF7
:103D30002B7E002B00F09E804FF480730693019B36
:103D40005BF80310022914BF002101212971238986
:103D5000A288B3FBF2F002FB10339BB2002B40F0C1
:103D6000BF806389E288B3FBF2F002FB10339BB2A1
:103D7000002B40F0B880204600F050FB10902979CD
:103D8000204600F085FB1190637813F0070F74D084
:103D90002378072B00F2AA80207800F0ABF90C9072
:103DA0002369587F00F00F0009F08DF90F9003A8E8
:103DB00009F03DF9002866D004230E932B79002BDF
:103DC00064D023695B69A288B3FBF2F30B9330469E
:103DD00000F076F9014603AA504602F017FA304681
:103DE00000F06EF9454B1A5C5AF8023043F00403B8
:103DF0004AF802302B7E0BB16B6953B1304600F0AC
:103E00005FF93E4B1A5C5AF8023043F010034AF84F
:103E100002302B7E63B16B6953B1304600F050F92C
:103E2000364B1A5C5AF8023043F008034AF8023065
:103E30000E9B042B31D0304600F042F92F4B1B5C17
:103E400053445A6922F004025A61304600F038F9AE
:103E50002A4B1B5C9A44DAF8143023F08003CAF82A
:103E6000143042E7236993F81C80C8F38100C8F33B
:103E7000011852E70023069361E72378072B8BD9BB
:103E80000023237088E700230E9397E723695B697B
:103E9000E288B3FBF2F30B9399E7304600F010F998
:103EA000164B1B5C53445A6942F004025A61CCE73A
:103EB0006FF0150719E76FF00F0716E76FF00F07A0
:103EC00013E76FF0150710E76FF085070DE76FF048
:103ED00015070AE76FF0150707E76FF0150704E706
:103EE0006FF0150701E76FF01507FEE66FF0150795
:103EF000FBE600BFD02E0108DC2E0108E82E0108E9
:103F000010B560B1024683681548834215D2154842
:103F1000834212D31B68FBB11046984710BD124C68
:103F2000B62322461149124807F0EDFC114807F06C
:103F3000EAFCB621204607F0DDFC0B4CB6232246F6
:103F40000D490B4807F0DFFC0C490D4807F0DBFC7E
:103F5000B621204607F0CEFC6FF05700DEE700BF29
:103F60006CF1000850F1000804F700081CF3000889
:103F700030F3000850F3000840F70008BCF80008D0
:103F8000ACF4000870B50546446821461048FFF7B8
:103F9000B7FFC8B90646A36828469847002307E03C
:103FA000A269C3EBC30102EB8102002191710133CD
:103FB00062699342F4D32A69002313602A6953602B
:103FC0002A699360304670BD6FF00406FAE700BFBF
:103FD000D8EC00082DE9F04143681F695E698E4204
:103FE0008CBF00260126DEB980460C469D69C1EBD8
:103FF000C10305EB83056B790BB9AB79DBB12146C6
:10400000384600F091F9F8B16B79BBB101266F69C0
:1040100027B13346224629694046B847BDE8F081BA
:10402000244C602322462449244807F06CFC60217C
:10403000204607F05FFC08F03CFEEFE721463846DB
:1040400000F072F80126E2E72146384600F052F906
:1040500050B12B7E03B9AB716B79002BD7D12146C0
:10406000384600F07DF8D2E72146384600F076F970
:1040700078B16B7913B16FF00406C8E72146384672
:1040800008F0C6FF2146384608F0C3FF6FF004066B
:10409000BDE76B7913B16FF00406B8E7AB71214649
:1040A000404608F093FE2146404608F002FE6FF0BD
:1040B0000406ACE7B80B0108E40B010830F3000874
:1040C000072803D8074B53F82000704710B5064C5B
:1040D000212322460549064807F015FC21212046E8
:1040E00007F008FC10300108100C0108400C010812
:1040F00030F30008072803D8074B53F82000704717
:1041000010B5064C342322460549064807F0FBFB50
:104110003421204607F0EEFBF02F0108100C0108B7
:10412000F80C010830F3000810B5072904D8084B33
:1041300053F82130984710BD064C472322460649C4
:10414000064807F0E0FB4721204607F0D3FB00BFFD
:10415000D02F0108100C0108B80D010830F3000839
:1041600010B5072904D8084B53F82130984710BDE3
:10417000064C592322460649064807F0C4FB59213C
:10418000204607F0B7FB00BFB02F0108100C010854
:10419000B80D010830F3000810B5072907D8094BFE
:1041A00053F821309847003818BF012010BD064C45
:1041B0006B2322460549064807F0A5FB6B212046E4
:1041C00007F098FB902F0108100C0108B80D0108AA
:1041D00030F3000810B5072907D8094B53F82130F0
:1041E0009847003818BF012010BD064C7D23224699
:1041F0000549064807F087FB7D21204607F07AFB3A
:10420000702F0108100C0108B80D010830F30008E8
:1042100010B5072904D8084B53F82130984710BD32
:10422000064C8F2322460649064807F06CFB8F2177
:10423000204607F05FFB00BF502F0108100C01085B
:10424000B80D010830F3000810B5072904D8084B51
:1042500053F82130984710BD064CA1232246064949
:10426000064807F050FBA121204607F043FB00BFA2
:10427000302F0108100C0108B80D010830F30008B8
:1042800010B5072904D8084B53F82130984710BDC2
:10429000064CB32322460649064807F034FBB321F7
:1042A000204607F027FB00BF102F0108100C010863
:1042B000B80D010830F3000810B5072907D8094BDD
:1042C00053F821309847003818BF012010BD064C24
:1042D000E92322460549064807F015FBE921204657
:1042E00007F008FBF02E0108100C0108B80D0108BA
:1042F00030F3000838B504460D460846FFF7E0FEE7
:10430000084B1B5CE35813F0100F01D1002038BD9F
:1043100029462046FFF75EFF08B10120F7E700209D
:10432000F5E700BF3030010838B504460D460846B1
:10433000FFF7C6FE084B1B5CE35813F0080F01D1D2
:10434000002038BD29462046FFF726FF08B101208E
:10435000F7E70020F5E700BF3030010838B5044624
:104360000D460846FFF7ACFE064B1B5C23445B6919
:1043700013F0800F01D1002038BD29462046FFF7F9
:104380009BFFF9E73030010810B504460846FFF7F7
:1043900097FE034B1A5CA35843F00103A35010BDD2
:1043A0003030010810B504460846FFF789FE054B7A
:1043B0001B5CE35813F0010F01D1002010BD012058
:1043C000FCE700BF3030010838B504460D4608460A
:1043D000FFF776FE084B1A5CA35823F00103A350A5
:1043E00029462046FFF7DEFF0028F9D1294620465E
:1043F000FFF7B6FE002038BD3030010810B5044686
:104400000846FFF75DFE044B1B5CE018436923F090
:104410008003436110BD00BF3030010870B589B121
:10442000C5884489B4FBF5F305FB13436BB9B4FBB2
:10443000F5F4082C1BD0102C1CD0042C1DD14FF4EB
:10444000000019E085880489ECE70D4E4FF4B37342
:1044500032460C490C4807F056FA2A4621460B48CA
:1044600007F051FA4FF4B371304607F043FA4FF0BA
:10447000807001E04FF0C07070BD0020FCE700BF0D
:10448000100C01085C0E010830F30008840E0108CE
:1044900070B589B185880489B4FBF5F305FB134336
:1044A0006BB9B4FBF5F4082C1BD0102C1CD0042CD9
:1044B0001DD14FF4001019E0C5884489ECE70D4E7A
:1044C00040F2891332460C490C4807F01CFA2A4680
:1044D00021460B4807F017FA40F28911304607F0E1
:1044E00009FA4FF4800001E04FF4C00070BD0020D5
:1044F000FCE700BF100C0108BC0E010830F30008F7
:10450000840E0108F8B581B1044616460D464B6885
:10451000B3FA83F77F09B3B1036813B308F0F3FD6F
:1045200050BBFEB96FF0150721E0164C64232246FC
:104530001549164807F0E7F9154807F0E4F9642132
:10454000204607F0D7F90F4C6523224611490F4842
:1045500007F0D9F9104807F0D6F96521204607F091
:10456000C9F932B123682B60256063683BB13846D6
:10457000F8BD6FF01507FAE7002EF8D0F2E7656096
:10458000F5E700BFE40E0108200F010830F3000832
:104590002C0F01083C0F0108500F010870B50E46A2
:1045A0001546016891B10C68ACB1A1B90C4612E096
:1045B000124C892322461249124807F0A4F91248E6
:1045C00007F0A1F98921204607F094F90C4602E092
:1045D000234621461C4681B18A682A4004D04B6894
:1045E000002BE5D030469847002CF1D02368002BF3
:1045F000EFD0002CEDD12346EBE770BDE40E0108AF
:10460000680F010830F30008500F01082DE9F84346
:1046100080460F4616461C46D0F80490D9F808008C
:1046200007F0E4FEB6F5001F0ED00546B6F5800F84
:104630002AD0B4F1806F0ED0B4F1C06F0DD0B4F1B8
:10464000007F24D1022609E03946D9F8080008F095
:10465000CCFD002415E0012600E0032642460F4968
:104660002846FEF743FD0446A0B9D9F8081038469D
:1046700007F0C1FE31462846FEF7F8FC2846FEF753
:10468000DBFC2046BDE8F8836FF08504F9E76FF0A6
:104690001504F6E76FF00F04F3E700BFDDD1000863
:1046A000104B984213D00AD90F4B984215D003F5FE
:1046B000C31303F52063984211D10A2070470B4BB6
:1046C000984206D00A4B984205D104207047062034
:1046D0007047022070470020704708207047002074
:1046E000704700BF40420F0040E13300A086010048
:1046F000801A060010B560B184468368174883426B
:1047000017D21748834214D3DB681BB3604698471F
:1047100010BD144C4FF48C7322461349134807F014
:10472000F2F8134807F0EFF84FF48C71204607F0C9
:10473000E1F80C4C4FF48C7322460E490B4807F0FD
:10474000E2F80D490D4807F0DEF84FF48C71204671
:1047500007F0D0F86FF05700DAE700BF6CF10008FF
:1047600050F1000804F700081CF3000830F30008BB
:1047700050F3000840F70008BCF80008ACF400084B
:1047800010B560B1844683681748834217D2174832
:10479000834214D39B691BB36046984710BD144CE9
:1047A0004FF4AC7322461349134807F0ACF8134892
:1047B00007F0A9F84FF4AC71204607F09BF80C4CB9
:1047C0004FF4AC7322460E490B4807F09CF80D4994
:1047D0000D4807F098F84FF4AC71204607F08AF8BE
:1047E0006FF05700DAE700BF6CF1000850F10008E5
:1047F00004F700081CF3000830F3000850F3000829
:1048000040F70008BCF80008ACF40008F0B583B02D
:1048100004460F4643680569DE68002201929A68E3
:10482000012A2DD9596801AA08311C48FFF762FFF7
:1048300000282FDB2F6205F110074FF0FF324FF0F9
:10484000FF33384602F088FC336823F001033360FD
:1048500095F85210204608F088FD0199204600F096
:104860005BF9041E06DB95F851301BB1336843F049
:1048700001033360384602F001FC204603B0F0BD6E
:1048800001AA59680548FFF735FF0028D2DA6FF012
:104890000404F2E76FF00404EFE700BFD8EC00086F
:1048A00070B50446466805694FF0FF32002128467E
:1048B0000AF041F8336820469847002385F85030C5
:1048C00085F8523005F11000012211460AF033F844
:1048D000204600F061F8B368012B07D97168002207
:1048E00008310B48FFF74CFF00280EDB3069FFF75B
:1048F000D7FE40F010012046FFF788FF002803DBB9
:10490000012385F85030002070BD6FF00400FBE7F4
:10491000D8EC000810B560B10246836815488342A0
:1049200015D21548834212D31B68FBB11046984735
:1049300010BD124CB62322461149124806F0E3FF7F
:10494000114806F0E0FFB621204606F0D3FF0B4CDD
:10495000B62322460D490B4806F0D5FF0C490D48F9
:1049600006F0D1FFB621204606F0C4FF6FF05700D5
:10497000DEE700BF6CF1000850F1000804F7000802
:104980001CF3000830F3000850F3000840F700085B
:10499000BCF80008ACF4000810B544680021206A97
:1049A00008F0F6FC002804DB61680448FFF7B2FF5A
:1049B00000B910BD6FF00400FBE700BFD8EC0008A1
:1049C00030B52A4CA4FB014E4FEA9E4C446824F0BB
:1049D0003F0444EA9E444460046A24F03F04244DAA
:1049E000AA421BD80CF1010C44EA0C040462204CCE
:1049F000A24231D9F3B902EB4202B1FBF2F2C2F3A7
:104A00000B0119B342F400410B43C26922F44F4C2D
:104A10002CF0FF0C4CEA0303C36130BD4FF49675D4
:104A200005FB0CFC134DA5FB0C5C4FEA9C1C0CF128
:104A3000010CD9E702EB820202EB8202B1FBF2F237
:104A4000C2F30B0129B142F40041DDE748F2010154
:104A5000DAE748F20101D7E75200B1FBF2F340F682
:104A6000FC721342D1D10423CFE700BF83DE1B4386
:104A7000A0860100D34D6210F0B583B00446154600
:104A8000476806694FF0000CCDF800C008F078FECA
:104A9000204608F0DDFCD7E90623304602F05CFB37
:104AA00030B9064A2946204608F015FD03B0F0BD8E
:104AB000204608F0DCFC6FF00400F7E78C300108BA
:104AC0002DE9F04182B0044615464668D0F81080C2
:104AD000F7684FF0010CCDF800C008F051FE2046F9
:104AE00008F0B6FC7B6843F4C0637B60D6E906231C
:104AF000404602F031FB38B9064A2946204608F004
:104B0000EAFC02B0BDE8F081204608F0B0FC6FF08E
:104B10000400F6E77830010808B542680369D068F8
:104B20001B6AC3F34203012B04D0022B08D06FF0A1
:104B3000150004E00023054AFFF742FF002008BDEE
:104B40000023034AFFF73CFF0020F8E7A08601009E
:104B5000801A060070B5002842D013468646846845
:104B60006B4A94424CD26B4A944249D346680069DE
:104B700013F0FC6F55D103F03002302A61D0664A41
:104B80001A40664DAA426CD003F00602042A78D07F
:104B900013F4402240F08280B2F5402F00F0928062
:104BA00013F4801F05D022B113F0010F01D083F45C
:104BB000402323F4801235684FF0010C0CFA01FCFD
:104BC00015EA0C0F00F08E8013F0010F00F09A80B0
:104BD00003684CEA0303036023687046984770BD7E
:104BE0004F4C40F2534322464E494F4806F08BFE4D
:104BF0004E4806F088FE40F25341204606F07AFE09
:104C0000474C40F2534322464949474806F07BFE51
:104C10004849494806F077FE40F25341204606F0E5
:104C200069FE3F4C40F25C43224644493E4806F050
:104C30006AFE434806F067FE40F25C41204606F0FB
:104C400059FE374C40F25F4322463E49364806F053
:104C50005AFE3D4806F057FE40F25F41204606F0FE
:104C600049FE2F4C40F26343224638492E4806F055
:104C70004AFE374806F047FE40F26341204606F000
:104C800039FE274C40F2664322463249264806F058
:104C90003AFE40F26641204606F02CFE13F4003F37
:104CA0007FF47AAF1E4C40F2694322462A491E48DF
:104CB00006F029FE294806F026FE40F2694120460A
:104CC00006F018FE164C40F26D4322462449164861
:104CD00006F019FE234806F016FE40F26D4120460C
:104CE00006F008FE0E4C40F2794322461E490E485B
:104CF00006F009FE1D4806F006FE40F27941204606
:104D000006F0F8FD036823EA0C03036064E700BFC4
:104D10000CF10008E8F000080200030002000100A6
:104D200070050108A405010830F3000850F30008DD
:104D3000B8050108F8060108ACF40008540701089A
:104D4000C4070108E80701082408010864080108ED
:104D5000B408010804090108380901088809010894
:104D6000C4090108140A01080007010840070108E6
:104D700010B518B191B14160826010BD0F4C40F286
:104D80006E7322460E490F4806F0BDFD0E4806F030
:104D9000BAFD40F26E71204606F0ACFD074C40F2C1
:104DA0006F7322460949074806F0ADFD084806F032
:104DB000AAFD40F26F71204606F09CFD70050108C7
:104DC000200F010830F30008940F01086C0F010850
:104DD000BC0F010810B558B18368174A934217D227
:104DE000164A934214D3DB691BB30122984710BDC6
:104DF000134C40F2877322461249134806F083FD94
:104E0000124806F080FD40F28771204606F072FDE0
:104E10000B4C40F2877322460D490B4806F073FD98
:104E20000C490D4806F06FFD40F28771204606F0F0
:104E300061FD6FF05700DAE70CF10008E8F00008B8
:104E400070050108A405010830F3000850F30008BC
:104E5000B8050108F8060108ACF4000810B558B10F
:104E6000024683681548834216D21548834213D3FD
:104E70005B681046984710BD124C40F26D532246B5
:104E80001149124806F03FFD114806F03CFD40F282
:104E90006D51204606F02EFD0A4C40F26D5322461D
:104EA0000C490A4806F02FFD0B490C4806F02BFD73
:104EB00040F26D51204606F01DFD00BF0CF10008C8
:104EC000E8F0000870050108A405010830F30008A7
:104ED00050F30008B8050108F8060108ACF4000812
:104EE00010B582B043681B6801248C4023420AD06D
:104EF00001A908F027FD20B9019B1C40201E18BF06
:104F0000012002B010BD084C40F2C563224607499B
:104F1000074806F0F8FC074806F0F5FC40F2C561CA
:104F2000204606F0E7FC00BF7005010800070108F5
:104F300030F300084007010838B5002834D0844613
:104F40008368534883423FD2524883423CD3DCF8C3
:104F50000400DCF810509C69002C00F0968002F4EC
:104F6000C003B3F5C00F40D0002B4ED002F0E86371
:104F7000B3F1C86F59D002F0C863B3F5800F64D0A5
:104F8000006801238B4018426FD012F4000F04D048
:104F90002868034201D082F0C0623F4B134002F008
:104FA000B0726046A04738BD3C4C40F2E333224625
:104FB0003B493C4806F0A7FC3B4806F0A4FC40F205
:104FC000E331204606F096FC344C40F2E3332246AF
:104FD0003649344806F097FC3549364806F093FCCC
:104FE00040F2E331204606F085FC2C4C40F2F333CE
:104FF000224631492B4806F086FC304806F083FCF7
:1050000040F2F331204606F075FC244C40F2F733B1
:1050100022462B49234806F076FC2A4806F073FC0A
:1050200040F2F731204606F065FC1C4C40F2FA33A2
:10503000224625491B4806F066FC244806F063FC1E
:1050400040F2FA31204606F055FC144C40F2094378
:1050500022461F49134806F056FC1E4806F053FC32
:1050600040F20941204606F045FC0C4C40F20E434C
:10507000224619490B4806F046FC184806F043FC46
:1050800040F20E41204606F035FC6FF057008AE7EB
:105090000CF10008E8F00008400000067005010867
:1050A000A405010830F3000850F30008B805010812
:1050B000F8060108ACF40008EC0F01083C100108E8
:1050C0006810010898100108C4100108581101085F
:1050D000AC1101081412010800070108400701087B
:1050E00038B504460D46037901229A400B492846FB
:1050F000FFF73EFE29462068FFF76CFE00280CDB18
:1051000020682179FFF7ECFE28734FF0E861204614
:1051100008F023FC002800DB002038BD0DD9000872
:1051200008B5A0F1180350F8180C4268D2689B1A11
:10513000DB10034903FB01F108F068FC08BD00BF68
:10514000398EE33870B50646CD171248A1FB0043EF
:1051500000FB0533C2F12001B2F1200024FA02F471
:1051600003FA01F144EA010402D443FA00F00443D3
:1051700043FA02F5084A002320462946FBF770FA55
:105180003060054A002320462946FBF769FA726021
:1051900070BD00BF3AA3950040420F0070B50446B1
:1051A000CE170D4DA1FB0501B42303FB02F2002332
:1051B00005FB0611FBF754FA06460D46074A002385
:1051C000FBF74EFA2060054A002330462946FBF7DC
:1051D00047FA626070BD00BF705EDF0140420F00A1
:1051E00070B50C464FEAE27C96464FEA4C1545EA0C
:1051F000D26553019B1A65EB0C02520242EAD3526C
:105200005B0213EB0E034CEB0202950145EA93653A
:105210009901CB1A65EB020213EB0E034CEB020271
:10522000012840D0D51705F0530623F07F41180E12
:1052300040EA022020F07F40014401EB124131445A
:105240002248A0FB0160800900EB800000EB001009
:10525000091A25F0530529445B1A62EBE1721C49D7
:105260004FF0FC3003FB00F001FB0202A3FB013115
:1052700011440E46002924DB9B0843EA8673B610CE
:10528000144D5D1946F10006134A002328463146A5
:10529000FBF7E6F92060104A002328463146FBF769
:1052A000DFF9626070BD0D49AEFB010E0C4A0023B0
:1052B00001FB0CE1FBF7D4F90A4D2D1841F1000672
:1052C000E2E7033341F10006D6E700BFC1C0C0C02A
:1052D000FDFCFCFC0051250240420F0000CA9A3B35
:1052E0002E180500406F4001002A3BD038B5154606
:1052F00002EB420C4FEA8C0CACF10C0C8C449CF889
:1053000008E04EF0020E8CF808E050B18468164AAE
:10531000944216D2154A944213D3A4682A46A04751
:1053200038BD134C4FF47B7322461249124806F0E5
:10533000EAFA124806F0E7FA4FF47B71204606F0CD
:10534000D9FA0B4C4FF47B7322460D490A4806F0FC
:10535000DAFA0C490C4806F0D6FA4FF47B71204675
:1053600006F0C8FA0020704724F100080CF100088C
:10537000400A01081CF3000830F3000850F300084D
:10538000700A0108A80B0108ACF4000870B584B0DD
:1053900006694568286809F08EFA00285ED00DF18C
:1053A0000F027521284608F09AFC002859DB9DF869
:1053B0000F30682B08D0712B06D0192B04D0702B1E
:1053C00052D10123B37401E00023B3742868297912
:1053D0000023009340236B2208F09FFC002846DB4B
:1053E0000024032C08D8621C012393402A7A93429C
:1053F00002D00134E4B2F4E7042C3BD0E20002F026
:10540000F8021C21284608F0B0FC002835DBC4F166
:105410000E04F4800024032C07D8FA23A3406A89E1
:10542000934202D00134E4B2F5E7042C28D0E20024
:1054300002F0F8021B21284608F097FC002822DB26
:10544000144B33F8143033822A7B1921284608F094
:105450008CFC00281ADB002004B070BD6FF0120035
:10546000FAE76FF00400F7E76FF01500F4E76FF06C
:105470000400F1E76FF01500EEE76FF00400EBE7D2
:105480006FF01500E8E76FF00400E5E76FF0040047
:10549000E2E700BFFC30010810B50446B2F5004F4A
:1054A0002FD04FF0000C48184CEB0C0C40184CF16E
:1054B000000C4FEACC0C4CEA507CC00040184FEA7C
:1054C00083024FEA93734CF10001FBF719F9244969
:1054D000A1FB00235B091A0192B24FF0640C0CFB94
:1054E00013031B013233A1FB0313C3F34F1303F068
:1054F000F0010A4492B203F00F0313449BB2A3607D
:1055000010BD4FF0000C48184CEB0C02401842F153
:105510000002D20042EA5072C000401842F100017D
:10552000DA184CEB0C03FBF7EBF80D49A1FB002359
:105530005B091A0192B24FF0640C0CFB1303DB0001
:105540003233A1FB0313C3F34F13590001F4F87175
:105550000A4492B203F0070313449BB2A360CFE75F
:105560001F85EB5108B5024A08F058FC08BD00BF82
:105570008BDE000808B5024A08F06AFC08BD00BFCF
:1055800091DE000810B543681B68DC68DB6814F422
:10559000805F03D1054B08F0CBFC10BD03F4C06362
:1055A000002BF7D16FF08500F7E700BF83DF00081D
:1055B00010B543681B68DC68DB6814F4805F03D1B6
:1055C000054B08F0E1FC10BD03F4C063002BF7D1DC
:1055D0006FF08500F7E700BFD1DF000843681A6865
:1055E00002F1140353E8003F43F0010302F11400F9
:1055F00040E800310029F3D1134B9A4213D0A3F5B0
:105600004C439A420FD003F580639A420BD003F5C6
:1056100080639A4207D003F580639A4203D003F572
:1056200044439A4203D1136943F04003136102F1EA
:105630000C0353E8003F43F4807302F10C0040E890
:1056400000310029F3D170470010014043681A6807
:1056500002F1140353E8003F23F0010302F11400A8
:1056600040E800310029F3D1134B9A4213D0A3F53F
:105670004C439A420FD003F580639A420BD003F556
:1056800080639A4207D003F580639A4203D003F502
:1056900044439A4203D1136923F04003136102F19A
:1056A0000C0353E8003F23F4807302F10C0040E840
:1056B00000310029F3D170470010014010B560B1EE
:1056C00084468368174883421AD21748834217D307
:1056D0009B6993B16046984710BD144C40F28A23F1
:1056E00022461349134806F00EF9134806F00BF949
:1056F00040F28A21204606F0FDF86FF05700EBE7F4
:105700000A4C40F28A2322460C490A4806F0FBF86C
:105710000B490C4806F0F7F840F28A21204606F0C3
:10572000E9F800BFE8F00008C0F0000884120108A2
:105730001CF3000830F3000850F30008B41201080D
:10574000EC130108ACF4000810B558B102468368A8
:105750001548834216D21548834213D39B681046DE
:10576000984710BD124C4FF4E3732246114912487A
:1057700006F0C9F8114806F0C6F84FF4E371204668
:1057800006F0B8F80A4C4FF4E37322460C490A4875
:1057900006F0B9F80B490C4806F0B5F84FF4E37180
:1057A000204606F0A7F800BFE8F00008C0F00008A7
:1057B000841201081CF3000830F3000850F30008BD
:1057C000B4120108EC130108ACF4000810B560B184
:1057D000844683681748834217D21748834214D3FC
:1057E000DB681BB36046984710BD144C4FF48C73B4
:1057F00022461349134806F086F8134806F083F84A
:105800004FF48C71204606F075F80C4C4FF48C73F5
:1058100022460E490B4806F076F80D490D4806F071
:1058200072F84FF48C71204606F064F86FF0570060
:10583000DAE700BF6CF1000850F1000804F7000837
:105840001CF3000830F3000850F3000840F700088C
:10585000BCF80008ACF4000870B582B043681D685D
:10586000002952D00E4601AA19695868FFF7AEFF09
:10587000002838DBEB6823F40043EB60019C002137
:1058800020194941001941F10001C90041EA507154
:10589000C00000194FEA86024FEA967341F10001F9
:1058A000FAF72EFF1C4AA2FB00314909642303FBCF
:1058B00011031B013233A2FB03235B0903F0F00247
:1058C00002EB011203F00F0313440F2B20D93346D0
:1058D000002221462846FFF7DFFDA8680F288CBF6D
:1058E0000020012008B902B070BD0C4C40F23D13FD
:1058F00022460B490B4806F006F80B4806F003F861
:1059000040F23D11204605F0F5FF6FF01500EAE783
:105910006FF01500E7E700BF1F85EB51F01301089A
:105920002014010830F30008441401082DE9F04167
:105930000C4643681D6803691E680B79012B04D06F
:10594000022B0DD14FF4806801E04FF4C0686279FA
:10595000012A08D0022A08D01ABB4FF4805706E06B
:105960004FF00008F3E7002701E04FF4405794F8A8
:1059700006C0BCF1040F17D0CBB94FF0000ED91EF2
:10598000C9B2012956D913B1BCF1040F55D0B7F5EE
:10599000805F0FD0B7F5405F0ED0002F3FD10123BD
:1059A0000BE04FF40057E2E74FF4805EE7E74FF477
:1059B000805EE4E7002300E002239A4240D1BEF17A
:1059C000000F2ED1B8F1000F32D103239C453AD1FC
:1059D000E37983B1012B39D1214B9D420BD0A3F543
:1059E0004C439D4207D003F580639D4203D003F5ED
:1059F0004C439D422DD1EB6823F40053EB602146CC
:105A000008F062FC002827DBEB6843F40053EB60EE
:105A100094E8030086E803000020BDE8F08103233A
:105A2000CBE7B8F1000F01D10423CFE70323CDE783
:105A30000223CBE76FF08500EFE76FF08500ECE71E
:105A40006FF08500E9E76FF08500E6E76FF085000D
:105A5000E3E76FF08500E0E76FF08500DDE700BF6A
:105A60000010014010B560B10246836817488342B8
:105A700017D21748834214D3DB681BB310469847EC
:105A800010BD144C4FF4EF7322461349134805F030
:105A90003AFF134805F037FF4FF4EF71204605F049
:105AA00029FF0C4C4FF4EF7322460E490B4805F0CA
:105AB0002AFF0D490D4805F026FF4FF4EF712046EF
:105AC00005F018FF6FF05700DAE700BFE8F00008B4
:105AD000C0F00008841201081CF3000830F300082D
