:020000040800F2
:1000000040700020D99000081D6E0108C5900008BE
:10001000C5900008C5900008C590000800000000C9
:100020000000000000000000000000000D9100082A
:10003000C5900008000000002D93000875F400082A
:10004000C1930008C1930008C1930008C193000840
:10005000C1930008C1930008C1930008C193000830
:10006000C1930008C1930008C1930008C193000820
:10007000C1930008C1930008C1930008C193000810
:10008000C1930008C1930008C1930008C193000800
:10009000C1930008C1930008C1930008C1930008F0
:1000A000C1930008C1930008C1930008C1930008E0
:1000B000C1930008C1930008C1930008C1930008D0
:1000C000C1930008C1930008C1930008C1930008C0
:1000D000C1930008C1930008C1930008C1930008B0
:1000E000C1930008C1930008C1930008C1930008A0
:1000F000C1930008C1930008C1930008C193000890
:0C010000C1930008C1930008C1930008DF
:1001400030B490F800F020F007016FF0000C10F0D0
:10015000070491F820F040F048804FF000046FF061
:100160000700D1E9002391F840F000F1080082FA7D
:100170004CF2A4FA8CF283FA4CF3A2FA8CF34BBB48
:10018000D1E9022382FA4CF200F10800A4FA8CF2C1
:1001900083FA4CF3A2FA8CF3E3B9D1E9042382FA8F
:1001A0004CF200F10800A4FA8CF283FA4CF3A2FAA4
:1001B0008CF37BB9D1E9062301F1200182FA4CF2DC
:1001C00000F10800A4FA8CF283FA4CF3A2FA8CF343
:1001D000002BC6D0002A04BF04301A4612BAB2FA65
:1001E00082F200EBD20030BC7047D1E9002304F06A
:1001F0000305C4F100004FEAC50514F0040F91F89F
:1002000040F00CFA05F562EA05021CBF63EA05033B
:1002100062464FF00004AAE7844641EA000313F067
:1002200003036DD1403A41D351F8043B40F8043BFD
:1002300051F8043B40F8043B51F8043B40F8043BC0
:1002400051F8043B40F8043B51F8043B40F8043BB0
:1002500051F8043B40F8043B51F8043B40F8043BA0
:1002600051F8043B40F8043B51F8043B40F8043B90
:1002700051F8043B40F8043B51F8043B40F8043B80
:1002800051F8043B40F8043B51F8043B40F8043B70
:1002900051F8043B40F8043B51F8043B40F8043B60
:1002A00051F8043B40F8043B403ABDD2303211D300
:1002B00051F8043B40F8043B51F8043B40F8043B40
:1002C00051F8043B40F8043B51F8043B40F8043B30
:1002D000103AEDD20C3205D351F8043B40F8043B00
:1002E000043AF9D2043208D0D2071CBF11F8013BFE
:1002F00000F8013B01D30B8803806046704700BFC4
:10030000082A13D38B078DD010F003038AD0C3F1D2
:100310000403D21ADB071CBF11F8013B00F8013BB4
:1003200080D331F8023B20F8023B7BE7043AD9D373
:10033000013A11F8013B00F8013BF9D20B78037048
:100340004B7843708B7883706046704781F0004132
:1003500002E000BF83F0004330B54FEA41044FEAAA
:10036000430594EA050F08BF90EA020F1FBF54EA45
:10037000000C55EA020C7FEA645C7FEA655C00F0E1
:10038000E2804FEA5454D4EB5555B8BF6D420CDDB2
:100390002C4480EA020281EA030382EA000083EA35
:1003A000010180EA020281EA0303362D88BF30BDD5
:1003B00011F0004F4FEA01314FF4801C4CEA11312B
:1003C00002D0404261EB410113F0004F4FEA03338A
:1003D0004CEA133302D0524263EB430394EA050F15
:1003E00000F0A780A4F10104D5F1200E0DDB02FA84
:1003F0000EFC22FA05F2801841F1000103FA0EF218
:10040000801843FA05F359410EE0A5F120050EF1DD
:10041000200E012A03FA0EFC28BF4CF0020C43FA0E
:1004200005F3C01851EBE37101F0004507D54FF01B
:10043000000EDCF1000C7EEB00006EEB0101B1F56B
:10044000801F1BD3B1F5001F0CD349085FEA3000B1
:100450004FEA3C0C04F101044FEA445212F5800FBC
:1004600080F09A80BCF1004F08BF5FEA500C50F159
:10047000000041EB045141EA050130BD5FEA4C0C3C
:10048000404141EB0101013C28BFB1F5801FE9D299
:1004900091F0000F04BF01460020B1FA81F308BFBC
:1004A0002033A3F10B03B3F120020CDA0C3208DD88
:1004B00002F1140CC2F10C0201FA0CF021FA02F163
:1004C0000CE002F11402D8BFC2F1200C01FA02F1D3
:1004D00020FA0CFCDCBF41EA0C019040E41AA2BFF8
:1004E00001EB0451294330BD6FEA04041F3C1CDAC0
:1004F0000C340EDC04F11404C4F1200220FA04F0E0
:1005000001FA02F340EA030021FA04F345EA030189
:1005100030BDC4F10C04C4F1200220FA02F001FA4B
:1005200004F340EA0300294630BD21FA04F02946CD
:1005300030BD94F0000F83F4801306BF81F4801166
:100540000134013D4EE77FEA645C18BF7FEA655CD9
:1005500029D094EA050F08BF90EA020F05D054EAAB
:10056000000C04BF1946104630BD91EA030F1EBFB0
:100570000021002030BD5FEA545C05D140004941B4
:1005800028BF41F0004130BD14F580043CBF01F5A7
:10059000801130BD01F0004545F0FE4141F470018D
:1005A0004FF0000030BD7FEA645C1ABF1946104668
:1005B0007FEA655C1CBF0B46024650EA013406BF69
:1005C00052EA033591EA030F41F4002130BD00BF28
:1005D00090F0000F04BF0021704730B54FF48064E5
:1005E00004F132044FF000054FF0000150E700BF66
:1005F00090F0000F04BF0021704730B54FF48064C5
:1006000004F1320410F0004548BF40424FF00001B1
:100610003EE700BF42004FEAE2014FEA31014FEAF4
:1006200002701FBF12F07F4393F07F4F81F0605143
:10063000704732F07F4208BF704793F07F4F04BF8E
:1006400041F40021704730B54FF4607401F000456B
:1006500021F000411CE700BF50EA010208BF7047CB
:1006600030B54FF000050AE050EA010208BF7047BC
:1006700030B511F0004502D5404261EB41014FF425
:10068000806404F132045FEA915C3FF4D8AE4FF02D
:1006900003025FEADC0C18BF03325FEADC0C18BF10
:1006A000033202EBDC02C2F1200300FA03FC20FA61
:1006B00002F001FA03FE40EA0E0021FA02F11444AE
:1006C000BDE600BF70B54FF0FF0C4CF4E06C1CEAC7
:1006D00011541DBF1CEA135594EA0C0F95EA0C0F38
:1006E00000F0DEF82C4481EA030621EA4C5123EAAB
:1006F0004C5350EA013518BF52EA033541F48011DA
:1007000043F4801338D0A0FB02CE4FF00005E1FB8C
:1007100002E506F00042E0FB03E54FF00006E1FBD6
:1007200003569CF0000F18BF4EF0010EA4F1FF0419
:10073000B6F5007F64F5407404D25FEA4E0E6D4159
:1007400046EB060642EAC62141EA55514FEAC5206A
:1007500040EA5E504FEACE2EB4F1FD0C88BFBCF5E6
:10076000E06F1ED8BEF1004F08BF5FEA500E50F197
:10077000000041EB045170BD06F0004646EA01015D
:1007800040EA020081EA0301B4EB5C04C2BFD4EB8F
:100790000C0541EA045170BD41F480114FF0000E88
:1007A000013C00F3AB8014F1360FDEBF002001F0F6
:1007B000004170BDC4F10004203C35DA0C341BDC70
:1007C00004F11404C4F1200500FA05F320FA04F042
:1007D00001FA05F240EA020001F0004221F0004176
:1007E00010EBD37021FA04F642EB06015EEA430EE9
:1007F00008BF20EAD37070BDC4F10C04C4F1200519
:1008000000FA04F320FA05F001FA04F240EA0200CB
:1008100001F0004110EBD37041F100015EEA430E9C
:1008200008BF20EAD37070BDC4F1200500FA05F2BC
:100830004EEA020E20FA04F301FA05F243EA02033B
:1008400021FA04F001F0004121FA04F220EA02004A
:1008500000EBD3705EEA430E08BF20EAD37070BD90
:1008600094F0000F0FD101F00046400041EB010170
:1008700011F4801F08BF013CF7D041EA060195F052
:10088000000F18BF704703F00046520043EB03030C
:1008900013F4801F08BF013DF7D043EA06037047F9
:1008A00094EA0C0F0CEA135518BF95EA0C0F0CD004
:1008B00050EA410618BF52EA4306D1D181EA03014A
:1008C00001F000414FF0000070BD50EA410606BF44
:1008D0001046194652EA430619D094EA0C0F02D189
:1008E00050EA013613D195EA0C0F05D152EA0336CE
:1008F0001CBF104619460AD181EA030101F00041EC
:1009000041F0FE4141F470014FF0000070BD41F034
:10091000FE4141F4780170BD70B54FF0FF0C4CF40E
:10092000E06C1CEA11541DBF1CEA135594EA0C0F2D
:1009300095EA0C0F00F0A7F8A4EB050481EA030E7A
:1009400052EA03354FEA013100F088804FEA033361
:100950004FF0805545EA131343EA12634FEA02222F
:1009600045EA111545EA10654FEA00260EF00041F0
:100970009D4208BF964244F1FD0404F5407402D242
:100980005B084FEA3202B61A65EB03055B084FEAD3
:1009900032024FF480104FF4002CB6EB020E75EBD0
:1009A000030E22BFB61A754640EA0C005B084FEAF8
:1009B0003202B6EB020E75EB030E22BFB61A754675
:1009C00040EA5C005B084FEA3202B6EB020E75EBC0
:1009D000030E22BFB61A754640EA9C005B084FEA38
:1009E0003202B6EB020E75EB030E22BFB61A754645
:1009F00040EADC0055EA060E18D04FEA051545EA34
:100A000016754FEA06164FEAC30343EA52734FEADC
:100A1000C2025FEA1C1CC0D111F4801F0BD141EA55
:100A200000014FF000004FF0004CB6E711F4801FBA
:100A300004BF01430020B4F1FD0C88BFBCF5E06F9A
:100A40003FF6AFAEB5EB030C04BFB6EB020C5FEAAA
:100A5000500C50F1000041EB045170BD0EF0004EFF
:100A60004EEA113114EB5C04C2BFD4EB0C0541EA31
:100A7000045170BD41F480114FF0000E013C90E62E
:100A800045EA060E8DE60CEA135594EA0C0F08BFF2
:100A900095EA0C0F3FF43BAF94EA0C0F0AD150EAF1
:100AA00001347FF434AF95EA0C0F7FF425AF104684
:100AB00019462CE795EA0C0F06D152EA03353FF4AC
:100AC000FDAE1046194622E750EA410618BF52EA29
:100AD00043067FF4C5AE50EA41047FF40DAF52EAFD
:100AE00043057FF4EBAE12E74FEA4102B2F1E04377
:100AF00024BFB3F5001CDCF1FE5C0DD901F0004C05
:100B00004FEAC0024CEA5070B2F1004F40EB830054
:100B100008BF20F00100704711F0804F21D113F180
:100B20003872BCBF01F00040704741F480114FEAB9
:100B30005252C2F11802C2F1200C10FA0CF320FA42
:100B400002F018BF40F001004FEAC1234FEAD3235F
:100B500003FA0CFC40EA0C0023FA02F34FEA4303C9
:100B6000CCE77FEA625307D150EA01331EBF4FF052
:100B7000FE4040F44000704701F0004040F0FE406D
:100B800040F40000704700BF80F0004002E000BF6A
:100B900081F0004142001FBF5FEA410392EA030F68
:100BA0007FEA226C7FEA236C6AD04FEA1262D2EBB2
:100BB0001363C1BFD218414048404140B8BF5B42B7
:100BC000192B88BF704710F0004F40F4000020F050
:100BD0007F4018BF404211F0004F41F4000121F066
:100BE0007F4118BF494292EA030F3FD0A2F10102B0
:100BF00041FA03FC10EB0C00C3F1200301FA03F1EE
:100C000000F0004302D5494260EB4000B0F5000F10
:100C100013D3B0F1807F06D340084FEA310102F1CF
:100C20000102FE2A51D2B1F1004F40EBC25008BF81
:100C300020F0010040EA03007047490040EB00004B
:100C4000013A28BFB0F5000FEDD2B0FA80FCACF14C
:100C5000080CB2EB0C0200FA0CF0AABF00EBC25079
:100C600052421843BCBFD0401843704792F0000F67
:100C700081F4000106BF80F400000132013BB5E7BA
:100C80004FEA41037FEA226C18BF7FEA236C21D030
:100C900092EA030F04D092F0000F08BF0846704795
:100CA00090EA010F1CBF0020704712F07F4F04D163
:100CB000400028BF40F00040704712F100723CBF76
:100CC00000F50000704700F0004343F0FE4040F4A0
:100CD000000070477FEA226216BF08467FEA23635E
:100CE0000146420206BF5FEA412390EA010F40F449
:100CF000800070474FF0000304E000BF10F0004395
:100D000048BF40425FEA000C08BF704743F096437B
:100D100001464FF000001CE050EA010208BF704796
:100D20004FF000030AE000BF50EA010208BF70471D
:100D300011F0004302D5404261EB41015FEA010C32
:100D400002BF84460146002043F0B64308BFA3F12A
:100D50008053A3F50003BCFA8CF2083AA3EBC2530C
:100D600010DB01FA02FC634400FA02FCC2F120022B
:100D7000BCF1004F20FA02F243EB020008BF20F062
:100D80000100704702F1200201FA02FCC2F12002C8
:100D900050EA4C0021FA02F243EB020008BF20EABD
:100DA000DC7070474FF0FF0C1CEAD0521EBF1CEAEB
:100DB000D15392EA0C0F93EA0C0F6FD01A4480EAD9
:100DC000010C400218BF5FEA41211ED04FF00063C2
:100DD00043EA501043EA5111A0FB01310CF00040EE
:100DE000B1F5000F3EBF490041EAD3715B0040EA14
:100DF000010062F17F02FD2A1DD8B3F1004F40EBE4
:100E0000C25008BF20F00100704790F0000F0CF0B6
:100E1000004C08BF49024CEA502040EA51207F3A7A
:100E2000C2BFD2F1FF0340EAC250704740F4000055
:100E30004FF00003013A5DDC12F1190FDCBF00F046
:100E400000407047C2F10002410021FA02F1C2F1F4
:100E5000200200FA02FC5FEA310040F1000053EA90
:100E60004C0308BF20EADC70704792F0000F00F0DE
:100E7000004C02BF400010F4000F013AF9D040EAE4
:100E80000C0093F0000F01F0004C02BF490011F478
:100E9000000F013BF9D041EA0C018FE70CEAD15376
:100EA00092EA0C0F18BF93EA0C0F0AD030F0004CF6
:100EB00018BF31F0004CD8D180EA010000F00040AA
:100EC000704790F0000F17BF90F0004F084691F068
:100ED000000F91F0004F14D092EA0C0F01D14202A2
:100EE0000FD193EA0C0F03D14B0218BF084608D16B
:100EF00080EA010000F0004040F0FE4040F40000B5
:100F0000704740F0FE4040F4400070474FF0FF0C47
:100F10001CEAD0521EBF1CEAD15392EA0C0F93EA8E
:100F20000C0F69D0A2EB030280EA010C49024FEAE0
:100F3000402037D04FF0805343EA111143EA101399
:100F40000CF000408B4238BF5B0042F17D024FF451
:100F5000000C8B4224BF5B1A40EA0C00B3EB510F2C
:100F600024BFA3EB510340EA5C00B3EB910F24BF15
:100F7000A3EB910340EA9C00B3EBD10F24BFA3EB9A
:100F8000D10340EADC001B0118BF5FEA1C1CE0D162
:100F9000FD2A3FF650AF8B4240EBC25008BF20F015
:100FA000010070470CF0004C4CEA50207F32C2BF69
:100FB000D2F1FF0340EAC250704740F400004FF006
:100FC0000003013A37E792F0000F00F0004C02BF37
:100FD000400010F4000F013AF9D040EA0C0093F001
:100FE000000F01F0004C02BF490011F4000F013B5B
:100FF000F9D041EA0C0195E70CEAD15392EA0C0FC3
:1010000008D142027FF47DAF93EA0C0F7FF470AFFA
:10101000084676E793EA0C0F04D14B023FF44CAF3D
:1010200008466EE730F0004C18BF31F0004CCAD1D2
:1010300030F000427FF45CAF31F000437FF43CAF0E
:101040005FE700BF4FF0FF3C06E000BF4FF0010C30
:1010500002E000BF4FF0010C4DF804CD4FEA400212
:101060004FEA41037FEA226C18BF7FEA236C11D05C
:1010700001B052EA530C18BF90EA010F58BFB2EB0F
:10108000030088BFC81738BF6FEAE17018BF40F08F
:10109000010070477FEA226C02D15FEA402C05D143
:1010A0007FEA236CE4D15FEA412CE1D05DF8040BC8
:1010B000704700BF844608466146FFE70FB5FFF75B
:1010C000C9FF002848BF10F1000F0FBD4DF808ED13
:1010D000FFF7F4FF0CBF012000205DF808FB00BF04
:1010E0004DF808EDFFF7EAFF34BF012000205DF85E
:1010F00008FB00BF4DF808EDFFF7E0FF94BF0120AB
:1011000000205DF808FB00BF4DF808EDFFF7D2FFA7
:1011100094BF012000205DF808FB00BF4DF808EDEA
:10112000FFF7C8FF34BF012000205DF808FB00BFB7
:101130004FEA4002B2F1FE4F0FD34FF09E03B3EBE4
:1011400012620DD94FEA002343F0004310F0004F24
:1011500023FA02F018BF404270474FF0000070477A
:1011600012F1610F01D1420205D110F0004008BF19
:101170006FF0004070474FF00000704742000ED201
:10118000B2F1FE4F0BD34FF09E03B3EB126209D4C2
:101190004FEA002343F0004323FA02F070474FF078
:1011A0000000704712F1610F01D1420202D14FF0ED
:1011B000FF3070474FF00000704700BF7BB972B935
:1011C0000029BEBF00204FF0004106E008BF002804
:1011D0001CBF6FF000414FF0FF3000F057B8ADF189
:1011E000080C6DE904CE002909DB002B1ADB00F0A6
:1011F0004FF8DDF804E0DDE9022304B07047404217
:1012000061EB4101002B1BDB00F042F8DDF804E04C
:10121000DDE9022304B0404261EB4101524263EB3D
:1012200043037047524263EB430300F031F8DDF8AB
:1012300004E0DDE9022304B0404261EB4101704764
:10124000524263EB430300F023F8DDF804E0DDE9EC
:10125000022304B0524263EB4303704753B94AB9C7
:10126000002908BF00281CBF4FF0FF314FF0FF30AE
:1012700000F00CB8ADF1080C6DE904CE00F008F8F0
:10128000DDF804E0DDE9022304B07047704700BFD9
:101290002DE9F0478C468E46089E154604461946B1
:1012A000002B40F0D080724547D9B2FA82F74FB197
:1012B000C7F120030EFA07FC20FA03F3BD4043EA0E
:1012C0000C0CBC404FEA154EA8B2BCFBFEF8230C38
:1012D0000EFB18CC08FB00F943EA0C43994528D9CA
:1012E000EB1808F1FF3204D2994502D9A8F10202A5
:1012F0002B44A3EB0903A4B2B3FBFEFC0EFB1C338F
:101300000CFB00F044EA0344A04214D92C190CF160
:10131000FF3304D2A04202D9ACF102032C44241AB8
:1013200043EA02401EB1FC40002334607360BDE814
:10133000F0874246DDE76346F1E7002A79D0B2FA4A
:1013400082F3002B3FD01946C1F1200302FA01F5C8
:101350002EFA03F20EFA01FE20FA03F343EA0E031B
:101360004FEA154E00FA01F4B2FBFEFCAFB20EFBE1
:101370001C201A0C0CFB07F842EA004290455AD98F
:10138000AA180CF1FF3004D2904502D9ACF102004A
:101390002A44A2EB08029BB2B2FBFEFC0EFB1C220D
:1013A0000CFB07F743EA02439F4246D9EB180CF1C6
:1013B000FF3204D29F4202D9ACF102022B44DB1B64
:1013C00042EA004202E0AEEB020301224FEA154E70
:1013D000AFB2B3FBFEFC200C0EFB1C330CFB07F87A
:1013E00040EA034398452AD9EB180CF1FF3004D2A8
:1013F000984502D9ACF102002B44A3EB0803A4B238
:10140000B3FBFEFC0EFB1C330CFB07F744EA034462
:10141000A74216D92C190CF1FF3304D2A74202D9E6
:10142000ACF102032C44E41B43EA00400F46114692
:1014300078E71F2188E76046ABE76246BFE7604672
:10144000DBE76346EFE7734506D916B90021084686
:101450006DE7C6E9000EF9E7B3FA83F787B973457C
:1014600001D3824207D8841A6EEB030301209C4605
:101470001EB900215BE73846FAE7C6E9004CF8E7F9
:10148000C7F1200CBB4022FA0CF51D4320FA0CF1E9
:101490002EFA0CF30EFA07FE41EA0E014FEA154947
:1014A00000FA07F4B3FBF9F81FFA85FE09FB1830C0
:1014B0000B0C08FB0EFA43EA00439A4502FA07F2C6
:1014C00040D9EB1808F1FF3004D29A4502D9A8F1AF
:1014D00002002B44A3EB0A0389B2B3FBF9F809FB22
:1014E000183308FB0EFE41EA03418E452CD96918DA
:1014F00008F1FF3304D28E4502D9A8F10203294432
:1015000043EA0040A0FB0298A1EB0E014145CE4604
:10151000434602D306D14C4504D2B9EB020E68EB28
:1015200005030138002EA4D0B4EB0E0261EB0301D9
:1015300001FA0CFC22FA07F34CEA0303F940C6E96E
:10154000003196E74046C5E74346D9E70000000072
:10155000F0B587B00446284B18686A46032101F0AD
:101560000FFE0546002840D1002C3ED00098FFF722
:101570003FF806460F460198FFF73AF81CA3D3E957
:101580000023FFF7C9F902460B4630463946FEF7FD
:10159000E3FEC4E900010298FFF72AF806460F4669
:1015A0000398FFF725F812A3D3E90023FFF7B4F956
:1015B00002460B4630463946FEF7CEFEC4E902012C
:1015C0000498FFF715F806460F460598FFF710F840
:1015D00007A3D3E90023FFF79FF902460B463046E5
:1015E0003946FEF7B9FEC4E90401284607B0F0BD4C
:1015F0000000000080842E41EC200020000000004C
:101600002DE9F04F87B082463F4B18686A460721A4
:1016100001F0B6FD8346002862D1BAF1000F5FD019
:101620000098FEF7E5FF04460D460198FEF7E0FF3F
:101630002DA3D3E90023FFF76FF902460B4620469E
:101640002946FEF789FE80468946CAE90089029844
:10165000FEF7CEFF04460D460398FEF7C9FF22A30E
:10166000D3E90023FFF758F902460B4620462946E6
:10167000FEF772FE06460F46CAE902670498FEF7B7
:10168000B7FF04460D460598FEF7B2FF16A3D3E94F
:101690000023FFF741F902460B4620462946FEF794
:1016A0005BFE04460D46CAE9044511A3D3E90023B5
:1016B00040464946FEF750FECAE900010EA3D3E9B1
:1016C000002330463946FEF747FECAE902010CA363
:1016D000D3E9002320462946FEF73EFECAE904016D
:1016E000584607B0BDE8F08F0000000080842E410E
:1016F0009A9999999999A93F7B14AE47E17A843FC9
:101700007B14AE47E17AA43FEC20002000000000EB
:101710002DE9F04F85B006460F461546984602AAB9
:1017200002F072FB00282FDB029CDDF80C90A5FB79
:1017300004AB05FB09BB1AA3D3E900235046594665
:10174000FFF78CFD05464FF0FF335345164B73EB07
:101750000B031CD3A8FB04A408FB094410A3D3E982
:10176000002350462146FFF779FD03464FF0FF3234
:1017700052450D4AA2410DD3BDF8382000922A46A9
:101780003946304602F082FB05B0BDE8F08F6FF0BD
:101790008500F9E76FF08500F6E700BFAFF3008042
:1017A00000CA9A3B00000000FFC99A3B08B50248F6
:1017B0000FF044F808BD00BFF803002010B54168E1
:1017C00050B18368164A934216D2164A934213D3F5
:1017D0001B6B13B3984710BD134C4FF46B73224629
:1017E0001249134814F0F5FB124814F0F2FB4FF4C1
:1017F0006B71204614F0E4FB0B4C4FF46B732246E4
:101800000D490B4814F0E5FB0C490D4814F0E1FBC1
:101810004FF46B71204614F0D3FB0868DBE700BF80
:10182000D4990108A0990108B89C0108EC9C010812
:10183000049D0108249D0108389D01088C9E010823
:10184000949E01082DE9F04791469846FFF7B6FFB0
:10185000054606461C4A002348464146FFF7FEFC63
:101860008A46044655B12A4600234FF0FF30002136
:10187000FFF7F4FCA04271EB0A0121D3A6FB04742C
:1018800005FB0A44104A002348464146FFF7E6FCA0
:101890001946A2FB06060C4A002305FB0161FFF76F
:1018A000DDFC3F1844EB010438464FF0FF33BB42E8
:1018B0004FF00003A34101D24FF0FF30BDE8F087A5
:1018C0004FF0FF30FAE700BF40420F0010B548B1BB
:1018D000836815498B4215D214498B4212D31B6879
:1018E000984710BD124C40F28A43224611491248D3
:1018F00014F06FFB114814F06CFB40F28A41204653
:1019000014F05EFB0A4C40F28A4322460C490A4816
:1019100014F05FFB0B490C4814F05BFB40F28A416A
:10192000204614F04DFB00BFD4990108A09901088E
:10193000B89C0108EC9C0108049D0108249D010845
:10194000389D01088C9E0108949E010810B580B155
:1019500003468268194882421BD21948824218D332
:101960000C6858684068844224D8D2691846904769
:1019700010BD144C40F22F5322461349134814F063
:1019800028FB134814F025FB40F22F51204614F099
:1019900017FB0C4C40F22F5322460E490B4814F013
:1019A00018FB0D490D4814F014FB40F22F5120464E
:1019B00014F006FB6FF01500DAE700BFD4990108B8
:1019C000A0990108B89C0108EC9C0108049D01083D
:1019D000249D0108389D01088C9E0108949E0108F1
:1019E00030B585B02048214B186017F051FB50B33B
:1019F0001E4D2868FFF7E2FE01461D4814F0D2FA9A
:101A000028684FF47A720023FFF71CFF0446014652
:101A1000184814F0C7FA0094174B0193002302935F
:101A200003932868FFF752FF044690B90F4B1868DC
:101A30006946FFF78BFF044680B9104814F0B2FAEC
:101A4000204605B030BD0E4814F0ACFA6FF0120419
:101A5000F6E701460B4814F0A5FAF1E701460A48FB
:101A600014F0A0FAECE700BFA09601085010002087
:101A7000C49E0108DC9E0108AD170008309F0108D4
:101A8000AC9E0108F09E01080C9F010808B508E013
:101A90000C4B18600C4BB3F90A100C4B186802F091
:101AA00063FB4FF0FF324FF0FF3309480EF034FF75
:101AB000002014F04AF917F065FC024B1B688342C2
:101AC000E6D1EEE7481000208021002028210020E8
:101AD000F80300202DE98048BDB0334B186800F0B2
:101AE00001FC324C0DAF022362680A21384601F036
:101AF000CDFB2F4D0DF14C080223AA690A21404667
:101B000001F0C4FB17F03EFCFFF7F4F82949FFF79A
:101B100049F9024616AE03230A21304601F0B6FB0E
:101B20000DF140090223E2680A21484601F0AEFBAC
:101B30000DF1640A02236A6A0A21504601F0A6FBED
:101B4000B4F908300A93B4F90A200B92D5F810B012
:101B5000237C1CACCDF820A00793CDF81890CDF8CD
:101B600014806869FFF7E4FA04905846FFF7E0FA3A
:101B7000039002970B9A01920A9B009333460E4AF8
:101B80008021204612F0B6FB2046FEF7D9FA024625
:101B900021460A4B186813F0ACFE00F0B1FB04209C
:101BA00013F0EBFB99E700BFB81000208021002064
:101BB000942100206F12833A589F01086418002076
:101BC00000B585B069460C4B186813F027FF02A9D1
:101BD0000A4B186813F022FF094C0198FFF78EF8A2
:101BE00020610398FFF78AF86061022014F0ADF8D5
:101BF000092013F0C2FBE5E70C210020F0200020B3
:101C00009421002010B502E0042013F0B6FB01F08F
:101C100007FB01F0E3FE012014F097F80D4CB4F936
:101C200008100D4B186802F09FFAB4F90A100B4B1C
:101C3000186802F099FA17F0A5FB094B1B6883425C
:101C4000E2D0074B1860B4F90A10044B186802F090
:101C50008BFAD9E7802100203421002028210020A0
:101C60004C100020D0B588B003F036FC00260027C9
:101C7000CDE906670024049402230393029401949F
:101C800000942C4B4FF404622B492C480FF070FD4C
:101C9000CDE906670494042303930294019400940D
:101CA000274B4FF48252274927480FF061FDCDE9B9
:101CB0000667049405230393029401940094234B34
:101CC0004FF40462224923480FF052FDCDE9066724
:101CD0000494062303930294019400941E4B4FF442
:101CE00088621E491E480FF043FDCDE90667049443
:101CF0000A2303930294019400941A4B4FF48862D0
:101D000019491A480FF034FDCDE9066704940B23F6
:101D10000393029401940094154B4FF48862154983
:101D200015480FF025FD4FF47A70002110F0DCFF0C
:101D3000F9E700BF8D1A0008C04D0020880600207A
:101D4000051C00084035002088050020C11B000844
:101D5000804500200806002097530108C02C002071
:101D600088040020D51A0008003100200805002052
:101D700089530108802800200804002008B50328A2
:101D800036D8DFE800F002101E33012906D00429FE
:101D90002ED11A4B1B680020984729E0174B1B686F
:101DA0000020984724E0012906D0042920D1134BB4
:101DB0001B68012098471BE0104B1B6801209847C7
:101DC00016E0012908D002290BD0032910D10B4BB2
:101DD0001B68052098470BE0084B1B6802209847BA
:101DE00006E0064B1B680420984701E0012900D05B
:101DF00008BD024B1B6803209847F9E754100020E8
:101E000008B5024802F038FB002008BDA0020020FF
:101E1000014B1860704700BF5410002090F8253027
:101E2000064AA2FB031202F0FC0101EB92029B1A8C
:101E3000DBB2034A52F82300704700BFCDCCCCCCB4
:101E400010EC010808B5054806F01AFC0448FFF735
:101E5000DFFF044B01221A70002008BD48970108DB
:101E6000092100084928002000B583B00B468DF8F1
:101E7000042000228DF80520024601A9024814F032
:101E8000B7FF03B05DF804FB489701082DE9F04166
:101E90000646384C0021204606F0E4FB00231A4693
:101EA0003168204614F0A4FF3469002302E064691D
:101EB0000133DBB2727E9A4201D9002CF7D1304651
:101EC00013F0EBFA8046002719E02B4600222A493E
:101ED000284814F08DFF25E0204613F063FA58B32C
:101EE0002B460E222549234814F082FF2B46202240
:101EF0002168204814F07CFF64690137FFB214B3F5
:101F0000022F20D83D01EDB21235EDB2737E3B4475
:101F1000DBB2327E9A42D8D02B46002218491548AF
:101F200014F066FF2369002BD6D02B460E221549EC
:101F3000104814F05DFFD9E72B460E2212490D48D8
:101F400014F056FFD2E7B8F1030F05D9737E2BB911
:101F5000737E0333434507DBBDE8F0815E22122127
:101F60007820FFF781FFF3E7762232217820FFF710
:101F70007BFFF1E748970108849F0108909F0108C3
:101F8000889F01088C9F0108949F01082DE9F04764
:101F900082B08046894617461D4600211046FFF74D
:101FA0009FF840B9BA465046FFF7C2F806464FF0D0
:101FB000000C012407E007F1004AF4E704EB840475
:101FC00064000CF1010CAC45F8DB3046FEF796FEE0
:101FD00001465046FEF7DCFD82462046FEF78EFEA7
:101FE00001465046FEF7DEFE4FF07C51FEF7D2FD73
:101FF000FFF79EF88246844202DC0136A0EB040A19
:1020000000213846FFF76CF858B9CDF804A00095C8
:102010003346094A4946404612F06CF902B0BDE821
:10202000F087CDF804A000953346044A494640465F
:1020300012F060F9F2E700BFA49F0108989F010821
:10204000F8B50C46154690F8243043B9C26932B150
:102050001368154A2946204612F04CF906E0012B78
:1020600005D02D23237063700023A370F8BD036A8D
:10207000002BF6D01E683046FFF75AF80746FEF7E9
:102080003DFE3146FFF722F830B13B46064A29466D
:10209000204612F02FF9E9E702233246294620466E
:1020A000FFF774FFE2E700BFAC9F010810B40446DD
:1020B00008460A600B71019B8B60CC6000230B61AA
:1020C0004B610B764B76CB610B6281F82430012299
:1020D00081F825208B62CB621B600B6A00221A609C
:1020E00034B123694BB11A465B69002BFBD15061B7
:1020F000044B1B681BB110BC70472161F8E7014B12
:102100001860F8E77810002010B5704B1C68002CA0
:1021100000F0D380052800F2D080DFE810F0340012
:10212000060062009100B300CA00694B1B781BB126
:10213000204613F037F9F8B92369002B00F0BD8071
:10214000204613F0AAF9002800F0B780237E01335F
:1021500093FBF0F100FB1133DBB22376627E023297
:102160009A4201DA9A1E6276627E934200D26376C8
:10217000584B01221A70A0E0204613F059F9554B34
:1021800001221A7099E0524B1B781BB1204613F0C4
:1021900009F9E0B92369002B00F08F80204613F085
:1021A0007CF9002800F08980237EBBB9421ED3B29F
:1021B0002376627E9A4200D96376627E02329A4228
:1021C00001DA023B6376434B01221A7075E0204628
:1021D00013F0F9F83F4B01221A706EE0013BDBB2BD
:1021E000E6E72269F2B1002302E052690133DBB273
:1021F000217E994201D9002AF7D1002A5DD0364BC1
:102200001B68062B05DC013333490B60334941F869
:1022100023402E4B1A602E4B00221A702D4B0122A8
:102220001A704AE0204613F0BDF8002845D0284A2D
:10223000137883F001031370264B01221A703CE0DF
:10224000234B1B7833B1224B00221A70214B012201
:102250001A7032E0204B1B68002B0BDB591E1E4A04
:1022600011601E4A52F82320184B1A60194B0122A4
:102270001A7022E0E36803B3144A1360154B01227D
:102280001A701AE0124B1B78BBB1204613F08AF883
:1022900098B194F825200132114B83FB02135B1097
:1022A00003EB8303D31A84F825300A4B01221A70FA
:1022B00003E0204613F076F800B910BD204613F075
:1022C000F5F8044B01221A70F7E700BF78100020E0
:1022D0004828002049280020AC0200205810002087
:1022E0006766666618B1044A1268824200D0704779
:1022F000024B01221A70FAE77810002049280020CA
:102300003F4B1B78002B7AD03E4B1B68002B76D0BE
:1023100030B58BB000213A4B19703B4806F08AF972
:10232000384B1868036933B1FFF7B0FD364806F043
:1023300023F90BB030BD8368002B3ED09847314B5A
:10234000186813F02FF80028F0D02F4C00212046F9
:1023500006F088F905AD142229462A4B1868FFF7C4
:102360006FFE302300222946204614F041FD274B02
:102370001B78002B3CD0234B1868FFF74FFD044619
:10238000FEF7D6FE0546FEF7B9FC2146FEF79EFE97
:1023900008B32B461E4A0C2102A811F0ABFF1A4CC1
:1023A00030233C2202A9204614F022FD302364226F
:1023B0001849204614F01CFDB8E7134C00212046B4
:1023C00006F050F90F4B19681823002209682046BF
:1023D00014F00EFDB3E70223224608216846FFF7FA
:1023E000D5FD6B460C4A0C2102A811F083FFD6E7FD
:1023F000302348220949044814F0FAFC96E7704754
:10240000492800207810002048970108482800201B
:10241000B09F0108C09F0108B89F0108C89F01082C
:1024200070B582B0224D002400942346214A2946EB
:102430002046FFF73BFE204E009423461F4A3146BC
:102440002846FFF733FE1E4B009301231D4A1E4909
:102450002846FFF72BFE1D4B18601D4B00930123F0
:102460001C4A1D492846FFF721FE1C4B18601C4BD7
:10247000009301231B4A1C493046FFF717FE1B4BF4
:1024800018601B4D1B4B009301231B4A2946304605
:10249000FFF70CFE194BEB6185F824406FF0310219
:1024A000AA623222EA622C631C60204602B070BD30
:1024B000A0110020D09F010868110020D89F0108BA
:1024C000A5260008E49F0108F8100020F410002061
:1024D00021260008EC9F0108BC100020B810002045
:1024E0005D250008F49F0108801000207C1000206A
:1024F0003011002001250008FC9F0108D8110020A0
:1025000030B585B00446134D0121284606F0AAF8DF
:1025100000231A462168284614F06AFC0021284648
:1025200006F0A0F8E36923B11868FEF7E7FB0A4B51
:10253000986101AC0223084A92690A21204600F002
:10254000A5FE1E2314222146024814F051FC05B0BA
:1025500030BD00BF489701089421002070B58CB0B1
:102560000446284D0121284606F07CF800231A462F
:102570002168284614F03CFC0021284606F072F839
:1025800002A9002602964E60009601961E4B18681E
:1025900013F044FA69461D4B186813F03FFA04AC77
:1025A000039B1B4A2021204611F0A4FE142332462F
:1025B0002146284614F01CFC029B164A2021204686
:1025C00011F098FE142340222146284614F010FCF6
:1025D000019B114A2021204611F08CFE1E23324619
:1025E0002146284614F004FC009B0C4A202120467A
:1025F00011F080FE1E2340222146284614F0F8FBED
:102600000CB070BD489701080C210020F02000207C
:1026100004A001080CA0010814A001081CA00108D6
:10262000F0B58DB005461B4C0121204606F01AF886
:1026300000231A462968204614F0DAFB00212046C0
:1026400006F010F8144F08AE02237A6810213046C5
:1026500000F01CFE3346114A2021684611F04AFE64
:10266000142300226946204614F0C2FB02233A6874
:102670001021304600F00AFE3346094A2021684600
:1026800011F038FE142340226946204614F0B0FBB6
:102690000DB0F0BD489701088021002024A001085A
:1026A00030A001082DE9F04192B00446504F0021BE
:1026B000384605F0D7FF00231A462168384614F043
:1026C00097FB0026009601960296039604960596BF
:1026D0006846FEF73DFFDDE90001FEF705FA024618
:1026E0000EAD02231021284600F0D0FD06AC2B468B
:1026F000404A2021204611F0FDFD0A2332462146A2
:10270000384614F075FBDDE90201FEF7EDF90246EB
:1027100002231021284600F0B9FD2B46364A20211D
:10272000204611F0E7FD0A2340222146384614F0E6
:102730005FFBDDE90401FEF7D7F902460223102111
:10274000284600F0A3FD2B462C4A2021204611F0FC
:10275000D1FD142332462146384614F049FB684621
:10276000FEF74EFFDDE90001FEF7BEF90246022347
:102770001021284600F08AFD2B46214A20212046C0
:1027800011F0B8FD142340222146384614F030FBE6
:10279000DDE90201FEF7A8F90246022310212846CE
:1027A00000F074FD2B46174A2021204611F0A2FDAF
:1027B0001E2332462146384614F01AFBDDE9040197
:1027C000FEF792F9024602231021284600F05EFD32
:1027D0002B460D4A2021204611F08CFD1E2340225D
:1027E0002146384614F004FB12B0BDE8F08100BF6A
:1027F0004897010838A0010840A0010848A0010836
:1028000050A0010858A0010860A00108034668B163
:1028100079B1106880B1906888B159609A600020E1
:10282000187398735873074A1A6070474FF0FF3057
:1028300070474FF0FF3070474FF0FF3070474FF058
:10284000FF30704750F4010808B5064A06490748AA
:10285000FFF7DCFF18B9064B044A1A6008BD4FF0B9
:10286000FF30FBE780F40108E01100203C18002055
:10287000DC11002010B5064C00221146206813F030
:1028800003F814220121206812F0FEFF002010BD81
:10289000DC11002010B558B1024683681548834208
:1028A00016D21548834213D35B691046984710BD72
:1028B000124C40F24C6322461149124813F089FB36
:1028C000114813F086FB40F24C61204613F078FB70
:1028D0000A4C40F24C6322460C490A4813F079FB3B
:1028E0000B490C4813F075FB40F24C61204613F085
:1028F00067FB00BF209A0108FC99010868A0010845
:102900009CA00108049D0108249D0108B0A00108B5
:10291000F0A10108949E010810B543681A680123CC
:1029200003FA01F10A4202D0FFF7B4FF10BD084CD0
:1029300040F24D7322460749074813F04AFB074807
:1029400013F047FB40F24D71204613F039FB00BFF6
:1029500068A00108F8A10108049D010838A2010837
:10296000C2788B1F9A425CD110B582B00446002316
:102970001A469E4608E014F803C0F4445FFA8CFE41
:102980007244D2B20133DBB2881E8342F3DB235C94
:10299000734518D10139635C934214D1A37873B99C
:1029A000ADF804308DF80630237963B9637953B9F3
:1029B000A37943B91B4B186812F08AFF03E0E02BA0
:1029C00003D0032B12D002B010BD01A90023ADF833
:1029D00004308B70A3788DF804308DF805E08DF805
:1029E0000620104B186812F03EFFECE708210E4855
:1029F000FFF792FF6068FDF7FBFD00220B4BFDF730
:102A00008BFFFEF771F80A4B1860E068FDF7F0FDE8
:102A10000022064BFDF780FFFEF766F8054B1860B5
:102A2000D1E77047DC1100204C96010800408F4030
:102A3000CC020020D002002070B582B00C461546B2
:102A400038B101281BD10B785A1C0A700122EA54B4
:102A500015E001AE0023ADF804308DF806303146A4
:102A6000084B186812F023FF2378EA18BDF8040019
:102A70009DF80610E852917023780333237002B05A
:102A800070BD00BFDC11002008B50A460146024BAC
:102A9000186812F02EFF08BD6418002010B550B160
:102AA000836815498B4216D214498B4213D31B6C91
:102AB00003B1984710BD124C40F25B1322461149F6
:102AC000114813F086FA114813F083FA40F25B11B3
:102AD000204613F075FA0A4C40F25B1322460C496B
:102AE000094813F076FA0B490B4813F072FA40F2DA
:102AF0005B11204613F064FA3C9B0108D89A010848
:102B00004CA20108EC9C0108049D0108249D0108C9
:102B10008CA2010820B70108949E010810B550B19D
:102B2000836815498B4216D214498B4213D35B6BD1
:102B300003B1984710BD124C40F23113224611499F
:102B4000114813F046FA114813F043FA40F23111DC
:102B5000204613F035FA0A4C40F2311322460C4954
:102B6000094813F036FA0B490B4813F032FA40F2D9
:102B70003111204613F024FA3C9B0108D89A010831
:102B80004CA20108EC9C0108049D0108249D010849
:102B90008CA2010820B70108949E010810B550B11D
:102BA000836815498B4216D214498B4213D3DB6DCF
:102BB00003B1984710BD124C4FF4DE732246114901
:102BC000114813F006FA114813F003FA4FF4DE71BE
:102BD000204613F0F5F90A4C4FF4DE7322460C49F7
:102BE000094813F0F6F90B490B4813F0F2F94FF4CA
:102BF000DE71204613F0E4F93C9B0108D89A0108E5
:102C00004CA20108EC9C0108049D0108249D0108C8
:102C10008CA2010820B70108949E010810B550B19C
:102C2000836817498B4216D216498B4213D3DB6B4C
:102C300013B3984710BD144C40F24B13224613496E
:102C4000134813F0C6F9134813F0C3F940F24B11BF
:102C5000204613F0B5F90C4C40F24B1322460E49B6
:102C60000B4813F0B6F90D490D4813F0B2F940F2D4
:102C70004B11204613F0A4F96FF05700DAE700BFBC
:102C80003C9B0108D89A01084CA20108EC9C010861
:102C9000049D0108249D01088CA2010820B70108A9
:102CA000949E010810B560B184468368154883423C
:102CB00015D21548834212D3DB6AFBB160469847B0
:102CC00010BD124CE92322461149124813F081F934
:102CD000114813F07EF9E921204613F071F90B4CED
:102CE000E92322460D490B4813F073F90C490D48AE
:102CF00013F06FF9E921204613F062F96FF05700E5
:102D0000DEE700BF3C9B0108D89A01084CA20108ED
:102D1000EC9C0108049D0108249D01088CA2010877
:102D200020B70108949E010810B550B18368154979
:102D30008B4216D214498B4213D39B6B03B1984735
:102D400010BD124C4FF49F7322461149114813F0E5
:102D500040F9114813F03DF94FF49F71204613F0EC
:102D60002FF90A4C4FF49F7322460C49094813F07F
:102D700030F90B490B4813F02CF94FF49F712046A2
:102D800013F01EF93C9B0108D89A01084CA20108D7
:102D9000EC9C0108049D0108249D01088CA20108F7
:102DA00020B70108949E010810B550B183681749F7
:102DB0008B4216D216498B4213D3DB6C13B3984760
:102DC00010BD144C4FF4C27322461349134813F03C
:102DD00000F9134813F0FDF84FF4C271204613F0C8
:102DE000EFF80C4C4FF4C27322460E490B4813F017
:102DF000F0F80D490D4813F0ECF84FF4C27120467D
:102E000013F0DEF86FF05700DAE700BF3C9B0108D3
:102E1000D89A01084CA20108EC9C0108049D010805
:102E2000249D01088CA2010820B70108949E010886
:102E300010B560B1844683681748834217D217489B
:102E4000834214D31B6B1BB36046984710BD144CD0
:102E500040F20D1322461349134813F0BAF81348F1
:102E600013F0B7F840F20D11204613F0A9F80C4CFE
:102E700040F20D1322460E490B4813F0AAF80D49F3
:102E80000D4813F0A6F840F20D11204613F098F803
:102E90006FF05700DAE700BF3C9B0108D89A0108A1
:102EA0004CA20108EC9C0108049D0108249D010826
:102EB0008CA2010820B70108949E010838B578B1AA
:102EC000B0FA80F464098368194DAB421BD2194DE6
:102ED000AB4218D3A3B11B6E33B39847204638BD1D
:102EE000154C4FF4E47322461449154813F071F859
:102EF000144813F06EF84FF4E471204613F060F8B4
:102F00006FF05704EAE70C4C4FF4E47322460E4985
:102F10000B4813F05EF80D490D4813F05AF84FF4C2
:102F2000E471204613F04CF86FF05704D6E700BF69
:102F30003C9B0108D89A01084CA20108EC9C0108AE
:102F4000049D0108249D01088CA2010820B70108F6
:102F5000949E010810B50C4641608260C360002356
:102F60000374044B0360024603492068FFF7A6FF81
:102F700010BD00BF98F401087B59010808B5164B35
:102F80001B68164A126816491648FFF7E3FF034606
:102F900008B1184608BD144B1B68144A126814493E
:102FA0001448FFF7D7FF03460028F2D10D48124B13
:102FB0001860124B0F4A1A604FF47A7112F0A4FC99
:102FC00003460028E5D14FF47A710C4B186812F0D3
:102FD0009BFC0346DDE700BFB41C0020B81C0020AA
:102FE000A4F40108681800207C1800208018002034
:102FF000A0F4010850180020641800204C1800208C
:10300000B1F5004F09D20161026000230381C38042
:103010008380C38183814381704710B5064CC323ED
:1030200022460649064812F0D4FF064812F0D1FFA6
:10303000C321204612F0C4FFCCA3010800A401085C
:10304000049D010818A4010810B5154C154B4FF448
:1030500000721549204612F0C7FC144B1C60144C3A
:10306000144B4FF400721449204612F0BDFC134B70
:103070001C60134C134B4FF400721349204612F09E
:10308000B3FC124B1C60124C124B4FF400721249ED
:10309000204612F0A9FC114B1C60002010BD00BF9F
:1030A000D420002050A40108BC1E0020B81C002021
:1030B000BC20002058A40108BC1C0020B41C002027
:1030C000841C002060A40108841800207C180020C3
:1030D0009C1C002068A40108841A0020801800208D
:1030E00008B50548054B186015F0D2FF08B100205F
:1030F00008BD6FF01200FBE7B8970108EC20002034
:1031000010B550B1836815498B4216D214498B42D1
:1031100013D3DB684E21984710BD124C40F2B733F1
:1031200022461149114812F054FF114812F051FF84
:1031300040F2B731204612F043FF0A4C40F2B73359
:1031400022460C49094812F044FF0B490B4812F083
:1031500040FF40F2B731204612F032FF889A010852
:10316000509A010870A40108EC9C0108049D010814
:10317000249D0108A4A40108F0A50108949E01085B
:1031800010B558B1844683681548834216D2154855
:10319000834213D31B696046984710BD124C40F21E
:1031A000F53322461149124812F013FF114812F06C
:1031B00010FF40F2F531204612F002FF0A4C40F2B7
:1031C000F53322460C490A4812F003FF0B490C481C
:1031D00012F0FFFE40F2F531204612F0F1FE00BF82
:1031E000889A0108509A010870A40108EC9C010813
:1031F000049D0108249D0108A4A40108F0A501086C
:10320000949E010808B5044B1868FFF76BF8034B50
:103210001868FFF775FF08BDF4100020EC200020AF
:1032200010B58CB0FFF7EEFF06A8002306934360AD
:103230008360C3600361436100930193029303932E
:1032400004930593FEF784F96846FEF7D9F9DDE9A2
:103250000001FDF749FC0C4CE061DDE90201FDF7DE
:1032600043FC2060DDE90601FDF73EFC6060DDE91E
:103270000801FDF739FCA060DDE90A01FDF734FC27
:10328000E0600CB010BD00BF94210020002800F0C9
:1032900086802DE9F04385B00F4691461C460646D0
:1032A00001297FD9062B00D9062400214846FDF7C5
:1032B00017FF60B9002500234FF001089C420CD98C
:1032C00008EB88084FEA48080133DBB2F6E72D2304
:1032D000337009F100490125EDE74046FDF70AFD8D
:1032E0004946FDF75FFD4FF07C51FDF753FCFDF7BC
:1032F00045FF0346B0FBF8F008FB103198451CD998
:1033000030238DF8003001225319BB424DD2531E99
:103310001DE02A4BA3FB00C3DB089C4603EB8303A1
:10332000A0EB4303303302F11000684400F8103C76
:10333000604601320028ECD1E6E70022FAE703F10B
:1033400010026A4412F8102C7255013B0135002B13
:10335000F5DAF4B1013FAF422AD92E237355631E2B
:10336000013510E002EB820252000CF1010C6345C2
:10337000F8DCB1FBF2F002FB1011AF421BD9303088
:103380007055013B0135002B03DB4FF0000C01228F
:10339000EDE700237355284605B0BDE8F0834FF0F4
:1033A000FF3070474FF0FF30F6E74FF0FF30F3E7A4
:1033B0004FF0FF30F0E74FF0FF30EDE7CDCCCCCC55
:1033C0002DE9F04F83B00191002800F086809146EE
:1033D0000446002900F08480002A00F084804FF029
:1033E000000853E0013422785AB1A2F12B03DBB27A
:1033F0000E2BF7D847F6ED7121FA03F313F0010F06
:10340000F0D0002A70D02D2A0DD02B2A0FD04FF0EB
:10341000010B2278A2F13003DBB2092B3BD92E2A13
:1034200034D1013432E001344FF0FF3BF1E7013495
:103430004FF0010BEDE705EB8505303B03EB450550
:1034400001342378A3F13002D2B2092AF3D92E2B0A
:1034500023D04FF07E5700262846FDF74FFC054647
:1034600039463046FDF752FD01462846FDF792FBEE
:1034700005465846FDF742FC2946FDF793FC08F146
:103480000103019A42F828005FFA83F823785BB3BE
:10349000C845A8D328E00025D3E701344FF07E5774
:1034A000002694F800A0AAF13003DBB2092BD3D890
:1034B0000F493046FDF776FC0646AAF13000FDF7CD
:1034C0001DFC01463046FDF765FB064608493846B7
:1034D000FDF768FC07460134E3E74FF0000803E01E
:1034E0004FF0000800E09046404603B0BDE8F08F82
:1034F0000000204110B550B1836815498B4216D2A7
:1035000014498B4213D3DB684E21984710BD124CEF
:1035100040F2B73322461149114812F05AFD1148C2
:1035200012F057FD40F2B731204612F049FD0A4C27
:1035300040F2B73322460C49094812F04AFD0B49C4
:103540000B4812F046FD40F2B731204612F038FD2C
:10355000889A0108509A010870A40108EC9C01089F
:10356000049D0108249D0108A4A40108F0A50108F8
:10357000949E010810B558B184468368154883426B
:1035800016D21548834213D31B696046984710BD75
:10359000124C40F2F53322461149124812F019FD3F
:1035A000114812F016FD40F2F531204612F008FDE8
:1035B0000A4C40F2F53322460C490A4812F009FD44
:1035C0000B490C4812F005FD40F2F531204612F08F
:1035D000F7FC00BF889A0108509A010870A40108FE
:1035E000EC9C0108049D0108249D0108A4A4010885
:1035F000F0A50108949E0108B0B582B000AF154651
:1036000028B3044619B34160226015F0BBFEE060A8
:103610006C4600233B7102237B7188B0EC461CF1A1
:1036200010026AD00E2022B1042802DD4F4BCCF8E4
:10363000143000233B7002237B70002A6AD00828D4
:1036400001DDCCF818500CF11C03002160E06C4641
:1036500000233B7102237B7188B0EC461CF1100201
:1036600013D00E2022B1042802DD414BCCF81430D7
:1036700000233B7002237B70A2B1082801DDCCF847
:1036800018500CF11C0300210AE06FF00040E9E73C
:1036900001F108053D4415F8085C03F8015B0131B0
:1036A0000129F5D90D2825DD0E234AB103213971F1
:1036B00000217971B9710121F9717868CCF8100095
:1036C000002121F0010121F0020121F0040121F08B
:1036D0003801012060F38811C3F30A0363F3532117
:1036E000C1F313010023234804F0E6F9A5466FF067
:1036F000150035E06FF01B03D7E76FF0004092E74D
:1037000001F108053D4415F8085C03F8015B01313F
:103710000129F5D90D2826DD0E234AB1032139717F
:1037200000217971B9710121F9717868CCF8100024
:10373000002121F0010121F0020121F0040121F01A
:103740003801032060F38811C3F30A0363F35321A4
:10375000C1F313010023074804F0AEF9A546002089
:103760000837BD46B0BD6FF01B03D6E714A60108AD
:10377000F8A501086C9B010810B5094C094A0A49D3
:103780002046FFF739FF094A146000B110BD084C0C
:10379000084A09492046FFF72FFF084B1C60F5E750
:1037A000102100202CA60108B0F401080C210020F3
:1037B000F420002038A60108A8F40108F020002019
:1037C0002DE9F04184B000AF002800F0FA800446F3
:1037D00043681868FFF78EFE0546002859D0216817
:1037E0006E4600233B7102237B718AB06C4614F154
:1037F000100215D012201AB1042801DD724B63614A
:1038000000233B7002237B70BAB10346082800DD19
:10381000A1610C2B00DDE56104F1200300210AE029
:103820006FF00040E7E701F1100CBC441CF810CC2D
:1038300003F801CB01310129F5D9112826DD122326
:1038400042B10421397100217971B9710121F971F5
:1038500078682061002121F0010121F0020121F0AE
:10386000040121F03801012060F38811C3F30A0339
:1038700063F35321C1F313010023544804F01CF9EE
:10388000B54628461037BD46BDE8F0816FF01B03F2
:10389000D6E76368186807F108024C21FFF76AFE53
:1038A0000546002855D021686E4600233B7102234F
:1038B0007B718AB06C4614F1100215D012201AB137
:1038C000042801DD424B636100233B7002237B70BF
:1038D000BAB10346082800DDA1610C2B00DDE561CB
:1038E00004F1200300210AE06FF00040E7E701F156
:1038F000100CBC441CF810CC03F801CB0131012999
:10390000F5D9112822DD122342B104213971002199
:103910007971B9710121F97178682061002121F074
:10392000010121F0020121F0040121F03801012000
:1039300060F38811C3F30A0363F35321C1F3130146
:103940000023224804F0B8F8B5469AE76FF01B034D
:10395000DAE715F017FD0246B968A368CB1A4EF6F0
:103960006020834224DDA3F57F43EB3BE668961B92
:103970006068007918B34FF0FF3003FB00F0236953
:1039800003442361A160E260002E3FF47AAFFDF7AB
:10399000B5F980463046FDF7ADF901464046FDF7E2
:1039A000B5FA0C49FDF7FEF9FDF7C2FB606168E767
:1039B00009488342DADA03F57F43FF33D6E7012073
:1039C000DBE76FF015055CE744A601086C9B010876
:1039D00068A6010800002041A015FFFF08B5064BAE
:1039E0001868FFF7EDFE054B1868FFF7E9FE044B7A
:1039F0001868FEF777FC08BD0C210020F02000209D
:103A00007C10002008B5024800F036FD002008BDFB
:103A1000B002002010B558B10246836815488342B1
:103A200016D21548834213D3DB681046984710BD61
:103A3000124C40F2F25322461149124812F0C9FAD0
:103A4000114812F0C6FA40F2F251204612F0B8FACC
:103A50000A4C40F2F25322460C490A4812F0B9FAD5
:103A60000B490C4812F0B5FA40F2F251204612F020
:103A7000A7FA00BF209A0108FC99010868A0010874
:103A80009CA00108049D0108249D0108B0A0010824
:103A9000F0A10108949E010810B558B10246836850
:103AA0001548834216D21548834213D31B6910462A
:103AB000984710BD124C40F21F632246114912482C
:103AC00012F087FA114812F084FA40F21F61204682
:103AD00012F076FA0A4C40F21F6322460C490A485B
:103AE00012F077FA0B490C4812F073FA40F21F619A
:103AF000204612F065FA00BF209A0108FC990108DF
:103B000068A001089CA00108049D0108249D0108EB
:103B1000B0A00108F0A10108949E010810B5436807
:103B20001C68012303FA01F10C4203D092B1FFF7A4
:103B300071FF10BD094C40F2F7632246084909485D
:103B400012F047FA084812F044FA40F2F7612046B2
:103B500012F036FAFFF7A0FFEBE700BF68A00108FC
:103B6000F8A10108049D010838A2010838B543688E
:103B700005691C6801238B401C4208D02C68234235
:103B800002D0B2FA82F25209FFF7C8FF38BD084CE2
:103B900040F2227322460749074812F01AFA0748F2
:103BA00012F017FA40F22271204612F009FA00BF13
:103BB00068A00108F8A10108049D010838A20108C5
:103BC00008B9022900D0704708B5064B93F82820A1
:103BD00082F0010283F8282008210348FFF7C6FF7E
:103BE00008BD00BF942100204C96010870B5002844
:103BF00042D01346864684686B4A94424CD26B4A44
:103C0000944249D34668006913F0FC6F55D103F024
:103C10003002302A61D0664A1A40664DAA426CD002
:103C200003F00602042A78D013F4402240F0828088
:103C3000B2F5402F00F0928013F4801F05D022B11E
:103C400013F0010F01D083F4402323F48012356870
:103C50004FF0010C0CFA01FC15EA0C0F00F08E80FD
:103C600013F0010F00F09A8003684CEA030303602D
:103C700023687046984770BD4F4C40F2534322462C
:103C80004E494F4812F0A5F94E4812F0A2F940F201
:103C90005341204612F094F9474C40F253432246D8
:103CA0004949474812F095F94849494812F091F9B5
:103CB00040F25341204612F083F93F4C40F25C43FE
:103CC000224644493E4812F084F9434812F081F9F3
:103CD00040F25C41204612F073F9374C40F25F43EA
:103CE00022463E49364812F074F93D4812F071F907
:103CF00040F25F41204612F063F92F4C40F26343DB
:103D0000224638492E4812F064F9374812F061F91A
:103D100040F26341204612F053F9274C40F26643CB
:103D200022463249264812F054F940F266412046B4
:103D300012F046F913F4003F7FF47AAF1E4C40F2C4
:103D4000694322462A491E4812F043F9294812F0D5
:103D500040F940F26941204612F032F9164C40F227
:103D60006D4322462449164812F033F9234812F0D5
:103D700030F940F26D41204612F022F90E4C40F22B
:103D8000794322461E490E4812F023F91D4812F0CD
:103D900020F940F27941204612F012F9036823EA33
:103DA0000C03036064E700BF209A0108FC99010836
:103DB000020003000200010068A001089CA00108A5
:103DC000049D0108249D0108B0A00108F0A101088C
:103DD000949E01088CA60108FCA6010820A70108F2
:103DE0005CA701089CA70108ECA701083CA80108F2
:103DF00070A80108C0A80108FCA801084CA9010886
:103E0000F8A1010838A2010810B558B184468368AA
:103E10001548834216D21548834213D35B68604627
:103E2000984710BD124C40F2822322461149124895
:103E300012F0CFF8114812F0CCF840F2822120465F
:103E400012F0BEF80A4C40F2822322460C490A487E
:103E500012F0BFF80B490C4812F0BBF840F2822177
:103E6000204612F0ADF800BF409A0108389A0108C8
:103E700078A90108EC9C0108049D0108249D010813
:103E8000A8A90108E0AA0108949E0108934231D82C
:103E900030B583B068B18468184DAC4219D2184D62
:103EA000AC4216D32468BDF818500095A04703B063
:103EB00030BD144C40F26E2322461349134812F0D1
:103EC00088F8134812F085F840F26E21204612F06F
:103ED00077F80C4C40F26E2322460E490B4812F044
:103EE00078F80D490D4812F074F840F26E21204622
:103EF00012F066F86FF01500704700BF409A010895
:103F0000389A010878A90108EC9C0108049D010871
:103F1000249D0108A8A90108E0AA0108949E0108AF
:103F20002DE9F04184B002AF002800F0D9800C46A2
:103F300015460646002900F0D680002A00F0D680FB
:103F4000086815F0A5F878B1746035604FF4B011C9
:103F500004F1080011F079FD0446002857D02046EE
:103F60000837BD46BDE8F0816E4600233B71022351
:103F70007B7188B002AC14F1100211D00E201AB17E
:103F8000042801DD5B4B636100233B7002237B70DF
:103F90009AB1082800DDA56104F11C0300210AE0A4
:103FA0006FF00040EBE701F108053D4415F8085CAF
:103FB00003F8015B01310129F5D90D2824DD0E2319
:103FC00042B10321397100217971B9710121F9716F
:103FD00078682061002121F0010121F0020121F027
:103FE000040121F03801012060F38811C3F30A03B2
:103FF00063F35321C1F3130100233F4803F05CFD39
:10400000B5466FF01204AAE76FF01B03D8E770689B
:104010004FF4B011103011F018FD044600289ED165
:104020007368186859684FF00008CDF8008043465F
:10403000324AFDF76DFB6E4687F8048002237B71E0
:1040400088B00DF1080C1CF1100213D00E2022B123
:10405000042802DD2A4BCCF8143000233B700223E5
:104060007B70A2B1082801DDCCF818500CF11C03BC
:1040700000210AE06FF00040E9E701F108053D4446
:1040800015F8085C03F8015B01310129F5D90D2809
:1040900023DD0E234AB10321397100217971B971F1
:1040A0000121F9717868CCF81000002121F001019C
:1040B00021F0020121F0040121F03801032060F316
:1040C0008811C3F30A0363F35321C1F313010023DF
:1040D000094803F0F1FCB54641E76FF01B03D9E74F
:1040E0006FF015043BE76FF0150438E76FF0150427
:1040F00035E700BFE4AA01081C9C0108002D31012E
:10410000FCAA010810B54FF4B01208210D48FFF7C2
:104110006DFD034608B1184610BD0B4C0B4A0C4907
:104120002046FFF7FDFE0B4B1C6003460028F2D132
:10413000094C0A4A0A492046FFF7F2FE0346094A9B
:104140001460E8E74C9601083821002014AB010800
:10415000D0F40108342100202C2100201CAB0108E0
:10416000B8F4010828210020002843D030B583B0DE
:104170000C460546B1F57A7F04DC11F57A7F03DA47
:104180001E4C03E04FF47A74002C16DC002C23DB69
:1041900068680021083011F050FC68680021103078
:1041A00011F04BFC00236A681068516800220092ED
:1041B000134AFDF7ADFA03B030BD6868012108303D
:1041C00011F03BFC68680021103011F036FC44F619
:1041D000206304FB03F3E6E768680021083011F070
:1041E0002CFC68680121103011F027FC054B04FB02
:1041F00003F3D8E76FF01500704700BF18FCFFFF0E
:10420000002D3101E0B1FFFF70B506460D46064BAB
:104210001C6800E0246834B16368002BFAD029469A
:1042200030469847F6E770BD4021002010B50A4B94
:104230001C7804EB44029300084AD35C022B00D0A4
:1042400010BD01212046FFF7DFFF04EB4404A3006B
:10425000024A0021D154F3E74C28002044210020D9
:10426000F8B54379012B0BD10446C08811F0F8FB57
:104270000546A468012C14BF00270127032800D994
:10428000F8BD15F07FF8064605EB45022A4B03EB17
:1042900082031F72012C12D005EB4503264A12F847
:1042A0002330012B32D0032BEAD124480DF016F92C
:1042B00005EB4505AD00204B00225A55E0E71346BB
:1042C0001D4A12F823307BB1022BD9D11C480DF0C6
:1042D00005F902212846FFF797FF05EB4505AD00DC
:1042E000154B00225A55CBE7134B05EB4502012134
:1042F00003F8221003EB82035E60124B1D704FF433
:104300007A72002310480DF04FF8B9E70E480DF00F
:10431000E5F8094B05EB4502022103F8221003EBF7
:1043200082035E60094B1D704FF4967200230448AF
:104330000DF03AF8A4E700BF442100200807002050
:10434000680700204B280020380700204C28002058
:1043500010B5114B1C7804EB4402104B13F82230BB
:10436000032B00D010BD0D4B03EB82031B7A002BF7
:10437000F8D004212046FFF747FF15F003F804EBBF
:104380004404064B03EB84035860C822002304480E
:104390000DF00AF8E6E700BF4A280020442100207B
:1043A0000807002070B5154B1C7804EB4402144B31
:1043B00013F82230012B00D070BD114B03EB8203A8
:1043C0001B7A002BF8D003212046FFF71DFF0C4D70
:1043D000660004EB4403032205F8232014F0D2FF07
:1043E000264405EB86056860044B1A78054B1A7065
:1043F000C822002304480CF0D7FFDDE74B2800203B
:10440000442100204A2800200807002008B5002386
:104410000AE0104803EB43018A0000EB020C002184
:1044200081548CF808100133032BF2DD0A490B4844
:104430000CF004FF0A490B480CF000FF0A490B4836
:104440000CF0FCFE0A4A03210A4812F035F900205C
:1044500008BD00BF442100202D420008680700204D
:10446000A543000838070020514300080807002032
:1044700034AB0108AC9B0108024B1A68026018605B
:10448000704700BF4021002038B520F0004421F0E3
:10449000004529462046FCF723FE48B92946204618
:1044A000FCF73CFEA8B913492046FCF77BFC38BD5D
:1044B00029462046FCF72AFD0146FCF773FC4FF025
:1044C0007E51FCF767FB10F0D1FC2946FCF76AFC33
:1044D000EDE721462846FCF719FD0146FCF762FC92
:1044E0004FF07E51FCF756FB10F0C0FC2146FCF764
:1044F00059FCDCE7F304B53F2DE9F04F87B0814666
:1045000090469B46D1F804C0BD4BC3F828C10A6849
:10451000C3F82C21CB6801938B6802930024CDF85B
:104520000CC00492CDF814B0012C3DDC04F1020A59
:1045300059F82A70A60059F824B039460398FCF7B8
:1045400031FC054659460498FCF72CFC01462846E8
:10455000FCF720FBAA4DB31D45F8230058F8242092
:1045600006F1080345F8232039460198FCF71AFCA8
:10457000074659460298FCF715FC01463846FCF7F9
:1045800009FBF31D45F8230058F82A30093645F891
:10459000263004F12402002345F8223004F12602DB
:1045A00045F822300134BFE7DDF814B00025D946C4
:1045B00087E1B246D6F84431063356F823803946AF
:1045C0004046FFF761FF0646CAF82C01002140462D
:1045D000FCF79AFD18B106F10046CAF82C61884B29
:1045E000D3F82C7127F000404FF04061FCF778FDC4
:1045F000002800F09E80824B4FF0FF32C3F8482124
:104600000194AB462AE07E4E671D4FF0E64156F816
:104610002700FCF7C7FB46F82700013408F1040621
:10462000A642F0DA764F4FF0E641D7F82C01FCF7BE
:10463000B9FB0446C7F82C014FF0E641D7F8280132
:10464000FCF7B0FB8046C7F8280124F000404FF08B
:104650004061FCF745FD70B1122D0CDC684BD3F8BE
:1046600048510135C3F84851D3F844A1AAEB0B08CF
:10467000D3F84C41D2E7019C5D46624F0AF1020239
:104680003946204611F08CFA01464046FFF7FCFE01
:104690000446C7F81401183FD7F82871002138469E
:1046A000FCF732FD20B104F10044554BC3F82C4116
:1046B000534CD4F82C8139464046FCF769FA414600
:1046C000FCF724FC05F1240344F823004146384656
:1046D000FCF75EFA01464FF07E50FCF717FC82466D
:1046E000C4F82801D4F84C410AE0454F04F105080C
:1046F00057F828105046FCF755FB47F828000134BE
:10470000A642F2DA002409E03D4E4FF04061D6F8AF
:104710002C01FCF747FBC6F82C010134384BD3F8C9
:104720004831A342F0DA364BD3F82C21C3F82821C4
:10473000EDE041463846FCF72BFA3946FCF7E6FB3C
:104740002F4C05F1240344F8230039464046FCF77A
:104750001FFA01464FF07E50FCF7D8FB8346C4F8A1
:104760002801D4F84431A3EB0508D4F84C410AE001
:10477000234E04F1050A56F82A105846FCF712FB9E
:1047800046F82A00013408F10403A342F0DA1C4B76
:10479000C3F82871BBE0C5F10403194AC2F84C31D3
:1047A000AAEB050404E0013F154BC3F84C71013C32
:1047B000134BD3F84C71002F09DD04F109030021DC
:1047C0000F4A52F82300FCF781FC0028EBD16B4222
:1047D00098461BE008F1FF380223ABB907EB0B0347
:1047E0000433A342F6DB631D0021054A52F823007F
:1047F000FCF76CFC10B101340023EEE70123ECE779
:10480000C0210020D8210020012B0AD0B8F1000FD0
:1048100004DB0AEB880B0BF10504DFE7CDF804801D
:104820009AE0CDF8048097E05A1C920000219F483E
:104830000FF0BAFC9CE09E4DD5F82C610AEB040306
:10484000A3EB08030633621D55F8221055F8230028
:10485000FCF7A8FA01463046FCF79CF9C5F82C0194
:1048600001345C45E7DBA8EB0A04053CA410904D3D
:104870002634D5F82C1155F82400FCF78BF945F8AF
:10488000240008F104087B1D434509DB884B002206
:10489000C3F82C21D3F84C3103EB080B4446E0E776
:1048A000029E039D00213046FCF710FC00286AD0D0
:1048B0007F4BD3F84421D3F82811063243F8221055
:1048C0000135012D00F3B88005EB8503784EC6F85D
:1048D00044319A1CC6F84C21063356F82330C6F8EA
:1048E000283105F124034FF0000846F82380C5F174
:1048F000030406F11801204611F052F90746C6F8E4
:104900002C014146FCF7E2FB00283FF452AE684B15
:10491000D3F844A1D3F828110AF1060243F8221073
:10492000002DCDDC4FF07E5143F822100AF1050234
:10493000C3F8482105F1240253F8226000213046D3
:10494000FCF7C4FB00283FF426AF594B0022C3F804
:104950004C214FF0FF330193554BD3F84C31002BD2
:10496000A6DD019BB3F1FF3F9CD0002BBFF65CAFEF
:104970004F4BD3F844A1019A0AEB8207D3F8488140
:10498000029603957FE74A4BD3F844211146002253
:10499000C3F848218B4603960495019FCDF81490E7
:1049A00089461EE0424E671D56F827A004EB090316
:1049B000A3EB0B03013356F823102846FCF7F2F95A
:1049C00001465046FCF7E6F846F827000134444516
:1049D000E8DD019E029F0BF1040B0136344BC3F856
:1049E0004861334BD3F84861BE4221DC304B06F1BD
:1049F000260253F82240C3F82C4100212046FCF740
:104A000065FB0028E7D1039B03F100412046FCF73A
:104A1000C9F90546264BC3F82C010BF10504D3F860
:104A20004C3103EB0B0808F1040801960297CEE71E
:104A3000049DDDF814903BE7CB461D4B0022C3F8E4
:104A4000442113E002EB830002EB4301184C0630D3
:104A500054F820001E3144F8210001329342F1DA6B
:104A6000002B0ADD0133124AC2F84431104BD3F84F
:104A70004431012B08DC0022F0E75A001F320C49B8
:104A8000002041F82200EDE7094B9A6FCBF8002097
:104A9000D3F88020CBF80420DA6FCBF80820D3F8C5
:104AA0008430CBF80C3007B0BDE8F08F58220020DE
:104AB000C02100202DE9F04F8BB0AF4C94F86F313E
:104AC0000993266926F00040AC4F3946FCF76AF995
:104AD000394610F0EBFA0546C4F8040101463046A9
:104AE000FCF758F83146FCF753F82946FCF70EFA64
:104AF000A06429460020FCF709FAE064666926F004
:104B000000403946FCF74EF9394610F0CFFA054619
:104B1000C4F8040101460020FCF7F8F92065294695
:104B20003046FCF737F83146FCF732F82946FCF7F7
:104B3000EDF9606504F13803914A214604F148001B
:104B4000FFF7DAFC0023C4F838313EE08A4C54F811
:104B50002560C4F8086121683046FCF723F98046D7
:104B6000C4F80C0161683046FCF71CF90746C4F82C
:104B700024016E00C4F83C6106F11A034FF0000AEC
:104B800044F823A0AB1C54F82390C4F80891A16802
:104B90004846FCF707F901464046FBF7FBFF06F1E4
:104BA000160344F82300E1684846FCF7FBF8014689
:104BB0003846FBF7EFFF06F1170344F823001B36D6
:104BC00044F826A00135C4F838516B4BD3F838515E
:104BD000012DBBDD9A6DC3F80821D3F85CE0C3F862
:104BE0000CE1D3F860C0C3F824C1D3F86490C3F8D3
:104BF00010910021C3F838110192CDF808E0CDF8EA
:104C00000CC041E05C4C05F1120354F82370C4F869
:104C100004716E00C4F83C6139460198FCF7C2F893
:104C200006F11A0B54F82B10FBF7B4FF8046C4F8BA
:104C300020011B3654F826A039460298FCF7B2F83A
:104C400001465046FBF7A6FF0746C4F81C0105F1D4
:104C5000140354F823A0C4F804A151460398FCF7A8
:104C6000A1F801464046FBF795FF44F82B0051465A
:104C70004846FCF797F801463846FBF78BFF44F8A7
:104C800026000135C4F838513B4BD3F83851012D7B
:104C9000B8DD1C469B6EA365236FE365E36E236658
:104CA000636F636604F1380504F15801284610F07B
:104CB000EBFEA36BA366236CE366E36B2367636C75
:104CC0006367A36DA363E36DE363236E2364636E85
:104CD0006364294604F1680010F021FFD4F838B06D
:104CE000C4F858B0D4F840A0C4F85CA0E36B0193BA
:104CF0002366626C029262660BF100410391C4F874
:104D00000C110AF100410491C4F8241103F100438D
:104D10000593C4F8103102F100430693C4F804313E
:104D2000184E7768B56829462846FCF73BF8804658
:104D3000F66831463046FCF735F801464046FBF749
:104D400029FF10F093F8014607F1004010F0F2F847
:104D50002169FBF71DFF0790C4F820013146284662
:104D600010F0E8F86169FBF713FFC4F81C01002399
:104D7000C4F83C3108909EE0C0210020F304B5390E
:104D80003C0A0208942100207500AB4CC4F838514D
:104D900005F1120354F82370C4F8087139460398DA
:104DA000FCF700F88046C4F8180139460498FBF770
:104DB000F9FF0746C4F8140105F1130354F82390D2
:104DC000C4F8089149460598FBF7ECFF01464046B8
:104DD000FBF7E0FE05F11A0344F823004946069864
:104DE000FBF7E0FF01463846FBF7D4FE05F11B0355
:104DF00044F82300AF19C4F840711A374FF07E51C0
:104E000054F82700FBF7C6FE44F82700DFF82C9281
:104E100005F2545309EB83035F68C4F808713946FF
:104E20005846FBF7BFFF8046C4F818013946504684
:104E3000FBF7B8FF0746C4F8140105F2555309EB18
:104E40008309D9F80490C4F8089149460198FBF702
:104E5000A9FF01464046FBF79DFE05F10E0344F80D
:104E6000230049460298FBF79DFF01463846FBF7B1
:104E700091FE0F3544F82500371D54F8278006F1C0
:104E8000180354F823100898FBF78CFF054606F129
:104E9000160354F823100798FBF784FF01462846B1
:104EA000FBF778FE01464046FBF774FE44F8270006
:104EB0000136C4F83C61604BD3F83C61012E7FF7AA
:104EC00063AF0022C3F8382109E05B4A52F823009F
:104ED00003F1160142F821000133C2F83831564B74
:104EE000D3F83831032BF0DD534C234604F138025C
:104EF00004F1580104F16800FFF7FEFA50496069B7
:104F0000FBF750FF4F4B18604D492069FBF74AFFF4
:104F10000146C4F80801D4F8E000FBF739FE054665
:104F2000C4F804014849FBF73DFFC4F80C01099B94
:104F300013B90022C4F8F02044492846FBF732FF99
:104F40003D4CC4F824014049FBF72CFFC4F8100184
:104F5000099B002B40F080804FF0000919F5487F35
:104F6000C0F208813A4D39492868FBF71BFF324CE3
:104F70000190C4F82001D4F810B05946FBF70AFE9E
:104F80000646C4F81C013149E869FBF70BFF0290A3
:104F9000C4F81801D4F814A05146FBF7FBFD0546F0
:104FA000C4F814012BF00040DFF8A8804146FBF75D
:104FB000F9FE414610F07AF80746C4F804010146AC
:104FC0005846FBF7E7FD01460198FBF7E3FD314644
:104FD000FBF7DEFD3946FBF799FFA064294628461A
:104FE000FBF7D6FD3946FBF791FFE0642AF000405D
:104FF0004146FBF7D7FE414610F058F80746C4F883
:10500000040131463046FBF7C3FD3946FBF77EFF0E
:10501000206539465046FBF7BDFD01460298FBF777
:10502000B9FD2946FBF7B4FD3946FBF76FFF606514
:105030000023C4F83831AAE0C0210020E8F40108B8
:10504000E12E654280210020000048430AD7A33B9F
:1050500094210020F304B53904F188068A4F8B4966
:105060002846FBF79FFE33461422394610F036FEE1
:10507000A6F18804C6F8D000716ED6F88400FBF75C
:1050800087FD06F1040807F154058149FBF78AFE04
:1050900043461422294610F021FEC6F8D40000230E
:1050A000C6F8D83006F1D005152307F1A80231461D
:1050B000284610F0C3FD8146C6F898000123C6F8C3
:1050C000D830152307F28C723146284610F0B6FD11
:1050D0008046C6F894000223C6F8D830152307F599
:1050E00067623146284610F0A9FD0546C6F89000D3
:1050F00068494846FBF756FE674B1F683946FBF781
:1051000049FD0646D4F804113846FBF74BFE01462C
:105110003046FBF747FE064660494046FBF742FE35
:10512000D4F8F010FBF73EFE01463046FBF732FDA7
:1051300006465B4B19682846FBF72CFD0546D4F85C
:10514000F410D4F81001FBF723FD01462846FBF7C5
:1051500029FE01463046FBF71DFD0FF057FEFBF719
:10516000E7FF0FFA80F9B9F5487F7FF7F7AE4FF404
:105170004879F7E6DFF82C91F4E64B4A52F8230021
:1051800003F1160142F821000133C2F83831464BD1
:10519000D3F83831032BF0DD434C2346434A04F166
:1051A000580104F14800FFF7A7F9D4F81C31236136
:1051B000D4F814316361D4F80C31C4F8EC30D4F86D
:1051C0002411D4F8F000FBF7E5FC0546C4F8F00024
:1051D0003749FBF7A3FF28B3354AC4F8F020324B18
:1051E000D3F81021C3F8F420D3F80841314A5460B1
:1051F000B3F966111181B3F968115181D3F8E45004
:10520000C3F804512C4B93F82830B3B12B492846EE
:10521000FBF784FF98B32A492846FBF761FF80BB60
:1052200000210BE027492846FBF75AFF0028D6D07B
:105230001D4B244AC3F8F020D1E70021C9B21D4B11
:105240001974194B93F8702183F86D2193F871212B
:1052500083F86E2183F86F111FFA89F2B3F86401A5
:10526000151AA3F866510244A3F86821C3F8E44074
:1052700083F8701183F871110BB0BDE8F08F002135
:10528000DCE70121DAE700BFE8F40108CDCCCC3D32
:10529000ACC5A7380000A041CC020020ACC5273720
:1052A000D0020020E0FCFFFFC02100204C0A0208D1
:1052B00000004843802100209421002000005CC2AF
:1052C00000007042000048C32DE9F047484CD4F874
:1052D000E830C4F8E030474AD360474D696928692F
:1052E000FBF758FC4FF07C51FBF75CFDA969FBF71D
:1052F0004FFC054694F86D41002C0CBF0127002798
:1053000003D03B4B93F96B311BB1394B0022C3F8EF
:10531000FC202946394B1868FBF744FD81461CB137
:10532000334B93F96C311BB1314B0022C3F8002190
:10533000334B19682846FBF735FD2D4CD4F8FCA0FB
:105340005146FBF725FC2F49FBF72CFD06462E4B5B
:1053500019682846FBF726FDD4F800512946FBF7CB
:1053600019FC3146FBF716FC804628493046FBF70E
:1053700019FD01465046FBF70DFCC4F8FC007FB256
:1053800084F86B7149462846FBF704FC0546C4F8CF
:1053900000011F49FBF7C2FE80B11D4AC4F800217D
:1053A000134B83F86C711B494046FBF7B7FE80B185
:1053B0000F4B184AC3F8E820BDE8F0871649284685
:1053C000FBF78EFE0028EBD0094B134AC3F80021EF
:1053D000E6E712494046FBF783FE20B1044B0F4A33
:1053E000C3F8E820E8E7024BC3F8E880E4E700BF31
:1053F000C02100208021002094210020C80200202C
:10540000342300200000C842C40200200AD7233CF5
:105410000000204100007041000020C1000070C168
:10542000F8B5254B93F86E31002B0CBF01270027F0
:1054300003D0214B93F96A311BB11F4B0022C3F8F3
:10544000F8201D4BD3F8F8601C493046FBF7AAFC46
:1054500005461B4B19681B4B586AFBF7A3FC2946F2
:10546000FBF798FB04461849FBF758FE30B917497B
:105470002046FBF735FE10B1144C00E0124C2046DC
:105480000FF0C4FCFBF754FE0B4CA4F86401104B66
:1054900019680C4B186AFBF785FC2946FBF778FB6B
:1054A0000C49FBF77FFC01463046FBF773FBC4F861
:1054B000F80084F86A71F8BDC02100200000C842DD
:1054C000BC020020942100200000FA430000FAC32F
:1054D000C00200200AD7A33C084B01221A72052201
:1054E0005A720A229A721422DA72054B4FF07E52D7
:1054F0001A60002159609960DA60704774210020B9
:10550000C021002010B558B1024683681548834277
:1055100016D21548834213D3DB681046984710BD56
:10552000124C40F2F25322461149124810F051FD3C
:10553000114810F04EFD40F2F251204610F040FDAF
:105540000A4C40F2F25322460C490A4810F041FD41
:105550000B490C4810F03DFD40F2F251204610F08E
:105560002FFD00BF209A0108FC99010868A00108DE
:105570009CA00108049D0108249D0108B0A0010819
:10558000F0A10108949E010810B558B10246836845
:105590001548834216D21548834213D31B6910461F
:1055A000984710BD124C40F21F6322461149124821
:1055B00010F00FFD114810F00CFD40F21F61204665
:1055C00010F0FEFC0A4C40F21F6322460C490A48C8
:1055D00010F0FFFC0B490C4810F0FBFC40F21F617F
:1055E000204610F0EDFC00BF209A0108FC9901084C
:1055F00068A001089CA00108049D0108249D0108E1
:10560000B0A00108F0A10108949E010810B54368FC
:105610001C68012303FA01F10C4203D092B1FFF799
:1056200071FF10BD094C40F2F76322460849094852
:1056300010F0CFFC084810F0CCFC40F2F761204697
:1056400010F0BEFCFFF7A0FFEBE700BF68A0010869
:10565000F8A10108049D010838A2010838B5436883
:1056600005691C6801238B401C4208D02C6823422A
:1056700002D0B2FA82F25209FFF7C8FF38BD084CD7
:1056800040F2227322460749074810F0A2FC07485F
:1056900010F09FFC40F22271204610F091FC00BFF8
:1056A00068A00108F8A10108049D010838A20108BA
:1056B00010B584B004460023009301930293039332
:1056C000062251490EF0C8FD002848D006224F4955
:1056D00020460EF0C1FD00284BD006224C49204642
:1056E0000EF0BAFD00284DD006224A4920460EF0A1
:1056F000B3FD00284FD00722474920460EF0ACFDED
:10570000002851D00722454920460EF0A5FD00286B
:1057100053D00722424920460EF09EFD002855D066
:105720000722404920460EF097FD002857D0082256
:105730003D4920460EF090FD002859D009223B49F2
:1057400020460EF089FD90B9042269462046FDF7F7
:1057500037FE374B009A5A62019A9A6107E0042299
:1057600069462046FDF72CFE009A324B1A6004B0C1
:1057700010BD042269462046FDF722FE009A2E4BFA
:105780001A60F4E7042269462046FDF719FE009AE4
:105790002A4B1A60EBE7042269462046FDF710FE0B
:1057A000009A274B1A60E2E7042269462046FDF77B
:1057B00007FE009A1E4B9A61D9E7042269462046EB
:1057C000FDF7FEFD009A1F4B1A60D0E704226946E0
:1057D0002046FDF7F5FD009A1B4B1A60C7E704222F
:1057E00069462046FDF7ECFD009A184B1A60BEE7AB
:1057F0000F4B93F8282082F0010283F8282008211B
:105800001348FFF72BFFB2E758AB010860AB010864
:1058100068AB010870AB010878AB010884AB0108E4
:1058200090AB01089CAB0108A4AB0108B0AB010828
:1058300094210020CC020020D0020020C4020020CD
:10584000C8020020BC020020C00200203423002037
:105850004C96010830B583B0002408E03CB11148F3
:1058600000250555FFF724FF2C4600E000240E4BD1
:10587000186810F0CCF898B901220DF107010A4B15
:10588000186810F0BAF89DF807300A2BE6D00D2BF7
:10589000E4D07E2CEAD8621C02490B55D4B2E6E76C
:1058A00003B030BD38230020B81C002008B500EB41
:1058B000C1035B8813F0010F06D101EB530330F8ED
:1058C00033209B1A99420DD00C4A01210C4810F04C
:1058D000F3FE002383F31188BFF36F8F0423184670
:1058E00002DF08BD30F83130CB1A00EBC30042882C
:1058F00003EB52039942E7D1F3E700BFBCAB0108C9
:10590000DC9B01082DE9F0410446164600EBC1007E
:10591000C588A94226D0CB0023449F884FEAC708F8
:1059200008F1060834F80830994204D104EBC503A5
:105930009B8899420CD0114A0121114810F0BCFEFD
:10594000002383F31188BFF36F8F0423184602DF0F
:10595000321D44F8225024F80850EB000433E7527B
:10596000BDE8F081E3680122B24023EA0203E3606C
:10597000321D002344F82230F2E700BFE4AB0108F7
:10598000DC9B01082DE9F84304460D46131D50F831
:1059900023607EB9C368012191400B43C360043288
:1059A00040F82250EB001A1DADB285520633C552A5
:1059B000BDE8F883F700043730F807904FEAC908CC
:1059C00008F1060830F808309E420AD1EB001A1D93
:1059D00024F802900633E652ADB224F80850E5539D
:1059E000E6E7074A0121074810F066FE002383F32B
:1059F0001188BFF36F8F0423184602DFE6E700BF6C
:105A0000E4AB0108DC9B010870B5B2F5802F31D200
:105A10000346042A3ED9043AC81D20F007000A4470
:105A200022F00702121AD608172A43D91860866096
:105A30000023C360B6FA86F1C1F1200EC1F124053E
:105A4000AD000735E9084B1CB34294BF0023012386
:105A5000002B45D0354C40F233332246344935488B
:105A600010F0B7FA344810F0B4FA40F2333120465F
:105A700010F0A6FA2D4C40F20A3322462F492D4849
:105A800010F0A7FA2E4810F0A4FA40F20A3120468E
:105A900010F096FA254C40F2113322462949254848
:105AA00010F097FA244810F094FA40F21131204691
:105AB00010F086FA1D4C40F21D33224622491D4843
:105AC00010F087FA1C4810F084FA40F21D3120468D
:105AD00010F076FA03F1040C002440F82C40013356
:105AE0007345F7DB1FFA81FC4FEA4C039BB24380FE
:105AF0000024048043F001034380731A25F0070556
:105B0000AE1C9BB24FEA430E20F806E020F805C019
