:020000040800F2
:1000000000590020057A00081F4D0108F179000809
:10001000F1790008F1790008F1790008000000008A
:10002000000000000000000000000000397A000815
:10003000F179000800000000597C0008DDD70008B5
:10004000ED7C0008ED7C0008ED7C0008ED7C0008EC
:10005000ED7C0008ED7C0008ED7C0008ED7C0008DC
:10006000ED7C0008ED7C0008ED7C0008ED7C0008CC
:10007000ED7C0008ED7C0008ED7C0008ED7C0008BC
:10008000ED7C0008ED7C0008ED7C0008ED7C0008AC
:10009000ED7C0008ED7C0008ED7C0008ED7C00089C
:1000A000ED7C0008ED7C0008ED7C0008ED7C00088C
:1000B000ED7C0008ED7C0008ED7C0008ED7C00087C
:1000C000ED7C0008ED7C0008ED7C0008ED7C00086C
:1000D000ED7C0008ED7C0008ED7C0008ED7C00085C
:1000E000ED7C0008ED7C0008ED7C0008ED7C00084C
:1000F000ED7C0008ED7C0008ED7C0008ED7C00083C
:1001000030B490F800F020F007016FF0000C10F010
:10011000070491F820F040F048804FF000046FF0A1
:100120000700D1E9002391F840F000F1080082FABD
:100130004CF2A4FA8CF283FA4CF3A2FA8CF34BBB88
:10014000D1E9022382FA4CF200F10800A4FA8CF201
:1001500083FA4CF3A2FA8CF3E3B9D1E9042382FACF
:100160004CF200F10800A4FA8CF283FA4CF3A2FAE4
:100170008CF37BB9D1E9062301F1200182FA4CF21C
:1001800000F10800A4FA8CF283FA4CF3A2FA8CF383
:10019000002BC6D0002A04BF04301A4612BAB2FAA5
:1001A00082F200EBD20030BC7047D1E9002304F0AA
:1001B0000305C4F100004FEAC50514F0040F91F8DF
:1001C00040F00CFA05F562EA05021CBF63EA05037C
:1001D00062464FF00004AAE7844641EA000313F0A8
:1001E00003036DD1403A41D351F8043B40F8043B3E
:1001F00051F8043B40F8043B51F8043B40F8043B01
:1002000051F8043B40F8043B51F8043B40F8043BF0
:1002100051F8043B40F8043B51F8043B40F8043BE0
:1002200051F8043B40F8043B51F8043B40F8043BD0
:1002300051F8043B40F8043B51F8043B40F8043BC0
:1002400051F8043B40F8043B51F8043B40F8043BB0
:1002500051F8043B40F8043B51F8043B40F8043BA0
:1002600051F8043B40F8043B403ABDD2303211D340
:1002700051F8043B40F8043B51F8043B40F8043B80
:1002800051F8043B40F8043B51F8043B40F8043B70
:10029000103AEDD20C3205D351F8043B40F8043B40
:1002A000043AF9D2043208D0D2071CBF11F8013B3E
:1002B00000F8013B01D30B8803806046704700BF04
:1002C000082A13D38B078DD010F003038AD0C3F113
:1002D0000403D21ADB071CBF11F8013B00F8013BF5
:1002E00080D331F8023B20F8023B7BE7043AD9D3B4
:1002F000013A11F8013B00F8013BF9D20B78037089
:100300004B7843708B7883706046704781F0004172
:1003100002E000BF83F0004330B54FEA41044FEAEA
:10032000430594EA050F08BF90EA020F1FBF54EA85
:10033000000C55EA020C7FEA645C7FEA655C00F021
:10034000E2804FEA5454D4EB5555B8BF6D420CDDF2
:100350002C4480EA020281EA030382EA000083EA75
:10036000010180EA020281EA0303362D88BF30BD15
:1003700011F0004F4FEA01314FF4801C4CEA11316B
:1003800002D0404261EB410113F0004F4FEA0333CA
:100390004CEA133302D0524263EB430394EA050F55
:1003A00000F0A780A4F10104D5F1200E0DDB02FAC4
:1003B0000EFC22FA05F2801841F1000103FA0EF258
:1003C000801843FA05F359410EE0A5F120050EF11E
:1003D000200E012A03FA0EFC28BF4CF0020C43FA4F
:1003E00005F3C01851EBE37101F0004507D54FF05C
:1003F000000EDCF1000C7EEB00006EEB0101B1F5AC
:10040000801F1BD3B1F5001F0CD349085FEA3000F1
:100410004FEA3C0C04F101044FEA445212F5800FFC
:1004200080F09A80BCF1004F08BF5FEA500C50F199
:10043000000041EB045141EA050130BD5FEA4C0C7C
:10044000404141EB0101013C28BFB1F5801FE9D2D9
:1004500091F0000F04BF01460020B1FA81F308BFFC
:100460002033A3F10B03B3F120020CDA0C3208DDC8
:1004700002F1140CC2F10C0201FA0CF021FA02F1A3
:100480000CE002F11402D8BFC2F1200C01FA02F113
:1004900020FA0CFCDCBF41EA0C019040E41AA2BF38
:1004A00001EB0451294330BD6FEA04041F3C1CDA00
:1004B0000C340EDC04F11404C4F1200220FA04F020
:1004C00001FA02F340EA030021FA04F345EA0301CA
:1004D00030BDC4F10C04C4F1200220FA02F001FA8C
:1004E00004F340EA0300294630BD21FA04F029460E
:1004F00030BD94F0000F83F4801306BF81F48011A7
:100500000134013D4EE77FEA645C18BF7FEA655C19
:1005100029D094EA050F08BF90EA020F05D054EAEB
:10052000000C04BF1946104630BD91EA030F1EBFF0
:100530000021002030BD5FEA545C05D140004941F4
:1005400028BF41F0004130BD14F580043CBF01F5E7
:10055000801130BD01F0004545F0FE4141F47001CD
:100560004FF0000030BD7FEA645C1ABF19461046A8
:100570007FEA655C1CBF0B46024650EA013406BFA9
:1005800052EA033591EA030F41F4002130BD00BF68
:1005900090F0000F04BF0021704730B54FF4806425
:1005A00004F132044FF000054FF0000150E700BFA6
:1005B00090F0000F04BF0021704730B54FF4806405
:1005C00004F1320410F0004548BF40424FF00001F2
:1005D0003EE700BF42004FEAE2014FEA31014FEA35
:1005E00002701FBF12F07F4393F07F4F81F0605184
:1005F000704732F07F4208BF704793F07F4F04BFCF
:1006000041F40021704730B54FF4607401F00045AB
:1006100021F000411CE700BF50EA010208BF70470B
:1006200030B54FF000050AE050EA010208BF7047FC
:1006300030B511F0004502D5404261EB41014FF465
:10064000806404F132045FEA915C3FF4D8AE4FF06D
:1006500003025FEADC0C18BF03325FEADC0C18BF50
:10066000033202EBDC02C2F1200300FA03FC20FAA1
:1006700002F001FA03FE40EA0E0021FA02F11444EE
:10068000BDE600BF70B54FF0FF0C4CF4E06C1CEA07
:1006900011541DBF1CEA135594EA0C0F95EA0C0F78
:1006A00000F0DEF82C4481EA030621EA4C5123EAEB
:1006B0004C5350EA013518BF52EA033541F480111A
:1006C00043F4801338D0A0FB02CE4FF00005E1FBCD
:1006D00002E506F00042E0FB03E54FF00006E1FB17
:1006E00003569CF0000F18BF4EF0010EA4F1FF045A
:1006F000B6F5007F64F5407404D25FEA4E0E6D419A
:1007000046EB060642EAC62141EA55514FEAC520AA
:1007100040EA5E504FEACE2EB4F1FD0C88BFBCF526
:10072000E06F1ED8BEF1004F08BF5FEA500E50F1D7
:10073000000041EB045170BD06F0004646EA01019D
:1007400040EA020081EA0301B4EB5C04C2BFD4EBCF
:100750000C0541EA045170BD41F480114FF0000EC8
:10076000013C00F3AB8014F1360FDEBF002001F036
:10077000004170BDC4F10004203C35DA0C341BDCB0
:1007800004F11404C4F1200500FA05F320FA04F082
:1007900001FA05F240EA020001F0004221F00041B6
:1007A00010EBD37021FA04F642EB06015EEA430E29
:1007B00008BF20EAD37070BDC4F10C04C4F1200559
:1007C00000FA04F320FA05F001FA04F240EA02000C
:1007D00001F0004110EBD37041F100015EEA430EDD
:1007E00008BF20EAD37070BDC4F1200500FA05F2FD
:1007F0004EEA020E20FA04F301FA05F243EA02037C
:1008000021FA04F001F0004121FA04F220EA02008A
:1008100000EBD3705EEA430E08BF20EAD37070BDD0
:1008200094F0000F0FD101F00046400041EB0101B0
:1008300011F4801F08BF013CF7D041EA060195F092
:10084000000F18BF704703F00046520043EB03034C
:1008500013F4801F08BF013DF7D043EA0603704739
:1008600094EA0C0F0CEA135518BF95EA0C0F0CD044
:1008700050EA410618BF52EA4306D1D181EA03018A
:1008800001F000414FF0000070BD50EA410606BF84
:100890001046194652EA430619D094EA0C0F02D1C9
:1008A00050EA013613D195EA0C0F05D152EA03360E
:1008B0001CBF104619460AD181EA030101F000412C
:1008C00041F0FE4141F470014FF0000070BD41F075
:1008D000FE4141F4780170BD70B54FF0FF0C4CF44F
:1008E000E06C1CEA11541DBF1CEA135594EA0C0F6E
:1008F00095EA0C0F00F0A7F8A4EB050481EA030EBB
:1009000052EA03354FEA013100F088804FEA0333A1
:100910004FF0805545EA131343EA12634FEA02226F
:1009200045EA111545EA10654FEA00260EF0004130
:100930009D4208BF964244F1FD0404F5407402D282
:100940005B084FEA3202B61A65EB03055B084FEA13
:1009500032024FF480104FF4002CB6EB020E75EB10
:10096000030E22BFB61A754640EA0C005B084FEA38
:100970003202B6EB020E75EB030E22BFB61A7546B5
:1009800040EA5C005B084FEA3202B6EB020E75EB00
:10099000030E22BFB61A754640EA9C005B084FEA78
:1009A0003202B6EB020E75EB030E22BFB61A754685
:1009B00040EADC0055EA060E18D04FEA051545EA74
:1009C00016754FEA06164FEAC30343EA52734FEA1D
:1009D000C2025FEA1C1CC0D111F4801F0BD141EA96
:1009E00000014FF000004FF0004CB6E711F4801FFB
:1009F00004BF01430020B4F1FD0C88BFBCF5E06FDB
:100A00003FF6AFAEB5EB030C04BFB6EB020C5FEAEA
:100A1000500C50F1000041EB045170BD0EF0004E3F
:100A20004EEA113114EB5C04C2BFD4EB0C0541EA71
:100A3000045170BD41F480114FF0000E013C90E66E
:100A400045EA060E8DE60CEA135594EA0C0F08BF32
:100A500095EA0C0F3FF43BAF94EA0C0F0AD150EA31
:100A600001347FF434AF95EA0C0F7FF425AF1046C4
:100A700019462CE795EA0C0F06D152EA03353FF4EC
:100A8000FDAE1046194622E750EA410618BF52EA69
:100A900043067FF4C5AE50EA41047FF40DAF52EA3D
:100AA00043057FF4EBAE12E74FF0FF3C06E000BFDA
:100AB0004FF0010C02E000BF4FF0010C4DF804CDE7
:100AC0004FEA410C7FEA6C5C4FEA430C18BF7FEAA7
:100AD0006C5C1BD001B050EA410C0CBF52EA430CD5
:100AE00091EA030F02BF90EA020F0020704710F155
:100AF000000F91EA030F58BF994208BF90422CBFE4
:100B0000D8176FEAE37040F0010070474FEA410CDC
:100B10007FEA6C5C02D150EA013C07D14FEA430CFA
:100B20007FEA6C5CD6D152EA033CD3D05DF8040B6B
:100B3000704700BF8446104662468C46194663469D
:100B400000E000BF01B5FFF7B7FF002848BF10F174
:100B5000000F01BD4DF808EDFFF7F4FF0CBF0120B9
:100B600000205DF808FB00BF4DF808EDFFF7EAFF35
:100B700034BF012000205DF808FB00BF4DF808EDF0
:100B8000FFF7E0FF94BF012000205DF808FB00BFE5
:100B90004DF808EDFFF7CEFF94BF012000205DF86F
:100BA00008FB00BF4DF808EDFFF7C4FF34BF01207C
:100BB00000205DF808FB00BF4FEA4102B2F1E043BC
:100BC00024BFB3F5001CDCF1FE5C0DD901F0004C34
:100BD0004FEAC0024CEA5070B2F1004F40EB830084
:100BE00008BF20F00100704711F0804F21D113F1B0
:100BF0003872BCBF01F00040704741F480114FEAE9
:100C00005252C2F11802C2F1200C10FA0CF320FA71
:100C100002F018BF40F001004FEAC1234FEAD3238E
:100C200003FA0CFC40EA0C0023FA02F34FEA4303F8
:100C3000CCE77FEA625307D150EA01331EBF4FF081
:100C4000FE4040F44000704701F0004040F0FE409C
:100C500040F40000704700BF80F0004002E000BF99
:100C600081F0004142001FBF5FEA410392EA030F97
:100C70007FEA226C7FEA236C6AD04FEA1262D2EBE1
:100C80001363C1BFD218414048404140B8BF5B42E6
:100C9000192B88BF704710F0004F40F4000020F07F
:100CA0007F4018BF404211F0004F41F4000121F095
:100CB0007F4118BF494292EA030F3FD0A2F10102DF
:100CC00041FA03FC10EB0C00C3F1200301FA03F11D
:100CD00000F0004302D5494260EB4000B0F5000F40
:100CE00013D3B0F1807F06D340084FEA310102F1FF
:100CF0000102FE2A51D2B1F1004F40EBC25008BFB1
:100D000020F0010040EA03007047490040EB00007A
:100D1000013A28BFB0F5000FEDD2B0FA80FCACF17B
:100D2000080CB2EB0C0200FA0CF0AABF00EBC250A8
:100D300052421843BCBFD0401843704792F0000F96
:100D400081F4000106BF80F400000132013BB5E7E9
:100D50004FEA41037FEA226C18BF7FEA236C21D05F
:100D600092EA030F04D092F0000F08BF08467047C4
:100D700090EA010F1CBF0020704712F07F4F04D192
:100D8000400028BF40F00040704712F100723CBFA5
:100D900000F50000704700F0004343F0FE4040F4CF
:100DA000000070477FEA226216BF08467FEA23638D
:100DB0000146420206BF5FEA412390EA010F40F478
:100DC000800070474FF0000304E000BF10F00043C4
:100DD00048BF40425FEA000C08BF704743F09643AB
:100DE00001464FF000001CE050EA010208BF7047C6
:100DF0004FF000030AE000BF50EA010208BF70474D
:100E000011F0004302D5404261EB41015FEA010C61
:100E100002BF84460146002043F0B64308BFA3F159
:100E20008053A3F50003BCFA8CF2083AA3EBC2533B
:100E300010DB01FA02FC634400FA02FCC2F120025A
:100E4000BCF1004F20FA02F243EB020008BF20F091
:100E50000100704702F1200201FA02FCC2F12002F7
:100E600050EA4C0021FA02F243EB020008BF20EAEC
:100E7000DC7070474FF0FF0C1CEAD0521EBF1CEA1A
:100E8000D15392EA0C0F93EA0C0F6FD01A4480EA08
:100E9000010C400218BF5FEA41211ED04FF00063F1
:100EA00043EA501043EA5111A0FB01310CF000401D
:100EB000B1F5000F3EBF490041EAD3715B0040EA43
:100EC000010062F17F02FD2A1DD8B3F1004F40EB13
:100ED000C25008BF20F00100704790F0000F0CF0E6
:100EE000004C08BF49024CEA502040EA51207F3AAA
:100EF000C2BFD2F1FF0340EAC250704740F4000085
:100F00004FF00003013A5DDC12F1190FDCBF00F075
:100F100000407047C2F10002410021FA02F1C2F123
:100F2000200200FA02FC5FEA310040F1000053EABF
:100F30004C0308BF20EADC70704792F0000F00F00D
:100F4000004C02BF400010F4000F013AF9D040EA13
:100F50000C0093F0000F01F0004C02BF490011F4A7
:100F6000000F013BF9D041EA0C018FE70CEAD153A5
:100F700092EA0C0F18BF93EA0C0F0AD030F0004C25
:100F800018BF31F0004CD8D180EA010000F00040D9
:100F9000704790F0000F17BF90F0004F084691F097
:100FA000000F91F0004F14D092EA0C0F01D14202D1
:100FB0000FD193EA0C0F03D14B0218BF084608D19A
:100FC00080EA010000F0004040F0FE4040F40000E4
:100FD000704740F0FE4040F4400070474FF0FF0C77
:100FE0001CEAD0521EBF1CEAD15392EA0C0F93EABE
:100FF0000C0F69D0A2EB030280EA010C49024FEA10
:10100000402037D04FF0805343EA111143EA1013C8
:101010000CF000408B4238BF5B0042F17D024FF480
:10102000000C8B4224BF5B1A40EA0C00B3EB510F5B
:1010300024BFA3EB510340EA5C00B3EB910F24BF44
:10104000A3EB910340EA9C00B3EBD10F24BFA3EBC9
:10105000D10340EADC001B0118BF5FEA1C1CE0D191
:10106000FD2A3FF650AF8B4240EBC25008BF20F044
:10107000010070470CF0004C4CEA50207F32C2BF98
:10108000D2F1FF0340EAC250704740F400004FF035
:101090000003013A37E792F0000F00F0004C02BF66
:1010A000400010F4000F013AF9D040EA0C0093F030
:1010B000000F01F0004C02BF490011F4000F013B8A
:1010C000F9D041EA0C0195E70CEAD15392EA0C0FF2
:1010D00008D142027FF47DAF93EA0C0F7FF470AF2A
:1010E000084676E793EA0C0F04D14B023FF44CAF6D
:1010F00008466EE730F0004C18BF31F0004CCAD102
:1011000030F000427FF45CAF31F000437FF43CAF3D
:101110005FE700BF4FF0FF3C06E000BF4FF0010C5F
:1011200002E000BF4FF0010C4DF804CD4FEA400241
:101130004FEA41037FEA226C18BF7FEA236C11D08B
:1011400001B052EA530C18BF90EA010F58BFB2EB3E
:10115000030088BFC81738BF6FEAE17018BF40F0BE
:10116000010070477FEA226C02D15FEA402C05D172
:101170007FEA236CE4D15FEA412CE1D05DF8040BF7
:10118000704700BF844608466146FFE70FB5FFF78A
:10119000C9FF002848BF10F1000F0FBD4DF808ED42
:1011A000FFF7F4FF0CBF012000205DF808FB00BF33
:1011B0004DF808EDFFF7EAFF34BF012000205DF88D
:1011C00008FB00BF4DF808EDFFF7E0FF94BF0120DA
:1011D00000205DF808FB00BF4DF808EDFFF7D2FFD7
:1011E00094BF012000205DF808FB00BF4DF808ED1A
:1011F000FFF7C8FF34BF012000205DF808FB00BFE7
:101200004FEA4002B2F1FE4F0FD34FF09E03B3EB13
:1012100012620DD94FEA002343F0004310F0004F53
:1012200023FA02F018BF404270474FF000007047A9
:1012300012F1610F01D1420205D110F0004008BF48
:101240006FF0004070474FF00000704742000ED230
:10125000B2F1FE4F0BD34FF09E03B3EB126209D4F1
:101260004FEA002343F0004323FA02F070474FF0A7
:101270000000704712F1610F01D1420202D14FF01C
:10128000FF3070474FF00000704700BF7BB972B964
:101290000029BEBF00204FF0004106E008BF002833
:1012A0001CBF6FF000414FF0FF3000F057B8ADF1B8
:1012B000080C6DE904CE002909DB002B1ADB00F0D5
:1012C0004FF8DDF804E0DDE9022304B07047404246
:1012D00061EB4101002B1BDB00F042F8DDF804E07C
:1012E000DDE9022304B0404261EB4101524263EB6D
:1012F00043037047524263EB430300F031F8DDF8DB
:1013000004E0DDE9022304B0404261EB4101704793
:10131000524263EB430300F023F8DDF804E0DDE91B
:10132000022304B0524263EB4303704753B94AB9F6
:10133000002908BF00281CBF4FF0FF314FF0FF30DD
:1013400000F00CB8ADF1080C6DE904CE00F008F81F
:10135000DDF804E0DDE9022304B07047704700BF08
:101360002DE9F0478C468E46089E154604461946E0
:10137000002B40F0D080724547D9B2FA82F74FB1C6
:10138000C7F120030EFA07FC20FA03F3BD4043EA3D
:101390000C0CBC404FEA154EA8B2BCFBFEF8230C67
:1013A0000EFB18CC08FB00F943EA0C43994528D9F9
:1013B000EB1808F1FF3204D2994502D9A8F10202D4
:1013C0002B44A3EB0903A4B2B3FBFEFC0EFB1C33BE
:1013D0000CFB00F044EA0344A04214D92C190CF190
:1013E000FF3304D2A04202D9ACF102032C44241AE8
:1013F00043EA02401EB1FC40002334607360BDE844
:10140000F0874246DDE76346F1E7002A79D0B2FA79
:1014100082F3002B3FD01946C1F1200302FA01F5F7
:101420002EFA03F20EFA01FE20FA03F343EA0E034A
:101430004FEA154E00FA01F4B2FBFEFCAFB20EFB10
:101440001C201A0C0CFB07F842EA004290455AD9BE
:10145000AA180CF1FF3004D2904502D9ACF1020079
:101460002A44A2EB08029BB2B2FBFEFC0EFB1C223C
:101470000CFB07F743EA02439F4246D9EB180CF1F5
:10148000FF3204D29F4202D9ACF102022B44DB1B93
:1014900042EA004202E0AEEB020301224FEA154E9F
:1014A000AFB2B3FBFEFC200C0EFB1C330CFB07F8A9
:1014B00040EA034398452AD9EB180CF1FF3004D2D7
:1014C000984502D9ACF102002B44A3EB0803A4B267
:1014D000B3FBFEFC0EFB1C330CFB07F744EA034492
:1014E000A74216D92C190CF1FF3304D2A74202D916
:1014F000ACF102032C44E41B43EA00400F461146C2
:1015000078E71F2188E76046ABE76246BFE76046A1
:10151000DBE76346EFE7734506D916B900210846B5
:101520006DE7C6E9000EF9E7B3FA83F787B97345AB
:1015300001D3824207D8841A6EEB030301209C4634
:101540001EB900215BE73846FAE7C6E9004CF8E728
:10155000C7F1200CBB4022FA0CF51D4320FA0CF118
:101560002EFA0CF30EFA07FE41EA0E014FEA154976
:1015700000FA07F4B3FBF9F81FFA85FE09FB1830EF
:101580000B0C08FB0EFA43EA00439A4502FA07F2F5
:1015900040D9EB1808F1FF3004D29A4502D9A8F1DE
:1015A00002002B44A3EB0A0389B2B3FBF9F809FB51
:1015B000183308FB0EFE41EA03418E452CD9691809
:1015C00008F1FF3304D28E4502D9A8F10203294461
:1015D00043EA0040A0FB0298A1EB0E014145CE4634
:1015E000434602D306D14C4504D2B9EB020E68EB58
:1015F00005030138002EA4D0B4EB0E0261EB030109
:1016000001FA0CFC22FA07F34CEA0303F940C6E99D
:10161000003196E74046C5E74346D9E700000000A1
:10162000F0B587B00446284B18686A46032101F0DC
:1016300019FF0546002840D1002C3ED00098FEF747
:10164000B7FF06460F460198FEF7B2FF1CA3D3E989
:101650000023FFF741F902460B4630463946FEF7B4
:101660005BFEC4E900010298FEF7A2FF06460F46A2
:101670000398FEF79DFF12A3D3E90023FFF72CF98F
:1016800002460B4630463946FEF746FEC4E90201E3
:101690000498FEF78DFF06460F460598FEF788FF73
:1016A00007A3D3E90023FFF717F902460B4630469C
:1016B0003946FEF731FEC4E90401284607B0F0BD03
:1016C0000000000080842E41A420002000000000C3
:1016D000F0B587B00446284B18686A46072101F028
:1016E000C1FE0546002840D1002C3ED00098FEF7F0
:1016F0005FFF06460F460198FEF75AFF1CA3D3E989
:101700000023FFF7E9F802460B4630463946FEF75C
:1017100003FEC4E900010298FEF74AFF06460F46A1
:101720000398FEF745FF12A3D3E90023FFF7D4F88F
:1017300002460B4630463946FEF7EEFDC4E902018B
:101740000498FEF735FF06460F460598FEF730FF72
:1017500007A3D3E90023FFF7BFF802460B46304644
:101760003946FEF7D9FDC4E90401284607B0F0BDAB
:101770000000000080842E41A42000200000000012
:101780002DE9F04F91B001F0AFFE0AA800240A94B1
:1017900044608460C4600461446104AD04940594B1
:1017A0000694079408940994FFF73AFF2846FFF738
:1017B0008FFF15F06EFB431880F0A48023445E4A2F
:1017C000A2FB034525F0030404EB95041B1BC01A80
:1017D00061F100034FF0CC3100FB01F102FB03117A
:1017E000A0FB02021144400840EAC1704908FEF71C
:1017F0001BFF0022514BFFF76FF804460D46DDE951
:101800000A6732463B4630463946FEF73BFF824682
:101810008B46DDE90E8942464B4640464946FEF777
:1018200031FF02460B4650465946FEF775FD11F052
:1018300089FC82468B4600220023FFF78BF90028A3
:1018400062D152465B46DDE90C01FFF745F800F036
:10185000D3F837A3D3E90023FEF714FF82468B4663
:1018600042464B463046394600F09EFA30A3D3E953
:101870000023FEF707FF06460F460022304BFFF716
:1018800073F938B100222F4B2F49D1E90001FFF73E
:1018900089F980B900222B4B30463946FFF782F98F
:1018A000002836D00022264B2749D1E90001FFF756
:1018B0005BF900282DD0254BC3E90667224BC3E90D
:1018C0000067CDE90245DDE90423CDE90023524656
:1018D0005B461F4812F0B4F81B4EC6E902012246CF
:1018E0002B46DDE90801FEF7CDFE00220023FEF7BE
:1018F00013FDC6E90401174B186800F0F5FE11B09E
:10190000BDE8F08F012459E74FF0000A4FF0000BBB
:10191000A6E7CDE90245DDE90623CDE900233246FD
:101920003B460A4812F08CF8074BC3E90001C8E7B0
:10193000F8C1631ADCA54C40CDCCCCCC00408F4024
:10194000008056C00080564040070020480000201C
:1019500000000020741000202DE9F04F85B00646ED
:101960000F461546984602AA02F028F900282FDBF8
:10197000029CDDF80C90A5FB04AB05FB09BB1AA388
:10198000D3E9002350465946FFF7D0FC05464FF0F7
:10199000FF335345164B73EB0B031CD3A8FB04A476
:1019A00008FB094410A3D3E9002350462146FFF762
:1019B000BDFC03464FF0FF3252450D4AA2410DD304
:1019C000BDF8382000922A463946304602F038F9F0
:1019D00005B0BDE8F08F6FF08500F9E76FF0850086
:1019E000F6E700BFAFF3008000CA9A3B000000009A
:1019F000FFC99A3B000000002DE9F04FCA4A21F0D0
:101A00000043934285B004460D468A4614D9C74A1E
:101A1000934200F2EB8000F0E680BAF1000F9EA343
:101A2000D3E9002340F314819DA1D1E90001FEF721
:101A300073FC05B0BDE8F08FBD4A934200F2A1806F
:101A4000A2F1DE72934240F2D78000220023CDE95A
:101A50000223CDE900234FF0FF3B22462B462046D0
:101A60002946FEF70FFE02460B4680468946FEF7E2
:101A700009FE8DA3D3E9002306460F46FEF702FEBA
:101A80008BA3D3E90023FEF747FC32463B46FEF723
:101A9000F9FD89A3D3E90023FEF73EFC32463B461D
:101AA000FEF7F0FD86A3D3E90023FEF735FC3246AE
:101AB0003B46FEF7E7FD84A3D3E90023FEF72CFCA9
:101AC00032463B46FEF7DEFD81A3D3E90023FEF755
:101AD00023FC42464B46FEF7D5FD7FA3D3E9002306
:101AE0008046894630463946FEF7CCFD7CA3D3E9D3
:101AF0000023FEF70FFC32463B46FEF7C3FD7AA3F8
:101B0000D3E90023FEF706FC32463B46FEF7BAFD5A
:101B100077A3D3E90023FEF7FDFB32463B46FEF7F1
:101B2000B1FD75A3D3E90023FEF7F4FB32463B4633
:101B3000FEF7A8FD02460B4640464946FEF7ECFB81
:101B400022462B46FEF79EFDBBF1FF3F02460B46A9
:101B500000F08680DDE90223FEF7DCFB22462B46FF
:101B6000FEF7D8FB02460B46DDE90001FEF7D2FB8B
:101B7000BAF1000F40DA01F10043194605B0BDE8A3
:101B8000F08F6C4A9342064621F0004737D8A2F501
:101B90005022934200F2D88002463B463946FEF777
:101BA000BBFB654B0022FEF7B5FB002204460D4649
:101BB0004FF0804330463946FEF7AEFB02460B46F7
:101BC00020462946FEF788FE4DA4D4E90034CDE92D
:101BD00002344DA3D3E900230446CDE900230D468A
:101BE0004FF0000B39E700283FF417AF22462B4691
:101BF00020462946FEF790FB05B0BDE8F08F4F4A1E
:101C0000934234D24E4B00223946FEF783FB4C4BB5
:101C100004460D46002230463946FEF733FD464B5A
:101C20000022FEF779FB02460B4620462946FEF7C6
:101C300053FE37A4D4E90034CDE9023436A3D3E906
:101C400000230446CDE900230D464FF0020B04E7C4
:101C500033A1D1E90001FEF75DFB05B0BDE8F08FCF
:101C600020462946FEF756FB05B0BDE8F08F024638
:101C70003B4634490020FEF72FFE07A4D4E9003488
:101C8000CDE9023406A3D3E900230446CDE90023BD
:101C90000D464FF0030BE0E6075C143326A6913C9B
:101CA000182D4454FB21F93F11DA22E33AAD903F5D
:101CB000EB0D76244B7BA93F513DD0A0660DB13F83
:101CC0006E204CC5CD45B73FFF8300922449C23FEB
:101CD0000D5555555555D53F2F6C6A2C44B4A2BFB0
:101CE0009AFDDE522DDEAD3F6D9A74AFF2B0B33F78
:101CF000711623FEC671BC3FC4EB98999999C93FF0
:101D0000E2652F227F2B7A3C4FBB610567ACDD3F3C
:101D1000BDCBF07A8807703C9BF681D20B73EF3F06
:101D2000182D4454FB21F9BFFFFF0F440000F07F42
:101D3000FFFFDB3FFFFFF23F0000F03F008003406A
:101D40000000F83F0000F0BF154B00223946FEF7B7
:101D5000E1FA134B04460D46002230463946FEF7A1
:101D6000DBFA02460B4620462946FEF7B5FD08A4DD
:101D7000D4E90034CDE9023407A3D3E900230446B3
:101D8000CDE900230D464FF0010B66E6AFF300806E
:101D9000075C143326A6813C182D4454FB21E93FEF
:101DA0000000F03F000000002DE9F84F9946534233
:101DB0007F4F134329F0004E4EEAD373BB42904647
:101DC00004460D463ED84642064321F0004A4AEA00
:101DD000D676BE4203468B4634D809F1404606F516
:101DE000801616434FD04FEAA97606F0020653EA52
:101DF0000A0346EAD1762DD052EA0E0237D0BE450C
:101E000054D0BA4533D0AAEB0E0ABAF1747F4FEA28
:101E10002A5357DB50A3D3E9002351A1D1E9000194
:101E2000FEF77AFA012E68D0022E59D086B14EA361
:101E3000D3E90023FEF76EFA4DA3D3E90023FEF7A2
:101E400069FA05E022462B4640464946FEF764FA09
:101E5000BDE8F88F022E1AD0032EF9D146A3D3E99C
:101E6000002347A1D1E90001FEF754FAF0E7BBF1E6
:101E7000000F41A3D3E9002312DB39A1D1E900010E
:101E8000FEF74AFAE4E7BDE8F84FFFF7B5BD3AA31D
:101E9000D3E9002336A1D1E90001FEF73DFAD7E7E7
:101EA00039A1D1E90001FEF735FAD1E7F24528D092
:101EB000022EECD0032ED1D0012E4FF0000034D0F2
:101EC0000021C5E7B9F1000F2ADB42464B46204608
:101ED0002946FEF701FD21F00041FFF78DFDA1E746
:101EE00021A3D3E90023FEF715FA02460B4620A1F1
:101EF000D1E90001FEF70EFAAAE701F10043194605
:101F0000A6E7022E1CA3D3E900231DD0032E15D073
:101F1000012E0DD01EA1D1E90001FEF7FDF997E7D2
:101F20003C33D2DA002000217CE74FF000418FE7FC
:101F300019A1D1E90001FEF7EDF989E718A1D1E96E
:101F40000001FEF7E7F983E717A1D1E90001FEF7E9
:101F5000E3F97DE7AFF30080075C143326A6913CDC
:101F6000182D4454FB21F93F075C143326A6A13CED
:101F7000182D4454FB21094059F3F8C21F6EA501E6
:101F8000182D4454FB2109C0182D4454FB21F9BFDE
:101F9000182D4454FB21E93F182D4454FB21E9BF7F
:101FA000D221337F7CD902C0D221337F7CD9024039
:101FB0000000F07F08B56421064B186802F076F83F
:101FC0006421054B186802F071F84FF47A7011F033
:101FD000A8F9F0E7DC200020D020002008B5044B51
:101FE000186811F07DFC012011F09BF9F7E700BFA4
:101FF00094110020D0B588B000260027CDE90667EF
:102000000024049402230393029401940094244B2B
:102010004FF40462234924480DF05EFDCDE90667C4
:102020000494052303930294019400941F4B4FF4EE
:1020300088621F491F480DF04FFDCDE906670494E3
:10204000042303930294019400941B4B4FF4C86241
:102050001A491B480DF040FDCDE9066704940A2398
:102060000393029401940094164B4FF4886216492E
:1020700016480DF031FDCDE9066704940B23039358
:10208000029401940094124B4FF4107211491248BB
:102090000DF022FD42F2107000210EF0D9FFF9E799
:1020A000DD1F000880360020600600206333010831
:1020B00040320020E005002051330108002C0020B0
:1020C0006005002043330108C0270020E004002001
:1020D000B51F000880250020600400200023032B8A
:1020E0000DD803EB4302074931F81220824201D098
:1020F0000133F4E703EB430301EB43007047002097
:10210000704700BF38770108FF2805D008B5034B9A
:102110001B6803B1984708BD704700BF101000202E
:1021200010B5044C23689878FFF7EEFF0023236076
:1021300010BD00BF0C10002008B5034B1B681879B8
:10214000FFF7E2FF08BD00BF0810002038B5856822
:10215000C088FFF7C3FF002842D00446012D3CD1C0
:10216000204B1B6883421AD0E378FF2B31D01E4DE1
:1021700028460DF067FB1B4B1C604FF47A6200236E
:1021800028460DF0C5FA2379FF2B29D0174B1C6088
:102190004FF4FA52002316480DF0BAFA20E0124824
:1021A0000DF050FB0028DFD111480DF04BFB0D4B1B
:1021B00000221A60E078FFF7A7FF2379FF2B0FD0EA
:1021C0000A4B1C604FF4FA52002309480DF0A0FAA4
:1021D00006E0A078FFF798FFD5E705480DF032FB41
:1021E00038BD00BF0C100020100700200810002090
:1021F000E006002008B5054905480DF0D3F905496A
:1022000005480DF0CFF9002008BD00BF21210008CE
:102210001007002039210008E0060020014B18605B
:10222000704700BF1010002090F82530064AA2FB2E
:10223000031202F0FC0101EB92029B1ADBB2034A8B
:1022400052F82300704700BFCDCCCCCC40C201086F
:1022500008B5054804F0AAFE0448FFF7DFFF044B69
:1022600001221A70002008BD1C7201080D2500080B
:102270004525002000B583B00B468DF804200022D0
:102280008DF80520024601A9024812F032FD03B084
:102290005DF804FB1C7201082DE9F0410646384C3C
:1022A0000021204604F074FE00231A4631682046BF
:1022B00012F01FFD3469002302E064690133DBB2D0
:1022C000727E9A4201D9002CF7D1304611F0CBF83A
:1022D0008046002719E02B4600222A49284812F0A0
:1022E00008FD25E0204611F043F858B32B460E2296
:1022F0002549234812F0FDFC2B4620222168204866
:1023000012F0F7FC64690137FFB214B3022F20D832
:102310003D01EDB21235EDB2737E3B44DBB2327E4D
:102320009A42D8D02B4600221849154812F0E1FCF9
:102330002369002BD6D02B460E221549104812F0E7
:10234000D8FCD9E72B460E2212490D4812F0D1FCD9
:10235000D2E7B8F1030F05D9737E2BB9737E03332F
:10236000434507DBBDE8F0815E2212217820FFF7AC
:1023700081FFF3E7762232217820FFF77BFFF1E738
:102380001C7201085077010860770108587701082E
:102390005C770108647701082DE9F04782B0804638
:1023A000894617461D4600211046FEF701FF40B939
:1023B000BA465046FEF724FF06464FF0000C0124B3
:1023C00007E007F1004AF4E704EB840464000CF131
:1023D000010CAC45F8DB3046FEF7F8FC01465046F0
:1023E000FEF73EFC82462046FEF7F0FC01465046D2
:1023F000FEF740FD4FF07C51FEF734FCFEF700FF86
:102400008246844202DC0136A0EB040A00213846F1
:10241000FEF7CEFE58B9CDF804A000953346094A20
:102420004946404610F002F902B0BDE8F087CDF809
:1024300004A000953346044A4946404610F0F6F899
:10244000F2E700BF7477010868770108F8B50C4619
:10245000154690F8243043B9C26932B11368154A61
:102460002946204610F0E2F806E0012B05D02D2386
:10247000237063700023A370F8BD036A002BF6D0AD
:102480001E683046FEF7BCFE0746FEF79FFC31464D
:10249000FEF784FE30B13B46064A2946204610F03E
:1024A000C5F8E9E70223324629462046FFF774FFC4
:1024B000E2E700BF7C77010810B4044608460A60D2
:1024C0000B71019B8B60CC6000230B614B610B7621
:1024D0004B76CB610B6281F82430012281F82520F4
:1024E0008B62CB6234B123694BB11A465B69002B16
:1024F000FBD15061044B1B681BB110BC70472161BC
:10250000F8E7014B1860F8E73410002010B5704B65
:102510001C68002C00F0D380052800F2D080DFE892
:1025200010F03400060062009100B300CA00694B4D
:102530001B781BB1204610F01BFFF8B92369002B54
:1025400000F0BD80204610F08EFF002800F0B7801C
:10255000237E013393FBF0F100FB1133DBB22376D2
:10256000627E02329A4201DA9A1E6276627E93425B
:1025700000D26376584B01221A70A0E0204610F07A
:102580003DFF554B01221A7099E0524B1B781BB14D
:10259000204610F0EDFEE0B92369002B00F08F809B
:1025A000204610F060FF002800F08980237EBBB930
:1025B000421ED3B22376627E9A4200D96376627E4F
:1025C00002329A4201DA023B6376434B01221A70CF
:1025D00075E0204610F0DDFE3F4B01221A706EE0E0
:1025E000013BDBB2E6E72269F2B1002302E0526967
:1025F0000133DBB2217E994201D9002AF7D1002AAA
:102600005DD0364B1B68062B05DC013333490B606C
:10261000334941F823402E4B1A602E4B00221A708A
:102620002D4B01221A704AE0204610F0A1FE00282E
:1026300045D0284A137883F001031370264B0122FA
:102640001A703CE0234B1B7833B1224B00221A70E6
:10265000214B01221A7032E0204B1B68002B0BDB50
:10266000591E1E4A11601E4A52F82320184B1A6048
:10267000194B01221A7022E0E36803B3144A136075
:10268000154B01221A701AE0124B1B78BBB1204681
:1026900010F06EFE98B194F825200132114B83FBA7
:1026A00002135B1003EB8303D31A84F825300A4B23
:1026B00001221A7003E0204610F05AFE00B910BD46
:1026C000204610F0D9FE044B01221A70F7E700BF34
:1026D0003410002044250020452500203003002030
:1026E000141000206766666618B1044A12688242B8
:1026F00000D07047024B01221A70FAE73410002014
:10270000452500203F4B1B78002B7AD03E4B1B68A1
:10271000002B76D030B58BB000213A4B19703B4876
:1027200004F01EFC384B1868036933B1FFF7B4FDA1
:10273000364804F0B7FB0BB030BD8368002B3ED0A9
:102740009847314B186810F013FE0028F0D02F4C3A
:102750000021204604F01CFC05AD142229462A4B1A
:102760001868FFF773FE302300222946204612F036
:10277000C0FA274B1B78002B3CD0234B1868FFF77F
:1027800053FD0446FEF73CFD0546FEF71FFB2146C0
:10279000FEF704FD08B32B461E4A0C2102A80FF0D9
:1027A00045FF1A4C30233C2202A9204612F0A1FA20
:1027B000302364221849204612F09BFAB8E7134CE4
:1027C0000021204604F0E4FB0F4B19681823002277
:1027D0000968204612F08DFAB3E702232246082149
:1027E0006846FFF7D9FD6B460C4A0C2102A80FF092
:1027F0001DFFD6E7302348220949044812F079FA30
:1028000096E7704745250020341000201C7201080F
:102810004425002080770108907701088877010817
:102820009877010870B582B0214D002400942346AA
:10283000204A29462046FFF73FFE1F4E00942346BC
:102840001E4A31462846FFF737FE1D4B00930123F1
:102850001C4A1D492846FFF72FFE1C4B18601C4BD5
:10286000009301231B4A1C492846FFF725FE1B4BFA
:1028700018601B4B009301231A4A1B492846FFF797
:102880001BFE1A4B18601A4D1A4B009301231A4A6B
:1028900029463046FFF710FE184BEB6185F82440BF
:1028A000AC626423EB6232232B63204602B070BD1E
:1028B0005C110020A077010824110020A8770108EE
:1028C000792A0008B0770108B4100020B010002069
:1028D000A5290008B877010878100020741000209E
:1028E00021290008C07701083C1000203810002082
:1028F000EC10002001290008C877010834030020EB
:1029000038B50446054D0021284604F041FB00235C
:102910001A462168284612F0ECF938BD1C720108ED
:10292000F0B58FB005461C4C0121204604F030FB69
:1029300000231A462968204612F0DBF900212046C0
:1029400004F026FB6946002600960196304601F009
:1029500013F80AAF0223019A1021384600F0E0FD77
:1029600002AD3B460D4A202128460FF05FFE14239E
:1029700032462946204612F0BCF9009B084A202125
:1029800028460FF053FE142340222946204612F019
:10299000B0F90FB0F0BD00BF1C720108D07701087C
:1029A000D8770108F0B593B004462F4D0121284691
:1029B00004F0EEFA00231A462168284612F099F92D
:1029C0000021284604F0E4FA6846002400940194AB
:1029D000029403940494059400F094FDDDE9000151
:1029E000FEF7EAF802460EAF02231021384600F047
:1029F00097FD06AE3B461D4A202130460FF016FEDD
:102A0000142322463146284612F073F9DDE902010B
:102A1000FEF7D2F8024602231021384600F080FD6E
:102A20003B46134A202130460FF000FE142340227B
:102A30003146284612F05DF9DDE90401FEF7BCF8E5
:102A4000024602231021384600F06AFD3B46094A3F
:102A5000202130460FF0EAFD1E232246314628464B
:102A600012F047F913B0F0BD1C720108E0770108BD
:102A7000EC770108F47701082DE9F04192B00446A3
:102A8000504F0021384604F083FA00231A4621688B
:102A9000384612F02EF9002600960196029603960B
:102AA000049605966846FEF7BBFDDDE90001FEF7DA
:102AB00083F802460EAD02231021284600F030FDB7
:102AC00006AC2B46404A202120460FF0AFFD0A23DA
:102AD00032462146384612F00CF9DDE90201FEF7D4
:102AE0006BF8024602231021284600F019FD2B4600
:102AF000364A202120460FF099FD0A234022214624
:102B0000384612F0F6F8DDE90401FEF755F8024602
:102B100002231021284600F003FD2B462C4A2021D9
:102B200020460FF083FD142332462146384612F02A
:102B3000E0F86846FEF7CCFDDDE90001FEF73CF861
:102B4000024602231021284600F0EAFC2B46214AC7
:102B5000202120460FF06AFD1423402221463846EA
:102B600012F0C7F8DDE90201FEF726F8024602235B
:102B70001021284600F0D4FC2B46174A202120467D
:102B80000FF054FD1E2332462146384612F0B1F8AC
:102B9000DDE90401FEF710F8024602231021284661
:102BA00000F0BEFC2B460D4A202120460FF03EFDD2
:102BB0001E2340222146384612F09BF812B0BDE891
:102BC000F08100BF1C720108FC770108047801083D
:102BD0000C780108147801081C7801082478010891
:102BE000034668B179B1106880B1906888B15960C6
:102BF0009A600020187398735873074A1A607047D8
:102C00004FF0FF3070474FF0FF3070474FF0FF300C
:102C100070474FF0FF30704780CA010808B5064A78
:102C200006490748FFF7DCFF18B9064B044A1A604B
:102C300008BD4FF0FF30FBE7B0CA01089811002033
:102C4000F41700209411002010B5064C0022114604
:102C5000206810F0FFFD14220121206810F0FAFD19
:102C6000002010BD94110020C2788B1F9A4241D1E0
:102C700000B583B000231A469E4608E010F803C052
:102C8000F4445FFA8CFE7244D2B20133DBB2A1F19C
:102C9000020C6345F2DB10F80C30734516D1013994
:102CA000435C934212D1837873B9ADF804308DF848
:102CB0000630037953B9437943B9837933B90E4B5D
:102CC000186810F01EFE01E0E02B02D003B05DF8A2
:102CD00004FB01A90023ADF804308B7083788DF8D4
:102CE00004308DF805E08DF80620034B186810F0CD
:102CF000A0FDEBE7704700BF9411002070B582B0D3
:102D00000C46154638B101281BD10B785A1C0A70A5
:102D10000122EA5415E001AE0023ADF804308DF82D
:102D200006303146084B186810F0B8FD2378EA18D1
:102D3000BDF804009DF80610E85291702378033323
:102D4000237002B070BD00BF9411002008B50A4680
:102D50000146024B186810F0E5FD08BD041800207C
:102D600010B5064C206810F0AAFD0021206810F074
:102D700084FDE021206810F080FD10BD941100203A
:102D800010B550B1836815498B4216D214498B4255
:102D900013D31B6C03B1984710BD124C40F25B1368
:102DA00022461149114811F090F8114811F08DF8A0
:102DB00040F25B11204611F07FF80A4C40F25B13A1
:102DC00022460C49094811F080F80B490B4811F0D4
:102DD0007CF840F25B11204611F06EF8C8750108CE
:102DE000647501082C7801086C7801088078010866
:102DF000A0780108B47801089C8E0108F4790108D4
:102E000010B550B1836815498B4216D214498B42D4
:102E100013D35B6B03B1984710BD124C40F23113D2
:102E200022461149114811F050F8114811F04DF89F
:102E300040F23111204611F03FF80A4C40F23113B4
:102E400022460C49094811F040F80B490B4811F093
:102E50003CF840F23111204611F02EF8C8750108F7
:102E6000647501082C7801086C78010880780108E5
:102E7000A0780108B47801089C8E0108F479010853
:102E800010B550B1836815498B4216D214498B4254
:102E900013D3DB6D03B1984710BD124C4FF4DE73B2
:102EA00022461149114811F010F8114811F00DF89F
:102EB0004FF4DE71204610F0FFFF0A4C4FF4DE7332
:102EC00022460C49094811F000F80B490B4810F054
:102ED000FCFF4FF4DE71204610F0EEFFC8750108CC
:102EE000647501082C7801086C7801088078010865
:102EF000A0780108B47801089C8E0108F4790108D3
:102F000010B550B1836817498B4216D216498B42CF
:102F100013D3DB6B13B3984710BD144C40F24B1323
:102F200022461349134810F0D0FF134810F0CDFF8C
:102F300040F24B11204610F0BFFF0C4C40F24B13F7
:102F400022460E490B4810F0C0FF0D490D4810F005
:102F5000BCFF40F24B11204610F0AEFF6FF057005F
:102F6000DAE700BFC8750108647501082C7801080C
:102F70006C78010880780108A0780108B47801080D
:102F80009C8E0108F479010810B560B1844683680D
:102F90001548834215D21548834212D3DB6AFBB130
:102FA0006046984710BD124CE92322461149124849
:102FB00010F08BFF114810F088FFE921204610F037
:102FC0007BFF0B4CE92322460D490B4810F07DFF97
:102FD0000C490D4810F079FFE921204610F06CFFF4
:102FE0006FF05700DEE700BFC8750108647501087F
:102FF0002C7801086C78010880780108A078010815
:10300000B47801089C8E0108F479010810B550B11C
:10301000836815498B4216D214498B4213D39B6B9C
:1030200003B1984710BD124C4FF49F7322461149CB
:10303000114810F04AFF114810F047FF4FF49F71FC
:10304000204610F039FF0A4C4FF49F7322460C497A
:10305000094810F03AFF0B490B4810F036FF4FF4C7
:103060009F71204610F028FFC8750108647501089B
:103070002C7801086C78010880780108A078010894
:10308000B47801089C8E0108F479010810B550B19C
:10309000836817498B4216D216498B4213D3DB6CD7
:1030A00013B3984710BD144C4FF4C2732246134912
:1030B000134810F00AFF134810F007FF4FF4C271D5
:1030C000204610F0F9FE0C4C4FF4C27322460E4914
:1030D0000B4810F0FAFE0D490D4810F0F6FE4FF4C3
:1030E000C271204610F0E8FE6FF05700DAE700BF2B
:1030F000C8750108647501082C7801086C7801080E
:1031000080780108A0780108B47801089C8E010835
:10311000F479010810B560B184468368174883428A
:1031200017D21748834214D31B6B1BB360469847D2
:1031300010BD144C40F20D1322461349134810F0F1
:10314000C4FE134810F0C1FE40F20D11204610F0ED
:10315000B3FE0C4C40F20D1322460E490B4810F002
:10316000B4FE0D490D4810F0B0FE40F20D1120469E
:1031700010F0A2FE6FF05700DAE700BFC875010833
:10318000647501082C7801086C78010880780108C2
:10319000A0780108B47801089C8E0108F479010830
:1031A00038B578B1B0FA80F464098368194DAB4240
:1031B0001BD2194DAB4218D3A3B11B6E33B3984742
:1031C000204638BD154C4FF4E47322461449154887
:1031D00010F07BFE144810F078FE4FF4E4712046A6
:1031E00010F06AFE6FF05704EAE70C4C4FF4E473FA
:1031F00022460E490B4810F068FE0D490D4810F0AC
:1032000064FE4FF4E471204610F056FE6FF0570450
:10321000D6E700BFC8750108647501082C7801085D
:103220006C78010880780108A0780108B47801085A
:103230009C8E0108F479010810B50C46416082604B
:10324000C36000230374044B0360024603492068F3
:10325000FFF7A6FF10BD00BFC8CA0108AD390108BD
:1032600008B5164B1B68164A126816491648FFF730
:10327000E3FF034608B1184608BD144B1B68144A07
:10328000126814491448FFF7D7FF03460028F2D10B
:103290000D48124B1860124B0F4A1A604FF47A71A6
:1032A00010F04BFB03460028E5D14FF47A710C4B2C
:1032B000186810F042FB0346DDE700BF6C1C0020DD
:1032C000701C0020D4CA01082018002034180020E7
:1032D00038180020D0CA0108081800201C18002047
:1032E00004180020B1F5004F09D2016102600023EB
:1032F0000381C3808380C38183814381704710B57C
:10330000064CC32322460649064810F0DEFD064857
:1033100010F0DBFDC321204610F0CEFD0C7A010831
:10332000407A010880780108587A010810B5154CD8
:10333000154B4FF400721549204610F06EFB144BEC
:103340001C60144C144B4FF400721449204610F0CA
:1033500064FB134B1C60134C134B4FF40072134966
:10336000204610F05AFB124B1C60124C124B4FF4CB
:1033700000721249204610F050FB114B1C600020D7
:1033800010BD00BF8C200020907A0108741E002020
:10339000701C002074200020987A0108741C002002
:1033A0006C1C00203C1C0020A07A01083C18002066
:1033B00034180020541C0020A87A01083C1A002070
:1033C0003818002008B50548054B186013F0E7FBD6
:1033D00008B1002008BD6FF01200FBE78C720108F5
:1033E000A420002010B550B1836815498B4216D235
:1033F00014498B4213D3DB684E21984710BD124C01
:1034000040F2B73322461149114810F05EFD1148D1
:1034100010F05BFD40F2B731204610F04DFD0A4C34
:1034200040F2B73322460C49094810F04EFD0B49D3
:103430000B4810F04AFD40F2B731204610F03CFD39
:1034400014750108DC740108B07A01086C78010871
:1034500080780108A0780108E47A0108307C01082E
:10346000F479010810B558B1844683681548834241
:1034700016D21548834213D31B696046984710BD86
:10348000124C40F2F53322461149124810F01DFD4E
:10349000114810F01AFD40F2F531204610F00CFDF5
:1034A0000A4C40F2F53322460C490A4810F00DFD53
:1034B0000B490C4810F009FD40F2F531204610F0A0
:1034C000FBFC00BF14750108DC740108B07A010828
:1034D0006C78010880780108A0780108E47A010876
:1034E000307C0108F479010808B5044B1868FFF72F
:1034F000FBF8034B1868FFF775FF08BDB0100020FC
:10350000A420002010B48446044C0FCCACE80F007B
:1035100094E803008CE8030010BC704740070020CB
:10352000002800F086802DE9F04385B00F469146D3
:103530001C46064601297FD9062B00D90624002106
:103540004846FDF735FE60B9002500234FF001081D
:103550009C420CD908EB88084FEA48080133DBB2DB
:10356000F6E72D23337009F100490125EDE74046C8
:10357000FDF728FC4946FDF77DFC4FF07C51FDF737
:1035800071FBFDF763FE0346B0FBF8F008FB10315A
:1035900098451CD930238DF8003001225319BB42C5
:1035A0004DD2531E1DE02A4BA3FB00C3DB089C46F3
:1035B00003EB8303A0EB4303303302F110006844B4
:1035C00000F8103C604601320028ECD1E6E700220A
:1035D000FAE703F110026A4412F8102C7255013B0D
:1035E0000135002BF5DAF4B1013FAF422AD92E2381
:1035F0007355631E013510E002EB820252000CF19C
:10360000010C6345F8DCB1FBF2F002FB1011AF4294
:103610001BD930307055013B0135002B03DB4FF0D7
:10362000000C0122EDE700237355284605B0BDE8E4
:10363000F0834FF0FF3070474FF0FF30F6E74FF068
:10364000FF30F3E74FF0FF30F0E74FF0FF30EDE7EA
:10365000CDCCCCCC10B550B1836815498B4216D275
:1036600014498B4213D3DB684E21984710BD124C8E
:1036700040F2B73322461149114810F026FC114898
:1036800010F023FC40F2B731204610F015FC0A4C34
:1036900040F2B73322460C49094810F016FC0B499A
:1036A0000B4810F012FC40F2B731204610F004FC39
:1036B00014750108DC740108B07A01086C780108FF
:1036C00080780108A0780108E47A0108307C0108BC
:1036D000F479010810B558B18446836815488342CF
:1036E00016D21548834213D31B696046984710BD14
:1036F000124C40F2F53322461149124810F0E5FB16
:10370000114810F0E2FB40F2F531204610F0D4FBF6
:103710000A4C40F2F53322460C490A4810F0D5FB1A
:103720000B490C4810F0D1FB40F2F531204610F067
:10373000C3FB00BF14750108DC740108B07A0108EE
:103740006C78010880780108A0780108E47A010803
:10375000307C0108F4790108F0B583B02D4B2E4A76
:103760001A602E4A5A6100242AE023462C4A01217D
:103770002C4810F02CFF6FF0120049E013442A4A45
:10378000A2FB036525F0030C0CEB950CA3EB0C03DB
:10379000C01A61F100034FF0CC3100FB01F102FBD4
:1037A0000311A0FB02021144400840EAC170194B0A
:1037B000986023461D4A03211A4810F008FF01347F
:1037C000012C24DC04EB8403124A52F8230013F08A
:1037D000E6F90028C9D00F4D04EB84039E0005EBE9
:1037E0008307A859FFF736FFA8596A464C21FFF70F
:1037F00071FFBDF900307B600025FD6000233B6157
:1038000013F047FB2A464318B8D30122B6E700203D
:1038100003B0F0BDA82000207072010854720108A6
:10382000387C0108F0750108CDCCCCCC547C010863
:10383000F0B585B001287ED8044600EB80033F4AEE
:1038400052F82300FFF706FF0546002858D104EB85
:1038500084033A4A52F8230002AA4C21FFF73AFFA8
:103860000546002856D113F014FB0022431859D204
:103870001344334EA6FB032727F0030202EB970203
:103880009B1AC01A61F100024FF0CC3100FB01F12C
:1038900006FB0211A0FB06031944430843EAC17367
:1038A000029E04EB8401254A02EB81025068301A23
:1038B0004EF66022904237DDA0F57F40EB3804EBF6
:1038C00084011E4A02EB81029768D1680144D160ED
:1038D00056609360DE1B1AD0FDF778FA0746304633
:1038E000FDF770FA01463846FDF778FB1549FDF7FC
:1038F000C1FA04EB8404114B03EB8403186106E066
:1039000000902346104A0121104810F06BFE284613
:1039100005B0F0BD009023460D4A01210B4810F080
:1039200061FEF4E70122A3E70A4A9042C7DA00F5F4
:103930007F40FF30C3E76FF01505E8E7A8200020BF
:10394000CDCCCCCC000020416C7C0108F075010886
:10395000907C0108A015FFFF10B5002403E0E0B241
:10396000FFF766FF0134012CF9DD024B1868FEF702
:10397000BBFE10BD381000200A4601280BD800EB12
:103980008000064B03EB80030C3393E8030082E8CE
:103990000300002070476FF012007047A82000203D
:1039A00070B5002842D01346864684686B4A94421C
:1039B0004CD26B4A944249D34668006913F0FC6FBD
:1039C00055D103F03002302A61D0664A1A40664D64
:1039D000AA426CD003F00602042A78D013F44022E5
:1039E00040F08280B2F5402F00F0928013F4801FE7
:1039F00005D022B113F0010F01D083F4402323F44A
:103A0000801235684FF0010C0CFA01FC15EA0C0F1E
:103A100000F08E8013F0010F00F09A8003684CEAEA
:103A20000303036023687046984770BD4F4C40F213
:103A3000534322464E494F4810F047FA4E4810F083
:103A400044FA40F25341204610F036FA474C40F217
:103A5000534322464949474810F037FA48494948F4
:103A600010F033FA40F25341204610F025FA3F4C53
:103A700040F25C43224644493E4810F026FA43484F
:103A800010F023FA40F25C41204610F015FA374C52
:103A900040F25F4322463E49364810F016FA3D4850
:103AA00010F013FA40F25F41204610F005FA2F4C57
:103AB00040F26343224638492E4810F006FA374850
:103AC00010F003FA40F26341204610F0F5F9274C5C
:103AD00040F2664322463249264810F0F6F940F299
:103AE0006641204610F0E8F913F4003F7FF47AAF06
:103AF0001E4C40F2694322462A491E4810F0E5F95F
:103B0000294810F0E2F940F26941204610F0D4F95A
:103B1000164C40F26D4322462449164810F0D5F960
:103B2000234810F0D2F940F26D41204610F0C4F95C
:103B30000E4C40F2794322461E490E4810F0C5F95A
:103B40001D4810F0C2F940F27941204610F0B4F956
:103B5000036823EA0C03036064E700BFAC74010848
:103B6000887401080200030002000100B47C01080F
:103B7000E87C010880780108A0780108FC7C010835
:103B80003C7E0108F4790108447E0108B47E0108F6
:103B9000D87E0108147F0108547F0108A47F010822
:103BA000F47F01082880010878800108B4800108AA
:103BB00004810108308101087081010810B558B1F5
:103BC000844683681548834216D21548834213D32E
:103BD0005B686046984710BD124C40F28223224633
:103BE0001149124810F071F9114810F06EF940F2C5
:103BF0008221204610F060F90A4C40F282232246CE
:103C00000C490A4810F061F90B490C4810F05DF9B5
:103C100040F28221204610F04FF900BFCC74010819
:103C2000C4740108848101086C7801088078010857
:103C3000A0780108B4810108EC820108F479010838
:103C4000934231D830B583B068B18468184DAC4226
:103C500019D2184DAC4216D32468BDF818500095FF
:103C6000A04703B030BD144C40F26E2322461349E6
:103C7000134810F02AF9134810F027F940F26E218A
:103C8000204610F019F90C4C40F26E2322460E49E2
:103C90000B4810F01AF90D490D4810F016F940F2D2
:103CA0006E21204610F008F96FF01500704700BF34
:103CB000CC740108C4740108848101086C7801087F
:103CC00080780108A0780108B4810108EC8201081D
:103CD000F479010810B558B102468368154883424B
:103CE00016D21548834213D3DB681046984710BD9F
:103CF000124C40F2F25322461149124810F0E5F8F6
:103D0000114810F0E2F840F2F251204610F0D4F8D9
:103D10000A4C40F2F25322460C490A4810F0D5F8FA
:103D20000B490C4810F0D1F840F2F251204610F047
:103D3000C3F800BFAC74010888740108B47C0108A2
:103D4000E87C010880780108A0780108FC7C010863
:103D50003C7E0108F479010810B558B10246836829
:103D60001548834216D21548834213D31B69104667
:103D7000984710BD124C40F21F6322461149124869
:103D800010F0A3F8114810F0A0F840F21F6120468F
:103D900010F092F80A4C40F21F6322460C490A4880
:103DA00010F093F80B490C4810F08FF840F21F61A7
:103DB000204610F081F800BFAC7401088874010837
:103DC000B47C0108E87C010880780108A07801082B
:103DD000FC7C01083C7E0108F479010810B54368B9
:103DE0001C68012303FA01F10C4203D092B1FFF7E2
:103DF00071FF10BD094C40F2F7632246084909489B
:103E000010F063F8084810F060F840F2F7612046BF
:103E100010F052F8FFF7A0FFEBE700BFB47C0108F9
:103E200030810108807801087081010838B5436845
:103E300005691C6801238B401C4208D02C68234272
:103E400002D0B2FA82F25209FFF7C8FF38BD084C1F
:103E500040F2227322460749074810F036F8074817
:103E600010F033F840F22271204610F025F800BF20
:103E7000B47C010830810108807801087081010854
:103E80002DE9F04184B002AF002800F0D9800C4643
:103E900015460646002900F0D680002A00F0D6809C
:103EA000086812F07CFE78B1746035604FF4B01190
:103EB00004F108000FF0C5FE0446002857D0204644
:103EC0000837BD46BDE8F0816E4600233B710223F2
:103ED0007B7188B002AC14F1100211D00E201AB11F
:103EE000042801DD5B4B636100233B7002237B7080
:103EF0009AB1082800DDA56104F11C0300210AE045
:103F00006FF00040EBE701F108053D4415F8085C4F
:103F100003F8015B01310129F5D90D2824DD0E23B9
:103F200042B10321397100217971B9710121F9710F
:103F300078682061002121F0010121F0020121F0C7
:103F4000040121F03801012060F38811C3F30A0352
:103F500063F35321C1F3130100233F4802F042FAF7
:103F6000B5466FF01204AAE76FF01B03D8E770683C
:103F70004FF4B01110300FF064FE044600289ED1BB
:103F80007368186859684FF00008CDF80080434600
:103F9000324AFDF7E1FC6E4687F8048002237B710C
:103FA00088B00DF1080C1CF1100213D00E2022B1C4
:103FB000042802DD2A4BCCF8143000233B70022386
:103FC0007B70A2B1082801DDCCF818500CF11C035D
:103FD00000210AE06FF00040E9E701F108053D44E7
:103FE00015F8085C03F8015B01310129F5D90D28AA
:103FF00023DD0E234AB10321397100217971B97192
:104000000121F9717868CCF81000002121F001013C
:1040100021F0020121F0040121F03801032060F3B6
:104020008811C3F30A0363F35321C1F3130100237F
:10403000094802F0D7F9B54641E76FF01B03D9E70D
:104040006FF015043BE76FF0150438E76FF01504C7
:1040500035E700BFF082010898760108002D310194
:104060000883010810B5094C094A0A492046FFF7A0
:1040700007FF094A146000B110BD084C084A0949FD
:104080002046FFF7FDFE084B1C60F5E7E02000200E
:1040900020830108F0CA0108DC200020D420002081
:1040A00028830108D8CA0108D0200020002843D066
:1040B00030B583B00C460546B1F57A7F04DC11F5C6
:1040C0007A7F03DA1E4C03E04FF47A74002C16DC7E
:1040D000002C23DB6868002108300FF0BDFD686804
:1040E000002110300FF0B8FD00236A681068516895
:1040F00000220092134AFDF72FFC03B030BD686820
:10410000012108300FF0A8FD6868002110300FF081
:10411000A3FD44F6206304FB03F3E6E7686800218F
:1041200008300FF099FD6868012110300FF094FD00
:10413000054B04FB03F3D8E76FF01500704700BF91
:1041400018FCFFFF002D3101E0B1FFFF08B500EBC7
:10415000C1035B8813F0010F06D101EB530330F864
:1041600033209B1A99420DD00C4A01210C4810F0C3
:1041700024FA002383F31188BFF36F8F04231846BA
:1041800002DF08BD30F83130CB1A00EBC3004288A3
:1041900003EB52039942E7D1F3E700BF38830108EC
:1041A000587601082DE9F0410446164600EBC1009F
:1041B000C588A94226D0CB0023449F884FEAC70870
:1041C00008F1060834F80830994204D104EBC5031D
:1041D0009B8899420CD0114A0121114810F0EDF949
:1041E000002383F31188BFF36F8F0423184602DF87
:1041F000321D44F8225024F80850EB000433E752F3
:10420000BDE8F081E3680122B24023EA0203E360E3
:10421000321D002344F82230F2E700BF608301081A
:10422000587601082DE9F84304460D46131D50F851
:1042300023607EB9C368012191400B43C3600432FF
:1042400040F82250EB001A1DADB285520633C5521C
:10425000BDE8F883F700043730F807904FEAC90843
:1042600008F1060830F808309E420AD1EB001A1D0A
:1042700024F802900633E652ADB224F80850E55314
:10428000E6E7074A0121074810F097F9002383F376
:104290001188BFF36F8F0423184602DFE6E700BFE3
:1042A000608301085876010870B5B2F5802F31D2CD
:1042B0000346042A3ED9043AC81D20F007000A44E8
:1042C00022F00702121AD608172A43D9186086600E
:1042D0000023C360B6FA86F1C1F1200EC1F12405B6
:1042E000AD000735E9084B1CB34294BF00230123FE
:1042F000002B45D0354C40F2333322463449354803
:104300000FF0E3FD34480FF0E0FD40F2333120467A
:104310000FF0D2FD2D4C40F20A3322462F492D4892
:104320000FF0D3FD2E480FF0D0FD40F20A312046A9
:104330000FF0C2FD254C40F2113322462949254891
:104340000FF0C3FD24480FF0C0FD40F211312046AC
:104350000FF0B2FD1D4C40F21D33224622491D488C
:104360000FF0B3FD1C480FF0B0FD40F21D312046A8
:104370000FF0A2FD03F1040C002440F82C4001339F
:104380007345F7DB1FFA81FC4FEA4C039BB2438075
:104390000024048043F001034380731A25F00705CD
:1043A000AE1C9BB24FEA430E20F806E020F805C091
:1043B00022F00705961C845302444353538843F06C
:1043C000010353800FF074FC70BD00BF84830108AB
:1043D000808401088078010838840108E48301089A
:1043E000FC830108148401085484010808B50248BC
:1043F0000FF054FD002008BDB48401080F4B984213
:1044000002D30F4B98420FD30E4B23B1984202D3E5
:104410000D4B98420AD30D4B53B198420AD30C4B23
:10442000984209D30020704701207047012070474F
:10443000002070470020704701207047DC6E0108A3
:1044400044D301080000000000000000000000004C
:104450000000000070B504460D46194616465AB1D4
:1044600064B129B93046FBF74BFE83B2013399B2F0
:104470002A463046A04770BD034EF1E73046FBF7B1
:104480003FFE0130F7E700BFF0840108F8B540B106
:10449000064603784578847804EB830404440027B7
:1044A00011E00B4CC62322460A490B480FF00DFDC4
:1044B000C62120460FF000FD01342046FBF720FE08
:1044C000013004440137AF42F6D3A01BF8BD00BF52
:1044D000F884010828850108807801082DE9F04F4B
:1044E00091B006920393134602F004020092C3F3C4
:1044F000C20210F00303019340F05E820746894632
:104500000132041D00284BD0072940F25882039B3A
:104510005D1EDDF804B0CDF810B0CDF814B0002663
:104520004FF0FF3A4FF00408CDF808B0C3460FB182
:10453000039B2360531E0793002A40F35F81069B71
:1045400013F0020229D04FF0010CE11B8B081AB1C5
:10455000B1F5007F80F05D81029A0F2A00F2698137
:10456000002F00F07A81DBB2029901F140026A4427
:1045700002F8103C02F820ACBCF1000F00F0698199
:1045800063F07F0301F140026A4402F8103C049B8F
:1045900001330493029B01330293043400223EE072
:1045A00001F007031C44C3F10809B0E7002635E019
:1045B000002633E0002631E04FF00808C3462DE026
:1045C00025292BD10AF1010A01264FF00408C34620
:1045D00024E04729ECD82A2912D32A39C9B201206C
:1045E00000FA01F14FF6DA70014217D111F0625F63
:1045F00040F0C28011F0010F40F08C8000260DE0E9
:10460000252903D10AF1FF3A002607E0D2D8202954
:1046100004D0232902D0002600E000261D466B1C92
:104620006978002900F04581002EC9D07A29BDD8CB
:104630004C29CED34C392E29EFD801A050F821F0C7
:104640001D4600081B4600081B4600081B460008C4
:104650001B4600081B4600081B4600081B460008B6
:104660001B4600081B4600081B4600081B460008A6
:104670000D4700081B4600081B4600081B460008A3
:104680001B4600081B4600081B4600081B46000886
:104690001B460008794700081B4600080D47000824
:1046A0000D47000879470008794700087947000856
:1046B0001D4600080D470008B94500081B460008C4
:1046C0001D4600081B460008D74700080D47000894
:1046D000D74700081B4600081B460008E1470008B2
:1046E000054700080D4700081B4600081B46000848
:1046F0000D4700081B460008FD4600084FF004085F
:10470000C3468BE74FF00408C34687E729786C2936
:1047100024D000264444013CB4FBF8F408FB04F424
:1047200027B1E11B5944494500F24C81002A5DD173
:10473000BBF1040F00F0A480BBF1080F40F0A8808B
:104740001A99073121F0070101F108001A90D1E907
:1047500000010FB1C4E9000108345FE713F8021C3F
:104760006C2904D000264FF00408C346D2E7002687
:104770004FF00808C346CDE729784C291BD01A9979
:10478000073121F0070101F108001A90D1E9000179
:10479000073424F0070447B1E61B08364E4514D809
:1047A0002D784C2D14D0C4E90001083400264FF0B8
:1047B0000808C34632E71A99073121F0070101F1D1
:1047C00008001A90D1E90001E2E76FF01B00F0E069
:1047D000C4E90001E9E700264FF00408C34699E761
:1047E000324600264FF00408C34693E71A9A111D7B
:1047F0001A9112680392079A1D4698E60398FFF7EC
:10480000FDFD844600287FF49AAE069B03F0020269
:104810009BE6714C4FF422732246704970480FF0AA
:1048200054FB70480FF051FB4FF4227120460FF0FB
:1048300043FB694C40F28D232246684968480FF0DB
:1048400044FB69480FF041FB40F28D2120460FF0F8
:1048500033FB059B013305939CE6BCF1000F02D0AE
:1048600009F1010996E6009B13B109F1020991E6ED
:104870000398FBF745FC09EB000303F1020989E605
:104880001A99081D1A90096807B121600434C5E619
:10489000514C40F2D2232246504951480FF015FBAB
:1048A000594652480FF011FB40F2D22120460FF03A
:1048B00003FBDDF808B0E31BB3F5806F11D207B33B
:1048C00000223A609B083B70009BF3B1059BFB7094
:1048D000049BBB708BBB019DDDF810A0DDF80C8044
:1048E0004AE03D4C40F2DE2322463C493C480FF072
:1048F000ECFA3F480FF0E9FA40F2DE2120460FF0D3
:10490000DBFA4B44A3F1080053E0059B7B70DFE723
:1049100001339B45DFD903F140026A4412F8101CB1
:1049200012F9102C002AF3DA01F07F01E21B0132A8
:104930004A454AD804F8011BEAE7019BE9E7009BD6
:104940003BB305F140036B4413F8203C04F8013BF2
:10495000019EE31B334401334B4539D805F1400335
:104960006B4413F8103C04F8013B324641462046A4
:10497000FBF732FC34440135AB4519D9BAF1000FCD
:10498000DDD005F140036B4413F9103C002BD6DA5F
:10499000F1E705F140036B4413F8103C57F823800E
:1049A000002247F823204046FBF7AAFB461CD0E72D
:1049B000E01B11B0BDE8F08F6FF00D00F9E76FF06C
:1049C0001B00F6E76FF01B00F3E76FF01B00F0E74A
:1049D0006FF01B00EDE700BFF88401084085010877
:1049E00080780108448501086885010884850108EC
:1049F0009C8501082DE9F04F97B000AF7961BA614D
:104A0000FB60002844D08346B0FA80F46409D7F8EC
:104A10008030C3F3C0033B627B69002B45D09BF819
:104A20000260B1462EB1D7F8803013F0010F00D0EC
:104A3000012423469BF803207A6222B1D7F8802014
:104A400012F0020F00D1A3B39BF80050AA00BA6085
:104A5000DBF804203A610BEB8505BA69AAB3002B99
:104A600000F02281B9F1100F00F2118107F144002A
:104A70004FF0000A4A462946FBF7AEFB9BF802308E
:104A80001D444FF00008C7F80490C7F81CB08CE133
:104A9000B34C40F2A5332246B249B3480FF015FAA1
:104AA00040F2A53120460FF007FAFFF7EFFC7861DE
:104AB000B5E7BB691BB1FA687969584698477C69C4
:104AC00020465C37BD46BDE8F08F7C69E3B94D44B4
:104AD00000237B6123E00444013501364E451AD2A0
:104AE0002A7800235BF822201946B869FFF7B2FC48
:104AF000BAF1000FEFD0D7F888309845EBD22AF8FA
:104B0000180008F10108E6E70026C7F81C80B04647
:104B1000D7F884A0E2E7C7F81480D7F81C80D7F84C
:104B2000803003F00503FB604FF0000AA146C7F890
:104B30001CB08AE0594638690FF083F9002800F06C
:104B400096806C46002387F82C30022387F82D309E
:104B50008AB0694611F1100237D012251AB1042D1E
:104B600001DD824B4B61002387F82830022387F850
:104B700029306ABB112D45DD122362B1042087F86C
:104B80002C00002087F82D0087F82E00012087F8E0
:104B90002F00F86A086128F0010828F0020828F0C0
:104BA000040828F03808022161F38818C3F30A03C7
:104BB00063F35328C8F31308002341466C4801F0FF
:104BC00011FCA546A9F102093CE06FF00045C5E7DC
:104BD0002B46082D01DD386988610C2B01DDC1F8F9
:104BE0001CB001F12003002009E000F1300C07F1B6
:104BF000280EF4441CF830CC03F801CB0130012816
:104C0000F3D9B7E76FF01B03B7E701233AE0D7F812
:104C1000803013F0020F15D0002322461946B869E0
:104C2000FFF718FCD7F8843053B17B69D7F8882098
:104C3000934205D2D7F8842022F8130001337B6118
:104C4000013881440AF1010A35467B6A9A451CD233
:104C50002E4616F802BB6B78FA6952F823402046BC
:104C6000FFF7CCFB05463B6A002B7FF463AF002DBA
:104C7000CDD0D7F8803013F0010FCDD1FB68002BD9
:104C8000C3D10223A9EB0309DCE74C4618E7344CF7
:104C900040F22D432246374933480FF016F940F2CF
:104CA0002D4120460FF008F9B9F1000F19D0D7F8BF
:104CB000803013F0040F18D0B9F1100F04D8B246A9
:104CC00007F134000026D5E6254C4FF487632246D1
:104CD000294925480FF0F9F84FF4876120460FF075
:104CE000EBF84FF0000A5646C8E64FF0000A564669
:104CF000C4E6594638690FF0A4F8002866D051E0A0
:104D0000174C40F2614322461C4917480FF0DDF86A
:104D100040F2614120460FF0CFF8D7F8803013F011
:104D2000040F3FD0BAF10F0F0CD80AF101030AF1BA
:104D3000300207F1280102EB010A0AF8249C5FFA0D
:104D400083FA2FE0064C40F2664322460C4906489F
:104D50000FF0BBF840F2664120460FF0ADF800BFFF
:104D6000F8840108B485010880780108D08501081D
:104D7000D07501087486010894860108B48601087C
:104D8000D4860108D7F8803013F0020F3ED00F2EE2
:104D90002FD8731C06F1300207F12801561806F8C7
:104DA000149CDEB208F1010825467B6A984551D271
:104DB0002C4614F802BB95F80190FB6953F82900C2
:104DC000FFF71CFB05463B6A002B92D1002DD9D082
:104DD000D7F8803013F0010F9FD00F2E90D8731C9E
:104DE00006F1300207F12801561806F8149CDEB2CD
:104DF000D8E7664C40F26F432246654965480FF09C
:104E000064F840F26F4120460FF056F8BAF10F0FE8
:104E100013D80AF101030AF1300207F128010A440C
:104E200002F824BC0AF1020A5FFA8AFA07F1580272
:104E300052FA83F303F8249CB4E7544C40F27443D1
:104E40002246554953480FF040F840F2744120463D
:104E50000FF032F8D7F80490D7F81CB09BF8003068
:104E600087F854309BF80130334487F85530D7F831
:104E7000803013F0020F0DD1CAF3470387F8573083
:104E8000D7F8803013F0010F06D113F0040F3AD198
:104E9000002302E00023F1E7002387F85630DBF817
:104EA00000003863786DCBF80000FA68B96858469E
:104EB000D7F81880C047041EFFF602AE386BCBF857
:104EC0000000FA68514607F13400C246C047002886
:104ED00055DB04EB0008B96849447B6A01EB4301E8
:104EE000D7F80C904A467B69591A2846D047041EC9
:104EF000FFF6E6AD08EB04054FF00008C7F824B054
:104F0000B346544619E05346C7E74FF0000A01E0A4
:104F10004FF0000A4A46012107F12C00A047002863
:104F20002FDB05445346324649462046FFF792FAA6
:104F3000002828DB054408F10108D84518D208F1FB
:104F4000300307F12802134413F8143C87F82C307F
:104F50007A6A52F82360D7F88430002BD5D0D7F87E
:104F600088309845D4D2D7F8843033F818A0D1E7E8
:104F7000FA6800210846BB6998472C46A0E504461C
:104F80009EE504469CE504469AE500BFF8840108C6
:104F9000B486010880780108D4860108014B1860A6
:104FA000704700BF3803002038B504460D46202264
:104FB00000210DF0D1FAEB68E361AB68A3612B68C7
:104FC00023626B6863620022A2622A6922612BB1AC
:104FD000591E0B4202D142F00102226104F12C0061
:104FE0000122002111F018FE00B938BD054C302314
:104FF0002246054905480EF068FF302120460EF094
:105000005BFF00BF0887010830870108807801082E
:105010002DE9F04F89B0029299460023079305933A
:10502000436A8B42C0F00181834688464FF0000AF4
:105030000126CDF80CA065E07F4D8F232A467F49DD
:105040007F480EF042FF21467E480EF03EFF8F2142
:1050500028460EF031FF514658460FF068F80023FD
:10506000059367E0DBF82030DBF8002003EB8201DA
:10507000039113F8221021F0010103F82210C9B2A4
:1050800021F0020103F82210DBF800304344DBF882
:10509000102012F0010F05D1DBF824108B4205D34C
:1050A0005B1A03E0DBF8241001390B40CBF8003029
:1050B000DBF80C108B4201D0002609E042F0080218
:1050C000CBF81020002603E058460EF066FF2E466F
:1050D000019D20460CF032FA80F0010010F0FF0F25
:1050E00040F0928085F31188BFF36F8F079931B13B
:1050F000DBF818300BB15846984700230793002E71
:1051000000F095800BF11404EFF31187102383F363
:105110001288BFF36F8F20460CF000FA80F0010078
:1051200010F0FF0F88D120460CF066FA0197059A1F
:10513000002A90D106A958460EF0D5FE05460699DC
:1051400041458FD20028BFD1029B59EA03030BD1FE
:10515000002EBDD0DBF800A005AB07AA0699584683
:105160000EF04EFF0646B3E711F039FE0028EFD1EE
:10517000002FEDD120460CF0E1F980F0010010F095
:10518000FF0F21D187F31188BFF36F8F0BF12C0034
:10519000029A4B4609F074FD0646EFF31185102381
:1051A00083F31288BFF36F8F20460CF0B7F980F0BD
:1051B000010010F0FF0F18D120460CF01DFA0195E8
:1051C000B6FA86F6760983E71B4D40F23D132A4670
:1051D0001D491B480EF079FE21461C480EF075FE55
:1051E00040F23D1128460EF067FE134D8F232A46EC
:1051F000124913480EF069FE214612480EF065FE72
:105200008F2128460EF058FE0B4D40F23D132A46E2
:105210000D490B480EF059FE21460C480EF055FE84
:1052200040F23D1128460EF047FE002303930398F9
:1052300009B0BDE8F08F00BF3C8701086C8701080A
:1052400080780108848701089C870108B4870108D9
:105250002DE9F04104460D46C3690846984780464B
:1052600004F11406EFF31187102383F31288BFF3C0
:105270006F8F30460CF052F980F0010313F0FF0FEE
:1052800012D130460CF0B8F92B7843F001032B70A3
:10529000636803EB0800236913F0010F13D1636AFD
:1052A000984213D3C01A11E01A4C8F2322461A4990
:1052B0001A480EF00AFE314619480EF006FE8F21FC
:1052C00020460EF0F9FD636A013B184060602046FD
:1052D0000EF041FE30460CF031F980F0010010F084
:1052E000FF0F05D187F31188BFF36F8FBDE8F08101
:1052F000084C40F23D1322460A4908480EF0E5FDED
:10530000314609480EF0E1FD40F23D1120460EF015
:10531000D3FD00BF3C8701086C8701088078010835
:10532000848701089C870108B48701082DE9F043B0
:1053300083B0044600274BE0544C8F232246544947
:1053400054480EF0C2FD294653480EF0BEFD8F2191
:1053500020460EF0B1FD53F82210890869D15EE0B5
:10536000626A013A1340A36020460EF003FE012753
:10537000B9461EE013F8221041F0020103F8221092
:10538000D4F80890E369404698474844236913F0ED
:10539000010F04D1636A984204D3C01A02E0636A21
:1053A000013B1840A0604FF0000902E04FF00009F7
:1053B000C84628460CF0C2F880F0010010F0FF0F3C
:1053C00046D186F31188BFF36F8FB9F1000F50D02B
:1053D00004F11405EFF31186102383F31288BFF351
:1053E0006F8F28460CF09AF880F0010010F0FF0F44
:1053F000A2D128460CF000F901A920460EF087FD45
:10540000236AA26803EB820801990029CED013F821
:10541000221011F0030117D002299CD0002113F8AB
:10542000220010F0010FA5D119B9E3694046984751
:105430000146A3680B44226912F0010F90D1626A01
:10544000934290D39B1A8EE74FF00009C846B0E70D
:105450000E4C40F23D13224610490E480EF035FD29
:1054600029460F480EF031FD40F23D1120460EF066
:1054700023FD17B1B8F1000F03D0404603B0BDE8DB
:10548000F08304F12C0009F08DFBF6E73C8701085E
:105490006C87010880780108848701089C870108CF
:1054A000B48701082DE9F04104460D46C36908465A
:1054B0009847064604F11407EFF31188102383F38D
:1054C0001288BFF36F8F38460CF028F880F0010087
:1054D00010F0FF0F15D138460CF08EF82B7823F022
:1054E00001032B70236913F0020F19D0236AE268BD
:1054F00003EB8203AB4213D02B6866F39F032B6050
:105500001AE0264C8F232246254926480EF0DDFC62
:10551000394625480EF0D9FC8F2120460EF0CCFCF0
:105520002B7823F002032B70E268A3689A4215D00F
:10553000314620460EF01EFD38460BF0FFFF80F08E
:10554000010010F0FF0F18D188F31188BFF36F8F9F
:1055500004F12C0009F026FBBDE8F08133442269F8
:1055600012F0010F04D1626A934204D39B1A02E045
:10557000626A013A1340A360DAE7084C40F23D1337
:1055800022460A4907480EF0A0FC394608480EF0AA
:105590009CFC40F23D1120460EF08EFC3C87010839
:1055A0006C87010880780108848701089C870108BE
:1055B000B487010870B582B0044600F11405EFF31A
:1055C0001186102383F31288BFF36F8F28460BF0E8
:1055D000A5FF80F0010010F0FF0F18D128460CF055
:1055E0000BF801A920460EF092FC28460BF0A6FF0E
:1055F00080F0010010F0FF0F18D186F31188BFF37F
:105600006F8F0198003818BF012002B070BD104C98
:105610008F2322460F4910480EF057FC29460F48A9
:105620000EF053FC8F2120460EF046FC084C40F251
:105630003D1322460A4908480EF047FC294609480E
:105640000EF043FC40F23D1120460EF035FC00BF49
:105650003C8701086C87010880780108848701086D
:105660009C870108B48701082DE9F04182B080468B
:105670000E46154600272A4601A940460EF0A9FD10
:10568000044640B1024631460198FAF7A5FD274489
:1056900026442D1BEFD13A4608F1040140460EF096
:1056A000BDFD18B9384602B0BDE8F081054C49236C
:1056B0002246054905480EF008FC492120460EF017
:1056C000FBFB00BFD88701083087010880780108FC
:1056D0002DE9F04182B080460E461546002702E0D3
:1056E00027442D1B0FD02A4601A940460EF084FD09
:1056F000044640B1002EF3D0024601993046FAF735
:105700006BFD2644ECE73A4608F10A0140460EF0EC
:1057100085FD18B9384602B0BDE8F081054C642318
:105720002246054905480EF0D0FB642120460EF0C4
:10573000C3FB00BFD88701083087010880780108C3
:10574000034A536843F0020353600020704700BFD0
:10575000002004E008B502490EF081FD08BD00BF3D
:105760006D58000810B560B1024683681548834241
:1057700015D21548834212D31B68FBB110469847D7
:1057800010BD124CB6232246114912480EF09DFB63
:1057900011480EF09AFBB62120460EF08DFB0B4C03
:1057A000B62322460D490B480EF08FFB0C490D48DD
:1057B0000EF08BFBB62120460EF07EFB6FF05700FB
:1057C000DEE700BF30750108147501080488010880
:1057D0006C78010880780108A078010840880108E9
:1057E000BC890108F479010810B560B102468368EC
:1057F0001548834215D21548834212D35B68FBB12A
:105800001046984710BD124CCC232246114912482D
:105810000EF05BFB11480EF058FBCC2120460EF039
:105820004BFB0B4CCC2322460D490B480EF04DFB95
:105830000C490D480EF049FBCC2120460EF03CFBF4
:105840006FF05700DEE700BF3075010814750108DE
:10585000048801086C78010880780108A0780108A4
:1058600040880108BC890108F479010808B50B4695
:1058700041680C31012B11D007D81BB90948FFF73B
:10588000B3FF0EE06FF085000BE0023BDBB2012BB3
:1058900001D8002005E06FF0850002E00148FFF725
:1058A00061FF08BD2470010810B5082808D8064B10
:1058B00053F82040204611F072F918B1204610BD6F
:1058C0000024FBE70024F9E7BCCB0108084B1A6869
:1058D00042F480721A601A6842F400721A601A6800
:1058E00042F480621A60034B034A1A60704700BF9B
:1058F000003C0240840300200024F40010B14368FF
:105900005879704710B5064C4FF4A67322460549E6
:1059100005480EF0DAFA4FF4A67120460EF0CCFAE4
:10592000848A0108BC8A01088078010810B14368A4
:105930001971704710B5054CF823224604490548F3
:105940000EF0C3FAF82120460EF0B6FA848A010858
:10595000BC8A01088078010810B540B1044603688C
:10596000DB6803B19847636801229A7110BD054C4A
:10597000A3232246044905480EF0A7FAA321204696
:105980000EF09AFA848A0108BC8A0108807801081E
:1059900010B5034640B1B0FA80F040091A681269A8
:1059A0000AB11846904710BD054CB7232246054959
:1059B00005480EF08AFAB72120460EF07DFA00BFA6
:1059C000848A0108BC8A01088078010810B518B1E2
:1059D00002689268904710BD054CE92322460549AC
:1059E00005480EF072FAE92120460EF065FA00BF74
:1059F000848A0108BC8A01088078010810B520B1AA
:105A00000268526802B1904710BD054CDB23224664
:105A1000044905480EF059FADB2120460EF04CFAF5
:105A2000848A0108BC8A01088078010810B520B179
:105A300071B102681268904710BD0B4CCB2322460F
:105A40000A490B480EF041FACB2120460EF034FAF9
:105A5000054CCC232246074905480EF036FACC21E6
:105A600020460EF029FA00BF848A0108BC8A01088A
:105A700080780108D48A010838B50546144C00E046
:105A80001034144B9C4212D8124B9C421FD2204619
:105A9000FFF734FF0028F3D0294620460EF0E4FC3F
:105AA0000028EDD029462046FFF7C0FFE8E70A4C62
:105AB00040F20A232246094909480EF006FA09482D
:105AC0000EF003FA40F20A2120460EF0F5F938BD37
:105AD000A8760108B8760108E88A0108188B010841
