:020000040800F2
:10000000802D0020B929000849C40008A52900084E
:10001000A5290008A5290008A5290008000000005E
:10002000000000000000000000000000ED290008B2
:10003000A5290008000000000D2C0008C56000087C
:10004000A12C0008A12C0008A12C0008A12C00085C
:10005000A12C0008A12C0008A12C0008A12C00084C
:10006000A12C0008A12C0008A12C0008A12C00083C
:10007000A12C0008A12C0008A12C0008A12C00082C
:10008000A12C0008A12C0008A12C0008A12C00081C
:10009000A12C0008A12C0008A12C0008A12C00080C
:1000A000A12C0008A12C0008A12C0008A12C0008FC
:1000B000A12C0008A12C0008A12C0008A12C0008EC
:1000C000A12C0008A12C0008A12C0008A12C0008DC
:1000D000A12C0008A12C0008A12C0008A12C0008CC
:1000E000A12C0008A12C0008A12C0008A12C0008BC
:1000F000A12C0008A12C0008A12C0008A12C0008AC
:1001000030B490F800F020F007016FF0000C10F010
:10011000070491F820F040F048804FF000046FF0A1
:100120000700D1E9002391F840F000F1080082FABD
:100130004CF2A4FA8CF283FA4CF3A2FA8CF34BBB88
:10014000D1E9022382FA4CF200F10800A4FA8CF201
:1001500083FA4CF3A2FA8CF3E3B9D1E9042382FACF
:100160004CF200F10800A4FA8CF283FA4CF3A2FAE4
:100170008CF37BB9D1E9062301F1200182FA4CF21C
:1001800000F10800A4FA8CF283FA4CF3A2FA8CF383
:10019000002BC6D0002A04BF04301A4612BAB2FAA5
:1001A00082F200EBD20030BC7047D1E9002304F0AA
:1001B0000305C4F100004FEAC50514F0040F91F8DF
:1001C00040F00CFA05F562EA05021CBF63EA05037C
:1001D00062464FF00004AAE7844641EA000313F0A8
:1001E00003036DD1403A41D351F8043B40F8043B3E
:1001F00051F8043B40F8043B51F8043B40F8043B01
:1002000051F8043B40F8043B51F8043B40F8043BF0
:1002100051F8043B40F8043B51F8043B40F8043BE0
:1002200051F8043B40F8043B51F8043B40F8043BD0
:1002300051F8043B40F8043B51F8043B40F8043BC0
:1002400051F8043B40F8043B51F8043B40F8043BB0
:1002500051F8043B40F8043B51F8043B40F8043BA0
:1002600051F8043B40F8043B403ABDD2303211D340
:1002700051F8043B40F8043B51F8043B40F8043B80
:1002800051F8043B40F8043B51F8043B40F8043B70
:10029000103AEDD20C3205D351F8043B40F8043B40
:1002A000043AF9D2043208D0D2071CBF11F8013B3E
:1002B00000F8013B01D30B8803806046704700BF04
:1002C000082A13D38B078DD010F003038AD0C3F113
:1002D0000403D21ADB071CBF11F8013B00F8013BF5
:1002E00080D331F8023B20F8023B7BE7043AD9D3B4
:1002F000013A11F8013B00F8013BF9D20B78037089
:100300004B7843708B788370604670474FF0FF0CDA
:100310001CEAD0521EBF1CEAD15392EA0C0F93EA9A
:100320000C0F6FD01A4480EA010C400218BF5FEA3C
:1003300041211ED04FF0006343EA501043EA5111AF
:10034000A0FB01310CF00040B1F5000F3EBF4900A9
:1003500041EAD3715B0040EA010062F17F02FD2AAD
:100360001DD8B3F1004F40EBC25008BF20F0010090
:10037000704790F0000F0CF0004C08BF49024CEAA7
:10038000502040EA51207F3AC2BFD2F1FF0340EA39
:10039000C250704740F400004FF00003013A5DDCAA
:1003A00012F1190FDCBF00F000407047C2F10002EB
:1003B000410021FA02F1C2F1200200FA02FC5FEAD8
:1003C000310040F1000053EA4C0308BF20EADC7022
:1003D000704792F0000F00F0004C02BF400010F494
:1003E000000F013AF9D040EA0C0093F0000F01F041
:1003F000004C02BF490011F4000F013BF9D041EA63
:100400000C018FE70CEAD15392EA0C0F18BF93EA64
:100410000C0F0AD030F0004C18BF31F0004CD8D18E
:1004200080EA010000F00040704790F0000F17BF15
:1004300090F0004F084691F0000F91F0004F14D05B
:1004400092EA0C0F01D142020FD193EA0C0F03D1B3
:100450004B0218BF084608D180EA010000F00040B6
:1004600040F0FE4040F40000704740F0FE4040F491
:100470004000704780F0004002E000BF81F0004182
:1004800042001FBF5FEA410392EA030F7FEA226C3A
:100490007FEA236C6AD04FEA1262D2EB1363C1BFCA
:1004A000D218414048404140B8BF5B42192B88BF39
:1004B000704710F0004F40F4000020F07F4018BF5C
:1004C000404211F0004F41F4000121F07F4118BF7C
:1004D000494292EA030F3FD0A2F1010241FA03FC24
:1004E00010EB0C00C3F1200301FA03F100F000430C
:1004F00002D5494260EB4000B0F5000F13D3B0F1D4
:10050000807F06D340084FEA310102F10102FE2A42
:1005100051D2B1F1004F40EBC25008BF20F00100B2
:1005200040EA03007047490040EB0000013A28BF51
:10053000B0F5000FEDD2B0FA80FCACF1080CB2EBD4
:100540000C0200FA0CF0AABF00EBC2505242184352
:10055000BCBFD0401843704792F0000F81F40001F7
:1005600006BF80F400000132013BB5E74FEA4103CA
:100570007FEA226C18BF7FEA236C21D092EA030F36
:1005800004D092F0000F08BF0846704790EA010FB0
:100590001CBF0020704712F07F4F04D1400028BFDD
:1005A00040F00040704712F100723CBF00F50000BF
:1005B000704700F0004343F0FE4040F400007047F5
:1005C0007FEA226216BF08467FEA236301464202A1
:1005D00006BF5FEA412390EA010F40F480007047B4
:1005E0004FF0000304E000BF10F0004348BF40425A
:1005F0005FEA000C08BF704743F0964301464FF096
:1006000000001CE050EA010208BF70474FF00003F1
:100610000AE000BF50EA010208BF704711F0004332
:1006200002D5404261EB41015FEA010C02BF844602
:100630000146002043F0B64308BFA3F18053A3F561
:100640000003BCFA8CF2083AA3EBC25310DB01FAA8
:1006500002FC634400FA02FCC2F12002BCF1004F2C
:1006600020FA02F243EB020008BF20F001007047BD
:1006700002F1200201FA02FCC2F1200250EA4C0011
:1006800021FA02F243EB020008BF20EADC70704757
:100690004FF0FF3C06E000BF4FF0010C02E000BF4E
:1006A0004FF0010C4DF804CD4FEA40024FEA4103F0
:1006B0007FEA226C18BF7FEA236C11D001B052EAA6
:1006C000530C18BF90EA010F58BFB2EB030088BF6C
:1006D000C81738BF6FEAE17018BF40F001007047DB
:1006E0007FEA226C02D15FEA402C05D17FEA236CBD
:1006F000E4D15FEA412CE1D05DF8040B704700BF04
:10070000844608466146FFE70FB5FFF7C9FF00289A
:1007100048BF10F1000F0FBD4DF808EDFFF7F4FFD3
:100720000CBF012000205DF808FB00BF4DF808ED6C
:10073000FFF7EAFF34BF012000205DF808FB00BF8F
:100740004DF808EDFFF7E0FF94BF012000205DF8B1
:1007500008FB00BF4DF808EDFFF7D2FF94BF012062
:1007600000205DF808FB00BF4DF808EDFFF7C8FF5B
:1007700034BF012000205DF808FB00BF4FEA4002B3
:10078000B2F1FE4F0FD34FF09E03B3EB12620DD9BF
:100790004FEA002343F0004310F0004F23FA02F029
:1007A00018BF404270474FF00000704712F1610FD0
:1007B00001D1420205D110F0004008BF6FF00040A7
:1007C00070474FF00000704753B94AB9002908BF7D
:1007D00000281CBF4FF0FF314FF0FF3000F00CB885
:1007E000ADF1080C6DE904CE00F008F8DDF804E086
:1007F000DDE9022304B07047704700BF2DE9F047E0
:100800008C468E46089E154604461946002B40F03D
:10081000D080724547D9B2FA82F74FB1C7F12003B1
:100820000EFA07FC20FA03F3BD4043EA0C0CBC406F
:100830004FEA154EA8B2BCFBFEF8230C0EFB18CCF9
:1008400008FB00F943EA0C43994528D9EB1808F155
:10085000FF3204D2994502D9A8F102022B44A3EB3E
:100860000903A4B2B3FBFEFC0EFB1C330CFB00F02F
:1008700044EA0344A04214D92C190CF1FF3304D2EA
:10088000A04202D9ACF102032C44241A43EA0240EC
:100890001EB1FC40002334607360BDE8F08742461F
:1008A000DDE76346F1E7002A79D0B2FA82F3002B44
:1008B0003FD01946C1F1200302FA01F52EFA03F2E6
:1008C0000EFA01FE20FA03F343EA0E034FEA154E37
:1008D00000FA01F4B2FBFEFCAFB20EFB1C201A0CB6
:1008E0000CFB07F842EA004290455AD9AA180CF1CD
:1008F000FF3004D2904502D9ACF102002A44A2EBA9
:1009000008029BB2B2FBFEFC0EFB1C220CFB07F79D
:1009100043EA02439F4246D9EB180CF1FF3204D25E
:100920009F4202D9ACF102022B44DB1B42EA004297
:1009300002E0AEEB020301224FEA154EAFB2B3FB69
:10094000FEFC200C0EFB1C330CFB07F840EA0343B3
:1009500098452AD9EB180CF1FF3004D2984502D9FA
:10096000ACF102002B44A3EB0803A4B2B3FBFEFCE2
:100970000EFB1C330CFB07F744EA0344A74216D9CD
:100980002C190CF1FF3304D2A74202D9ACF10203B7
:100990002C44E41B43EA00400F46114678E71F2130
:1009A00088E76046ABE76246BFE76046DBE7634641
:1009B000EFE7734506D916B9002108466DE7C6E989
:1009C000000EF9E7B3FA83F787B9734501D3824282
:1009D00007D8841A6EEB030301209C461EB9002140
:1009E0005BE73846FAE7C6E9004CF8E7C7F1200CA8
:1009F000BB4022FA0CF51D4320FA0CF12EFA0CF341
:100A00000EFA07FE41EA0E014FEA154900FA07F413
:100A1000B3FBF9F81FFA85FE09FB18300B0C08FB35
:100A20000EFA43EA00439A4502FA07F240D9EB185E
:100A300008F1FF3004D29A4502D9A8F102002B44F4
:100A4000A3EB0A0389B2B3FBF9F809FB183308FBDF
:100A50000EFE41EA03418E452CD9691808F1FF3397
:100A600004D28E4502D9A8F10203294443EA00408A
:100A7000A0FB0298A1EB0E014145CE46434602D3AE
:100A800006D14C4504D2B9EB020E68EB05030138E0
:100A9000002EA4D0B4EB0E0261EB030101FA0CFCB2
:100AA00022FA07F34CEA0303F940C6E9003196E75E
:100AB0004046C5E74346D9E708B5074B18680AF032
:100AC0003EFE00F0CFFC00F00FFB4FF496700021CB
:100AD00008F054FDF1E700BFB80800200023032B05
:100AE0000DD803EB4302074931F81220824201D0AE
:100AF0000133F4E703EB430301EB430070470020AD
:100B0000704700BFF8F10008FF2805D008B5034B77
:100B10001B6803B1984708BD704700BFB0070020AD
:100B200010B5044C23689878FFF7EEFF002323608C
:100B300010BD00BFAC07002008B5034B1B68187937
:100B4000FFF7E2FF08BD00BFA807002038B58568A1
:100B5000C088FFF7C3FF002842D00446012D3CD1D6
:100B6000204B1B6883421AD0E378FF2B31D01E4DF7
:100B7000284607F0B7F91B4B1C604FF47A6200233C
:100B8000284607F015F92379FF2B29D0174B1C6055
:100B90004FF4FA520023164807F00AF920E01248F1
:100BA00007F0A0F90028DFD1114807F09BF90D4BA1
:100BB00000221A60E078FFF7A7FF2379FF2B0FD000
:100BC0000A4B1C604FF4FA520023094807F0F0F872
:100BD00006E0A078FFF798FFD5E7054807F082F90F
:100BE00038BD00BFAC07002088030020A807002004
:100BF0005803002008B50549054807F023F80549C2
:100C0000054807F01FF8002008BD00BF210B0008B1
:100C100088030020390B000858030020014B18609E
:100C2000704700BFB007002090F82530064AA2FBAD
:100C3000031202F0FC0101EB92029B1ADBB2034AA1
:100C400052F82300704700BFCDCCCCCC442401081F
:100C500008B5054801F0BCFA0448FFF7DFFF044B74
:100C600001221A70002008BD8CEE00080D0F00084C
:100C70005D1B002000B583B00B468DF804200022D8
:100C80008DF80520024601A902480BF0C7FB03B00E
:100C90005DF804FB8CEE00082DE9F0410646384C67
:100CA0000021204601F086FA00231A4631682046CA
:100CB0000BF0B4FB3469002302E064690133DBB25A
:100CC000727E9A4201D9002CF7D130460AF0FAFA26
:100CD0008046002719E02B4600222A4928480BF0BD
:100CE0009DFB25E020460AF072FA58B32B460E22EF
:100CF000254923480BF092FB2B46202221682048EF
:100D00000BF08CFB64690137FFB214B3022F20D8BB
:100D10003D01EDB21235EDB2737E3B44DBB2327E63
:100D20009A42D8D02B460022184915480BF076FB82
:100D30002369002BD6D02B460E22154910480BF004
:100D40006DFBD9E72B460E2212490D480BF066FBCE
:100D5000D2E7B8F1030F05D9737E2BB9737E033345
:100D6000434507DBBDE8F0815E2212217820FFF7C2
:100D700081FFF3E7762232217820FFF77BFFF1E74E
:100D80008CEE000810F200081CF2000814F20008B3
:100D900018F2000820F200082DE9F04782B08046E2
:100DA000894617461D4600211046FFF7BFFC40B993
:100DB000BA465046FFF7E2FC06464FF0000C01240D
:100DC00007E007F1004AF4E704EB840464000CF147
:100DD000010CAC45F8DB3046FFF706FC01465046F7
:100DE000FFF74CFB82462046FFF7FEFB01465046CC
:100DF000FFF78CFA4FF07C51FFF742FBFFF7BEFC88
:100E00008246844202DC0136A0EB040A0021384607
:100E1000FFF78CFC58B9CDF804A000953346094A79
:100E20004946404609F03EFC02B0BDE8F087CDF8E7
:100E300004A000953346044A4946404609F032FC76
:100E4000F2E700BF30F2000824F20008F8B50C46C3
:100E5000154690F8243043B9C26932B11368154A77
:100E60002946204609F01EFC06E0012B05D02D2363
:100E7000237063700023A370F8BD036A002BF6D0C3
:100E80001E683046FFF77AFC0746FFF7ADFB314698
:100E9000FFF742FC30B13B46064A2946204609F09E
:100EA00001FCE9E70223324629462046FFF774FF9A
:100EB000E2E700BF38F2000810B4044608460A60B2
:100EC0000B71019B8B60CC6000230B614B610B7637
:100ED0004B76CB610B6281F82430012281F825200A
:100EE0008B62CB6234B123694BB11A465B69002B2C
:100EF000FBD15061044B1B681BB110BC70472161D2
:100F0000F8E7014B1860F8E7D407002010B5704BE4
:100F10001C68002C00F0D380052800F2D080DFE8A8
:100F200010F03400060062009100B300CA00694B63
:100F30001B781BB120460AF04AF9F8B92369002B47
:100F400000F0BD8020460AF0BDF9002800F0B7800F
:100F5000237E013393FBF0F100FB1133DBB22376E8
:100F6000627E02329A4201DA9A1E6276627E934271
:100F700000D26376584B01221A70A0E020460AF096
:100F80006CF9554B01221A7099E0524B1B781BB13A
:100F900020460AF01CF9E0B92369002B00F08F808D
:100FA00020460AF08FF9002800F08980237EBBB923
:100FB000421ED3B22376627E9A4200D96376627E65
:100FC00002329A4201DA023B6376434B01221A70E5
:100FD00075E020460AF00CF93F4B01221A706EE0D2
:100FE000013BDBB2E6E72269F2B1002302E052697D
:100FF0000133DBB2217E994201D9002AF7D1002AC0
:101000005DD0364B1B68062B05DC013333490B6082
:10101000334941F823402E4B1A602E4B00221A70A0
:101020002D4B01221A704AE020460AF0D0F8002821
:1010300045D0284A137883F001031370264B012210
:101040001A703CE0234B1B7833B1224B00221A70FC
:10105000214B01221A7032E0204B1B68002B0BDB66
:10106000591E1E4A11601E4A52F82320184B1A605E
:10107000194B01221A7022E0E36803B3144A13608B
:10108000154B01221A701AE0124B1B78BBB1204697
:101090000AF09DF898B194F825200132114B83FB9A
:1010A00002135B1003EB8303D31A84F825300A4B39
:1010B00001221A7003E020460AF089F800B910BD39
:1010C00020460AF008F9044B01221A70F7E700BF26
:1010D000D40700205C1B00205D1B0020A002002024
:1010E000B4070020676666663F4B1B78002B7AD0FA
:1010F0003E4B1B68002B76D030B58BB000213A4BAD
:1011000019703B4801F03EF8384B1868036933B159
:10111000FFF7C2FD364800F0D7FF0BB030BD836843
:10112000002B3ED09847314B18680AF050F8002841
:10113000F0D02F4C0021204601F03CF805AD1422E0
:1011400029462A4B1868FFF781FE302300222946E2
:1011500020460BF063F9274B1B78002B3CD0234B28
:101160001868FFF761FD0446FFF708FB0546FFF727
:101170003BFA2146FFF7D0FA08B32B461E4A0C2152
:1011800002A809F08FFA1A4C30233C2202A920460B
:101190000BF044F930236422184920460BF03EF945
:1011A000B8E7134C0021204601F004F80F4B1968F2
:1011B00018230022096820460BF030F9B3E7022318
:1011C000224608216846FFF7E7FD6B460C4A0C21D2
:1011D00002A809F067FAD6E73023482209490448F3
:1011E0000BF01CF996E770475D1B0020D407002028
:1011F0008CEE00085C1B00203CF200084CF200085A
:1012000044F2000854F2000870B582B0164D002474
:1012100000942346154A29462046FFF74DFE144EFA
:1012200000942346134A31462846FFF745FE124BE9
:1012300000930123114A12493046FFF73DFE114D3C
:10124000114B00930123114A29463046FFF734FE23
:101250000F4BEB6185F82440AC626423EB623223D0
:101260002B63204602B070BD800800205CF20008AD
:101270004808002064F20008B51200086CF200086B
:1012800010080020D80700209512000874F200080A
:10129000A402002038B50446054D0021284600F080
:1012A00089FF00231A46216828460BF0B7F838BD9D
:1012B0008CEE000838B50546084C0021204600F0A9
:1012C00079FF00231A46296820460BF0A7F814235B
:1012D0000022034920460BF0A1F838BD8CEE00082F
:1012E0007CF20008034668B179B1106880B190685B
:1012F00088B159609A600020187398735873074A30
:101300001A6070474FF0FF3070474FF0FF30704762
:101310004FF0FF3070474FF0FF307047842C0108CA
:1013200008B5064A06490748FFF7DCFF18B9064B1F
:10133000044A1A6008BD4FF0FF30FBE7B42C0108E7
:10134000BC080020180F0020B808002010B5064C7B
:101350000022114620680AF0ACF91422012120680D
:101360000AF0A7F9002010BDB8080020C2788B1F32
:101370009A4241D100B583B000231A469E4608E048
:1013800010F803C0F4445FFA8CFE7244D2B2013309
:10139000DBB2A1F1020C6345F2DB10F80C307345AF
:1013A00016D10139435C934212D1837873B9ADF8F9
:1013B00004308DF80630037953B9437943B9837902
:1013C00033B90E4B18680AF0CBF901E0E02B02D0DC
:1013D00003B05DF804FB01A90023ADF804308B7065
:1013E00083788DF804308DF805E08DF80620034BE6
:1013F00018680AF04DF9EBE7704700BFB808002005
:1014000070B582B00C46154638B101281BD10B7857
:101410005A1C0A700122EA5415E001AE0023ADF80F
:1014200004308DF806303146084B18680AF065F92B
:101430002378EA18BDF804009DF80610E852917070
:1014400023780333237002B070BD00BFB8080020BA
:1014500008B50A460146024B18680AF092F908BD21
:10146000280F002010B5064C20680AF057F900211B
:1014700020680AF031F9E02120680AF02DF910BD4A
:10148000B808002010B550B1836815498B4216D2B8
:1014900014498B4213D31B6C03B1984710BD124CF7
:1014A00040F25B132246114911480AF04CFB1148E7
:1014B0000AF049FB40F25B1120460AF03BFB0A4C64
:1014C00040F25B1322460C4909480AF03CFB0B49E9
:1014D0000B480AF038FB40F25B1120460AF02AFB69
:1014E000A0F100083CF100088CF20008CCF20008E2
:1014F000E0F2000800F3000814F3000854F40008B8
:101500005CF4000810B550B1836815498B4216D2BF
:1015100014498B4213D35B6B03B1984710BD124C37
:1015200040F231132246114911480AF00CFB1148D0
:101530000AF009FB40F2311120460AF0FBFA0A4C8E
:1015400040F2311322460C4909480AF0FCFA0B49D3
:101550000B480AF0F8FA40F2311120460AF0EAFA94
:10156000A0F100083CF100088CF20008CCF2000861
:10157000E0F2000800F3000814F3000854F4000837
:101580005CF4000810B550B1836815498B4216D23F
:1015900014498B4213D3DB6D03B1984710BD124C35
:1015A0004FF4DE732246114911480AF0CCFA114873
:1015B0000AF0C9FA4FF4DE7120460AF0BBFA0A4C71
:1015C0004FF4DE7322460C4909480AF0BCFA0B4975
:1015D0000B480AF0B8FA4FF4DE7120460AF0AAFA76
:1015E000A0F100083CF100088CF20008CCF20008E1
:1015F000E0F2000800F3000814F3000854F40008B7
:101600005CF4000810B550B1836817498B4216D2BC
:1016100016498B4213D3DB6B13B3984710BD144CA0
:1016200040F24B132246134913480AF08CFA134830
:101630000AF089FA40F24B1120460AF07BFA0C4C72
:1016400040F24B1322460E490B480AF07CFA0D4932
:101650000D480AF078FA40F24B1120460AF06AFA77
:101660006FF05700DAE700BFA0F100083CF1000876
:101670008CF20008CCF20008E0F2000800F3000849
:1016800014F3000854F400085CF4000810B560B1CD
:10169000844683681548834215D21548834212D385
:1016A000DB6AFBB16046984710BD124CE923224625
:1016B000114912480AF047FA11480AF044FAE921A0
:1016C00020460AF037FA0B4CE92322460D490B4815
:1016D0000AF039FA0C490D480AF035FAE92120469A
:1016E0000AF028FA6FF05700DEE700BFA0F100080B
:1016F0003CF100088CF20008CCF20008E0F200088F
:1017000000F3000814F3000854F400085CF4000827
:1017100010B550B1836815498B4216D214498B42DB
:1017200013D39B6B03B1984710BD124C4FF49F73BA
:101730002246114911480AF006FA11480AF003FA44
:101740004FF49F7120460AF0F5F90A4C4FF49F734D
:1017500022460C4909480AF0F6F90B490B480AF0F1
:10176000F2F94FF49F7120460AF0E4F9A0F1000865
:101770003CF100088CF20008CCF20008E0F200080E
:1017800000F3000814F3000854F400085CF40008A7
:1017900010B550B1836817498B4216D216498B4257
:1017A00013D3DB6C13B3984710BD144C4FF4C273C2
:1017B0002246134913480AF0C6F913480AF0C3F940
:1017C0004FF4C27120460AF0B5F90C4C4FF4C273C5
:1017D00022460E490B480AF0B6F90D490D480AF0A9
:1017E000B2F94FF4C27120460AF0A4F96FF0570025
:1017F000DAE700BFA0F100083CF100088CF2000815
:10180000CCF20008E0F2000800F3000814F300082E
:1018100054F400085CF4000810B560B18446836895
:101820001748834217D21748834214D31B6B1BB34C
:101830006046984710BD144C40F20D1322461349E0
:1018400013480AF080F913480AF07DF940F20D11AF
:1018500020460AF06FF90C4C40F20D1322460E4957
:101860000B480AF070F90D490D480AF06CF940F286
:101870000D1120460AF05EF96FF05700DAE700BF5D
:10188000A0F100083CF100088CF20008CCF200083E
:10189000E0F2000800F3000814F3000854F4000814
:1018A0005CF4000838B578B1B0FA80F46409836854
:1018B000194DAB421BD2194DAB4218D3A3B11B6ECD
:1018C00033B39847204638BD154C4FF4E473224695
:1018D000144915480AF037F914480AF034F94FF45E
:1018E000E47120460AF026F96FF05704EAE70C4C41
:1018F0004FF4E47322460E490B480AF024F90D49CF
:101900000D480AF020F94FF4E47120460AF012F96C
:101910006FF05704D6E700BFA0F100083CF10008C3
:101920008CF20008CCF20008E0F2000800F3000896
:1019300014F3000854F400085CF4000810B50C46D9
:1019400041608260C36000230374044B036002465D
:1019500003492068FFF7A6FF10BD00BFCC2C01088B
:101960000BB8000808B5164B1B68164A12681649D2
:101970001648FFF7E3FF034608B1184608BD144BAD
:101980001B68144A126814491448FFF7D7FF03462E
:101990000028F2D10D48124B1860124B0F4A1A6002
:1019A0004FF47A7109F0F8FE03460028E5D14FF4B0
:1019B0007A710C4B186809F0EFFE0346DDE700BFB3
:1019C0009013002094130020D82C0108440F00200D
:1019D000580F00205C0F0020D42C01082C0F002091
:1019E000400F0020280F0020B1F5004F09D20161FF
:1019F000026000230381C3808380C381838143818C
:101A0000704710B5064CC3232246064906480AF023
:101A10009AF806480AF097F8C32120460AF08AF897
:101A200074F40008A8F40008E0F20008C0F400080C
:101A300010B5154C154B4FF400721549204609F0AE
:101A40001BFF144B1C60144C144B4FF400721449D0
:101A5000204609F011FF134B1C60134C134B4FF43D
:101A600000721349204609F007FF124B1C60124C0C
:101A7000124B4FF400721249204609F0FDFE114B43
:101A80001C60002010BD00BFB0170020F8F4000853
:101A900098150020941300209817002000F50008E6
:101AA00098130020901300206013002008F5000810
:101AB000600F0020580F00207813002010F5000858
:101AC000601100205C0F002070B5B2F5802F31D27C
:101AD0000346042A3ED9043AC81D20F007000A44F0
:101AE00022F00702121AD608172A43D91860866016
:101AF0000023C360B6FA86F1C1F1200EC1F12405BE
:101B0000AD000735E9084B1CB34294BF0023012305
:101B1000002B45D0354C40F233332246344935480A
:101B20000AF011F834480AF00EF840F2333120463A
:101B30000AF000F82D4C40F20A3322462F492D4876
:101B40000AF001F82E4809F0FEFF40F20A31204663
:101B500009F0F0FF254C40F211332246294925486F
:101B600009F0F1FF244809F0EEFF40F21131204660
:101B700009F0E0FF1D4C40F21D33224622491D486A
:101B800009F0E1FF1C4809F0DEFF40F21D3120465C
:101B900009F0D0FF03F1040C002440F82C4001337D
:101BA0007345F7DB1FFA81FC4FEA4C039BB243807D
:101BB0000024048043F001034380731A25F00705D5
:101BC000AE1C9BB24FEA430E20F806E020F805C099
:101BD00022F00705961C845302444353538843F074
:101BE0000103538009F00BFF70BD00BF18F500081A
:101BF00014F60008E0F20008CCF5000878F50008BB
:101C000090F50008A8F50008E8F5000808B50248B6
:101C100009F082FF002008BD40F6000808B5024B1D
:101C20001B68984708BD00BFA8020020014B186040
:101C3000704700BFA802002000B585B084460A4660
:101C400068460023009301930293039302238DF8C7
:101C50000230044B0193614608F0D6FD05B05DF8F3
:101C600004FB00BF1D1C00082DE9F04182B0804636
:101C70000E46154600272A4601A9404609F092FF64
:101C8000044640B1024631460198FEF7A5FA2744C2
:101C900026442D1BEFD13A4608F10401404609F0D5
:101CA000A6FF18B9384602B0BDE8F081054C4923BB
:101CB00022460549054809F046FF4921204609F01A
:101CC00039FF00BF7CF60008A8F60008E0F2000823
:101CD0002DE9F04182B080460E461546002702E00D
:101CE00027442D1B0FD02A4601A9404609F06DFF5D
:101CF000044640B1002EF3D0024601993046FEF76B
:101D00006BFA2644ECE73A4608F10A01404609F02E
:101D10006EFF18B9384602B0BDE8F081054C642367
:101D200022460549054809F00EFF6421204609F0C6
:101D300001FF00BF7CF60008A8F60008E0F20008EA
:101D4000034A536843F0020353600020704700BF0A
:101D5000002004E008B5024909F06AFF08BD00BF91
:101D60006D1E000810B560B10246836815488342B5
:101D700015D21548834212D31B68FBB11046984711
:101D800010BD124CB62322461149124809F0DBFE61
:101D9000114809F0D8FEB621204609F0CBFE0B4CC5
:101DA000B62322460D490B4809F0CDFE0C490D48DB
:101DB00009F0C9FEB621204609F0BCFE6FF05700BD
:101DC000DEE700BF08F10008ECF00008B4F60008F8
:101DD000CCF20008E0F2000800F30008F0F600087A
:101DE0006CF800085CF4000810B560B10246836826
:101DF0001548834215D21548834212D35B68FBB164
:101E00001046984710BD124CCC2322461149124867
:101E100009F099FE114809F096FECC21204609F000
:101E200089FE0B4CCC2322460D490B4809F08BFE52
:101E30000C490D4809F087FECC21204609F07AFEB6
:101E40006FF05700DEE700BF08F10008ECF0000873
:101E5000B4F60008CCF20008E0F2000800F3000835
:101E6000F0F600086CF800085CF4000808B50B46B2
:101E700041680C31012B11D007D81BB90948FFF775
:101E8000B3FF0EE06FF085000BE0023BDBB2012BED
:101E900001D8002005E06FF0850002E00148FFF75F
:101EA00061FF08BDCCEC000810B5082808D8064B27
:101EB00053F8204020460CF0FFFC18B1204610BD1E
:101EC0000024FBE70024F9E7902D0108084B1A686D
:101ED00042F480721A601A6842F400721A601A683A
:101EE00042F480621A60034B034A1A60704700BFD5
:101EF000003C0240DC0200200024F400014B03609F
:101F000000207047B42D010870B544798C4279D90E
:101F100090F806C0944577D92346644528BF6346A8
:101F2000022B03D99D1EC5F3470500E00025374865
:101F3000A0FB0303DB08AB4228BF2B46E01AC0B26C
:101F4000ACEB030C5FFA8CFC5D1CA84204D9C41AEC
:101F5000013CC4F3470400E00124654505D2ACEB25
:101F60000305013DC5F3470500E00125A0EB030E85
:101F7000ACEB0306B645A8BFB646244EA6FB0E6ED4
:101F80004FEADE0EBEF1010F38BF4FF0010EAC423A
:101F900028BF2C46A64528BFA646994207D38142B2
:101FA00011D29A4211D3624511D3002400E00024DB
:101FB0005FFA8EFE734499420BDBA0EB0E00814268
:101FC00010DB012106E00024F2E70024F0E7012401
:101FD000EEE70121934207DCACEB0E0C624509DB16
:101FE000012302E00021F5E701232CB131B93BB90F
:101FF000002008E00023F8E7002004E0012002E0D0
:10200000012000E0002070BD0020FCE7CDCCCCCC4E
:102010002DE9F04F83B01E469DF83080294B9F6814
:10202000002F49D0894614461B68002B47D0254B0A
:102030009B7D03EB430307EB83070846FEF760F83D
:102040008246002514E01F4B9B7B13F0010F1FD02D
:102050001C4890F917B0A4B219F80510CDF800800B
:10206000B3B222460AF020F983445C4424B201351D
:1020700055451DD27A792244124B1B8A9A42E2DDE1
:10208000B8F1000FDFD0BB7933441EB20024DAE789
:102090000C4890F917B0A4B219F80510CDF80080DB
:1020A000B3B222460AF020F983445C4424B2DEE74E
:1020B000002003B0BDE8F08F6FF01200F9E76FF079
:1020C0001200F6E75818002070B586B08568274BD7
:1020D0009D4229D20446264B9D4225D3254B1968A3
:1020E00000293FD00023039304930593214B5A68A2
:1020F00003921A8AADF81020588AADF81200ADF894
:1021000014209A89042A14BF002201221B7E9A42BD
:1021100017D1AD68009103AB002211462046A847B5
:102120000446204606B070BD134C40F2C723224639
:102130001249134809F007FD40F2C721204609F073
:10214000F9FC0C4E30460AF059F9AD68336800933B
:1021500003AB002211462046A847044630460AF049
:102160004DF9DEE76FF01204DBE700BF3CF1000839
:1021700008F10008581800200CF9000830F9000890
:10218000E0F2000838B50546094B186860B10C4606
:102190005A68002108F01CFA0CB9002038BD284606
:1021A000FFF792FF0020F9E76FF01200F6E700BF9B
:1021B00058180020054B5B7D8B4203D9034B997562
:1021C000002070476FF01500704700BF58180020BE
:1021D00010B584B08368254A934236D2244A93428C
:1021E00033D31B6A69469847224C234A121B234B60
:1021F000A3FB0232D208224B5A75BDF800001882A8
:10220000BDF80210598208221A75BDF80C209A8177
:102210009DF808209A730022DA751A769C609A75E8
:1022200001FB00F090420EDBC010154C606008F01E
:1022300091F92060B0B1124B5A68002108F0C8F93A
:10224000002004B010BD0730EEE70E4C40F22D33F5
:1022500022460D490D4809F076FC40F22D3120460A
:1022600009F068FC6FF00B00EBE700BF3CF10008E1
:1022700008F10008ACF10008C4F10008ABAAAAAA52
:10228000581800200CF9000830F90008E0F20008A6
:1022900010B50C4B1B78012B04D100F011FD0A4B3B
:1022A000185810BD094C40F28F332246084909489E
:1022B00009F049FC084809F046FC40F28F312046FD
:1022C00009F038FC5F1B00200800000084FA0008B9
:1022D000B0FA0008E0F20008C4FA000880B504462D
:1022E0000D4616461F4607F089FA024600F0E8FC44
:1022F000044B1A503A4631462846A047FFF7C8FF1C
:1023000000F06AFC0800000008B50348034A121AEE
:1023100000210AF08BF808BD58030020601B002044
:1023200008B50648064A121A06490AF083F8064814
:10233000064A121A06490AF07DF808BD000000207E
:10234000580300204C31010800000020000000204C
:102350004C31010810B50446836842680168094899
:1023600009F0DAFB63692269E168074809F0D4FBE8
:10237000E169064809F0D0FBA169054809F0CCFBEA
:1023800010BD00BFE8FA000818FB000848FB000871
:1023900058FB000838B504460D4611B10846FFF752
:1023A000D9FF012C04D02946204604F0F5F838BDA9
:1023B000EFF305811039024809F0AEFBF3E700BFE7
:1023C00088FB000830BFFFF7FDBF00BF38B50446EB
:1023D000054D2A460549FDF7FFFE054A0021601913
:1023E00008F0F6F838BD00BF00000000C4F1000896
:1023F0000400000070B50646054D064B1D444C1BFD
:102400002046FFF7E3FF083C346705F1080070BD84
:1024100000000000040000008169104B5A6942F47A
:1024200080725A61BFF34F8FBFF36F8F31F8021C78
:102430005A6922F480725A61BFF34F8FBFF36F8FD6
:1024400001F47F43B3F55F4F01D000207047C9B25C
:10245000022901D0002070470120704700ED00E004
:1024600008B54FF0000C83F800C0DDF808E08EF8E6
:1024700000C002F07F4CBCF17F4F11D102F00C0C78
:10248000BCF1080F04D012F0080F06D0084608BDB2
:10249000044809F041FB0020F9E701221A70F6E731
:1024A0000020F4E79CFB0008F8B505460F461446EB
:1024B0002F4809F031FB2F4B9B6A13F4805F25D125
:1024C00016262C4B9B6A13F4006F24D1294B9B6A70
:1024D00013F4007F24D1274B9B6A13F4806F37D10C
:1024E000244B9B6A13F4807F37D1224B9B6A13F4F1
:1024F000005F37D11F4A936A43F47F4393620121FF
:10250000284609F0A7FF20703046F8BD1A4809F0A8
:1025100003FB1726D5E7194809F0FEFA1826D5E778
:10252000174809F0F9FA134B996B9B6A13F4004FA3
:1025300001D11926CFE7134809F0EEFA37B10D4A59
:10254000936A23F4004393621926C4E71926C2E76D
:102550000D4809F0E1FA1A26C2E70C4809F0DCFA46
:102560001B26C7E70A4809F0D7FA1C26C2E700BFB6
:10257000C8FB000800ED00E0E0FB0008F4FB0008E9
:1025800008FC000824FC00083CFC000858FC00087B
:1025900074FC000808B5244809F0BEFA234B9B6A76
:1025A00013F0007F21D11D20204B9B6A13F0807F08
:1025B00020D11E4B9B6A13F4002F20D11B4B9B6A2A
:1025C00013F4802F20D1194B9B6A13F4003F20D1C4
:1025D000164B9B6A13F4803F20D1144A936A6FEA2A
:1025E00003436FEA1343936208BD114809F094FA5C
:1025F0001E20D9E70F4809F08FFA1F20D9E70E48AF
:1026000009F08AFA2120D9E70C4809F085FA22203E
:10261000D9E70B4809F080FA2320D9E7094809F0E7
:102620007BFA2420D9E700BFA4FC000800ED00E0FD
:10263000C0FC0008D4FC0008F0FC000810FD0008F5
:1026400038FD000854FD000808B500230B7002484F
:1026500009F062FA08BD00BF80FD000808B50A460F
:102660000F2905DC0349103A034809F055FA08BD63
:102670000249F8E7A8FD0008DCFD0008C0FD0008DD
:102680002DE9F04104460F461546494809F044FA41
:10269000484B9B6A13F0100F3CD11026454B9B6AA8
:1026A00013F0080F3BD1434B9B6A13F0020F3BD151
:1026B0006FF015083F4B9B6A13F0010F50D13D4B53
:1026C0009B6A13F0200F50D13A4B9B6A13F0100F06
:1026D00004D1384B9B6A13F0020F04D0354B5B6872
:1026E00013F4006F46D1334B9B6A13F0200F04D0D4
:1026F000304A536A23F4005353622E4A936A43F0DC
:10270000FF0393620121204609F0A4FE28703046A1
:10271000BDE8F081284809F0FFF91126BEE72748F7
:1027200009F0FAF91226BEE7254809F0F5F9214B20
:10273000D3F834809B6A13F0800F03D16FF0150833
:102740001326B7E741461F4809F0E6F937B1194AA1
:10275000936A23F0800393621326ABE71326A9E75D
:10276000194809F0D9F91426A9E7184809F0D4F94D
:102770001526A9E72146404609F0A3FEA0B90D4B56
:102780009B6A13F0100FAED0114C4FF49873224691
:102790001049114809F0D7F9104809F0D4F94FF45D
:1027A0009871204609F0C6F980F3098802269AE755
:1027B000F0FD000800ED00E008FE0008F4FB000852
:1027C0003CFE000858FE000870FE000874FC00087B
:1027D00090FE0008C4FE0008E0F2000810FF0008A8
:1027E00070B506460D46364809F096F900232B7061
:1027F000344BDC6A14F0020423D1324BDB6A002B29
:1028000025DB304BDB6A13F0804F48D02E4809F0AF
:1028100083F93046FFF700FEE8B92A4B9B6A13F0B4
:10282000FF0F1ED1274B9B6A13F47F4F20D1254BFE
:102830009B6AB3F5803F22D33046FFF7ABFE0446D8
:1028400003E0224809F068F90024204670BD2048C2
:1028500009F062F9F9E731681E4809F05DF934685A
:10286000F3E72A4601213046FFF70AFF0446ECE76A
:102870002A4601213046FFF717FE0446E5E7164CCD
:1028800040F2033322461549154809F05CF9154812
:1028900009F059F940F20331204609F04BF90E4C8A
:1028A00040F2063322460D490D4809F04CF90E4816
:1028B00009F049F940F20631204609F03BF900BF22
:1028C00034FF000800ED00E080FF00084CFF000826
:1028D00070FF0008A0FF000890FE0008C0FF00087D
:1028E000E0F20008C4FF0008E8FF000830B58FB030
:1028F000244B5D68C5F30805002383F31188BFF3FB
:102900006F8F0BAB00930DF13603FFF7A9FD68B194
:1029100004469DF82C300DF13702294609F09CFD44
:1029200005469DF837304BB10FB030BD164809F061
:10293000F3F800210846FFF72DFDF5E70DF10C0C2B
:1029400020686168A268E368ACE80F0020696169EB
:10295000A269E369ACE80F009DF836304BB10A9BE1
:10296000C3F308024AB96FEA53236FEA43230A9379
:1029700003E00A9B6FF308030A9303A92846FFF7B5
:1029800009FDD1E700ED00E018000108044B5A6989
:1029900042F010025A615A6922F008025A617047E7
:1029A00000ED00E0EFF30880EFF3098101B5724616
:1029B000FFF79CFF01BD00BF0A4880F30888102084
:1029C00080F3118808484FF40461401880F30988A7
:1029D000EFF314800221084380F31488BFF36F8F54
:1029E00000F06AF8802D0020C01F00201EF0040FA8
:1029F0000CBFEFF30880EFF30980816911F8021C26
:102A00000229FFD001B5724609F018FD01BD00BFD3
:102A1000002807DB00F01F02400901239340024A0F
:102A200042F82030704700BF00E100E0002808DBDA
:102A30000901C9B200F1604000F5614080F800135F
:102A4000704700F00F000901C9B2014B19547047DB
:102A500014ED00E070B505460C4601310F2903D88E
:102A600040B2FFF7E3FF70BD084E6B2332460849C2
:102A7000084809F068F80F232A462146064809F05D
:102A800062F86B21304609F055F800BF5800010884
:102A900090000108E0F20008AC000108044B23F0AC
:102AA0007F03044A9360BFF34F8FBFF36F8F70476C
:102AB0000000000800ED00E008B5FFF7EFFF0B4A4B
:102AC000D2F8883023F47003C2F88830EFF314830F
:102AD00023F0040383F31488BFF36F8FFFF714FC14
:102AE000FFF71EFC00F0C2F803F000FF00ED00E06D
:102AF0000E4B9B68A3B110F1160F0AD01A6EA2F10B
:102B0000400C84450ED882420ED98A4206D8002055
:102B100070471A6E8A4201D800207047186E7047BD
:102B2000002070470020704700207047041B0020E1
:102B300010B4A2F120040D4942F8081C21F0010153
:102B400042F8081C42F8203C019B42F81C3C029BC6
:102B500042F8183C039B42F8143C4FF0807342F853
:102B6000043C04650023436710BC7047DD22000865
:102B700008B50E4615460B4A9060026F0A4B1A6064
:102B800000F0B2F82C4686F309880020034B9847E2
:102B90002046002100220023014C2047D1C4000818
:102BA000DD220008041B002074180020014B1022B5
:102BB0001A61704700ED00E0054B5A699B689A4224
:102BC00004D0044A536843F080535360704700BFF9
:102BD000041B002000ED00E008B50A4B9B6883420F
:102BE00002D005F007FB08BDEFF30583002BF8D0FA
:102BF000054B5A6842F080525A605A6A22F40042E9
:102C00005A62EEE7041B002000ED00E014498A68D8
:102C10004FF030001044EFF3098C80E8F01F1020D3
:102C200080F31288BFF36F8F0E4F4FF000664A6932
:102C30008A603E60106F0C4C2060506F0023536719
:102C400080F3118804B5104600F04EF8BDE804404A
:102C500002F1300090E8F01F8CF309887047000003
:102C6000041B002004ED00E074180020002206E0A0
:102C700003F00F030949194410230B7601322F2A60
:102C80000ADC53B2002BF3DB03F1604303F561432D
:102C9000102183F80013F1E7704700BFFCEC00E05F
:102CA00008B5EFF30583103B044A02EBC301496802
:102CB00052F833008847FFF77FFF08BDC4EE0008D5
:102CC00001480068704700007418002008B5034BE5
:102CD000034A0121034800F0A1F908BD00000220C9
:102CE00000000020B42D010808B5036E403B0548E4
:102CF000036040234360044B8360012100F0B0F97E
:102D000008BD00BF7818002000000B15084AC2F863
:102D100098000B6823F01F03034343F01003C2F82D
:102D20009C308B6843F00103C2F8A030704700BFAD
:102D300000ED00E0084BD3F89030C3F30723013BCC
:102D4000984205D810B50446FFF7E0FF204610BDB5
:102D50006FF01500704700BF00ED00E010B5034CA8
:102D60000123227809F0F8FB207010BD5E1B0020C3
:102D700008B500230B4A127809F0EEFB10F1160F8C
:102D80000FD0024606E0084BC3F898200021C3F894
:102D9000A0100132044BD3F89030C3F307239342C1
:102DA000F1DC08BD5E1B002000ED00E0F0B585B051
:102DB000054603A8FFF7A2F80646002438E0B3F161
:102DC000007F00F0CC80B3F1805F00F0E580B3F1CC
:102DD000807F2CD1506851F80C109368202B40F262
:102DE000BA80B3F1004F00F2B880013BB3FA83F32D
:102DF000C3F11F035B0003F03E0343F0885343F429
:102E0000801300900191029307E0082343F0885358
:102E100043F4302300900191029369462878FFF72C
:102E200089FF0028C0F2D5802B7801332B70013444
:102E3000B44280F0D1804FEA041C039901EB0412E4
:102E4000D068030D1B05B3F5000F67D0B7D8B3F5F5
:102E5000001F19D0B3F5800F43D0B3F5801FE6D122
:102E6000506851F80C109368202BCED9B3F1004F65
:102E700008D8013BB3FA83F3C3F11F035B0003F0EF
:102E80003E03C3E73E23C1E7576851F80C1093682F
:102E9000202B22D9B3F1004F21D8013BB3FA83F3A1
:102EA000C3F11F035B0003F03E0343F0885343F478
:102EB000002300970191029310F0010FADD0484C10
:102EC000952322464749484808F03DFE474808F008
:102ED0003AFE9521204608F02DFE0823E5E73E2323
:102EE000E3E7506851F80C109368202B12D9B3F126
:102EF000004F11D8013BB3FA83F3C3F11F035B000A
:102F000003F03E0343F0C06343F4003300900191AB
:102F1000029382E70823F5E73E23F3E7506851F870
:102F20000C109368202B12D9B3F1004F11D8013B3C
:102F3000B3FA83F3C3F11F035B0003F03E0343F0D6
:102F4000885343F4802300900191029365E708239E
:102F5000F5E73E23F3E708234FE73E234DE75068AC
:102F600051F80C109368202B12D9B3F1004F11D8EF
:102F7000013BB3FA83F3C3F11F035B0003F03E038D
:102F800043F0805343F4802300900191029344E77F
:102F90000823F5E73E23F3E7506851F80C109368D7
:102FA000202B12D9B3F1004F11D8013BB3FA83F3B0
:102FB000C3F11F035B0003F03E0343F0885343F467
:102FC000003300900191029327E70823F5E73E23A1
:102FD000F3E76FF0150000E0002005B0F0BD00BF82
:102FE000EC0001081C010108E0F20008440101089E
:102FF000044B0522C3F89420BFF34F8FBFF36F8FAC
:10300000704700BF00ED00E0BFF35F8F024B00226E
:10301000C3F89420704700BF00ED00E038B50C46BF
:10302000FFF79CFE10F1160F00D038BD084D40F29E
:1030300071132A460749084808F085FD21460748CC
:1030400008F081FD40F27111284608F073FD00BFC1
:10305000EC000108C0FF0008E0F20008740101085C
:1030600038B50C46FFF784FE10F1160F00D038BDBE
:10307000084D4FF4C8732A460749084808F063FD15
:103080002146074808F05FFD4FF4C871284608F054
:1030900051FD00BFEC000108C0FF0008E0F200088D
:1030A000A001010838B5394B1D68394BD3F8903071
:1030B000C3F307239D4203D8FFF7A6FF00241FE0B8
:1030C000344C4FF4F57322463349344808F03BFD45
:1030D0002F4BD3F89020C2F307222946304808F03E
:1030E00032FD4FF4F571204608F024FD274B5B6854
:1030F00004EB440103EB81012046FFF707FE013496
:10310000A542F3D827480570FFF750FE10F1160FBF
:1031100010D0244B1A781E4BD3F89030C3F30723FA
:103120009A4217DA1A4BC3F898200021C3F8A0106E
:103130000132F0E7174C40F22D232246164917487A
:1031400008F001FD184808F0FEFC40F22D21204651
:1031500008F0F0FCFFF74CFF0D4BD3F8903003F470
:103160007F43B3F5006F01D1002038BD094C40F218
:10317000752322460D49094808F0E5FC0C4808F083
:10318000E2FC40F27521204608F0D4FCC02D010875
:1031900000ED00E0EC000108C0FF0008E0F20008CC
:1031A000D00101085E1B0020040201083002010862
:1031B0008002010808B5024B1B689847002008BD33
:1031C00084180020034B1860034A937843F00203ED
:1031D0009370704784180020AC02002008B506499F
:1031E00021F00701C1F1005202F500320348FEF759
:1031F0006BFC002008BD00BF0B3B0020881800209E
:1032000010B50C4B1B78012B04D1FFF759FD0A4B6D
:10321000185810BD094C40F28F332246084909481E
:1032200008F091FC084808F08EFC40F28F312046EF
:1032300008F080FC5F1B00200800000084FA0008F2
:10324000B0FA0008E0F20008C4FA000838B50546F4
:10325000114C04E06368A168284698470C340F4B72
:103260009C4209D80D4B9C4214D22368002BF1D00C
:103270002A689342F2D1EDE7094C16232246094908
:10328000094808F060FC094808F05DFC162120465A
:1032900008F050FC38BD00BFA0F10008ACF10008F8
:1032A000B4020108DC020108E0F20008040301088E
:1032B00000B585B04FF0FF324FF0FF3301A904484D
:1032C00003F0C0FC0028F5D101A8FFF7BFFFF1E72C
:1032D0002C03002030B585B00A9D0B9C01909DF811
:1032E00020008DF808008DF80910ADF80A2003932E
:1032F00054EA050306D0FFF783FF094BD3F880306B
:1033000083420AD02A46234601A906480BF0EFFA69
:10331000002800DB002005B030BD00252C46F1E779
:10332000680600202C03002010B560B102468368B7
:103330001548834215D21548834212D31B68FBB14E
:103340001046984710BD124CB62322461149124828
:1033500008F0F9FB114808F0F6FBB621204608F00A
:10336000E9FB0B4CB62322460D490B4808F0EBFB5A
:103370000C490D4808F0E7FBB621204608F0DAFBBF
:103380006FF05700DEE700BF08F10008ECF000081E
:10339000B4F60008CCF20008E0F2000800F30008E0
:1033A000F0F600086CF800085CF4000800B583B083
:1033B000054A92E80300CDE9000169460348FFF79A
:1033C000B3FF03B05DF804FBC8F10008CCEC0008C3
:1033D00000F01F02012393401F2806D8044A5269B7
:1033E00093430CBF0120002070470020704700BFAE
:1033F000003C014000F01F02012393401F2803D826
:10340000034A5361002070476FF01500704700BFFA
:10341000003C0140002399420ADD10B400EB030C8C
:10342000044C04F80C2001339942F7DC10BC7047BF
:10343000704700BFBC020020F8B50746002401E039
:103440000134E4B27B78A34217D93D78661930463F
:10345000FFF7BEFF0028F3D03046FFF7CBFF074B46
:1034600053F83620002AEBD006F01F0503EBC60305
:1034700059680120A8409047E2E7F8BD9418002061
:1034800010B558B10346421E024207D1A0B923B37A
:10349000B3FA83F0C0F11F00C0B210BD104C60231E
:1034A00022461049104808F04EFB104808F04BFB2C
:1034B0006021204608F03EFBB0FA80F2C2F11F0204
:1034C0000F2AE4DD064C612322460949064808F02C
:1034D0003AFB6121204608F02DFBFF20DDE700BF0D
:1034E00090030108D4030108E0F200080C0401086D
:1034F000380401085FFA81FC0CF102020A4B53F810
:1035000022200B0C22EA114193FAA3F34BB1B3FA38
:1035100083F3984001430CF1020C034A42F82C104B
:1035200070472023F5E700BF00380140C3B20233E3
:10353000074A52F82320030C02EA104093FAA3F33F
:103540001BB1B3FA83F3D84070472023FBE700BFD9
:103550000038014010B50446FFF792FF044B18569F
:10356000044B1A6814431C6008F0A0FF10BD00BF94
:10357000BC020020003C0140024A136823EA000319
:1035800013607047003C0140032927D8DFE801F0B1
:10359000020C151E184B9A6822EA00029A60DA683B
:1035A00022EA0002DA607047134B9A6802439A607D
:1035B000DA6822EA0002DA6070470F4BDA680243E9
:1035C000DA609A6822EA00029A6070470A4B9A68A9
:1035D00002439A60DA681043D860704710B5074C10
:1035E0004FF4817322460649064808F0ACFA4FF4BE
:1035F0008171204608F09EFA003C014090030108CA
:10360000C0FF0008E0F2000838B50C461546FFF789
:1036100037FF0C4B53F83030A34208D07BB9094B2D
:1036200043F8304003EBC0035D60002038BD054A1D
:1036300002EBC0025268AA42F0D10020F6E76FF018
:103640000F00F3E79418002008B5FFF719FF044BAB
:10365000002243F8302003EBC0035A6008BD00BFCE
:10366000941800200C4B1B6813F0020F09D10A4A72
:10367000136843F001031360074B1B6813F0020F3C
:10368000FAD0054A936823F003039360024B9B68CA
:1036900013F00C0FFAD17047003802400C4B1A6837
:1036A00022F480221A601A6842F480321A60084BB1
:1036B0001B6813F4003FFAD0054A536F43F001032F
:1036C0005367034B5B6F13F0020FFAD0704700BFD4
:1036D0000038024039B133B1B0FBF1F000FB02F227
:1036E000B2FBF3F0704710B5054C4723224605495D
:1036F000054808F028FA4721204608F01BFA00BFC9
:10370000B4040108F8040108E0F20008F8B50C461A
:103710001546434B1E680421304608F0B7FF0746A4
:103720000221304608F0B2FF2388C3F30B010B4699
:10373000442929D809B2002969D0013B432B69D813
:10374000DFE803F03D53565A5D3F49686868686892
:1037500068686868686868686063686868686868F6
:1037600068686868686868686868686868686868D9
:103770006868683568686835686868376868686860
:10378000686868396868683BA8290DD12E6023688D
:10379000B3F5805F41D32A68C3F313330133B2FB1F
:1037A000F3F22A60002037E06FF0850034E02E60ED
:1037B000EDE72E60EBE72F60E9E72860E7E72E6092
:1037C000E5E700F0CBF802234FF4A8720821FFF7D9
:1037D00081FF2860DBE700F0C1F807234FF4A872EF
:1037E0000821FFF777FF2860D1E700232B60CEE7A1
:1037F0004FF4FA432B60CAE700232B60C7E7094B5D
:103800002B60C4E77F002F60C1E72E60BFE76FF039
:10381000850001E06FF08500F8BD0020FCE700BFE7
:10382000DC02002000127A0008B51A4B9B6803F0F6
:103830000C03082B25D0174A136823F080731360FC
:10384000144B1B6813F0007FFAD1134AD2F80438E6
:1038500023F44033C2F80438D2F8043823F07063FC
:1038600043F0E063C2F8043800F07CF8094A1368BA
:1038700043F080731360074B1B6813F0007FFAD08E
:1038800008BDFFF7EFFE034A936823F0F00393604F
:10389000D1E700BF0038024000300240162806D8A9
:1038A000064BC34013F0010F04D0002070476FF0A7
:1038B000850070476FF08500704700BFEA00600028
:1038C00038B500F071F8214C204608F05CFF02F09A
:1038D00013FD1F4B9B68C3F303131E4AD35C20FAEE
:1038E00003F513781C41A54228D3FFF7D7FEFFF755
:1038F0009BFF174A936823F0F0039360936823F0CB
:10390000030343F002039360114B9B6803F00C0325
:10391000082BF9D1A54215D20F4B0C4A1A600C4A5C
:10392000936823F4E05343F4A0539360936823F423
:10393000604343F400439360002038BD204602F00A
:1039400093FDD2E7204602F08FFDE5E7007A030AF7
:10395000003802400C310108DC02002000487047AA
:1039600000127A0008B508F00FFF0B4B59680B4A9C
:103970000A4040F4A84141F008010A435A605A68DD
:1039800022F440325A605968054A0A400549014309
:103990000A435A6008BD00BF003802400080BFFFE4
:1039A0000080BFF00854000782B0064B1A6C42F04A
:1039B00080521A641B6C03F080530193019B02B088
:1039C000704700BF0038024010B5044C2046FFF796
:1039D000F9FB2046FEF72AF910BD00BF793A00082E
:1039E00008B505480AF068FF18B1FFF7EDFF0020A1
:1039F00008BD6FF01200FBE754EE000810B558B197
:103A0000024683681348834214D21348834211D379
:103A1000DB691046984710BD104CB8232246104968
:103A2000104808F090F8104808F08DF8B8212046AA
:103A300008F080F8094CB82322460C49094808F0E0
:103A400082F80B490B4808F07EF8B821204608F0B0
:103A500071F800BFA0F100083CF100088CF20008EA
:103A6000CCF20008E0F2000800F3000814F30008AC
:103A700054F400085CF4000810B504460A2805D088
:103A8000E1B20548FFF7BAFF204610BD0D210248FC
:103A9000FFF7B4FFF4E700BF54EE000810B558B1CB
:103AA000024683681548834216D21548834213D3D1
:103AB000DB681046984710BD124C40F2F253224684
:103AC0001149124808F03FF8114808F03CF840F25C
:103AD000F251204608F02EF80A4C40F2F2532246EA
:103AE0000C490A4808F02FF80B490C4808F02BF84D
:103AF00040F2F251204608F01DF800BFC4F0000863
:103B0000A0F000082005010854050108E0F20008B3
:103B100000F3000868050108A80601085CF4000825
:103B200010B558B1024683681548834216D215482D
:103B3000834213D31B691046984710BD124C40F2C4
:103B40001F6322461149124807F0FDFF114807F094
:103B5000FAFF40F21F61204607F0ECFF0A4C40F2EA
:103B60001F6322460C490A4807F0EDFF0B490C4839
:103B700007F0E9FF40F21F61204607F0DBFF00BFBE
:103B8000C4F00008A0F00008200501085405010851
:103B9000E0F2000800F3000868050108A806010823
:103BA0005CF4000810B543681C68012303FA01F1B6
:103BB0000C4203D092B1FFF771FF10BD094C40F2E7
:103BC000F76322460849094807F0BDFF084807F097
:103BD000BAFF40F2F761204607F0ACFFFFF7A0FF05
:103BE000EBE700BF20050108B0060108E0F200087D
:103BF000F006010838B5436805691C6801238B404D
:103C00001C4208D02C68234202D0B2FA82F2520938
:103C1000FFF7C8FF38BD084C40F22273224607491F
:103C2000074807F090FF074807F08DFF40F2227128
:103C3000204607F07FFF00BF20050108B0060108FD
:103C4000E0F20008F006010870B5002842D01346E3
:103C5000864684686B4A94424CD26B4A944249D35C
:103C60004668006913F0FC6F55D103F03002302A2A
:103C700061D0664A1A40664DAA426CD003F0060233
:103C8000042A78D013F4402240F08280B2F5402F0D
:103C900000F0928013F4801F05D022B113F0010FC1
:103CA00001D083F4402323F4801235684FF0010CD7
:103CB0000CFA01FC15EA0C0F00F08E8013F0010FD6
:103CC00000F09A8003684CEA03030360236870469F
:103CD000984770BD4F4C40F2534322464E494F48DF
:103CE00007F031FF4E4807F02EFF40F253412046C7
:103CF00007F020FF474C40F25343224649494748CA
:103D000007F021FF4849494807F01DFF40F25341A1
:103D1000204607F00FFF3F4C40F25C4322464449E7
:103D20003E4807F010FF434807F00DFF40F25C41AA
:103D3000204607F0FFFE374C40F25F4322463E49E3
:103D4000364807F000FF3D4807F0FDFE40F25F41B6
:103D5000204607F0EFFE2F4C40F2634322463849DD
:103D60002E4807F0F0FE374807F0EDFE40F26341C1
:103D7000204607F0DFFE274C40F2664322463249D8
:103D8000264807F0E0FE40F26641204607F0D2FEEA
:103D900013F4003F7FF47AAF1E4C40F26943224691
:103DA0002A491E4807F0CFFE294807F0CCFE40F212
:103DB0006941204607F0BEFE164C40F26D43224694
:103DC0002449164807F0BFFE234807F0BCFE40F226
:103DD0006D41204607F0AEFE0E4C40F2794322467C
:103DE0001E490E4807F0AFFE1D4807F0ACFE40F23A
:103DF0007941204607F09EFE036823EA0C03036026
:103E000064E700BFC4F00008A0F00008020003004F
:103E1000020001002005010854050108E0F2000835
:103E200000F3000868050108A80601085CF4000812
:103E3000040701087407010898070108D40701085E
:103E40001408010864080108B4080108E80801081A
:103E50003809010874090108C4090108B0060108FD
:103E6000F0060108002A3BD038B5154602EB420C9B
:103E70004FEA8C0CACF10C0C8C449CF808E04EF032
:103E8000020E8CF808E050B18468164A944216D2AB
:103E9000154A944213D3A4682A46A04738BD134C50
:103EA0004FF47B7322461249124807F04CFE124829
:103EB00007F049FE4FF47B71204607F03BFE0B4CA8
:103EC0004FF47B7322460D490A4807F03CFE0C492B
:103ED0000C4807F038FE4FF47B71204607F02AFEAD
:103EE00000207047DCF00008C4F00008F009010869
:103EF000CCF20008E0F2000800F30008200A0108F4
:103F0000580B01085CF400082DE9F04114464368A1
:103F10001E695A698A4217D99F69C1EBC1054FEAE8
:103F2000850807EB8505084600F058FB084B1B5C2D
:103F30001E4473689BB2636017F808306370AB79F6
:103F400023700020BDE8F0816FF01500FAE700BF94
:103F5000902E0108F8B543681F695A698A4229D929
:103F600006460C469D69C1EBC10305EB83056B79E1
:103F700013B10020A871F8BD384600F0A1FC08B9C3
:103F80000020F8E7204600F029FB0C4B1A5CBB58D8
:103F900023F01003BB502146384600F0BDFC2146FB
:103FA000304608F0B6FF2146384608F0C2FF002030
:103FB000A871E0E76FF01500DDE700BF902E010863
:103FC0002DE9F84F0C461F4641680E694B69A34224
:103FD00066D99046D1F818A0C4EBC4054FEA850B0A
:103FE0000AEB85052146304608F0A3FF81460028EC
:103FF00059D15AF80B30012B05D0022B2ED06BB3C0
:104000006FF0150927E0204600F0E8FADFF89CA0E1
:104010001AF800303344C3F80C80204600F0DEFA72
:104020001AF8003033449F602B794BB3204600F0E0
:10403000D5FAAB680A9AB2FBF3F31C4A125C32441D
:1040400051686FF30F010B4353600123AB7121469D
:10405000304600F027FC4846BDE8F88F204600F0C7
:10406000BDFADFF848A01AF800303344C3F80880DE
:10407000204600F0B3FA1AF800303344DF60D3E78B
:10408000204600F0ABFAEB680A9AB2FBF3F3074A5A
:10409000125C324451686FF30F010B435360D4E755
:1040A0006FF01509D7E76FF00F09D4E7902E0108DC
:1040B0002DE9F04F93B080460E461446D0F8049098
:1040C000D9F810A003A80AF0E6FBD9F81430B342DF
:1040D00040F27C81D9F818B0C6EBC605AB0001935D
:1040E0000BEB8505AB79002B40F0738131465046D0
:1040F00008F01FFF0746002840F06E813146404619
:1041000008F007FF638803F4FE53B3F5FE5F71D038
:1041100022695369B3F5803F80F06181637813F0C1
:10412000070F04D199F80C30002B00F05B81E18877
:10413000A388994240F05981042B04D0022B02D06D
:10414000012B40F05581137FC3F38012B2EBD31FD4
:1041500040F051810123AB71A3696B61637803F077
:104160000703019A4BF8023062692A61A288AA60AB
:10417000E288EA602269127FC2F380122A762169FE
:10418000A28892FAA2F0B0FA80F00AB94FF0FF309C
:10419000E28892FAA2F7B7FA87F70AB94FF0FF3729
:1041A000012B34D00B6803934B680493984B53F85E
:1041B00020300993974B53F827300A93A0780DA924
:1041C00000F00F0008F054FE071E1CDB607805A904
:1041D00000F0070008F067FE071E14DB637803F0A9
:1041E0000703012B00F0CC80022B1DD0E3B16FF050
:1041F000150708E00123AB716B71A3696B616369FB
:104200002B6100232B76384613B0BDE8F08F0B6886
:1042100004934B6803937F4B53F820300A937C4BF5
:1042200053F827300993C9E7236993F81C80C8F332
:104230000110C8F3810808A908F047FE071EE2DB59
:1042400007A9404608F053FE071EDCDB2B7E002B3F
:1042500000F09E804FF480730693019B5BF803107F
:10426000022914BF0021012129712389A288B3FBEF
:10427000F2F002FB10339BB2002B40F0BF80638949
:10428000E288B3FBF2F002FB10339BB2002B40F04C
:10429000B880204600F050FB10902979204600F0AD
:1042A00085FB1190637813F0070F74D02378072BE8
:1042B00000F2AA80207800F0ABF90C902369587FB7
:1042C00000F00F0009F02FF80F9003A808F0DFFFAF
:1042D000002866D004230E932B79002B64D0236929
:1042E0005B69A288B3FBF2F30B93304600F076F9DA
:1042F000014603AA504602F06DF8304600F06EF910
:10430000454B1A5C5AF8023043F004034AF8023075
:104310002B7E0BB16B6953B1304600F05FF93E4B19
:104320001A5C5AF8023043F010034AF802302B7E30
:1043300063B16B6953B1304600F050F9364B1A5CEB
:104340005AF8023043F008034AF802300E9B042B5F
:1043500031D0304600F042F92F4B1B5C53445A6970
:1043600022F004025A61304600F038F92A4B1B5CF7
:104370009A44DAF8143023F08003CAF8143042E784
:10438000236993F81C80C8F38100C8F3011852E731
:104390000023069361E72378072B8BD90023237032
:1043A00088E700230E9397E723695B69E288B3FBF4
:1043B000F2F30B9399E7304600F010F9164B1B5CB3
:1043C00053445A6942F004025A61CCE76FF0150772
:1043D00019E76FF00F0716E76FF00F0713E76FF09D
:1043E000150710E76FF085070DE76FF015070AE76F
:1043F0006FF0150707E76FF0150704E76FF0150773
:1044000001E76FF01507FEE66FF01507FBE600BF4A
:10441000782E0108842E0108902E010810B560B195
:10442000024683681548834215D21548834212D349
:104430001B68FBB11046984710BD124CB6232246AC
:104440001149124807F07FFB114807F07CFBB621A9
:10445000204607F06FFB0B4CB62322460D490B4854
:1044600007F071FB0C490D4807F06DFBB6212046A3
:1044700007F060FB6FF05700DEE700BF08F10008AF
:10448000ECF00008B4F60008CCF20008E0F20008F6
:1044900000F30008F0F600086CF800085CF400086F
:1044A00070B50546446821461048FFF7B7FFC8B904
:1044B0000646A36828469847002307E0A269C3EB95
:1044C000C30102EB810200219171013362699342C1
:1044D000F4D32A69002313602A6953602A69936020
:1044E000304670BD6FF00406FAE700BFCCEC000860
:1044F0002DE9F04143681F695E698E428CBF00263A
:104500000126DEB980460C469D69C1EBC10305EB6F
:1045100083056B790BB9AB79DBB12146384600F0E6
:1045200091F9F8B16B79BBB101266F6927B13346B8
:10453000224629694046B847BDE8F081244C6023F3
:1045400022462449244807F0FEFA6021204607F05D
:10455000F1FA08F0DEFCEFE72146384600F072F889
:104560000126E2E72146384600F052F950B12B7E91
:1045700003B9AB716B79002BD7D12146384600F0D7
:104580007DF8D2E72146384600F076F978B16B79AC
:1045900013B16FF00406C8E72146384608F068FEFC
:1045A0002146384608F065FE6FF00406BDE76B79DA
:1045B00013B16FF00406B8E7AB712146404608F02E
:1045C00035FD2146404608F0A4FC6FF00406ACE738
:1045D000680B0108940B0108E0F20008072803D8D3
:1045E000074B53F82000704710B5064C2123224694
:1045F0000549064807F0A7FA2121204607F09AFA54
:10460000B82F0108C00B0108F00B0108E0F2000808
:10461000072803D8074B53F82000704710B5064C05
:10462000342322460549064807F08DFA34212046F6
:1046300007F080FA982F0108C00B0108A80C0108A8
:10464000E0F2000810B5072904D8084B53F82130D0
:10465000984710BD064C472322460649064807F0F6
:1046600072FA4721204607F065FA00BF782F01084B
:10467000C00B0108680D0108E0F2000810B5072919
:1046800004D8084B53F82130984710BD064C5923E5
:1046900022460649064807F056FA5921204607F0F7
:1046A00049FA00BF582F0108C00B0108680D010826
:1046B000E0F2000810B5072907D8094B53F821305C
:1046C0009847003818BF012010BD064C6B232246C6
:1046D0000549064807F037FA6B21204607F02AFA09
:1046E000382F0108C00B0108680D0108E0F200082E
:1046F00010B5072907D8094B53F8213098470038DF
:1047000018BF012010BD064C7D23224605490648EE
:1047100007F019FA7D21204607F00CFA182F01083E
:10472000C00B0108680D0108E0F2000810B5072968
:1047300004D8084B53F82130984710BD064C8F23FE
:1047400022460649064807F0FEF98F21204607F069
:10475000F1F900BFF82E0108C00B0108680D01082F
:10476000E0F2000810B5072904D8084B53F82130AF
:10477000984710BD064CA12322460649064807F07B
:10478000E2F9A121204607F0D5F900BFD82E010893
:10479000C00B0108680D0108E0F2000810B50729F8
:1047A00004D8084B53F82130984710BD064CB3236A
:1047B00022460649064807F0C6F9B321204607F00D
:1047C000B9F900BFB82E0108C00B0108680D010837
:1047D000E0F2000810B5072907D8094B53F821303B
:1047E0009847003818BF012010BD064CE923224627
:1047F0000549064807F0A7F9E921204607F09AF98C
:10480000982E0108C00B0108680D0108E0F20008AD
:1048100038B504460D460846FFF7E0FE084B1B5C22
:10482000E35813F0100F01D1002038BD294620466F
:10483000FFF75EFF08B10120F7E70020F5E700BFB2
:10484000D82F010838B504460D460846FFF7C6FEC6
:10485000084B1B5CE35813F0080F01D1002038BD52
:1048600029462046FFF726FF08B10120F7E7002080
:10487000F5E700BFD82F010838B504460D460846B5
:10488000FFF7ACFE064B1B5C23445B6913F0800F03
:1048900001D1002038BD29462046FFF79BFFF9E7EC
:1048A000D82F010810B504460846FFF797FE034BC2
:1048B0001A5CA35843F00103A35010BDD82F010880
:1048C00010B504460846FFF789FE054B1B5CE3580C
:1048D00013F0010F01D1002010BD0120FCE700BF43
:1048E000D82F010838B504460D460846FFF776FE76
:1048F000084B1A5CA35823F00103A3502946204615
:10490000FFF7DEFF0028F9D129462046FFF7B6FE63
:10491000002038BDD82F010810B504460846FFF71F
:104920005DFE044B1B5CE018436923F08003436188
:1049300010BD00BFD82F010870B589B1C588448962
:10494000B4FBF5F305FB13436BB9B4FBF5F4082C8A
:104950001BD0102C1CD0042C1DD14FF4000019E0EA
:1049600085880489ECE70D4E4FF4B37332460C4949
:104970000C4807F0E8F82A4621460B4807F0E3F810
:104980004FF4B371304607F0D5F84FF0807001E076
:104990004FF0C07070BD0020FCE700BFC00B0108E5
:1049A0000C0E0108E0F20008340E010870B589B160
:1049B00085880489B4FBF5F305FB13436BB9B4FB9D
:1049C000F5F4082C1BD0102C1CD0042C1DD14FF456
:1049D000001019E0C5884489ECE70D4E40F28913B8
:1049E00032460C490C4807F0AEF82A4621460B48DF
:1049F00007F0A9F840F28911304607F09BF84FF410
:104A0000800001E04FF4C00070BD0020FCE700BF53
:104A1000C00B01086C0E0108E0F20008340E01081A
:104A2000F8B581B1044616460D464B68B3FA83F7D4
:104A30007F09B3B1036813B308F095FC50BBFEB90E
:104A40006FF0150721E0164C6423224615491648DD
:104A500007F079F8154807F076F86421204607F04A
:104A600069F80F4C6523224611490F4807F06BF88F
:104A7000104807F068F86521204607F05BF832B16E
:104A800023682B60256063683BB13846F8BD6FF042
:104A90001507FAE7002EF8D0F2E76560F5E700BFEA
:104AA000940E0108D00E0108E0F20008DC0E0108A7
:104AB000EC0E0108000F010870B50E46154601689E
:104AC00091B10C68ACB1A1B90C4612E0124C89232B
:104AD00022461249124807F036F8124807F033F818
:104AE0008921204607F026F80C4602E0234621469D
:104AF0001C4681B18A682A4004D04B68002BE5D05F
:104B000030469847002CF1D02368002BEFD0002CC2
:104B1000EDD12346EBE770BD940E0108180F010894
:104B2000E0F20008000F01082DE9F84380460F4627
:104B300016461C46D0F80490D9F8080007F086FD08
:104B4000B6F5001F0ED00546B6F5800F2AD0B4F199
:104B5000806F0ED0B4F1C06F0DD0B4F1007F24D1BE
:104B6000022609E03946D9F8080008F06EFC002456
:104B700015E0012600E0032642460F492846FEF7CD
:104B800043FD0446A0B9D9F80810384607F063FD84
:104B900031462846FEF7F8FC2846FEF7DBFC2046A7
:104BA000BDE8F8836FF08504F9E76FF01504F6E7C8
:104BB0006FF00F04F3E700BF3DD40008104B98429C
:104BC00013D00AD90F4B984215D003F5C31303F540
:104BD0002063984211D10A2070470B4B984206D0AF
:104BE0000A4B984205D104207047062070470220E6
:104BF000704700207047082070470020704700BFB2
:104C000040420F0040E13300A0860100801A0600F8
:104C100010B560B1844683681748834217D217489D
:104C2000834214D3DB681BB36046984710BD144C15
:104C30004FF48C7322461349134806F084FF13483F
:104C400006F081FF4FF48C71204606F073FF0C4C88
:104C50004FF48C7322460E490B4806F074FF0D4941
:104C60000D4806F070FF4FF48C71204606F062FF8D
:104C70006FF05700DAE700BF08F10008ECF0000819
:104C8000B4F60008CCF20008E0F2000800F30008D7
:104C9000F0F600086CF800085CF4000810B560B18C
:104CA000844683681748834217D21748834214D337
:104CB0009B691BB36046984710BD144C4FF4AC730E
:104CC00022461349134806F03EFF134806F03BFF07
:104CD0004FF4AC71204606F02DFF0C4C4FF4AC7332
:104CE00022460E490B4806F02EFF0D490D4806F0EE
:104CF0002AFF4FF4AC71204606F01CFF6FF05700FE
:104D0000DAE700BF08F10008ECF00008B4F600088C
:104D1000CCF20008E0F2000800F30008F0F600080A
:104D20006CF800085CF40008F0B583B004460F4648
:104D300043680569DE68002201929A68012A2DD92C
:104D4000596801AA08311C48FFF762FF00282FDBD1
:104D50002F6205F110074FF0FF324FF0FF33384656
:104D600002F0DEFA336823F00103336095F8521045
:104D7000204608F02AFC0199204600F05BF9041E49
:104D800006DB95F851301BB1336843F00103336003
:104D9000384602F057FA204603B0F0BD01AA596820
:104DA0000548FFF735FF0028D2DA6FF00404F2E778
:104DB0006FF00404EFE700BFCCEC000870B50446C8
:104DC000466805694FF0FF320021284609F0B4FD1E
:104DD000336820469847002385F8503085F85230D4
:104DE00005F110000122114609F0A6FD204600F051
:104DF00061F8B368012B07D97168002208310B48AC
:104E0000FFF74CFF00280EDB3069FFF7D7FE40F0BC
:104E100010012046FFF788FF002803DB012385F8F7
:104E20005030002070BD6FF00400FBE7CCEC0008B0
:104E300010B560B1024683681548834215D2154803
:104E4000834212D31B68FBB11046984710BD124C29
:104E5000B62322461149124806F075FE114806F0A5
:104E600072FEB621204606F065FE0B4CB6232246A4
:104E70000D490B4806F067FE0C490D4806F063FE2D
:104E8000B621204606F056FE6FF05700DEE700BF61
:104E900008F10008ECF00008B4F60008CCF20008B5
:104EA000E0F2000800F30008F0F600086CF80008D3
:104EB0005CF4000810B544680021206A08F098FBF3
:104EC000002804DB61680448FFF7B2FF00B910BD99
:104ED0006FF00400FBE700BFCCEC000830B52A4CB3
:104EE000A4FB014E4FEA9E4C446824F03F0444EA80
:104EF0009E444460046A24F03F04244DAA421BD817
:104F00000CF1010C44EA0C040462204CA24231D999
:104F1000F3B902EB4202B1FBF2F2C2F30B0119B397
:104F200042F400410B43C26922F44F4C2CF0FF0CB9
:104F30004CEA0303C36130BD4FF4967505FB0CFCCE
:104F4000134DA5FB0C5C4FEA9C1C0CF1010CD9E73E
:104F500002EB820202EB8202B1FBF2F2C2F30B011E
:104F600029B142F40041DDE748F20101DAE748F2F5
:104F70000101D7E75200B1FBF2F340F6FC72134295
:104F8000D1D10423CFE700BF83DE1B43A0860100FD
:104F9000D34D6210F0B583B00446154647680669E4
:104FA0004FF0000CCDF800C008F008FD204608F0D6
:104FB0006DFBD7E90623304602F0B2F930B9064A54
:104FC0002946204608F0A5FB03B0F0BD204608F0B6
:104FD0006CFB6FF00400F7E7143001082DE9F04195
:104FE00082B0044615464668D0F81080F7684FF046
:104FF000010CCDF800C008F0E1FC204608F046FBAB
:105000007B6843F4C0637B60D6E90623404602F028
:1050100087F938B9064A2946204608F07AFB02B0DB
:10502000BDE8F081204608F040FB6FF00400F6E791
:105030000030010808B542680369D0681B6AC3F3F1
:105040004203012B04D0022B08D06FF0150004E0BE
:105050000023054AFFF742FF002008BD0023034A52
:10506000FFF73CFF0020F8E7A0860100801A060049
:1050700070B5002842D01346864684686B4A944235
:105080004CD26B4A944249D34668006913F0FC6FD6
:1050900055D103F03002302A61D0664A1A40664D7D
:1050A000AA426CD003F00602042A78D013F44022FE
:1050B00040F08280B2F5402F00F0928013F4801F00
:1050C00005D022B113F0010F01D083F4402323F463
:1050D000801235684FF0010C0CFA01FC15EA0C0F38
:1050E00000F08E8013F0010F00F09A8003684CEA04
:1050F0000303036023687046984770BD4F4C40F22D
:10510000534322464E494F4806F01DFD4E4806F0D7
:105110001AFD40F25341204606F00CFD474C40F288
:10512000534322464949474806F00DFD484949483E
:1051300006F009FD40F25341204606F0FBFC3F4CCF
:1051400040F25C43224644493E4806F0FCFC43489A
:1051500006F0F9FC40F25C41204606F0EBFC374CCF
:1051600040F25F4322463E49364806F0ECFC3D489B
:1051700006F0E9FC40F25F41204606F0DBFC2F4CD4
:1051800040F26343224638492E4806F0DCFC37489B
:1051900006F0D9FC40F26341204606F0CBFC274CD8
:1051A00040F2664322463249264806F0CCFC40F2E3
:1051B0006641204606F0BEFC13F4003F7FF47AAF50
:1051C0001E4C40F2694322462A491E4806F0BBFCA9
:1051D000294806F0B8FC40F26941204606F0AAFCD6
:1051E000164C40F26D4322462449164806F0ABFCAB
:1051F000234806F0A8FC40F26D41204606F09AFCD8
:105200000E4C40F2794322461E490E4806F09BFCA4
:105210001D4806F098FC40F27941204606F08AFCD1
:10522000036823EA0C03036064E700BFC4F00008CE
:10523000A0F00008020003000200010020050108A0
:1052400054050108E0F2000800F3000868050108B1
:10525000A80601085CF400080407010874070108A7
:1052600098070108D4070108140801086408010818
:10527000B4080108E80801083809010874090108A0
:10528000C4090108B0060108F006010810B518B1FC
:1052900091B14160826010BD0F4C40F26E732246A6
:1052A0000E490F4806F04FFC0E4806F04CFC40F249
:1052B0006E71204606F03EFC074C40F26F732246AA
:1052C0000949074806F03FFC084806F03CFC40F25C
:1052D0006F71204606F02EFC20050108D00E010853
:1052E000E0F20008340F01081C0F01085C0F0108F0
:1052F00010B558B18368174A934217D2164A9342A1
:1053000014D3DB691BB30122984710BD134C40F244
:10531000877322461249134806F015FC124806F01E
:1053200012FC40F28771204606F004FC0B4C40F260
:10533000877322460D490B4806F005FC0C490D48C1
:1053400006F001FC40F28771204606F0F3FB6FF097
:105350005700DAE7C4F00008A0F0000820050108B3
:1053600054050108E0F2000800F300086805010890
:10537000A80601085CF4000810B558B1024683681D
:105380001548834216D21548834213D35B681046F2
:10539000984710BD124C40F26D53224611491248F5
:1053A00006F0D1FB114806F0CEFB40F26D512046CD
:1053B00006F0C0FB0A4C40F26D5322460C490A48E5
:1053C00006F0C1FB0B490C4806F0BDFB40F26D51E5
:1053D000204606F0AFFB00BFC4F00008A0F00008B4
:1053E0002005010854050108E0F2000800F3000858
:1053F00068050108A80601085CF4000810B582B031
:1054000043681B6801248C4023420AD001A908F09C
:10541000B7FB20B9019B1C40201E18BF012002B021
:1054200010BD084C40F2C56322460749074806F004
:105430008AFB074806F087FB40F2C561204606F06C
:1054400079FB00BF20050108B0060108E0F2000862
:10545000F006010838B5002834D0844683685348E4
:1054600083423FD2524883423CD3DCF80400DCF84C
:1054700010509C69002C00F0968002F4C003B3F534
:10548000C00F40D0002B4ED002F0E863B3F1C86FDC
:1054900059D002F0C863B3F5800F64D000680123CF
:1054A0008B4018426FD012F4000F04D028680342DA
:1054B00001D082F0C0623F4B134002F0B0726046F0
:1054C000A04738BD3C4C40F2E33322463B493C48C0
:1054D00006F039FB3B4806F036FB40F2E33120464C
:1054E00006F028FB344C40F2E33322463649344878
:1054F00006F029FB3549364806F025FB40F2E3313A
:10550000204606F017FB2C4C40F2F333224631497B
:105510002B4806F018FB304806F015FB40F2F3313B
:10552000204606F007FB244C40F2F73322462B4975
:10553000234806F008FB2A4806F005FB40F2F73145
:10554000204606F0F7FA1C4C40F2FA332246254971
:105550001B4806F0F8FA244806F0F5FA40F2FA3152
:10556000204606F0E7FA144C40F2094322461F4950
:10557000134806F0E8FA1E4806F0E5FA40F2094141
:10558000204606F0D7FA0C4C40F20E432246194949
:105590000B4806F0D8FA184806F0D5FA40F20E414A
:1055A000204606F0C7FA6FF057008AE7C4F00008FB
:1055B000A0F000084000000620050108540501087D
:1055C000E0F2000800F3000868050108A8060108D9
:1055D0005CF400088C0F0108DC0F010808100108BA
:1055E0003810010864100108F81001084C11010876
:1055F000B4110108B0060108F006010838B50446E8
:105600000D46037901229A400B492846FFF73EFEDA
:1056100029462068FFF76CFE00280CDB2068217902
:10562000FFF7ECFE28734FF0E861204608F0B3FA6C
:10563000002800DB002038BD49DB000808B5A0F1D8
:10564000180350F8180C4268D2689B1ADB10034903
:1056500003FB01F108F0F8FA08BD00BF398EE3380A
:1056600010B50446B2F5004F2FD04FF0000C48188B
:105670004CEB0C0C40184CF1000C4FEACC0C4CEAF3
:10568000507CC00040184FEA83024FEA93734CF1FC
:105690000001FBF799F82449A1FB00235B091A01DB
:1056A00092B24FF0640C0CFB13031B013233A1FBCD
:1056B0000313C3F34F1303F0F0010A4492B203F053
:1056C0000F0313449BB2A36010BD4FF0000C4818A9
:1056D0004CEB0C02401842F10002D20042EA507238
:1056E000C000401842F10001DA184CEB0C03FBF744
:1056F0006BF80D49A1FB00235B091A0192B24FF030
:10570000640C0CFB1303DB003233A1FB0313C3F364
:105710004F13590001F4F8710A4492B203F00703E1
:1057200013449BB2A360CFE71F85EB5108B5024A33
:1057300008F075FB08BD00BF8DDE000808B5024A01
:1057400008F087FB08BD00BF93DE000810B5436872
:105750001B68DC68DB6814F4805F03D1054B08F03C
:10576000E8FB10BD03F4C063002BF7D16FF0850098
:10577000F7E700BF85DF000810B543681B68DC68E9
:10578000DB6814F4805F03D1054B08F0FEFB10BD0D
:1057900003F4C063002BF7D16FF08500F7E700BF7B
:1057A000D3DF000843681A6802F1140353E8003F8E
:1057B00043F0010302F1140040E800310029F3D165
:1057C000134B9A4213D0A3F54C439A420FD003F5E2
:1057D00080639A420BD003F580639A4207D003F5A9
:1057E00080639A4203D003F544439A4203D113697C
:1057F00043F04003136102F10C0353E8003F43F40C
:10580000807302F10C0040E800310029F3D17047A9
:105810000010014043681A6802F1140353E8003F86
:1058200023F0010302F1140040E800310029F3D114
:10583000134B9A4213D0A3F54C439A420FD003F571
:1058400080639A420BD003F580639A4207D003F538
:1058500080639A4203D003F544439A4203D113690B
:1058600023F04003136102F10C0353E8003F23F4DB
:10587000807302F10C0040E800310029F3D1704739
:105880000010014010B560B1844683681748834218
:105890001AD21748834217D39B6993B16046984741
:1058A00010BD144C40F28A2322461349134806F0D7
:1058B0004AF9134806F047F940F28A21204606F0DB
:1058C00039F96FF05700EBE70A4C40F28A23224681
:1058D0000C490A4806F037F90B490C4806F033F931
:1058E00040F28A21204606F025F900BFA0F000080A
:1058F00078F0000818120108CCF20008E0F2000865
:1059000000F3000848120108801301085CF4000845
:1059100010B558B1024683681548834216D215481F
:10592000834213D39B681046984710BD124C4FF426
:10593000E37322461149124806F005F9114806F0B2
:1059400002F94FF4E371204606F0F4F80A4C4FF4E4
:10595000E37322460C490A4806F0F5F80B490C4857
:1059600006F0F1F84FF4E371204606F0E3F800BFCB
:10597000A0F0000878F0000818120108CCF2000826
:10598000E0F2000800F30008481201088013010843
:105990005CF4000810B560B1844683681748834200
:1059A00017D21748834214D3DB681BB3604698476D
:1059B00010BD144C4FF48C7322461349134806F063
:1059C000C2F8134806F0BFF84FF48C71204606F079
:1059D000B1F80C4C4FF48C7322460E490B4806F07C
:1059E000B2F80D490D4806F0AEF84FF48C71204620
:1059F00006F0A0F86FF05700DAE700BF08F10008E2
:105A0000ECF00008B4F60008CCF20008E0F2000860
:105A100000F30008F0F600086CF800085CF40008D9
:105A200070B582B043681D68002952D00E4601AAA5
:105A300019695868FFF7AEFF002838DBEB6823F4DC
:105A40000043EB60019C002120194941001941F1FC
:105A50000001C90041EA5071C00000194FEA8602F6
:105A60004FEA967341F10001FAF7AEFE1C4AA2FB21
:105A700000314909642303FB11031B013233A2FBEC
:105A800003235B0903F0F00202EB011203F00F03A2
:105A900013440F2B20D93346002221462846FFF716
:105AA000DFFDA8680F288CBF0020012008B902B0D4
:105AB00070BD0C4C40F23D1322460B490B4806F0DA
:105AC00042F80B4806F03FF840F23D11204606F040
:105AD00031F86FF01500EAE76FF01500E7E700BF57
