:020000040800F2
:10000000C01D0020892500082FBB000875250008A9
:1000100075250008752500087525000800000000FA
:10002000000000000000000000000000BD250008E6
:100030007525000800000000DD270008295D000884
:10004000712800087128000871280008712800082C
:10005000712800087128000871280008712800081C
:10006000712800087128000871280008712800080C
:1000700071280008712800087128000871280008FC
:1000800071280008712800087128000871280008EC
:1000900071280008712800087128000871280008DC
:1000A00071280008712800087128000871280008CC
:1000B00071280008712800087128000871280008BC
:1000C00071280008712800087128000871280008AC
:1000D000712800087128000871280008712800089C
:1000E000712800087128000871280008712800088C
:1000F000712800087128000871280008712800087C
:1001000030B490F800F020F007016FF0000C10F010
:10011000070491F820F040F048804FF000046FF0A1
:100120000700D1E9002391F840F000F1080082FABD
:100130004CF2A4FA8CF283FA4CF3A2FA8CF34BBB88
:10014000D1E9022382FA4CF200F10800A4FA8CF201
:1001500083FA4CF3A2FA8CF3E3B9D1E9042382FACF
:100160004CF200F10800A4FA8CF283FA4CF3A2FAE4
:100170008CF37BB9D1E9062301F1200182FA4CF21C
:1001800000F10800A4FA8CF283FA4CF3A2FA8CF383
:10019000002BC6D0002A04BF04301A4612BAB2FAA5
:1001A00082F200EBD20030BC7047D1E9002304F0AA
:1001B0000305C4F100004FEAC50514F0040F91F8DF
:1001C00040F00CFA05F562EA05021CBF63EA05037C
:1001D00062464FF00004AAE7844641EA000313F0A8
:1001E00003036DD1403A41D351F8043B40F8043B3E
:1001F00051F8043B40F8043B51F8043B40F8043B01
:1002000051F8043B40F8043B51F8043B40F8043BF0
:1002100051F8043B40F8043B51F8043B40F8043BE0
:1002200051F8043B40F8043B51F8043B40F8043BD0
:1002300051F8043B40F8043B51F8043B40F8043BC0
:1002400051F8043B40F8043B51F8043B40F8043BB0
:1002500051F8043B40F8043B51F8043B40F8043BA0
:1002600051F8043B40F8043B403ABDD2303211D340
:1002700051F8043B40F8043B51F8043B40F8043B80
:1002800051F8043B40F8043B51F8043B40F8043B70
:10029000103AEDD20C3205D351F8043B40F8043B40
:1002A000043AF9D2043208D0D2071CBF11F8013B3E
:1002B00000F8013B01D30B8803806046704700BF04
:1002C000082A13D38B078DD010F003038AD0C3F113
:1002D0000403D21ADB071CBF11F8013B00F8013BF5
:1002E00080D331F8023B20F8023B7BE7043AD9D3B4
:1002F000013A11F8013B00F8013BF9D20B78037089
:100300004B7843708B788370604670474FF0FF0CDA
:100310001CEAD0521EBF1CEAD15392EA0C0F93EA9A
:100320000C0F6FD01A4480EA010C400218BF5FEA3C
:1003300041211ED04FF0006343EA501043EA5111AF
:10034000A0FB01310CF00040B1F5000F3EBF4900A9
:1003500041EAD3715B0040EA010062F17F02FD2AAD
:100360001DD8B3F1004F40EBC25008BF20F0010090
:10037000704790F0000F0CF0004C08BF49024CEAA7
:10038000502040EA51207F3AC2BFD2F1FF0340EA39
:10039000C250704740F400004FF00003013A5DDCAA
:1003A00012F1190FDCBF00F000407047C2F10002EB
:1003B000410021FA02F1C2F1200200FA02FC5FEAD8
:1003C000310040F1000053EA4C0308BF20EADC7022
:1003D000704792F0000F00F0004C02BF400010F494
:1003E000000F013AF9D040EA0C0093F0000F01F041
:1003F000004C02BF490011F4000F013BF9D041EA63
:100400000C018FE70CEAD15392EA0C0F18BF93EA64
:100410000C0F0AD030F0004C18BF31F0004CD8D18E
:1004200080EA010000F00040704790F0000F17BF15
:1004300090F0004F084691F0000F91F0004F14D05B
:1004400092EA0C0F01D142020FD193EA0C0F03D1B3
:100450004B0218BF084608D180EA010000F00040B6
:1004600040F0FE4040F40000704740F0FE4040F491
:100470004000704780F0004002E000BF81F0004182
:1004800042001FBF5FEA410392EA030F7FEA226C3A
:100490007FEA236C6AD04FEA1262D2EB1363C1BFCA
:1004A000D218414048404140B8BF5B42192B88BF39
:1004B000704710F0004F40F4000020F07F4018BF5C
:1004C000404211F0004F41F4000121F07F4118BF7C
:1004D000494292EA030F3FD0A2F1010241FA03FC24
:1004E00010EB0C00C3F1200301FA03F100F000430C
:1004F00002D5494260EB4000B0F5000F13D3B0F1D4
:10050000807F06D340084FEA310102F10102FE2A42
:1005100051D2B1F1004F40EBC25008BF20F00100B2
:1005200040EA03007047490040EB0000013A28BF51
:10053000B0F5000FEDD2B0FA80FCACF1080CB2EBD4
:100540000C0200FA0CF0AABF00EBC2505242184352
:10055000BCBFD0401843704792F0000F81F40001F7
:1005600006BF80F400000132013BB5E74FEA4103CA
:100570007FEA226C18BF7FEA236C21D092EA030F36
:1005800004D092F0000F08BF0846704790EA010FB0
:100590001CBF0020704712F07F4F04D1400028BFDD
:1005A00040F00040704712F100723CBF00F50000BF
:1005B000704700F0004343F0FE4040F400007047F5
:1005C0007FEA226216BF08467FEA236301464202A1
:1005D00006BF5FEA412390EA010F40F480007047B4
:1005E0004FF0000304E000BF10F0004348BF40425A
:1005F0005FEA000C08BF704743F0964301464FF096
:1006000000001CE050EA010208BF70474FF00003F1
:100610000AE000BF50EA010208BF704711F0004332
:1006200002D5404261EB41015FEA010C02BF844602
:100630000146002043F0B64308BFA3F18053A3F561
:100640000003BCFA8CF2083AA3EBC25310DB01FAA8
:1006500002FC634400FA02FCC2F12002BCF1004F2C
:1006600020FA02F243EB020008BF20F001007047BD
:1006700002F1200201FA02FCC2F1200250EA4C0011
:1006800021FA02F243EB020008BF20EADC70704757
:100690004FF0FF3C06E000BF4FF0010C02E000BF4E
:1006A0004FF0010C4DF804CD4FEA40024FEA4103F0
:1006B0007FEA226C18BF7FEA236C11D001B052EAA6
:1006C000530C18BF90EA010F58BFB2EB030088BF6C
:1006D000C81738BF6FEAE17018BF40F001007047DB
:1006E0007FEA226C02D15FEA402C05D17FEA236CBD
:1006F000E4D15FEA412CE1D05DF8040B704700BF04
:10070000844608466146FFE70FB5FFF7C9FF00289A
:1007100048BF10F1000F0FBD4DF808EDFFF7F4FFD3
:100720000CBF012000205DF808FB00BF4DF808ED6C
:10073000FFF7EAFF34BF012000205DF808FB00BF8F
:100740004DF808EDFFF7E0FF94BF012000205DF8B1
:1007500008FB00BF4DF808EDFFF7D2FF94BF012062
:1007600000205DF808FB00BF4DF808EDFFF7C8FF5B
:1007700034BF012000205DF808FB00BF4FEA4002B3
:10078000B2F1FE4F0FD34FF09E03B3EB12620DD9BF
:100790004FEA002343F0004310F0004F23FA02F029
:1007A00018BF404270474FF00000704712F1610FD0
:1007B00001D1420205D110F0004008BF6FF00040A7
:1007C00070474FF00000704753B94AB9002908BF7D
:1007D00000281CBF4FF0FF314FF0FF3000F00CB885
:1007E000ADF1080C6DE904CE00F008F8DDF804E086
:1007F000DDE9022304B07047704700BF2DE9F047E0
:100800008C468E46089E154604461946002B40F03D
:10081000D080724547D9B2FA82F74FB1C7F12003B1
:100820000EFA07FC20FA03F3BD4043EA0C0CBC406F
:100830004FEA154EA8B2BCFBFEF8230C0EFB18CCF9
:1008400008FB00F943EA0C43994528D9EB1808F155
:10085000FF3204D2994502D9A8F102022B44A3EB3E
:100860000903A4B2B3FBFEFC0EFB1C330CFB00F02F
:1008700044EA0344A04214D92C190CF1FF3304D2EA
:10088000A04202D9ACF102032C44241A43EA0240EC
:100890001EB1FC40002334607360BDE8F08742461F
:1008A000DDE76346F1E7002A79D0B2FA82F3002B44
:1008B0003FD01946C1F1200302FA01F52EFA03F2E6
:1008C0000EFA01FE20FA03F343EA0E034FEA154E37
:1008D00000FA01F4B2FBFEFCAFB20EFB1C201A0CB6
:1008E0000CFB07F842EA004290455AD9AA180CF1CD
:1008F000FF3004D2904502D9ACF102002A44A2EBA9
:1009000008029BB2B2FBFEFC0EFB1C220CFB07F79D
:1009100043EA02439F4246D9EB180CF1FF3204D25E
:100920009F4202D9ACF102022B44DB1B42EA004297
:1009300002E0AEEB020301224FEA154EAFB2B3FB69
:10094000FEFC200C0EFB1C330CFB07F840EA0343B3
:1009500098452AD9EB180CF1FF3004D2984502D9FA
:10096000ACF102002B44A3EB0803A4B2B3FBFEFCE2
:100970000EFB1C330CFB07F744EA0344A74216D9CD
:100980002C190CF1FF3304D2A74202D9ACF10203B7
:100990002C44E41B43EA00400F46114678E71F2130
:1009A00088E76046ABE76246BFE76046DBE7634641
:1009B000EFE7734506D916B9002108466DE7C6E989
:1009C000000EF9E7B3FA83F787B9734501D3824282
:1009D00007D8841A6EEB030301209C461EB9002140
:1009E0005BE73846FAE7C6E9004CF8E7C7F1200CA8
:1009F000BB4022FA0CF51D4320FA0CF12EFA0CF341
:100A00000EFA07FE41EA0E014FEA154900FA07F413
:100A1000B3FBF9F81FFA85FE09FB18300B0C08FB35
:100A20000EFA43EA00439A4502FA07F240D9EB185E
:100A300008F1FF3004D29A4502D9A8F102002B44F4
:100A4000A3EB0A0389B2B3FBF9F809FB183308FBDF
:100A50000EFE41EA03418E452CD9691808F1FF3397
:100A600004D28E4502D9A8F10203294443EA00408A
:100A7000A0FB0298A1EB0E014145CE46434602D3AE
:100A800006D14C4504D2B9EB020E68EB05030138E0
:100A9000002EA4D0B4EB0E0261EB030101FA0CFCB2
:100AA00022FA07F34CEA0303F940C6E9003196E75E
:100AB0004046C5E74346D9E710B558B18446836838
:100AC0001548834216D21548834213D31B696046EA
:100AD000984710BD124C40F2372322461149124864
:100AE0000AF0A4FB11480AF0A1FB40F2372120468E
:100AF0000AF093FB0A4C40F2372322460C490A487D
:100B00000AF094FB0B490C480AF090FB40F23721A5
:100B100020460AF082FB00BF60E90008FCE80008FC
:100B2000B8E90008F8E900080CEA00082CEA000817
:100B300040EA000880EB000888EB000810B560B1BF
:100B4000844683681748834217D21748834214D3D8
:100B50001B681BB36046984710BD144C40F2E1136C
:100B60002246134913480AF061FB13480AF05EFB62
:100B700040F2E11120460AF050FB0C4C40F2E11328
:100B800022460E490B480AF051FB0D490D480AF068
:100B90004DFB40F2E11120460AF03FFB6FF0570099
:100BA000DAE700BF60E90008FCE80008B8E90008DF
:100BB000F8E900080CEA00082CEA000840EA0008FE
:100BC00080EB000888EB000810B558B184468468B3
:100BD0001548844216D21548844213D3E46860460F
:100BE000A04710BD124C4FF407732246114912481A
:100BF0000AF01CFB11480AF019FB4FF4077120465C
:100C00000AF00BFB0A4C4FF4077322460C490A48C2
:100C10000AF00CFB0B490C480AF008FB4FF4077173
:100C200020460AF0FAFA00BF60E90008FCE8000874
:100C3000B8E90008F8E900080CEA00082CEA000806
:100C400040EA000880EB000888EB000810B558B1B6
:100C5000844684681548844216D21548844213D3CA
:100C600064686046A04710BD124C40F2F51322465E
:100C7000114912480AF0DAFA11480AF0D7FA40F29C
:100C8000F51120460AF0C9FA0A4C40F2F513224643
:100C90000C490A480AF0CAFA0B490C480AF0C6FA8D
:100CA00040F2F51120460AF0B8FA00BF60E90008EA
:100CB000FCE80008B8E90008F8E900080CEA0008B8
:100CC0002CEA000840EA000880EB000888EB0008E6
:100CD00030B583B00C460B78052B0BD8DFE803F05A
:100CE0001937030A0C114968A368E26819442048BF
:100CF00000F0A2FD03B030BD20224968FFF7DCFE02
:100D0000F8E74FF47A7320221A491B48FFF75CFF7B
:100D1000F0E71A49A1F10A05A26828460AF0DAFAB2
:100D20000023174A1360174A13700193202201A968
:100D300028460AF07EF802460028DBD0114B01213C
:100D40001970019900230C48FFF780FFD2E70025B6
:100D50000C4B1D700949A268A1F10A000AF0BAFA09
:100D6000074B1D60A16808480AF049FAC2E700BFB6
:100D700088060020BC06002014E600085E0600205D
:100D800050060020800B0020A0EB000800B59BB0AF
:100D9000354A20211161354B136000231381D38024
:100DA0009380D38193815381314A1161314911601C
:100DB0001381D3809380D381938153812E480DF08A
:100DC0007EF900284DD000222C492B48FFF7B6FEB3
:100DD000034618B118461BB05DF804FB4FF47A7354
:100DE000202227492448FFF7EFFE03460028F1D1CF
:100DF0006422002101A809F01DFA06E000F04EFB74
:100E00004FF49670002108F0EBF9202201A9164852
:100E100000F046FD02460028F0D001A9144800F079
:100E20000BFD184B1B78002BE8D10093202269465C
:100E30000F4809F0FEFF02460028DFD0009900238A
:100E40000D48FFF703FF0028D8D00F490022A1F179
:100E50000A000AF03FFA00230C4A1360094A137093
:100E6000CCE74FF0FF33B5E7880600209C06002052
:100E7000540600206806002014E60008D10C000883
:100E8000BC060020800B00205E06002050060020DB
:100E90000023032B0DD803EB4302074931F812203E
:100EA000824201D00133F4E703EB430301EB43003B
:100EB00070470020704700BF501B0108FF2805D075
:100EC00008B5034B1B6803B1984708BD704700BFC6
:100ED000E406002010B5044C23689878FFF7EEFF75
:100EE0000023236010BD00BFE006002008B5034BBF
:100EF0001B681879FFF7E2FF08BD00BFDC06002081
:100F000038B58568C088FFF7C3FF002842D0044683
:100F1000012D3CD1204B1B6883421AD0E378FF2B74
:100F200031D01E4D284606F00FFE1B4B1C604FF4BF
:100F30007A620023284606F06DFD2379FF2B29D025
:100F4000174B1C604FF4FA520023164806F062FD5E
:100F500020E0124806F0F8FD0028DFD1114806F025
:100F6000F3FD0D4B00221A60E078FFF7A7FF23790D
:100F7000FF2B0FD00A4B1C604FF4FA520023094894
:100F800006F048FD06E0A078FFF798FFD5E7054892
:100F900006F0DAFD38BD00BFE00600203002002078
:100FA000DC0600200002002008B50549054806F0CF
:100FB0007BFC0549054806F077FC002008BD00BF12
:100FC000D50E000830020020ED0E000800020020BF
:100FD000014B1860704700BFE406002090F82530F0
:100FE000064AA2FB031202F0FC0101EB92029B1ADB
:100FF000DBB2034A52F82300704700BFCDCCCCCC03
:10100000681B010808B5054800F0CAFE0448FFF750
:10101000DFFF044B01221A70002008BD4CE60008D7
:10102000C1120008820B002000B583B00B468DF87A
:10103000042000228DF80520024601A902480AF08A
:1010400060FD03B05DF804FB4CE600082DE9F041BB
:101050000646384C0021204600F094FE00231A4634
:10106000316820460AF04DFD3469002302E06469CE
:101070000133DBB2727E9A4201D9002CF7D130469F
:1010800009F064FF8046002719E02B4600222A4918
:1010900028480AF036FD25E0204609F0DCFE58B36A
:1010A0002B460E22254923480AF02BFD2B462022F1
:1010B000216820480AF025FD64690137FFB214B3A6
:1010C000022F20D83D01EDB21235EDB2737E3B44C4
:1010D000DBB2327E9A42D8D02B46002218491548FE
:1010E0000AF00FFD2369002BD6D02B460E2215499E
:1010F00010480AF006FDD9E72B460E2212490D488A
:101100000AF0FFFCD2E7B8F1030F05D9737E2BB9C3
:10111000737E0333434507DBBDE8F0815E22122175
:101120007820FFF781FFF3E7762232217820FFF75E
:101130007BFFF1E74CE60008B8EB0008C4EB0008C1
:10114000BCEB0008C0EB0008C8EB00082DE9F04735
:1011500082B08046894617461D4600211046FFF79B
:10116000E5FA40B9BA465046FFF708FB06464FF08D
:10117000000C012407E007F1004AF4E704EB8404C3
:1011800064000CF1010CAC45F8DB3046FFF72CFA9B
:1011900001465046FFF772F982462046FFF724FACF
:1011A00001465046FFF7B2F84FF07C51FFF768F95F
:1011B000FFF7E4FA8246844202DC0136A0EB040A1F
:1011C00000213846FFF7B2FA58B9CDF804A00095CF
:1011D0003346094A4946404609F096F802B0BDE850
:1011E000F087CDF804A000953346044A49464046AE
:1011F00009F08AF8F2E700BFD8EB0008CCEB000852
:10120000F8B50C46154690F8243043B9C26932B19E
:101210001368154A2946204609F076F806E0012BA6
:1012200005D02D23237063700023A370F8BD036ADB
:10123000002BF6D01E683046FFF7A0FA0746FFF7EE
:10124000D3F93146FFF768FA30B13B46064A2946E2
:10125000204609F059F8E9E702233246294620469C
:10126000FFF774FFE2E700BFE0EB000810B40446AC
:1012700008460A600B71019B8B60CC6000230B61F8
:101280004B610B764B76CB610B6281F824300122E7
:1012900081F825208B62CB6234B123694BB11A46A9
:1012A0005B69002BFBD15061044B1B681BB110BC68
:1012B00070472161F8E7014B1860F8E70807002044
:1012C00010B5704B1C68002C00F0D380052800F28C
:1012D000D080DFE810F03400060062009100B30017
:1012E000CA00694B1B781BB1204609F0B4FDF8B960
:1012F0002369002B00F0BD80204609F027FE00285E
:1013000000F0B780237E013393FBF0F100FB113333
:10131000DBB22376627E02329A4201DA9A1E62764C
:10132000627E934200D26376584B01221A70A0E08D
:10133000204609F0D6FD554B01221A7099E0524B18
:101340001B781BB1204609F086FDE0B92369002B0C
:1013500000F08F80204609F0F9FD002800F0898018
:10136000237EBBB9421ED3B22376627E9A4200D955
:101370006376627E02329A4201DA023B6376434B25
:1013800001221A7075E0204609F076FD3F4B0122DC
:101390001A706EE0013BDBB2E6E72269F2B100238E
:1013A00002E052690133DBB2217E994201D9002A61
:1013B000F7D1002A5DD0364B1B68062B05DC0133C4
:1013C00033490B60334941F823402E4B1A602E4BB2
:1013D00000221A702D4B01221A704AE0204609F0B3
:1013E0003AFD002845D0284A137883F00103137092
:1013F000264B01221A703CE0234B1B7833B1224B61
:1014000000221A70214B01221A7032E0204B1B6817
:10141000002B0BDB591E1E4A11601E4A52F8232076
:10142000184B1A60194B01221A7022E0E36803B3CB
:10143000144A1360154B01221A701AE0124B1B78E4
:10144000BBB1204609F007FD98B194F82520013280
:10145000114B83FB02135B1003EB8303D31A84F855
:1014600025300A4B01221A7003E0204609F0F3FCF4
:1014700000B910BD204609F072FD044B01221A701C
:10148000F7E700BF08070020810B0020820B002037
:1014900050010020E8060020676666663F4B1B7817
:1014A000002B7AD03E4B1B68002B76D030B58BB02A
:1014B00000213A4B19703B4800F04CFC384B18683F
:1014C000036933B1FFF7C2FD364800F0E5FB0BB00E
:1014D00030BD8368002B3ED09847314B186809F027
:1014E000BAFC0028F0D02F4C0021204600F04AFC26
:1014F00005AD142229462A4B1868FFF781FE3023D8
:101500000022294620460AF0FCFA274B1B78002BC4
:101510003CD0234B1868FFF761FD0446FFF72EF916
:101520000546FFF761F82146FFF7F6F808B32B46AA
:101530001E4A0C2102A808F0E7FE1A4C30233C2278
:1015400002A920460AF0DDFA302364221849204619
:101550000AF0D7FAB8E7134C0021204600F012FC3D
:101560000F4B196818230022096820460AF0C9FAAF
:10157000B3E70223224608216846FFF7E7FD6B46E2
:101580000C4A0C2102A808F0BFFED6E730234822FF
:10159000094904480AF0B5FA96E77047820B002023
:1015A000080700204CE60008810B0020E4EB00084F
:1015B000F4EB0008ECEB0008FCEB000870B582B01F
:1015C000164D002400942346154A29462046FFF76D
:1015D0004DFE144E00942346134A31462846FFF729
:1015E00045FE124B00930123114A12493046FFF782
:1015F0003DFE114D114B00930123114A29463046FF
:10160000FFF734FE0F4BEB6185F82440AC62642396
:10161000EB6232232B63204602B070BDB40700207A
:1016200004EC00087C0700200CEC00086916000898
:1016300014EC0008440700200C070020491600089D
:101640001CEC00085401002038B50446054D00216B
:10165000284600F097FB00231A46216828460AF026
:1016600050FA38BD4CE6000838B50546084C002154
:10167000204600F087FB00231A46296820460AF01E
:1016800040FA14230022034920460AF03AFA38BDF2
:101690004CE6000824EC000870B5B2F5802F31D27A
:1016A0000346042A3ED9043AC81D20F007000A4424
:1016B00022F00702121AD608172A43D9186086604A
:1016C0000023C360B6FA86F1C1F1200EC1F12405F2
:1016D000AD000735E9084B1CB34294BF002301233A
:1016E000002B45D0354C40F233332246344935483F
:1016F00009F09CFD344809F099FD40F23331204651
:1017000009F08BFD2D4C40F20A3322462F492D481B
:1017100009F08CFD2E4809F089FD40F20A3120467F
:1017200009F07BFD254C40F211332246294925481A
:1017300009F07CFD244809F079FD40F21131204682
:1017400009F06BFD1D4C40F21D33224622491D4815
:1017500009F06CFD1C4809F069FD40F21D3120467E
:1017600009F05BFD03F1040C002440F82C40013328
:101770007345F7DB1FFA81FC4FEA4C039BB24380B1
:101780000024048043F001034380731A25F0070509
:10179000AE1C9BB24FEA430E20F806E020F805C0CD
:1017A00022F00705961C845302444353538843F0A8
:1017B0000103538009F096FC70BD00BF34EC0008B3
:1017C00030ED00080CEA0008E8EC000894EC000892
:1017D000ACEC0008C4EC000804ED000808B50248B1
:1017E00009F00DFD002008BD5CED000808B5024BB6
:1017F0001B68984708BD00BF58010020014B1860C6
:10180000704700BF5801002000B585B084460A46E5
:1018100068460023009301930293039302238DF8FB
:101820000230044B0193614608F020FE05B05DF8DC
:1018300004FB00BFED1700082DE9F04182B080469F
:101840000E46154600272A4601A9404609F01DFD0F
:10185000044640B1024631460198FEF7BDFC2744DC
:1018600026442D1BEFD13A4608F10401404609F009
:1018700031FD18B9384602B0BDE8F081054C492366
:1018800022460549054809F0D1FC4921204609F0C6
:10189000C4FC00BF98ED0008C4ED00080CEA000885
:1018A0002DE9F04182B080460E461546002702E041
:1018B00027442D1B0FD02A4601A9404609F0F8FC09
:1018C000044640B1002EF3D0024601993046FEF79F
:1018D00083FC2644ECE73A4608F10A01404609F049
:1018E000F9FC18B9384602B0BDE8F081054C642314
:1018F00022460549054809F099FC6421204609F073
:101900008CFC00BF98ED0008C4ED00080CEA00084C
:10191000034A536843F0020353600020704700BF3E
:10192000002004E008B5024909F0F5FC08BD00BF3D
:101930003D1A000810B560B102468368154883421D
:1019400015D21548834212D31B68FBB11046984745
:1019500010BD124CB62322461149124809F066FC0C
:10196000114809F063FCB621204609F056FC0B4CE7
:10197000B62322460D490B4809F058FC0C490D4886
:1019800009F054FCB621204609F047FC6FF05700DF
:10199000DEE700BFC8E80008ACE80008D0ED0008AA
:1019A000F8E900080CEA00082CEA00080CEE000830
:1019B00088EF000888EB000810B560B10246836824
:1019C0001548834215D21548834212D35B68FBB198
:1019D0001046984710BD124CCC232246114912489C
:1019E00009F024FC114809F021FCCC21204609F023
:1019F00014FC0B4CCC2322460D490B4809F016FC75
:101A00000C490D4809F012FCCC21204609F005FCD8
:101A10006FF05700DEE700BFC8E80008ACE8000838
:101A2000D0ED0008F8E900080CEA00082CEA0008EC
:101A30000CEE000888EF000888EB000808B50B469C
:101A400041680C31012B11D007D81BB90948FFF7A9
:101A5000B3FF0EE06FF085000BE0023BDBB2012B21
:101A600001D8002005E06FF0850002E00148FFF793
:101A700061FF08BDA8E4000810B5082808D8064B87
:101A800053F8204020460CF01AFB18B1204610BD38
:101A90000024FBE70024F9E75C240108084B1A68DE
:101AA00042F480721A601A6842F400721A601A686E
:101AB00042F480621A60034B034A1A60704700BF09
:101AC000003C0240840100200024F400014B03602C
:101AD000002070478024010870B544798C4279D980
:101AE00090F806C0944577D92346644528BF6346DD
:101AF000022B03D99D1EC5F3470500E0002537489A
:101B0000A0FB0303DB08AB4228BF2B46E01AC0B2A0
:101B1000ACEB030C5FFA8CFC5D1CA84204D9C41A20
:101B2000013CC4F3470400E00124654505D2ACEB59
:101B30000305013DC5F3470500E00125A0EB030EB9
:101B4000ACEB0306B645A8BFB646244EA6FB0E6E08
:101B50004FEADE0EBEF1010F38BF4FF0010EAC426E
:101B600028BF2C46A64528BFA646994207D38142E6
:101B700011D29A4211D3624511D3002400E000240F
:101B80005FFA8EFE734499420BDBA0EB0E0081429C
:101B900010DB012106E00024F2E70024F0E7012435
:101BA000EEE70121934207DCACEB0E0C624509DB4A
:101BB000012302E00021F5E701232CB131B93BB943
:101BC000002008E00023F8E7002004E0012002E004
:101BD000012000E0002070BD0020FCE7CDCCCCCC83
:101BE0002DE9F04F83B01E469DF83080294B9F6849
:101BF000002F49D0894614461B68002B47D0254B3F
:101C00009B7D03EB430307EB83070846FEF778FA57
:101C10008246002514E01F4B9B7B13F0010F1FD061
:101C20001C4890F917B0A4B219F80510CDF800803F
:101C3000B3B2224609F0ABFE83445C4424B20135C2
:101C400055451DD27A792244124B1B8A9A42E2DD15
:101C5000B8F1000FDFD0BB7933441EB20024DAE7BD
:101C60000C4890F917B0A4B219F80510CDF800800F
:101C7000B3B2224609F0ABFE83445C4424B2DEE7F3
:101C8000002003B0BDE8F08F6FF01200F9E76FF0AD
:101C90001200F6E77C08002070B586B08568274BF7
:101CA0009D4229D20446264B9D4225D3254B1968D7
:101CB00000293FD00023039304930593214B5A68D6
:101CC00003921A8AADF81020588AADF81200ADF8C8
:101CD00014209A89042A14BF002201221B7E9A42F2
:101CE00017D1AD68009103AB002211462046A847EA
:101CF0000446204606B070BD134C40F2C72322466E
:101D00001249134809F092FA40F2C721204609F01F
:101D100084FA0C4E304609F0E4FEAD683368009357
:101D200003AB002211462046A8470446304609F07E
:101D3000D8FEDEE76FF01204DBE700BFFCE8000826
:101D4000C8E800087C08002028F000084CF00008D3
:101D50000CEA000838B50546094B186860B10C4616
:101D60005A68002108F066FA0CB9002038BD2846F0
:101D7000FFF792FF0020F9E76FF01200F6E700BFCF
:101D80007C080020054B5B7D8B4203D9034B997582
:101D9000002070476FF01500704700BF7C080020DE
:101DA00010B584B08368254A934236D2244A9342C0
:101DB00033D31B6A69469847224C234A121B234B94
:101DC000A3FB0232D208224B5A75BDF800001882DC
:101DD000BDF80210598208221A75BDF80C209A81AC
:101DE0009DF808209A730022DA751A769C609A751D
:101DF00001FB00F090420EDBC010154C606008F053
:101E0000DBF92060B0B1124B5A68002108F012FAD9
:101E1000002004B010BD0730EEE70E4C40F22D3329
:101E200022460D490D4809F001FA40F22D312046B5
:101E300009F0F3F96FF00B00EBE700BFFCE80008D6
:101E4000C8E800086CE9000884E90008ABAAAAAA5F
:101E50007C08002028F000084CF000080CEA00087C
:101E600010B50C4B1B78012B04D100F011FD0A4B6F
:101E7000185810BD094C40F28F33224608490948D2
:101E800009F0D4F9084809F0D1F940F28F31204621
:101E900009F0C3F9840B002008000000A0F100083D
:101EA000CCF100080CEA0008E0F1000880B5044617
:101EB0000D4616461F4607F0D3FA024600F0E8FC2E
:101EC000044B1A503A4631462846A047FFF7C8FF50
:101ED00000F06AFC0800000008B50348034A121A23
:101EE000002109F016FE08BD00020020880B00202A
:101EF00008B50648064A121A064909F00EFE0648B9
:101F0000064A121A064909F008FE08BD0000002022
:101F100000020020CC270108000000200000002063
:101F2000CC27010810B50446836842680168094857
:101F300009F065F963692269E168074809F05FF90A
:101F4000E169064809F05BF9A169054809F057F90C
:101F500010BD00BF04F2000834F2000864F200086B
:101F600074F2000838B504460D4611B10846FFF773
:101F7000D9FF012C04D02946204604F03FF938BD92
:101F8000EFF305811039024809F039F9F3E700BF92
:101F9000A4F2000830BFFFF7FDBF00BF38B504460C
:101FA000054D2A460549FEF717F9054A0021601933
:101FB00008F040F938BD00BF0000000084E90008C7
:101FC0000400000070B50646054D064B1D444C1B31
:101FD0002046FFF7E3FF083C346705F1080070BDB9
:101FE00000000000040000008169104B5A6942F4AF
:101FF00080725A61BFF34F8FBFF36F8F31F8021CAD
:102000005A6922F480725A61BFF34F8FBFF36F8F0A
:1020100001F47F43B3F55F4F01D000207047C9B290
:10202000022901D0002070470120704700ED00E038
:1020300008B54FF0000C83F800C0DDF808E08EF81A
:1020400000C002F07F4CBCF17F4F11D102F00C0CAC
:10205000BCF1080F04D012F0080F06D0084608BDE6
:10206000044809F0CCF80020F9E701221A70F6E7DD
:102070000020F4E7B8F20008F8B505460F4614460C
:102080002F4809F0BCF82F4B9B6A13F4805F25D1D1
:1020900016262C4B9B6A13F4006F24D1294B9B6AA4
:1020A00013F4007F24D1274B9B6A13F4806F37D140
:1020B000244B9B6A13F4807F37D1224B9B6A13F425
:1020C000005F37D11F4A936A43F47F439362012133
:1020D000284609F032FD20703046F8BD1A4809F054
:1020E0008EF81726D5E7194809F089F81826D5E79C
:1020F000174809F084F8134B996B9B6A13F4004F4F
:1021000001D11926CFE7134809F079F837B10D4A04
:10211000936A23F4004393621926C4E71926C2E7A1
:102120000D4809F06CF81A26C2E70C4809F067F868
:102130001B26C7E70A4809F062F81C26C2E700BF61
:10214000E4F2000800ED00E0FCF2000810F30008E3
:1021500024F3000840F3000858F3000874F3000863
:1021600090F3000808B5244809F049F8234B9B6A0E
:1021700013F0007F21D11D20204B9B6A13F0807F3C
:1021800020D11E4B9B6A13F4002F20D11B4B9B6A5E
:1021900013F4802F20D1194B9B6A13F4003F20D1F8
:1021A000164B9B6A13F4803F20D1144A936A6FEA5E
:1021B00003436FEA1343936208BD114809F01FF807
:1021C0001E20D9E70F4809F01AF81F20D9E70E485A
:1021D00009F015F82120D9E70C4809F010F8222061
:1021E000D9E70B4809F00BF82320D9E7094809F093
:1021F00006F82420D9E700BFC0F3000800ED00E096
:10220000DCF30008F0F300080CF400082CF40008DC
:1022100054F4000870F4000808B500230B7002485D
:1022200008F0EDFF08BD00BF9CF4000808B50A46A1
:102230000F2905DC0349103A034808F0E0FF08BD08
:102240000249F8E7C4F40008F8F40008DCF40008D8
:102250002DE9F04104460F461546494808F0CFFFE6
:10226000484B9B6A13F0100F3CD11026454B9B6ADC
:1022700013F0080F3BD1434B9B6A13F0020F3BD185
:102280006FF015083F4B9B6A13F0010F50D13D4B87
:102290009B6A13F0200F50D13A4B9B6A13F0100F3A
:1022A00004D1384B9B6A13F0020F04D0354B5B68A6
:1022B00013F4006F46D1334B9B6A13F0200F04D008
:1022C000304A536A23F4005353622E4A936A43F010
:1022D000FF0393620121204609F02FFC287030464D
:1022E000BDE8F081284808F08AFF1126BEE727489C
:1022F00008F085FF1226BEE7254808F080FF214B35
:10230000D3F834809B6A13F0800F03D16FF0150867
:102310001326B7E741461F4808F071FF37B1194A45
:10232000936A23F0800393621326ABE71326A9E791
:10233000194808F064FF1426A9E7184808F05FFF61
:102340001526A9E72146404609F02EFCA0B90D4B01
:102350009B6A13F0100FAED0114C4FF498732246C5
:102360001049114808F062FF104808F05FFF4FF471
:102370009871204608F051FF80F3098802269AE7F9
:102380000CF5000800ED00E024F5000810F300084B
:1023900058F5000874F500088CF5000890F3000863
:1023A000ACF50008E0F500080CEA00082CF600087F
:1023B00070B506460D46364808F021FF00232B7005
:1023C000344BDC6A14F0020423D1324BDB6A002B5D
:1023D00025DB304BDB6A13F0804F48D02E4808F0E5
:1023E0000EFF3046FFF700FEE8B92A4B9B6A13F058
:1023F000FF0F1ED1274B9B6A13F47F4F20D1254B33
:102400009B6AB3F5803F22D33046FFF7ABFE04460C
:1024100003E0224808F0F3FE0024204670BD204867
:1024200008F0EDFEF9E731681E4808F0E8FE346870
:10243000F3E72A4601213046FFF70AFF0446ECE79E
:102440002A4601213046FFF717FE0446E5E7164C01
:1024500040F2033322461549154808F0E7FE1548B7
:1024600008F0E4FE40F20331204608F0D6FE0E4CA0
:1024700040F2063322460D490D4808F0D7FE0E48BB
:1024800008F0D4FE40F20631204608F0C6FE00BF38
:1024900050F6000800ED00E09CF6000868F6000821
:1024A0008CF60008BCF60008ACF50008DCF6000865
:1024B0000CEA0008E0F6000804F7000830B58FB019
:1024C000244B5D68C5F30805002383F31188BFF32F
:1024D0006F8F0BAB00930DF13603FFF7A9FD68B1C9
:1024E00004469DF82C300DF13702294609F027FBF0
:1024F00005469DF837304BB10FB030BD164808F097
:102500007EFE00210846FFF72DFDF5E70DF10C0CCE
:1025100020686168A268E368ACE80F00206961691F
:10252000A269E369ACE80F009DF836304BB10A9B15
:10253000C3F308024AB96FEA53236FEA43230A93AD
:1025400003E00A9B6FF308030A9303A92846FFF7E9
:1025500009FDD1E700ED00E034F70008044B5A69AB
:1025600042F010025A615A6922F008025A6170471B
:1025700000ED00E0EFF30880EFF3098101B572464A
:10258000FFF79CFF01BD00BF0A4880F308881020B8
:1025900080F3118808484FF40461401880F30988DB
:1025A000EFF314800221084380F31488BFF36F8F88
:1025B00000F06AF8C01D0020001000201EF0040F7B
:1025C0000CBFEFF30880EFF30980816911F8021C5A
:1025D0000229FFD001B5724609F0A3FA01BD00BF80
:1025E000002807DB00F01F02400901239340024A44
:1025F00042F82030704700BF00E100E0002808DB0F
:102600000901C9B200F1604000F5614080F8001393
:10261000704700F00F000901C9B2014B195470470F
:1026200014ED00E070B505460C4601310F2903D8C2
:1026300040B2FFF7E3FF70BD084E6B2332460849F6
:10264000084808F0F3FD0F232A462146064808F003
:10265000EDFD6B21304608F0E0FD00BF74F7000887
:10266000ACF700080CEA0008C8F70008044B23F098
:102670007F03044A9360BFF34F8FBFF36F8F7047A0
:102680000000000800ED00E008B5FFF7EFFF0B4A7F
:10269000D2F8883023F47003C2F88830EFF3148343
:1026A00023F0040383F31488BFF36F8FFFF714FC48
:1026B000FFF71EFC00F0C2F803F04AFF00ED00E057
:1026C0000E4B9B68A3B110F1160F0AD01A6EA2F13F
:1026D000400C84450ED882420ED98A4206D800208A
:1026E00070471A6E8A4201D800207047186E7047F2
:1026F000002070470020704700207047280B002002
:1027000010B4A2F120040D4942F8081C21F0010187
:1027100042F8081C42F8203C019B42F81C3C029BFA
:1027200042F8183C039B42F8143C4FF0807342F887
:10273000043C04650023436710BC7047AD1E0008CD
:1027400008B50E4615460B4A9060026F0A4B1A6098
:1027500000F0B2F82C4686F309880020034B984716
:102760002046002100220023014C2047B7BB00086F
:10277000AD1E0008280B002098080020014B1022F5
:102780001A61704700ED00E0054B5A699B689A4258
:1027900004D0044A536843F080535360704700BF2D
:1027A000280B002000ED00E008B50A4B9B6883422F
:1027B00002D005F051FB08BDEFF30583002BF8D0E4
:1027C000054B5A6842F080525A605A6A22F400421D
:1027D0005A62EEE7280B002000ED00E014498A68F9
:1027E0004FF030001044EFF3098C80E8F01F102008
:1027F00080F31288BFF36F8F0E4F4FF000664A6967
:102800008A603E60106F0C4C2060506F002353674D
:1028100080F3118804B5104600F04EF8BDE804407E
:1028200002F1300090E8F01F8CF309887047000037
:10283000280B002004ED00E098080020002206E0AC
:1028400003F00F030949194410230B7601322F2A94
:102850000ADC53B2002BF3DB03F1604303F5614361
:10286000102183F80013F1E7704700BFFCEC00E093
:1028700008B5EFF30583103B044A02EBC301496836
:1028800052F833008847FFF77FFF08BD84E6000851
:1028900001480068704700009808002008B5034B05
:1028A000034A0121034800F0A1F908BD00000220FD
:1028B000000000208024010808B5036E403B054855
:1028C000036040234360044B8360012100F0B0F9B2
:1028D00008BD00BF9C08002000000B15084AC2F884
:1028E00098000B6823F01F03034343F01003C2F862
:1028F0009C308B6843F00103C2F8A030704700BFE2
:1029000000ED00E0084BD3F89030C3F30723013B00
:10291000984205D810B50446FFF7E0FF204610BDE9
:102920006FF01500704700BF00ED00E010B5034CDC
:102930000123227809F083F9207010BD830B002059
:1029400008B500230B4A127809F079F910F1160F37
:102950000FD0024606E0084BC3F898200021C3F8C8
:10296000A0100132044BD3F89030C3F307239342F5
:10297000F1DC08BD830B002000ED00E0F0B585B070
:10298000054603A8FFF7A2F80646002438E0B3F195
:10299000007F00F0CC80B3F1805F00F0E580B3F100
:1029A000807F2CD1506851F80C109368202B40F296
:1029B000BA80B3F1004F00F2B880013BB3FA83F361
:1029C000C3F11F035B0003F03E0343F0885343F45D
:1029D000801300900191029307E0082343F088538D
:1029E00043F4302300900191029369462878FFF761
:1029F00089FF0028C0F2D5802B7801332B70013479
:102A0000B44280F0D1804FEA041C039901EB041218
:102A1000D068030D1B05B3F5000F67D0B7D8B3F529
:102A2000001F19D0B3F5800F43D0B3F5801FE6D156
:102A3000506851F80C109368202BCED9B3F1004F99
:102A400008D8013BB3FA83F3C3F11F035B0003F023
:102A50003E03C3E73E23C1E7576851F80C10936863
:102A6000202B22D9B3F1004F21D8013BB3FA83F3D5
:102A7000C3F11F035B0003F03E0343F0885343F4AC
:102A8000002300970191029310F0010FADD0484C44
:102A9000952322464749484808F0C8FB474808F0B4
:102AA000C5FB9521204608F0B8FB0823E5E73E2347
:102AB000E3E7506851F80C109368202B12D9B3F15A
:102AC000004F11D8013BB3FA83F3C3F11F035B003E
:102AD00003F03E0343F0C06343F4003300900191E0
:102AE000029382E70823F5E73E23F3E7506851F8A5
:102AF0000C109368202B12D9B3F1004F11D8013B71
:102B0000B3FA83F3C3F11F035B0003F03E0343F00A
:102B1000885343F4802300900191029365E70823D2
:102B2000F5E73E23F3E708234FE73E234DE75068E0
:102B300051F80C109368202B12D9B3F1004F11D823
:102B4000013BB3FA83F3C3F11F035B0003F03E03C1
:102B500043F0805343F4802300900191029344E7B3
:102B60000823F5E73E23F3E7506851F80C1093680B
:102B7000202B12D9B3F1004F11D8013BB3FA83F3E4
:102B8000C3F11F035B0003F03E0343F0885343F49B
:102B9000003300900191029327E70823F5E73E23D5
:102BA000F3E76FF0150000E0002005B0F0BD00BFB6
:102BB00008F8000838F800080CEA000860F8000877
:102BC000044B0522C3F89420BFF34F8FBFF36F8FE0
:102BD000704700BF00ED00E0BFF35F8F024B0022A3
:102BE000C3F89420704700BF00ED00E038B50C46F4
:102BF000FFF79CFE10F1160F00D038BD084D40F2D3
:102C000071132A460749084808F010FB2146074877
:102C100008F00CFB40F27111284608F0FEFA00BFE4
:102C200008F80008DCF600080CEA000890F8000834
:102C300038B50C46FFF784FE10F1160F00D038BDF2
:102C4000084D4FF4C8732A460749084808F0EEFAC1
:102C50002146074808F0EAFA4FF4C871284608F000
:102C6000DCFA00BF08F80008DCF600080CEA0008EF
:102C7000BCF8000838B5394B1D68394BD3F8903093
:102C8000C3F307239D4203D8FFF7A6FF00241FE0EC
:102C9000344C4FF4F57322463349344808F0C6FAF1
:102CA0002F4BD3F89020C2F307222946304808F072
:102CB000BDFA4FF4F571204608F0AFFA274B5B6878
:102CC00004EB440103EB81012046FFF707FE0134CA
:102CD000A542F3D827480570FFF750FE10F1160FF4
:102CE00010D0244B1A781E4BD3F89030C3F307232F
:102CF0009A4217DA1A4BC3F898200021C3F8A010A3
:102D00000132F0E7174C40F22D23224616491748AE
:102D100008F08CFA184808F089FA40F22D21204674
:102D200008F07BFAFFF74CFF0D4BD3F8903003F41B
:102D30007F43B3F5006F01D1002038BD094C40F24C
:102D4000752322460D49094808F070FA0C4808F02E
:102D50006DFA40F27521204608F05FFA8C240108D4
:102D600000ED00E008F80008DCF600080CEA0008B6
:102D7000ECF80008830B002020F900084CF900084B
:102D80009CF9000808B5024B1B689847002008BD55
:102D9000A8080020034B1860034A937843F002030D
:102DA00093707047A80800205C01002008B5064910
:102DB00021F00701C1F1005202F500320348FEF78D
:102DC0006BFC002008BD00BF4B2B0020AC0800208E
:102DD00010B50C4B1B78012B04D1FFF759FD0A4BA2
:102DE000185810BD094C40F28F3322460849094853
:102DF00008F01CFA084808F019FA40F28F31204612
:102E000008F00BFA840B002008000000A0F1000875
:102E1000CCF100080CEA0008E0F1000838B50546DE
:102E2000114C04E06368A168284698470C340F4BA6
:102E30009C4209D80D4B9C4214D22368002BF1D040
:102E40002A689342F2D1EDE7094C1623224609493C
:102E5000094808F0EBF9094808F0E8F9162120467E
:102E600008F0DBF938BD00BF60E900086CE9000834
:102E7000D0F90008F8F900080CEA000820FA000868
:102E800000B585B04FF0FF324FF0FF3301A9044881
:102E900003F00AFD0028F5D101A8FFF7BFFFF1E715
:102EA000D401002030B585B00A9D0B9C01909DF89F
:102EB00020008DF808008DF80910ADF80A20039362
:102EC00054EA050306D0FFF783FF094BD3F880309F
:102ED00083420AD02A46234601A906480BF00AF984
:102EE000002800DB002005B030BD00252C46F1E7AE
:102EF00010050020D401002010B560B1024683689F
:102F00001548834215D21548834212D31B68FBB182
:102F10001046984710BD124CB6232246114912485C
:102F200008F084F9114808F081F9B621204608F02C
:102F300074F90B4CB62322460D490B4808F076F97C
:102F40000C490D4808F072F9B621204608F065F9E1
:102F50006FF05700DEE700BFC8E80008ACE80008E3
:102F6000D0ED0008F8E900080CEA00082CEA000897
:102F70000CEE000888EF000888EB000800B583B06D
:102F8000054A92E80300CDE9000169460348FFF7CE
:102F9000B3FF03B05DF804FB88E90008A8E400086B
:102FA00000F01F02012393401F2806D8044A5269EB
:102FB00093430CBF0120002070470020704700BFE2
:102FC000003C014000F01F02012393401F2803D85A
:102FD000034A5361002070476FF01500704700BF2F
:102FE000003C0140002399420ADD10B400EB030CC1
:102FF000044C04F80C2001339942F7DC10BC7047F4
:10300000704700BF6C010020F8B50746002401E0BE
:103010000134E4B27B78A34217D93D786619304673
:10302000FFF7BEFF0028F3D03046FFF7CBFF074B7A
:1030300053F83620002AEBD006F01F0503EBC60339
:1030400059680120A8409047E2E7F8BDB808002081
:1030500010B558B10346421E024207D1A0B923B3AE
:10306000B3FA83F0C0F11F00C0B210BD104C602352
:1030700022461049104808F0D9F8104808F0D6F850
:103080006021204608F0C9F8B0FA80F2C2F11F02B0
:103090000F2AE4DD064C612322460949064808F060
:1030A000C5F86121204608F0B8F8FF20DDE700BF31
:1030B000ACFA0008F0FA00080CEA000828FB000847
:1030C00054FB00085FFA81FC0CF102020A4B53F832
:1030D00022200B0C22EA114193FAA3F34BB1B3FA6D
:1030E00083F3984001430CF1020C034A42F82C1080
:1030F00070472023F5E700BF00380140C3B2023318
:10310000074A52F82320030C02EA104093FAA3F373
:103110001BB1B3FA83F3D84070472023FBE700BF0D
:103120000038014010B50446FFF792FF044B1856D3
:10313000044B1A6814431C6008F02BFD10BD00BF3F
:103140006C010020003C0140024A136823EA00039E
:1031500013607047003C0140032927D8DFE801F0E5
:10316000020C151E184B9A6822EA00029A60DA686F
:1031700022EA0002DA607047134B9A6802439A60B1
:10318000DA6822EA0002DA6070470F4BDA6802431D
:10319000DA609A6822EA00029A6070470A4B9A68DD
:1031A00002439A60DA681043D860704710B5074C44
:1031B0004FF4817322460649064808F037F84FF469
:1031C0008171204608F029F8003C0140ACFA000863
:1031D000DCF600080CEA000838B50C461546FFF787
:1031E00037FF0C4B53F83030A34208D07BB9094B62
:1031F00043F8304003EBC0035D60002038BD054A52
:1032000002EBC0025268AA42F0D10020F6E76FF04C
:103210000F00F3E7B808002008B5FFF719FF044BCB
:10322000002243F8302003EBC0035A6008BD00BF02
:10323000B80800200C4B1B6813F0020F09D10A4A92
:10324000136843F001031360074B1B6813F0020F70
:10325000FAD0054A936823F003039360024B9B68FE
:1032600013F00C0FFAD17047003802400C4B1A686B
:1032700022F480221A601A6842F480321A60084BE5
:103280001B6813F4003FFAD0054A536F43F0010363
:103290005367034B5B6F13F0020FFAD0704700BF08
:1032A0000038024039B133B1B0FBF1F000FB02F25B
:1032B000B2FBF3F0704710B5054C47232246054991
:1032C000054807F0B3FF4721204607F0A6FF00BFDF
:1032D000D0FB000814FC00080CEA0008F8B50C4606
:1032E0001546434B1E680421304608F042FD074650
:1032F0000221304608F03DFD2388C3F30B010B4645
:10330000442929D809B2002969D0013B432B69D847
:10331000DFE803F03D53565A5D3F496868686868C6
:10332000686868686868686860636868686868682A
:10333000686868686868686868686868686868680D
:103340006868683568686835686868376868686894
:10335000686868396868683BA8290DD12E602368C1
:10336000B3F5805F41D32A68C3F313330133B2FB53
:10337000F3F22A60002037E06FF0850034E02E6021
:10338000EDE72E60EBE72F60E9E72860E7E72E60C6
:10339000E5E700F0CBF802234FF4A8720821FFF70D
:1033A00081FF2860DBE700F0C1F807234FF4A87223
:1033B0000821FFF777FF2860D1E700232B60CEE7D5
:1033C0004FF4FA432B60CAE700232B60C7E7094B91
:1033D0002B60C4E77F002F60C1E72E60BFE76FF06E
:1033E000850001E06FF08500F8BD0020FCE700BF1C
:1033F0008401002000127A0008B51A4B9B6803F084
:103400000C03082B25D0174A136823F08073136030
:10341000144B1B6813F0007FFAD1134AD2F804381A
:1034200023F44033C2F80438D2F8043823F0706330
:1034300043F0E063C2F8043800F07CF8094A1368EE
:1034400043F080731360074B1B6813F0007FFAD0C2
:1034500008BDFFF7EFFE034A936823F0F003936083
:10346000D1E700BF0038024000300240162806D8DD
:10347000064BC34013F0010F04D0002070476FF0DB
:10348000850070476FF08500704700BFEA0060005C
:1034900038B500F071F8214C204608F0E7FC02F046
:1034A0005DFD1F4B9B68C3F303131E4AD35C20FAD8
:1034B00003F513781C41A54228D3FFF7D7FEFFF789
:1034C0009BFF174A936823F0F0039360936823F0FF
:1034D000030343F002039360114B9B6803F00C035A
:1034E000082BF9D1A54215D20F4B0C4A1A600C4A91
:1034F000936823F4E05343F4A0539360936823F458
:10350000604343F400439360002038BD204602F03E
:10351000DDFDD2E7204602F0D9FDE5E7007A030A97
:10352000003802408C2701088401002000487047C1
:1035300000127A0008B508F09AFC0B4B59680B4A48
:103540000A4040F4A84141F008010A435A605A6811
:1035500022F440325A605968054A0A40054901433D
:103560000A435A6008BD00BF003802400080BFFF18
:103570000080BFF00854000782B0064B1A6C42F07E
:1035800080521A641B6C03F080530193019B02B0BC
:10359000704700BF0038024010B5044C2046FFF7CA
:1035A000F9FB2046FEF72AF910BD00BF4936000896
:1035B00008B505480AF083FD18B1FFF7EDFF0020BC
:1035C00008BD6FF01200FBE714E6000810B558B113
:1035D000024683681348834214D21348834211D3AE
:1035E000DB691046984710BD104CB823224610499D
:1035F000104807F01BFE104807F018FEB8212046BF
:1036000007F00BFE094CB82322460C49094807F085
:103610000DFE0B490B4807F009FEB821204607F0C4
:10362000FCFD00BF60E90008FCE80008B8E90008FC
:10363000F8E900080CEA00082CEA000840EA000853
:1036400080EB000888EB000810B504460A2805D076
:10365000E1B20548FFF7BAFF204610BD0D21024830
:10366000FFF7B4FFF4E700BF14E6000810B558B147
:10367000024683681548834216D21548834213D305
:10368000DB681046984710BD124C40F2F2532246B8
:103690001149124807F0CAFD114807F0C7FD40F272
:1036A000F251204607F0B9FD0A4C40F2F25322468F
:1036B0000C490A4807F0BAFD0B490C4807F0B6FD63
:1036C00040F2F251204607F0A8FD00BF84E8000850
:1036D00060E800083CFC000870FC00080CEA0008E8
:1036E0002CEA000884FC0008C4FD000888EB0008F0
:1036F00010B558B1024683681548834216D2154862
:10370000834213D31B691046984710BD124C40F2F8
:103710001F6322461149124807F088FD114807F03F
:1037200085FD40F21F61204607F077FD0A4C40F20C
:103730001F6322460C490A4807F078FD0B490C48E4
:1037400007F074FD40F21F61204607F066FD00BFE0
:1037500084E8000860E800083CFC000870FC0008F1
:103760000CEA00082CEA000884FC0008C4FD0008EC
:1037700088EB000810B543681C68012303FA01F1C7
:103780000C4203D092B1FFF771FF10BD094C40F21B
:10379000F76322460849094807F048FD084807F042
:1037A00045FD40F2F761204607F037FDFFF7A0FF27
:1037B000EBE700BF3CFC0008CCFD00080CEA000869
:1037C0000CFE000838B5436805691C6801238B406E
:1037D0001C4208D02C68234202D0B2FA82F252096D
:1037E000FFF7C8FF38BD084C40F222732246074954
:1037F000074807F01BFD074807F018FD40F222714B
:10380000204607F00AFD00BF3CFC0008CCFD000884
:103810000CEA00080CFE000870B5002842D01346E0
:10382000864684686B4A94424CD26B4A944249D390
:103830004668006913F0FC6F55D103F03002302A5E
:1038400061D0664A1A40664DAA426CD003F0060267
:10385000042A78D013F4402240F08280B2F5402F41
:1038600000F0928013F4801F05D022B113F0010FF5
:1038700001D083F4402323F4801235684FF0010C0B
:103880000CFA01FC15EA0C0F00F08E8013F0010F0A
:1038900000F09A8003684CEA0303036023687046D3
:1038A000984770BD4F4C40F2534322464E494F4813
:1038B00007F0BCFC4E4807F0B9FC40F253412046EB
:1038C00007F0ABFC474C40F2534322464949474876
:1038D00007F0ACFC4849494807F0A8FC40F25341C6
:1038E000204607F09AFC3F4C40F25C432246444994
:1038F0003E4807F09BFC434807F098FC40F25C41CF
:10390000204607F08AFC374C40F25F4322463E498E
:10391000364807F08BFC3D4807F088FC40F25F41D9
:10392000204607F07AFC2F4C40F263432246384988
:103930002E4807F07BFC374807F078FC40F26341E3
:10394000204607F06AFC274C40F266432246324983
:10395000264807F06BFC40F26641204607F05DFC0C
:1039600013F4003F7FF47AAF1E4C40F269432246C5
:103970002A491E4807F05AFC294807F057FC40F234
:103980006941204607F049FC164C40F26D4322463F
:103990002449164807F04AFC234807F047FC40F248
:1039A0006D41204607F039FC0E4C40F27943224627
:1039B0001E490E4807F03AFC1D4807F037FC40F25C
:1039C0007941204607F029FC036823EA0C030360D1
:1039D00064E700BF84E8000860E800080200030014
:1039E000020001003CFC000870FC00080CEA000822
:1039F0002CEA000884FC0008C4FD000888EB0008DD
:103A000020FE000890FE0008B4FE0008F0FE00084A
:103A100030FF000880FF0008D0FF00080400010804
:103A20005400010890000108E0000108CCFD0008E6
:103A30000CFE0008002A3BD038B5154602EB420CBC
:103A40004FEA8C0CACF10C0C8C449CF808E04EF066
:103A5000020E8CF808E050B18468164A944216D2DF
:103A6000154A944213D3A4682A46A04738BD134C84
:103A70004FF47B7322461249124807F0D7FB1248D5
:103A800007F0D4FB4FF47B71204607F0C6FB0B4CCC
:103A90004FF47B7322460D490A4807F0C7FB0C49D7
:103AA0000C4807F0C3FB4FF47B71204607F0B5FBD1
:103AB000002070479CE8000884E800080C01010819
:103AC000F8E900080CEA00082CEA00083C010108AB
:103AD0007402010888EB00082DE9F04114464368A0
:103AE0001E695A698A4217D99F69C1EBC1054FEA1D
:103AF000850807EB8505084600F058FB084B1B5C62
:103B00001E4473689BB2636017F808306370AB792A
:103B100023700020BDE8F0816FF01500FAE700BFC8
:103B20005C250108F8B543681F695A698A4229D99A
:103B300006460C469D69C1EBC10305EB83056B7915
:103B400013B10020A871F8BD384600F0A1FC08B9F7
:103B50000020F8E7204600F029FB0C4B1A5CBB580C
:103B600023F01003BB502146384600F0BDFC21462F
:103B7000304608F041FD2146384608F04DFD002052
:103B8000A871E0E76FF01500DDE700BF5C250108D4
:103B90002DE9F84F0C461F4641680E694B69A34258
:103BA00066D99046D1F818A0C4EBC4054FEA850B3E
:103BB0000AEB85052146304608F02EFD8146002897
:103BC00059D15AF80B30012B05D0022B2ED06BB3F4
:103BD0006FF0150927E0204600F0E8FADFF89CA016
:103BE0001AF800303344C3F80C80204600F0DEFAA7
:103BF0001AF8003033449F602B794BB3204600F015
:103C0000D5FAAB680A9AB2FBF3F31C4A125C324451
:103C100051686FF30F010B4353600123AB712146D1
:103C2000304600F027FC4846BDE8F88F204600F0FB
:103C3000BDFADFF848A01AF800303344C3F8088012
:103C4000204600F0B3FA1AF800303344DF60D3E7BF
:103C5000204600F0ABFAEB680A9AB2FBF3F3074A8E
:103C6000125C324451686FF30F010B435360D4E789
:103C70006FF01509D7E76FF00F09D4E75C2501084D
:103C80002DE9F04F93B080460E461446D0F80490CC
:103C9000D9F810A003A80AF001FAD9F81430B342F9
:103CA00040F27C81D9F818B0C6EBC605AB00019391
:103CB0000BEB8505AB79002B40F073813146504604
:103CC00008F0AAFC0746002840F06E8131464046C5
:103CD00008F092FC638803F4FE53B3F5FE5F71D0E5
:103CE00022695369B3F5803F80F06181637813F0F6
:103CF000070F04D199F80C30002B00F05B81E188AC
:103D0000A388994240F05981042B04D0022B02D0A1
:103D1000012B40F05581137FC3F38012B2EBD31F08
:103D200040F051810123AB71A3696B61637803F0AB
:103D30000703019A4BF8023062692A61A288AA60DF
:103D4000E288EA602269127FC2F380122A76216932
:103D5000A28892FAA2F0B0FA80F00AB94FF0FF30D0
:103D6000E28892FAA2F7B7FA87F70AB94FF0FF375D
:103D7000012B34D00B6803934B680493984B53F892
:103D800020300993974B53F827300A93A0780DA958
:103D900000F00F0008F0DFFB071E1CDB607805A9B0
:103DA00000F0070008F0F2FB071E14DB637803F055
:103DB0000703012B00F0CC80022B1DD0E3B16FF084
:103DC000150708E00123AB716B71A3696B6163692F
:103DD0002B6100232B76384613B0BDE8F08F0B68BB
:103DE00004934B6803937F4B53F820300A937C4B2A
:103DF00053F827300993C9E7236993F81C80C8F367
:103E00000110C8F3810808A908F0D2FB071EE2DB05
:103E100007A9404608F0DEFB071EDCDB2B7E002BEB
:103E200000F09E804FF480730693019B5BF80310B3
:103E3000022914BF0021012129712389A288B3FB23
:103E4000F2F002FB10339BB2002B40F0BF8063897D
:103E5000E288B3FBF2F002FB10339BB2002B40F080
:103E6000B880204600F050FB10902979204600F0E1
:103E700085FB1190637813F0070F74D02378072B1C
:103E800000F2AA80207800F0ABF90C902369587FEB
:103E900000F00F0008F0BAFD0F9003A808F06AFDCB
:103EA000002866D004230E932B79002B64D023695D
:103EB0005B69A288B3FBF2F30B93304600F076F90E
:103EC000014603AA504602F0B7F8304600F06EF9FA
:103ED000454B1A5C5AF8023043F004034AF80230AA
:103EE0002B7E0BB16B6953B1304600F05FF93E4B4E
:103EF0001A5C5AF8023043F010034AF802302B7E65
:103F000063B16B6953B1304600F050F9364B1A5C1F
:103F10005AF8023043F008034AF802300E9B042B93
:103F200031D0304600F042F92F4B1B5C53445A69A4
:103F300022F004025A61304600F038F92A4B1B5C2B
:103F40009A44DAF8143023F08003CAF8143042E7B8
:103F5000236993F81C80C8F38100C8F3011852E765
:103F60000023069361E72378072B8BD90023237066
:103F700088E700230E9397E723695B69E288B3FB28
:103F8000F2F30B9399E7304600F010F9164B1B5CE7
:103F900053445A6942F004025A61CCE76FF01507A6
:103FA00019E76FF00F0716E76FF00F0713E76FF0D1
:103FB000150710E76FF085070DE76FF015070AE7A3
:103FC0006FF0150707E76FF0150704E76FF01507A7
:103FD00001E76FF01507FEE66FF01507FBE600BF7F
:103FE00044250108502501085C25010810B560B181
:103FF000024683681548834215D21548834212D37E
:104000001B68FBB11046984710BD124CB6232246E0
:104010001149124807F00AF9114807F007F9B621CB
:10402000204607F0FAF80B4CB62322460D490B4800
:1040300007F0FCF80C490D4807F0F8F8B6212046C7
:1040400007F0EBF86FF05700DEE700BFC8E80008A4
:10405000ACE80008D0ED0008F8E900080CEA000818
:104060002CEA00080CEE000888EF000888EB000836
:1040700070B50546446821461048FFF7B7FFC8B938
:104080000646A36828469847002307E0A269C3EBC9
:10409000C30102EB810200219171013362699342F5
:1040A000F4D32A69002313602A6953602A69936054
:1040B000304670BD6FF00406FAE700BFA8E40008C0
:1040C0002DE9F04143681F695E698E428CBF00266E
:1040D0000126DEB980460C469D69C1EBC10305EBA4
:1040E00083056B790BB9AB79DBB12146384600F01B
:1040F00091F9F8B16B79BBB101266F6927B13346ED
:10410000224629694046B847BDE8F081244C602327
:1041100022462449244807F089F86021204607F008
:104120007CF808F069FAEFE72146384600F072F8AB
:104130000126E2E72146384600F052F950B12B7EC5
:1041400003B9AB716B79002BD7D12146384600F00B
:104150007DF8D2E72146384600F076F978B16B79E0
:1041600013B16FF00406C8E72146384608F0F3FBA8
:104170002146384608F0F0FB6FF00406BDE76B7986
:1041800013B16FF00406B8E7AB712146404608F062
:10419000C0FA2146404608F02FFA6FF00406ACE75B
:1041A00084020108B00201080CEA0008072803D8BD
:1041B000074B53F82000704710B5064C21232246C8
:1041C0000549064807F032F82121204607F025F876
:1041D00084260108DC0201080C0301080CEA00082F
:1041E000072803D8074B53F82000704710B5064C3A
:1041F000342322460549064807F018F834212046A2
:1042000007F00BF864260108DC020108C40301086A
:104210000CEA000810B5072904D8084B53F82130E0
:10422000984710BD064C472322460649064806F02B
:10423000FDFF4721204606F0F0FF00BF442601089D
:10424000DC020108840401080CEA000810B5072903
:1042500004D8084B53F82130984710BD064C592319
:1042600022460649064806F0E1FF5921204606F09D
:10427000D4FF00BF24260108DC02010884040108E1
:104280000CEA000810B5072907D8094B53F821306C
:104290009847003818BF012010BD064C6B232246FA
:1042A0000549064806F0C2FF6B21204606F0B5FF1F
:1042B00004260108DC020108840401080CEA000855
:1042C00010B5072907D8094B53F821309847003813
:1042D00018BF012010BD064C7D2322460549064823
:1042E00006F0A4FF7D21204606F097FFE425010893
:1042F000DC020108840401080CEA000810B5072953
:1043000004D8084B53F82130984710BD064C8F2332
:1043100022460649064806F089FF8F21204606F00E
:104320007CFF00BFC4250108DC02010884040108E9
:104330000CEA000810B5072904D8084B53F82130BF
:10434000984710BD064CA12322460649064806F0B0
:104350006DFFA121204606F060FF00BFA4250108E3
:10436000DC020108840401080CEA000810B50729E2
:1043700004D8084B53F82130984710BD064CB3239E
:1043800022460649064806F051FFB321204606F0B2
:1043900044FF00BF84250108DC02010884040108F1
:1043A0000CEA000810B5072907D8094B53F821304B
:1043B0009847003818BF012010BD064CE92322465B
:1043C0000549064806F032FFE921204606F025FFA0
:1043D00064250108DC020108840401080CEA0008D5
:1043E00038B504460D460846FFF7E0FE084B1B5C57
:1043F000E35813F0100F01D1002038BD29462046A4
:10440000FFF75EFF08B10120F7E70020F5E700BFE6
:10441000A426010838B504460D460846FFF7C6FE37
:10442000084B1B5CE35813F0080F01D1002038BD86
:1044300029462046FFF726FF08B10120F7E70020B4
:10444000F5E700BFA426010838B504460D46084626
:10445000FFF7ACFE064B1B5C23445B6913F0800F37
:1044600001D1002038BD29462046FFF79BFFF9E720
:10447000A426010810B504460846FFF797FE034B33
:104480001A5CA35843F00103A35010BDA4260108F1
:1044900010B504460846FFF789FE054B1B5CE35840
:1044A00013F0010F01D1002010BD0120FCE700BF77
:1044B000A426010838B504460D460846FFF776FEE7
:1044C000084B1A5CA35823F00103A3502946204649
:1044D000FFF7DEFF0028F9D129462046FFF7B6FE98
:1044E000002038BDA426010810B504460846FFF791
:1044F0005DFE044B1B5CE018436923F080034361BD
:1045000010BD00BFA426010870B589B1C5884489D3
:10451000B4FBF5F305FB13436BB9B4FBF5F4082CBE
:104520001BD0102C1CD0042C1DD14FF4000019E01E
:1045300085880489ECE70D4E4FF4B37332460C497D
:104540000C4806F073FE2A4621460B4806F06EFE24
:104550004FF4B371304606F060FE4FF0807001E01A
:104560004FF0C07070BD0020FCE700BFDC02010806
:10457000280501080CEA00085005010870B589B14A
:1045800085880489B4FBF5F305FB13436BB9B4FBD1
:10459000F5F4082C1BD0102C1CD0042C1DD14FF48A
:1045A000001019E0C5884489ECE70D4E40F28913EC
:1045B00032460C490C4806F039FE2A4621460B4883
:1045C00006F034FE40F28911304606F026FE4FF424
:1045D000800001E04FF4C00070BD0020FCE700BF88
:1045E000DC020108880501080CEA000850050108F2
:1045F000F8B581B1044616460D464B68B3FA83F709
:104600007F09B3B1036813B308F020FA50BBFEB9B9
:104610006FF0150721E0164C642322461549164811
:1046200006F004FE154806F001FE6421204606F05F
:10463000F4FD0F4C6523224611490F4806F0F6FDA4
:10464000104806F0F3FD6521204606F0E6FD32B184
:1046500023682B60256063683BB13846F8BD6FF076
:104660001507FAE7002EF8D0F2E76560F5E700BF1E
:10467000B0050108EC0501080CEA0008F80501087E
:10468000080601081C06010870B50E4615460168AB
:1046900091B10C68ACB1A1B90C4612E0124C89235F
:1046A00022461249124806F0C1FD124806F0BEFD2E
:1046B0008921204606F0B1FD0C4602E02346214642
:1046C0001C4681B18A682A4004D04B68002BE5D093
:1046D00030469847002CF1D02368002BEFD0002CF7
:1046E000EDD12346EBE770BDB005010834060108A3
:1046F0000CEA00081C0601082DE9F84380460F4625
:1047000016461C46D0F80490D9F8080007F011FBB3
:10471000B6F5001F0ED00546B6F5800F2AD0B4F1CD
:10472000806F0ED0B4F1C06F0DD0B4F1007F24D1F2
:10473000022609E03946D9F8080008F0F9F9002402
:1047400015E0012600E0032642460F492846FEF701
:1047500043FD0446A0B9D9F80810384607F0EEFA30
:1047600031462846FEF7F8FC2846FEF7DBFC2046DB
:10477000BDE8F8836FF08504F9E76FF01504F6E7FC
:104780006FF00F04F3E700BF23CB0008104B9842F3
:1047900013D00AD90F4B984215D003F5C31303F574
:1047A0002063984211D10A2070470B4B984206D0E3
:1047B0000A4B984205D1042070470620704702201A
:1047C000704700207047082070470020704700BFE6
:1047D00040420F0040E13300A0860100801A06002D
:1047E00010B560B1844683681748834217D21748D2
:1047F000834214D3DB681BB36046984710BD144C4A
:104800004FF48C7322461349134806F00FFD1348EA
:1048100006F00CFD4FF48C71204606F0FEFC0C4CAB
:104820004FF48C7322460E490B4806F0FFFC0D49ED
:104830000D4806F0FBFC4FF48C71204606F0EDFCB1
:104840006FF05700DAE700BFC8E80008ACE80008DE
:10485000D0ED0008F8E900080CEA00082CEA00088E
:104860000CEE000888EF000888EB000810B560B176
:10487000844683681748834217D21748834214D36B
:104880009B691BB36046984710BD144C4FF4AC7342
:1048900022461349134806F0C9FC134806F0C6FC2B
:1048A0004FF4AC71204606F0B8FC0C4C4FF4AC73DE
:1048B00022460E490B4806F0B9FC0D490D4806F09A
:1048C000B5FC4FF4AC71204606F0A7FC6FF0570022
:1048D000DAE700BFC8E80008ACE80008D0ED00083F
:1048E000F8E900080CEA00082CEA00080CEE0008C1
:1048F00088EF000888EB0008F0B583B004460F4647
:1049000043680569DE68002201929A68012A2DD960
:10491000596801AA08311C48FFF762FF00282FDB05
:104920002F6205F110074FF0FF324FF0FF3338468A
:1049300002F028FB336823F00103336095F852102E
:10494000204608F0B5F90199204600F05BF9041EF5
:1049500006DB95F851301BB1336843F00103336037
:10496000384602F0A1FA204603B0F0BD01AA59680A
:104970000548FFF735FF0028D2DA6FF00404F2E7AC
:104980006FF00404EFE700BFA8E4000870B5044628
:10499000466805694FF0FF320021284609F0CFFB39
:1049A000336820469847002385F8503085F8523008
:1049B00005F110000122114609F0C1FB204600F06C
:1049C00061F8B368012B07D97168002208310B48E0
:1049D000FFF74CFF00280EDB3069FFF7D7FE40F0F1
:1049E00010012046FFF788FF002803DB012385F82C
:1049F0005030002070BD6FF00400FBE7A8E4000811
:104A000010B560B1024683681548834215D2154837
:104A1000834212D31B68FBB11046984710BD124C5D
:104A2000B62322461149124806F000FC114806F050
:104A3000FDFBB621204606F0F0FB0B4CB6232246C8
:104A40000D490B4806F0F2FB0C490D4806F0EEFB51
:104A5000B621204606F0E1FB6FF05700DEE700BF0D
:104A6000C8E80008ACE80008D0ED0008F8E9000844
:104A70000CEA00082CEA00080CEE000888EF000899
:104A800088EB000810B544680021206A08F023F97B
:104A9000002804DB61680448FFF7B2FF00B910BDCD
:104AA0006FF00400FBE700BFA8E4000830B52A4C13
:104AB000A4FB014E4FEA9E4C446824F03F0444EAB4
:104AC0009E444460046A24F03F04244DAA421BD84B
:104AD0000CF1010C44EA0C040462204CA24231D9CE
:104AE000F3B902EB4202B1FBF2F2C2F30B0119B3CC
:104AF00042F400410B43C26922F44F4C2CF0FF0CEE
:104B00004CEA0303C36130BD4FF4967505FB0CFC02
:104B1000134DA5FB0C5C4FEA9C1C0CF1010CD9E772
:104B200002EB820202EB8202B1FBF2F2C2F30B0152
:104B300029B142F40041DDE748F20101DAE748F229
:104B40000101D7E75200B1FBF2F340F6FC721342C9
:104B5000D1D10423CFE700BF83DE1B43A086010031
:104B6000D34D6210F0B583B0044615464768066918
:104B70004FF0000CCDF800C008F093FA204608F082
:104B8000F8F8D7E90623304602F0FCF930B9064AB6
:104B90002946204608F030F903B0F0BD204608F061
:104BA000F7F86FF00400F7E7E02601082DE9F0417F
:104BB00082B0044615464668D0F81080F7684FF07A
:104BC000010CCDF800C008F06CFA204608F0D1F8CE
:104BD0007B6843F4C0637B60D6E90623404602F05D
:104BE000D1F938B9064A2946204608F005F902B03D
:104BF000BDE8F081204608F0CBF86FF00400F6E73E
:104C0000CC26010808B542680369D0681B6AC3F363
:104C10004203012B04D0022B08D06FF0150004E0F2
:104C20000023054AFFF742FF002008BD0023034A86
:104C3000FFF73CFF0020F8E7A0860100801A06007D
:104C400070B5002842D01346864684686B4A944269
:104C50004CD26B4A944249D34668006913F0FC6F0A
:104C600055D103F03002302A61D0664A1A40664DB1
:104C7000AA426CD003F00602042A78D013F4402232
:104C800040F08280B2F5402F00F0928013F4801F34
:104C900005D022B113F0010F01D083F4402323F497
:104CA000801235684FF0010C0CFA01FC15EA0C0F6C
:104CB00000F08E8013F0010F00F09A8003684CEA38
:104CC0000303036023687046984770BD4F4C40F261
:104CD000534322464E494F4806F0A8FA4E4806F084
:104CE000A5FA40F25341204606F097FA474C40F2AD
:104CF000534322464949474806F098FA48494948EB
:104D000006F094FA40F25341204606F086FA3F4CF2
:104D100040F25C43224644493E4806F087FA434845
:104D200006F084FA40F25C41204606F076FA374CF1
:104D300040F25F4322463E49364806F077FA3D4846
:104D400006F074FA40F25F41204606F066FA2F4CF6
:104D500040F26343224638492E4806F067FA374846
:104D600006F064FA40F26341204606F056FA274CFA
:104D700040F2664322463249264806F057FA40F28E
:104D80006641204606F049FA13F4003F7FF47AAFFB
:104D90001E4C40F2694322462A491E4806F046FA54
:104DA000294806F043FA40F26941204606F035FAF8
:104DB000164C40F26D4322462449164806F036FA56
:104DC000234806F033FA40F26D41204606F025FAFA
:104DD0000E4C40F2794322461E490E4806F026FA50
:104DE0001D4806F023FA40F27941204606F015FAF4
:104DF000036823EA0C03036064E700BF84E800084B
:104E000060E8000802000300020001003CFC00080A
:104E100070FC00080CEA00082CEA000884FC00087A
:104E2000C4FD000888EB000820FE000890FE000882
:104E3000B4FE0008F0FE000830FF000880FF000804
:104E4000D0FF000804000108540001089000010888
:104E5000E0000108CCFD00080CFE000810B518B1F8
:104E600091B14160826010BD0F4C40F26E732246DA
:104E70000E490F4806F0DAF90E4806F0D7F940F26D
:104E80006E71204606F0C9F9074C40F26F73224656
:104E90000949074806F0CAF9084806F0C7F940F280
:104EA0006F71204606F0B9F93CFC0008EC050108DA
:104EB0000CEA0008500601083806010878060108C7
:104EC00010B558B18368174A934217D2164A9342D5
:104ED00014D3DB691BB30122984710BD134C40F279
:104EE000877322461249134806F0A0F9124806F0CB
:104EF0009DF940F28771204606F08FF90B4C40F285
:104F0000877322460D490B4806F090F90C490D486D
:104F100006F08CF940F28771204606F07EF96FF0BA
:104F20005700DAE784E8000860E800083CFC000865
:104F300070FC00080CEA00082CEA000884FC000859
:104F4000C4FD000888EB000810B558B1024683681C
:104F50001548834216D21548834213D35B68104626
:104F6000984710BD124C40F26D5322461149124829
:104F700006F05CF9114806F059F940F26D512046EF
:104F800006F04BF90A4C40F26D5322460C490A4890
:104F900006F04CF90B490C4806F048F940F26D5107
:104FA000204606F03AF900BF84E8000860E80008EF
:104FB0003CFC000870FC00080CEA00082CEA000821
:104FC00084FC0008C4FD000888EB000810B582B01E
:104FD00043681B6801248C4023420AD001A908F0D1
:104FE00042F920B9019B1C40201E18BF012002B0CD
:104FF00010BD084C40F2C56322460749074806F039
:1050000015F9074806F012F940F2C561204606F08E
:1050100004F900BF3CFC0008CCFD00080CEA0008C5
:105020000CFE000838B5002834D084468368534805
:1050300083423FD2524883423CD3DCF80400DCF880
:1050400010509C69002C00F0968002F4C003B3F568
:10505000C00F40D0002B4ED002F0E863B3F1C86F10
:1050600059D002F0C863B3F5800F64D00068012303
:105070008B4018426FD012F4000F04D0286803420E
:1050800001D082F0C0623F4B134002F0B072604624
:10509000A04738BD3C4C40F2E33322463B493C48F4
:1050A00006F0C4F83B4806F0C1F840F2E331204670
:1050B00006F0B3F8344C40F2E33322463649344824
:1050C00006F0B4F83549364806F0B0F840F2E3315E
:1050D000204606F0A2F82C4C40F2F3332246314928
:1050E0002B4806F0A3F8304806F0A0F840F2F33160
:1050F000204606F092F8244C40F2F73322462B4922
:10510000234806F093F82A4806F090F840F2F73169
:10511000204606F082F81C4C40F2FA33224625491C
:105120001B4806F083F8244806F080F840F2FA3174
:10513000204606F072F8144C40F2094322461F49FB
:10514000134806F073F81E4806F070F840F2094163
:10515000204606F062F80C4C40F20E4322461949F4
:105160000B4806F063F8184806F060F840F20E416C
:10517000204606F052F86FF057008AE784E80008EE
:1051800060E80008400000063CFC000870FC0008D5
:105190000CEA00082CEA000884FC0008C4FD0008A2
:1051A00088EB0008A8060108F80601082407010892
:1051B000540701088007010814080108680801085D
:1051C000D0080108CCFD00080CFE000838B50446E4
:1051D0000D46037901229A400B492846FFF73EFE0F
:1051E00029462068FFF76CFE00280CDB2068217937
:1051F000FFF7ECFE28734FF0E861204608F03EF818
:10520000002800DB002038BD2FD2000808B5A0F12F
:10521000180350F8180C4268D2689B1ADB10034937
:1052200003FB01F108F083F808BD00BF398EE338B5
:1052300010B50446B2F5004F2FD04FF0000C4818BF
:105240004CEB0C0C40184CF1000C4FEACC0C4CEA27
:10525000507CC00040184FEA83024FEA93734CF130
:105260000001FBF7B1FA2449A1FB00235B091A01F5
:1052700092B24FF0640C0CFB13031B013233A1FB01
:105280000313C3F34F1303F0F0010A4492B203F087
:105290000F0313449BB2A36010BD4FF0000C4818DD
:1052A0004CEB0C02401842F10002D20042EA50726C
:1052B000C000401842F10001DA184CEB0C03FBF778
:1052C00083FA0D49A1FB00235B091A0192B24FF04A
:1052D000640C0CFB1303DB003233A1FB0313C3F399
:1052E0004F13590001F4F8710A4492B203F0070316
:1052F00013449BB2A360CFE71F85EB5108B5024A68
:1053000008F000F908BD00BF73D5000808B5024ACF
:1053100008F012F908BD00BF79D5000810B5436840
:105320001B68DC68DB6814F4805F03D1054B08F070
:1053300073F910BD03F4C063002BF7D16FF0850043
:10534000F7E700BF6BD6000810B543681B68DC6840
:10535000DB6814F4805F03D1054B08F089F910BDB8
:1053600003F4C063002BF7D16FF08500F7E700BFAF
:10537000B9D6000843681A6802F1140353E8003FE5
:1053800043F0010302F1140040E800310029F3D199
:10539000134B9A4213D0A3F54C439A420FD003F516
:1053A00080639A420BD003F580639A4207D003F5DD
:1053B00080639A4203D003F544439A4203D11369B0
:1053C00043F04003136102F10C0353E8003F43F440
:1053D000807302F10C0040E800310029F3D17047DE
:1053E0000010014043681A6802F1140353E8003FBB
:1053F00023F0010302F1140040E800310029F3D149
:10540000134B9A4213D0A3F54C439A420FD003F5A5
:1054100080639A420BD003F580639A4207D003F56C
:1054200080639A4203D003F544439A4203D113693F
:1054300023F04003136102F10C0353E8003F23F40F
:10544000807302F10C0040E800310029F3D170476D
:105450000010014010B560B184468368174883424C
:105460001AD21748834217D39B6993B16046984775
:1054700010BD144C40F28A2322461349134805F00C
:10548000D5FE134805F0D2FE40F28A21204605F0F1
:10549000C4FE6FF05700EBE70A4C40F28A23224625
:1054A0000C490A4805F0C2FE0B490C4805F0BEFE47
:1054B00040F28A21204605F0B0FE00BF60E80008F7
:1054C00038E8000834090108F8E900080CEA000887
:1054D0002CEA0008640901089C0A010888EB00080E
:1054E00010B582B078B184468468194884421DD2D0
:1054F000184884421AD36468ACB10498009060469E
:10550000A04702B010BD144C40F2A9132246134923
:10551000134805F08BFE134805F088FE40F2A911F0
:10552000204605F07AFE6FF05700EAE70A4C40F299
:10553000A91322460C490A4805F078FE0B490C488D
:1055400005F074FE40F2A911204605F066FE00BF8A
:1055500060E8000838E8000834090108F8E90008A4
:105560000CEA00082CEA0008640901089C0A0108FA
:1055700088EB000810B558B102468368154883428D
:1055800016D21548834213D39B681046984710BD26
:10559000124C4FF4E37322461149124805F046FEBF
:1055A000114805F043FE4FF4E371204605F035FE47
:1055B0000A4C4FF4E37322460C490A4805F036FEC4
:1055C0000B490C4805F032FE4FF4E371204605F01C
:1055D00024FE00BF60E8000838E80008340901082C
:1055E000F8E900080CEA00082CEA00086409010840
:1055F0009C0A010888EB000810B560B184468368F6
:105600001748834217D21748834214D3DB681BB371
:105610006046984710BD144C4FF48C7322461349D2
:10562000134805F003FE134805F000FE4FF48C719B
:10563000204605F0F2FD0C4C4FF48C7322460E49C7
:105640000B4805F0F3FD0D490D4805F0EFFD4FF453
:105650008C71204605F0E1FD6FF05700DAE700BFDE
:10566000C8E80008ACE80008D0ED0008F8E9000838
:105670000CEA00082CEA00080CEE000888EF00088D
:1056800088EB000870B582B043681D68002952D0CD
:105690000E4601AA19695868FFF7AEFF002838DBEB
:1056A000EB6823F40043EB60019C00212019494181
:1056B000001941F10001C90041EA5071C000001910
:1056C0004FEA86024FEA967341F10001FBF77CF83E
:1056D0001C4AA2FB00314909642303FB11031B018F
:1056E0003233A2FB03235B0903F0F00202EB011249
:1056F00003F00F0313440F2B20D933460022214619
:105700002846FFF795FDA8680F288CBF00200120D0
:1057100008B902B070BD0C4C40F23D1322460B4953
:105720000B4805F083FD0B4805F080FD40F23D116C
:10573000204605F072FD6FF01500EAE76FF01500E6
:10574000E7E700BF1F85EB51A00A0108D00A010856
:105750000CEA0008F40A01082DE9F0410C46436800
:105760001D6803691E680B79012B04D0022B0DD133
:105770004FF4806801E04FF4C0686279012A08D0D4
:10578000022A08D01ABB4FF4805706E04FF00008F9
:10579000F3E7002701E04FF4405794F806C0BCF14E
:1057A000040F17D0CBB94FF0000ED91EC9B2012992
:1057B00056D913B1BCF1040F55D0B7F5805F0FD0A7
:1057C000B7F5405F0ED0002F3FD101230BE04FF41F
:1057D0000057E2E74FF4805EE7E74FF4805EE4E7CE
:1057E000002300E002239A4240D1BEF1000F2ED1E7
:1057F000B8F1000F32D103239C453AD1E37983B14C
:10580000012B39D1214B9D420BD0A3F54C439D4236
:1058100007D003F580639D4203D003F54C439D42BE
:105820002DD1EB6823F40053EB60214608F02CF9EE
:10583000002827DBEB6843F40053EB6094E8030097
:1058400086E803000020BDE8F0810323CBE7B8F130
:10585000000F01D10423CFE70323CDE70223CBE7D9
:105860006FF08500EFE76FF08500ECE76FF08500E3
:10587000E9E76FF08500E6E76FF08500E3E76FF09A
:105880008500E0E76FF08500DDE700BF0010014014
:1058900010B560B1024683681748834217D2174893
:1058A000834214D3DB681BB31046984710BD144CD9
:1058B0004FF4EF7322461349134805F0B7FC134821
:1058C00005F0B4FC4FF4EF71204605F0A6FC0C4C3B
:1058D0004FF4EF7322460E490B4805F0A7FC0D4923
:1058E0000D4805F0A3FC4FF4EF71204605F095FC40
:1058F0006FF05700DAE700BF60E8000838E80008FA
:1059000034090108F8E900080CEA00082CEA00084C
:10591000640901089C0A010888EB000810B558B119
:10592000844683681548834216D21548834213D3B0
:105930001B686046984710BD124C4FF4C97322464D
:105940001149124805F072FC114805F06FFC4FF444
:10595000C971204605F061FC0A4C4FF4C973224618
:105960000C490A4805F062FC0B490C4805F05EFC46
:105970004FF4C971204605F050FC00BF60E80008F4
:1059800038E8000834090108F8E900080CEA0008C2
:105990002CEA0008640901089C0A010888EB000849
:1059A00010B560B1024683681548834215D2154888
:1059B000834212D31B68FBB11046984710BD124CAE
:1059C000B62322461149124805F030FC114805F073
:1059D0002DFCB621204605F020FC0B4CB6232246B8
:1059E0000D490B4805F022FC0C490D4805F01EFC42
:1059F000B621204605F011FC6FF05700DEE700BF2E
:105A0000C8E80008ACE80008D0ED0008F8E9000894
:105A10000CEA00082CEA00080CEE000888EF0008E9
:105A200088EB000810B560B10246836817488342CE
:105A300017D21748834214D3DB681BB3104698472C
:105A400010BD144C40F2671322461349134805F069
:105A5000EDFB134805F0EAFB40F26711204605F024
:105A6000DCFB0C4C40F2671322460E490B4805F054
:105A7000DDFB0D490D4805F0D9FB40F267112046CA
:105A800005F0CBFB6FF05700DAE700BFACE8000889
:105A90009CE80008080B0108F8E900080CEA000877
:105AA0002CEA00083C0B0108800C010888EB000878
:105AB00008B54B1C012B00D808BD21EAE1714FEA63
:105AC000E17C63314CF1000CC1F313030A0D42EA8F
:105AD0000C32C2F31302134403EB1C3303EB1C73AD
