:020000040800F2
:100000004070002001910008456E0108ED90000845
:10001000ED900008ED900008ED9000080000000051
:100020000000000000000000000000003591000802
:10003000ED90000800000000559300089DF40008B2
:10004000E9930008E9930008E9930008E9930008A0
:10005000E9930008E9930008E9930008E993000890
:10006000E9930008E9930008E9930008E993000880
:10007000E9930008E9930008E9930008E993000870
:10008000E9930008E9930008E9930008E993000860
:10009000E9930008E9930008E9930008E993000850
:1000A000E9930008E9930008E9930008E993000840
:1000B000E9930008E9930008E9930008E993000830
:1000C000E9930008E9930008E9930008E993000820
:1000D000E9930008E9930008E9930008E993000810
:1000E000E9930008E9930008E9930008E993000800
:1000F000E9930008E9930008E9930008E9930008F0
:0C010000E9930008E9930008E993000867
:1001400030B490F800F020F007016FF0000C10F0D0
:10015000070491F820F040F048804FF000046FF061
:100160000700D1E9002391F840F000F1080082FA7D
:100170004CF2A4FA8CF283FA4CF3A2FA8CF34BBB48
:10018000D1E9022382FA4CF200F10800A4FA8CF2C1
:1001900083FA4CF3A2FA8CF3E3B9D1E9042382FA8F
:1001A0004CF200F10800A4FA8CF283FA4CF3A2FAA4
:1001B0008CF37BB9D1E9062301F1200182FA4CF2DC
:1001C00000F10800A4FA8CF283FA4CF3A2FA8CF343
:1001D000002BC6D0002A04BF04301A4612BAB2FA65
:1001E00082F200EBD20030BC7047D1E9002304F06A
:1001F0000305C4F100004FEAC50514F0040F91F89F
:1002000040F00CFA05F562EA05021CBF63EA05033B
:1002100062464FF00004AAE7844641EA000313F067
:1002200003036DD1403A41D351F8043B40F8043BFD
:1002300051F8043B40F8043B51F8043B40F8043BC0
:1002400051F8043B40F8043B51F8043B40F8043BB0
:1002500051F8043B40F8043B51F8043B40F8043BA0
:1002600051F8043B40F8043B51F8043B40F8043B90
:1002700051F8043B40F8043B51F8043B40F8043B80
:1002800051F8043B40F8043B51F8043B40F8043B70
:1002900051F8043B40F8043B51F8043B40F8043B60
:1002A00051F8043B40F8043B403ABDD2303211D300
:1002B00051F8043B40F8043B51F8043B40F8043B40
:1002C00051F8043B40F8043B51F8043B40F8043B30
:1002D000103AEDD20C3205D351F8043B40F8043B00
:1002E000043AF9D2043208D0D2071CBF11F8013BFE
:1002F00000F8013B01D30B8803806046704700BFC4
:10030000082A13D38B078DD010F003038AD0C3F1D2
:100310000403D21ADB071CBF11F8013B00F8013BB4
:1003200080D331F8023B20F8023B7BE7043AD9D373
:10033000013A11F8013B00F8013BF9D20B78037048
:100340004B7843708B7883706046704781F0004132
:1003500002E000BF83F0004330B54FEA41044FEAAA
:10036000430594EA050F08BF90EA020F1FBF54EA45
:10037000000C55EA020C7FEA645C7FEA655C00F0E1
:10038000E2804FEA5454D4EB5555B8BF6D420CDDB2
:100390002C4480EA020281EA030382EA000083EA35
:1003A000010180EA020281EA0303362D88BF30BDD5
:1003B00011F0004F4FEA01314FF4801C4CEA11312B
:1003C00002D0404261EB410113F0004F4FEA03338A
:1003D0004CEA133302D0524263EB430394EA050F15
:1003E00000F0A780A4F10104D5F1200E0DDB02FA84
:1003F0000EFC22FA05F2801841F1000103FA0EF218
:10040000801843FA05F359410EE0A5F120050EF1DD
:10041000200E012A03FA0EFC28BF4CF0020C43FA0E
:1004200005F3C01851EBE37101F0004507D54FF01B
:10043000000EDCF1000C7EEB00006EEB0101B1F56B
:10044000801F1BD3B1F5001F0CD349085FEA3000B1
:100450004FEA3C0C04F101044FEA445212F5800FBC
:1004600080F09A80BCF1004F08BF5FEA500C50F159
:10047000000041EB045141EA050130BD5FEA4C0C3C
:10048000404141EB0101013C28BFB1F5801FE9D299
:1004900091F0000F04BF01460020B1FA81F308BFBC
:1004A0002033A3F10B03B3F120020CDA0C3208DD88
:1004B00002F1140CC2F10C0201FA0CF021FA02F163
:1004C0000CE002F11402D8BFC2F1200C01FA02F1D3
:1004D00020FA0CFCDCBF41EA0C019040E41AA2BFF8
:1004E00001EB0451294330BD6FEA04041F3C1CDAC0
:1004F0000C340EDC04F11404C4F1200220FA04F0E0
:1005000001FA02F340EA030021FA04F345EA030189
:1005100030BDC4F10C04C4F1200220FA02F001FA4B
:1005200004F340EA0300294630BD21FA04F02946CD
:1005300030BD94F0000F83F4801306BF81F4801166
:100540000134013D4EE77FEA645C18BF7FEA655CD9
:1005500029D094EA050F08BF90EA020F05D054EAAB
:10056000000C04BF1946104630BD91EA030F1EBFB0
:100570000021002030BD5FEA545C05D140004941B4
:1005800028BF41F0004130BD14F580043CBF01F5A7
:10059000801130BD01F0004545F0FE4141F470018D
:1005A0004FF0000030BD7FEA645C1ABF1946104668
:1005B0007FEA655C1CBF0B46024650EA013406BF69
:1005C00052EA033591EA030F41F4002130BD00BF28
:1005D00090F0000F04BF0021704730B54FF48064E5
:1005E00004F132044FF000054FF0000150E700BF66
:1005F00090F0000F04BF0021704730B54FF48064C5
:1006000004F1320410F0004548BF40424FF00001B1
:100610003EE700BF42004FEAE2014FEA31014FEAF4
:1006200002701FBF12F07F4393F07F4F81F0605143
:10063000704732F07F4208BF704793F07F4F04BF8E
:1006400041F40021704730B54FF4607401F000456B
:1006500021F000411CE700BF50EA010208BF7047CB
:1006600030B54FF000050AE050EA010208BF7047BC
:1006700030B511F0004502D5404261EB41014FF425
:10068000806404F132045FEA915C3FF4D8AE4FF02D
:1006900003025FEADC0C18BF03325FEADC0C18BF10
:1006A000033202EBDC02C2F1200300FA03FC20FA61
:1006B00002F001FA03FE40EA0E0021FA02F11444AE
:1006C000BDE600BF70B54FF0FF0C4CF4E06C1CEAC7
:1006D00011541DBF1CEA135594EA0C0F95EA0C0F38
:1006E00000F0DEF82C4481EA030621EA4C5123EAAB
:1006F0004C5350EA013518BF52EA033541F48011DA
:1007000043F4801338D0A0FB02CE4FF00005E1FB8C
:1007100002E506F00042E0FB03E54FF00006E1FBD6
:1007200003569CF0000F18BF4EF0010EA4F1FF0419
:10073000B6F5007F64F5407404D25FEA4E0E6D4159
:1007400046EB060642EAC62141EA55514FEAC5206A
:1007500040EA5E504FEACE2EB4F1FD0C88BFBCF5E6
:10076000E06F1ED8BEF1004F08BF5FEA500E50F197
:10077000000041EB045170BD06F0004646EA01015D
:1007800040EA020081EA0301B4EB5C04C2BFD4EB8F
:100790000C0541EA045170BD41F480114FF0000E88
:1007A000013C00F3AB8014F1360FDEBF002001F0F6
:1007B000004170BDC4F10004203C35DA0C341BDC70
:1007C00004F11404C4F1200500FA05F320FA04F042
:1007D00001FA05F240EA020001F0004221F0004176
:1007E00010EBD37021FA04F642EB06015EEA430EE9
:1007F00008BF20EAD37070BDC4F10C04C4F1200519
:1008000000FA04F320FA05F001FA04F240EA0200CB
:1008100001F0004110EBD37041F100015EEA430E9C
:1008200008BF20EAD37070BDC4F1200500FA05F2BC
:100830004EEA020E20FA04F301FA05F243EA02033B
:1008400021FA04F001F0004121FA04F220EA02004A
:1008500000EBD3705EEA430E08BF20EAD37070BD90
:1008600094F0000F0FD101F00046400041EB010170
:1008700011F4801F08BF013CF7D041EA060195F052
:10088000000F18BF704703F00046520043EB03030C
:1008900013F4801F08BF013DF7D043EA06037047F9
:1008A00094EA0C0F0CEA135518BF95EA0C0F0CD004
:1008B00050EA410618BF52EA4306D1D181EA03014A
:1008C00001F000414FF0000070BD50EA410606BF44
:1008D0001046194652EA430619D094EA0C0F02D189
:1008E00050EA013613D195EA0C0F05D152EA0336CE
:1008F0001CBF104619460AD181EA030101F00041EC
:1009000041F0FE4141F470014FF0000070BD41F034
:10091000FE4141F4780170BD70B54FF0FF0C4CF40E
:10092000E06C1CEA11541DBF1CEA135594EA0C0F2D
:1009300095EA0C0F00F0A7F8A4EB050481EA030E7A
:1009400052EA03354FEA013100F088804FEA033361
:100950004FF0805545EA131343EA12634FEA02222F
:1009600045EA111545EA10654FEA00260EF00041F0
:100970009D4208BF964244F1FD0404F5407402D242
:100980005B084FEA3202B61A65EB03055B084FEAD3
:1009900032024FF480104FF4002CB6EB020E75EBD0
:1009A000030E22BFB61A754640EA0C005B084FEAF8
:1009B0003202B6EB020E75EB030E22BFB61A754675
:1009C00040EA5C005B084FEA3202B6EB020E75EBC0
:1009D000030E22BFB61A754640EA9C005B084FEA38
:1009E0003202B6EB020E75EB030E22BFB61A754645
:1009F00040EADC0055EA060E18D04FEA051545EA34
:100A000016754FEA06164FEAC30343EA52734FEADC
:100A1000C2025FEA1C1CC0D111F4801F0BD141EA55
:100A200000014FF000004FF0004CB6E711F4801FBA
:100A300004BF01430020B4F1FD0C88BFBCF5E06F9A
:100A40003FF6AFAEB5EB030C04BFB6EB020C5FEAAA
:100A5000500C50F1000041EB045170BD0EF0004EFF
:100A60004EEA113114EB5C04C2BFD4EB0C0541EA31
:100A7000045170BD41F480114FF0000E013C90E62E
:100A800045EA060E8DE60CEA135594EA0C0F08BFF2
:100A900095EA0C0F3FF43BAF94EA0C0F0AD150EAF1
:100AA00001347FF434AF95EA0C0F7FF425AF104684
:100AB00019462CE795EA0C0F06D152EA03353FF4AC
:100AC000FDAE1046194622E750EA410618BF52EA29
:100AD00043067FF4C5AE50EA41047FF40DAF52EAFD
:100AE00043057FF4EBAE12E74FEA4102B2F1E04377
:100AF00024BFB3F5001CDCF1FE5C0DD901F0004C05
:100B00004FEAC0024CEA5070B2F1004F40EB830054
:100B100008BF20F00100704711F0804F21D113F180
:100B20003872BCBF01F00040704741F480114FEAB9
:100B30005252C2F11802C2F1200C10FA0CF320FA42
:100B400002F018BF40F001004FEAC1234FEAD3235F
:100B500003FA0CFC40EA0C0023FA02F34FEA4303C9
:100B6000CCE77FEA625307D150EA01331EBF4FF052
:100B7000FE4040F44000704701F0004040F0FE406D
:100B800040F40000704700BF80F0004002E000BF6A
:100B900081F0004142001FBF5FEA410392EA030F68
:100BA0007FEA226C7FEA236C6AD04FEA1262D2EBB2
:100BB0001363C1BFD218414048404140B8BF5B42B7
:100BC000192B88BF704710F0004F40F4000020F050
:100BD0007F4018BF404211F0004F41F4000121F066
:100BE0007F4118BF494292EA030F3FD0A2F10102B0
:100BF00041FA03FC10EB0C00C3F1200301FA03F1EE
:100C000000F0004302D5494260EB4000B0F5000F10
:100C100013D3B0F1807F06D340084FEA310102F1CF
:100C20000102FE2A51D2B1F1004F40EBC25008BF81
:100C300020F0010040EA03007047490040EB00004B
:100C4000013A28BFB0F5000FEDD2B0FA80FCACF14C
:100C5000080CB2EB0C0200FA0CF0AABF00EBC25079
:100C600052421843BCBFD0401843704792F0000F67
:100C700081F4000106BF80F400000132013BB5E7BA
:100C80004FEA41037FEA226C18BF7FEA236C21D030
:100C900092EA030F04D092F0000F08BF0846704795
:100CA00090EA010F1CBF0020704712F07F4F04D163
:100CB000400028BF40F00040704712F100723CBF76
:100CC00000F50000704700F0004343F0FE4040F4A0
:100CD000000070477FEA226216BF08467FEA23635E
:100CE0000146420206BF5FEA412390EA010F40F449
:100CF000800070474FF0000304E000BF10F0004395
:100D000048BF40425FEA000C08BF704743F096437B
:100D100001464FF000001CE050EA010208BF704796
:100D20004FF000030AE000BF50EA010208BF70471D
:100D300011F0004302D5404261EB41015FEA010C32
:100D400002BF84460146002043F0B64308BFA3F12A
:100D50008053A3F50003BCFA8CF2083AA3EBC2530C
:100D600010DB01FA02FC634400FA02FCC2F120022B
:100D7000BCF1004F20FA02F243EB020008BF20F062
:100D80000100704702F1200201FA02FCC2F12002C8
:100D900050EA4C0021FA02F243EB020008BF20EABD
:100DA000DC7070474FF0FF0C1CEAD0521EBF1CEAEB
:100DB000D15392EA0C0F93EA0C0F6FD01A4480EAD9
:100DC000010C400218BF5FEA41211ED04FF00063C2
:100DD00043EA501043EA5111A0FB01310CF00040EE
:100DE000B1F5000F3EBF490041EAD3715B0040EA14
:100DF000010062F17F02FD2A1DD8B3F1004F40EBE4
:100E0000C25008BF20F00100704790F0000F0CF0B6
:100E1000004C08BF49024CEA502040EA51207F3A7A
:100E2000C2BFD2F1FF0340EAC250704740F4000055
:100E30004FF00003013A5DDC12F1190FDCBF00F046
:100E400000407047C2F10002410021FA02F1C2F1F4
:100E5000200200FA02FC5FEA310040F1000053EA90
:100E60004C0308BF20EADC70704792F0000F00F0DE
:100E7000004C02BF400010F4000F013AF9D040EAE4
:100E80000C0093F0000F01F0004C02BF490011F478
:100E9000000F013BF9D041EA0C018FE70CEAD15376
:100EA00092EA0C0F18BF93EA0C0F0AD030F0004CF6
:100EB00018BF31F0004CD8D180EA010000F00040AA
:100EC000704790F0000F17BF90F0004F084691F068
:100ED000000F91F0004F14D092EA0C0F01D14202A2
:100EE0000FD193EA0C0F03D14B0218BF084608D16B
:100EF00080EA010000F0004040F0FE4040F40000B5
:100F0000704740F0FE4040F4400070474FF0FF0C47
:100F10001CEAD0521EBF1CEAD15392EA0C0F93EA8E
:100F20000C0F69D0A2EB030280EA010C49024FEAE0
:100F3000402037D04FF0805343EA111143EA101399
:100F40000CF000408B4238BF5B0042F17D024FF451
:100F5000000C8B4224BF5B1A40EA0C00B3EB510F2C
:100F600024BFA3EB510340EA5C00B3EB910F24BF15
:100F7000A3EB910340EA9C00B3EBD10F24BFA3EB9A
:100F8000D10340EADC001B0118BF5FEA1C1CE0D162
:100F9000FD2A3FF650AF8B4240EBC25008BF20F015
:100FA000010070470CF0004C4CEA50207F32C2BF69
:100FB000D2F1FF0340EAC250704740F400004FF006
:100FC0000003013A37E792F0000F00F0004C02BF37
:100FD000400010F4000F013AF9D040EA0C0093F001
:100FE000000F01F0004C02BF490011F4000F013B5B
:100FF000F9D041EA0C0195E70CEAD15392EA0C0FC3
:1010000008D142027FF47DAF93EA0C0F7FF470AFFA
:10101000084676E793EA0C0F04D14B023FF44CAF3D
:1010200008466EE730F0004C18BF31F0004CCAD1D2
:1010300030F000427FF45CAF31F000437FF43CAF0E
:101040005FE700BF4FF0FF3C06E000BF4FF0010C30
:1010500002E000BF4FF0010C4DF804CD4FEA400212
:101060004FEA41037FEA226C18BF7FEA236C11D05C
:1010700001B052EA530C18BF90EA010F58BFB2EB0F
:10108000030088BFC81738BF6FEAE17018BF40F08F
:10109000010070477FEA226C02D15FEA402C05D143
:1010A0007FEA236CE4D15FEA412CE1D05DF8040BC8
:1010B000704700BF844608466146FFE70FB5FFF75B
:1010C000C9FF002848BF10F1000F0FBD4DF808ED13
:1010D000FFF7F4FF0CBF012000205DF808FB00BF04
:1010E0004DF808EDFFF7EAFF34BF012000205DF85E
:1010F00008FB00BF4DF808EDFFF7E0FF94BF0120AB
:1011000000205DF808FB00BF4DF808EDFFF7D2FFA7
:1011100094BF012000205DF808FB00BF4DF808EDEA
:10112000FFF7C8FF34BF012000205DF808FB00BFB7
:101130004FEA4002B2F1FE4F0FD34FF09E03B3EBE4
:1011400012620DD94FEA002343F0004310F0004F24
:1011500023FA02F018BF404270474FF0000070477A
:1011600012F1610F01D1420205D110F0004008BF19
:101170006FF0004070474FF00000704742000ED201
:10118000B2F1FE4F0BD34FF09E03B3EB126209D4C2
:101190004FEA002343F0004323FA02F070474FF078
:1011A0000000704712F1610F01D1420202D14FF0ED
:1011B000FF3070474FF00000704700BF7BB972B935
:1011C0000029BEBF00204FF0004106E008BF002804
:1011D0001CBF6FF000414FF0FF3000F057B8ADF189
:1011E000080C6DE904CE002909DB002B1ADB00F0A6
:1011F0004FF8DDF804E0DDE9022304B07047404217
:1012000061EB4101002B1BDB00F042F8DDF804E04C
:10121000DDE9022304B0404261EB4101524263EB3D
:1012200043037047524263EB430300F031F8DDF8AB
:1012300004E0DDE9022304B0404261EB4101704764
:10124000524263EB430300F023F8DDF804E0DDE9EC
:10125000022304B0524263EB4303704753B94AB9C7
:10126000002908BF00281CBF4FF0FF314FF0FF30AE
:1012700000F00CB8ADF1080C6DE904CE00F008F8F0
:10128000DDF804E0DDE9022304B07047704700BFD9
:101290002DE9F0478C468E46089E154604461946B1
:1012A000002B40F0D080724547D9B2FA82F74FB197
:1012B000C7F120030EFA07FC20FA03F3BD4043EA0E
:1012C0000C0CBC404FEA154EA8B2BCFBFEF8230C38
:1012D0000EFB18CC08FB00F943EA0C43994528D9CA
:1012E000EB1808F1FF3204D2994502D9A8F10202A5
:1012F0002B44A3EB0903A4B2B3FBFEFC0EFB1C338F
:101300000CFB00F044EA0344A04214D92C190CF160
:10131000FF3304D2A04202D9ACF102032C44241AB8
:1013200043EA02401EB1FC40002334607360BDE814
:10133000F0874246DDE76346F1E7002A79D0B2FA4A
:1013400082F3002B3FD01946C1F1200302FA01F5C8
:101350002EFA03F20EFA01FE20FA03F343EA0E031B
:101360004FEA154E00FA01F4B2FBFEFCAFB20EFBE1
:101370001C201A0C0CFB07F842EA004290455AD98F
:10138000AA180CF1FF3004D2904502D9ACF102004A
:101390002A44A2EB08029BB2B2FBFEFC0EFB1C220D
:1013A0000CFB07F743EA02439F4246D9EB180CF1C6
:1013B000FF3204D29F4202D9ACF102022B44DB1B64
:1013C00042EA004202E0AEEB020301224FEA154E70
:1013D000AFB2B3FBFEFC200C0EFB1C330CFB07F87A
:1013E00040EA034398452AD9EB180CF1FF3004D2A8
:1013F000984502D9ACF102002B44A3EB0803A4B238
:10140000B3FBFEFC0EFB1C330CFB07F744EA034462
:10141000A74216D92C190CF1FF3304D2A74202D9E6
:10142000ACF102032C44E41B43EA00400F46114692
:1014300078E71F2188E76046ABE76246BFE7604672
:10144000DBE76346EFE7734506D916B90021084686
:101450006DE7C6E9000EF9E7B3FA83F787B973457C
:1014600001D3824207D8841A6EEB030301209C4605
:101470001EB900215BE73846FAE7C6E9004CF8E7F9
:10148000C7F1200CBB4022FA0CF51D4320FA0CF1E9
:101490002EFA0CF30EFA07FE41EA0E014FEA154947
:1014A00000FA07F4B3FBF9F81FFA85FE09FB1830C0
:1014B0000B0C08FB0EFA43EA00439A4502FA07F2C6
:1014C00040D9EB1808F1FF3004D29A4502D9A8F1AF
:1014D00002002B44A3EB0A0389B2B3FBF9F809FB22
:1014E000183308FB0EFE41EA03418E452CD96918DA
:1014F00008F1FF3304D28E4502D9A8F10203294432
:1015000043EA0040A0FB0298A1EB0E014145CE4604
:10151000434602D306D14C4504D2B9EB020E68EB28
:1015200005030138002EA4D0B4EB0E0261EB0301D9
:1015300001FA0CFC22FA07F34CEA0303F940C6E96E
:10154000003196E74046C5E74346D9E70000000072
:10155000F0B587B00446284B18686A46032101F0AD
:1015600017FE0546002840D1002C3ED00098FFF71A
:101570003FF806460F460198FFF73AF81CA3D3E957
:101580000023FFF7C9F902460B4630463946FEF7FD
:10159000E3FEC4E900010298FFF72AF806460F4669
:1015A0000398FFF725F812A3D3E90023FFF7B4F956
:1015B00002460B4630463946FEF7CEFEC4E902012C
:1015C0000498FFF715F806460F460598FFF710F840
:1015D00007A3D3E90023FFF79FF902460B463046E5
:1015E0003946FEF7B9FEC4E90401284607B0F0BD4C
:1015F0000000000080842E41DC200020000000005C
:101600002DE9F04F87B082463F4B18686A460721A4
:1016100001F0BEFD8346002862D1BAF1000F5FD011
:101620000098FEF7E5FF04460D460198FEF7E0FF3F
:101630002DA3D3E90023FFF76FF902460B4620469E
:101640002946FEF789FE80468946CAE90089029844
:10165000FEF7CEFF04460D460398FEF7C9FF22A30E
:10166000D3E90023FFF758F902460B4620462946E6
:10167000FEF772FE06460F46CAE902670498FEF7B7
:10168000B7FF04460D460598FEF7B2FF16A3D3E94F
:101690000023FFF741F902460B4620462946FEF794
:1016A0005BFE04460D46CAE9044511A3D3E90023B5
:1016B00040464946FEF750FECAE900010EA3D3E9B1
:1016C000002330463946FEF747FECAE902010CA363
:1016D000D3E9002320462946FEF73EFECAE904016D
:1016E000584607B0BDE8F08F0000000080842E410E
:1016F0009A9999999999A93F7B14AE47E17A843FC9
:101700007B14AE47E17AA43FDC20002000000000FB
:101710002DE9F04F85B006460F461546984602AAB9
:1017200002F07AFB00282FDB029CDDF80C90A5FB71
:1017300004AB05FB09BB1AA3D3E900235046594665
:10174000FFF78CFD05464FF0FF335345164B73EB07
:101750000B031CD3A8FB04A408FB094410A3D3E982
:10176000002350462146FFF779FD03464FF0FF3234
:1017700052450D4AA2410DD3BDF8382000922A46A9
:101780003946304602F08AFB05B0BDE8F08F6FF0B5
:101790008500F9E76FF08500F6E700BFAFF3008042
:1017A00000CA9A3B00000000FFC99A3B08B50248F6
:1017B0000FF058F808BD00BFE403002010B54168E1
:1017C00050B18368164A934216D2164A934213D3F5
:1017D0001B6B13B3984710BD134C4FF46B73224629
:1017E0001249134814F009FC124814F006FC4FF497
:1017F0006B71204614F0F8FB0B4C4FF46B732246D0
:101800000D490B4814F0F9FB0C490D4814F0F5FB99
:101810004FF46B71204614F0E7FB0868DBE700BF6C
:10182000FC990108C8990108E09C0108149D010871
:101830002C9D01084C9D0108609D0108B49E010883
:10184000BC9E01082DE9F04791469846FFF7B6FF88
:10185000054606461C4A002348464146FFF7FEFC63
:101860008A46044655B12A4600234FF0FF30002136
:10187000FFF7F4FCA04271EB0A0121D3A6FB04742C
:1018800005FB0A44104A002348464146FFF7E6FCA0
:101890001946A2FB06060C4A002305FB0161FFF76F
:1018A000DDFC3F1844EB010438464FF0FF33BB42E8
:1018B0004FF00003A34101D24FF0FF30BDE8F087A5
:1018C0004FF0FF30FAE700BF40420F0010B548B1BB
:1018D000836815498B4215D214498B4212D31B6879
:1018E000984710BD124C40F28A43224611491248D3
:1018F00014F083FB114814F080FB40F28A4120462B
:1019000014F072FB0A4C40F28A4322460C490A4802
:1019100014F073FB0B490C4814F06FFB40F28A4142
:10192000204614F061FB00BFFC990108C89901082A
:10193000E09C0108149D01082C9D01084C9D0108A4
:10194000609D0108B49E0108BC9E010810B580B1DD
:1019500003468268194882421BD21948824218D332
:101960000C6858684068844224D8D2691846904769
:1019700010BD144C40F22F5322461349134814F063
:101980003CFB134814F039FB40F22F51204614F071
:101990002BFB0C4C40F22F5322460E490B4814F0FF
:1019A0002CFB0D490D4814F028FB40F22F51204626
:1019B00014F01AFB6FF01500DAE700BFFC9901087C
:1019C000C8990108E09C0108149D01082C9D01089C
:1019D0004C9D0108609D0108B49E0108BC9E010851
:1019E00030B585B02048214B186017F065FB50B327
:1019F0001E4D2868FFF7E2FE01461D4814F0E6FA86
:101A000028684FF47A720023FFF71CFF0446014652
:101A1000184814F0DBFA0094174B0193002302934B
:101A200003932868FFF752FF044690B90F4B1868DC
:101A30006946FFF78BFF044680B9104814F0C6FAD8
:101A4000204605B030BD0E4814F0C0FA6FF0120405
:101A5000F6E701460B4814F0B9FAF1E701460A48E7
:101A600014F0B4FAECE700BFC8960108401000205B
:101A7000EC9E0108049F0108AD170008589F01085B
:101A8000D49E0108189F0108349F010808B508E09A
:101A90000C4B18600C4BB3F90A100C4B186802F091
:101AA0006BFB4FF0FF324FF0FF3309480EF048FF59
:101AB000002014F05EF917F079FC024B1B6883429A
:101AC000E6D1EEE738100020702100201821002018
:101AD000E40300202DE98048C3B0374B186800F0BC
:101AE00009FC364C0DF1340B022362680A2158467A
:101AF00001F0D4FB13AE0223314A92690A21304629
:101B000001F0CCFB17F052FCFFF7F4F82D49FFF77A
:101B100049F9024616AD03230A21284601F0BEFB0F
:101B200010AF0223E2680A21384601F0B7FB0DF13D
:101B30006408022362690A21404601F0AFFB0DF1FF
:101B400070090223A2690A21484601F0A7FB0DF1A2
:101B50007C0A0223E2690A21504601F09FFBB4F996
:101B600008300B93237C22ACCDF820A0CDF81C903C
:101B7000CDF81880059304970396114A5069FFF732
:101B8000D7FA0290CDF804B00B9B00932B460E4A77
:101B90008021204612F0C2FB2046FEF7D1FA024611
:101BA00021460A4B186813F0B8FE00F0B1FB042080
:101BB00013F0F7FB91E700BFA81000207021002070
:101BC000902100206F12833A809F01085418002052
:101BD00000B585B069460C4B186813F033FF02A9B5
:101BE0000A4B186813F02EFF094C0198FFF786F88E
:101BF00020610398FFF782F86061022014F0B9F8C1
:101C0000092013F0CEFBE5E7FC200020E0200020B7
:101C10009021002010B502E0042013F0C2FB01F077
:101C200007FB01F0E3FE012014F0A3F80D4CB4F91A
:101C300008100D4B186802F09FFAB4F90A100B4B0C
:101C4000186802F099FA17F0B1FB094B1B68834240
:101C5000E2D0074B1860B4F90A10044B186802F080
:101C60008BFAD9E7702100202421002018210020C0
:101C70003C100020D0B588B003F042FC00260027BD
:101C8000CDE906670024049402230393029401948F
:101C900000942C4B4FF404622B492C480FF07CFD30
:101CA000CDE90667049404230393029401940094FD
:101CB000274B4FF48252274927480FF06DFDCDE99D
:101CC0000667049405230393029401940094234B24
:101CD0004FF40462224923480FF05EFDCDE9066708
:101CE0000494062303930294019400941E4B4FF432
:101CF00088621E491E480FF04FFDCDE90667049427
:101D00000A2303930294019400941A4B4FF48862BF
:101D100019491A480FF040FDCDE9066704940B23DA
:101D20000393029401940094154B4FF48862154973
:101D300015480FF031FD4FF47A70002110F0E8FFE4
:101D4000F9E700BF8D1A0008C04D0020780600207A
:101D5000151C00084035002078050020D11B000824
:101D600080450020F8050020BF530108C02C00204A
:101D700078040020D51A000800310020F804002063
:101D8000B153010880280020F803002008B503287B
:101D900036D8DFE800F002101E33012906D00429EE
:101DA0002ED11A4B1B680020984729E0174B1B685F
:101DB0000020984724E0012906D0042920D1134BA4
:101DC0001B68012098471BE0104B1B6801209847B7
:101DD00016E0012908D002290BD0032910D10B4BA2
:101DE0001B68052098470BE0084B1B6802209847AA
:101DF00006E0064B1B680420984701E0012900D04B
:101E000008BD024B1B6803209847F9E744100020E7
:101E100008B5024802F038FB002008BDA0020020EF
:101E2000014B1860704700BF4410002090F8253027
:101E3000064AA2FB031202F0FC0101EB92029B1A7C
:101E4000DBB2034A52F82300704700BFCDCCCCCCA4
:101E500038EC010808B5054806F026FC0448FFF7F1
:101E6000DFFF044B01221A70002008BD70970108A3
:101E7000192100086528002000B583B00B468DF8B5
:101E8000042000228DF80520024601A9024814F022
:101E9000C3FF03B05DF804FB709701082DE9F04122
:101EA0000646384C0021204606F0F0FB00231A4677
:101EB0003168204614F0B0FF3469002302E0646901
:101EC0000133DBB2727E9A4201D9002CF7D1304641
:101ED00013F0F7FA8046002719E02B4600222A4922
:101EE000284814F099FF25E0204613F06FFA58B304
:101EF0002B460E222549234814F08EFF2B46202224
:101F00002168204814F088FF64690137FFB214B3D8
:101F1000022F20D83D01EDB21235EDB2737E3B4465
:101F2000DBB2327E9A42D8D02B460022184915489F
:101F300014F072FF2369002BD6D02B460E221549D0
:101F4000104814F069FFD9E72B460E2212490D48BC
:101F500014F062FFD2E7B8F1030F05D9737E2BB9F5
:101F6000737E0333434507DBBDE8F0815E22122117
:101F70007820FFF781FFF3E7762232217820FFF700
:101F80007BFFF1E770970108AC9F0108B89F01083B
:101F9000B09F0108B49F0108BC9F01082DE9F047DC
:101FA00082B08046894617461D4600211046FFF73D
:101FB00097F840B9BA465046FFF7BAF806464FF0D0
:101FC000000C012407E007F1004AF4E704EB840465
:101FD00064000CF1010CAC45F8DB3046FEF78EFED8
:101FE00001465046FEF7D4FD82462046FEF786FEA7
:101FF00001465046FEF7D6FE4FF07C51FEF7CAFD73
:10200000FFF796F88246844202DC0136A0EB040A10
:1020100000213846FFF764F858B9CDF804A00095C0
:102020003346094A4946404612F078F902B0BDE805
:10203000F087CDF804A000953346044A494640464F
:1020400012F06CF9F2E700BFCC9F0108C09F0108B5
:10205000F8B50C46154690F8243043B9C26932B140
:102060001368154A2946204612F058F906E0012B5C
:1020700005D02D23237063700023A370F8BD036A7D
:10208000002BF6D01E683046FFF752F80746FEF7E1
:1020900035FE3146FFF71AF830B13B46064A29466D
:1020A000204612F03BF9E9E7022332462946204652
:1020B000FFF774FFE2E700BFD49F010810B40446A5
:1020C00008460A600B71019B8B60CC6000230B619A
:1020D0004B610B764B76CB610B6281F82430012289
:1020E00081F825208B62CB621B600B6A00221A608C
:1020F00034B123694BB11A465B69002BFBD15061A7
:10210000044B1B681BB110BC70472161F8E7014B01
:102110001860F8E76810002010B5704B1C68002CA0
:1021200000F0D380052800F2D080DFE810F0340002
:10213000060062009100B300CA00694B1B781BB116
:10214000204613F043F9F8B92369002B00F0BD8055
:10215000204613F0B6F9002800F0B780237E013343
:1021600093FBF0F100FB1133DBB22376627E023287
:102170009A4201DA9A1E6276627E934200D26376B8
:10218000584B01221A70A0E0204613F065F9554B18
:1021900001221A7099E0524B1B781BB1204613F0B4
:1021A00015F9E0B92369002B00F08F80204613F069
:1021B00088F9002800F08980237EBBB9421ED3B283
:1021C0002376627E9A4200D96376627E02329A4218
:1021D00001DA023B6376434B01221A7075E0204618
:1021E00013F005F93F4B01221A706EE0013BDBB2A0
:1021F000E6E72269F2B1002302E052690133DBB263
:10220000217E994201D9002AF7D1002A5DD0364BB0
:102210001B68062B05DC013333490B60334941F859
:1022200023402E4B1A602E4B00221A702D4B012298
:102230001A704AE0204613F0C9F8002845D0284A11
:10224000137883F001031370264B01221A703CE0CF
:10225000234B1B7833B1224B00221A70214B0122F1
:102260001A7032E0204B1B68002B0BDB591E1E4AF4
:1022700011601E4A52F82320184B1A60194B012294
:102280001A7022E0E36803B3144A1360154B01226D
:102290001A701AE0124B1B78BBB1204613F096F867
:1022A00098B194F825200132114B83FB02135B1087
:1022B00003EB8303D31A84F825300A4B01221A70EA
:1022C00003E0204613F082F800B910BD204613F059
:1022D00001F9044B01221A70F7E700BF68100020D3
:1022E0006428002065280020AC020020481000204F
:1022F0006766666618B1044A1268824200D0704769
:10230000024B01221A70FAE76810002065280020AD
:102310003F4B1B78002B7AD03E4B1B68002B76D0AE
:1023200030B58BB000213A4B19703B4806F096F956
:10233000384B1868036933B1FFF7B0FD364806F033
:102340002FF90BB030BD8368002B3ED09847314B3E
:10235000186813F03BF80028F0D02F4C00212046DD
:1023600006F094F905AD142229462A4B1868FFF7A8
:102370006FFE302300222946204614F04DFD274BE6
:102380001B78002B3CD0234B1868FFF74FFD044609
:10239000FEF7CEFE0546FEF7B1FC2146FEF796FE9F
:1023A00008B32B461E4A0C2102A811F0B7FF1A4CA5
:1023B00030233C2202A9204614F02EFD3023642253
:1023C0001849204614F028FDB8E7134C0021204698
:1023D00006F05CF90F4B19681823002209682046A3
:1023E00014F01AFDB3E70223224608216846FFF7DE
:1023F000D5FD6B460C4A0C2102A811F08FFFD6E7E1
:10240000302348220949044814F006FD96E7704736
:1024100065280020681000207097010864280020BB
:10242000D89F0108E89F0108E09F0108F09F01087C
:1024300070B582B0224D002400942346214A2946DB
:102440002046FFF73BFE204E009423461F4A3146AC
:102450002846FFF733FE1E4B009301231D4A1E49F9
:102460002846FFF72BFE1D4B18601D4B00930123E0
:102470001C4A1D492846FFF721FE1C4B18601C4BC7
:10248000009301231B4A1C493046FFF717FE1B4BE4
:1024900018601B4D1B4B009301231B4A29463046F5
:1024A000FFF70CFE194BEB6185F824406FF0310209
:1024B000AA623222EA622C631C60204602B070BD20
:1024C00090110020F89F01085811002000A0010879
:1024D000B52600080CA00108E8100020E410002038
:1024E0003126000814A00108AC100020A81000201C
:1024F0006D2500081CA00108701000206C10002041
:10250000201100201125000824A00108C811002076
:1025100030B585B00446134D0121284606F0B6F8C3
:1025200000231A462168284614F076FC002128462C
:1025300006F0ACF8E36923B11868FEF7DFFB0A4B3D
:10254000986101AC0223084A92690A21204600F0F2
:10255000A5FE1E2314222146024814F05DFC05B09E
:1025600030BD00BF709701089021002070B58CB07D
:102570000446284D0121284606F088F800231A4613
:102580002168284614F048FC0021284606F07EF811
:1025900002A9002602964E60009601961E4B18680E
:1025A00013F050FA69461D4B186813F04BFA04AC4F
:1025B000039B1B4A2021204611F0B0FE1423324613
:1025C0002146284614F028FC029B164A202120466A
:1025D00011F0A4FE142340222146284614F01CFCCE
:1025E000019B114A2021204611F098FE1E233246FD
:1025F0002146284614F010FC009B0C4A202120465E
:1026000011F08CFE1E2340222146284614F004FCC3
:102610000CB070BD70970108FC200020E020002065
:102620002CA0010834A001083CA0010844A0010826
:10263000F0B58DB005461B4C0121204606F026F86A
:1026400000231A462968204614F0E6FB00212046A4
:1026500006F01CF8144F08AE02237A6810213046A9
:1026600000F01CFE3346114A2021684611F056FE48
:10267000142300226946204614F0CEFB02233A6858
:102680001021304600F00AFE3346094A20216846F0
:1026900011F044FE142340226946204614F0BCFB8E
:1026A0000DB0F0BD70970108702100204CA001080A
:1026B00058A001082DE9F04192B00446504F002186
:1026C000384605F0E3FF00231A462168384614F027
:1026D000A3FB0026009601960296039604960596A3
:1026E0006846FEF735FFDDE90001FEF7FDF9024619
:1026F0000EAD02231021284600F0D0FD06AC2B467B
:10270000404A2021204611F009FE0A233246214684
:10271000384614F081FBDDE90201FEF7E5F90246D7
:1027200002231021284600F0B9FD2B46364A20210D
:10273000204611F0F3FD0A2340222146384614F0CA
:102740006BFBDDE90401FEF7CFF9024602231021FD
:10275000284600F0A3FD2B462C4A2021204611F0EC
:10276000DDFD142332462146384614F055FB6846F9
:10277000FEF746FFDDE90001FEF7B6F90246022347
:102780001021284600F08AFD2B46214A20212046B0
:1027900011F0C4FD142340222146384614F03CFBBE
:1027A000DDE90201FEF7A0F90246022310212846C6
:1027B00000F074FD2B46174A2021204611F0AEFD93
:1027C0001E2332462146384614F026FBDDE904017B
:1027D000FEF78AF9024602231021284600F05EFD2A
:1027E0002B460D4A2021204611F098FD1E23402241
:1027F0002146384614F010FB12B0BDE8F08100BF4E
:102800007097010860A0010868A0010870A0010885
:1028100078A0010880A0010888A00108034668B1DB
:1028200079B1106880B1906888B159609A600020D1
:10283000187398735873074A1A6070474FF0FF3047
:1028400070474FF0FF3070474FF0FF3070474FF048
:10285000FF30704778F4010808B5064A0649074872
:10286000FFF7DCFF18B9064B044A1A6008BD4FF0A9
:10287000FF30FBE7A8F40108D01100202C1800203D
:10288000CC11002010B5064C00221146206813F030
:102890000FF814220121206813F00AF8002010BD5F
:1028A000CC11002010B558B1024683681548834208
:1028B00016D21548834213D35B691046984710BD62
:1028C000124C40F24C6322461149124813F095FB1A
:1028D000114813F092FB40F24C61204613F084FB48
:1028E0000A4C40F24C6322460C490A4813F085FB1F
:1028F0000B490C4813F081FB40F24C61204613F069
:1029000073FB00BF489A0108249A010890A00108AF
:10291000C4A001082C9D01084C9D0108D8A0010805
:1029200018A20108BC9E010810B543681A6801236B
:1029300003FA01F10A4202D0FFF7B4FF10BD084CC0
:1029400040F24D7322460749074813F056FB0748EB
:1029500013F053FB40F24D71204613F045FB00BFCE
:1029600090A0010820A201082C9D010860A2010886
:10297000C2788B1F9A425CD110B582B00446002306
:102980001A469E4608E014F803C0F4445FFA8CFE31
:102990007244D2B20133DBB2881E8342F3DB235C84
:1029A000734518D10139635C934214D1A37873B98C
:1029B000ADF804308DF80630237963B9637953B9E3
:1029C000A37943B91B4B186812F096FF03E0E02B84
:1029D00003D0032B12D002B010BD01A90023ADF823
:1029E00004308B70A3788DF804308DF805E08DF8F5
:1029F0000620104B186812F04AFFECE708210E4839
:102A0000FFF792FF6068FDF7F3FD00220B4BFDF727
:102A100083FFFEF769F80A4B1860E068FDF7E8FDF0
:102A20000022064BFDF778FFFEF75EF8054B1860B5
:102A3000D1E77047CC1100207496010800408F4008
:102A4000BC0200205023002070B582B00C46154611
:102A500038B101281BD10B785A1C0A700122EA54A4
:102A600015E001AE0023ADF804308DF80630314694
:102A7000084B186812F02FFF2378EA18BDF80400FD
:102A80009DF80610E852917023780333237002B04A
:102A900070BD00BFCC11002008B50A460146024BAC
:102AA000186812F03AFF08BD5418002010B550B154
:102AB000836815498B4216D214498B4213D31B6C81
:102AC00003B1984710BD124C40F25B1322461149E6
:102AD000114813F092FA114813F08FFA40F25B118B
:102AE000204613F081FA0A4C40F25B1322460C494F
:102AF000094813F082FA0B490B4813F07EFA40F2B2
:102B00005B11204613F070FA649B0108009B0108DA
:102B100074A20108149D01082C9D01084C9D010818
:102B2000B4A2010848B70108BC9E010810B550B115
:102B3000836815498B4216D214498B4213D35B6BC1
:102B400003B1984710BD124C40F23113224611498F
:102B5000114813F052FA114813F04FFA40F23111B4
:102B6000204613F041FA0A4C40F2311322460C4938
:102B7000094813F042FA0B490B4813F03EFA40F2B1
:102B80003111204613F030FA649B0108009B0108C4
:102B900074A20108149D01082C9D01084C9D010898
:102BA000B4A2010848B70108BC9E010810B550B195
:102BB000836815498B4216D214498B4213D3DB6DBF
:102BC00003B1984710BD124C4FF4DE7322461149F1
:102BD000114813F012FA114813F00FFA4FF4DE7196
:102BE000204613F001FA0A4C4FF4DE7322460C49DA
:102BF000094813F002FA0B490B4813F0FEF94FF4A1
:102C0000DE71204613F0F0F9649B0108009B010877
:102C100074A20108149D01082C9D01084C9D010817
:102C2000B4A2010848B70108BC9E010810B550B114
:102C3000836817498B4216D216498B4213D3DB6B3C
:102C400013B3984710BD144C40F24B13224613495E
:102C5000134813F0D2F9134813F0CFF940F24B1197
:102C6000204613F0C1F90C4C40F24B1322460E499A
:102C70000B4813F0C2F90D490D4813F0BEF940F2AC
:102C80004B11204613F0B0F96FF05700DAE700BFA0
:102C9000649B0108009B010874A20108149D0108AF
:102CA0002C9D01084C9D0108B4A2010848B70108F9
:102CB000BC9E010810B560B1844683681548834204
:102CC00015D21548834212D3DB6AFBB160469847A0
:102CD00010BD124CE92322461149124813F08DF918
:102CE000114813F08AF9E921204613F07DF90B4CC5
:102CF000E92322460D490B4813F07FF90C490D4892
:102D000013F07BF9E921204613F06EF96FF05700BC
:102D1000DEE700BF649B0108009B010874A2010864
:102D2000149D01082C9D01084C9D0108B4A20108C6
:102D300048B70108BC9E010810B550B18368154919
:102D40008B4216D214498B4213D39B6B03B1984725
:102D500010BD124C4FF49F7322461149114813F0D5
:102D60004CF9114813F049F94FF49F71204613F0C4
:102D70003BF90A4C4FF49F7322460C49094813F063
:102D80003CF90B490B4813F038F94FF49F7120467A
:102D900013F02AF9649B0108009B010874A2010842
:102DA000149D01082C9D01084C9D0108B4A2010846
:102DB00048B70108BC9E010810B550B18368174997
:102DC0008B4216D216498B4213D3DB6C13B3984750
:102DD00010BD144C4FF4C27322461349134813F02C
:102DE0000CF9134813F009F94FF4C271204613F09F
:102DF000FBF80C4C4FF4C27322460E490B4813F0FB
:102E0000FCF80D490D4813F0F8F84FF4C271204654
:102E100013F0EAF86FF05700DAE700BF649B01088F
:102E2000009B010874A20108149D01082C9D010853
:102E30004C9D0108B4A2010848B70108BC9E0108D6
:102E400010B560B1844683681748834217D217488B
:102E5000834214D31B6B1BB36046984710BD144CC0
:102E600040F20D1322461349134813F0C6F81348D5
:102E700013F0C3F840F20D11204613F0B5F80C4CD6
:102E800040F20D1322460E490B4813F0B6F80D49D7
:102E90000D4813F0B2F840F20D11204613F0A4F8DB
:102EA0006FF05700DAE700BF649B0108009B010840
:102EB00074A20108149D01082C9D01084C9D010875
:102EC000B4A2010848B70108BC9E010838B578B122
:102ED000B0FA80F464098368194DAB421BD2194DD6
:102EE000AB4218D3A3B11B6E33B39847204638BD0D
:102EF000154C4FF4E47322461449154813F07DF83D
:102F0000144813F07AF84FF4E471204613F06CF88B
:102F10006FF05704EAE70C4C4FF4E47322460E4975
:102F20000B4813F06AF80D490D4813F066F84FF49A
:102F3000E471204613F058F86FF05704D6E700BF4D
:102F4000649B0108009B010874A20108149D0108FC
:102F50002C9D01084C9D0108B4A2010848B7010846
:102F6000BC9E010810B50C4641608260C36000231E
:102F70000374044B0360024603492068FFF7A6FF71
:102F800010BD00BFC0F40108A359010808B5164BD5
:102F90001B68164A126816491648FFF7E3FF0346F6
:102FA00008B1184608BD144B1B68144A126814492E
:102FB0001448FFF7D7FF03460028F2D10D48124B03
:102FC0001860124B0F4A1A604FF47A7112F0B0FC7D
:102FD00003460028E5D14FF47A710C4B186812F0C3
:102FE000A7FC0346DDE700BFA41C0020A81C0020AE
:102FF000CCF40108581800206C180020701800202C
:10300000C8F4010840180020541800203C18002083
:10301000B1F5004F09D20161026000230381C38032
:103020008380C38183814381704710B5064CC323DD
:1030300022460649064812F0E0FF064812F0DDFF7E
:10304000C321204612F0D0FFF4A3010828A40108F0
:103050002C9D010840A4010810B5154C154B4FF4E8
:1030600000721549204612F0D3FC144B1C60144C1E
:10307000144B4FF400721449204612F0C9FC134B54
:103080001C60134C134B4FF400721349204612F08E
:10309000BFFC124B1C60124C124B4FF400721249D1
:1030A000204612F0B5FC114B1C60002010BD00BF83
:1030B000C420002078A40108AC1E0020A81C002019
:1030C000AC20002080A40108AC1C0020A41C00201F
:1030D000741C002088A40108741800206C180020BB
:1030E0008C1C002090A40108741A00207018002085
:1030F00008B50548054B186015F0DEFF08B1002043
:1031000008BD6FF01200FBE7E0970108DC2000200B
:1031100010B550B1836815498B4216D214498B42C1
:1031200013D3DB684E21984710BD124C40F2B733E1
:1031300022461149114812F060FF114812F05DFF5C
:1031400040F2B731204612F04FFF0A4C40F2B7333D
:1031500022460C49094812F050FF0B490B4812F067
:103160004CFF40F2B731204612F03EFFB09A010802
:10317000789A010898A40108149D01082C9D010863
:103180004C9D0108CCA4010818A60108BC9E0108AA
:1031900010B558B1844683681548834216D2154845
:1031A000834213D31B696046984710BD124C40F20E
:1031B000F53322461149124812F01FFF114812F050
:1031C0001CFF40F2F531204612F00EFF0A4C40F28F
:1031D000F53322460C490A4812F00FFF0B490C4800
:1031E00012F00BFF40F2F531204612F0FDFE00BF59
:1031F000B09A0108789A010898A40108149D010862
:103200002C9D01084C9D0108CCA4010818A60108BA
:10321000BC9E010808B5044B1868FFF76BF8034B18
:103220001868FFF775FF08BDE4100020DC200020BF
:1032300010B58CB0FFF7EEFF06A80023069343609D
:103240008360C3600361436100930193029303931E
:1032500004930593FEF77CF96846FEF7D1F9DDE9A2
:103260000001FDF741FC0C4CE061DDE90201FDF7D6
:103270003BFC2060DDE90601FDF736FC6060DDE91E
:103280000801FDF731FCA060DDE90A01FDF72CFC27
:10329000E0600CB010BD00BF90210020002800F0BD
:1032A00086802DE9F04385B00F4691461C460646C0
:1032B00001297FD9062B00D9062400214846FDF7B5
:1032C0000FFF60B9002500234FF001089C420CD984
:1032D00008EB88084FEA48080133DBB2F6E72D23F4
:1032E000337009F100490125EDE74046FDF702FD85
:1032F0004946FDF757FD4FF07C51FDF74BFCFDF7BC
:103300003DFF0346B0FBF8F008FB103198451CD98F
:1033100030238DF8003001225319BB424DD2531E89
:103320001DE02A4BA3FB00C3DB089C4603EB830391
:10333000A0EB4303303302F11000684400F8103C66
:10334000604601320028ECD1E6E70022FAE703F1FB
:1033500010026A4412F8102C7255013B0135002B03
:10336000F5DAF4B1013FAF422AD92E237355631E1B
:10337000013510E002EB820252000CF1010C6345B2
:10338000F8DCB1FBF2F002FB1011AF421BD9303078
:103390007055013B0135002B03DB4FF0000C01227F
:1033A000EDE700237355284605B0BDE8F0834FF0E4
:1033B000FF3070474FF0FF30F6E74FF0FF30F3E794
:1033C0004FF0FF30F0E74FF0FF30EDE7CDCCCCCC45
:1033D0002DE9F04F83B00191002800F086809146DE
:1033E0000446002900F08480002A00F084804FF019
:1033F000000853E0013422785AB1A2F12B03DBB26A
:103400000E2BF7D847F6ED7121FA03F313F0010FF5
:10341000F0D0002A70D02D2A0DD02B2A0FD04FF0DB
:10342000010B2278A2F13003DBB2092B3BD92E2A03
:1034300034D1013432E001344FF0FF3BF1E7013485
:103440004FF0010BEDE705EB8505303B03EB450540
:1034500001342378A3F13002D2B2092AF3D92E2BFA
:1034600023D04FF07E5700262846FDF747FC05463F
:1034700039463046FDF74AFD01462846FDF78AFBEE
:1034800005465846FDF73AFC2946FDF78BFC08F146
:103490000103019A42F828005FFA83F823785BB3AE
:1034A000C845A8D328E00025D3E701344FF07E5764
:1034B000002694F800A0AAF13003DBB2092BD3D880
:1034C0000F493046FDF76EFC0646AAF13000FDF7C5
:1034D00015FC01463046FDF75DFB064608493846B7
:1034E000FDF760FC07460134E3E74FF0000803E016
:1034F0004FF0000800E09046404603B0BDE8F08F72
:103500000000204110B550B1836815498B4216D296
:1035100014498B4213D3DB684E21984710BD124CDF
:1035200040F2B73322461149114812F066FD1148A6
:1035300012F063FD40F2B731204612F055FD0A4CFF
:1035400040F2B73322460C49094812F056FD0B49A8
:103550000B4812F052FD40F2B731204612F044FD04
:10356000B09A0108789A010898A40108149D0108EE
:103570002C9D01084C9D0108CCA4010818A6010847
:10358000BC9E010810B558B1844683681548834233
:1035900016D21548834213D31B696046984710BD65
:1035A000124C40F2F53322461149124812F025FD23
:1035B000114812F022FD40F2F531204612F014FDC0
:1035C0000A4C40F2F53322460C490A4812F015FD28
:1035D0000B490C4812F011FD40F2F531204612F073
:1035E00003FD00BFB09A0108789A010898A4010869
:1035F000149D01082C9D01084C9D0108CCA40108D4
:1036000018A60108BC9E0108B0B582B000AF1546EF
:1036100028B3044619B34160226015F0C7FEE0608C
:103620006C4600233B7102237B7188B0EC461CF191
:1036300010026AD00E2022B1042802DD4F4BCCF8D4
:10364000143000233B7002237B70002A6AD00828C4
:1036500001DDCCF818500CF11C03002160E06C4631
:1036600000233B7102237B7188B0EC461CF11002F1
:1036700013D00E2022B1042802DD414BCCF81430C7
:1036800000233B7002237B70A2B1082801DDCCF837
:1036900018500CF11C0300210AE06FF00040E9E72C
:1036A00001F108053D4415F8085C03F8015B0131A0
:1036B0000129F5D90D2825DD0E234AB103213971E1
:1036C00000217971B9710121F9717868CCF8100085
:1036D000002121F0010121F0020121F0040121F07B
:1036E0003801012060F38811C3F30A0363F3532107
:1036F000C1F313010023234804F0F2F9A5466FF04B
:10370000150035E06FF01B03D7E76FF0004092E73C
:1037100001F108053D4415F8085C03F8015B01312F
:103720000129F5D90D2826DD0E234AB1032139716F
:1037300000217971B9710121F9717868CCF8100014
:10374000002121F0010121F0020121F0040121F00A
:103750003801032060F38811C3F30A0363F3532194
:10376000C1F313010023074804F0BAF9A54600206D
:103770000837BD46B0BD6FF01B03D6E73CA6010875
:1037800020A60108949B010810B5094C094A0A4972
:103790002046FFF739FF094A146000B110BD084CFC
:1037A000084A09492046FFF72FFF084B1C60F5E740
:1037B0000021002054A60108D8F40108FC200020B4
:1037C000E420002060A60108D0F40108E0200020D9
:1037D0002DE9F04184B000AF002800F0FA800446E3
:1037E00043681868FFF78EFE0546002859D0216807
:1037F0006E4600233B7102237B718AB06C4614F144
:10380000100215D012201AB1042801DD724B636139
:1038100000233B7002237B70BAB10346082800DD09
:10382000A1610C2B00DDE56104F1200300210AE019
:103830006FF00040E7E701F1100CBC441CF810CC1D
:1038400003F801CB01310129F5D9112826DD122316
:1038500042B10421397100217971B9710121F971E5
:1038600078682061002121F0010121F0020121F09E
:10387000040121F03801012060F38811C3F30A0329
:1038800063F35321C1F313010023544804F028F9D2
:10389000B54628461037BD46BDE8F0816FF01B03E2
:1038A000D6E76368186807F108024C21FFF76AFE43
:1038B0000546002855D021686E4600233B7102233F
:1038C0007B718AB06C4614F1100215D012201AB127
:1038D000042801DD424B636100233B7002237B70AF
:1038E000BAB10346082800DDA1610C2B00DDE561BB
:1038F00004F1200300210AE06FF00040E7E701F146
:10390000100CBC441CF810CC03F801CB0131012988
:10391000F5D9112822DD122342B104213971002189
:103920007971B9710121F97178682061002121F064
:10393000010121F0020121F0040121F038010120F0
:1039400060F38811C3F30A0363F35321C1F3130136
:103950000023224804F0C4F8B5469AE76FF01B0331
:10396000DAE715F023FD0246B968A368CB1A4EF6D4
:103970006020834224DDA3F57F43EB3BE668961B82
:103980006068007918B34FF0FF3003FB00F0236943
:1039900003442361A160E260002E3FF47AAFFDF79B
:1039A000ADF980463046FDF7A5F901464046FDF7E2
:1039B000ADFA0C49FDF7F6F9FDF7BAFB606168E76F
:1039C00009488342DADA03F57F43FF33D6E7012063
:1039D000DBE76FF015055CE76CA60108949B010816
:1039E00090A6010800002041A015FFFF08B5064B76
:1039F0001868FFF7EDFE054B1868FFF7E9FE044B6A
:103A00001868FEF777FC08BDFC200020E0200020AD
:103A10006C10002008B5024800F036FD002008BDFB
:103A2000B002002010B558B10246836815488342A1
:103A300016D21548834213D3DB681046984710BD51
:103A4000124C40F2F25322461149124812F0D5FAB4
:103A5000114812F0D2FA40F2F251204612F0C4FAA4
:103A60000A4C40F2F25322460C490A4812F0C5FAB9
:103A70000B490C4812F0C1FA40F2F251204612F004
:103A8000B3FA00BF489A0108249A010890A00108DF
:103A9000C4A001082C9D01084C9D0108D8A0010874
:103AA00018A20108BC9E010810B558B102468368EF
:103AB0001548834216D21548834213D31B6910461A
:103AC000984710BD124C40F21F632246114912481C
:103AD00012F093FA114812F090FA40F21F6120465A
:103AE00012F082FA0A4C40F21F6322460C490A483F
:103AF00012F083FA0B490C4812F07FFA40F21F6172
:103B0000204612F071FA00BF489A0108249A010871
:103B100090A00108C4A001082C9D01084C9D01083B
:103B2000D8A0010818A20108BC9E010810B543687E
:103B30001C68012303FA01F10C4203D092B1FFF794
:103B400071FF10BD094C40F2F7632246084909484D
:103B500012F053FA084812F050FA40F2F76120468A
:103B600012F042FAFFF7A0FFEBE700BF90A00108B8
:103B700020A201082C9D010860A2010838B5436805
:103B800005691C6801238B401C4208D02C68234225
:103B900002D0B2FA82F25209FFF7C8FF38BD084CD2
:103BA00040F2227322460749074812F026FA0748D6
:103BB00012F023FA40F22271204612F015FA00BFEB
:103BC00090A0010820A201082C9D010860A2010814
:103BD00008B9022900D0704708B5064B93F8282091
:103BE00082F0010283F8282008210348FFF7C6FF6E
:103BF00008BD00BF902100207496010870B5002810
:103C000042D01346864684686B4A94424CD26B4A33
:103C1000944249D34668006913F0FC6F55D103F014
:103C20003002302A61D0664A1A40664DAA426CD0F2
:103C300003F00602042A78D013F4402240F0828078
:103C4000B2F5402F00F0928013F4801F05D022B10E
:103C500013F0010F01D083F4402323F48012356860
:103C60004FF0010C0CFA01FC15EA0C0F00F08E80ED
:103C700013F0010F00F09A8003684CEA030303601D
:103C800023687046984770BD4F4C40F2534322461C
:103C90004E494F4812F0B1F94E4812F0AEF940F2D9
:103CA0005341204612F0A0F9474C40F253432246BC
:103CB0004949474812F0A1F94849494812F09DF98D
:103CC00040F25341204612F08FF93F4C40F25C43E2
:103CD000224644493E4812F090F9434812F08DF9CB
:103CE00040F25C41204612F07FF9374C40F25F43CE
:103CF00022463E49364812F080F93D4812F07DF9DF
:103D000040F25F41204612F06FF92F4C40F26343BE
:103D1000224638492E4812F070F9374812F06DF9F2
:103D200040F26341204612F05FF9274C40F26643AF
:103D300022463249264812F060F940F26641204698
:103D400012F052F913F4003F7FF47AAF1E4C40F2A8
:103D5000694322462A491E4812F04FF9294812F0B9
:103D60004CF940F26941204612F03EF9164C40F2FF
:103D70006D4322462449164812F03FF9234812F0B9
:103D80003CF940F26D41204612F02EF90E4C40F203
:103D9000794322461E490E4812F02FF91D4812F0B1
:103DA0002CF940F27941204612F01EF9036823EA0B
:103DB0000C03036064E700BF489A0108249A0108D5
:103DC000020003000200010090A00108C4A0010845
:103DD0002C9D01084C9D0108D8A0010818A20108DB
:103DE000BC9E0108B4A6010824A7010848A7010841
:103DF00084A70108C4A7010814A8010864A8010841
:103E000098A80108E8A8010824A9010874A90108D4
:103E100020A2010860A2010810B558B18446836849
:103E20001548834216D21548834213D35B68604617
:103E3000984710BD124C40F2822322461149124885
:103E400012F0DBF8114812F0D8F840F28221204637
:103E500012F0CAF80A4C40F2822322460C490A4862
:103E600012F0CBF80B490C4812F0C7F840F282214F
:103E7000204612F0B9F800BF689A0108609A01085C
:103E8000A0A90108149D01082C9D01084C9D010862
:103E9000D0A9010808AB0108BC9E0108934231D8A3
:103EA00030B583B068B18468184DAC4219D2184D52
:103EB000AC4216D32468BDF818500095A04703B053
:103EC00030BD144C40F26E2322461349134812F0C1
:103ED00094F8134812F091F840F26E21204612F047
:103EE00083F80C4C40F26E2322460E490B4812F028
:103EF00084F80D490D4812F080F840F26E212046FA
:103F000012F072F86FF01500704700BF689A010850
:103F1000609A0108A0A90108149D01082C9D0108C0
:103F20004C9D0108D0A9010808AB0108BC9E0108FE
:103F30002DE9F04184B002AF002800F0D9800C4692
:103F400015460646002900F0D680002A00F0D680EB
:103F5000086815F0B1F878B1746035604FF4B011AD
:103F600004F1080011F085FD0446002857D02046D2
:103F70000837BD46BDE8F0816E4600233B71022341
:103F80007B7188B002AC14F1100211D00E201AB16E
:103F9000042801DD5B4B636100233B7002237B70CF
:103FA0009AB1082800DDA56104F11C0300210AE094
:103FB0006FF00040EBE701F108053D4415F8085C9F
:103FC00003F8015B01310129F5D90D2824DD0E2309
:103FD00042B10321397100217971B9710121F9715F
:103FE00078682061002121F0010121F0020121F017
:103FF000040121F03801012060F38811C3F30A03A2
:1040000063F35321C1F3130100233F4803F068FD1C
:10401000B5466FF01204AAE76FF01B03D8E770688B
:104020004FF4B011103011F024FD044600289ED149
:104030007368186859684FF00008CDF8008043464F
:10404000324AFDF765FB6E4687F8048002237B71D8
:1040500088B00DF1080C1CF1100213D00E2022B113
:10406000042802DD2A4BCCF8143000233B700223D5
:104070007B70A2B1082801DDCCF818500CF11C03AC
:1040800000210AE06FF00040E9E701F108053D4436
:1040900015F8085C03F8015B01310129F5D90D28F9
:1040A00023DD0E234AB10321397100217971B971E1
:1040B0000121F9717868CCF81000002121F001018C
:1040C00021F0020121F0040121F03801032060F306
:1040D0008811C3F30A0363F35321C1F313010023CF
:1040E000094803F0FDFCB54641E76FF01B03D9E733
:1040F0006FF015043BE76FF0150438E76FF0150417
:1041000035E700BF0CAB0108449C0108002D3101CC
:1041100024AB010810B54FF4B01208210D48FFF789
:104120006DFD034608B1184610BD0B4C0B4A0C49F7
:104130002046FFF7FDFE0B4B1C6003460028F2D122
:10414000094C0A4A0A492046FFF7F2FE0346094A8B
:104150001460E8E774960108282100203CAB0108B0
:10416000F8F40108242100201C21002044AB0108A0
:10417000E0F4010818210020002843D030B583B0B6
:104180000C460546B1F57A7F04DC11F57A7F03DA37
:104190001E4C03E04FF47A74002C16DC002C23DB59
:1041A00068680021083011F05CFC6868002110305C
:1041B00011F057FC00236A681068516800220092D1
:1041C000134AFDF7A5FA03B030BD68680121083035
:1041D00011F047FC68680021103011F042FC44F6F1
:1041E000206304FB03F3E6E768680021083011F060
:1041F00038FC68680121103011F033FC054B04FBDA
:1042000003F3D8E76FF01500704700BF18FCFFFFFD
:10421000002D3101E0B1FFFF70B506460D46064B9B
:104220001C6800E0246834B16368002BFAD029468A
:1042300030469847F6E770BD3021002010B50A4B94
:104240001C7804EB44029300084AD35C022B00D094
:1042500010BD01212046FFF7DFFF04EB4404A3005B
:10426000024A0021D154F3E76828002034210020BD
:10427000F8B54379012B0BD10446C08811F004FC3A
:104280000546A468012C14BF00270127032800D984
:10429000F8BD15F08BF8064605EB45022A4B03EBFB
:1042A00082031F72012C12D005EB4503264A12F837
:1042B0002330012B32D0032BEAD124480DF022F910
:1042C00005EB4505AD00204B00225A55E0E71346AB
:1042D0001D4A12F823307BB1022BD9D11C480DF0B6
:1042E00011F902212846FFF797FF05EB4505AD00C0
:1042F000154B00225A55CBE7134B05EB4502012124
:1043000003F8221003EB82035E60124B1D704FF422
:104310007A72002310480DF05BF8B9E70E480DF0F3
:10432000F1F8094B05EB4502022103F8221003EBDB
:1043300082035E60094B1D704FF49672002304489F
:104340000DF046F8A4E700BF34210020F806002055
:104350005807002067280020280700206828002030
:1043600010B5114B1C7804EB4402104B13F82230AB
:10437000032B00D010BD0D4B03EB82031B7A002BE7
:10438000F8D004212046FFF747FF15F00FF804EBA3
:104390004404064B03EB84035860C82200230448FE
:1043A0000DF016F8E6E700BF662800203421002053
:1043B000F806002070B5154B1C7804EB4402144B32
:1043C00013F82230012B00D070BD114B03EB820398
:1043D0001B7A002BF8D003212046FFF71DFF0C4D60
:1043E000660004EB4403032205F8232014F0DEFFEB
:1043F000264405EB86056860044B1A78054B1A7055
:10440000C822002304480CF0E3FFDDE76728002002
:104410003421002066280020F806002008B500237B
:104420000AE0104803EB43018A0000EB020C002174
:1044300081548CF808100133032BF2DD0A490B4834
:104440000CF010FF0A490B480CF00CFF0A490B480E
:104450000CF008FF0A4A03210A4812F041F9002033
:1044600008BD00BF342100203D420008580700204D
:10447000B54300082807002061430008F806002023
:104480005CAB0108D49B0108024B1A6802601860FB
:10449000704700BF3021002038B520F0004421F0E3
:1044A000004529462046FCF71BFE48B92946204610
:1044B000FCF734FEA8B913492046FCF773FC38BD5D
:1044C00029462046FCF722FD0146FCF76BFC4FF025
:1044D0007E51FCF75FFB10F0DDFC2946FCF762FC27
:1044E000EDE721462846FCF711FD0146FCF75AFC92
:1044F0004FF07E51FCF74EFB10F0CCFC2146FCF750
:1045000051FCDCE7F304B53F2DE9F04F87B081465D
:1045100090469B46D1F804C0BD4BC3F834C10A682D
:10452000C3F83821CB6801938B6802930024CDF83F
:104530000CC00492CDF814B0012C3DDC04F1020A49
:1045400059F82A70A60059F824B039460398FCF7A8
:1045500029FC054659460498FCF724FC01462846E8
:10456000FCF718FBAA4DB31D45F8230058F824208A
:1045700006F1080345F8232039460198FCF712FCA0
:10458000074659460298FCF70DFC01463846FCF7F1
:1045900001FBF31D45F8230058F82A30093645F889
:1045A000263004F12402002345F8223004F12602CB
:1045B00045F822300134BFE7DDF814B00025D946B4
:1045C00087E1B246D6F85031063356F82380394693
:1045D0004046FFF761FF0646CAF838010021404611
:1045E000FCF792FD18B106F10046CAF83861884B15
:1045F000D3F8387127F000404FF04061FCF770FDB0
:10460000002800F09E80824B4FF0FF32C3F8542107
:104610000194AB462AE07E4E671D4FF0E64156F806
:104620002700FCF7BFFB46F82700013408F1040619
:10463000A642F0DA764F4FF0E641D7F83801FCF7A2
:10464000B1FB0446C7F838014FF0E641D7F8340112
:10465000FCF7A8FB8046C7F8340124F000404FF077
:104660004061FCF73DFD70B1122D0CDC684BD3F8B6
:1046700054510135C3F85451D3F850A1AAEB0B089B
:10468000D3F85841D2E7019C5D46624F0AF102021D
:104690003946204611F098FA01464046FFF7FCFEE5
:1046A0000446C7F82001183FD7F834710021384676
:1046B000FCF72AFD20B104F10044554BC3F8384102
:1046C000534CD4F8388139464046FCF761FA4146EC
:1046D000FCF71CFC05F1240344F82300414638464E
:1046E000FCF756FA01464FF07E50FCF70FFC82466D
:1046F000C4F83401D4F858410AE0454F04F10508E4
:1047000057F828105046FCF74DFB47F828000134B5
:10471000A642F2DA002409E03D4E4FF04061D6F89F
:104720003801FCF73FFBC6F838010134384BD3F8A9
:104730005431A342F0DA364BD3F83821C3F8342190
:10474000EDE041463846FCF723FA3946FCF7DEFB3C
:104750002F4C05F1240344F8230039464046FCF76A
:1047600017FA01464FF07E50FCF7D0FB8346C4F8A1
:104770003401D4F85031A3EB0508D4F858410AE0CD
:10478000234E04F1050A56F82A105846FCF70AFB96
:1047900046F82A00013408F10403A342F0DA1C4B66
:1047A000C3F83471BBE0C5F10403194AC2F85831AB
:1047B000AAEB050404E0013F154BC3F85871013C16
:1047C000134BD3F85871002F09DD04F109030021C0
:1047D0000F4A52F82300FCF779FC0028EBD16B421A
:1047E00098461BE008F1FF380223ABB907EB0B0337
:1047F0000433A342F6DB631D0021054A52F823006F
:10480000FCF764FC10B101340023EEE70123ECE770
:10481000BC210020D4210020012B0AD0B8F1000FC8
:1048200004DB0AEB880B0BF10504DFE7CDF804800D
:104830009AE0CDF8048097E05A1C920000219F482E
:104840000FF0C6FC9CE09E4DD5F838610AEB0403DE
:10485000A3EB08030633621D55F8221055F8230018
:10486000FCF7A0FA01463046FCF794F9C5F8380188
:1048700001345C45E7DBA8EB0A04053CA410904D2D
:104880002634D5F8381155F82400FCF783F945F89B
:10489000240008F104087B1D434509DB884B0022F6
:1048A000C3F83821D3F8583103EB080B4446E0E74E
:1048B000029E039D00213046FCF708FC00286AD0C8
:1048C0007F4BD3F85021D3F83411063243F822102D
:1048D0000135012D00F3B88005EB8503784EC6F84D
:1048E00050319A1CC6F85821063356F82330C6F8C2
:1048F000343105F124034FF0000846F82380C5F158
:10490000030406F11801204611F05EF90746C6F8C7
:1049100038014146FCF7DAFB00283FF452AE684B01
:10492000D3F850A1D3F834110AF1060243F822104B
:10493000002DCDDC4FF07E5143F822100AF1050224
:10494000C3F8542105F1240253F8226000213046B7
:10495000FCF7BCFB00283FF426AF594B0022C3F8FC
:1049600058214FF0FF330193554BD3F85831002BAA
:10497000A6DD019BB3F1FF3F9CD0002BBFF65CAFDF
:104980004F4BD3F850A1019A0AEB8207D3F8548118
:10499000029603957FE74A4BD3F850211146002237
:1049A000C3F854218B4603960495019FCDF81490CB
:1049B00089461EE0424E671D56F827A004EB090306
:1049C000A3EB0B03013356F823102846FCF7EAF952
:1049D00001465046FCF7DEF846F82700013444450E
:1049E000E8DD019E029F0BF1040B0136344BC3F846
:1049F0005461334BD3F85461BE4221DC304B06F195
:104A0000260253F82240C3F8384100212046FCF723
:104A10005DFB0028E7D1039B03F100412046FCF732
:104A2000C1F90546264BC3F838010BF10504D3F84C
:104A3000583103EB0B0808F1040801960297CEE702
:104A4000049DDDF814903BE7CB461D4B0022C3F8D4
:104A5000502113E002EB830002EB4301184C0630B7
:104A600054F820001E3144F8210001329342F1DA5B
:104A7000002B0ADD0133124AC2F85031104BD3F833
:104A80005031012B08DC0022F0E75A001F320C499C
:104A9000002041F82200EDE7094B9A6FCBF8002087
:104AA000D3F88020CBF80420DA6FCBF80820D3F8B5
:104AB0008430CBF80C3007B0BDE8F08F54220020D2
:104AC000BC2100202DE9F04F8BB0AF4C94F87B3126
:104AD0000993276927F00040AC4E3146FCF762F994
:104AE000314610F0F7FA0546C4F80401014638468D
:104AF000FCF750F83946FCF74BF82946FCF706FA64
:104B0000A06429460020FCF701FAE064676927F0F9
:104B100000403146FCF746F9314610F0DBFA054615
:104B2000C4F8040101460020FCF7F0F9206529468D
:104B30003846FCF72FF83946FCF72AF82946FCF7E7
:104B4000E5F9606504F13803914A214604F1480013
:104B5000FFF7DAFC0023C4F844313EE08A4C54F8F5
:104B60002560C4F8086121683046FCF71BF98046CF
:104B7000C4F80C0161683046FCF714F90746C4F824
:104B800010016E00C4F8486106F11A034FF0000AE4
:104B900044F823A0AB1C54F82390C4F80891A168F2
:104BA0004846FCF7FFF801464046FBF7F3FF06F1E5
:104BB000160344F82300E1684846FCF7F3F8014681
:104BC0003846FBF7E7FF06F1170344F823001B36CE
:104BD00044F826A00135C4F844516B4BD3F8445136
:104BE000012DBBDD9A6DC3F80821D3F85CE0C3F852
:104BF0000CE1D3F860C0C3F810C1D3F864B0C3F8B7
:104C000014B10021C3F844110192CDF808E0CDF8A9
:104C10000CC041E05C4C05F1120354F82370C4F859
:104C200018716E00C4F8486139460198FCF7BAF86B
:104C300006F11A0A54F82A10FBF7ACFF8046C4F8B4
:104C40001C011B3654F8269039460298FCF7AAF846
:104C500001464846FBF79EFF0746C4F8200105F1D0
:104C6000140354F82390C4F8189149460398FCF7AC
:104C700099F801464046FBF78DFF44F82A00494663
:104C80005846FCF78FF801463846FBF783FF44F897
:104C900026000135C4F844513B4BD3F84451012D53
:104CA000B8DD1C469B6EA365236FE365E36E236648
:104CB000636F636604F1380504F15801284610F06B
:104CC000F7FEA36BA366236CE366E36B2367636C59
:104CD0006367A36DA363E36DE363236E2364636E75
:104CE0006364294604F1680010F02DFFD4F838A061
:104CF000C4F858A0D4F84090C4F85C90E36B0193DA
:104D00002366626C029262660AF100410391C4F864
:104D10000C1109F100410491C4F8101103F1004392
:104D20000593C4F8143102F100430693C4F8183116
:104D3000184E7768B56829462846FCF733F8804650
:104D4000F66831463046FCF72DF801464046FBF741
:104D500021FF10F09FF8014607F1004010F0FEF827
:104D60002169FBF715FF0790C4F81C01314628465E
:104D700010F0F4F86169FBF70BFFC4F82001002381
:104D8000C4F8483108909BE0BC210020F304B539F9
:104D9000100A0208902100207500B34CC4F8445159
:104DA00005F1120354F82370C4F8087139460398CA
:104DB000FBF7F8FF8046C4F8040139460498FBF776
:104DC000F1FF0746C4F82C0105F1130354F823B092
:104DD000C4F808B159460598FBF7E4FF0146404680
:104DE000FBF7D8FE05F11A0344F82300594606984C
:104DF000FBF7D8FF01463846FBF7CCFE05F11B0355
:104E000044F82300AF19C4F84C711A374FF07E51A3
:104E100054F82700FBF7BEFE44F82700DFF84CB239
:104E200005F5A8635BF82370C4F80871394650464D
:104E3000FBF7B8FF8046C4F8040139464846FBF743
:104E4000B1FF0746C4F82C0105F241535BF823B0CB
:104E5000C4F808B159460198FBF7A4FF0146404643
:104E6000FBF798FE05F10E0344F82300594602981B
:104E7000FBF798FF01463846FBF78CFE0F3544F8E8
:104E80002500371D54F8278006F1180354F8231025
:104E90000898FBF787FF054606F1160354F8231020
:104EA0000798FBF77FFF01462846FBF773FE014694
:104EB0004046FBF76FFE44F827000136C4F848610E
:104EC000694BD3F84861012E7FF766AF0022C3F823
:104ED000442109E0644A52F8230003F1160142F824
:104EE00021000133C2F844315F4BD3F84431032B26
:104EF000F0DD5D4C234604F1380204F1580104F161
:104F00006800FFF701FB5A496069FBF74BFF594BFB
:104F1000186057492069FBF745FF0146C4F80801AE
:104F2000D4F8E000FBF734FE0546C4F80C01524902
:104F3000FBF738FF0646C4F8100150492846FBF736
:104F400031FFC4F81401D4F8EC10FBF721FEC4F8CB
:104F500018014B49FBF726FFC4F81C01099B13B944
:104F60000022C4F8F020404C464B1968D4F8F400F5
:104F7000FBF70EFE4FF07F51FBF7C8FFC4F820018E
:104F8000099B002B40F084804FF0000919F5487F01
:104F9000C0F2FA803B4D3C492868FBF703FF324CD6
:104FA0000190C4F82C01D4F810B05946FBF7F2FD7B
:104FB0000646C4F828013449E869FBF7F3FE02907D
:104FC000C4F83001D4F814A05146FBF7E3FD0546C0
:104FD000C4F824012BF00040DFF8B0804146FBF715
:104FE000E1FE414610F076F80746C4F80401014698
:104FF0005846FBF7CFFD01460198FBF7CBFD314644
:10500000FBF7C6FD3946FBF781FFA0642946284619
:10501000FBF7BEFD3946FBF779FFE0642AF000405C
:105020004146FBF7BFFE414610F054F80746C4F86E
:10503000040131463046FBF7ABFD3946FBF766FF0E
:10504000206539465046FBF7A5FD01460298FBF75F
:10505000A1FD2946FBF79CFD3946FBF757FF60652C
:105060000023C4F844319CE0BC21002010F5010865
:10507000E12E654270210020CDCCCC3D000048439C
:105080008FC2F53C902100200AD7A33BF304B53929
:1050900004F18805894F2B4614223946304610F01A
:1050A00031FEA5F18804C5F8DC002B1D1422394619
:1050B000D5F8940010F026FEC5F8E0000023C5F8EE
:1050C000E43005F1DC09152307F15402294648466E
:1050D00010F0C8FD8046E8670123C5F8E4301523C9
:1050E00007F5E7622946484610F0BCFD0646C5F8BC
:1050F000A4000223C5F8E430152307F61C622946F4
:10510000484610F0AFFD0546C4F82801002140468E
:10511000FBF748FE6A4B1968FBF73CFDD4F80C110D
:10512000FBF740FE074600213046FBF73BFED4F874
:10513000F010FBF737FE01463846FBF72BFD06461D
:1051400000212846FBF72EFE5E4B1968FBF722FD77
:1051500005464FF07C51D4F82001FBF723FE0146B1
:105160002846FBF71FFE01463046FBF713FD0FF004
:1051700061FEFBF7DDFF0FFA80F9B9F5487F7FF795
:1051800005AF4FF4487905E7DFF83C9102E74F4A55
:1051900052F8230003F1160142F821000133C2F84E
:1051A00044314A4BD3F84431032BF0DD474C2346BE
:1051B000474A04F1580104F14800FFF7A5F9D4F873
:1051C00028312361D4F824316361D4F81431C4F850
:1051D000EC30D4F8F0503F49D4F80C01FBF7E2FD75
:1051E00001462846FBF7D6FC0546C4F8F0003A49CC
:1051F000FBF794FF38B3384AC4F8F020334BD3F8A8
:105200002021C3F8F420D3F80841344A5460B3F99C
:1052100072111181B3F974115181D3F8E450C3F8BC
:105220000C512F4B93F82830C3B12E492846FBF779
:1052300075FF00283DD02C492846FBF751FF002878
:1052400039D100210BE029492846FBF749FF002806
:10525000D4D01E4B254AC3F8F020CFE70021C9B2B5
:105260001E4A1174194BD3F810015061D3F81C0178
:105270009061D3F81801D06193F87C2183F87921EB
:1052800093F87D2183F87A2183F87B111FFA89F244
:10529000B3F87001151AA3F872510244A3F87421EF
:1052A000C3F8E44083F87C1183F87D110BB0BDE8AE
:1052B000F08F0021D3E70121D1E700BF10F50108ED
:1052C000BC02002050230020E0FCFFFFBC21002096
:1052D000200A02080AD7A33B00004843702100209F
:1052E0009021002000005CC200005C42000048C326
:1052F0002DE9F047484CD4F8E830C4F8E030474A8C
:10530000D360474D69692869FBF744FC4FF07C5135
:10531000FBF748FDA969FBF73BFC054694F879418A
:10532000002C0CBF0127002703D03B4B93F97731AA
:105330001BB1394B0022C3F8FC202946394B1868B1
:10534000FBF730FD81461CB1334B93F978311BB12B
:10535000314B0022C3F80021334B19682846FBF774
:1053600021FD2D4CD4F8FCA05146FBF711FC2F4930
:10537000FBF718FD06462E4B19682846FBF712FD71
:10538000D4F800512946FBF705FC3146FBF702FC37
:10539000804628493046FBF705FD01465046FBF79D
:1053A000F9FBC4F8FC007FB284F8777149462846BF
:1053B000FBF7F0FB0546C4F800011F49FBF7AEFE02
:1053C00080B11D4AC4F80021134B83F878711B4942
:1053D0004046FBF7A3FE80B10F4B184AC3F8E82004
:1053E000BDE8F08716492846FBF77AFE0028EBD087
:1053F000094B134AC3F80021E6E712494046FBF780
:105400006FFE20B1044B0F4AC3F8E820E8E7024BD7
:10541000C3F8E880E4E700BFBC2100207021002031
:1054200090210020482300204C2300200000C84287
:10543000442300200AD7233C00004842000090414A
:10544000000048C2000090C1F8B5254B93F87A31AE
:10545000002B0CBF0127002703D0214B93F9763195
:105460001BB11F4B0022C3F8F8201D4BD3F8F86086
:105470001C493046FBF796FC05461B4B19681B4B35
:10548000586AFBF78FFC2946FBF784FB0446184952
:10549000FBF744FE30B917492046FBF721FE10B157
:1054A000144C00E0124C20460FF0C4FCFBF740FE09
:1054B0000B4CA4F87001104B19680C4B186AFBF7E1
:1054C00071FC2946FBF764FB0C49FBF76BFC0146BA
:1054D0003046FBF75FFBC4F8F80084F87671F8BD3E
:1054E000BC2100200000C8423C2300209021002065
:1054F0000000FA430000FAC3402300200AD7A33C6F
:10550000084B01221A7205225A720A229A72142238
:10551000DA72054B4FF07E521A6000215960996093
:10552000DA60704764210020BC21002010B558B11A
:10553000024683681548834216D21548834213D326
:10554000DB681046984710BD124C40F2F2532246D9
:105550001149124810F051FD114810F04EFD40F273
:10556000F251204610F040FD0A4C40F2F253224620
:105570000C490A4810F041FD0B490C4810F03DFD64
:1055800040F2F251204610F02FFD00BF489A01086A
:10559000249A010890A00108C4A001082C9D0108CC
:1055A0004C9D0108D8A0010818A20108BC9E010862
:1055B00010B558B1024683681548834216D2154883
:1055C000834213D31B691046984710BD124C40F21A
:1055D0001F6322461149124810F00FFD114810F0C8
:1055E0000CFD40F21F61204610F0FEFC0A4C40F218
:1055F0001F6322460C490A4810F0FFFC0B490C4877
:1056000010F0FBFC40F21F61204610F0EDFC00BFE3
:10561000489A0108249A010890A00108C4A0010832
:105620002C9D01084C9D0108D8A0010818A2010872
:10563000BC9E010810B543681C68012303FA01F100
:105640000C4203D092B1FFF771FF10BD094C40F23C
:10565000F76322460849094810F0CFFC084810F0CB
:10566000CCFC40F2F761204610F0BEFCFFF7A0FF33
:10567000EBE700BF90A0010820A201082C9D0108C3
:1056800060A2010838B5436805691C6801238B4096
:105690001C4208D02C68234202D0B2FA82F252098E
:1056A000FFF7C8FF38BD084C40F222732246074975
:1056B000074810F0A2FC074810F09FFC40F222714E
:1056C000204610F091FC00BF90A0010820A2010824
:1056D0002C9D010860A2010810B584B00446002387
:1056E0000093019302930393062251490EF0C8FDE3
:1056F000002848D006224F4920460EF0C1FD002860
:105700004BD006224C4920460EF0BAFD00284DD061
:1057100006224A4920460EF0B3FD00284FD007224A
:10572000474920460EF0ACFD002851D007224549DC
:1057300020460EF0A5FD002853D0072242492046FE
:105740000EF09EFD002855D00722404920460EF05D
:1057500097FD002857D008223D4920460EF090FDC5
:10576000002859D009223B4920460EF089FD90B906
:10577000042269462046FDF72BFE374B009A5A62F9
:10578000019A9A6107E0042269462046FDF720FE4F
:10579000009A324B1A6004B010BD042269462046BC
:1057A000FDF716FE009A2E4B1A60F4E704226946B4
:1057B0002046FDF70DFE009A2A4B1A60EBE7042203
:1057C00069462046FDF704FE009A274B1A60E2E77F
:1057D000042269462046FDF7FBFD009A1E4B9A61A4
:1057E000D9E7042269462046FDF7F2FD009A1F4BD7
:1057F0001A60D0E7042269462046FDF7E9FD009AC9
:105800001B4B1A60C7E7042269462046FDF7E0FDFE
:10581000009A184B1A60BEE70F4B93F8282082F0CD
:10582000010283F8282008211348FFF72BFFB2E775
:1058300080AB010888AB010890AB010898AB010868
:10584000A0AB0108ACAB0108B8AB0108C4AB0108C0
:10585000CCAB0108D8AB010890210020BC0200208D
:105860005023002044230020482300203C23002014
:10587000402300204C2300207496010830B583B0EB
:10588000002408E03CB1114800250555FFF724FF2E
:105890002C4600E000240E4B186810F0CCF898B9A4
:1058A00001220DF107010A4B186810F0BAF89DF8B3
:1058B00007300A2BE6D00D2BE4D07E2CEAD8621CF0
:1058C00002490B55D4B2E6E703B030BD54230020A3
:1058D000A81C002008B500EBC1035B8813F0010F82
:1058E00006D101EB530330F833209B1A99420DD0B7
:1058F0000C4A01210C4810F0F3FE002383F31188B9
:10590000BFF36F8F0423184602DF08BD30F8313033
:10591000CB1A00EBC300428803EB52039942E7D154
:10592000F3E700BFE4AB0108049C01082DE9F04156
:105930000446164600EBC100C588A94226D0CB001C
:1059400023449F884FEAC70808F1060834F8083056
:10595000994204D104EBC5039B8899420CD0114AAB
:105960000121114810F0BCFE002383F31188BFF31E
:105970006F8F0423184602DF321D44F8225024F8AA
:105980000850EB000433E752BDE8F081E3680122E0
:10599000B24023EA0203E360321D002344F82230C0
:1059A000F2E700BF0CAC0108049C01082DE9F843A4
:1059B00004460D46131D50F823607EB9C3680121CB
:1059C00091400B43C360043240F82250EB001A1D93
:1059D000ADB285520633C552BDE8F883F7000437EF
:1059E00030F807904FEAC90808F1060830F8083087
:1059F0009E420AD1EB001A1D24F802900633E652AB
:105A0000ADB224F80850E553E6E7074A01210748FC
:105A100010F066FE002383F31188BFF36F8F042319
:105A2000184602DFE6E700BF0CAC0108049C010841
:105A300070B5B2F5802F31D20346042A3ED9043A1C
:105A4000C81D20F007000A4422F00702121AD608E7
:105A5000172A43D9186086600023C360B6FA86F11E
:105A6000C1F1200EC1F12405AD000735E9084B1C3A
:105A7000B34294BF00230123002B45D0354C40F2A4
:105A8000333322463449354810F0B7FA344810F021
:105A9000B4FA40F23331204610F0A6FA2D4C40F211
:105AA0000A3322462F492D4810F0A7FA2E4810F04D
:105AB000A4FA40F20A31204610F096FA254C40F242
:105AC000113322462949254810F097FA244810F04E
:105AD00094FA40F21131204610F086FA1D4C40F243
:105AE0001D33224622491D4810F087FA1C4810F049
:105AF00084FA40F21D31204610F076FA03F1040CCE
:105B0000002440F82C4001337345F7DB1FFA81FC79
