:020000040800F2
:100000004020002085510008A70D0108715100080B
:100010007151000871510008715100080000000082
:10002000000000000000000000000000C9510008AE
:100030007151000800000000F9530008C98F000842
:1000400091540008915400089154000891540008FC
:1000500091540008915400089154000891540008EC
:1000600091540008915400089154000891540008DC
:1000700091540008915400089154000891540008CC
:1000800091540008915400089154000891540008BC
:1000900091540008915400089154000891540008AC
:1000A000915400089154000891540008915400089C
:1000B000915400089154000891540008915400088C
:1000C000915400089154000891540008915400087C
:1000D000915400089154000891540008915400086C
:1000E000915400089154000891540008915400085C
:1000F000915400089154000891540008915400084C
:1001000030B490F800F020F007016FF0000C10F010
:10011000070491F820F040F048804FF000046FF0A1
:100120000700D1E9002391F840F000F1080082FABD
:100130004CF2A4FA8CF283FA4CF3A2FA8CF34BBB88
:10014000D1E9022382FA4CF200F10800A4FA8CF201
:1001500083FA4CF3A2FA8CF3E3B9D1E9042382FACF
:100160004CF200F10800A4FA8CF283FA4CF3A2FAE4
:100170008CF37BB9D1E9062301F1200182FA4CF21C
:1001800000F10800A4FA8CF283FA4CF3A2FA8CF383
:10019000002BC6D0002A04BF04301A4612BAB2FAA5
:1001A00082F200EBD20030BC7047D1E9002304F0AA
:1001B0000305C4F100004FEAC50514F0040F91F8DF
:1001C00040F00CFA05F562EA05021CBF63EA05037C
:1001D00062464FF00004AAE70000000000000000A3
:1001E00002780B78012A28BF9A4240F0D8806DE946
:1001F000044540EA0104CDE902676FF0000C4FEAC4
:1002000044721AB380EA010414F0070F6BD100F0B6
:10021000070420F0070004F0030521F007014FEA6E
:10022000C505F0E8042314F0040FF1E804670CFAA4
:1002300005F462EA040266EA04060BD063EA0403EA
:10024000624667EA0407664604E000BFF0E804235C
:10025000F1E8046782FA4CF582EA0604A4FA8CF409
:100260006CBB83FA4CF583EA0705A5FA8CF595B9C2
:1002700050E9022351E9026782FA4CF582EA06044A
:10028000A4FA8CF483FA4CF583EA0705A5FA8CF5F9
:100290002543DBD09CB92DBAB5FA85F424F00704C8
:1002A00027FA04F1DDE9026723FA04F303F0FF0003
:1002B00001F0FF01FDE80445A0EB0100704724BAFE
:1002C000B4FA84F424F0070426FA04F1DDE90267A5
:1002D00022FA04F202F0FF0001F0FF01FDE80445FC
:1002E000A0EB0100704714F0030F3CD110F00304A1
:1002F00028D150F8082B51F8083B82FA4CF582EAD5
:100300000305A5FA8CF55DB950F8042C51F8043CAE
:1003100082FA4CF582EA0305A5FA8CF5002DE8D0A7
:100320002DBAB5FA85F424F0070423FA04F122FA71
:1003300004F202F0FF0001F0FF01FDE80445A0EB2C
:10034000010070474FEAC40420F0030050F8082B66
:1003500021F0030151F8083B0CFA04F462EA0402AC
:1003600063EA0403C9E710F003041DD0A1EB040104
:1003700020F00300E40750F8042B06D012D28B784B
:100380005FFAA2F4E41A06D12BB1CB785FFAB2F48B
:10039000E41A00D133B920465DF8104B7047A2EB48
:1003A0000300704701F1040150F8042BCC0721F041
:1003B000030151F8043B48D824D222F07F4482FA4A
:1003C0004CF594EA1325A5FA8CF50AD165B951F8D4
:1003D000043B84EA0204B4EB036F0ED150F8042B03
:1003E000EBE74FEA132355E035F07F454DD1087810
:1003F000FDE80445C0F1000070474FEA126203F0C7
:10040000FF0347E002EA1C4482FA4CF594EA1345E4
:10041000A5FA8CF50AD165B951F8043B84EA0204C7
:10042000B4EB034F0CD150F8042BEBE74FEA134326
:1004300030E015EA1C4528D10B884FEA124229E02A
:100440004FEA124203EA1C4324E002F0FF0482FA5E
:100450004CF594EA1365A5FA8CF50AD165B951F803
:10046000043B84EA0204B4EB032F09D150F8042BB7
:10047000EBE74FEA13630DE015F0FF0F05D10B68B2
:100480004FEA122223F07F4304E04FF00000FDE822
:100490000445704712BA1BBA82FA4CF482EA03048C
:1004A000A4FA8CF5B5FA85F402FA04F203FA04F31F
:1004B0004FEA1260FDE80445A0EB1360704700BFEF
:1004C00080EA0102844612F0030F4FD111F0030FAE
:1004D00032D14DF8044D11F0040F51F8043B0BD00C
:1004E000A3F101329A4312F0803F04BF4CF8043B61
:1004F00051F8043B16D100BF51F8044BA3F101326F
:100500009A4312F0803FA4F101320BD14CF8043B26
:10051000A24312F0803F04BF51F8043B4CF8044B57
:10052000EAD023460CF8013B13F0FF0F4FEA3323C8
:10053000F8D15DF8044B704711F0010F06D011F8A7
:10054000012B0CF8012B002A08BF704711F0020F95
:10055000BFD031F8022B12F0FF0F16BF2CF8022B80
:100560008CF8002012F47F4FB3D1704711F8012BA3
:100570000CF8012B002AF9D1704700BF844641EAEC
:10058000000313F003036DD1403A41D351F8043B0B
:1005900040F8043B51F8043B40F8043B51F8043B5D
:1005A00040F8043B51F8043B40F8043B51F8043B4D
:1005B00040F8043B51F8043B40F8043B51F8043B3D
:1005C00040F8043B51F8043B40F8043B51F8043B2D
:1005D00040F8043B51F8043B40F8043B51F8043B1D
:1005E00040F8043B51F8043B40F8043B51F8043B0D
:1005F00040F8043B51F8043B40F8043B51F8043BFD
:1006000040F8043B51F8043B40F8043B403ABDD26B
:10061000303211D351F8043B40F8043B51F8043B0D
:1006200040F8043B51F8043B40F8043B51F8043BCC
:1006300040F8043B103AEDD20C3205D351F8043B9C
:1006400040F8043B043AF9D2043208D0D2071CBF68
:1006500011F8013B00F8013B01D30B880380604691
:10066000704700BF082A13D38B078DD010F0030307
:100670008AD0C3F10403D21ADB071CBF11F8013B77
:1006800000F8013B80D331F8023B20F8023B7BE7C6
:10069000043AD9D3013A11F8013B00F8013BF9D2F1
:1006A0000B7803704B7843708B788370604670478B
:1006B0004FF0FF0C1CEAD0521EBF1CEAD15392EA45
:1006C0000C0F93EA0C0F6FD01A4480EA010C400221
:1006D00018BF5FEA41211ED04FF0006343EA50107B
:1006E00043EA5111A0FB01310CF00040B1F5000FBD
:1006F0003EBF490041EAD3715B0040EA010062F16C
:100700007F02FD2A1DD8B3F1004F40EBC25008BF55
:1007100020F00100704790F0000F0CF0004C08BF73
:1007200049024CEA502040EA51207F3AC2BFD2F140
:10073000FF0340EAC250704740F400004FF000034E
:10074000013A5DDC12F1190FDCBF00F00040704788
:10075000C2F10002410021FA02F1C2F1200200FAC6
:1007600002FC5FEA310040F1000053EA4C0308BF8D
:1007700020EADC70704792F0000F00F0004C02BFDE
:10078000400010F4000F013AF9D040EA0C0093F059
:10079000000F01F0004C02BF490011F4000F013BB3
:1007A000F9D041EA0C018FE70CEAD15392EA0C0F21
:1007B00018BF93EA0C0F0AD030F0004C18BF31F08C
:1007C000004CD8D180EA010000F00040704790F062
:1007D000000F17BF90F0004F084691F0000F91F006
:1007E000004F14D092EA0C0F01D142020FD193EACC
:1007F0000C0F03D14B0218BF084608D180EA010054
:1008000000F0004040F0FE4040F40000704740F02F
:10081000FE4040F44000704780F0004002E000BF1E
:1008200081F0004142001FBF5FEA410392EA030FDB
:100830007FEA226C7FEA236C6AD04FEA1262D2EB25
:100840001363C1BFD218414048404140B8BF5B422A
:10085000192B88BF704710F0004F40F4000020F0C3
:100860007F4018BF404211F0004F41F4000121F0D9
:100870007F4118BF494292EA030F3FD0A2F1010223
:1008800041FA03FC10EB0C00C3F1200301FA03F161
:1008900000F0004302D5494260EB4000B0F5000F84
:1008A00013D3B0F1807F06D340084FEA310102F143
:1008B0000102FE2A51D2B1F1004F40EBC25008BFF5
:1008C00020F0010040EA03007047490040EB0000BF
:1008D000013A28BFB0F5000FEDD2B0FA80FCACF1C0
:1008E000080CB2EB0C0200FA0CF0AABF00EBC250ED
:1008F00052421843BCBFD0401843704792F0000FDB
:1009000081F4000106BF80F400000132013BB5E72D
:100910004FEA41037FEA226C18BF7FEA236C21D0A3
:1009200092EA030F04D092F0000F08BF0846704708
:1009300090EA010F1CBF0020704712F07F4F04D1D6
:10094000400028BF40F00040704712F100723CBFE9
:1009500000F50000704700F0004343F0FE4040F413
:10096000000070477FEA226216BF08467FEA2363D1
:100970000146420206BF5FEA412390EA010F40F4BC
:10098000800070474FF0000304E000BF10F0004308
:1009900048BF40425FEA000C08BF704743F09643EF
:1009A00001464FF000001CE050EA010208BF70470A
:1009B0004FF000030AE000BF50EA010208BF704791
:1009C00011F0004302D5404261EB41015FEA010CA6
:1009D00002BF84460146002043F0B64308BFA3F19E
:1009E0008053A3F50003BCFA8CF2083AA3EBC25380
:1009F00010DB01FA02FC634400FA02FCC2F120029F
:100A0000BCF1004F20FA02F243EB020008BF20F0D5
:100A10000100704702F1200201FA02FCC2F120023B
:100A200050EA4C0021FA02F243EB020008BF20EA30
:100A3000DC7070474FF0FF3C06E000BF4FF0010C48
:100A400002E000BF4FF0010C4DF804CD4FEA400228
:100A50004FEA41037FEA226C18BF7FEA236C11D072
:100A600001B052EA530C18BF90EA010F58BFB2EB25
:100A7000030088BFC81738BF6FEAE17018BF40F0A5
:100A8000010070477FEA226C02D15FEA402C05D159
:100A90007FEA236CE4D15FEA412CE1D05DF8040BDE
:100AA000704700BF844608466146FFE70FB5FFF771
:100AB000C9FF002848BF10F1000F0FBD4DF808ED29
:100AC000FFF7F4FF0CBF012000205DF808FB00BF1A
:100AD0004DF808EDFFF7EAFF34BF012000205DF874
:100AE00008FB00BF4DF808EDFFF7E0FF94BF0120C1
:100AF00000205DF808FB00BF4DF808EDFFF7D2FFBE
:100B000094BF012000205DF808FB00BF4DF808ED00
:100B1000FFF7C8FF34BF012000205DF808FB00BFCD
:100B20004FEA4002B2F1FE4F0FD34FF09E03B3EBFA
:100B300012620DD94FEA002343F0004310F0004F3A
:100B400023FA02F018BF404270474FF00000704790
:100B500012F1610F01D1420205D110F0004008BF2F
:100B60006FF0004070474FF0000070477BB972B9DA
:100B70000029BEBF00204FF0004106E008BF00285A
:100B80001CBF6FF000414FF0FF3000F057B8ADF1DF
:100B9000080C6DE904CE002909DB002B1ADB00F0FC
:100BA0004FF8DDF804E0DDE9022304B0704740426D
:100BB00061EB4101002B1BDB00F042F8DDF804E0A3
:100BC000DDE9022304B0404261EB4101524263EB94
:100BD00043037047524263EB430300F031F8DDF802
:100BE00004E0DDE9022304B0404261EB41017047BB
:100BF000524263EB430300F023F8DDF804E0DDE943
:100C0000022304B0524263EB4303704753B94AB91D
:100C1000002908BF00281CBF4FF0FF314FF0FF3004
:100C200000F00CB8ADF1080C6DE904CE00F008F846
:100C3000DDF804E0DDE9022304B07047704700BF2F
:100C40002DE9F0478C468E46089E15460446194607
:100C5000002B40F0D080724547D9B2FA82F74FB1ED
:100C6000C7F120030EFA07FC20FA03F3BD4043EA64
:100C70000C0CBC404FEA154EA8B2BCFBFEF8230C8E
:100C80000EFB18CC08FB00F943EA0C43994528D920
:100C9000EB1808F1FF3204D2994502D9A8F10202FB
:100CA0002B44A3EB0903A4B2B3FBFEFC0EFB1C33E5
:100CB0000CFB00F044EA0344A04214D92C190CF1B7
:100CC000FF3304D2A04202D9ACF102032C44241A0F
:100CD00043EA02401EB1FC40002334607360BDE86B
:100CE000F0874246DDE76346F1E7002A79D0B2FAA1
:100CF00082F3002B3FD01946C1F1200302FA01F51F
:100D00002EFA03F20EFA01FE20FA03F343EA0E0371
:100D10004FEA154E00FA01F4B2FBFEFCAFB20EFB37
:100D20001C201A0C0CFB07F842EA004290455AD9E5
:100D3000AA180CF1FF3004D2904502D9ACF10200A0
:100D40002A44A2EB08029BB2B2FBFEFC0EFB1C2263
:100D50000CFB07F743EA02439F4246D9EB180CF11C
:100D6000FF3204D29F4202D9ACF102022B44DB1BBA
:100D700042EA004202E0AEEB020301224FEA154EC6
:100D8000AFB2B3FBFEFC200C0EFB1C330CFB07F8D0
:100D900040EA034398452AD9EB180CF1FF3004D2FE
:100DA000984502D9ACF102002B44A3EB0803A4B28E
:100DB000B3FBFEFC0EFB1C330CFB07F744EA0344B9
:100DC000A74216D92C190CF1FF3304D2A74202D93D
:100DD000ACF102032C44E41B43EA00400F461146E9
:100DE00078E71F2188E76046ABE76246BFE76046C9
:100DF000DBE76346EFE7734506D916B900210846DD
:100E00006DE7C6E9000EF9E7B3FA83F787B97345D2
:100E100001D3824207D8841A6EEB030301209C465B
:100E20001EB900215BE73846FAE7C6E9004CF8E74F
:100E3000C7F1200CBB4022FA0CF51D4320FA0CF13F
:100E40002EFA0CF30EFA07FE41EA0E014FEA15499D
:100E500000FA07F4B3FBF9F81FFA85FE09FB183016
:100E60000B0C08FB0EFA43EA00439A4502FA07F21C
:100E700040D9EB1808F1FF3004D29A4502D9A8F105
:100E800002002B44A3EB0A0389B2B3FBF9F809FB78
:100E9000183308FB0EFE41EA03418E452CD9691830
:100EA00008F1FF3304D28E4502D9A8F10203294488
:100EB00043EA0040A0FB0298A1EB0E014145CE465B
:100EC000434602D306D14C4504D2B9EB020E68EB7F
:100ED00005030138002EA4D0B4EB0E0261EB030130
:100EE00001FA0CFC22FA07F34CEA0303F940C6E9C5
:100EF000003196E74046C5E74346D9E700000000C9
:100F00002DE9F04F8FB00B900C46154612F0C1FC46
:100F10000022431880F0858013444F4FA7FB032C19
:100F20002CF0030202EB9C029B1AC01A61F1000232
:100F30004FF0CC3100FB01F107FB0211A0FB0703CE
:100F40001944400840EAC1704F088046012C6AD01D
:100F50006C6821464148FFF743F928B121464048D3
:100F6000FFF73EF9002867D139A3D3E900234046B3
:100F70003946FFF7FBFD0C900E4635A3D3E900235D
:100F800040463946FFF7F2FD15461C46354A002318
:100F900028462146FFF7EAFD07460D91314A002316
:100FA00028462146FFF7E2FD15461C464EF6602214
:100FB000002328462146FFF7D9FD814688464EF694
:100FC0006022002328462146FFF7D0FD15461C4627
:100FD0004FF47A72002328462146FFF7C7FD834667
:100FE0008A464FF47A72002328462146FFF7BEFD59
:100FF000CDE90823CDF818B0CDF81CA0CDF810909D
:10100000CDF8148002970D9B03930C9B00930196DF
:10101000154A08210B980FF018FB00200FB0BDE80F
:10102000F08F012278E700900197104A08210B9871
:101030000FF00BFB0020F1E723460D4A01210B982E
:101040000FF003FB6FF00400E8E700BFAFF3008090
:10105000005C260500000000CDCCCCCC204C010863
:10106000244C010880EE3600484C01080C4C010865
:10107000304C010810B558B1844683681548834246
:1010800016D21548834213D31B696046984710BD9A
:10109000124C40F237232246114912480EF0ADFDA2
:1010A00011480EF0AAFD40F2372120460EF09CFDBB
:1010B0000A4C40F2372322460C490A480EF09DFDA7
:1010C0000B490C480EF099FD40F2372120460EF0F6
:1010D0008BFD00BFF03E01088C3E0108E040010896
:1010E00020410108344101085441010868410108C8
:1010F000A8420108B042010808B50B78042B0BD8B0
:10110000DFE803F01014030A0B0048688B68CA6814
:10111000C1180A4801F0A0FA08BD80224968FFF70B
:10112000A9FFF9E7064B00221A70F5E7044B0022ED
:101130001A70896803480EF049FDEDE79807002012
:101140000C0E0020C842010810B560B184468368C7
:101150001748834217D21748834214D31B681BB326
:101160006046984710BD144C40F2E11322461349E3
:1011700013480EF042FD13480EF03FFD40F2E1111E
:1011800020460EF031FD0C4C40F2E11322460E4990
:101190000B480EF032FD0D490D480EF02EFD40F2C9
:1011A000E11120460EF020FD6FF05700DAE700BF96
:1011B000F03E01088C3E0108E04001082041010892
:1011C000344101085441010868410108A84201085E
:1011D000B042010810B558B184468468154884426D
:1011E00016D21548844213D3E4686046A04710BD68
:1011F000124C4FF407732246114912480EF0FDFCC1
:1012000011480EF0FAFC4FF4077120460EF0ECFC8A
:101210000A4C4FF4077322460C490A480EF0EDFCC5
:101220000B490C480EF0E9FC4FF4077120460EF014
:10123000DBFC00BFF03E01088C3E0108E0400108E5
:101240002041010834410108544101086841010866
:10125000A8420108B042010810B558B1844684681C
:101260001548844216D21548844213D364686046F8
:10127000A04710BD124C40F2F51322461149124806
:101280000EF0BBFC11480EF0B8FC40F2F511204600
:101290000EF0AAFC0A4C40F2F51322460C490A480B
:1012A0000EF0ABFC0B490C480EF0A7FC40F2F51118
:1012B00020460EF099FC00BFF03E01088C3E01086C
:1012C000E04001082041010834410108544101086F
:1012D00068410108A8420108B042010810B582B077
:1012E000254B80221A61254A1A6000221A81DA8071
:1012F0009A80DA819A815A81214812F0F4F870B10B
:10130000002220491E48FFF71FFF044668B94FF02E
:10131000FF3380221C491A48FFF75CFF13E01B488B
:101320000EF054FC4FF0FF3403E0014618480EF075
:101330004DFC204602B010BD00F036FB4FF4967015
:1013400000210BF0BDFB01220DF107010A4801F05D
:10135000B7F90128F0D10F4B1B78002BF3D10E49C0
:101360009DF807300B7001220A4B1A704FF0FF33C3
:101370000348FFF771FFE6E798070020AC0700205D
:10138000903B0108F9100008AC080020E042010879
:10139000F84201080C0E00202C0800200023032B2B
:1013A0000DD803EB4302074931F81220824201D0E5
:1013B0000133F4E703EB430301EB430070470020E4
:1013C000704700BF448D0108FF2805D008B5034BC6
:1013D0001B6803B1984708BD704700BF340900205F
:1013E00010B5044C23689878FFF7EEFF00232360C4
:1013F00010BD00BF3009002008B5034B1B681879E9
:10140000FFF7E2FF08BD00BF2C09002038B5856852
:10141000C088FFF7C3FF002842D00446012D3CD10D
:10142000204B1B6883421AD0E378FF2B31D01E4D2E
:10143000284609F0B1FD1B4B1C604FF47A62002373
:10144000284609F00FFD2379FF2B29D0174B1C608C
:101450004FF4FA520023164809F004FD20E0124828
:1014600009F09AFD0028DFD1114809F095FD0D4BD8
:1014700000221A60E078FFF7A7FF2379FF2B0FD037
:101480000A4B1C604FF4FA520023094809F0EAFCA9
:1014900006E0A078FFF798FFD5E7054809F07CFD46
:1014A00038BD00BF30090020500200202C09002068
:1014B0002002002008B50549054809F01DFC054932
:1014C000054809F019FC002008BD00BFE113000821
:1014D00050020020F913000820020020014B186080
:1014E000704700BF3409002090F82530064AA2FB5F
:1014F000031202F0FC0101EB92029B1ADBB2034AD9
:1015000052F82300704700BFCDCCCCCC5C8D0108D5
:1015100008B5054801F054FB0448FFF7DFFF044B12
:1015200001221A70002008BDD03B0108CD17000829
:101530000E0E002000B583B00B468DF8042000226B
:101540008DF80520024601A902480FF016F803B0F5
:101550005DF804FBD03B01082DE9F0410646384C0C
:101560000021204601F01EFB00231A463168204668
:101570000FF003F83469002302E064690133DBB241
:10158000727E9A4201D9002CF7D130460EF084F9D0
:101590008046002719E02B4600222A4928480EF0F1
:1015A000ECFF25E020460EF0FCF858B32B460E2247
:1015B000254923480EF0E1FF2B46202221682048D0
:1015C0000EF0DBFF64690137FFB214B3022F20D89D
:1015D0003D01EDB21235EDB2737E3B44DBB2327E9B
:1015E0009A42D8D02B460022184915480EF0C5FF64
:1015F0002369002BD6D02B460E22154910480EF039
:10160000BCFFD9E72B460E2212490D480EF0B5FF5C
:10161000D2E7B8F1030F05D9737E2BB9737E03337C
:10162000434507DBBDE8F0815E2212217820FFF7F9
:1016300081FFF3E7762232217820FFF77BFFF1E785
:10164000D03B010814430108204301081843010856
:101650001C430108244301082DE9F04782B080466D
:10166000894617461D4600211046FFF731FA40B95A
:10167000BA465046FFF754FA06464FF0000C0124D4
:1016800007E007F1004AF4E704EB840464000CF17E
:10169000010CAC45F8DB3046FFF778F901465046BF
:1016A000FFF7BEF882462046FFF770F90146504624
:1016B000FEF7FEFF4FF07C51FFF7B4F8FFF730FA6A
:1016C0008246844202DC0136A0EB040A002138463F
:1016D000FFF7FEF958B9CDF804A000953346094A42
:1016E000494640460DF05AF902B0BDE8F087CDF802
:1016F00004A000953346044A494640460DF04EF991
:10170000F2E700BF3443010828430108F8B50C464E
:10171000154690F8243043B9C26932B11368154AAE
:10172000294620460DF03AF906E0012B05D02D237D
:10173000237063700023A370F8BD036A002BF6D0FA
:101740001E683046FFF7ECF90746FFF71FF93146F0
:10175000FFF7B4F930B13B46064A294620460DF062
:101760001DF9E9E70223324629462046FFF774FFB8
:10177000E2E700BF3C43010810B4044608460A6093
:101780000B71019B8B60CC6000230B614B610B766E
:101790004B76CB610B6281F82430012281F8252041
:1017A0008B62CB6234B123694BB11A465B69002B63
:1017B000FBD15061044B1B681BB110BC7047216109
:1017C000F8E7014B1860F8E75809002010B5704B96
:1017D0001C68002C00F0D380052800F2D080DFE8E0
:1017E00010F03400060062009100B300CA00694B9B
:1017F0001B781BB120460DF0D4FFF8B92369002BEC
:1018000000F0BD8020460EF047F8002800F0B780B9
:10181000237E013393FBF0F100FB1133DBB223761F
:10182000627E02329A4201DA9A1E6276627E9342A8
:1018300000D26376584B01221A70A0E020460DF0CA
:10184000F6FF554B01221A7099E0524B1B781BB1E1
:1018500020460DF0A6FFE0B92369002B00F08F8031
:1018600020460EF019F8002800F08980237EBBB9CD
:10187000421ED3B22376627E9A4200D96376627E9C
:1018800002329A4201DA023B6376434B01221A701C
:1018900075E020460DF096FF3F4B01221A706EE076
:1018A000013BDBB2E6E72269F2B1002302E05269B4
:1018B0000133DBB2217E994201D9002AF7D1002AF7
:1018C0005DD0364B1B68062B05DC013333490B60BA
:1018D000334941F823402E4B1A602E4B00221A70D8
:1018E0002D4B01221A704AE020460DF05AFF0028C5
:1018F00045D0284A137883F001031370264B012248
:101900001A703CE0234B1B7833B1224B00221A7033
:10191000214B01221A7032E0204B1B68002B0BDB9D
:10192000591E1E4A11601E4A52F82320184B1A6095
:10193000194B01221A7022E0E36803B3144A1360C2
:10194000154B01221A701AE0124B1B78BBB12046CE
:101950000DF027FF98B194F825200132114B83FB3D
:1019600002135B1003EB8303D31A84F825300A4B70
:1019700001221A7003E020460DF013FF00B910BDDC
:1019800020460DF092FF044B01221A70F7E700BFCA
:10199000580900200D0E00200E0E002050010020DE
:1019A00038090020676666663F4B1B78002B7AD0AB
:1019B0003E4B1B68002B76D030B58BB000213A4BE4
:1019C00019703B4801F0D6F8384B1868036933B1F9
:1019D000FFF7C2FD364801F06FF80BB030BD8368E9
:1019E000002B3ED09847314B18680DF0DAFE0028E6
:1019F000F0D02F4C0021204601F0D4F805AD142280
:101A000029462A4B1868FFF781FE30230022294619
:101A100020460EF0B2FD274B1B78002B3CD0234B09
:101A20001868FFF761FD0446FFF77AF80546FEF7F0
:101A3000ADFF2146FFF742F808B32B461E4A0C21A2
:101A400002A80CF0ABFF1A4C30233C2202A920461E
:101A50000EF093FD30236422184920460EF08DFDD0
:101A6000B8E7134C0021204601F09CF80F4B196891
:101A700018230022096820460EF07FFDB3E70223F9
:101A8000224608216846FFF7E7FD6B460C4A0C2109
:101A900002A80CF083FFD6E7302348220949044806
:101AA0000EF06BFD96E770470E0E002058090020DF
:101AB000D03B01080D0E00204043010850430108AF
:101AC000484301085843010870B582B0164D002400
:101AD00000942346154A29462046FFF74DFE144E32
:101AE00000942346134A31462846FFF745FE124B21
:101AF00000930123114A12493046FFF73DFE114D74
:101B0000114B00930123114A29463046FFF734FE5A
:101B10000F4BEB6185F82440AC626423EB62322307
:101B20002B63204602B070BD040A00206043010808
:101B3000CC09002068430108751B000870430108A8
:101B4000940900205C090020551B00087843010817
:101B50005401002038B50446054D0021284601F007
:101B600021F800231A46216828460EF006FD38BDEC
:101B7000D03B010838B50546084C0021204601F04D
:101B800011F800231A46296820460EF0F6FC1423AB
:101B90000022034920460EF0F0FC38BDD03B01087E
:101BA0008043010870B5B2F5802F31D20346042A74
:101BB0003ED9043AC81D20F007000A4422F007026B
:101BC000121AD608172A43D9186086600023C3600A
:101BD000B6FA86F1C1F1200EC1F12405AD0007353A
:101BE000E9084B1CB34294BF00230123002B45D0CE
:101BF000354C40F233332246344935480DF0FDFF71
:101C000034480DF0FAFF40F2333120460DF0ECFF7E
:101C10002D4C40F20A3322462F492D480DF0EDFF9E
:101C20002E480DF0EAFF40F20A3120460DF0DCFFAD
:101C3000254C40F211332246294925480DF0DDFF9D
:101C400024480DF0DAFF40F2113120460DF0CCFFB0
:101C50001D4C40F21D33224622491D480DF0CDFF98
:101C60001C480DF0CAFF40F21D3120460DF0BCFFAC
:101C700003F1040C002440F82C4001337345F7DBDA
:101C80001FFA81FC4FEA4C039BB24380002404807E
:101C900043F001034380731A25F00705AE1C9BB285
:101CA0004FEA430E20F806E020F805C022F00705B1
:101CB000961C845302444353538843F001035380DA
:101CC0000DF0B6FE70BD00BF904301088C440108C2
:101CD0003441010844440108F04301080844010864
:101CE000204401086044010808B502480DF06EFF69
:101CF000002008BDB84401082DE9F04180460F4698
:101D0000144642F210720023FEF780FF06460D468D
:101D100042F21072002340463946FEF777FF044B2B
:101D200003FB02F226606560A260BDE8F08100BF9F
:101D3000A086010030B18068094B98428CBF00201A
:101D40000120704710B5074C40F27F132246064928
:101D500006480DF052FF40F27F1120460DF044FF7F
:101D6000FFC99A3BF44401082845010834410108A1
:101D700038B5002838D00C460546FFF7DBFF80F069
:101D8000010010F0FF0F2FD1002C3AD02046FFF7B2
:101D9000D1FF80F0010010F0FF0F32D12B686A688C
:101DA000002A3BDB012B72F100010EDB2168606829
:101DB000012970F1000C08DB6FEA030C8C456FF011
:101DC0000041A1EB0201814138DB216860685B18AA
:101DD00042EB00022B606A60AB68A2681344AB6000
:101DE000284600F0C9FA38BD154C40F2BB13224614
:101DF000144915480DF001FF40F2BB1120460DF0CB
:101E0000F3FE0F4C4FF4DE73224610490E480DF0DE
:101E1000F4FE4FF4DE7120460DF0E6FE20686168A6
:101E20000029BFDAD3F1000E4FF0004C6CEB020C2E
:101E3000704571EB0C01B5DA0020D4E70020D2E741
:101E4000F44401083C450108344101086845010893
:101E500010B5D0B10446FFF76DFF80F0010010F01F
:101E6000FF0F12D123686268B2F1004F08BF002B48
:101E700018D05B4262EB420223606260A3685B425F
:101E8000A360204600F078FA10BD074C4FF4F373BE
:101E90002246064906480DF0B0FE4FF4F371204685
:101EA0000DF0A2FE0020EFE7F444010810460108FF
:101EB0003441010870B538B304460025EFF31186AC
:101EC000102383F31288BFF36F8F2F480BF0F0F8C5
:101ED00080F0010010F0FF0F21D12B480BF056F9D4
:101EE000002D3CD1294B0FCB84E80F0026480BF086
:101EF000EFF880F0010010F0FF0F1FD186F311887A
:101F0000BFF36F8F0125EBE7214C6A23224621495D
:101F100021480DF072FE6A2120460DF065FE1F4C2F
:101F20008F2322461E491C480DF067FE16491D48A6
:101F30000DF063FE8F2120460DF056FE174C40F247
:101F40003D132246184914480DF057FE0E49174814
:101F50000DF053FE40F23D1120460DF045FE2046A7
:101F6000FFF7E8FE80F0010010F0FF0F00D170BD18
:101F7000074C702322460E4907480DF03EFE7021A3
:101F800020460DF031FE00BF3C0A002080020020F8
:101F900040460108644601083441010878460108BA
:101FA000A8460108C0460108D8460108F0460108C5
:101FB0000847010830B585B005460C460DF0FAFD1E
:101FC00088B3012D15D111F064FC2246FFF794FE71
:101FD0006846FFF76FFF69462046FFF7C9FE80F0AD
:101FE000010010F0FF0F09D0104B0FCB84E80F0059
:101FF00004E011F04EFC2246FFF77EFE2046FFF77C
:1020000099FE80F0010010F0FF0001D105B030BD55
:10201000074C63232246074907480DF0EEFD632174
:1020200020460DF0E1FD6FF01500EFE75840010884
:1020300040460108F84501083441010870B584B0F4
:10204000012859D10C460846FFF774FE002858D0E5
:1020500011F01FFC6A46FFF74FFE6846FFF7F8FED7
:1020600021466846FFF784FE0024EFF31185102314
:1020700083F31288BFF36F8F23480BF019F880F0B9
:10208000010010F0FF0603D11F480BF07FF813E0AA
:102090001E4C8F2322461E491E480DF0AEFD1A49E4
:1020A0001D480DF0AAFD8F2120460DF09DFD85F302
:1020B0001188BFF36F8F012404BB184C04AB13E9E4
:1020C0000F0084E80F0010480BF002F880F00100C8
:1020D00010F0FF0FEBD00D4C40F23D13224610499B
:1020E0000C480DF08AFD08490E480DF086FD40F2BF
:1020F0003D1120460DF078FD6FF01506304604B016
:1021000070BD6FF01506F9E73C0A0020784601081B
:10211000A846010834410108C04601088002002099
:10212000D8460108F046010808B5024B1B689847DD
:1021300008BD00BF58010020014B1860704700BF68
:102140005801002000B585B084460A466846002341
:10215000009301930293039302238DF80230044B02
:10216000019361460CF03AFE05B05DF804FB00BF38
:102170002921000870B59646022A8CBF0022012250
:10218000801A61F10001002978DBCC1704F02105E9
:10219000C0F3130C020D42EA0132C2F3130294445D
:1021A000C1F3132294440CEB117CAC44554AA2FBBE
:1021B0000C52D20802EB820202EB8202ACEB020C60
:1021C00024F01704A444B0EB0C0261EBEC714E4C0C
:1021D0004E4D02FB05F504FB0155A2FB04212944E9
:1021E0008C460029C0F28780120942EA0C714FEA3E
:1021F0002C1C474A02FB0100BEF1020F7FD96FF091
:102200000202724402EBC20202EB02120232414CA1
:10221000A4FB024203EB9202830840F26D1404FB1C
:102220000033384CA4FB0040A3EB501083184FEA56
:10223000CC0040EA5170CA0052184CEB000000017B
:1022400040EA1270120152184CEB0000000140EA03
:1022500012701201521A60EB0C00810141EA926186
:102260004FEA821CBCEB020261EB0001D01841F185
:102270000001294BC01861F1000170BD6FF4C772F5
:10228000821861F10001CD1705F0210CC2F313048F
:10229000160D46EA0136C6F313063444C1F313267D
:1022A000344404EB11746444164EA6FB046C4FEAEC
:1022B000DC0C0CEB8C0C0CEB8C0CA4EB0C0425F064
:1022C00017052C44121B61EBE4710F4C0F4D02FB00
:1022D00005F504FB0151A2FB04240C44A446002C88
:1022E00005DB120942EA0C714FEA2C1C81E70F3220
:1022F00044F1000CF5E70F3241F1000C74E70922BC
:102300007FE700BF1F85EB51295C8FC2F5285C8FEA
:1023100070FEFFFFCDCCCCCC9405F5FF30B18068CA
:10232000094B98428CBF00200120704710B5074C24
:1023300040F27F132246064906480DF05EFC40F24B
:102340007F1120460DF050FCFFC99A3BF444010870
:10235000284501083441010810B50DF05CFC024627
:102360000B4603F0A5F803490024445010461946D3
:1023700010BD00BF0C00000038B5002841D0B0FAF5
:1023800080F35B0982683D498A4245DD01F11161B4
:1023900001F5562101F2A25181FB0231D317C3EBA3
:1023A0002173002A42DB35498A4213DD0468416803
:1023B000012C71F100050DDBE443C1F1FF4101F592
:1023C000FF0101F5FF417F314FEAE37C9C42644607
:1023D000A14150DB29498A4234DD0168446859181B
:1023E00044EBE37401604460254901FB03238360EF
:1023F000FFF794FF80F0010010F0FF0F30D10120B3
:1024000038BD204CC92322461F4920480DF0F5FB5A
:10241000C92120460DF0E8FB002AC2DA174B9B1AAF
:102420005B0A1B49A1FB0313DB09BAE70568416896
:102430000029B8DA01F10041DC179D42A141B2DA6E
:102440000020DDE7002AD3DA01684468C91A64EB8A
:10245000E374016044600F4901FB03228260C7E717
:10246000084CF02322460C4908480DF0C6FBF02129
:1024700020460DF0B9FB0020C2E700BFFFC99A3B20
:10248000003665C420470108284501083441010889
:10249000834B040000CA9A3BF845010808B500F0D8
:1024A000D7F801220260426000238360C3600361A9
:1024B0000649416106490A6006490A60064A1360F6
:1024C000064A1360064A136008BD00BF404E01086B
:1024D0007801002074010020480A0020440A0020EE
:1024E000400A00202DE9F04106460F46154600F04F
:1024F000AFF80446C3681BB943691A78002A54D15F
:102500000023E360616857F821306361B14231DA3A
:102510005A1C62611A782D2A2CD19A1C62615A7851
:10252000A2602D2A2ED04AB9394B63612D2128464D
:102530000BF04CFE002832D02D23A360D4F8088085
:10254000414628460BF042FEB8F13A0F32D000283F
:1025500030D043783A2B38D00023236163691B784D
:1025600013B9636801336360204600F053F8A06834
:10257000BDE8F081264B6361204600F04BF84FF038
:10258000FF30F5E79B78002BCDD101316160204B06
:102590006361204600F03EF84FF0FF30E8E7204648
:1025A00000F038F84FF0FF30E2E75A1C42611B7828
:1025B0008360C3E763691B7813B9636801336360A1
:1025C000204600F027F83F20D2E763691A7832B13D
:1025D00023610F4B6361636801336360C4E7636821
:1025E00001336360B34203DA57F823302361F0E725
:1025F000074B63612B783A2B04D0204600F00AF891
:102600003F20B5E7204600F005F83A20B0E700BFCC
:10261000404E010808B50168084A11604168084A3F
:1026200011608168074A1160C168074A1160026938
:10263000064B1A6003F0F8F908BD00BF78010020CE
:1026400074010020480A0020440A0020400A0020AB
:10265000004870475C0100202DE9F04182B08046BF
:102660000E46154600272A4601A940460DF049FBB3
:10267000044640B1024631460198FDF77FFF2744EA
:1026800026442D1BEFD13A4608F1040140460DF0D7
:102690005DFB18B9384602B0BDE8F081054C49230E
:1026A0002246054905480DF0A8FA492120460DF0BB
:1026B0009BFA00BF484701087447010834410108EC
:1026C0002DE9F04182B080460E461546002702E013
:1026D00027442D1B0FD02A4601A940460DF024FBAC
:1026E000044640B1002EF3D0024601993046FDF772
:1026F00045FF2644ECE73A4608F10A0140460DF052
:1027000025FB18B9384602B0BDE8F081054C6423BA
:102710002246054905480DF070FA642120460DF067
:1027200063FA00BF484701087447010834410108B3
:10273000034A536843F0020353600020704700BF10
:10274000002004E008B502490DF021FB08BD00BFE0
:102750005D28000810B560B10246836815488342C1
:1027600015D21548834212D31B68FBB11046984717
:1027700010BD124CB6232246114912480DF03DFA05
:1027800011480DF03AFAB62120460DF02DFA0B4C07
:10279000B62322460D490B480DF02FFA0C490D487F
:1027A0000DF02BFAB62120460DF01EFA6FF05700FF
:1027B000DEE700BF583E01083C3E010880470108A3
:1027C000204101083441010854410108BC47010877
:1027D00038490108B042010810B560B1024683686B
:1027E0001548834215D21548834212D35B68FBB16A
:1027F0001046984710BD124CCC232246114912486E
:102800000DF0FBF911480DF0F8F9CC2120460DF040
:10281000EBF90B4CCC2322460D490B480DF0EDF99A
:102820000C490D480DF0E9F9CC2120460DF0DCF9FA
:102830006FF05700DEE700BF583E01083C3E01083C
:102840008047010820410108344101085441010832
:10285000BC47010838490108B042010808B50B46D9
:1028600041680C31012B11D007D81BB90948FFF77B
:10287000B3FF0EE06FF085000BE0023BDBB2012BF3
:1028800001D8002005E06FF0850002E00148FFF765
:1028900061FF08BDF039010810B5082808D8064BBB
:1028A00053F82040204610F01EFE18B1204610BDFF
:1028B0000024FBE70024F9E7BC960108084B1A68DE
:1028C00042F480721A601A6842F400721A601A6840
:1028D00042F480621A60034B034A1A60704700BFDB
:1028E000003C0240A40100200024F400014B0360DE
:1028F00000207047E096010870B544798C4279D980
:1029000090F806C0944577D92346644528BF6346AE
:10291000022B03D99D1EC5F3470500E0002537486B
:10292000A0FB0303DB08AB4228BF2B46E01AC0B272
:10293000ACEB030C5FFA8CFC5D1CA84204D9C41AF2
:10294000013CC4F3470400E00124654505D2ACEB2B
:102950000305013DC5F3470500E00125A0EB030E8B
:10296000ACEB0306B645A8BFB646244EA6FB0E6EDA
:102970004FEADE0EBEF1010F38BF4FF0010EAC4240
:1029800028BF2C46A64528BFA646994207D38142B8
:1029900011D29A4211D3624511D3002400E00024E1
:1029A0005FFA8EFE734499420BDBA0EB0E0081426E
:1029B00010DB012106E00024F2E70024F0E7012407
:1029C000EEE70121934207DCACEB0E0C624509DB1C
:1029D000012302E00021F5E701232CB131B93BB915
:1029E000002008E00023F8E7002004E0012002E0D6
:1029F000012000E0002070BD0020FCE7CDCCCCCC55
:102A00002DE9F04F83B01E469DF83080294B9F681A
:102A1000002F49D0894614461B68002B47D0254B10
:102A20009B7D03EB430307EB83070846FDF768FB39
:102A30008246002514E01F4B9B7B13F0010F1FD033
:102A40001C4890F917B0A4B219F80510CDF8008011
:102A5000B3B222460DF0D7FC83445C4424B2013566
:102A600055451DD27A792244124B1B8A9A42E2DDE7
:102A7000B8F1000FDFD0BB7933441EB20024DAE78F
:102A80000C4890F917B0A4B219F80510CDF80080E1
:102A9000B3B222460DF0D7FC83445C4424B2DEE797
:102AA000002003B0BDE8F08F6FF01200F9E76FF07F
:102AB0001200F6E7DC0A002070B586B08568274B67
:102AC0009D4229D20446264B9D4225D3254B1968A9
:102AD00000293FD00023039304930593214B5A68A8
:102AE00003921A8AADF81020588AADF81200ADF89A
:102AF00014209A89042A14BF002201221B7E9A42C4
:102B000017D1AD68009103AB002211462046A847BB
:102B10000446204606B070BD134C40F2C72322463F
:102B2000124913480DF069F840F2C72120460DF014
:102B30005BF80C4E30460DF010FDAD683368009325
:102B400003AB002211462046A847044630460DF04C
:102B500004FDDEE76FF01204DBE700BF8C3E0108E6
:102B6000583E0108DC0A0020204A0108444A0108B6
:102B70003441010838B50546094B186860B10C4668
:102B80005A6800210BF09CFA0CB9002038BD284689
:102B9000FFF792FF0020F9E76FF01200F6E700BFA1
:102BA000DC0A0020054B5B7D8B4203D9034B9975F2
:102BB000002070476FF01500704700BFDC0A00204E
:102BC00010B584B08368254A934236D2244A934292
:102BD00033D31B6A69469847224C234A121B234B66
:102BE000A3FB0232D208224B5A75BDF800001882AE
:102BF000BDF80210598208221A75BDF80C209A817E
:102C00009DF808209A730022DA751A769C609A75EE
:102C100001FB00F090420EDBC010154C60600BF021
:102C20003DFA2060B0B1124B5A6800210BF048FA0F
:102C3000002004B010BD0730EEE70E4C40F22D33FB
:102C400022460D490D480CF0D8FF40F22D312046A8
:102C50000CF0CAFF6FF00B00EBE700BF8C3E0108E1
:102C6000583E01083C40010854400108ABAAAAAAFA
:102C7000DC0A0020204A0108444A010834410108C6
:102C800010B5044606F0BAFA0346034A0821204666
:102C90000DF0DBFC002010BDB04B010830B583B057
:102CA000054613460022019201AA0A21586801F044
:102CB00041F9019C24B90DF068FC204603B030BDF9
:102CC0002346034A012128460DF0BFFC019CF4E78E
:102CD000E04B010808B5034B034A08210DF0B5FC91
:102CE000002008BDE04C0108E84C010800B583B0A5
:102CF000009000238DF804306946044810F0ABFDC5
:102D00009DF8040003B05DF804FB00BFAB050108AB
:102D100070B504460AF05AFF064606F037FA054633
:102D200030460AF081FF2B46074A082120460DF065
:102D30008CFC064A082120460DF087FC21460448F9
:102D400010F093FD002070BD2C4D01084C4D010882
:102D5000A12D000810B50C4B1B78012B04D102F0FB
:102D6000A7FB0A4B185810BD094C40F28F3322467E
:102D7000084909480CF041FF08480CF03EFF40F2BA
:102D80008F3120460CF030FF130E002008000000A9
:102D9000584D0108844D010834410108984D01083F
:102DA000F0B58FB004460D46D0F8A07010F0F1FCDD
:102DB0000646FFF7CFFF844230D0234B002E2FD0A2
:102DC00001960094214A082128460DF03EFCD4E9E2
:102DD000082394F90E10CDE902230091A3891C4A1F
:102DE000082128460DF031FC202205A9204608F0D4
:102DF000A7F90346A26E0092164A082128460DF054
:102E000024FC0DA9204610F0E7FC034650B1124AFD
:102E1000082128460DF019FC0FB0F0BD0F4BCDE78F
:102E20000F4ECDE70D9AB91A642301FB03F3B3FBF0
:102E3000F7F303930297019100923B46094A082158
:102E400028460DF002FCE7E714590108C44D0108BB
:102E5000D04D0108FC4D0108144E0108BC4D01087D
:102E6000C04D0108444E010870B592B005460AAC49
:102E70002022002120460BF023F94FF020330A9343
:102E80000B930C930D930E930F93ADF8403029469E
:102E90001C4810F0EAFC002414B1002012B070BDF0
:102EA00004EB4413184E06EB831609AA4FF4006195
:102EB00006F1400010F07FFCC0B90999C1F500602F
:102EC000642200FB02F2D20A06924FF400630593DB
:102ED0000490039102930AAB0193009433460B4A8A
:102EE000082128460DF0B1FB0134D5E7084C5723E3
:102EF0002246084908480CF080FE572120460CF075
:102F000073FE00BF1D2F000880120020E44E010850
:102F10009C4E01087447010834410108F0B589B09E
:102F200004460D46D0F8A06007A910F055FCC8B9BA
:102F3000204610F02EFC079AB11A642301FB03F31C
:102F4000B3FBF6F30746A0B10593049603910292F2
:102F5000019600972346084A082128460DF075FB84
:102F600009B0F0BD0346054A082128460DF06DFB67
:102F7000F6E7034FE8E700BF304F0108144E0108A1
:102F8000C04D010810B50C4B1B78012B04D102F089
:102F90008FFA0A4B185810BD094C40F28F33224665
:102FA000084909480CF029FE08480CF026FE40F2BA
:102FB0008F3120460CF018FE130E00200800000090
:102FC000584D0108844D010834410108984D01080D
:102FD00038B5054613461022002158680BF08CFDC9
:102FE0000446FFF783FE70B1FFF7CCFF844213D095
:102FF000204608F065F923460B4A082128460DF0C3
:1030000024FB002038BD2346084A012128460DF044
:103010001CFB6FF01500F5E7054A012128460DF06D
:1030200014FB6FF01500EDE7DC4F0108984F010825
:10303000B44F010810B50C4B1B78012B04D102F0E2
:1030400037FA0A4B185810BD094C40F28F3322460C
:10305000084909480CF0D1FD08480CF0CEFD40F2BB
:103060008F3120460CF0C0FD130E00200800000038
:10307000584D0108844D010834410108984D01085C
:1030800038B5054613461022002158680BF034FD70
:103090000446FFF72BFE70B1FFF7CCFF844213D03C
:1030A000204608F073F923460B4A082128460DF004
:1030B000CCFA002038BD2346084A012128460DF0ED
:1030C000C4FA6FF01500F5E7054A012128460DF016
:1030D000BCFA6FF01500EDE748500108984F010861
:1030E0002050010810B50C4B1B78012B04D102F0C5
:1030F000DFF90A4B185810BD094C40F28F332246B5
:10310000084909480CF079FD08480CF076FD40F2BA
:103110008F3120460CF068FD130E002008000000DF
:10312000584D0108844D010834410108984D0108AB
:1031300038B5054613461022002158680BF0DCFC18
:103140000446FFF7D3FD70B1FFF7CCFF844213D0E4
:10315000204602F037F923460B4A082128460DF095
:1031600074FA002038BD2346084A012128460DF094
:103170006CFA6FF01500F5E7054A012128460DF0BD
:1031800064FA6FF01500EDE7B0500108984F0108A0
:103190008850010810B50C4600210DF03DFB034698
:1031A00000B1036823600023E360024A6260A36009
:1031B00010BD00BF2077010810B50C4600210DF0AE
:1031C00031FB034600B1036823600023E360024A39
:1031D0006260A36010BD00BF2077010870B582B0A7
:1031E0000546144650680DF02DFB80B1064610F0E0
:1031F0007AF9A8B9304610F06AF90646D0B10090C5
:103200006368104A012128460DF01FFA0FE0636839
:103210000D4A012128460DF018FA6FF0120606E05B
:1032200063680A4A022128460DF00FFA002630464C
:1032300002B070BD6368064A022128460DF005FA07
:10324000F5E700BF28510108EC50010804510108BE
:103250005851010810B503460C461146006808B1E4
:10326000027822B9024A20460BF098FB204610BD96
:103270007C5101082DE9F0478EB0064688469146FC
:103280000DA806F01DF90D9F07EB4017284A0821ED
:1032900030460DF0DAF90D9C16E02B46254A082140
:1032A00030460DF0D2F9204610F01DF9F0B1224B56
:1032B000224A082130460DF0C8F9E3691BB11D68A8
:1032C0000DB12B68A3B92034BC422CD2302201A905
:1032D0002046FFF7BFFF0546B8F1020FDDD1D9F850
:1032E00004100BF0B5F90028D7D1ECE7144BDFE759
:1032F000144A082130460DF0A8F94FF0000A2B6857
:1033000053450AD905EB8A035B680F4A082130460A
:103310000DF09BF90AF1010AF1E70C4A0821304649
:103320000DF093F9CFE700200EB0BDE8F08700BFA5
:1033300098510108A451010884510108AC510108B9
:103340008C510108B4510108C85101084C670108AB
:1033500000B587B04B690A69D1F800C0CDF810C03C
:10336000D1F804C0CDF80CC0D1F808C0CDF808C021
:10337000C96801910132009203F26C73034A08217B
:103380000DF063F907B05DF804FB00BF4C52010873
:103390002DE9F04182B080460E4614460A2201A96A
:1033A00020460BF02FFB019BA3423BD007461A7827
:1033B0002D2A3AD15C1C0A2201A920460BF022FBDF
:1033C0000546019BA34233D01A782D2A33D1421EE1
:1033D0000B2A17D85C1C0A2201A920460BF012FB0D
:1033E000019BA3422AD01B785BBB431E1E2B11D826
:1033F000A7F26C777761013D3561F060002002B083
:10340000BDE8F081104A012140460DF01EF96FF031
:103410001500F4E70D4A012140460DF016F96FF052
:103420001500ECE76FF01500E9E76FF01500E6E72F
:103430006FF01500E3E76FF01500E0E76FF015009F
:10344000DDE76FF01500DAE77052010880520108DD
:1034500070B582B006460D46144613783A2B15D146
:10346000013423783A2B29D101340A2201A92046BC
:103470000BF0C8FA2860019BA3424BD01B78002BAD
:103480004BD13C2832D8002002B070BD0A2201A9DD
:1034900020460BF0B7FAA860019BA3422ED01A7801
:1034A0003A2A2ED1172801D85C1CDAE71C4A0121E0
:1034B00030460DF0CAF86FF01500E5E70A2201A9C1
:1034C00020460BF09FFA6860019BA3421CD01A783B
:1034D0003A2A1CD13B2801D85C1CC6E7114A0121BD
:1034E00030460DF0B2F86FF01500CDE70E4A01211D
:1034F00030460DF0AAF86FF01500C5E76FF0150023
:10350000C2E76FF01500BFE76FF01500BCE76FF082
:103510001500B9E76FF01500B6E76FF01500B3E7D7
:1035200090520108A0520108B0520108F0B58FB0C6
:1035300004460D4616460AAF39460120FEF73AFD0D
:1035400001A938460BF032F9032D21D0022D3ED1CE
:10355000726801A92046FFF77BFF90BB01A8FEF728
:10356000FBFE0A900B91B1F1FF3F08BFB0F1FF3FA6
:1035700033D000230C930AA90120FEF75FFD054616
:1035800098BB01A92046FFF7E3FE28460FB0F0BD27
:10359000726801A92046FFF7FBFE60B9B26801A975
:1035A0002046FFF755FF0028D8D020460DF05DF8E3
:1035B0006FF01505E9E720460DF057F86FF0150597
:1035C000E3E720460DF051F86FF01505DDE72046E2
:1035D0000DF04BF86FF01505D7E7084A012120469A
:1035E0000DF033F86FF01505CFE70346044A0121CB
:1035F00020460DF02AF86FF01505C6E7C052010805
:10360000EC52010800B583B0102A0FD0202A11D047
:10361000082A12D10B780022009301920A4A08214D
:103620000DF013F8002003B05DF804FB0B889BB28B
:103630000022F1E70B680022EEE7044A08210DF0B2
:1036400004F86FF01500EEE7545301083C530108ED
:1036500008B5029B102A07D0202A09D0082A0AD1CF
:10366000DBB20B70002008BD9BB20B800020FAE794
:103670000B600020F7E7034A08210CF0E6FF6FF02B
:103680001500F0E73C5301082DE9F04182B00446F3
:103690000D4616461022002170680BF02DFA0746E1
:1036A000022D21D84FF020084346164A0821204613
:1036B0000CF0CBFF032D1FD910220021F0680BF076
:1036C00089FA06460D46009001910F4A08212046CE
:1036D0000CF0BBFF00960195424639462046FFF7A5
:1036E000B7FF02B0BDE8F0810A220021B0680BF0FC
:1036F00003FA5FFA80F8D7E7424639462046FFF7DB
:1037000081FFEEE7685301088053010838B504468D
:103710000D4611B10F4B1B7863B90E4A137883F035
:10372000010313706BB900222946204600F064FBA8
:10373000002038BD084A01210CF087FF6FF00F0010
:10374000F7E7064A082120460CF07FFF014B0122D3
:103750001A70E8E70F0E002098530108D4530108AF
:10376000F8B507460E4615460023244A1370244A2E
:103770001360244A13600CE000231C4402222249F7
:1037800020460AF08BFD98B91C4B01221A700435B3
:10379000013E012E1ED96C6802221C4920460AF007
:1037A0007DFD0028E8D1A378002BE6D00123E4E7D3
:1037B00016492046FCF714FD58B123782D2B09D16A
:1037C00063783BB12346124A082138460CF03DFF8E
:1037D000DDE704350022114668680BF08DF90D4BCA
:1037E00018600022114668680BF086F90A4B1860D1
:1037F0000A493846FFF78AFF0020F8BD110E002065
:10380000FC0A0020000B00200454010800540108A9
:1038100008540108080B0020040B00202138000880
:103820002DE9F04180460E461746002421E0335D25
:10383000112B24D100243C4B1C703C4B1B683C4A90
:10384000082140460CF001FF21464046FFF75EFF8D
:10385000384B1B78002B41D0BDE8F081364A156803
:1038600036494B5501351560334B1B68022B19D077
:103870000134BC42F0D22C4B1B78182BD7D0335DCF
:10388000294A1370A3F13005EDB2092DE6D9A3F151
:103890006102D2B2052AE1D9A3F14102D2B2052ACE
:1038A000E2D8DBE71022002124480BF025F9244A56
:1038B000136803F8010B13601C4A1368013313608B
:1038C0001D4B00221A60D3E71E480368196809BA25
:1038D00043F8041B0360043A144B1A60134B1A6834
:1038E000042AF1DC12F0030F05D1164B1A68136895
:1038F0001BBA1360B0E7534202F0030203F0030364
:1039000058BF5A42022A08D0032AA5D10D4B1A6883
:1039100013681BBA1B0A13609EE70A4B1A681368E8
:103920005BBA9BB2136097E7100E0020000B0020DB
:1039300020540108110E0020FC0A0020F80A002083
:10394000080B0020040B00202DE9F04385B08046D1
:103950001C46DD08083BDBB2182B07D80F4616467D
:103960002D4A22FA03F313F0010F4CD123462B4AC0
:10397000082140460CF069FE6FF0150048E03CF865
:1039800007309BB26A4662440CF110010DEB010C4A
:103990000CF8103C1B0A5370F446AE4225D30CEBD6
:1039A000050EBEF1100F20D8102CE8D0202C0AD024
:1039B000082CF1D11CF807300CF110020DEB020CB1
:1039C0000CF8103CE8E75CF807306A4662440CF1FA
:1039D00010010DEB010C0CF8103CC3F307215170E2
:1039E000190C91701B0ED370D6E7B146102E28BF6C
:1039F0004FF010094B466A463946404600F0C8FA77
:103A00001037A6EB090616B14FF0000CC5E70020F1
:103A100005B0BDE8F08300BF010100013C5401087E
:103A20002DE9F04383B081460D46144600230193EF
:103A30003B4B01221A60FEF731FD4FF0FF364FF08D
:103A400020083746374A21462846FEF74BFDB0F19D
:103A5000FF3F41D0732817D0772829D0612859D14A
:103A600001AA1021304B186800F064FA0646019B49
:103A7000002BE7D02C4B1B682C4A012148460CF048
:103A8000E4FD6FF0150047E001AA0021264B1868FD
:103A900000F050FA0746019B002BD3D0224B1B6845
:103AA000234A012148460CF0D0FD6FF0150033E0A9
:103AB00001AA00211C4B186800F03CFA8046019BCB
:103AC000002BBFD0184B1B681A4A012148460CF046
:103AD000BCFD6FF015001FE0B6F1FF3F0AD0B7F153
:103AE000FF3F0FD05FFA88F33A4631464846FFF76A
:103AF0002BFF11E0104A012148460CF0A6FD6FF0A3
:103B0000150009E00D4A012148460CF09EFD6FF0BA
:103B1000150001E06FF0150003B0BDE8F08300BFB1
:103B20007401002094540108400A002058540108F0
:103B30006C540108805401089C540108BC540108CD
:103B400010B50C4B1B78012B04D101F0B1FC0A4BD2
:103B5000185810BD094C40F28F33224608490948D5
:103B60000CF04BF808480CF048F840F28F31204632
:103B70000CF03AF8130E002008000000584D010820
:103B8000844D010834410108984D010810B50446E0
:103B900081681C3100F056FDA168034A1C312046A3
:103BA0000CF091FF10BD00BF785601082DE9F041DF
:103BB000E0B1884617461E4604460FF0E4FD10BBF0
:103BC00007F06AFD80B1A5686DB3D5F8843213F4AF
:103BD000006F35D06369002B45D02B7D022B4FD071
:103BE000012120460CF007FDBDE8F081444C40F275
:103BF000FD732246434944480BF0FFFF40F2FD713C
:103C000020460BF0F1FF3E4C40F2FE7322463F4946
:103C10003D480BF0F2FF3E480BF0EFFF40F2FE7123
:103C200020460BF0E1FF364C40F6080322463949A6
:103C300035480BF0E2FF40F6080120460BF0D4FFB8
:103C4000FFF77EFFD5F8A8328342C3D12C4C40F653
:103C50000903224630492C480BF0CFFF40F60901FA
:103C600020460BF0C1FF264C40F60B0322462B49A1
:103C700025480BF0C2FF40F60B0120460BF0B4FFC5
:103C80004FF4FA72002320460CF0D5FC0028ABD08C
:103C9000A368D3F8842212F4006F01D1DA6CB2B1B8
:103CA000F7B13246414620460CF0BFFEA368D3F878
:103CB000842212F4006F01D1DA6CC2B160690CF099
:103CC000EEFCA06800F5267006F012FB8CE7D3F836
:103CD000803213F0200FE3D020460CF04DFEDFE7DA
:103CE000069B3246414620460CF0AAFEDEE7D3F89A
:103CF000803213F0200FE1D020460CF0ABFEDDE760
:103D0000345601085C56010834410108B4590108D1
:103D10009056010888560108AC560108E85601087B
:103D200010B504460C4A08210CF08FFC0B4A082100
:103D300020460CF08AFC0A4A082120460CF085FC3B
:103D4000084A082120460CF080FC074A0021204642
:103D50000CF0B9FE002010BDF856010838570108D4
:103D600098570108EC57010888580108F8B508B3BE
:103D700004460D46B0FA80F77F0999B30846FCF770
:103D8000BFF986B24FF4FA72002320460CF053FCC0
:103D9000E8B1731C142B1DD82946A068FCF790FBD2
:103DA000A36883F84060A06800F5267006F0A0FACA
:103DB0003846F8BD0D4C40F6470322460C490D48E5
:103DC0000BF01BFF40F6470120460BF00DFF6FF094
:103DD0000F07EDE7A06800F5267006F089FA6FF08E
:103DE0001507E5E76FF01507E2E700BF3456010855
:103DF0005C5601083441010810B530B103468068B3
:103E0000C1649868026569B110BD084C40F6D703DB
:103E10002246074907480BF0F0FE40F6D70120463E
:103E20000BF0E2FE18460CF0DBFBEDE73456010820
:103E30005C5601083441010810B5044613460A4691
:103E40000146054801F0AEFD23691B7903B910BD99
:103E500020460CF024FCFAE7B706010810B504462A
:103E60000B460246054906480BF074FE23691B7990
:103E700003B910BD20460CF012FCFAE7A559000862
:103E8000B706010810B50B4614460246B0B1FCB1A6
:103E90008068002836D01E49884226D31D498842B2
:103EA00023D2A17C21F00301A174926812682146FB
:103EB00018469047206828B3204623E01648174943
:103EC000091AB3EB910F01D250F82320104619E0E4
:103ED000134C4FF497732246124913480BF08DFE92
:103EE0004FF4977120460BF07FFE104A904202D3A8
:103EF0000F4A904207D3006803EB830300EB830073
:103F0000036813B110BD0133F6E71846FAE700BFA6
:103F1000304001083C400108FC3E01082C3F0108EC
:103F2000C4580108F4580108344101082C3F010825
:103F300030400108F0B583B0164603782D2B19D018
:103F4000044601F0B5FA0546104F0023C3510A4656
:103F500001A920460AF0D0FDEB59222B10D023B93D
:103F6000019BA34201D01B7843B16FF0150333606E
:103F7000002003E06FF015031360002003B0F0BDD4
:103F80006FF0210333600020F8E700BF0C00000051
:103F90002DE9F04160B1064690461F46B0FA80F424
:103FA00064090B46304A08210CF04FFB254618E007
:103FB0002E4C40F2293322462D492E480BF01DFE8F
:103FC00040F2293120460BF00FFE2B4A08213046E3
:103FD0000CF03BFB0CE0294A082130460CF035FB85
:103FE00001350F2D0EDC002D02DD15F0070FECD092
:103FF000BD42F0D218F80530214A082130460CF0B5
:1040000024FBEDE71F4A082130460CF01EFB0BE0B5
:10401000194A082130460CF018FB0CE01A4A082116
:1040200030460CF012FB01340F2C15DC002C02DDA5
:1040300014F0070FECD0BC4208D218F80430134A31
:10404000D25C12F0970FE9D12E23E7E70A4A082144
:1040500030460CF0FAFAE6E70D4A082130460CF03B
:10406000F4FABDE8F08100BF08590108C4580108FE
:104070005C56010834410108145901081859010817
:10408000105901081C5901083459010878A0010889
:10409000205901082DE9F04120B10F461446804611
:1040A0000D4618E00E4C40F2523322460D490E48A0
:1040B0000BF0A3FD40F2523120460BF095FD264651
:1040C000102C28BF102633462A46E91B4046FFF72E
:1040D0005FFFA41B3544002CF1D1BDE8F08100BF87
:1040E000C45801085C5601083441010808B58368CA
:1040F000D3F8803213F0200F00D108BD0249406987
:104100000CF0CFFBF9E700BF7C400108082915D867
:1041100014D008B5836893F843208A4207D083F807
:1041200043108368D3F8803213F0200F00D108BD0C
:104130000A46034940690CF0B4FBF8E7704700BF3A
:104140002459010808B50A1E09DD4123002A0ADBAB
:104150008168D1F8801211F0200F06D108BD002A25
:10416000FCD04223F2E75242F2E7024940690CF0E8
:1041700098FBF3E73059010808B50A1E09DD43230F
:10418000002A0ADB8168D1F8801211F0200F06D1D5
:1041900008BD002AFCD04423F2E75242F2E702496C
:1041A00040690CF07EFBF3E730590108F8B505468D
:1041B0008468B4F85820B4F85A1004F134000CF0B4
:1041C00008FB278F668F28460CF079FB70B9B74241
:1041D00011D0618F238FC91A2846FFF7B3FFA18E34
:1041E000E38EC91A2846FFF7C7FFF8BD054968697D
:1041F0000CF057FBEBE7A18EE38EC91A2846FFF7B8
:10420000BBFFF2E74C6701082DE9F84305468468D7
:1042100014F1600006D0FBF773FF86B294F840708B
:1042200000211AE00026F9E70C44234493F860903B
:104230004FF0000883F86080AA6860310A440F4993
:1042400068690CF02EFBAB68234483F86090AB6880
:10425000DB8FDB1BF61A21464746AB68DC8FE41B7D
:10426000B442E1DB002E01DCBDE8F88301F160021D
:104270001A44034968690CF014FBF5E770750108EE
:10428000385901082DE9F04182B008B30E461446B2
:104290008046E9B10025002C41D0D8F8040003681D
:1042A000DF6801AB22467119B847F0B9019BA34200
:1042B00028D8002833DB1D44E41A002BEBD1D8F8B2
:1042C00008301B7D032BE6D040460CF030FBE2E7C4
:1042D000144C4FF4E2732246134914480BF08DFC42
:1042E0004FF4E27120460BF07FFC0E4C4FF4E77365
:1042F00022460F490D480BF080FC4FF4E771204631
:104300000BF072FC074C40F2CF13224609490748D4
:104310000BF073FC40F2CF1120460BF065FC02B0AD
:10432000BDE8F0813C590108685901083441010891
:104330007447010874590108082921D808B5836811
:1043400093F842208A4209D083F8421008290CD001
:104350008368D3F8803213F0200F00D108BD0A46DD
:10436000084940690CF09DFAF8E78368D3F8803279
:1043700013F0200FF2D0044940690CF092FAEDE7F7
:10438000704700BF88590108884001080CB470B517
:1043900082B0069DC0B10E46044683680BB34269E5
:1043A00062B3002D37D0D3F8843213F4005F3FD0CE
:1043B00007AB01932A46314620460CF041FB02B080
:1043C000BDE8704002B07047234C40F246232246BD
:1043D000224923480BF011FC40F2462120460BF005
:1043E00003FC1D4C40F2472322461E491C480BF09B
:1043F00004FC40F2472120460BF0F6FB164C4FF42C
:1044000012732246184916480BF0F7FB4FF412714D
:1044100020460BF0E9FB104C40F249232246134999
:104420000F480BF0EAFB40F2492120460BF0DCFB81
:104430000FF0A9F90028BBD0074C40F24A232246CE
:104440000B4907480BF0D9FB0A480BF0D6FB40F2AA
:104450004A2120460BF0C8FB3C5901085C56010874
:104460003441010888560108E856010894590108AA
:10447000985901089056010808B583689A7D02B1E1
:1044800008BD024A0221FFF781FFF9E73859010808
:10449000002977D02DE9F843804617460E460BB920
:1044A000002404E01146FFF767FEF9E70134335DAD
:1044B000354AD35C13F0080FF8D115E0002339E03A
:1044C000D8F814000CF0EBF82A4631194046FFF7F3
:1044D000D9FE09F101042D49D8F814000CF0E5FAD1
:1044E00039464046FFF748FE3046FBF709FE83B2E7
:1044F0001B1BD8F80820D08FC51B9D42DED300259A
:104500009D4207D204EB050916F809200A2AD7D0E4
:104510000135F5E73119D8F814000CF0C6FA1B493B
:10452000D8F814000CF0C1FABDE8F883DA1990420B
:104530000CD90133E218B25C1349895C11F0080F01
:10454000F4D00A2A01D01D46F0E71D46D8F8140021
:104550000CF0A5F82A4631194046FFF793FE2C448B
:1045600000E00134335D084AD35C13F0080FF8D142
:104570000649D8F814000CF098FA39464046FFF77F
:10458000FBFDB1E7704700BF78A001084C67010848
:10459000F8B505460F4614461E46516819B100236A
:1045A0003246FFF775FFA3687BB131462846FFF717
:1045B000E3FD3B46054A08212846FFF7E7FE0023B6
:1045C000F21DA1682846FFF763FFF8BDC459010832
:1045D00079B3F0B583B004461D46931D9EB20F46D5
:1045E0000B780BB903B0F0BD01910092114B124A48
:1045F0000821FFF7CBFE85B10E4B104A082120465B
:10460000FFF7C4FE28460CF037FA58B133462A4665
:1046100039462046FFF7BCFFE4E7094960690CF022
:1046200044FADFE70023324629462046FFF730FFF1
:10463000D8E7704714980108D0590108D8590108E3
:104640004C670108F0B583B006460D460F68D7B138
:104650003846FBF755FD84B20334A4B20E4B0093E9
:104660003B460E4A08213046FFF790FE6F683846F9
:104670000CF002FA48B123463A4629683046FFF763
:1046800087FF03B0F0BD0024E6E700232246394649
:104690003046FFF7FDFEF4E710980108E0590108E5
:1046A00010B504468368D3F8803213F0200F07D189
:1046B000A368D3F8803213F0200F06D1002010BD7C
:1046C000044940690CF03EFAF2E7034960690CF0D6
:1046D00039FAF3E7904001089840010808B583686B
:1046E000D3F8803213F0200F00D108BD0249406991
:1046F0000CF028FAF9E700BFA040010808B583686C
:10470000D3F8803213F0200F00D108BD0249406970
:104710000CF018FAF9E700BFA440010810B50446F0
:104720008368D3F8803213F0200F07D1A36850229A
:10473000DA87A36818229A87002010BD02494069D1
:104740000CF000FAF2E700BFA840010808B5836941
:104750001B68034A08210BF078FF002008BD00BF4A
:10476000E859010800B583B002290ED08368D3F858
:10477000803213F0020F14D00B4B0C4A08210BF0BF
:1047800064FF002003B05DF804FB53680193084BFD
:1047900000931368074A01210BF057FF6FF01500D3
:1047A000F0E7054BE9E700BFA0810108205A0108A6
:1047B000085A0108FC590108F859010808B50249CE
:1047C000FFF7D4FA002008BD404E010870B582B052
:1047D0000646154A08210BF038FF144C0023144AF2
:1047E000944210D8124A94421BD25D1CADB2A2680A
:1047F000216A019100920F4A082130460BF025FFF3
:104800002C342B46EBE70C4CF12322460B490C4889
:104810000BF0F3F90B480BF0F0F9F12120460BF007
:10482000E3F9002002B070BD345A0108FC3E0108D3
:10483000FC3E01084C5A0108605A0108905A0108D0
:1048400034410108A85A010870B584B00446002517
:10485000A2680DF10E0302F5B0720121E0680CF0C0
:1048600064FABDF80E3063B16E1CA36803F5B07333
:1048700000932B46064A082120460BF0E6FE3546FB
:10488000E6E7A368002083F8600104B070BD00BFB4
:10489000C85A01082DE9F04383B0054689461646FB
:1048A00000248DF803400C80148080684FF48072DF
:1048B000214600F5B07009F003FC4A4968690CF024
:1048C00041F968690BF0EBFEA046B8F57A7F15D385
:1048D0006FF0730080E04FF47A700EF0E8FD08F19D
:1048E00001081FFA88F8F0E7522B1ED0AA6822446C
:1048F00082F860310134A4B2092C67D86868036873
:104900001F6901AB01220DF10301B847002863DBE9
:10491000019B002BDFD09DF803301B2BE4D0AA684D
:1049200092F860211B2ADFD0E8E7AB68234400221D
:1049300083F86021AB6893F861215B2A15D10222CC
:10494000AB68134493F860113B2914D0338803EB10
:1049500083035B009BB2013292B20B44303B338045
:10496000FF2AEDD96FF0790036E0002283F860214C
:104970006FF0040030E0531C9BB2FF2B2FD8AA68C5
:104980001A4492F8601181B1B9F8002002EB82025A
:10499000520092B201339BB20A44303AA9F8002087
:1049A000FF2BECD96FF0790016E0B9F80030FA2B44
:1049B00002D9FA23A9F800303388FA2B01D9FA2357
:1049C0003380AB68002083F8600105E0AB6800220B
:1049D00083F860216FF00B0003B0BDE8F0836FF047
:1049E0000400F9E71898010810B582B004460129BF
:1049F00004D10CF06BF968B902B010BD5368019393
:104A00000B4B009313680B4A01210BF01EFE6FF055
:104A10001500F1E7A3685022DA87A36818229A8765
:104A2000054A032120460BF010FE6FF00700E3E774
:104A3000085A0108FC590108D45A010810B5044667
:104A40000BF025FE0346034A082120460BF0FDFD2E
:104A5000002010BDBC60010810B50C4B1B78012B69
:104A600004D100F025FD0A4B185810BD094C40F246
:104A70008F332246084909480BF0BFF808480BF06D
:104A8000BCF840F28F3120460BF0AEF8130E002038
:104A900008000000584D0108844D01083441010808
:104AA000984D010880B504460D4616461F4608F08D
:104AB00047F9024600F0FCFC044B1A503A463146D6
:104AC0002846A047FFF7C8FF00F07CFC0800000064
:104AD00008B50348034A121A00210CF056F908BD24
:104AE00020020020140E002008B50648064A121ABB
:104AF00006490CF04EF90648064A121A06490CF00F
:104B000048F908BD00000020200200207CA1010817
:104B100000000020000000207CA1010810B5044620
:104B200083684268016809480BF050F8636922699C
:104B3000E16807480BF04AF8E16906480BF046F8CF
:104B4000A16905480BF042F810BD00BF0C600108D8
:104B50003C6001086C6001087C60010838B50446BF
:104B60000D4611B10846FFF7D9FF012C04D02946A4
:104B7000204604F033FD38BDEFF3058110390248BB
:104B80000BF024F8F3E700BFAC60010830BFFFF77B
:104B9000FDBF00BF38B50446054D2A460549FBF761
:104BA000EDFC054A0021601909F08AFA38BD00BF02
:104BB00000000000544001080800000070B50646DF
:104BC000064D074B1D444C1B2046FFF7E3FF083CF6
:104BD000C6F8AC4005F1080070BD00BF0000000041
:104BE000080000008169104B5A6942F480725A61D2
:104BF000BFF34F8FBFF36F8F31F8021C5A6922F455
:104C000080725A61BFF34F8FBFF36F8F01F47F4300
:104C1000B3F55F4F01D000207047C9B2022901D01F
:104C2000002070470120704700ED00E008B54FF00C
:104C3000000C83F800C0DDF808E08EF800C002F038
:104C40007F4CBCF17F4F11D102F00C0CBCF1080F6E
:104C500004D012F0080F06D0084608BD04480AF038
:104C6000B5FF0020F9E701221A70F6E70020F4E70B
:104C7000C0600108F8B505460F4614462F480AF0F3
:104C8000A5FF2F4B9B6A13F4805F25D116262C4B72
:104C90009B6A13F4006F24D1294B9B6A13F4007FA5
:104CA00024D1274B9B6A13F4806F37D1244B9B6A26
:104CB00013F4807F37D1224B9B6A13F4005F37D106
:104CC0001F4A936A43F47F439362012128460CF004
:104CD00070F820703046F8BD1A480AF077FF1726A2
:104CE000D5E719480AF072FF1826D5E717480AF0E9
:104CF0006DFF134B996B9B6A13F4004F01D119267A
:104D0000CFE713480AF062FF37B10D4A936A23F4E4
:104D1000004393621926C4E71926C2E70D480AF03A
:104D200055FF1A26C2E70C480AF050FF1B26C7E7BA
:104D30000A480AF04BFF1C26C2E700BFEC600108DE
:104D400000ED00E004610108186101082C61010810
:104D500048610108606101087C61010898610108EF
:104D600008B524480AF032FF234B9B6A13F0007FFA
:104D700021D11D20204B9B6A13F0807F20D11E4B38
:104D80009B6A13F4002F20D11B4B9B6A13F4802FD6
:104D900020D1194B9B6A13F4003F20D1164B9B6A1C
:104DA00013F4803F20D1144A936A6FEA03436FEAF9
:104DB0001343936208BD11480AF008FF1E20D9E78B
:104DC0000F480AF003FF1F20D9E70E480AF0FEFE45
:104DD0002120D9E70C480AF0F9FE2220D9E70B4838
:104DE0000AF0F4FE2320D9E709480AF0EFFE242058
:104DF000D9E700BFC861010800ED00E0E4610108E7
:104E0000F861010814620108346201085C6201085B
:104E10007862010808B500230B7002480AF0D6FE3C
:104E200008BD00BFA462010808B50A460F2905DCC9
:104E30000349103A03480AF0C9FE08BD0249F8E7E1
:104E4000CC62010800630108E46201082DE9F04129
:104E500004460F46154649480AF0B8FE484B9B6A7F
:104E600013F0100F3CD11026454B9B6A13F0080F2E
:104E70003BD1434B9B6A13F0020F3BD16FF01508F7
:104E80003F4B9B6A13F0010F50D13D4B9B6A13F0CF
:104E9000200F50D13A4B9B6A13F0100F04D1384BBE
:104EA0009B6A13F0020F04D0354B5B6813F4006F5C
:104EB00046D1334B9B6A13F0200F04D0304A536A1B
:104EC00023F4005353622E4A936A43F0FF03936224
:104ED000012120460BF06DFF28703046BDE8F081BF
:104EE00028480AF073FE1126BEE727480AF06EFE36
:104EF0001226BEE725480AF069FE214BD3F834801C
:104F00009B6A13F0800F03D16FF015081326B7E7E3
:104F100041461F480AF05AFE37B1194A936A23F0F6
:104F2000800393621326ABE71326A9E719480AF01A
:104F30004DFE1426A9E718480AF048FE1526A9E7F1
:104F4000214640460BF06CFFA0B90D4B9B6A13F055
:104F5000100FAED0114C4FF49873224610491148EF
:104F60000AF04BFE10480AF048FE4FF498712046B4
:104F70000AF03AFE80F3098802269AE714630108D2
:104F800000ED00E02C63010818610108606301086E
:104F90007C6301089463010898610108B463010807
:104FA000E8630108344101083464010870B506461D
:104FB0000D4636480AF00AFE00232B70344BDC6A9B
:104FC00014F0020423D1324BDB6A002B25DB304B7B
:104FD000DB6A13F0804F48D02E480AF0F7FD3046C8
:104FE000FFF700FEE8B92A4B9B6A13F0FF0F1ED1B2
:104FF000274B9B6A13F47F4F20D1254B9B6AB3F557
:10500000803F22D33046FFF7ABFE044603E0224840
:105010000AF0DCFD0024204670BD20480AF0D6FDD1
:10502000F9E731681E480AF0D1FD3468F3E72A46F3
:1050300001213046FFF70AFF0446ECE72A4601212A
:105040003046FFF717FE0446E5E7164C40F20333FF
:105050002246154915480AF0D0FD15480AF0CDFD45
:1050600040F2033120460AF0BFFD0E4C40F20633F9
:1050700022460D490D480AF0C0FD0E480AF0BDFD5C
:1050800040F2063120460AF0AFFD00BF5864010827
:1050900000ED00E0A4640108706401089464010854
:1050A000C4640108B4630108088D01083441010893
:1050B000E46401080865010830B58FB0244B5D68D1
:1050C000C5F30805002383F31188BFF36F8F0BAB83
:1050D00000930DF13603FFF7A9FD68B104469DF872
:1050E0002C300DF1370229460BF065FE05469DF880
:1050F00037304BB10FB030BD16480AF067FD0021C4
:105100000846FFF72BFDF5E70DF10C0C20686168F0
:10511000A268E368ACE80F0020696169A269E369ED
:10512000ACE80F009DF836304BB10A9BC3F3080280
:105130004AB96FEA53236FEA43230A9303E00A9BB9
:105140006FF308030A9303A92846FFF707FDD1E789
:1051500000ED00E038650108044B5A6942F0100286
:105160005A615A6922F008025A61704700ED00E066
:10517000EFF30880EFF3098101B57246FFF79CFF5A
:1051800001BD00BF0E4880F30888102080F311880D
:105190000C484FF0AA014FF404620BF0F6FD0948E9
:1051A0004FF40461401880F30988EFF31480022162
:1051B000084380F31488BFF36F8F00F06BF8000092
:1051C00040200020801200201EF0040F0CBFEFF3DF
:1051D0000880EFF30980816911F8021C0229FFD0D1
:1051E00001B572460BF0D9FD01BD00BF002807DBF9
:1051F00000F01F02400901239340024A42F8203088
:10520000704700BF00E100E0002808DB0901C9B2D7
:1052100000F1604000F5614080F80013704700F035
:105220000F000901C9B2014B1954704714ED00E099
:1052300070B505460C4601310F2903D840B2FFF77F
:10524000E3FF70BD084E6B233246084908480AF058
:10525000D4FC0F232A46214606480AF0CEFC6B21D7
:1052600030460AF0C1FC00BF78650108B06501084E
:1052700034410108CC650108044B23F07F03044A44
:105280009360BFF34F8FBFF36F8F7047000000082C
:1052900000ED00E008B5FFF7EFFF0B4AD2F88830C9
:1052A00023F47003C2F88830EFF3148323F004036F
:1052B00083F31488BFF36F8FFFF70AFCFFF714FC2A
:1052C00000F0CCF804F038FB00ED00E0104B9B68D8
:1052D000BBB110F1160F0BD0D3F89C20A2F1400CFB
:1052E000844510D8824210D98A4207D800207047DE
:1052F000D3F89C208A4201D800207047D3F89C0044
:10530000704700207047002070470020704700BFA2
:10531000AC0D002010B4A2F120040E4942F8081C84
:1053200021F0010142F8081C42F8203C019B42F8A0
:105330001C3C029B42F8183C039B42F8143C4FF083
:10534000807342F8043C04650023C0F8B03010BC00
:10535000704700BFA54A000808B50E4615460C4A1E
:105360009060D0F8AC200B4B1A6000F0B5F82C46DA
:1053700086F309880020044B98472046002100222C
:105380000023024C204700002F0E0108A54A000808
:10539000AC0D00200C0B0020014B10221A6170474D
:1053A00000ED00E0054B5A699B689A4204D0044A1C
:1053B000536843F080535360704700BFAC0D00202A
:1053C00000ED00E008B50A4B9B68834202D006F06E
:1053D000EFF808BDEFF30583002BF8D0054B5A68B2
:1053E00042F080525A605A6A22F400425A62EEE752
:1053F000AC0D002000ED00E015498A684FF0300048
:105400001044EFF3098C80E8F01F102080F312881D
:10541000BFF36F8F0F4F4FF000664A698A603E609E
:10542000D2F8AC000C4C2060D2F8B0000023C2F8D7
:10543000B03080F3118804B5104600F04DF8BDE897
:10544000044002F1300090E8F01F8CF309887047A7
:10545000AC0D002004ED00E00C0B0020002206E063
:1054600003F00F030949194410230B7601322F2A48
:105470000ADC53B2002BF3DB03F1604303F5614315
:10548000102183F80013F1E7704700BFFCEC00E047
:1054900008B5EFF30583103B044A02EBC3014968EA
:1054A00052F833008847FFF77DFF08BD103C010824
:1054B00001480068704700000C0B002008B5034B42
:1054C000034A0121034800F0A1F908BD00000220B1
:1054D00000000020E89A010808B5D0F89C30403B55
:1054E0000448036040234360034B8360012100F0C4
:1054F000AFF908BD100B002000000B15084AC2F8D8
:1055000098000B6823F01F03034343F01003C2F815
:105510009C308B6843F00103C2F8A030704700BF95
:1055200000ED00E0084BD3F89030C3F30723013BB4
:10553000984205D810B50446FFF7E0FF204610BD9D
:105540006FF01500704700BF00ED00E010B5034C90
:10555000012322780BF0AFFC207010BD120E00204A
:1055600008B500230B4A12780BF0A5FC10F1160FBA
:105570000FD0024606E0084BC3F898200021C3F87C
:10558000A0100132044BD3F89030C3F307239342A9
:10559000F1DC08BD120E002000ED00E0F0B585B092
:1055A000054603A8FDF7A2F90646002438E0B3F14A
:1055B000007F00F0CC80B3F1805F00F0E580B3F1B4
:1055C000807F2CD1506851F80C109368202B40F24A
:1055D000BA80B3F1004F00F2B880013BB3FA83F315
:1055E000C3F11F035B0003F03E0343F0885343F411
:1055F000801300900191029307E0082343F0885341
:1056000043F4302300900191029369462878FFF714
:1056100089FF0028C0F2D5802B7801332B7001342C
:10562000B44280F0D1804FEA041C039901EB0412CC
:10563000D068030D1B05B3F5000F67D0B7D8B3F5DD
:10564000001F19D0B3F5800F43D0B3F5801FE6D10A
:10565000506851F80C109368202BCED9B3F1004F4D
:1056600008D8013BB3FA83F3C3F11F035B0003F0D7
:105670003E03C3E73E23C1E7576851F80C10936817
:10568000202B22D9B3F1004F21D8013BB3FA83F389
:10569000C3F11F035B0003F03E0343F0885343F460
:1056A000002300970191029310F0010FADD0484CF8
:1056B00095232246474948480AF09FFA47480AF08E
:1056C0009CFA952120460AF08FFA0823E5E73E234D
:1056D000E3E7506851F80C109368202B12D9B3F10E
:1056E000004F11D8013BB3FA83F3C3F11F035B00F2
:1056F00003F03E0343F0C06343F400330090019194
:10570000029382E70823F5E73E23F3E7506851F858
:105710000C109368202B12D9B3F1004F11D8013B24
:10572000B3FA83F3C3F11F035B0003F03E0343F0BE
:10573000885343F4802300900191029365E7082386
:10574000F5E73E23F3E708234FE73E234DE7506894
:1057500051F80C109368202B12D9B3F1004F11D8D7
:10576000013BB3FA83F3C3F11F035B0003F03E0375
:1057700043F0805343F4802300900191029344E767
:105780000823F5E73E23F3E7506851F80C109368BF
:10579000202B12D9B3F1004F11D8013BB3FA83F398
:1057A000C3F11F035B0003F03E0343F0885343F44F
:1057B000003300900191029327E70823F5E73E2389
:1057C000F3E76FF0150000E0002005B0F0BD00BF6A
:1057D0000C6601083C660108344101086466010852
:1057E000044B0522C3F89420BFF34F8FBFF36F8F94
:1057F000704700BF00ED00E0BFF35F8F024B002257
:10580000C3F89420704700BF00ED00E038B50C46A7
:10581000FFF79CFE10F1160F00D038BD084D40F286
:1058200071132A46074908480AF0E7F92146074854
:105830000AF0E3F940F2711128460AF0D5F900BFE9
:105840000C660108088D01083441010894660108BE
:1058500038B50C46FFF784FE10F1160F00D038BDA6
:10586000084D4FF4C8732A46074908480AF0C5F99D
:10587000214607480AF0C1F94FF4C87128460AF0DA
:10588000B3F900BF0C660108088D01083441010816
:10589000C066010838B5394B1D68394BD3F89030D4
:1058A000C3F307239D4203D8FFF7A6FF00241FE0A0
:1058B000344C4FF4F5732246334934480AF09DF9CD
:1058C0002F4BD3F89020C2F30722294630480AF024
:1058D00094F94FF4F57120460AF086F9274B5B687E
:1058E00004EB440103EB81012046FFF707FE01347E
:1058F000A542F3D827480570FFF750FE10F1160FA8
:1059000010D0244B1A781E4BD3F89030C3F30723E2
:105910009A4217DA1A4BC3F898200021C3F8A01056
:105920000132F0E7174C40F22D2322461649174862
:105930000AF063F918480AF060F940F22D21204678
:105940000AF052F9FFF74CFF0D4BD3F8903003F4F7
:105950007F43B3F5006F01D1002038BD094C40F200
:10596000752322460D4909480AF047F90C480AF008
:1059700044F940F2752120460AF036F9F49A0108FC
:1059800000ED00E00C660108088D010834410108B3
:10599000F0660108120E0020246701085067010814
:1059A000A067010870B586B006460D4611466846E8
:1059B0000024009401940294039404940594022218
:1059C0008DF80220044A0192049605951A4609F0C2
:1059D00005FA06B070BD00BF070F010808B5024BFD
:1059E0001B689847002008BD1C0B0020034B186063
:1059F000034A937843F00203937070471C0B002016
:105A00007C01002008B5064921F00701C1F10052D0
:105A100002F500320348FCF7C5F8002008BD00BFBE
:105A2000CB2D0020200B00200268064B1A60426834
:105A3000054B1A608268054B1A600269044B1A60B4
:105A4000704700BF340B0020300B00202C0B0020CF
:105A5000380B002010B50C4B1B78012B04D1FFF73D
:105A600027FD0A4B185810BD094C40F28F332246CF
:105A7000084909480AF0C1F808480AF0BEF840F29F
:105A80008F3120460AF0B0F8130E00200800000005
:105A9000584D0108844D010834410108984D010812
:105AA00038B50546114C04E06368A168284698475C
:105AB0000C340F4B9C4209D80D4B9C4214D22368E6
:105AC000002BF1D02A689342F2D1EDE7094C16235E
:105AD0002246094909480AF090F809480AF08DF869
