:020000040800F2
:1000000040110020C50C0008B73A0008B10C0008E8
:10001000B10C0008B10C0008B10C00080000000091
:10002000000000000000000000000000F90C0008C3
:10003000B10C000800000000D10E0008E91700080C
:10004000650F0008650F0008650F0008650F0008C0
:10005000650F0008650F0008650F0008650F0008B0
:10006000650F0008650F0008650F0008650F0008A0
:10007000650F0008650F0008650F0008650F000890
:10008000650F0008650F0008650F0008650F000880
:10009000650F0008650F0008650F0008650F000870
:1000A000650F0008650F0008650F0008650F000860
:1000B000650F0008650F0008650F0008650F000850
:1000C000650F0008650F0008650F0008650F000840
:1000D000650F0008650F0008650F0008650F000830
:0400E000650F0008A0
:1000E400844641EA000313F003036DD1403A41D33F
:1000F40051F8043B40F8043B51F8043B40F8043BFE
:1001040051F8043B40F8043B51F8043B40F8043BED
:1001140051F8043B40F8043B51F8043B40F8043BDD
:1001240051F8043B40F8043B51F8043B40F8043BCD
:1001340051F8043B40F8043B51F8043B40F8043BBD
:1001440051F8043B40F8043B51F8043B40F8043BAD
:1001540051F8043B40F8043B51F8043B40F8043B9D
:1001640051F8043B40F8043B51F8043B40F8043B8D
:10017400403ABDD2303211D351F8043B40F8043B2D
:1001840051F8043B40F8043B51F8043B40F8043B6D
:1001940051F8043B40F8043B103AEDD20C3205D33D
:1001A40051F8043B40F8043B043AF9D2043208D035
:1001B400D2071CBF11F8013B00F8013B01D30B88A7
:1001C40003806046704700BF082A13D38B078DD085
:1001D40010F003038AD0C3F10403D21ADB071CBF57
:1001E40011F8013B00F8013B80D331F8023B20F8C1
:1001F400023B7BE7043AD9D3013A11F8013B00F8FA
:10020400013BF9D20B7803704B7843708B78837081
:100214006046704753B94AB9002908BF00281CBF7B
:100224004FF0FF314FF0FF3000F00CB8ADF1080C87
:100234006DE904CE00F008F8DDF804E0DDE90223FE
:1002440004B07047704700BF2DE9F0478C468E46D6
:10025400089E154604461946002B40F0D08072458E
:1002640047D9B2FA82F74FB1C7F120030EFA07FC5F
:1002740020FA03F3BD4043EA0C0CBC404FEA154E90
:10028400A8B2BCFBFEF8230C0EFB18CC08FB00F94B
:1002940043EA0C43994528D9EB1808F1FF3204D2FC
:1002A400994502D9A8F102022B44A3EB0903A4B295
:1002B400B3FBFEFC0EFB1C330CFB00F044EA0344CE
:1002C400A04214D92C190CF1FF3304D2A04202D954
:1002D400ACF102032C44241A43EA02401EB1FC4050
:1002E400002334607360BDE8F0874246DDE763466F
:1002F400F1E7002A79D0B2FA82F3002B3FD01946F5
:10030400C1F1200302FA01F52EFA03F20EFA01FEFE
:1003140020FA03F343EA0E034FEA154E00FA01F400
:10032400B2FBFEFCAFB20EFB1C201A0C0CFB07F850
:1003340042EA004290455AD9AA180CF1FF3004D27F
:10034400904502D9ACF102002A44A2EB08029BB208
:10035400B2FBFEFC0EFB1C220CFB07F743EA024334
:100364009F4246D9EB180CF1FF3204D29F4202D9C6
:10037400ACF102022B44DB1B42EA004202E0AEEB8A
:10038400020301224FEA154EAFB2B3FBFEFC200C70
:100394000EFB1C330CFB07F840EA034398452AD9AB
:1003A400EB180CF1FF3004D2984502D9ACF10200ED
:1003B4002B44A3EB0803A4B2B3FBFEFC0EFB1C33DB
:1003C4000CFB07F744EA0344A74216D92C190CF195
:1003D400FF3304D2A74202D9ACF102032C44E41B3C
:1003E40043EA00400F46114678E71F2188E760463C
:1003F400ABE76246BFE76046DBE76346EFE773457A
:1004040006D916B9002108466DE7C6E9000EF9E7DA
:10041400B3FA83F787B9734501D3824207D8841AA4
:100424006EEB030301209C461EB900215BE73846AE
:10043400FAE7C6E9004CF8E7C7F1200CBB4022FA02
:100444000CF51D4320FA0CF12EFA0CF30EFA07FEFC
:1004540041EA0E014FEA154900FA07F4B3FBF9F833
:100464001FFA85FE09FB18300B0C08FB0EFA43EA51
:1004740000439A4502FA07F240D9EB1808F1FF301D
:1004840004D29A4502D9A8F102002B44A3EB0A0333
:1004940089B2B3FBF9F809FB183308FB0EFE41EAF5
:1004A40003418E452CD9691808F1FF3304D28E45D7
:1004B40002D9A8F10203294443EA0040A0FB0298B0
:1004C400A1EB0E014145CE46434602D306D14C452D
:1004D40004D2B9EB020E68EB05030138002EA4D058
:1004E400B4EB0E0261EB030101FA0CFC22FA07F3F0
:1004F4004CEA0303F940C6E9003196E74046C5E7F4
:100504004346D9E710B5134803F0BDFE08B90020EF
:1005140010BD04464FF4D01206210E4803F007F92B
:10052400002808DAF3E70C490C4802F095FB4FF475
:100534007A7003F024F9074883685B69402198477F
:100544000028E4DB84F0010313F0FF04EBD004493A
:10055400EAE700BF884600087048000874480008AD
:100564006C48000808B5024803F093F9002008BD60
:100574008448000808B5024B1B68984708BD00BFB3
:100584000000002000B585B084460A466846002372
:10059400009301930293039302238DF80230044BDA
:1005A4000193614602F0E8FB05B05DF804FB00BF6F
:1005B40079050008034A536843F00203536000209E
:1005C400704700BF002004E008B50B4641680C31B9
:1005D400012B14D00AD833B90F4B9B685B68C3B1A5
:1005E4000D48984707E06FF0850004E0023BDBB25A
:1005F400012B01D8002008BD6FF08500FBE7064BF6
:100604009B681B6813B104489847F4E76FF05700E0
:10061400F1E76FF05700EEE7A845000808B5024976
:1006240003F046F908BD00BFCD050008084B1A6861
:1006340042F480721A601A6842F400721A601A68EE
:1006440042F480621A60034B034A1A60704700BF89
:10065400003C0240240000200024F400014B03600D
:1006640000207047D04E000880B505460E46174658
:10067400984601F0C9FF034600F082FC0446DFF807
:10068400189049F80030424639463046A84754F895
:10069400090000F001FC00BF0800000008B5034891
:1006A400034A121A002103F0F6F908BD5000002095
:1006B4007803002008B50648064A121A064903F0D2
:1006C400EEF90648064A121A064903F0E8F908BD8D
:1006D4000000002050000020444F000800000020CB
:1006E40000000020444F000810B5044683684268A7
:1006F4000168094803F0CDF863692269E168074895
:1007040003F0C7F8E169064803F0C3F8A169054896
:1007140003F0BFF810BD00BF50490008804900082D
:10072400B0490008C049000838B504460D4611B167
:100734000846FFF7D9FF012C04D02946204601F0D2
:1007440005FA38BDEFF305811039024803F0A1F82A
:10075400F3E700BFF049000830BFFFF7FDBF00BF5B
:1007640038B50446054D2A460549FFF7B9FC054A44
:100774000021601902F006FA38BD00BF0000000035
:10078400644800080400000070B50646054D064B99
:100794001D444C1B2046FFF7E3FF083C346705F17A
:1007A400080070BD00000000040000008169104BC7
:1007B4005A6942F480725A61BFF34F8FBFF36F8F4F
:1007C40031F8021C5A6922F480725A61BFF34F8FC8
:1007D400BFF36F8F01F47F43B3F55F4F01D0002067
:1007E4007047C9B2022901D0002070470120704728
:1007F40000ED00E008B54FF0000C83F800C0DDF810
:1008040008E08EF800C002F07F4CBCF17F4F11D19C
:1008140002F00C0CBCF1080F04D012F0080F06D043
:10082400084608BD044803F034F80020F9E7012223
:100834001A70F6E70020F4E7044A0008F8B5054604
:100844000F4614462F4803F024F82F4B9B6A13F4E9
:10085400805F25D116262C4B9B6A13F4006F24D19C
:10086400294B9B6A13F4007F24D1274B9B6A13F412
:10087400806F37D1244B9B6A13F4807F37D1224B8E
:100884009B6A13F4005F37D11F4A936A43F47F4392
:1008940093620121284603F012F920703046F8BD16
:1008A4001A4802F0F6FF1726D5E7194802F0F1FFBF
:1008B4001826D5E7174802F0ECFF134B996B9B6A97
:1008C40013F4004F01D11926CFE7134802F0E1FFDA
:1008D40037B10D4A936A23F4004393621926C4E79F
:1008E4001926C2E70D4802F0D4FF1A26C2E70C48C5
:1008F40002F0CFFF1B26C7E70A4802F0CAFF1C26F6
:10090400C2E700BF304A000800ED00E0484A000892
:100914005C4A0008704A00088C4A0008A44A00088F
:10092400C04A0008DC4A000808B5244802F0B1FFB8
:10093400234B9B6A13F0007F21D11D20204B9B6A1F
:1009440013F0807F20D11E4B9B6A13F4002F20D11B
:100954001B4B9B6A13F4802F20D1194B9B6A13F411
:10096400003F20D1164B9B6A13F4803F20D1144AD8
:10097400936A6FEA03436FEA1343936208BD114815
:1009840002F087FF1E20D9E70F4802F082FF1F20E4
:10099400D9E70E4802F07DFF2120D9E70C4802F088
:1009A40078FF2220D9E70B4802F073FF2320D9E710
:1009B400094802F06EFF2420D9E700BF0C4B000861
:1009C40000ED00E0284B00083C4B0008584B0008A1
:1009D400784B0008A04B0008BC4B000808B5002366
:1009E4000B70024802F055FF08BD00BFE84B000839
:1009F40008B50A460F2905DC0349103A034802F0FA
:100A040048FF08BD0249F8E7104C0008444C0008B0
:100A1400284C00082DE9F04104460F4615463F488E
:100A240002F037FF3E4B9B6A13F0100F3CD11026A7
:100A34003B4B9B6A13F0080F3BD1394B9B6A13F075
:100A4400020F3BD16FF01508354B9B6A13F0010F71
:100A540050D1334B9B6A13F0200F50D1304B9B6A1B
:100A640013F0100F04D12E4B9B6A13F0020F04D025
:100A74002B4B5B6813F4006F46D1294B9B6A13F030
:100A8400200F04D0264A536A23F400535362244AA5
:100A9400936A43F0FF0393620121204603F00FF8A9
:100AA40028703046BDE8F0811E4802F0F2FE11269F
:100AB400BEE71D4802F0EDFE1226BEE71B4802F019
:100AC400E8FE174BD3F834809B6A13F0800F03D1F0
:100AD4006FF015081326B7E74146154802F0D9FE12
:100AE40037B10F4A936A23F0800393621326ABE76E
:100AF4001326A9E70F4802F0CCFE1426A9E70E48F6
:100B040002F0C7FE1526A9E72146404603F014F873
:100B14000028B2D080F309880226AEE7584C0008BA
:100B240000ED00E0704C00085C4A0008A44C00088A
:100B3400C04C0008D84C0008DC4A000870B50646D2
:100B44000D46264802F0A5FE00232B70244BDC6AD8
:100B540014F002040AD1224BDB6A002B0BDB204B7E
:100B6400DC6A14F080440AD1204670BD1D4802F0AE
:100B740090FE0024F8E71C4802F08BFEF4E71B48C3
:100B840002F087FE3046FFF711FE98B9144B9B6ABA
:100B940013F0FF0F14D1124B9C6A14F47F4416D146
:100BA4000F4B9B6AB3F5803FDED33046FFF7BCFEA4
:100BB4000446D9E731680E4802F06BFE3468D3E787
:100BC4002A4601213046FFF725FF0446CCE72A4692
:100BD40001213046FFF732FE0446C5E7F84C000811
:100BE40000ED00E0104D0008344D0008444D0008AD
:100BF400644D000830B58FB0244B5D68C5F308051B
:100C0400002383F31188BFF36F8F0BAB00930DF1B7
:100C14003603FFF7EFFD68B104469DF82C300DF163
:100C24003702294602F04DFF05469DF837304BB197
:100C34000FB030BD164802F02CFE00210846FFF725
:100C440073FDF5E70DF10C0C20686168A268E36898
:100C5400ACE80F0020696169A269E369ACE80F00A0
:100C64009DF836304BB10A9BC3F308024AB96FEAC8
:100C740053236FEA43230A9303E00A9B6FF30803A9
:100C84000A9303A92846FFF74FFDD1E700ED00E0E2
:100C9400844D0008044B5A6942F010025A615A69A3
:100CA40022F008025A61704700ED00E0EFF308807B
:100CB400EFF3098101B57246FFF79CFF01BD00BF48
:100CC4000A4880F30888102080F3118808484FF4FC
:100CD4000461401880F30988EFF31480022108436B
:100CE40080F31488BFF36F8F00F046F840110020A2
:100CF400800300201EF0040F0CBFEFF30880EFF315
:100D04000980816911F8021C0229FFD001B57246DD
:100D140002F0C9FE01BD00BF002807DB00F01F027E
:100D2400400901239340024A42F82030704700BF33
:100D340000E100E0002808DB0901C9B200F16040CD
:100D440000F5614080F80013704700F00F000901BE
:100D5400C9B2014B1954704714ED00E0044B23F061
:100D64007F03044A9360BFF34F8FBFF36F8F7047C5
:100D74000000000800ED00E008B5FFF7EFFF0B4AA4
:100D8400D2F8883023F47003C2F88830EFF3148368
:100D940023F0040383F31488BFF36F8FFFF77EFC03
:100DA400FFF788FC00F0C2F800F0F4FF00ED00E06B
:100DB4000E4B9B68A3B110F1160F0AD01A6EA2F164
:100DC400400C84450ED882420ED98A4206D80020AF
:100DD40070471A6E8A4201D800207047186E704717
:100DE4000020704700207047002070474003002017
:100DF40010B4A2F120040D4942F8081C21F00101AD
:100E040042F8081C42F8203C019B42F81C3C029B1F
:100E140042F8183C039B42F8143C4FF0807342F8AC
:100E2400043C04650023436710BC70476D0600084A
:100E340008B50E4615460B4A9060026F0A4B1A60BD
:100E440000F0B2F82C4686F309880020034B98473B
:100E54002046002100220023014C20474B3B000880
:100E64006D0600084003002090020020014B102270
:100E74001A61704700ED00E0054B5A699B689A427D
:100E840004D0044A536843F080535360704700BF52
:100E94004003002000ED00E008B50A4B9B68834244
:100EA40002D003F065FA08BDEFF30583002BF8D0F8
:100EB400054B5A6842F080525A605A6A22F4004242
:100EC4005A62EEE74003002000ED00E014498A680E
:100ED4004FF030001044EFF3098C80E8F01F10202D
:100EE40080F31288BFF36F8F0E4F4FF000664A698C
:100EF4008A603E60106F0C4C2060506F0023536773
:100F040080F3118804B5104600F04EF8BDE80440A3
:100F140002F1300090E8F01F8CF30988704700005C
:100F24004003002004ED00E090020020002206E0CF
:100F340003F00F030949194410230B760132282AC0
:100F44000ADC53B2002BF3DB03F1604303F5614386
:100F5400102183F80013F1E7704700BFFCEC00E0B8
:100F640008B5EFF30583103B044A02EBC30149685B
:100F740052F833008847FFF77FFF08BDDC460008BE
:100F840001480068704700009002002008B5034B38
:100F9400034A0121034802F043FF08BD0000022078
:100FA40000000020D04E000808B5036E403B054801
:100FB400036040234360044B8360012102F034FF4B
:100FC40008BD00BF9402002000000B15084AC2F8B7
:100FD40098000B6823F01F03034343F01003C2F887
:100FE4009C308B6843F00103C2F8A030704700BF07
:100FF40000ED00E0084BD3F89030C3F30723013B26
:10100400984205D810B50446FFF7E0FF204610BD0E
:101014006FF01500704700BF00ED00E010B5034C01
:101024000123227802F0D3FD207010BD7403002048
:1010340008B500230B4A127802F0C9FD10F1160F0F
:101044000FD0024606E0084BC3F898200021C3F8ED
:10105400A0100132044BD3F89030C3F3072393421A
:10106400F1DC08BD7403002000ED00E0044B052210
:10107400C3F89420BFF34F8FBFF36F8F704700BF47
:1010840000ED00E0BFF35F8F024B0022C3F8942011
:10109400704700BF00ED00E038B51C4B1D681C4BC9
:1010A400D3F89030C3F307239D422BD8FFF7EAFF10
:1010B400002409E0154B5B6804EB440103EB810158
:1010C4002046FFF783FF0134A542F3D81148057089
:1010D40002F0A5FD10F1160F13D00E4B1A780C4B2D
:1010E400D3F89030C3F307239A4207DA084BC3F8C6
:1010F40098200021C3F8A0100132F0E7FFF7B6FFF3
:10110400002038BD4FF0FF30FBE700BFDC4E000885
:1011140000ED00E07403002008B5024B1B689847FB
:10112400002008BDA002002008B5064921F00701EF
:10113400C1F1005202F50032034802F063FB0020C3
:1011440008BD00BF87110020A402002000B583B0B1
:10115400094B93E8030002AB03E90300074B9B68C8
:101164001B682BB169460548984703B05DF804FB3A
:101174006FF05700F9E700BF64480008A84500086D
:1011840000F01F02012393401F2806D8044A526925
:1011940093430CBF0120002070470020704700BF1C
:1011A400003C014000F01F02012393401F2803D894
:1011B400034A5361002070476FF01500704700BF69
:1011C400003C0140002399420ADD10B400EB030CFB
:1011D400044C04F80C2001339942F7DC10BC70472E
:1011E400704700BF14000020F8B50746002401E052
:1011F4000134E4B27B78A34217D93D7866193046AE
:10120400FFF7BEFF0028F3D03046FFF7CBFF074BB4
:1012140053F83620002AEBD006F01F0503EBC60373
:1012240059680120A8409047E2E7F8BDB0020020C9
:101234005FFA81FC0CF102020A4B53F822200B0CDA
:1012440022EA114193FAA3F34BB1B3FA83F3984022
:1012540001430CF1020C034A42F82C10704720237E
:10126400F5E700BF00380140C3B20233074A52F821
:101274002320030C02EA104093FAA3F31BB1B3FA40
:1012840083F3D84070472023FBE700BF00380140B8
:1012940008B5034668B1B0FA80F2C2F11F02D2B2B7
:1012A40005498856054A11680B43136002F033FC64
:1012B40008BDFF22F4E700BF14000020003C0140F9
:1012C400024A136823EA000313607047003C01409C
:1012D400032926D8DFE801F0020C151E114B9A6889
:1012E40022EA00029A60DA6822EA0002DA607047B1
:1012F4000C4B9A6802439A60DA6822EA0002DA60C8
:101304007047084BDA680243DA609A6822EA0002FE
:101314009A607047034B9A6802439A60DA681043F4
:10132400D8607047003C014010B498B1B0FA80F323
:10133400C3F11F03DBB29C460D4850F833008842CA
:101344000AD088B90A4B43F83C1003EBCC035A602B
:1013540010BC7047FF23EEE7054C04EBC3035B6846
:101364009342EED10020F3E76FF00F00F0E700BFE7
:10137400B002002060B1B0FA80F3C3F11F03DBB206
:10138400044A002142F8331002EBC3025160704753
:10139400FF23F5E7B00200200C4B1B6813F0020F8B
:1013A40009D10A4A136843F001031360074B1B6811
:1013B40013F0020FFAD0054A936823F003039360F5
:1013C400024B9B6813F00C0FFAD1704700380240AF
:1013D4000C4B1A6822F480221A601A6842F4803294
:1013E4001A60084B1B6813F4003FFAD0054A536F88
:1013F40043F001035367034B5B6F13F0020FFAD002
:10140400704700BF00380240F8B50C461546434B00
:101414001E680421304602F084FD0746022130464E
:1014240002F07FFD2388C3F30B010B46442929D81E
:1014340009B2002969D0013B432B69D8DFE803F0E6
:101444003D53565A5D3F49686868686868686868CB
:101454006868686860636868686868686868686815
:10146400686868686868686868686868686868352B
:10147400686868356868683768686868686868397B
:101484006868683BA8290DD12E602368B3F5805F96
:1014940041D32A68C3F313330133B2FBF3F22A6056
:1014A400002037E06FF0850034E02E60EDE72E6019
:1014B400EBE72F60E9E72860E7E72E60E5E700F057
:1014C400CBF802234FF4A872082102F023FD286010
:1014D400DBE700F0C1F807234FF4A872082102F0FB
:1014E40019FD2860D1E700232B60CEE74FF4FA43BF
:1014F4002B60CAE700232B60C7E7094B2B60C4E7C6
:101504007F002F60C1E72E60BFE76FF0850001E028
:101514006FF08500F8BD0020FCE700BF2400002028
:1015240000127A0008B51A4B9B6803F00C03082BD1
:1015340025D0174A136823F080731360144B1B687B
:1015440013F0007FFAD1134AD2F8043823F440335D
:10155400C2F80438D2F8043823F0706343F0E0632F
:10156400C2F8043800F07CF8094A136843F0807329
:101574001360074B1B6813F0007FFAD008BDFFF718
:101584000BFF034A936823F0F0039360D1E700BF95
:101594000038024000300240162806D8064BC340EB
:1015A40013F0010F04D0002070476FF085007047DE
:1015B4006FF08500704700BFEA00600038B500F0A6
:1015C40071F8214C204602F029FD00F0EBF91F4B85
:1015D4009B68C3F303131E4AD35C20FA03F5137804
:1015E4001C41A54228D3FFF7F3FEFFF79BFF174AE0
:1015F400936823F0F0039360936823F0030343F0AC
:1016040002039360114B9B6803F00C03082BF9D180
:10161400A54215D20F4B0C4A1A600C4A936823F466
:10162400E05343F4A0539360936823F4604343F47A
:1016340000439360002038BD204600F021FAD2E731
:10164400204600F01DFAE5E7007A030A003802405C
:101654001C4F0008240000200048704700127A0044
:1016640008B502F0DCFC0B4B59680B4A0A4040F405
:10167400A84141F008010A435A605A6822F44032F2
:101684005A605968054A0A40054901430A435A60A9
:1016940008BD00BF003802400080BFFF0080BFF0DB
:1016A4000854000782B0064B1A6C42F080521A6448
:1016B4001B6C03F080530193019B02B0704700BF81
:1016C400003802402DE9F84380460F4616461C4672
:1016D400D0F80490D9F8080002F0FCFBB6F5001F1E
:1016E4000ED00546B6F5800F2AD0B4F1806F0ED027
:1016F400B4F1C06F0DD0B4F1007F24D1022609E00B
:101704003946D9F8080002F051FD002415E00126FD
:1017140000E0032642460F492846FFF705FE04462B
:10172400A0B9D9F80810384602F0D9FB314628464A
:10173400FFF7CEFD2846FFF7ABFD2046BDE8F88352
:101744006FF08504F9E76FF01504F6E76FF00F0406
:10175400F3E700BFED4000084FF0E0239A691969F0
:101764009B6900B103600AB90C4A12680BB90B4BB0
:101774001B6811F4803F01D19A4208D208490A68D3
:101784000648006802440A604FF0E0221269034AE6
:101794001068C31A024A1068184470473C030020BA
:1017A400300300200B4B102283F823200A4B4FF404
:1017B400D2621A60094B44F2A0121A600020084B4E
:1017C40018604FF0E02344F29F125A619861072297
:1017D4001A61704700ED00E0380300203C0300204C
:1017E40030030020684620F007018D4679B5EFF3F9
:1017F4001184102383F31288BFF36F8F0020FFF747
:10180400ABFF14480368144A0026156851685B1935
:1018140041F10001136051600660104D2A68696847
:10182400981A0F4BA3FB0030800B44F2A01300FB6B
:1018340003F3D21841F100012A606960094B1E606C
:10184400214601F02FF9FFF717FBBDE879408546E3
:10185400704700BF300300205800002050000020D3
:101864002D34A9F93403002030B583B0054601A80E
:10187400FFF772FF384B1968384C23686268C31845
:1018840042F10000236060600024354A1460354C46
:10189400226864689A1A60EB040EBEF1000F32DB12
:1018A400314B18680024281844EB04054FEA451C02
:1018B4004CEAD06C43011B1845EB0C0C4FEA8C0C22
:1018C4004CEA937C9B001B1A6CEB050C4FEA8C0CC6
:1018D4004CEA937C9B001B1845EB0C056D0145EA13
:1018E400D3655B019B1A65EB0E05204A12689A4288
:1018F400AC410ADA1A46B3F1807F75F1000504DBC6
:101904006FF07F4201E0194B1A68134B1A604FF0D5
:10191400E0239869013A5A6100229A6103F5506301
:101924004FF000725A60019B83420BD2091A0B4498
:101934000A490A684868D21840F100000A60486001
:1019440003B030BD1B1A05490A684868D21840F133
:1019540000000A604860F3E73C03002058000020C0
:1019640030030020500000203403002038030020FE
:1019740010B5084B1C68084B1B68E41A0020FFF7DD
:10198400EBFE2044054BA3FB0030800B044B186096
:1019940010BD00BF58000020500000202D34A9F9CC
:1019A4003403002008B5334B9B6803F00C03042B6D
:1019B4005BD0082B5BD12F4B5A6802F03F025B6867
:1019C40013F4800F2CD02B4B5868C0F388104FEAC7
:1019D400401CBCEB000C6EEB0E0E4FEA8E1343EA78
:1019E4009C634FEA8C11B1EB0C0163EB0E03DB003B
:1019F40043EA5173C90011EB000C43F1000359028F
:101A040000234FEA4C2041EADC51FEF703FC194B5A
:101A14005B68C3F3014301335B00B0FBF3F008BD23
:101A2400144B5868C0F388104FEA401CBCEB000C00
:101A34006EEB0E0E4FEA8E1343EA9C634FEA8C1151
:101A4400B1EB0C0163EB0E03DB0043EA5173C900F5
:101A540011EB000C43F10003990200234FEA8C20A0
:101A640041EA9C51FEF7D6FBD1E70348D7E7034888
:101A7400D5E700BF0038024000127A000024F400C9
:101A84000246002850D02A4B1B6813F480431DD013
:101A9400284B984204D8284B984212D9002300E0DE
:101AA400052383B125498A4201D903B90323244973
:101AB4008A4200D94BB123498A4207D933B9012359
:101AC40004E00023EEE70423ECE702231849096845
:101AD40011F4804F14D118498A4201D903B904235F
:101AE40016498A4201D903B9032315498A4200D908
:101AF4002BB114498A4203D913B9012300E002230C
:101B040011490A6822F007021A430A6002210E4AA8
:101B1400126802F007020139934201D00029F6D17C
:101B2400934203D001207047012070470020704782
:101B34000070004080D1F008000E2707804A5D0540
:101B44000087930380C3C901003C024038B5EFF31A
:101B54001185102383F31288BFF36F8F054B9C68A4
:101B640002F0A9FB85F31188BFF36F8F2046FFF7BE
:101B740093F938BD4003002010B586B0104C04EB37
:101B8400C01400EB400C00EB80000E4B03EB800311
:101B940000220592012104910F21039102920192E6
:101BA4000093094B4FF4A072084901EBCC11204675
:101BB40000F038F9237C23F00403237406B010BD2D
:101BC4006000002040030020C1420008C00B002038
:101BD40038B505460B4B53F8204002E0236898477C
:101BE40008346B1C074A52F82330A34209D96068B1
:101BF4000028F3D0037E13F0010FF1D102F02AFB89
:101C0400EEE738BD2C4F000808B553EA020102D1B3
:101C140000F044F908BD0249183000F07FFEF9E7EE
:101C2400D344000810B586B0184C14E0636A0593D9
:101C3400236A0493E3690393A36902936369019399
:101C440023690093E368A2686168206800F0EAF8F9
:101C540023685C6530340E4B9C42E7D300F0AAFC49
:101C64000A4C03E02068FFF7CFFF3034084B9C4256
:101C740008D2A26AE36AB3F1FF3F08BFB2F1FF3FA3
:101C8400F3D0EFE700F0AEFC06B010BD2448000826
:101C94002448000810B50D4B01221A700C4C02E0C8
:101CA40054F8043B98470B4B9C42F9D30320FFF7AD
:101CB4008FFF0420FFF78CFFFFF7B4FFFEF722FC31
:101CC400054A938923F00103938110BD7503002015
:101CD4002448000824480008E000002008B5014614
:101CE400014A0248FFF7A4F8991C0008E00000200C
:101CF40010B50446FFF740FF0B4901EBC4110B4A32
:101D040004EB840302EB8303D9601C7404EB4411D9
:101D1400074B03EB811303F5046304EB840402EB28
:101D24008402536010BD00BF600000204003002007
:101D34008003002070B586B000F034FC104D114BC8
:101D44005D61114B059301230493002403940294D1
:101D5400019400940D4B4FF480620D49284600F025
:101D640061F806462B7C23F004032B74284602F00A
:101D740049FB2046FFF7BCFF304606B070BD00BFEC
:101D8400E000002040030020044E0008991C0008D5
:101D9400400D002008B50020FFF71AFF1C4B83F309
:101DA40008881C4C636943F400736361F02384F86E
:101DB40022300023E37723766376A37684F82030F9
:101DC400636A43F4E0236362FEF764FFFFF74EF8AF
:101DD4004FF0FF33A362E362FFF75EF9FFF7D6F833
:101DE4000D4800F04FF8FEF721FC0C4C02E054F8CB
:101DF400043B98470A4B9C42F9D30120FFF7E8FEC5
:101E04000220FFF7E5FEFFF795FFFFF767FF00BF2E
:101E1400C00B002000ED00E0600100202448000811
:101E240024480008F0B585B004460E4615461F4602
:101E340000F158038365C3650E9B04220D9902F0DB
:101E440088FA2A463146204602F068FA05460C9B79
:101E540002930B9B01930A9B00933B460246314637
:101E64002046FEF7C5FF00236365054B9B6823B13D
:101E7400DB6EE366284605B0F0BDE366FAE700BF13
:101E84004003002001230374838100230366436617
:101E9400C366014B986070474003002038B5EFF3E8
:101EA4001185102383F31288BFF36F8F037C13F023
:101EB400040F04D185F31188BFF36F8F38BD044636
:101EC400183000F09DFD237C23F004032374204686
:101ED40000F064F82946024800F086F9EEE700BFF6
:101EE40060030020094A936858676FF00A019967F4
:101EF40007494B6843F080534B60002383F31188F8
:101F0400BFF36F8F9368986F704700BF4003002042
:101F140000ED00E010B5204B9A68DB699A4205D0C9
:101F24001368516812680A60516006E00023F8E7FC
:101F3400194AD269934212D01B6883B1164A906839
:101F440090F90E1093F90E209142F1D0521A002A02
:101F5400EEDD5A68426003601060586008E00E4B82
:101F64009A68D96903F11800106051600A60DA6157
:101F7400094B53F8184F9C420AD04CB1064B9B684E
:101F84009C4202D0204602F0BFFA034B5C6110BDB4
:101F9400014BDC68F2E700BF40030020037C90F9AA
:101FA4001020002A4EDB13F01F0F4BD110B563F045
:101FB4007F030374244A52F8183F93423AD07BB10A
:101FC40090F90E1093F90E20914202D0521A002A71
:101FD40027DC19461C4AD269934201D01B6833BBE3
:101FE400194BDA6903F11801016042601060D8618D
:101FF400154B53F8184F9C421ED0ECB1124B9B6802
:102004001A7C12F01F0F04D1DA897F2A01D9A26940
:10201400AAB1A34202D0204602F076FA0A4B5C61D0
:1020240010BD5A684260036010605860E0E7002900
:10203400C5D1D5E70023C2E7034BDC68DEE7024ADB
:102044005361EDE7704700BF400300202DE9F843DA
:1020540005460C46484B9E68337C13F0600F28D02D
:1020640013F0200F2AD008271F4222D13B43337498
:1020740013F0800F24D1082F2DD04FF000093E4BD0
:1020840053F8188F98455BD0B8F1000F58D03A4BED
:102094009B68434502D0404602F036FA364BC3F8FB
:1020A4001480102F05D0304601F04AFDB9F1000F1D
:1020B4004AD184F31188BFF36F8F56E01027D3E71A
:1020C40003F07F0333747268336813605A6000232B
:1020D40033607360CFE7B368BBB172683368136071
:1020E4005A60002333607360327C22F0020232743F
:1020F400B3600AE084F31188BFF36F8FEFF31184A8
:10210400102383F31288BFF36F8F06F1180000F0D9
:1021140077FC10F10B0FEDD006F1580002F050F9E6
:10212400154B9B689E4202D04FF00009A7E7EFF3DE
:10213400058313B94FF00009A1E74FF001099EE7A9
:102144000D4BD3F80C80A2E70C48FFF79BFEB0E7D9
:10215400EFF31184102383F31288BFF36F8F02F01F
:10216400B8F884F31188BFF36F8F2B7C13F0600FE2
:10217400EED1BDE8F88300BF4003002060010020D9
:1021840010B5037C90F91020002A19DB154B9A68CE
:1021940053F8184F9C421ED0ECB1824208D0137CF5
:1021A40013F01F0F04D1D3897F2B01D9A369ABB1DD
:1021B400A24202D0204602F0A7F90A4B5C6110BD8E
:1021C40003F07F0303744268036813605A600023BA
:1021D40003604360DAE7034BDC68DEE7014B5A61D6
:1021E400EDE700BF40030020084681B908B5EFF3CE
:1021F40005833BB9084B5A699B689A4202D0FFF7A2
:1022040071FE03E080F31188BFF36F8F08BD81F383
:102214001188BFF36F8F70474003002038B505461F
:10222400114B53F8184F9C4217D0B4B10E4B9B6816
:102234001A7C12F01F0F04D1DA897F2A01D9A2690E
:1022440072B1A34202D0204602F05EF9064B5C61F3
:1022540029460648FFF7C8FF38BD034BDC68E5E7AD
:10226400014A5361F4E700BF4003002060030020EB
:1022740038B5EFF31184102383F31288BFF36F8F03
:10228400214B9A68DB699A4205D013685168126839
:102294000A60516006E00023F8E71B4AD2699342C2
:1022A40012D01B6883B1184A906890F90E1093F904
:1022B4000E209142F1D0521A002AEEDD5A68426093
:1022C40003601060586008E00F4B9A68D96903F105
:1022D4001800106051600A60DA610B4B53F8185F04
:1022E4009D420DD065B1084B9B689D4202D02846A3
:1022F40002F00AF9044B5D612046FFF7F3FD38BD97
:10230400014BDD68EFE700BF400300202DE9F041F9
:1023140004460D46164600F1580702F04FF8F8B18E
:10232400237C96B1202213432374EFF3058373B106
:1023340029462046FFF78AFE04F1180000F060FBEE
:1023440010F10B0FF8D0BDE8F0814022EBE73946DD
:102354004E4B986802F071F82846FFF7C3FDEBE78F
:102364006EB30826237C1E4220D13343237413F01A
:10237400800F26D1082E2FD04FF00008434B53F87E
:10238400187F9F425CD0002F5AD0404B9B68BB42C1
:1023940002D0384602F0B8F83C4B5F61102E05D0ED
:1023A400204601F0CDFBB8F1000F4CD1374B9B68B0
:1023B400A3424CD085F31188BFF36F8FC3E7102677
:1023C400D0E703F07F0323746268236813605A60C4
:1023D400002323606360CDE7A368BBB16268236810
:1023E40013605A60002323606360227C22F002029F
:1023F4002274A3600AE085F31188BFF36F8FEFF3B3
:102404001185102383F31288BFF36F8F04F1180032
:1024140000F0F6FA10F10B0FEDD0384601F0D0FFC2
:102424001A4B9B689C4202D04FF00008A6E7EFF3DA
:10243400058313B94FF00008A0E74FF001089DE7AA
:10244400124BDF68A1E71248FFF71CFDAEE7EFF37C
:102454000583002BAED1A38913F0010F12D085F3AD
:102464001188BFF36F8F002383F31188BFF36F8F3D
:102474000423184602DFEFF31185102383F3128837
:10248400BFF36F8F2846FFF72DFD5CE74003002064
:1024940060010020094A936858676FF00A01996740
:1024A40007494B6843F080534B60002383F3118842
:1024B400BFF36F8F9368986F704700BF400300208D
:1024C40000ED00E0F8B551EA000325D005460C46BE
:1024D400EFF31187102383F31288BFF36F8F104E2D
:1024E400B068104B1860FFF74BFEB0682A462346CD
:1024F4000D49183000F012FA0446B268137C43F018
:10250400040313743846FFF7C5FF02F003F8201ADA
:10251400002800DC0020F8BD01F04CFF0020FAE7A1
:102524004003002060030020D344000838B504466B
:102534000D46FFF7C7FF03462046B5F1FF3F08BF2E
:10254400B4F1FF3F28D0DA1713F1090042F1000378
:102554000021C21821D20A441149A1FB024525F0E9
:10256400030404EB9504121B801A63F100034FF07B
:10257400CC3200FB02F201FB0322A0FB01010A445E
:10258400430843EAC27352081846B3F1004F72F18C
:10259400000201D36FF0004038BD0121DBE700BF2A
:1025A400CDCCCCCC024B03F118029A61DA617047AE
:1025B400400300200023EFF31181102282F31288DC
:1025C400BFF36F8F09E0064B9A68D37B013BD3734B
:1025D40081F31188BFF36F8F0123002BF3D0704771
:1025E4004003002008B5EFF31180102383F3128811
:1025F400BFF36F8F034B9A68D37B0133D373FFF719
:102604000DFE08BD40030020014B9868704700BFD1
:10261400400300200346027C12F01F0F10D10B4A26
:1026240090420FD00A4A106878B1DA897F2A0BD811
:1026340093F90E20074B1B689A4206DA0020704774
:102644000020704700207047002070476000002081
:102654002800002068030020044BC01AC010044B5B
:1026640003FB00F0034B01221A547047E0010020E1
:10267400ABAAAAAA6403002070B504460B4B1D7CC8
:1026840005EB45030A4E06EBC306304600F0B8F9E5
:102694001CB9084B00225A5570BD064B5B5DE21A0B
:1026A400D3170549304600F039F9F2E7400300201A
:1026B400E0010020640300205D26000870B5EFF3FC
:1026C4001185102383F31288BFF36F8F174B9C6817
:1026D400174B1B68A34216D02E46154B00221A60D6
:1026E400124B1B7C134AD35C43B12046FFF792FF85
:1026F400054618B1237C13F01F0F0CD086F3118804
:10270400BFF36F8F70BD204601F0FEFE85F3118884
:10271400BFF36F8FF6E7FFF7FDFB044B5B69A34242
:10272400ECD12846FFF7A8FFE8E700BF40030020EC
:10273400600300206403002030B4C0E90223214A6E
:102744001368934217D1002315E0A41A65EB010521
:102754009C60DD605A684260036010605860194AEA
:102764001368934204D0984214BF0020012025E04E
:102774000023F8E70023A3B19C68DD688268C16880
:10278400A24271EB050CE0DB121B61EB05018260D8
:10279400C160002BEFD00B4A52689342EAD01B6809
:1027A400E9E7084A516802604160086050601168B6
:1027B400914205D0884214BF0020012030BC7047EC
:1027C4001946F7E72C00002030B40346114A10687C
:1027D40090421CD0834214BF0020012073B10D4AE3
:1027E40052689A420AD01A6842B19168DC689D68BE
:1027F4004919D56845EB04049160D46059681A6896
:102804000A60516000221A605A6030BC7047002090
:10281400E0E700BF2C0000200B4A1368934209D064
:102824005BB19868DB686FF00042904273F100037B
:1028340006DA70476FF0004070476FF00040704751
:102844006FF00040704700BF2C000020064A136858
:10285400934207D033B19A68D968121A61EBE071D8
:102864009A60D960704700BF2C0000200A4B18689A
:1028740098420CD070B18368C268134309D142688E
:10288400036813605A6000230360436070470020AC
:1028940070470020704700BF2C000020184A1368BE
:1028A400934216D0CBB19A68DB686FF0004188423E
:1028B40021D2B3F1FF3F08BFB2F1FF3F11D06FF057
:1028C40000418A4273F100030DDA904215D2101AC6
:1028D40070474FF0FF321346E7E74FF0FF321346DD
:1028E400E3E7081A7047C0F1FF4000F5FF0000F568
:1028F400FF407E307047002070470020704700BFC3
:102904002C00002008B5044B1B680BB9002008BD3F
:10291400FFF72EF8FBE700BF340000202DE9F84F45
:10292400B3F1FF3F08BFB2F1FF3F0ED0814690469E
:102934001D4601610023EFF3118A102282F31288ED
:10294400BFF36F8F1C461F462CE000242746204609
:102954003946BDE8F88FFFF7D5FF0646021945F161
:10296400000325490968003918BF0121521843F1B1
:10297400000322490C684F68141943EB07074FF012
:10298400010B01E04FF0000B4846FFF7D5FE20B1E4
:10299400194B1B68B3F1FF3F20D08AF31188BFF3B2
:1029A4006F8F0123002BD2D144462F46002DD2DA5B
:1029B400124A13685168E31841EB05016FF00100F6
:1029C400C01A4FF0FF3363EB010102460B460128A6
:1029D40071F10001D6DA01220023D3E7BBF1000F25
:1029E40006D03046FFF75AFF0021FEF73DFFD4E73B
:1029F400FFF788FF0646F4E734000020F8010020C2
:102A0400F8B505460024EFF31186102383F31288EA
:102A1400BFF36F8F6FF0150012E0FFF773FFFFF73E
:102A24003DFF0021FEF720FF38460E4B1B6823F0C4
:102A34000102954210D086F31188BFF36F8F0124F1
:102A4400274674B92B68002BEFD02846FFF7BCFE4D
:102A54000028E2D12046E8E743F00103014A13606D
:102A6400E9E7F8BD6C03002084460023EFF31181ED
:102A7400102282F31288BFF36F8F18460CE04CF0DB
:102A84000103074A1068984214BF0020012081F313
:102A94001188BFF36F8F0123002BF0D0704700BF64
:102AA4006C03002070B50C46234B1860234B0022A6
:102AB4001A6016E01A69224D2B6084F31188BFF363
:102AC4006F8F18469047EFF31184102383F3128815
:102AD400BFF36F8F00232B60FFF7C8FE0346002867
:102AE400E8D1154B1E68AEB1FFF796FE0546B0421D
:102AF40000D935462846FFF7A9FE124A13685168E3
:102B04005B1941EBE571136051600B4A13685B1B61
:102B14001360E1E7094B4FF0FF321A600020FFF722
:102B2400BDFE0021FEF7A0FE84F31188BFF36F8F72
:102B3400FFF7C4FD70BD00BF700300203400002007
:102B44006C030020F801002010B50023EFF311847A
:102B5400102282F31288BFF36F8F184619460CE0D7
:102B6400FFF7D0FE064A13685168C01841F100010E
:102B740084F31188BFF36F8F0123002BF0D010BDB5
:102B8400F801002070B586074FD08418844604E00D
:102B940003F8011B9D0704D09C4664456346F7D1A6
:102BA40070BD013A0244A2EB0C02032A2FD9CCB225
:102BB40004EB04240F2A04EB044438D9A2F11006D0
:102BC400350901359C464FF0000E0EF1010EAE455D
:102BD400CCE90044CCE902440CF1100CF5D326F006
:102BE4000F06103312F00C0F334402F00F051AD005
:102BF4002A1F032A1C6005D9A5F10802032A5C6078
:102C040088BF9C6005F0030225F003052B44541E85
:102C1400002AC5D0C9B21970002CC1D0012C59703A
:102C240018BF997070BD2A46F1E70346BDE7154603
:102C3400DEE700BF71B1034601EB000C01E0634520
:102C440006D01A46013311780029F8D1101A7047BA
:102C5400181A7047084670470FB400B583B004AA29
:102C6400054B52F8041B1868019200F085F803B074
:102C74005DF804EB04B07047FC4E000870B503F037
:102C84001F05082D84468E4665D0C3F13703102DE9
:102C9400DCB2104644D04FEA9C034FEA5C0243EA9C
:102CA4008E7342EACE729A184FEA5E0141EB9E019E
:102CB400130943EA01739A1841EB1111130A43EA09
:102CC40001639A1841EB1121130C43EA01439B1849
:102CD40041EB1141CB185FFA8CF241F100014FEA4C
:102CE400D30C4CEA417C0CEB8C03A2EB4303DBB228
:102CF400A3F10A02D2B2A518092B03F130064FEA58
:102D0400D10E05F1300520D91CF1010C4EF1000E55
:102D1400092A9ABF263300F8013B00F8015BBAE7A1
:102D24000CF00F03092B88BF1B194FEA1C1242EA4F
:102D34000E724FEA1E1188BFDBB2944630330A4349
:102D440000F8013B8E46EBD170BD5CEA0E0300F83F
:102D5400016BA0D170BD10460CF007034FEADC0CE8
:102D64004CEA4E7C30334FEADE0E00F8013B5CEA5D
:102D74000E03F1D170BD00BF2DE9F04F8378D0F878
:102D840004909F078BB040F132810B46804613F8C4
:102D9400010B0C46002800F0D883002500920DE0BA
:102DA4001C464146C847002805F10105C0F21981B7
:102DB400234613F8010B002800F01B812528EFD1CE
:102DC4006678252E04F10204EBD04FF0000BDA46AE
:102DD4005F461F2F5DD97F2F00F28A80A6F1300352
:102DE400092B11D87E0600F1328114F8016B0AEB2D
:102DF4008A0A03EB4A0A47F02007A6F13003002EA3
:102E040000F0E180092BF0D92A2E00F00E812E2E3D
:102E140000F0C381A6F14C032E2B00F22581DFE8DC
:102E240013F0610023012301230123012301230162
:102E3400230123012301230123012301230123016E
:102E4400230123012301230123012301230123015E
:102E540023012301230123012301510123016100E3
:102E640023015D0123012301230123012301230104
:102E74002301CD0023012301230123012301CD00DC
:102E840047F0020714F8016B47F00407002E00F026
:102E94009A80A6F12003102BA0D801A252F823F0A7
:102EA400892E0008E12D0008E12D0008FF2F0008FD
:102EB400E12D0008E12D0008E12D0008C12F0008D4
:102EC400E12D0008E12D0008E12D0008852E000801
:102ED400E12D00081F300008E12D0008E12D000855
:102EE4000F30000814F8016B47F42077002E6AD0E5
:102EF400A6F14C032E2B00F2B78001A252F823F066
:102F0400E92E00086D3000086D3000086D300008AF
:102F14006D3000086D3000086D3000086D30000819
:102F24006D3000086D3000086D3000086D30000809
:102F34006D3000086D3000086D3000086D300008F9
:102F44006D3000086D3000086D3000086D300008E9
:102F54006D3000086D3000086D3000086D300008D9
:102F64006D3000086D3000086D3000086D300008C9
:102F7400C13000086D300008E92E00086D300008EB
:102F8400D93000086D3000086D3000086D3000083D
:102F94006D3000086D3000086D3000086D30000899
:102FA400B53100086D3000086D3000086D30000840
:102FB4006D3000086D300008B531000814F8016B5D
:102FC400002E7FF406AF002641462520C84700287E
:102FD40007DB30464146C847002805F10205BFF625
:102FE400E7AE98F8023043F0040388F802304FF05B
:102FF400FF3528460BB0BDE8F08F14F8016B47F09D
:103004001007002E7FF445AFDDE714F8016B47F09D
:103014000107002E7FF43DAFD5E714F8016B47F0AC
:103024000807002E7FF435AFCDE70099780651F8F4
:10303400042B40F1C38014F8016B002E00F05D8274
:10304400A6F13003092B009193463FF6DDAE14F848
:10305400016B0BEB8B0B03EB4B0B002EB3D0A6F1E8
:103064003003092BF3D9CFE646F02003BBF1000F60
:10307400A3F1650204DA27F04007BFB24FF0000B5A
:10308400022A33D9612B31D0A6F16302122A00F24D
:10309400FC81DFE812F02E01A500FA01FA01FA0121
:1030A400FA01A500FA01FA01FA01FA01FA01F001A4
:1030B4004E01FA01FA013801FA01EF00FE0548BF9A
:1030C40047F4007714F8016B47F48077002E7FF4FF
:1030D4000FAF78E73B0648BF47F4007714F8016B5D
:1030E40047F08007002E7FF403AF6CE7009B03F1E9
:1030F400070B2BF0070B0BF108030093BA4B4FF0AF
:10310400070B3807514618D4D34516D24E461F46EE
:10311400D14602E0834508D2824641462020B0478A
:1031240000280AF1FF30F5DA5BE7494601350D4422
:103134003B46B146A5EB0A0501461E4603EB0B07C9
:1031440001944C4699462B468A4635461E4605E070
:1031540015F8010BA0470028FFF643AFBD424146D6
:10316400F6D14B463246A1462E46D31A019C1E4444
:10317400AAEB0B0A3546B2444E4605E0B047002898
:1031840005F10105FFF62DAFAAEB0503002B41461F
:103194004FF02000F2DCB1460AE67A063FF529AF8B
:1031A40014F8016B47F04007002E7FF458AF0AE78C
:1031B40014F8016B002E7FF40EAE04E7002AC0F26F
:1031C400228114F8016B47F02007002E00F095814E
:1031D400A6F13003092B009192467FF606AE13E662
:1031E4003A06009B00F13B811A46F90552F8043B6C
:1031F400019200F1FD811846DB1727F010018AB215
:10320400002B0092C0F2868150EA030140F05E82F6
:103214007B0640F1D581BBF1000F40F0168227F008
:103224001107BBB2009359465B46DDF800C040F27B
:1032340006470CF008001CEA070F024600F06D82F6
:103244000131002800F0C781AAEB010A0293009B18
:1032540013F0020F14BF2B20202013F4806F18BF2B
:103264002D204146C8470028029B05F1010680F243
:10327400B180B6E627F01007BFB20A2317F0800228
:103284005CD017F40071009A00F0CC80073222F071
:103294000702516852F8080B019207F0400C50EAFB
:1032A4000102CDF800C06CD16246002A54D0BBF1B3
:1032B400000F40F0BB803B0740F1D1815B4604AA7C
:1032C400D618234637464C469346994605E017F8E8
:1032D400010DA0470028FFF684AEBB454146F6D158
:1032E4004B465A46A1462E441C46019B0093B61AEF
:1032F40040E7009A52F8043B8DF810304FF0010B70
:10330400009204ABFDE6009E384A56F8043B002BBD
:1033140008BF134617F0400F18BF5946184608BF98
:103324004FF0FF310193FFF785FC019B0096834624
:10333400E7E647F01007102378269FE7009951F835
:10334400040B019117F48071A7D017F400711ABF10
:10335400C0B2114680B2A0E727F01607BAB20092B5
:10336400002004AA00210292FFF788FC029A831A23
:10337400009911F0080100F09080AAEB030A2E4690
:1033840028E004AA0292FFF779FC029A0099831AB2
:10339400002973D027F0070189B25B450091C0F280
:1033A400D680F90640F13F81009A02F00802002E0F
:1033B40040F0A980591C002A00F02381AAEB010ADD
:1033C400302041460093C8470028009B05F10106C0
:1033D400FFF607AE9B4540F37E810BEB06054F4697
:1033E400ED1A994607E000BF144E00080C4E000881
:1033F400AE4200F0848041463020B847002806F1F0
:103404000106F5DAEDE514F8016BC2F1000A47F0A4
:103414002807002E71D0A6F13003092B00917FF606
:10342400E4ACF1E452F8040B019236E704AA00215B
:1034340000200092FFF722FC009A27F01701831A5C
:1034440089B29B45009140F3EE80002E40F0278125
:10345400390740F18680AAEB0B0A2E46BDE7B80572
:1034640040F1DA80073323F007031A465B6852F809
:10347400080B0192C1E608230026FFE627F00601A7
:1034840089B20091F9068FD472E7782B7FF49CAD52
:10349400C6F1780343F01003F0E60098C00740F14A
:1034A40021819A45AAEB030025DD03EB000B0029DB
:1034B40000F020814FF0000A414630200093C847B5
:1034C4000028FFF68EAD009B002E00F0AA80304647
:1034D40041460093C8470028009B05F10206BFF649
:1034E40079AF7EE50098C70740F10E81D345AAEB7A
:1034F4000B00DADB04AA8246E2E6009163E54B4660
:1035040004AAB946DCE6991C002A00F09180AAEBD3
:10351400010AD1E7404263EB430142F48063009324
:1035240004AA0A230292FFF7A9FB029A831A009ABB
:10353400500640F1C480009A22F0010292B29B45E9
:1035440059460092B8BF19466FE6054651E5002E6C
:1035540040F0908038073FF57EAF27F01707BAB2E6
:103564000092594600268A4540F3D380CDE90234BF
:103574002B464C460D4689461F4602E0524508DA62
:10358400154641462020A047002805F10102F5DA3E
:1035940027E538462F4605464946AAEB020A013577
:1035A400009A6D1A3D44D706A146DDE9023483D45E
:1035B400114640F2064211427FF448AE2E4609E716
:1035C40004AA0A23002100200292FFF757FB029A63
:1035D400811A0B4629E65FEACC77604632D58A45E4
:1035E400AAEB01006DDD03EB000B104682462DE6CD
:1035F400BA054BBF58B218B243F3C01343F3C033F8
:10360400FBE5009AD00756D55145AAEB01025FDAD3
:1036140003EB020BB2464FE753F8040B0193C317B5
:10362400EBE56E1CD6E639076CD5AAEB030A47E630
:10363400009AD20752D55145AAEB010044DB8246D9
:103644009B4639E78A4591DCFEE504AA0A2300205B
:1036540000210292FFF712FB029A831A6BE7BAF178
:10366400000F7FF72BAE27F01707BBB20093594624
:103674005B467BE7FA0640D538070BF102013FF5BC
:1036840046AF8A453FF772AFAAEB010A30204146A4
:103694000093C8470028009BBFF619AFA1E45A461F
:1036A40001F0080081B200283FF41CAFAAEB0B0A1A
:1036B4002E4693468EE65145FFF658AF7EE61946F0
:1036C400B3E59B468246C1E51021EEE6194627E79D
:1036D40092469B46F0E6354604AAF1E55145FFF6CD
:1036E40045AF14E79A45D8BFAAEB030A7FF766AF44
:1036F40019463BE72E468A466CE600995A4601F085
:103704000800CFE719462EE7D34509DA5946934610
:103714002CE7AAEB010A2E465CE65A468B46C1E723
:10372400AAEB0B0A2E46934654E600BF704738B501
:1037340013468568046912F4801F07D012F4402FE1
:1037440004D012F0010F01D082F4402323F480123C
:1037540013F0010F0AD023684FF0010C0CFA01FC9E
:1037640043EA0C0323602B68984738BD23684FF065
:10377400010C0CFA01FC23EA0C032360F3E708B5FF
:1037840020EAE073D9178A0042EA93729800C018BD
:1037940041EB020100184941FEF7C8FE08BD10B50F
:1037A400131D50F8234074B9C36801249440234383
:1037B400C360043240F82210CB001A1D89B2815232
:1037C4000633C15210BDE2000432835A4FEAC10CE1
:1037D4000CF1040E20F80E300CF1060C20F80C400D
:1037E400DB00063389B2C1528152EBE708B500EB26
:1037F400C1035A885208B2FA82F2C2F11F02FFF7DB
:10380400CEFF08BD70B50346043AC81D20F007007A
:103814000A4422F00702121AD508186085600023B2
:10382400C360B5FA85F1C1F1200EC1F1240189000C
:10383400CE1DF10805E003F1040C002440F82C40EF
:1038440001337345F7DB1FFA81FE4FEA4E04A4B23D
:1038540044804FF0000CA0F800C044F00104448000
:103864006B1A26F00704A51C9BB25E00465320F891
:1038740004E022F00704951C20F805C00244035319
:10388400538843F001035380FFF7B0FF70BD00205D
:1038940070470FB400B583B004A951F8040B01912B
:1038A400FCF770FE03B05DF804EB04B0704770479A
:1038B40038B505460C460321A047002806DB012144
:1038C4002846A047002800DB002038BD10F1860FF1
:1038D400FBD1F4E710B4046A91FAA1F39BB1B3FAF3
:1038E40083F39B004FF00F0C0CFA03F324EA030359
:1038F40091FAA1F149B1B1FA81F189008A401343E7
:10390400036210BC70472023EBE72021F5E710B4D5
:10391400446A090A91FAA1F39BB1B3FA83F39B00B9
:103924004FF00F0C0CFA03F324EA030491FAA1F10B
:1039340049B1B1FA81F189008A401443446210BC50
:1039440070472023EBE72021F5E710B4846891FA4F
:10395400A1F39BB1B3FA83F35B004FF0030C0CFAB1
:1039640003F324EA030391FAA1F149B1B1FA81F115
:1039740049008A401343836010BC70472023EBE75F
:103984002021F5E710B4C46891FAA1F39BB1B3FA0E
:1039940083F35B004FF0030C0CFA03F324EA0303F4
:1039A40091FAA1F149B1B1FA81F149008A40134376
:1039B400C36010BC70472023EBE72021F5E708B56E
:1039C400FFF7E0FF08BD10B4046891FAA1F39BB1BE
:1039D400B3FA83F35B004FF0030C0CFA03F324EA0D
:1039E400030391FAA1F149B1B1FA81F149008A4086
:1039F4001343036010BC70472023EBE72021F5E755
:103A0400F8B50F4614464268566801258D4004F403
:103A1400C042B2F5804F16D0B2F5005F29D0C4F38E
:103A2400014229463046FFF790FFC4F381422946FC
:103A34003046FFF7C4FFC4F3413229463046FFF74E
:103A4400C2FF0020F8BDC4F3432207290CD829463D
:103A54003046FFF73FFFC4F3C032736823EA05031F
:103A6400BA4013437360DAE729463046FFF74FFF45
:103A7400F1E7C4F3C031726822EA0502B9400A438F
:103A84007260002BCBD014F4801F01D0B561C6E75F
:103A94002B04B361C3E708B5FFF774F808BD08B594
:103AA400FCF71EFB08BD08B501460068FCF73CFEA8
:103AB40008BD08B5FCF750FEFDF7DEF908BD00208F
:103AC400704708B5944600228CF80020CA1E092AC3
:103AD4001DD8DFE802F0050A0F141C1C1C1C1C175F
:103AE4001A466146FDF72AF814E062460021FCF705
:103AF40091FF0FE062460021FCF7A0FE0AE0FCF70C
:103B040013FF07E06146FCF769FF002002E0FCF7C1
:103B14006FFF002008BD08B540B2FDF7FDF808BDF1
:103B240008B5013140B2FDF705F908BD08B500211B
:103B34000120FCF7F9FD08BD08B5FDF739F908BD0A
:103B44006FF08500704761B662B680F31188BFF3E9
:103B54006F8F704772B6002383F31188BFF36F8FA2
:103B6400BFF34F8F30BF62B6BFF36F8F70474368A8
:103B74005A1E134206D11F2B06D903681A4205D0D8
:103B840000207047002070470020704701207047D4
:103B940000B585B00B6801934B688A68202B12D955
:103BA400B3F1004F11D8013BB3FA83F3C3F11F0300
:103BB4005B0003F03E031343039301A9FDF71AFAD4
:103BC40005B05DF804FB0823F5E73E23F3E72DE990
:103BD400F84380460F4699461646002509E02146DB
:103BE400F0B2FFF7D5FF064610F1160F14D00136D8
:103BF4000135BD4210DA05EB450408EB8404626824
:103C0400002AF5D0B9F1000FE9D02046FFF7AFFF45
:103C14000028E4D16FF015063046BDE8F883F0B50E
:103C240085B0054603A8FCF719FD0646002437E0D5
:103C3400B3F1007F00F0B680B3F1805F00F0CE8076
:103C4400B3F1807F2BD1576809589368202B40F239
:103C5400A580B3F1004F00F2A380013BB3FA83F3D4
:103C6400C3F11F035B0003F03E0343F0885343F4A6
:103C7400801300970191029307E0082343F08853CF
:103C840043F4302300970191029369462878FDF7A5
:103C9400B1F90028C0F2BE802B7801332B700134B7
:103CA400B44280F0BA802001039901EB0412D36876
:103CB4006FF31303B3F5000F54D0B9D8B3F5001F55
:103CC40018D0B3F5800F31D0B3F5801FE7D1576812
:103CD40009589368202BD0D9B3F1004F08D8013B81
:103CE400B3FA83F3C3F11F035B0003F03E03C5E79C
:103CF4003E23C3E7576809589368202B12D9B3F1C0
:103D0400004F11D8013BB3FA83F3C3F11F035B00E7
:103D140003F03E0343F0885343F4002300970191DA
:103D24000293B2E70823F5E73E23F3E757680958FF
:103D34009368202B12D9B3F1004F11D8013BB3FA89
:103D440083F3C3F11F035B0003F03E0343F0C0633E
:103D540043F4003300970191029396E70823F5E7B3
:103D64003E23F3E7576809589368202B12D9B3F11F
:103D7400004F11D8013BB3FA83F3C3F11F035B0077
:103D840003F03E0343F0885343F4802300970191EA
:103D940002937AE70823F5E73E23F3E7082364E771
:103DA4003E2362E7576809589368202B12D9B3F170
:103DB400004F11D8013BB3FA83F3C3F11F035B0037
:103DC40003F03E0343F0805343F4802300970191B2
:103DD40002935AE70823F5E73E23F3E757680958A7
:103DE4009368202B12D9B3F1004F11D8013BB3FAD9
:103DF40083F3C3F11F035B0003F03E0343F08853D6
:103E040043F400330097019102933EE70823F5E75A
:103E14003E23F3E76FF0150000E0002005B0F0BD8D
:103E240008B5FDF7FBF808BD08B5FDF701F908BDB5
:103E340008B5FDF771F9002008BD08B5FDF786F94E
:103E440008BD08B5062201210020FDF7BBF90022B8
:103E540011460620FFF764FE072201210846FDF7FC
:103E6400B1F9002211460720FFF75AFE082201216A
:103E74000220FDF7A7F9002211460820FFF750FEA3
:103E8400092201210320FDF79DF900221146092092
:103E9400FFF746FE0A2201210420FDF793F90022D0
:103EA40011460A20FFF73CFE172205210846FDF7BC
:103EB40089F9002211461720FFF732FE2822062135
:103EC4000A20FDF77FF9002211462820FFF728FE7B
:103ED400002008BD01F01F0101208840704708B58B
:103EE4000246084602F0030304339B000F21994065
:103EF40041EA9201FDF79CF908BD08B500F00303FF
:103F040004339B000F2202FA03F343EA9000FDF707
:103F1400ABF908BDB0FBF1F002FB00F0B0FBF3F02D
:103F24007047B0FBF1F070470B88C3F30B0303F544
:103F34007D62C2F30B02782A15D882B003F1804364
:103F440003F50E334A68186802431A600B88C3F3FA
:103F54000B0303F1804303F50E331B680193019BAC
:103F6400002002B070476FF0850070470B88C3F3E0
:103F74000B0303F57D62C2F30B02782A0AD803F11E
:103F8400804303F50E3349681A6822EA01021A6075
:103F9400002070476FF08500704770B54C68C4F31B
:103FA40004450888C0F30B00FDF7F6FA002815DB7A
:103FB400A6B2FF2C13D006F1804202F50E32C4F3F0
:103FC4004151013101238B40013BAB40240EAC40F5
:103FD400116821EA03031C431460002070BD002013
:103FE400FCE708B50888C0F30B0000F57D63C3F354
:103FF4000B03782B0BD800F1804000F50E300268DB
:104004004B68934301D0012008BD0220FCE7FDF773
:10401400C3FA08B10120F7E70220F5E770474FF42F
:10402400800070470B4639B11168196041688A42B3
:1040340009D00023136070471368036041688A4203
:10404400F7D14360F5E74360F3E708B50A46036830
:10405400002101E019461B682BB19342FAD1FFF706
:10406400E1FF012000E0002008BD70B504460D46C4
:104074001646036833B1FFF7E8FF70B91EB96FF055
:10408400150006E032B123682B602560636843B1F4
:10409400002070BD6FF01500FBE7002EF3D1002067
:1040A400F7E765600020F4E770B50E461546016831
:1040B40021B10C683CB131B90C4604E00C4602E075
:1040C400234621461C4671B18A682A4002D04B68B7
:1040D40030469847002CF3D02368002BF1D0002CF5
:1040E400EFD12346EDE770BD08B5024608690830F4
:1040F400FFF7DAFF08BD00F0300210F400331BD0E4
:1041040010F0020F05D010F0040F22D04FF420431A
:1041140001E04FF4005310F4002F01D043F4801356
:10412400102A10D0202A11D0400A000400F4403094
:1041340003430B600020704710F4803FF0D15AB95C
:104144004FF4C043EEE743F48023EDE743F4002348
:10415400EAE76FF0850070476FF0850070474368A9
:104164005B681B690B600020704743685B68586993
:1041740042400A4042405A610020704743685B68ED
:1041840099610020704743685B68090499610020C5
:10419400704743685B685A69514059610020704711
:1041A40008B500690830FFF760FF08BD38B504465C
:1041B4000D460846FFF7A1FEA04200D038BD2946AF
:1041C4002046FFF787FE0446FDF77AF82046FDF700
:1041D400D1F800212046FDF77BF8EFE72DE9F04305
:1041E40083B005460E461446D0F8108001A9104647
:1041F400FFF781FF074638BB14F440390BD0D8F8D9
:10420400043023FA06F212F0010F04D10122B24065
:104214001343C8F8043014F4402F19D00123019A31
:1042240031462846FFF7ECFBB9F1000F0CD1D8F862
:10423400043023FA06F212F0010F05D00122B24035
:1042440023EA0203C8F80430384603B0BDE8F0831B
:104254000023E4E710B50446436993B19847024646
:1042640030B100280BDBFF2A00DDFF22E3681A705F
:10427400E1684B7843F001034B70504210BD424259
:10428400F1E70022F4E760B1C3685A7812F0010F35
:1042940003D01B781BB10020704700207047012019
:1042A400704700207047EFF31183102383F31288C3
:1042B400BFF36F8FFEE708B5FFF7F5FF08B5EFF31F
:1042C4001183102383F31288BFF36F8FFFF742FC2F
:1042D400F5E700BF70478446D31D23F007037F33FF
:1042E40023F03F03036040314160A3F14002826048
:1042F4003F2B07D8002383F31188BFF36F8F042368
:10430400184602DF6046704710680844704708B5D5
:10431400FCF73AFA073020F0070008BD70B584B006
:1043240004460D4601AE3046FFF7D5FF3246294616
:104334002046FFF7E9FF0546039A01462046FFF7AA
:10434400E6FF029B2366039B6366A066281A04B0FB
:1043540070BD10B400248460838102748173C473BB
:104364008461C46100220023C0E9082310BC7047A3
:1043740010B5838903F00104EFF31181102383F353
:104384001288BFF36F8F037C13F0080F04D081F3FE
:104394001188BFF36F8F10BD0122FDF7B7FF002C0A
:1043A400F9D0002383F31188BFF36F8F04231846D9
:1043B40002DFF0E708B5FDF75BFF08BD002070479A
:1043C40038B505460468844219D0D4B162682368BC
:1043D40013605A60002323606360227C22F002028F
:1043E4002274A360A36704F11800FEF709FB2046BA
:1043F400FDF7D4FD2C68A542E7D10024E5E70024AD
:10440400E3E738BD38B504460023EFF311851022E5
:1044140082F31288BFF36F8F04E085F31188BFF332
:104424006F8F012343B92046FFF7C8FF0028F4D15A
:104434002046FDF7B3FDF0E738BD38B504460D4618
:10444400FDF79EFE237C43F00203237425B3A5608D
:104454002B689D4207D1002305E019466A68934200
:1044640015D01B687BB993B194F90E1093F90E2003
:104474009142F2D0521A002AEFDD5A68626023603A
:1044840014605C6008E00029EDD10B46EBE76B6833
:10449400256063601C606C6038BD08B5037C13F054
:1044A400280F13D183685BB14268036813605A60B4
:1044B400002303604360027C22F0020202748360E2
:1044C400037C23F004030374FDF768FD08BD70B595
:1044D4000446A0F118060023EFF31185102282F39D
:1044E4001288BFF36F8F04E085F31188BFF36F8FD9
:1044F400012343B92046FEF7B7FA0028F4D1304629
:10450400FFF7CBFFF0E770BD08B5FEF783F8FEF7C1
:0C451400B3F808BD08B5FEF717FB08BDA2
:084520002CBDFF7F010000002B
:1045280000000000A8450008B905000800000000C8
:10453800000000008846000800000000A4460008AB
:1045480000000000C0460008000000006C4600089B
:104558000000000050460008000000003446000833
:10456800000000001846000800000000FC45000894
:1045780000000000E045000800000000C4450008F5
:10458800473E000800000000A917000800000000CE
:104598002D11000800000000690500080000000057
:1045A800F44D000800000000484800084C000020B6
:1045B80000000000C115000800000000C048000805
:1045C8001C4E000824480008380000200002002083
:1045D8002106000800000000D0480008304E0008FE
:1045E800244800083A000020100200202106000894
:1045F80000000000E0480008444E00082448000875
:104608003C000020200200202106000800000000D5
:10461800F0480008584E0008244800083E000020D2
:1046280030020020210600080000000000490008B0
:104638006C4E00082448000840000020400200207A
:10464800210600080000000010490008804E0008FC
:1046580024480008420000205002002021060008DB
:104668000000000020490008944E00082448000873
:10467800440000206002002021060008000000001D
:1046880030490008A84E00082448000846000020C9
:1046980070020020210600080000000040490008C0
:1046A800BC4E000824480008480000208002002072
:1046B8002106000800000000D44D0008000000009A
:1046C800000000004A000020000000003F3E0008F3
:0446D80000000000DE
:1046DC0000000000313B000800000000313B0008E6
:1046EC0000000000313B000800000000313B0008D6
:1046FC0000000000313B000800000000313B0008C6
:10470C00184F0008ED110008144F0008ED110008B7
:10471C00104F0008ED1100080C4F0008ED110008B7
:10472C00084F0008ED11000800000000313B0008A4
:10473C0000000000313B000800000000313B000885
:10474C0000000000313B000800000000313B000875
:10475C0000000000313B000800000000313B000865
:10476C0000000000313B000800000000313B000855
:10477C0000000000313B000800000000313B000845
:10478C0000000000313B0008044F0008ED11000848
:10479C0000000000313B000800000000313B000825
:1047AC0000000000313B000800000000313B000815
:1047BC0000000000313B000800000000313B000805
:1047CC0000000000313B000800000000313B0008F5
:1047DC0000000000313B000800000000313B0008E5
:1047EC0000000000313B000800000000313B0008D5
:1047FC0000000000313B000800000000313B0008C5
:10480C0000000000313B000800000000313B0008B4
:08481C00004F0008ED11000837
:10482400E1410008634100086F410008814100082C
:104834008B41000897410008C9160008A5410008EB
:10484400000000002D3F0008713F00080000000038
:104854000D140008E73F0008000000009F3F000817
:1048640044000000004000004F4E00004F46460048
:104874004C45442073746174653A2025730A000022
:104884002A2A2A20426F6F74696E67205A657068FD
:104894007972204F53206275696C642076342E340B
:1048A4002E302D31303834302D6765616134383025
:1048B400393136663434202A2A2A0A006770696F2F
:1048C4004034303032323030300000006770696F6D
:1048D4004034303032316330300000006770696F2B
:1048E4004034303032313830300000006770696F46
:1048F4004034303032313430300000006770696F3A
:104904004034303032313030300000006770696F2D
:104914004034303032306330300000006770696FEB
:104924004034303032303830300000006770696F06
:104934004034303032303430300000006770696FFA
:1049440040343030323030303000000072302F616B
:10495400313A2020307825303878202072312F6188
:10496400323A2020307825303878202072322F6176
:10497400333A20203078253038780A0072332F619A
:10498400343A2020307825303878207231322F693B
:10499400703A2020307825303878207231342F6CEA
:1049A400723A20203078253038780A0020787073E5
:1049B400723A20203078253038780A004661756CC8
:1049C40074696E6720696E737472756374696F6E4F
:1049D400206164647265737320287231352F7063AB
:1049E400293A203078253038780A0000556E6861FD
:1049F4006E646C6564204952516E3A2025640A0045
:104A0400535053454C20696E20746872656164206C
:104A14006D6F646520646F6573206E6F7420696EBA
:104A2400646963617465205053500A002A2A2A2A53
:104A34002A20425553204641554C54202A2A2A2ADA
:104A44002A0A00002020537461636B696E67206535
:104A540072726F720A0000002020556E73746163D5
:104A64006B696E67206572726F720A002020507243
:104A74006563697365206461746120627573206580
:104A840072726F720A000000202042464152204197
:104A94006464726573733A20307825780A000000E4
:104AA4002020496D70726563697365206461746167
:104AB40020627573206572726F720A002020496E3D
:104AC400737472756374696F6E2062757320657296
:104AD400726F720A000000002020466C6F617469D6
:104AE4006E672D706F696E74206C617A79207374AF
:104AF40061746520707265736572766174696F6E36
:104B0400206572726F720A002A2A2A2A2A205553B3
:104B1400414745204641554C54202A2A2A2A2A0A2C
:104B24000000000020204469766973696F6E20627A
:104B340079207A65726F0A002020556E616C69676E
:104B44006E6564206D656D6F727920616363657352
:104B5400730A000020204E6F20636F70726F6365CC
:104B640073736F7220696E737472756374696F6E98
:104B7400730A00002020496C6C6567616C206C6FBF
:104B84006164206F66204558435F52455455524E28
:104B940020696E746F2050430A0000002020496C85
:104BA4006C6567616C20757365206F662074686539
:104BB40020455053520A00002020417474656D70E2
:104BC4007420746F206578656375746520756E64F0
:104BD4006566696E656420696E7374727563746961
:104BE4006F6E0A002A2A2A2A2A20446562756720E1
:104BF4006D6F6E69746F7220657863657074696F28
:104C04006E202A2A2A2A2A0A0000000052657365A7
:104C14007276656420457863657074696F6E2028C8
:104C24000000000053707572696F757320696E74AB
:104C3400657272757074202849525120000000007A
:104C44002A2A2A2A2A20257320256429202A2A2A66
:104C54002A2A0A002A2A2A2A2A204D505520464167
:104C6400554C54202A2A2A2A2A0A00002020537448
:104C740061636B696E67206572726F722028636F5F
:104C84006E746578742061726561206D69676874FB
:104C9400206265206E6F742076616C6964290A0055
:104CA40020204461746120416363657373205669F5
:104CB4006F6C6174696F6E0A0000000020204D4D16
:104CC40046415220416464726573733A20307825FA
:104CD400780A00002020496E737472756374696FDA
:104CE4006E204163636573732056696F6C617469E8
:104CF4006F6E0A002A2A2A2A2A2048415244204652
:104D040041554C54202A2A2A2A2A0A002020427576
:104D140073206661756C74206F6E20766563746FA2
:104D240072207461626C6520726561640A0000001F
:104D340020204465627567206576656E740A0000FC
:104D440020204661756C7420657363616C617469BD
:104D54006F6E20287365652062656C6F77290A0081
:104D6400415243485F45584345505420776974681D
:104D740020726561736F6E2025780A0A00000000B6
:104D840045534620636F756C64206E6F74206265B2
:104D940020726574726965766564207375636365F2
:104DA400737366756C6C792E205368616C6C206E1D
:104DB40065766572206F636375722E0A00000000C9
:104DC400464C4153485F30005352414D5F30000020
:104DD400696E746572727570742D636F6E74726F20
:104DE4006C6C657240343030313363303000000015
:104DF40072636340343030323338303000000000A6
:104E04006D61696E00000000286E756C6C290000ED
:104E14002A666C6F61742A00FFFF000000200240C4
:104E2400080000003000000000010000FFFF000047
:104E3400001C024007000000300000008000000059
:104E4400FFFF0000001802400600000030000000D0
:104E540040000000FFFF00000014024005000000B5
:104E64003000000020000000FFFF0000001002409E
:104E7400040000003000000010000000FFFF0000EC
:104E8400000C024003000000300000000800000095
:104E9400FFFF000000080240020000003000000094
:104EA40004000000FFFF00000004024001000000B5
:104EB4003000000002000000FFFF0000000002407C
:104EC400000000003000000001000000000000208D
:104ED4000000000000000B0602000000E44E000881
:104EE40000000008C44D0008240002060000002051
:104EF400CC4D000820000B11040000200A0600001D
:104F04000505000004010000030100000201000087
:104F1400010100000001000000000000000000008A
:104F2400010203040607080928450008284500086B
:104F34009045000898450008A0450008A8450008C9
:104F44009338000800000000353E0008000000000F
:104F540000000000FFFFFFFFFFFFFFFFFFFFFFFF59
:104F6400FFFFFFFF0024F400C80000002C00002015
:084F74002C000020FFFFFFFFED
:104F7C000000000000000000000000000000000025
:084F8C0000000000000000001D
:044F940015E015E02F
:0400000508000CC51E
:00000001FF
