:020000040800F2
:10000000C0590020DD82000801560108C98200089D
:10001000C9820008C9820008C982000800000000E7
:100020000000000000000000000000001183000834
:10003000C98200080000000031850008F5E00008D2
:10004000C5850008C5850008C5850008C585000868
:10005000C5850008C5850008C5850008C585000858
:10006000C5850008C5850008C5850008C585000848
:10007000C5850008C5850008C5850008C585000838
:10008000C5850008C5850008C5850008C585000828
:10009000C5850008C5850008C5850008C585000818
:1000A000C5850008C5850008C5850008C585000808
:1000B000C5850008C5850008C5850008C5850008F8
:1000C000C5850008C5850008C5850008C5850008E8
:1000D000C5850008C5850008C5850008C5850008D8
:1000E000C5850008C5850008C5850008C5850008C8
:1000F000C5850008C5850008C5850008C5850008B8
:1001000030B490F800F020F007016FF0000C10F010
:10011000070491F820F040F048804FF000046FF0A1
:100120000700D1E9002391F840F000F1080082FABD
:100130004CF2A4FA8CF283FA4CF3A2FA8CF34BBB88
:10014000D1E9022382FA4CF200F10800A4FA8CF201
:1001500083FA4CF3A2FA8CF3E3B9D1E9042382FACF
:100160004CF200F10800A4FA8CF283FA4CF3A2FAE4
:100170008CF37BB9D1E9062301F1200182FA4CF21C
:1001800000F10800A4FA8CF283FA4CF3A2FA8CF383
:10019000002BC6D0002A04BF04301A4612BAB2FAA5
:1001A00082F200EBD20030BC7047D1E9002304F0AA
:1001B0000305C4F100004FEAC50514F0040F91F8DF
:1001C00040F00CFA05F562EA05021CBF63EA05037C
:1001D00062464FF00004AAE7844641EA000313F0A8
:1001E00003036DD1403A41D351F8043B40F8043B3E
:1001F00051F8043B40F8043B51F8043B40F8043B01
:1002000051F8043B40F8043B51F8043B40F8043BF0
:1002100051F8043B40F8043B51F8043B40F8043BE0
:1002200051F8043B40F8043B51F8043B40F8043BD0
:1002300051F8043B40F8043B51F8043B40F8043BC0
:1002400051F8043B40F8043B51F8043B40F8043BB0
:1002500051F8043B40F8043B51F8043B40F8043BA0
:1002600051F8043B40F8043B403ABDD2303211D340
:1002700051F8043B40F8043B51F8043B40F8043B80
:1002800051F8043B40F8043B51F8043B40F8043B70
:10029000103AEDD20C3205D351F8043B40F8043B40
:1002A000043AF9D2043208D0D2071CBF11F8013B3E
:1002B00000F8013B01D30B8803806046704700BF04
:1002C000082A13D38B078DD010F003038AD0C3F113
:1002D0000403D21ADB071CBF11F8013B00F8013BF5
:1002E00080D331F8023B20F8023B7BE7043AD9D3B4
:1002F000013A11F8013B00F8013BF9D20B78037089
:100300004B7843708B7883706046704781F0004172
:1003100002E000BF83F0004330B54FEA41044FEAEA
:10032000430594EA050F08BF90EA020F1FBF54EA85
:10033000000C55EA020C7FEA645C7FEA655C00F021
:10034000E2804FEA5454D4EB5555B8BF6D420CDDF2
:100350002C4480EA020281EA030382EA000083EA75
:10036000010180EA020281EA0303362D88BF30BD15
:1003700011F0004F4FEA01314FF4801C4CEA11316B
:1003800002D0404261EB410113F0004F4FEA0333CA
:100390004CEA133302D0524263EB430394EA050F55
:1003A00000F0A780A4F10104D5F1200E0DDB02FAC4
:1003B0000EFC22FA05F2801841F1000103FA0EF258
:1003C000801843FA05F359410EE0A5F120050EF11E
:1003D000200E012A03FA0EFC28BF4CF0020C43FA4F
:1003E00005F3C01851EBE37101F0004507D54FF05C
:1003F000000EDCF1000C7EEB00006EEB0101B1F5AC
:10040000801F1BD3B1F5001F0CD349085FEA3000F1
:100410004FEA3C0C04F101044FEA445212F5800FFC
:1004200080F09A80BCF1004F08BF5FEA500C50F199
:10043000000041EB045141EA050130BD5FEA4C0C7C
:10044000404141EB0101013C28BFB1F5801FE9D2D9
:1004500091F0000F04BF01460020B1FA81F308BFFC
:100460002033A3F10B03B3F120020CDA0C3208DDC8
:1004700002F1140CC2F10C0201FA0CF021FA02F1A3
:100480000CE002F11402D8BFC2F1200C01FA02F113
:1004900020FA0CFCDCBF41EA0C019040E41AA2BF38
:1004A00001EB0451294330BD6FEA04041F3C1CDA00
:1004B0000C340EDC04F11404C4F1200220FA04F020
:1004C00001FA02F340EA030021FA04F345EA0301CA
:1004D00030BDC4F10C04C4F1200220FA02F001FA8C
:1004E00004F340EA0300294630BD21FA04F029460E
:1004F00030BD94F0000F83F4801306BF81F48011A7
:100500000134013D4EE77FEA645C18BF7FEA655C19
:1005100029D094EA050F08BF90EA020F05D054EAEB
:10052000000C04BF1946104630BD91EA030F1EBFF0
:100530000021002030BD5FEA545C05D140004941F4
:1005400028BF41F0004130BD14F580043CBF01F5E7
:10055000801130BD01F0004545F0FE4141F47001CD
:100560004FF0000030BD7FEA645C1ABF19461046A8
:100570007FEA655C1CBF0B46024650EA013406BFA9
:1005800052EA033591EA030F41F4002130BD00BF68
:1005900090F0000F04BF0021704730B54FF4806425
:1005A00004F132044FF000054FF0000150E700BFA6
:1005B00090F0000F04BF0021704730B54FF4806405
:1005C00004F1320410F0004548BF40424FF00001F2
:1005D0003EE700BF42004FEAE2014FEA31014FEA35
:1005E00002701FBF12F07F4393F07F4F81F0605184
:1005F000704732F07F4208BF704793F07F4F04BFCF
:1006000041F40021704730B54FF4607401F00045AB
:1006100021F000411CE700BF50EA010208BF70470B
:1006200030B54FF000050AE050EA010208BF7047FC
:1006300030B511F0004502D5404261EB41014FF465
:10064000806404F132045FEA915C3FF4D8AE4FF06D
:1006500003025FEADC0C18BF03325FEADC0C18BF50
:10066000033202EBDC02C2F1200300FA03FC20FAA1
:1006700002F001FA03FE40EA0E0021FA02F11444EE
:10068000BDE600BF70B54FF0FF0C4CF4E06C1CEA07
:1006900011541DBF1CEA135594EA0C0F95EA0C0F78
:1006A00000F0DEF82C4481EA030621EA4C5123EAEB
:1006B0004C5350EA013518BF52EA033541F480111A
:1006C00043F4801338D0A0FB02CE4FF00005E1FBCD
:1006D00002E506F00042E0FB03E54FF00006E1FB17
:1006E00003569CF0000F18BF4EF0010EA4F1FF045A
:1006F000B6F5007F64F5407404D25FEA4E0E6D419A
:1007000046EB060642EAC62141EA55514FEAC520AA
:1007100040EA5E504FEACE2EB4F1FD0C88BFBCF526
:10072000E06F1ED8BEF1004F08BF5FEA500E50F1D7
:10073000000041EB045170BD06F0004646EA01019D
:1007400040EA020081EA0301B4EB5C04C2BFD4EBCF
:100750000C0541EA045170BD41F480114FF0000EC8
:10076000013C00F3AB8014F1360FDEBF002001F036
:10077000004170BDC4F10004203C35DA0C341BDCB0
:1007800004F11404C4F1200500FA05F320FA04F082
:1007900001FA05F240EA020001F0004221F00041B6
:1007A00010EBD37021FA04F642EB06015EEA430E29
:1007B00008BF20EAD37070BDC4F10C04C4F1200559
:1007C00000FA04F320FA05F001FA04F240EA02000C
:1007D00001F0004110EBD37041F100015EEA430EDD
:1007E00008BF20EAD37070BDC4F1200500FA05F2FD
:1007F0004EEA020E20FA04F301FA05F243EA02037C
:1008000021FA04F001F0004121FA04F220EA02008A
:1008100000EBD3705EEA430E08BF20EAD37070BDD0
:1008200094F0000F0FD101F00046400041EB0101B0
:1008300011F4801F08BF013CF7D041EA060195F092
:10084000000F18BF704703F00046520043EB03034C
:1008500013F4801F08BF013DF7D043EA0603704739
:1008600094EA0C0F0CEA135518BF95EA0C0F0CD044
:1008700050EA410618BF52EA4306D1D181EA03018A
:1008800001F000414FF0000070BD50EA410606BF84
:100890001046194652EA430619D094EA0C0F02D1C9
:1008A00050EA013613D195EA0C0F05D152EA03360E
:1008B0001CBF104619460AD181EA030101F000412C
:1008C00041F0FE4141F470014FF0000070BD41F075
:1008D000FE4141F4780170BD70B54FF0FF0C4CF44F
:1008E000E06C1CEA11541DBF1CEA135594EA0C0F6E
:1008F00095EA0C0F00F0A7F8A4EB050481EA030EBB
:1009000052EA03354FEA013100F088804FEA0333A1
:100910004FF0805545EA131343EA12634FEA02226F
:1009200045EA111545EA10654FEA00260EF0004130
:100930009D4208BF964244F1FD0404F5407402D282
:100940005B084FEA3202B61A65EB03055B084FEA13
:1009500032024FF480104FF4002CB6EB020E75EB10
:10096000030E22BFB61A754640EA0C005B084FEA38
:100970003202B6EB020E75EB030E22BFB61A7546B5
:1009800040EA5C005B084FEA3202B6EB020E75EB00
:10099000030E22BFB61A754640EA9C005B084FEA78
:1009A0003202B6EB020E75EB030E22BFB61A754685
:1009B00040EADC0055EA060E18D04FEA051545EA74
:1009C00016754FEA06164FEAC30343EA52734FEA1D
:1009D000C2025FEA1C1CC0D111F4801F0BD141EA96
:1009E00000014FF000004FF0004CB6E711F4801FFB
:1009F00004BF01430020B4F1FD0C88BFBCF5E06FDB
:100A00003FF6AFAEB5EB030C04BFB6EB020C5FEAEA
:100A1000500C50F1000041EB045170BD0EF0004E3F
:100A20004EEA113114EB5C04C2BFD4EB0C0541EA71
:100A3000045170BD41F480114FF0000E013C90E66E
:100A400045EA060E8DE60CEA135594EA0C0F08BF32
:100A500095EA0C0F3FF43BAF94EA0C0F0AD150EA31
:100A600001347FF434AF95EA0C0F7FF425AF1046C4
:100A700019462CE795EA0C0F06D152EA03353FF4EC
:100A8000FDAE1046194622E750EA410618BF52EA69
:100A900043067FF4C5AE50EA41047FF40DAF52EA3D
:100AA00043057FF4EBAE12E74FF0FF3C06E000BFDA
:100AB0004FF0010C02E000BF4FF0010C4DF804CDE7
:100AC0004FEA410C7FEA6C5C4FEA430C18BF7FEAA7
:100AD0006C5C1BD001B050EA410C0CBF52EA430CD5
:100AE00091EA030F02BF90EA020F0020704710F155
:100AF000000F91EA030F58BF994208BF90422CBFE4
:100B0000D8176FEAE37040F0010070474FEA410CDC
:100B10007FEA6C5C02D150EA013C07D14FEA430CFA
:100B20007FEA6C5CD6D152EA033CD3D05DF8040B6B
:100B3000704700BF8446104662468C46194663469D
:100B400000E000BF01B5FFF7B7FF002848BF10F174
:100B5000000F01BD4DF808EDFFF7F4FF0CBF0120B9
:100B600000205DF808FB00BF4DF808EDFFF7EAFF35
:100B700034BF012000205DF808FB00BF4DF808EDF0
:100B8000FFF7E0FF94BF012000205DF808FB00BFE5
:100B90004DF808EDFFF7CEFF94BF012000205DF86F
:100BA00008FB00BF4DF808EDFFF7C4FF34BF01207C
:100BB00000205DF808FB00BF4FEA4102B2F1E043BC
:100BC00024BFB3F5001CDCF1FE5C0DD901F0004C34
:100BD0004FEAC0024CEA5070B2F1004F40EB830084
:100BE00008BF20F00100704711F0804F21D113F1B0
:100BF0003872BCBF01F00040704741F480114FEAE9
:100C00005252C2F11802C2F1200C10FA0CF320FA71
:100C100002F018BF40F001004FEAC1234FEAD3238E
:100C200003FA0CFC40EA0C0023FA02F34FEA4303F8
:100C3000CCE77FEA625307D150EA01331EBF4FF081
:100C4000FE4040F44000704701F0004040F0FE409C
:100C500040F40000704700BF80F0004002E000BF99
:100C600081F0004142001FBF5FEA410392EA030F97
:100C70007FEA226C7FEA236C6AD04FEA1262D2EBE1
:100C80001363C1BFD218414048404140B8BF5B42E6
:100C9000192B88BF704710F0004F40F4000020F07F
:100CA0007F4018BF404211F0004F41F4000121F095
:100CB0007F4118BF494292EA030F3FD0A2F10102DF
:100CC00041FA03FC10EB0C00C3F1200301FA03F11D
:100CD00000F0004302D5494260EB4000B0F5000F40
:100CE00013D3B0F1807F06D340084FEA310102F1FF
:100CF0000102FE2A51D2B1F1004F40EBC25008BFB1
:100D000020F0010040EA03007047490040EB00007A
:100D1000013A28BFB0F5000FEDD2B0FA80FCACF17B
:100D2000080CB2EB0C0200FA0CF0AABF00EBC250A8
:100D300052421843BCBFD0401843704792F0000F96
:100D400081F4000106BF80F400000132013BB5E7E9
:100D50004FEA41037FEA226C18BF7FEA236C21D05F
:100D600092EA030F04D092F0000F08BF08467047C4
:100D700090EA010F1CBF0020704712F07F4F04D192
:100D8000400028BF40F00040704712F100723CBFA5
:100D900000F50000704700F0004343F0FE4040F4CF
:100DA000000070477FEA226216BF08467FEA23638D
:100DB0000146420206BF5FEA412390EA010F40F478
:100DC000800070474FF0000304E000BF10F00043C4
:100DD00048BF40425FEA000C08BF704743F09643AB
:100DE00001464FF000001CE050EA010208BF7047C6
:100DF0004FF000030AE000BF50EA010208BF70474D
:100E000011F0004302D5404261EB41015FEA010C61
:100E100002BF84460146002043F0B64308BFA3F159
:100E20008053A3F50003BCFA8CF2083AA3EBC2533B
:100E300010DB01FA02FC634400FA02FCC2F120025A
:100E4000BCF1004F20FA02F243EB020008BF20F091
:100E50000100704702F1200201FA02FCC2F12002F7
:100E600050EA4C0021FA02F243EB020008BF20EAEC
:100E7000DC7070474FF0FF0C1CEAD0521EBF1CEA1A
:100E8000D15392EA0C0F93EA0C0F6FD01A4480EA08
:100E9000010C400218BF5FEA41211ED04FF00063F1
:100EA00043EA501043EA5111A0FB01310CF000401D
:100EB000B1F5000F3EBF490041EAD3715B0040EA43
:100EC000010062F17F02FD2A1DD8B3F1004F40EB13
:100ED000C25008BF20F00100704790F0000F0CF0E6
:100EE000004C08BF49024CEA502040EA51207F3AAA
:100EF000C2BFD2F1FF0340EAC250704740F4000085
:100F00004FF00003013A5DDC12F1190FDCBF00F075
:100F100000407047C2F10002410021FA02F1C2F123
:100F2000200200FA02FC5FEA310040F1000053EABF
:100F30004C0308BF20EADC70704792F0000F00F00D
:100F4000004C02BF400010F4000F013AF9D040EA13
:100F50000C0093F0000F01F0004C02BF490011F4A7
:100F6000000F013BF9D041EA0C018FE70CEAD153A5
:100F700092EA0C0F18BF93EA0C0F0AD030F0004C25
:100F800018BF31F0004CD8D180EA010000F00040D9
:100F9000704790F0000F17BF90F0004F084691F097
:100FA000000F91F0004F14D092EA0C0F01D14202D1
:100FB0000FD193EA0C0F03D14B0218BF084608D19A
:100FC00080EA010000F0004040F0FE4040F40000E4
:100FD000704740F0FE4040F4400070474FF0FF0C77
:100FE0001CEAD0521EBF1CEAD15392EA0C0F93EABE
:100FF0000C0F69D0A2EB030280EA010C49024FEA10
:10100000402037D04FF0805343EA111143EA1013C8
:101010000CF000408B4238BF5B0042F17D024FF480
:10102000000C8B4224BF5B1A40EA0C00B3EB510F5B
:1010300024BFA3EB510340EA5C00B3EB910F24BF44
:10104000A3EB910340EA9C00B3EBD10F24BFA3EBC9
:10105000D10340EADC001B0118BF5FEA1C1CE0D191
:10106000FD2A3FF650AF8B4240EBC25008BF20F044
:10107000010070470CF0004C4CEA50207F32C2BF98
:10108000D2F1FF0340EAC250704740F400004FF035
:101090000003013A37E792F0000F00F0004C02BF66
:1010A000400010F4000F013AF9D040EA0C0093F030
:1010B000000F01F0004C02BF490011F4000F013B8A
:1010C000F9D041EA0C0195E70CEAD15392EA0C0FF2
:1010D00008D142027FF47DAF93EA0C0F7FF470AF2A
:1010E000084676E793EA0C0F04D14B023FF44CAF6D
:1010F00008466EE730F0004C18BF31F0004CCAD102
:1011000030F000427FF45CAF31F000437FF43CAF3D
:101110005FE700BF4FF0FF3C06E000BF4FF0010C5F
:1011200002E000BF4FF0010C4DF804CD4FEA400241
:101130004FEA41037FEA226C18BF7FEA236C11D08B
:1011400001B052EA530C18BF90EA010F58BFB2EB3E
:10115000030088BFC81738BF6FEAE17018BF40F0BE
:10116000010070477FEA226C02D15FEA402C05D172
:101170007FEA236CE4D15FEA412CE1D05DF8040BF7
:10118000704700BF844608466146FFE70FB5FFF78A
:10119000C9FF002848BF10F1000F0FBD4DF808ED42
:1011A000FFF7F4FF0CBF012000205DF808FB00BF33
:1011B0004DF808EDFFF7EAFF34BF012000205DF88D
:1011C00008FB00BF4DF808EDFFF7E0FF94BF0120DA
:1011D00000205DF808FB00BF4DF808EDFFF7D2FFD7
:1011E00094BF012000205DF808FB00BF4DF808ED1A
:1011F000FFF7C8FF34BF012000205DF808FB00BFE7
:101200004FEA4002B2F1FE4F0FD34FF09E03B3EB13
:1012100012620DD94FEA002343F0004310F0004F53
:1012200023FA02F018BF404270474FF000007047A9
:1012300012F1610F01D1420205D110F0004008BF48
:101240006FF0004070474FF00000704742000ED230
:10125000B2F1FE4F0BD34FF09E03B3EB126209D4F1
:101260004FEA002343F0004323FA02F070474FF0A7
:101270000000704712F1610F01D1420202D14FF01C
:10128000FF3070474FF00000704700BF7BB972B964
:101290000029BEBF00204FF0004106E008BF002833
:1012A0001CBF6FF000414FF0FF3000F057B8ADF1B8
:1012B000080C6DE904CE002909DB002B1ADB00F0D5
:1012C0004FF8DDF804E0DDE9022304B07047404246
:1012D00061EB4101002B1BDB00F042F8DDF804E07C
:1012E000DDE9022304B0404261EB4101524263EB6D
:1012F00043037047524263EB430300F031F8DDF8DB
:1013000004E0DDE9022304B0404261EB4101704793
:10131000524263EB430300F023F8DDF804E0DDE91B
:10132000022304B0524263EB4303704753B94AB9F6
:10133000002908BF00281CBF4FF0FF314FF0FF30DD
:1013400000F00CB8ADF1080C6DE904CE00F008F81F
:10135000DDF804E0DDE9022304B07047704700BF08
:101360002DE9F0478C468E46089E154604461946E0
:10137000002B40F0D080724547D9B2FA82F74FB1C6
:10138000C7F120030EFA07FC20FA03F3BD4043EA3D
:101390000C0CBC404FEA154EA8B2BCFBFEF8230C67
:1013A0000EFB18CC08FB00F943EA0C43994528D9F9
:1013B000EB1808F1FF3204D2994502D9A8F10202D4
:1013C0002B44A3EB0903A4B2B3FBFEFC0EFB1C33BE
:1013D0000CFB00F044EA0344A04214D92C190CF190
:1013E000FF3304D2A04202D9ACF102032C44241AE8
:1013F00043EA02401EB1FC40002334607360BDE844
:10140000F0874246DDE76346F1E7002A79D0B2FA79
:1014100082F3002B3FD01946C1F1200302FA01F5F7
:101420002EFA03F20EFA01FE20FA03F343EA0E034A
:101430004FEA154E00FA01F4B2FBFEFCAFB20EFB10
:101440001C201A0C0CFB07F842EA004290455AD9BE
:10145000AA180CF1FF3004D2904502D9ACF1020079
:101460002A44A2EB08029BB2B2FBFEFC0EFB1C223C
:101470000CFB07F743EA02439F4246D9EB180CF1F5
:10148000FF3204D29F4202D9ACF102022B44DB1B93
:1014900042EA004202E0AEEB020301224FEA154E9F
:1014A000AFB2B3FBFEFC200C0EFB1C330CFB07F8A9
:1014B00040EA034398452AD9EB180CF1FF3004D2D7
:1014C000984502D9ACF102002B44A3EB0803A4B267
:1014D000B3FBFEFC0EFB1C330CFB07F744EA034492
:1014E000A74216D92C190CF1FF3304D2A74202D916
:1014F000ACF102032C44E41B43EA00400F461146C2
:1015000078E71F2188E76046ABE76246BFE76046A1
:10151000DBE76346EFE7734506D916B900210846B5
:101520006DE7C6E9000EF9E7B3FA83F787B97345AB
:1015300001D3824207D8841A6EEB030301209C4634
:101540001EB900215BE73846FAE7C6E9004CF8E728
:10155000C7F1200CBB4022FA0CF51D4320FA0CF118
:101560002EFA0CF30EFA07FE41EA0E014FEA154976
:1015700000FA07F4B3FBF9F81FFA85FE09FB1830EF
:101580000B0C08FB0EFA43EA00439A4502FA07F2F5
:1015900040D9EB1808F1FF3004D29A4502D9A8F1DE
:1015A00002002B44A3EB0A0389B2B3FBF9F809FB51
:1015B000183308FB0EFE41EA03418E452CD9691809
:1015C00008F1FF3304D28E4502D9A8F10203294461
:1015D00043EA0040A0FB0298A1EB0E014145CE4634
:1015E000434602D306D14C4504D2B9EB020E68EB58
:1015F00005030138002EA4D0B4EB0E0261EB030109
:1016000001FA0CFC22FA07F34CEA0303F940C6E99D
:10161000003196E74046C5E74346D9E700000000A1
:10162000F0B587B00446284B18686A46032102F0DB
:101630002FF80546002840D1002C3ED00098FEF738
:10164000B7FF06460F460198FEF7B2FF1CA3D3E989
:101650000023FFF741F902460B4630463946FEF7B4
:101660005BFEC4E900010298FEF7A2FF06460F46A2
:101670000398FEF79DFF12A3D3E90023FFF72CF98F
:1016800002460B4630463946FEF746FEC4E90201E3
:101690000498FEF78DFF06460F460598FEF788FF73
:1016A00007A3D3E90023FFF717F902460B4630469C
:1016B0003946FEF731FEC4E90401284607B0F0BD03
:1016C0000000000080842E41E02000200000000087
:1016D0002DE9F04F87B082463F4B18686A460721D4
:1016E00001F0D6FF8346002862D1BAF1000F5FD027
:1016F0000098FEF75DFF04460D460198FEF758FF7F
:101700002DA3D3E90023FFF7E7F802460B46204656
:101710002946FEF701FE80468946CAE900890298FB
:10172000FEF746FF04460D460398FEF741FF22A34D
:10173000D3E90023FFF7D0F802460B46204629469E
:10174000FEF7EAFD06460F46CAE902670498FEF76F
:101750002FFF04460D460598FEF72AFF16A3D3E98E
:101760000023FFF7B9F802460B4620462946FEF74C
:10177000D3FD04460D46CAE9044511A3D3E900236D
:1017800040464946FEF7C8FDCAE900010EA3D3E969
:10179000002330463946FEF7BFFDCAE902010CA31B
:1017A000D3E9002320462946FEF7B6FDCAE9040125
:1017B000584607B0BDE8F08F0000000080842E413D
:1017C000B81E85EB51B8AE3F7B14AE47E17A843F3B
:1017D0007B14AE47E17AA43FE02000200000000027
:1017E0002DE9F04F91B001F095FF0AA800230A936C
:1017F00043608360C3600361436104AC0493059359
:101800000693079308930993FFF70AFF2046FFF713
:101810005FFF15F0B9FF00EB80000618624F3868D3
:10182000301AFEF7B5FE0022604BFFF755F804466C
:101830000D463E60DDE90A6732463B463046394692
:10184000FEF720FF82468B46DDE90E8942464B4675
:1018500040464946FEF716FF02460B46504659469B
:10186000FEF75AFD12F0FCF882468B460022002358
:10187000FFF770F900287AD152465B46DDE90C018A
:10188000FFF72AF800F0F0F843A3D3E90023FEF7AE
:10189000F9FE82468B46304607F1004142464B46F0
:1018A00000F0BAFA3CA3D3E90023FEF7EBFE0646AC
:1018B0000F4600223E4BFFF757F938B100223D4B4F
:1018C0003D49D1E90001FFF76DF980B90022394B9C
:1018D00030463946FFF766F900284DD00022344BD8
:1018E0003549D1E90001FFF73FF9002844D0334BD7
:1018F000C3E90667304BC3E90067CDE90245DDE97E
:101900000423CDE9002352465B462D4812F0EFFC3C
:10191000294BC3E90201DDE90823104623F0004109
:101920001FA3D3E90023FFF71FF918B100220023FA
:10193000CDE90823204ED6E9048922462B46DDE96D
:101940000801FEF79FFE14A3D3E90023FEF79AFED9
:1019500002460B4640464946FEF7DEFCC6E9040156
:10196000184B186800F014FF11B0BDE8F08F4FF06D
:10197000000A4FF0000B8EE7CDE90245DDE90623B2
:10198000CDE9002332463B460C4812F0B0FC0A4B2E
:10199000C3E90001B1E700BFF8C1631ADCA54C4000
:1019A000BA490C022B87863FE420002000408F407C
:1019B000008056C000805640F006002048000020FD
:1019C00000000020AC1000202DE9F04F85B0064645
:1019D0000F461546984602AA02F0E4FB00282FDBCA
:1019E000029CDDF80C90A5FB04AB05FB09BB1AA318
:1019F000D3E9002350465946FFF798FC05464FF0BF
:101A0000FF335345164B73EB0B031CD3A8FB04A405
:101A100008FB094410A3D3E9002350462146FFF7F1
:101A200085FC03464FF0FF3252450D4AA2410DD3CB
:101A3000BDF8382000922A463946304602F0F4FBC1
:101A400005B0BDE8F08F6FF08500F9E76FF0850015
:101A5000F6E700BFAFF3008000CA9A3B0000000029
:101A6000FFC99A3B000000002DE9F04FCA4A21F05F
:101A70000043934285B004460D468A4614D9C74AAE
:101A8000934200F2EB8000F0E680BAF1000F9EA3D3
:101A9000D3E9002340F314819DA1D1E90001FEF7B1
:101AA0003BFC05B0BDE8F08FBD4A934200F2A18037
:101AB000A2F1DE72934240F2D78000220023CDE9EA
:101AC0000223CDE900234FF0FF3B22462B46204660
:101AD0002946FEF7D7FD02460B4680468946FEF7AB
:101AE000D1FD8DA3D3E9002306460F46FEF7CAFDBC
:101AF0008BA3D3E90023FEF70FFC32463B46FEF7EB
:101B0000C1FD89A3D3E90023FEF706FC32463B461C
:101B1000FEF7B8FD86A3D3E90023FEF7FDFB3246AE
:101B20003B46FEF7AFFD84A3D3E90023FEF7F4FBA9
:101B300032463B46FEF7A6FD81A3D3E90023FEF71C
:101B4000EBFB42464B46FEF79DFD7FA3D3E9002306
:101B50008046894630463946FEF794FD7CA3D3E99A
:101B60000023FEF7D7FB32463B46FEF78BFD7AA3F8
:101B7000D3E90023FEF7CEFB32463B46FEF782FD5B
:101B800077A3D3E90023FEF7C5FB32463B46FEF7B9
:101B900079FD75A3D3E90023FEF7BCFB32463B4633
:101BA000FEF770FD02460B4640464946FEF7B4FB81
:101BB00022462B46FEF766FDBBF1FF3F02460B4671
:101BC00000F08680DDE90223FEF7A4FB22462B46C7
:101BD000FEF7A0FB02460B46DDE90001FEF79AFB8B
:101BE000BAF1000F40DA01F10043194605B0BDE833
:101BF000F08F6C4A9342064621F0004737D8A2F591
:101C00005022934200F2D88002463B463946FEF706
:101C100083FB654B0022FEF77DFB002204460D4648
:101C20004FF0804330463946FEF776FB02460B46BE
:101C300020462946FEF750FE4DA4D4E90034CDE9F4
:101C400002344DA3D3E900230446CDE900230D4619
:101C50004FF0000B39E700283FF417AF22462B4620
:101C600020462946FEF758FB05B0BDE8F08F4F4AE5
:101C7000934234D24E4B00223946FEF74BFB4C4B7D
:101C800004460D46002230463946FEF7FBFC464B23
:101C90000022FEF741FB02460B4620462946FEF78E
:101CA0001BFE37A4D4E90034CDE9023436A3D3E9CE
:101CB00000230446CDE900230D464FF0020B04E754
:101CC00033A1D1E90001FEF725FB05B0BDE8F08F97
:101CD00020462946FEF71EFB05B0BDE8F08F024600
:101CE0003B4634490020FEF7F7FD07A4D4E9003451
:101CF000CDE9023406A3D3E900230446CDE900234D
:101D00000D464FF0030BE0E6075C143326A6913C2A
:101D1000182D4454FB21F93F11DA22E33AAD903FEC
:101D2000EB0D76244B7BA93F513DD0A0660DB13F12
:101D30006E204CC5CD45B73FFF8300922449C23F7A
:101D40000D5555555555D53F2F6C6A2C44B4A2BF3F
:101D50009AFDDE522DDEAD3F6D9A74AFF2B0B33F07
:101D6000711623FEC671BC3FC4EB98999999C93F7F
:101D7000E2652F227F2B7A3C4FBB610567ACDD3FCC
:101D8000BDCBF07A8807703C9BF681D20B73EF3F96
:101D9000182D4454FB21F9BFFFFF0F440000F07FD2
:101DA000FFFFDB3FFFFFF23F0000F03F00800340FA
:101DB0000000F83F0000F0BF154B00223946FEF747
:101DC000A9FA134B04460D46002230463946FEF769
:101DD000A3FA02460B4620462946FEF77DFD08A4DD
:101DE000D4E90034CDE9023407A3D3E90023044643
:101DF000CDE900230D464FF0010B66E6AFF30080FE
:101E0000075C143326A6813C182D4454FB21E93F7E
:101E10000000F03F000000002DE9F84F99465342C2
:101E20007F4F134329F0004E4EEAD373BB429046D6
:101E300004460D463ED84642064321F0004A4AEA8F
:101E4000D676BE4203468B4634D809F1404606F5A5
:101E5000801616434FD04FEAA97606F0020653EAE1
:101E60000A0346EAD1762DD052EA0E0237D0BE459B
:101E700054D0BA4533D0AAEB0E0ABAF1747F4FEAB8
:101E80002A5357DB50A3D3E9002351A1D1E9000124
:101E9000FEF742FA012E68D0022E59D086B14EA329
:101EA000D3E90023FEF736FA4DA3D3E90023FEF76A
:101EB00031FA05E022462B4640464946FEF72CFA09
:101EC000BDE8F88F022E1AD0032EF9D146A3D3E92C
:101ED000002347A1D1E90001FEF71CFAF0E7BBF1AE
:101EE000000F41A3D3E9002312DB39A1D1E900019E
:101EF000FEF712FAE4E7BDE8F84FFFF7B5BD3AA3E5
:101F0000D3E9002336A1D1E90001FEF705FAD7E7AE
:101F100039A1D1E90001FEF7FDF9D1E7F24528D05A
:101F2000022EECD0032ED1D0012E4FF0000034D081
:101F30000021C5E7B9F1000F2ADB42464B46204697
:101F40002946FEF7C9FC21F00041FFF78DFDA1E70E
:101F500021A3D3E90023FEF7DDF902460B4620A1B9
:101F6000D1E90001FEF7D6F9AAE701F100431946CD
:101F7000A6E7022E1CA3D3E900231DD0032E15D003
:101F8000012E0DD01EA1D1E90001FEF7C5F997E79A
:101F90003C33D2DA002000217CE74FF000418FE78C
:101FA00019A1D1E90001FEF7B5F989E718A1D1E936
:101FB0000001FEF7AFF983E717A1D1E90001FEF7B1
:101FC000ABF97DE7AFF30080075C143326A6913CA4
:101FD000182D4454FB21F93F075C143326A6A13C7D
:101FE000182D4454FB21094059F3F8C21F6EA50176
:101FF000182D4454FB2109C0182D4454FB21F9BF6E
:10200000182D4454FB21E93F182D4454FB21E9BF0E
:10201000D221337F7CD902C0D221337F7CD90240C8
:102020000000F07F10B520EAE070C317093043F1DB
:1020300000030021C2181BD20A440E4CA4FB021C50
:102040002CF0030101EB9C01521A801A63F100038A
:102050004FF0CC3100FB01F104FB0311A0FB0404A1
:102060002144400840EAC17049080FF069FC10BDE6
:102070000121E1E7CDCCCCCC80B5A4B0FFF7B0FB1B
:1020800001F07CFE02A9134B186812F031FA124BD2
:102090005E68124AB2F900701868FFF7B1F8054699
:1020A00004AC01973046FFF7ABF800902B460C4A82
:1020B0008021204610F018FF2046FEF721F8024646
:1020C0002146084B186812F084F80520FFF7AAFF94
:1020D000D4E700BF042100207821002074210020D3
:1020E000408001085818002000B583B00E4B1868D6
:1020F00012F04DF869460023009301930B4B1868CA
:1021000012F0F6F90198FEF761FE094B186002F033
:1021100029FC084BB3F90010074B186802F0F2F9DC
:102120000120FFF77FFFE1E7D0110020042100200C
:1021300078210020742100202C210020D0B588B007
:1021400002F07CFC00260027CDE9066700240494F9
:1021500002230393029401940094244B4FF40462ED
:10216000234924480EF030F9CDE90667049405238D
:1021700003930294019400941F4B4FF488621F490B
:102180001F480EF021F9CDE9066704940423039358
:102190000294019400941B4B4FF4C8621A491B48E7
:1021A0000EF012F9CDE9066704940A230393029412
:1021B00001940094164B4FF48862164916480EF0AD
:1021C00003F9CDE9066704940B2303930294019469
:1021D0000094124B4FF41072114912480EF0F4F8AB
:1021E000642000210FF0ACFBFAE700BFE9200008F3
:1021F0004037002070060020593C010800330020C1
:10220000F005002079200008C02C00207005002077
:102210004B3C010880280020F00400203F3C0108CE
:10222000402600207004002008B5032836D8DFE8D7
:1022300000F002101E33012906D004292ED11A4BBA
:102240001B680020984729E0174B1B68002098471F
:1022500024E0012906D0042920D1134B1B6801205A
:1022600098471BE0104B1B680120984716E0012996
:1022700008D002290BD0032910D10B4B1B68052075
:1022800098470BE0084B1B680220984706E0064B76
:102290001B680420984701E0012900D008BD024BCB
:1022A0001B6803209847F9E74810002008B502484A
:1022B00002F0B6FA002008BD30030020014B186080
:1022C000704700BF4810002090F82530064AA2FB56
:1022D000031202F0FC0101EB92029B1ADBB2034AEB
:1022E00052F82300704700BFCDCCCCCCA0CB010866
:1022F00008B5054805F0C6FA0448FFF7DFFF044BB0
:1023000001221A70002008BD207B0108B5250008B5
:10231000F925002000B583B00B468DF8042000227B
:102320008DF80520024601A9024813F053F903B0C5
:102330005DF804FB207B01082DE9F0410646384C8E
:102340000021204605F090FA00231A463168204605
:1023500013F040F93469002302E064690133DBB211
:10236000727E9A4201D9002CF7D1304611F0F4FC6C
:102370008046002719E02B4600222A49284813F0FE
:1023800029F925E0204611F06CFC58B32B460E22AB
:102390002549234813F01EF92B46202221682048A6
:1023A00013F018F964690137FFB214B3022F20D873
:1023B0003D01EDB21235EDB2737E3B44DBB2327EAD
:1023C0009A42D8D02B4600221849154813F002F93A
:1023D0002369002BD6D02B460E221549104813F046
:1023E000F9F8D9E72B460E2212490D4813F0F2F8FE
:1023F000D2E7B8F1030F05D9737E2BB9737E03338F
:10240000434507DBBDE8F0815E2212217820FFF70B
:1024100081FFF3E7762232217820FFF77BFFF1E797
:10242000207B01085880010868800108608001084D
:10243000648001086C8001082DE9F04782B0804675
:10244000894617461D4600211046FEF7B1FE40B9E9
:10245000BA465046FEF7D4FE06464FF0000C012463
:1024600007E007F1004AF4E704EB840464000CF190
:10247000010CAC45F8DB3046FEF7A8FC014650469F
:10248000FEF7EEFB82462046FEF7A0FC01465046D2
:10249000FEF7F0FC4FF07C51FEF7E4FBFEF7B0FED8
:1024A0008246844202DC0136A0EB040A0021384651
:1024B000FEF77EFE58B9CDF804A000953346094AD0
:1024C0004946404610F010FD02B0BDE8F087CDF857
:1024D00004A000953346044A4946404610F004FDE6
:1024E000F2E700BF7C80010870800108F8B50C4657
:1024F000154690F8243043B9C26932B11368154AC1
:102500002946204610F0F0FC06E0012B05D02D23D3
:10251000237063700023A370F8BD036A002BF6D00C
:102520001E683046FEF76CFE0746FEF74FFC31464C
:10253000FEF734FE30B13B46064A2946204610F0ED
:10254000D3FCE9E70223324629462046FFF774FF11
:10255000E2E700BF8480010810B4044608460A6020
:102560000B71019B8B60CC6000230B614B610B7680
:102570004B76CB610B6281F82430012281F8252053
:102580008B62CB621B600B6A00221A6034B1236934
:102590004BB11A465B69002BFBD15061044B1B68A1
:1025A0001BB110BC70472161F8E7014B1860F8E7D8
:1025B0006C10002010B5704B1C68002C00F0D3800C
:1025C000052800F2D080DFE810F034000600620039
:1025D0009100B300CA00694B1B781BB1204611F073
:1025E00040FBF8B92369002B00F0BD80204611F0B4
:1025F000B3FB002800F0B780237E013393FBF0F19A
:1026000000FB1133DBB22376627E02329A4201DA9A
:102610009A1E6276627E934200D26376584B012204
:102620001A70A0E0204611F062FB554B01221A708F
:1026300099E0524B1B781BB1204611F012FBE0B918
:102640002369002B00F08F80204611F085FB0028C5
:1026500000F08980237EBBB9421ED3B22376627E0E
:102660009A4200D96376627E02329A4201DA023BD4
:102670006376434B01221A7075E0204611F002FB8D
:102680003F4B01221A706EE0013BDBB2E6E72269A4
:10269000F2B1002302E052690133DBB2217E99429C
:1026A00001D9002AF7D1002A5DD0364B1B68062BD2
:1026B00005DC013333490B60334941F823402E4B8D
:1026C0001A602E4B00221A702D4B01221A704AE01C
:1026D000204611F0C6FA002845D0284A137883F026
:1026E00001031370264B01221A703CE0234B1B7828
:1026F00033B1224B00221A70214B01221A7032E0B2
:10270000204B1B68002B0BDB591E1E4A11601E4A12
:1027100052F82320184B1A60194B01221A7022E03C
:10272000E36803B3144A1360154B01221A701AE0D0
:10273000124B1B78BBB1204611F093FA98B194F874
:1027400025200132114B83FB02135B1003EB830343
:10275000D31A84F825300A4B01221A7003E0204670
:1027600011F07FFA00B910BD204611F0FEFA044BBB
:1027700001221A70F7E700BF6C100020F825002036
:10278000F92500203C0300204C1000206766666697
:1027900018B1044A1268824200D07047024B0122ED
:1027A0001A70FAE76C100020F92500203F4B1B78C7
:1027B000002B7AD03E4B1B68002B76D030B58BB007
:1027C00000213A4B19703B4805F036F8384B186831
:1027D000036933B1FFF7B0FD364804F0CFFF0BB00B
:1027E00030BD8368002B3ED09847314B186811F0FC
:1027F00038FA0028F0D02F4C0021204605F034F89C
:1028000005AD142229462A4B1868FFF76FFE3023C6
:1028100000222946204612F0DDFE274B1B78002BB4
:102820003CD0234B1868FFF74FFD0446FEF7E8FC49
:102830000546FEF7CBFA2146FEF7B0FC08B32B465F
:102840001E4A0C2102A810F04FFB1A4C30233C22E8
:1028500002A9204612F0BEFE302364221849204609
:1028600012F0B8FEB8E7134C0021204604F0FCFF3C
:102870000F4B1968182300220968204612F0AAFE9F
:10288000B3E70223224608216846FFF7D5FD6B46D1
:102890000C4A0C2102A810F027FBD6E7302348226F
:1028A0000949044812F096FE96E77047F925002082
:1028B0006C100020207B0108F8250020888001088A
:1028C0009880010890800108A080010870B582B04E
:1028D000224D002400942346214A29462046FFF732
:1028E0003BFE204E009423461F4A31462846FFF700
:1028F00033FE1E4B009301231D4A1E492846FFF755
:102900002BFE1D4B18601D4B009301231C4A1D49D3
:102910002846FFF721FE1C4B18601C4B0093012337
:102920001B4A1C493046FFF717FE1B4B18601B4D16
:102930001B4B009301231B4A29463046FFF70CFE30
:10294000194BEB6185F82440184AAA624FF47A7259
:10295000EA622C631C60204602B070BD9411002016
:10296000A88001085C110020B0800108792B0008C4
:10297000BC800108EC100020E8100020A52A000807
:10298000C4800108B0100020AC100020ED29000820
:10299000CC80010874100020701000202411002049
:1029A000B1290008D4800108CC11002018FCFFFFD9
:1029B00038B504460B4D0121284604F055FF00238D
:1029C0001A462168284612F005FE0021284604F028
:1029D0004BFFE36923B11868FEF7F8F9024B586022
:1029E00038BD00BF207B01087821002070B58CB075
:1029F0000446264E0121304604F036FF00231A46D5
:102A00002168304612F0E6FD0021304604F02CFF2C
:102A100002A9002502954D60009501951C4B186890
:102A200011F066FD04AC039B1A4A2021204610F0E9
:102A30005BFA14232A462146304612F0CBFD029B56
:102A4000154A2021204610F04FFA14234022214637
:102A5000304612F0BFFD2B46104A2021204610F0D0
:102A600043FA1E232A462146304612F0B3FD2B4678
:102A70000B4A2021204610F037FA1E23402221461F
:102A8000304612F0A7FD0CB070BD00BF207B0108DE
:102A900004210020DC800108E4800108EC800108AA
:102AA000F4800108F0B593B004462F4D012128466B
:102AB00004F0DAFE00231A462168284612F08AFD47
:102AC0000021284604F0D0FE6846002400940194BA
:102AD000029403940494059400F02AFEDDE90001B9
:102AE000FEF76AF802460EAF02231021384600F0C6
:102AF0002DFE06AE3B461D4A2021304610F0F4F96B
:102B0000142322463146284612F064FDDDE9020115
:102B1000FEF752F8024602231021384600F016FE56
:102B20003B46134A2021304610F0DEF914234022A0
:102B30003146284612F04EFDDDE90401FEF73CF86F
:102B4000024602231021384600F000FE3B46094AA7
:102B50002021304610F0C8F91E232246314628466F
:102B600012F038FD13B0F0BD207B0108FC80010895
:102B700008810108108101082DE9F04192B0044656
:102B8000504F0021384604F06FFE00231A4621689A
:102B9000384612F01FFD0026009601960296039615
:102BA000049605966846FEF73BFDDDE90001FEF759
:102BB00003F802460EAD02231021284600F0C6FDA0
:102BC00006AC2B46404A2021204610F08DF90A23FE
:102BD00032462146384612F0FDFCDDE90201FDF7E0
:102BE000EBFF024602231021284600F0AFFD2B46E2
:102BF000364A2021204610F077F90A234022214648
:102C0000384612F0E7FCDDE90401FDF7D5FF024686
:102C100002231021284600F099FD2B462C4A202142
:102C2000204610F061F9142332462146384612F04E
:102C3000D1FC6846FEF74CFDDDE90001FDF7BCFF65
:102C4000024602231021284600F080FD2B46214A2F
:102C50002021204610F048F914234022214638460E
:102C600012F0B8FCDDE90201FDF7A6FF02460223DF
:102C70001021284600F06AFD2B46174A20212046E5
:102C800010F032F91E2332462146384612F0A2FCDB
:102C9000DDE90401FDF790FF0246022310212846DA
:102CA00000F054FD2B460D4A2021204610F01CF95F
:102CB0001E2340222146384612F08CFC12B0BDE89B
:102CC000F08100BF207B01081881010820810108E4
:102CD00028810108308101083881010840810108FC
:102CE000034668B179B1106880B1906888B15960C5
:102CF0009A600020187398735873074A1A607047D7
:102D00004FF0FF3070474FF0FF3070474FF0FF300B
:102D100070474FF0FF307047E0D3010808B5064A0E
:102D200006490748FFF7DCFF18B9064B044A1A604A
:102D300008BD4FF0FF30FBE710D40108D41100208C
:102D400030180020D011002010B5094C0022114687
:102D5000206811F0F8F914220121206811F0F3F92C
:102D60000A220221206811F0EEF9002010BD00BFF8
:102D7000D011002010B558B102468368154883422F
:102D800016D21548834213D35B691046984710BD8D
:102D9000124C40F24C6322461149124811F00FFDCB
:102DA000114811F00CFD40F24C61204611F0FEFC80
:102DB0000A4C40F24C6322460C490A4811F0FFFCD1
:102DC0000B490C4811F0FBFC40F24C61204611F01D
:102DD000EDFC00BFAC7D0108887D01084881010839
:102DE0007C81010890810108B0810108C48101083B
:102DF000048301080C83010810B543681A68012395
:102E000003FA01F10A4202D0FFF7B4FF10BD084CEB
:102E100040F24D7322460749074811F0D0FC07489D
:102E200011F0CDFC40F24D71204611F0BFFC00BF07
:102E30004881010824830108908101086483010806
:102E4000C2788B1F9A4248D100B583B000231A463E
:102E50009E4608E010F803C0F4445FFA8CFE72440A
:102E6000D2B20133DBB2A1F1020C6345F2DB10F800
:102E70000C30734518D10139435C934214D18378E7
:102E800073B9ADF804308DF80630037963B943792E
:102E900053B9837943B9114B186811F089F903E0EC
:102EA000E02B04D0032B13D003B05DF804FB01A981
:102EB0000023ADF804308B7083788DF804308DF8E2
:102EC00005E08DF80620054B186811F02BF9EBE7AB
:102ED00008210348FFF790FFE6E77047D011002074
:102EE000407A010870B588B00C46154601281AD002
:102EF00002281ED0A8B902AE0023ADF808308DF824
:102F00000A303146214B186811F030F92378EA185D
:102F1000BDF808009DF80A10E85291702378033339
:102F2000237008B070BD0B785A1C0A700122EA5455
:102F3000F7E702A800F0FCFB2378EA18039902984F
:102F4000E85051602378083323706946104B1868A5
:102F500011F0CEFA2378019AEA50237804332370D3
:102F600069460C4B186811F0C3FA2378019AEA50AD
:102F70002278131DDBB22370053222700D22EA5431
:102F800023785A1C22700A22EA54CAE7D011002082
:102F900004210020E820002008B50A460146024B23
:102FA000186811F016F908BD5818002010B550B176
:102FB000836815498B4216D214498B4213D31B6C7C
:102FC00003B1984710BD124C40F25B1322461149E1
:102FD000114811F0F4FB114811F0F1FB40F25B11C4
:102FE000204611F0E3FB0A4C40F25B1322460C49E9
:102FF000094811F0E4FB0B490B4811F0E0FB40F2EB
:103000005B11204611F0D2FBC87E0108647E0108E6
:1030100078830108B883010890810108B081010814
:10302000CC830108FC9701080C83010810B550B14E
:10303000836815498B4216D214498B4213D35B6BBC
:1030400003B1984710BD124C40F23113224611498A
:10305000114811F0B4FB114811F0B1FB40F23111ED
:10306000204611F0A3FB0A4C40F2311322460C49D2
:10307000094811F0A4FB0B490B4811F0A0FB40F2EA
:103080003111204611F092FBC87E0108647E0108D0
:1030900078830108B883010890810108B081010894
:1030A000CC830108FC9701080C83010810B550B1CE
:1030B000836815498B4216D214498B4213D3DB6DBA
:1030C00003B1984710BD124C4FF4DE7322461149EC
:1030D000114811F074FB114811F071FB4FF4DE71CF
:1030E000204611F063FB0A4C4FF4DE7322460C4974
:1030F000094811F064FB0B490B4811F060FB4FF4D9
:10310000DE71204611F052FBC87E0108647E010882
:1031100078830108B883010890810108B081010813
:10312000CC830108FC9701080C83010810B550B14D
:10313000836817498B4216D216498B4213D3DB6B37
:1031400013B3984710BD144C40F24B132246134959
:10315000134811F034FB134811F031FB40F24B11CE
:10316000204611F023FB0C4C40F24B1322460E4933
:103170000B4811F024FB0D490D4811F020FB40F2E3
:103180004B11204611F012FB6FF05700DAE700BF39
:10319000C87E0108647E010878830108B8830108AD
:1031A00090810108B0810108CC830108FC970108D7
:1031B0000C83010810B560B18446836815488342CA
:1031C00015D21548834212D3DB6AFBB1604698479B
:1031D00010BD124CE92322461149124811F0EFFAB2
:1031E000114811F0ECFAE921204611F0DFFA0B4CFE
:1031F000E92322460D490B4811F0E1FA0C490D482C
:1032000011F0DDFAE921204611F0D0FA6FF05700F5
:10321000DEE700BFC87E0108647E010878830108EC
:10322000B883010890810108B0810108CC830108AE
:10323000FC9701080C83010810B550B1836815494B
:103240008B4216D214498B4213D39B6B03B1984720
:1032500010BD124C4FF49F7322461149114811F0D2
:10326000AEFA114811F0ABFA4FF49F71204611F0FD
:103270009DFA0A4C4FF49F7322460C49094811F0FD
:103280009EFA0B490B4811F09AFA4FF49F712046B1
:1032900011F08CFAC87E0108647E01087883010869
:1032A000B883010890810108B0810108CC8301082E
:1032B000FC9701080C83010810B550B183681749C9
:1032C0008B4216D216498B4213D3DB6C13B398474B
:1032D00010BD144C4FF4C27322461349134811F029
:1032E0006EFA134811F06BFA4FF4C271204611F0D8
:1032F0005DFA0C4C4FF4C27322460E490B4811F094
:103300005EFA0D490D4811F05AFA4FF4C271204689
:1033100011F04CFA6FF05700DAE700BFC87E0108E1
:10332000647E010878830108B88301089081010850
:10333000B0810108CC830108FC9701080C830108C7
:1033400010B560B1844683681748834217D2174886
:10335000834214D31B6B1BB36046984710BD144CBB
:1033600040F20D1322461349134811F028FA13486E
:1033700011F025FA40F20D11204611F017FA0C4C0D
:1033800040F20D1322460E490B4811F018FA0D4970
:103390000D4811F014FA40F20D11204611F006FA12
:1033A0006FF05700DAE700BFC87E0108647E0108AD
:1033B00078830108B883010890810108B081010871
:1033C000CC830108FC9701080C83010838B578B15B
:1033D000B0FA80F464098368194DAB421BD2194DD1
:1033E000AB4218D3A3B11B6E33B39847204638BD08
:1033F000154C4FF4E47322461449154811F0DFF9D7
:10340000144811F0DCF94FF4E471204611F0CEF9C4
:103410006FF05704EAE70C4C4FF4E47322460E4970
:103420000B4811F0CCF90D490D4811F0C8F94FF4D3
:10343000E471204611F0BAF96FF05704D6E700BFE7
:10344000C87E0108647E010878830108B8830108FA
:1034500090810108B0810108CC830108FC97010824
:103460000C83010810B50C4641608260C3600023E4
:103470000374044B0360024603492068FFF7A6FF6C
:1034800010BD00BF28D401085B42010808B5164BE7
:103490001B68164A126816491648FFF7E3FF0346F1
:1034A00008B1184608BD144B1B68144A1268144929
:1034B0001448FFF7D7FF03460028F2D10D48124BFE
:1034C0001860124B0F4A1A604FF47A7110F08CFE9C
:1034D00003460028E5D14FF47A710C4B186810F0C0
:1034E00083FE0346DDE700BFA81C0020AC1C0020C3
:1034F00034D401085C1800207018002074180020D3
:1035000030D401084418002058180020401800202A
:10351000B1F5004F09D20161026000230381C3802D
:103520008380C38183814381704710B5064CC323D8
:1035300022460649064811F042F9064811F03FF9C3
:10354000C321204611F032F90C850108408501089D
:10355000908101085885010810B5154C154B4FF4A2
:1035600000721549204610F0AFFE144B1C60144C3D
:10357000144B4FF400721449204610F0A5FE134B73
:103580001C60134C134B4FF400721349204610F08B
:103590009BFE124B1C60124C124B4FF400721249EE
:1035A000204610F091FE114B1C60002010BD00BFA2
:1035B000C820002090850108B01E0020AC1C00200F
:1035C000B020002098850108B01C0020A81C002015
:1035D000781C0020A08501087818002070180020B1
:1035E000901C0020A8850108781A0020741800207B
:1035F00008B50548054B186013F04CFF08B10020D2
:1036000008BD6FF01200FBE7907B0108E02000206E
:1036100010B550B1836815498B4216D214498B42BC
:1036200013D3DB684E21984710BD124C40F2B733DC
:1036300022461149114811F0C2F8114811F0BFF8A3
:1036400040F2B731204611F0B1F80A4C40F2B733DE
:1036500022460C49094811F0B2F80B490B4811F009
:10366000AEF840F2B731204611F0A0F8147E010800
:10367000DC7D0108B0850108B8830108908101084C
:10368000B0810108E4850108308701080C83010836
:1036900010B558B1844683681548834216D2154840
:1036A000834213D31B696046984710BD124C40F209
:1036B000F53322461149124811F081F8114811F0F2
:1036C0007EF840F2F531204611F070F80A4C40F2D5
:1036D000F53322460C490A4811F071F80B490C48A1
:1036E00011F06DF840F2F531204611F05FF800BF9F
:1036F000147E0108DC7D0108B0850108B88301084B
:1037000090810108B0810108E48501083087010833
:103710000C83010808B5044B1868FFF739F8034B10
:103720001868FFF775FF08BDE8100020E0200020B2
:1037300010B48446044C0FCCACE80F0094E80300AE
:103740008CE8030010BC7047F0060020002800F051
:1037500086802DE9F04385B00F4691461C4606460B
:1037600001297FD9062B00D9062400214846FDF700
:103770001FFD60B9002500234FF001089C420CD9C1
:1037800008EB88084FEA48080133DBB2F6E72D233F
:10379000337009F100490125EDE74046FDF712FBC2
:1037A0004946FDF767FB4FF07C51FDF75BFAFDF7EB
:1037B0004DFD0346B0FBF8F008FB103198451CD9CD
:1037C00030238DF8003001225319BB424DD2531ED5
:1037D0001DE02A4BA3FB00C3DB089C4603EB8303DD
:1037E000A0EB4303303302F11000684400F8103CB2
:1037F000604601320028ECD1E6E70022FAE703F147
:1038000010026A4412F8102C7255013B0135002B4E
:10381000F5DAF4B1013FAF422AD92E237355631E66
:10382000013510E002EB820252000CF1010C6345FD
:10383000F8DCB1FBF2F002FB1011AF421BD93030C3
:103840007055013B0135002B03DB4FF0000C0122CA
:10385000EDE700237355284605B0BDE8F0834FF02F
:10386000FF3070474FF0FF30F6E74FF0FF30F3E7DF
:103870004FF0FF30F0E74FF0FF30EDE7CDCCCCCC90
:1038800010B550B1836815498B4216D214498B424A
:1038900013D3DB684E21984710BD124C40F2B7336A
:1038A00022461149114810F08AFF114810F087FF95
:1038B00040F2B731204610F079FF0A4C40F2B7339E
:1038C00022460C49094810F07AFF0B490B4810F0CA
:1038D00076FF40F2B731204610F068FF147E0108F1
:1038E000DC7D0108B0850108B883010890810108DA
:1038F000B0810108E4850108308701080C830108C4
:1039000010B558B1844683681548834216D21548CD
:10391000834213D31B696046984710BD124C40F296
:10392000F53322461149124810F049FF114810F0B2
:1039300046FF40F2F531204610F038FF0A4C40F2C5
:10394000F53322460C490A4810F039FF0B490C4860
:1039500010F035FF40F2F531204610F027FF00BF90
:10396000147E0108DC7D0108B0850108B8830108D8
:1039700090810108B0810108E485010830870108C1
:103980000C830108B0B582B000AF144640B30546C1
:1039900031B341602A6013F0F7FE00EB800000189D
:1039A000E8606D4600233B7102237B7188B0EC46D2
:1039B0001CF110026AD00E2022B1042802DD504B07
:1039C000CCF8143000233B7002237B70002A6AD0AD
:1039D000082801DDCCF818400CF11C03002160E040
:1039E0006D4600233B7102237B7188B0EC461CF1CD
:1039F000100213D00E2022B1042802DD414BCCF876
:103A0000143000233B7002237B70A2B1082801DD33
:103A1000CCF818400CF11C0300210AE06FF00040C4
:103A2000E9E701F108043C4414F8084C03F8014BA1
:103A300001310129F5D90D2825DD0E234AB10321D5
:103A4000397100217971B9710121F9717868CCF867
:103A50001000002121F0010121F0020121F00401F8
:103A600021F03801012060F38811C3F30A0363F3E6
:103A70005321C1F313010023234803F01FF9AD467E
:103A80006FF0150035E06FF01B03D7E76FF00040D3
:103A900092E701F108043C4414F8084C03F8014B88
:103AA00001310129F5D90D2826DD0E234AB1032164
:103AB000397100217971B9710121F9717868CCF8F7
:103AC0001000002121F0010121F0020121F0040188
:103AD00021F03801032060F38811C3F30A0363F374
:103AE0005321C1F313010023074803F0E7F8AD4663
:103AF00000200837BD46B0BD6FF01B03D6E700BFFE
:103B00005487010838870108F07E010810B5094C78
:103B1000094A0A492046FFF735FF094A146000B1F7
:103B200010BD084C084A09492046FFF72BFF084BF7
:103B30001C60F5E7082100206C87010840D40108CB
:103B400004210020EC2000207887010838D40108E7
:103B5000E82000202DE9F04184B000AF002800F0FB
:103B60000081044643681868FFF78AFE054600286E
:103B700059D021686E4600233B7102237B718AB0C5
:103B80006C4614F1100215D012201AB1042801DD80
:103B9000754B636100233B7002237B70BAB103460F
:103BA000082800DDA1610C2B00DDE56104F1200394
:103BB00000210AE06FF00040E7E701F1100CBC447F
:103BC0001CF810CC03F801CB01310129F5D91128DB
:103BD00026DD122342B10421397100217971B971B6
:103BE0000121F97178682061002121F0010121F0A3
:103BF000020121F0040121F03801012060F3881155
:103C0000C3F30A0363F35321C1F31301002357489D
:103C100003F054F8B54628461037BD46BDE8F0819C
:103C20006FF01B03D6E76368186807F108024C21A0
:103C3000FFF766FE0546002859D021686E4600232E
:103C40003B7102237B718AB06C4614F1100218D0CC
:103C50004FF0120C22B1BCF1040F01DD444B636143
:103C600000233B7002237B70C2B16346BCF1080F96
:103C700000DDA1610C2B00DDE56104F120030021D2
:103C80000AE06FF0004CE5E701F11000384410F84D
:103C9000100C03F8010B01310129F5D9BCF1110F0A
:103CA00022DD122342B10421397100217971B971E9
:103CB0000121F97178682061002121F0010121F0D2
:103CC000020121F0040121F03801012060F3881184
:103CD000C3F30A0363F35321C1F313010023234801
:103CE00002F0ECFFB54696E76FF01B03DAE713F03E
:103CF0004BFD00EB80000318B968A068081A4EF667
:103D00006022904223DDA0F57F40EB38E6689E1BE1
:103D10006268127912B34FF0FF3C226900FB0C225B
:103D20002261A160E360002E3FF475AFFDF74EF80D
:103D300080463046FDF746F801464046FDF74EF90D
:103D40000C49FDF797F8FDF75BFA606163E70A4AF3
:103D50009042DBDA00F57F40FF30D7E74FF0010CEF
:103D6000DBE76FF0150556E784870108F07E010850
:103D7000A887010800002041A015FFFF08B5064BE9
:103D80001868FFF7E7FE054B1868FFF7E3FE044BE2
:103D90001868FEF7FDFC08BD04210020E820002083
:103DA0007010002008B5024800F03AFD002008BD60
:103DB0004003002010B558B102468368154883427D
:103DC00016D21548834213D3DB681046984710BDBE
:103DD000124C40F2F25322461149124810F0EFFC07
:103DE000114810F0ECFC40F2F251204610F0DEFCDD
:103DF0000A4C40F2F25322460C490A4810F0DFFC0C
:103E00000B490C4810F0DBFC40F2F251204610F058
:103E1000CDFC00BFAC7D0108887D01084881010808
:103E20007C81010890810108B0810108C4810108EA
:103E3000048301080C83010810B558B10246836859
:103E40001548834216D21548834213D31B69104686
:103E5000984710BD124C40F21F6322461149124888
:103E600010F0ADFC114810F0AAFC40F21F61204692
:103E700010F09CFC0A4C40F21F6322460C490A4891
:103E800010F09DFC0B490C4810F099FC40F21F61AA
:103E9000204610F08BFC00BFAC7D0108887D010836
:103EA000488101087C81010890810108B0810108E6
:103EB000C4810108048301080C83010810B543681C
:103EC0001C68012303FA01F10C4203D092B1FFF701
:103ED00071FF10BD094C40F2F763224608490948BA
:103EE00010F06DFC084810F06AFC40F2F7612046C3
:103EF00010F05CFCFFF7A0FFEBE700BF4881010872
:103F000024830108908101086483010838B543685F
:103F100005691C6801238B401C4208D02C68234291
:103F200002D0B2FA82F25209FFF7C8FF38BD084C3E
:103F300040F2227322460749074810F040FC074828
:103F400010F03DFC40F22271204610F02FFC00BF23
:103F500048810108248301089081010864830108D5
:103F600008B9022900D0704708B5054B1A7A82F0CB
:103F700001021A7208210348FFF7C8FF08BD00BFFD
:103F800078210020407A010870B5002842D01346FD
:103F9000864684686B4A94424CD26B4A944249D319
:103FA0004668006913F0FC6F55D103F03002302AE7
:103FB00061D0664A1A40664DAA426CD003F00602F0
:103FC000042A78D013F4402240F08280B2F5402FCA
:103FD00000F0928013F4801F05D022B113F0010F7E
:103FE00001D083F4402323F4801235684FF0010C94
:103FF0000CFA01FC15EA0C0F00F08E8013F0010F93
:1040000000F09A8003684CEA03030360236870465B
:10401000984770BD4F4C40F2534322464E494F489B
:1040200010F0CDFB4E4810F0CAFB40F25341204641
:1040300010F0BCFB474C40F25343224649494748E5
:1040400010F0BDFB4849494810F0B9FB40F253411C
:10405000204610F0ABFB3F4C40F25C432246444903
:104060003E4810F0ACFB434810F0A9FB40F25C4125
:10407000204610F09BFB374C40F25F4322463E49FE
:10408000364810F09CFB3D4810F099FB40F25F4130
:10409000204610F08BFB2F4C40F2634322463849F8
:1040A0002E4810F08CFB374810F089FB40F263413A
:1040B000204610F07BFB274C40F2664322463249F3
:1040C000264810F07CFB40F26641204610F06EFB63
:1040D00013F4003F7FF47AAF1E4C40F2694322464E
:1040E0002A491E4810F06BFB294810F068FB40F28B
:1040F0006941204610F05AFB164C40F26D432246AF
:104100002449164810F05BFB234810F058FB40F29E
:104110006D41204610F04AFB0E4C40F27943224696
:104120001E490E4810F04BFB1D4810F048FB40F2B2
:104130007941204610F03AFB036823EA0C03036040
:1041400064E700BFAC7D0108887D01080200030020
:1041500002000100488101087C810108908101086A
:10416000B0810108C4810108048301080C8301089F
:10417000CC8701083C880108608801089C880108F8
:10418000DC8801082C8901087C890108B0890108B4
:10419000008A01083C8A01088C8A010824830108EE
:1041A0006483010810B558B184468368154883427A
:1041B00016D21548834213D35B686046984710BDFA
:1041C000124C40F2822322461149124810F0F7FAAD
:1041D000114810F0F4FA40F28221204610F0E6FA7D
:1041E0000A4C40F2822322460C490A4810F0E7FAB2
:1041F0000B490C4810F0E3FA40F28221204610F0FF
:10420000D5FA00BFCC7D0108C47D0108B88A010839
:10421000B883010890810108B0810108E88A01088B
:10422000208C01080C830108934231D830B583B04B
:1042300068B18468184DAC4219D2184DAC4216D3FF
:104240002468BDF818500095A04703B030BD144C49
:1042500040F26E2322461349134810F0B0FA134877
:1042600010F0ADFA40F26E21204610F09FFA0C4C8F
:1042700040F26E2322460E490B4810F0A0FA0D4979
:104280000D4810F09CFA40F26E21204610F08EFA94
:104290006FF01500704700BFCC7D0108C47D010898
:1042A000B88A0108B883010890810108B08101082B
:1042B000E88A0108208C01080C8301082DE9F041EF
:1042C00084B002AF002800F0D9800C46154606469F
:1042D000002900F0D680002A00F0D680086813F08C
:1042E000D9F878B1746035604FF4B01104F108006A
:1042F00010F015F90446002857D020460837BD466F
:10430000BDE8F0816E4600233B7102237B7188B0CB
:1043100002AC14F1100211D00E201AB1042801DDF4
:104320005B4B636100233B7002237B709AB10828CA
:1043300000DDA56104F11C0300210AE06FF00040DC
:10434000EBE701F108053D4415F8085C03F8015B53
:1043500001310129F5D90D2824DD0E2342B10321B5
:10436000397100217971B9710121F9717868206181
:10437000002121F0010121F0020121F0040121F0CE
:104380003801012060F38811C3F30A0363F353215A
:10439000C1F3130100233F4802F090FCB5466FF0D3
:1043A0001204AAE76FF01B03D8E770684FF4B0114E
:1043B000103010F0B4F8044600289ED173681868D5
:1043C00059684FF00008CDF800804346324AFDF7A7
:1043D000FBFA6E4687F8048002237B7188B00DF1EA
:1043E000080C1CF1100213D00E2022B1042802DDAB
:1043F0002A4BCCF8143000233B7002237B70A2B10F
:10440000082801DDCCF818500CF11C0300210AE04B
:104410006FF00040E9E701F108053D4415F8085C3C
:1044200003F8015B01310129F5D90D2823DD0E23A5
:104430004AB10321397100217971B9710121F971F2
:104440007868CCF81000002121F0010121F0020170
:1044500021F0040121F03801032060F38811C3F337
:104460000A0363F35321C1F313010023094802F047
:1044700025FCB54641E76FF01B03D9E76FF0150443
:104480003BE76FF0150438E76FF0150435E700BF20
:10449000248C0108A07F0108002D31013C8C01080B
:1044A00010B54FF4B01208210D48FFF76DFD03461B
:1044B00008B1184610BD0B4C0B4A0C492046FFF7BB
:1044C000FDFE0B4B1C6003460028F2D1094C0A4A42
:1044D0000A492046FFF7F2FE0346094A1460E8E75E
:1044E000407A010830210020548C010860D4010872
:1044F0002C210020242100205C8C010848D40108D4
:1045000020210020002843D030B583B00C4605465A
:10451000B1F57A7F04DC11F57A7F03DA1E4C03E0F3
:104520004FF47A74002C16DC002C23DB6868002121
:1045300008300FF0ECFF6868002110300FF0E7FF43
:1045400000236A681068516800220092134AFDF740
:104550003BFA03B030BD6868012108300FF0D7FF87
:104560006868002110300FF0D2FF44F6206304FB8E
:1045700003F3E6E76868002108300FF0C8FF6868B9
:10458000012110300FF0C3FF054B04FB03F3D8E704
:104590006FF01500704700BF18FCFFFF002D3101C0
:1045A000E0B1FFFF70B506460D46064B1C6800E003
:1045B000246834B16368002BFAD029463046984706
:1045C000F6E770BD3821002010B50A4B1C7804EBCB
:1045D00044029300084AD35C022B00D010BD012195
:1045E0002046FFF7DFFF04EB4404A300024A00214A
:1045F000D154F3E7FC2500203C210020F8B5437995
:10460000012B0BD10446C0880FF094FF0546A66825
:10461000012E14BF00270127032800D9F8BD13F08D
:10462000B3F800EB8000041805EB4502294B03EBBF
:1046300082031F72012E12D005EB4503254A12F8A2
:104640002330012B31D0032BE8D123480BF072FD2E
:1046500005EB4505AD001F4B00225A55DEE713461A
:104660001C4A12F823307BB1022BD7D11B480BF028
:1046700061FD02212846FFF795FF05EB4505AD00DA
:10468000144B00225A55C9E7124B05EB4502012194
:1046900003F8221003EB82035C60114B1D7064224F
:1046A000002310480BF0ACFCB8E70E480BF042FDBD
:1046B000084B05EB4502022103F8221003EB8203AD
:1046C0005C60094B1D701E22002304480BF098FC0F
:1046D000A4E700BF3C210020080700206807002055
:1046E000FB25002038070020FC25002010B5124BC8
:1046F0001C7804EB4402114B13F82230032B00D03A
:1047000010BD0E4B03EB82031B7A002BF8D0042163
:104710002046FFF747FF13F037F800EB8000001842
:1047200004EB4404054B03EB84035860142200237C
:1047300003480BF065FCE3E7FA2500203C2100204C
:104740000807002070B5174B1C7804EB4402164B89
:1047500013F82230012B00D070BD134B03EB820302
:104760001B7A002BF8D003212046FFF71BFF0E4DCC
:10477000660004EB4403032205F8232013F004F839
:1047800000EB80000018264405EB86056860054BA9
:104790001A78064B1A701422002305480BF030FCDF
:1047A000DAE700BFFB2500203C210020FA2500208D
:1047B0000807002008B500230AE0104803EB430176
:1047C0008A0000EB020C002181548CF808100133A0
:1047D000032BF2DD0A490B480BF05CFB0A490B483E
:1047E0000BF058FB0A490B480BF054FB0A4A032113
:1047F0000A4810F053FB002008BD00BF3C210020F8
:10480000C945000868070020454700083807002010
:10481000ED46000808070020748C0108307F01086D
:10482000024B1A6802601860704700BF38210020F0
:10483000454BDB7C012B00D070472DE9F041424B0A
:10484000DB7D002B48D1414B5F683F4BDB68FF1A93
:104850003E4B5A683C4BDA600022DA753C4C2168CA
:104860006068FCF7FDF90546247A002C0CBF012690
:10487000002603D0344B93F9103013B1324B002291
:104880001A60314B9B7D4BB32F4BD3F80480002132
:104890002846FCF7EFFA4146FCF7E2F92D49FCF710
:1048A000E9FA0746002C33D02B492846FCF7E2FAF8
:1048B000254B1968FCF7D6F93946FCF7D3F90FF008
:1048C0009FF8FCF79DFC03B2B3F57A7F21DD234B03
:1048D0004FF47A721A8023E00027B9E794B11A4B9B
:1048E00093F911308BB93846FCF76CFA1C49FCF788
:1048F000C1FA154FB968FCF7BDFA7968FCF7B2F94F
:104900008046C4E74FF00008C1E74FF00008BEE75B
:10491000002313F57A7F13DA104B4FF618421A80F2
:10492000094C29462068FCF79DF9206073B2237476
:104930000022A275C4F804806374A760BDE8F0810A
:10494000064A1380ECE700BF842100206C21002080
:10495000782100200000C8420000C04074210020DF
:104960006F12833A08B5314BDB7C0133FF2B00D942
:10497000FF23DBB22D4AD3742D4AA2FB031202F0AF
:10498000FC0101EB92029B1A13F0FF0F02D1274B9F
:104990000022DA74254B9B7C0133FF2B00D9FF23C7
:1049A000DBB2224A9374224AA2FB0312D20802EB22
:1049B000820251005B1A13F0FF0F02D11B4B002241
:1049C0009A741A4B5B7D0133FF2B00D9FF23DBB2B6
:1049D000164A5375164AA2FB0312120902EB820211
:1049E00091005B1A13F0FF0F02D1104B00225A7591
:1049F0000E4B1B7D0133FF2B00D9FF23DBB20B4A8B
:104A000013750C4AA2FB03121209322101FB123367
:104A100013F0FF0F02D1054B00221A75FFF708FFB4
:104A2000054A53680133536008BD00BF842100204C
:104A3000CDCCCCCC1F85EB516C210020024B012248
:104A4000DA759A75704700BF8421002008B500EB25
:104A5000C1035B8813F0010F06D101EB530330F85B
:104A600033209B1A99420DD00C4A01210C4810F0BA
:104A700015FA002383F31188BFF36F8F04231846C0
:104A800002DF08BD30F83130CB1A00EBC30042889A
:104A900003EB52039942E7D1F3E700BF988C01087A
:104AA000607F01082DE9F0410446164600EBC10085
:104AB000C588A94226D0CB0023449F884FEAC70867
:104AC00008F1060834F80830994204D104EBC50314
:104AD0009B8899420CD0114A0121114810F0DEF94F
:104AE000002383F31188BFF36F8F0423184602DF7E
:104AF000321D44F8225024F80850EB000433E752EA
:104B0000BDE8F081E3680122B24023EA0203E360DA
:104B1000321D002344F82230F2E700BFC08C0108A8
:104B2000607F01082DE9F84304460D46131D50F837
:104B300023607EB9C368012191400B43C3600432F6
:104B400040F82250EB001A1DADB285520633C55213
:104B5000BDE8F883F700043730F807904FEAC9083A
:104B600008F1060830F808309E420AD1EB001A1D01
:104B700024F802900633E652ADB224F80850E5530B
:104B8000E6E7074A0121074810F088F9002383F37C
:104B90001188BFF36F8F0423184602DFE6E700BFDA
:104BA000C08C0108607F010870B5B2F5802F31D24A
:104BB0000346042A3ED9043AC81D20F007000A44DF
:104BC00022F00702121AD608172A43D91860866005
:104BD0000023C360B6FA86F1C1F1200EC1F12405AD
:104BE000AD000735E9084B1CB34294BF00230123F5
:104BF000002B45D0354C40F23333224634493548FA
:104C00000FF0DDFD34480FF0DAFD40F2333120467D
:104C10000FF0CCFD2D4C40F20A3322462F492D488F
:104C20000FF0CDFD2E480FF0CAFD40F20A312046AC
:104C30000FF0BCFD254C40F211332246294925488E
:104C40000FF0BDFD24480FF0BAFD40F211312046AF
:104C50000FF0ACFD1D4C40F21D33224622491D4889
:104C60000FF0ADFD1C480FF0AAFD40F21D312046AB
:104C70000FF09CFD03F1040C002440F82C4001339C
:104C80007345F7DB1FFA81FC4FEA4C039BB243806C
:104C90000024048043F001034380731A25F00705C4
:104CA000AE1C9BB24FEA430E20F806E020F805C088
:104CB00022F00705961C845302444353538843F063
:104CC000010353800FF06EFC70BD00BFE48C01083F
:104CD000E08D010890810108988D0108448D01083C
:104CE0005C8D0108748D0108B48D010808B5024877
:104CF0000FF04EFD002008BD148E01080F4B9842A6
:104D000002D30F4B98420FD30E4B23B1984202D3DC
:104D10000D4B98420AD30D4B53B198420AD30C4B1A
:104D2000984209D300207047012070470120704746
:104D3000002070470020704701207047D07701089D
:104D4000B4DC0108000000000000000000000000CA
:104D50000000000070B504460D46194616465AB1CB
:104D600064B129B93046FBF7CBF983B2013399B26C
:104D70002A463046A04770BD034EF1E73046FBF7A8
:104D8000BFF90130F7E700BF508E0108F8B540B118
:104D9000064603784578847804EB830404440027AE
:104DA00011E00B4CC62322460A490B480FF007FDC1
:104DB000C62120460FF0FAFC01342046FBF7A0F98B
:104DC000013004440137AF42F6D3A01BF8BD00BF49
:104DD000588E0108888E0108908101082DE9F04F56
:104DE00091B006920393134602F004020092C3F3BB
:104DF000C20210F00303019340F05E820746894629
:104E00000132041D00284BD0072940F25882039B31
:104E10005D1EDDF804B0CDF810B0CDF814B000265A
:104E20004FF0FF3A4FF00408CDF808B0C3460FB179
:104E3000039B2360531E0793002A40F35F81069B68
:104E400013F0020229D04FF0010CE11B8B081AB1BC
:104E5000B1F5007F80F05D81029A0F2A00F269812E
:104E6000002F00F07A81DBB2029901F140026A441E
:104E700002F8103C02F820ACBCF1000F00F0698190
:104E800063F07F0301F140026A4402F8103C049B86
:104E900001330493029B01330293043400223EE069
:104EA00001F007031C44C3F10809B0E7002635E010
:104EB000002633E0002631E04FF00808C3462DE01D
:104EC00025292BD10AF1010A01264FF00408C34617
:104ED00024E04729ECD82A2912D32A39C9B2012063
:104EE00000FA01F14FF6DA70014217D111F0625F5A
:104EF00040F0C28011F0010F40F08C8000260DE0E0
:104F0000252903D10AF1FF3A002607E0D2D820294B
:104F100004D0232902D0002600E000261D466B1C89
:104F20006978002900F04581002EC9D07A29BDD8C2
:104F30004C29CED34C392E29EFD801A050F821F0BE
:104F40001D4F00081B4F00081B4F00081B4F000897
:104F50001B4F00081B4F00081B4F00081B4F000889
:104F60001B4F00081B4F00081B4F00081B4F000879
:104F70000D5000081B4F00081B4F00081B4F000876
:104F80001B4F00081B4F00081B4F00081B4F000859
:104F90001B4F0008795000081B4F00080D500008F7
:104FA0000D50000879500008795000087950000829
:104FB0001D4F00080D500008B94E00081B4F000897
:104FC0001D4F00081B4F0008D75000080D50000867
:104FD000D75000081B4F00081B4F0008E150000885
:104FE000055000080D5000081B4F00081B4F00081B
:104FF0000D5000081B4F0008FD4F00084FF004083B
:10500000C3468BE74FF00408C34687E729786C292D
:1050100024D000264444013CB4FBF8F408FB04F41B
:1050200027B1E11B5944494500F24C81002A5DD16A
:10503000BBF1040F00F0A480BBF1080F40F0A88082
:105040001A99073121F0070101F108001A90D1E9FE
:1050500000010FB1C4E9000108345FE713F8021C36
:105060006C2904D000264FF00408C346D2E700267E
:105070004FF00808C346CDE729784C291BD01A9970
:10508000073121F0070101F108001A90D1E9000170
:10509000073424F0070447B1E61B08364E4514D800
:1050A0002D784C2D14D0C4E90001083400264FF0AF
:1050B0000808C34632E71A99073121F0070101F1C8
:1050C00008001A90D1E90001E2E76FF01B00F0E060
:1050D000C4E90001E9E700264FF00408C34699E758
:1050E000324600264FF00408C34693E71A9A111D72
:1050F0001A9112680392079A1D4698E60398FFF7E3
:10510000FDFD844600287FF49AAE069B03F0020260
:105110009BE6714C4FF422732246704970480FF0A1
:105120004EFB70480FF04BFB4FF4227120460FF0FE
:105130003DFB694C40F28D232246684968480FF0D8
:105140003EFB69480FF03BFB40F28D2120460FF0FB
:105150002DFB059B013305939CE6BCF1000F02D0AB
:1051600009F1010996E6009B13B109F1020991E6E4
:105170000398FAF7C5FF09EB000303F1020989E67A
:105180001A99081D1A90096807B121600434C5E610
:10519000514C40F2D2232246504951480FF00FFBA8
:1051A000594652480FF00BFB40F2D22120460FF037
:1051B000FDFADDF808B0E31BB3F5806F11D207B339
:1051C00000223A609B083B70009BF3B1059BFB708B
:1051D000049BBB708BBB019DDDF810A0DDF80C803B
:1051E0004AE03D4C40F2DE2322463C493C480FF069
:1051F000E6FA3F480FF0E3FA40F2DE2120460FF0D6
:10520000D5FA4B44A3F1080053E0059B7B70DFE720
:1052100001339B45DFD903F140026A4412F8101CA8
:1052200012F9102C002AF3DA01F07F01E21B01329F
:105230004A454AD804F8011BEAE7019BE9E7009BCD
:105240003BB305F140036B4413F8203C04F8013BE9
:10525000019EE31B334401334B4539D805F140032C
:105260006B4413F8103C04F8013B3246414620469B
:10527000FAF7B2FF34440135AB4519D9BAF1000F42
:10528000DDD005F140036B4413F9103C002BD6DA56
:10529000F1E705F140036B4413F8103C57F8238005
:1052A000002247F823204046FAF72AFF461CD0E7A1
:1052B000E01B11B0BDE8F08F6FF00D00F9E76FF063
:1052C0001B00F6E76FF01B00F3E76FF01B00F0E741
:1052D0006FF01B00EDE700BF588E0108A08E01089B
:1052E00090810108A48E0108C88E0108E48E01088F
:1052F000FC8E01082DE9F04F97B000AF7961BA61DB
:10530000FB60002844D08346B0FA80F46409D7F8E3
:105310008030C3F3C0033B627B69002B45D09BF810
:105320000260B1462EB1D7F8803013F0010F00D0E3
:10533000012423469BF803207A6222B1D7F880200B
:1053400012F0020F00D1A3B39BF80050AA00BA607C
:10535000DBF804203A610BEB8505BA69AAB3002B90
:1053600000F02281B9F1100F00F2118107F1440021
:105370004FF0000A4A462946FAF72EFF9BF8023002
:105380001D444FF00008C7F80490C7F81CB08CE12A
:10539000B34C40F2A5332246B249B3480FF00FFA9E
:1053A00040F2A53120460FF001FAFFF7EFFC7861DB
:1053B000B5E7BB691BB1FA687969584698477C69BB
:1053C00020465C37BD46BDE8F08F7C69E3B94D44AB
:1053D00000237B6123E00444013501364E451AD297
:1053E0002A7800235BF822201946B869FFF7B2FC3F
:1053F000BAF1000FEFD0D7F888309845EBD22AF8F1
:10540000180008F10108E6E70026C7F81C80B0463E
:10541000D7F884A0E2E7C7F81480D7F81C80D7F843
:10542000803003F00503FB604FF0000AA146C7F887
:105430001CB08AE0594638690FF07DF9002800F069
:1054400096806C46002387F82C30022387F82D3095
:105450008AB0694611F1100237D012251AB1042D15
:1054600001DD824B4B61002387F82830022387F847
:1054700029306ABB112D45DD122362B1042087F863
:105480002C00002087F82D0087F82E00012087F8D7
:105490002F00F86A086128F0010828F0020828F0B7
:1054A000040828F03808022161F38818C3F30A03BE
:1054B00063F35328C8F31308002341466C4801F0F6
:1054C000FDFBA546A9F102093CE06FF00045C5E7E8
:1054D0002B46082D01DD386988610C2B01DDC1F8F0
:1054E0001CB001F12003002009E000F1300C07F1AD
:1054F000280EF4441CF830CC03F801CB013001280D
:10550000F3D9B7E76FF01B03B7E701233AE0D7F809
:10551000803013F0020F15D0002322461946B869D7
:10552000FFF718FCD7F8843053B17B69D7F888208F
:10553000934205D2D7F8842022F8130001337B610F
:10554000013881440AF1010A35467B6A9A451CD22A
:105550002E4616F802BB6B78FA6952F823402046B3
:10556000FFF7CCFB05463B6A002B7FF463AF002DB1
:10557000CDD0D7F8803013F0010FCDD1FB68002BD0
:10558000C3D10223A9EB0309DCE74C4618E7344CEE
:1055900040F22D432246374933480FF010F940F2CC
:1055A0002D4120460FF002F9B9F1000F19D0D7F8BC
:1055B000803013F0040F18D0B9F1100F04D8B246A0
:1055C00007F134000026D5E6254C4FF487632246C8
:1055D000294925480FF0F3F84FF4876120460FF072
:1055E000E5F84FF0000A5646C8E64FF0000A564666
:1055F000C4E6594638690FF09EF8002866D051E09D
:10560000174C40F2614322461C4917480FF0D7F867
:1056100040F2614120460FF0C9F8D7F8803013F00E
:10562000040F3FD0BAF10F0F0CD80AF101030AF1B1
:10563000300207F1280102EB010A0AF8249C5FFA04
:1056400083FA2FE0064C40F2664322460C49064896
:105650000FF0B5F840F2664120460FF0A7F800BF02
:10566000588E0108148F010890810108308F0108BD
:10567000D07E0108D48F0108F48F0108149001082E
:1056800034900108D7F8803013F0020F3ED00F2E6F
:105690002FD8731C06F1300207F12801561806F8BE
:1056A000149CDEB208F1010825467B6A984551D268
:1056B0002C4614F802BB95F80190FB6953F82900B9
:1056C000FFF71CFB05463B6A002B92D1002DD9D079
:1056D000D7F8803013F0010F9FD00F2E90D8731C95
:1056E00006F1300207F12801561806F8149CDEB2C4
:1056F000D8E7664C40F26F432246654965480FF093
:105700005EF840F26F4120460FF050F8BAF10F0FEB
:1057100013D80AF101030AF1300207F128010A4403
:1057200002F824BC0AF1020A5FFA8AFA07F1580269
:1057300052FA83F303F8249CB4E7544C40F27443C8
:105740002246554953480FF03AF840F2744120463A
:105750000FF02CF8D7F80490D7F81CB09BF8003065
:1057600087F854309BF80130334487F85530D7F828
:10577000803013F0020F0DD1CAF3470387F857307A
:10578000D7F8803013F0010F06D113F0040F3AD18F
:10579000002302E00023F1E7002387F85630DBF80E
:1057A00000003863786DCBF80000FA68B968584695
:1057B000D7F81880C047041EFFF602AE386BCBF84E
:1057C0000000FA68514607F13400C246C04700287D
:1057D00055DB04EB0008B96849447B6A01EB4301DF
:1057E000D7F80C904A467B69591A2846D047041EC0
:1057F000FFF6E6AD08EB04054FF00008C7F824B04B
:10580000B346544619E05346C7E74FF0000A01E09B
:105810004FF0000A4A46012107F12C00A04700285A
:105820002FDB05445346324649462046FFF792FA9D
:10583000002828DB054408F10108D84518D208F1F2
:10584000300307F12802134413F8143C87F82C3076
:105850007A6A52F82360D7F88430002BD5D0D7F875
:1058600088309845D4D2D7F8843033F818A0D1E7DF
:10587000FA6800210846BB6998472C46A0E5044613
:105880009EE504469CE504469AE500BF588E010853
:10589000149001089081010834900108014B1860B0
:1058A000704700BF4C03002038B504460D46202247
:1058B00000210DF0AFFAEB68E361AB68A3612B68E0
:1058C00023626B6863620022A2622A6922612BB1A3
:1058D000591E0B4202D142F00102226104F12C0058
:1058E0000122002111F013FE00B938BD054C302310
:1058F0002246054905480EF062FF302120460EF091
:1059000055FF00BF68900108909001089081010840
:105910002DE9F04F89B00292994600230793059331
:10592000436A8B42C0F00181834688464FF0000AEB
:105930000126CDF80CA065E07F4D8F232A467F49D4
:105940007F480EF03CFF21467E480EF038FF8F2145
:1059500028460EF02BFF514658460FF062F8002300
:10596000059367E0DBF82030DBF8002003EB8201D1
:10597000039113F8221021F0010103F82210C9B29B
:1059800021F0020103F82210DBF800304344DBF879
:10599000102012F0010F05D1DBF824108B4205D343
:1059A0005B1A03E0DBF8241001390B40CBF8003020
:1059B000DBF80C108B4201D0002609E042F008020F
:1059C000CBF81020002603E058460EF060FF2E466C
:1059D000019D20460CF010FA80F0010010F0FF0F3E
:1059E00040F0928085F31188BFF36F8F079931B132
:1059F000DBF818300BB15846984700230793002E68
:105A000000F095800BF11404EFF31187102383F35A
:105A10001288BFF36F8F20460CF0DEF980F0010092
:105A200010F0FF0F88D120460CF044FA0197059A38
:105A3000002A90D106A958460EF0CFFE05460699D9
:105A400041458FD20028BFD1029B59EA03030BD1F5
:105A5000002EBDD0DBF800A005AB07AA069958467A
:105A60000EF048FF0646B3E711F034FE0028EFD1F0
:105A7000002FEDD120460CF0BFF980F0010010F0AE
:105A8000FF0F21D187F31188BFF36F8F0BF12C002B
:105A9000029A4B4609F06CFD0646EFF31185102380
:105AA00083F31288BFF36F8F20460CF095F980F0D6
:105AB000010010F0FF0F18D120460CF0FBF9019502
:105AC000B6FA86F6760983E71B4D40F23D132A4667
:105AD0001D491B480EF073FE21461C480EF06FFE58
