:020000040800F2
:1000000080210020A9270008B3BD0008952700081B
:100010009527000895270008952700080000000094
:10002000000000000000000000000000DD270008C4
:100030009527000800000000FD290008B55E0008B3
:10004000912A0008912A0008912A0008912A0008A4
:10005000912A0008912A0008912A0008912A000894
:10006000912A0008912A0008912A0008912A000884
:10007000912A0008912A0008912A0008912A000874
:10008000912A0008912A0008912A0008912A000864
:10009000912A0008912A0008912A0008912A000854
:1000A000912A0008912A0008912A0008912A000844
:1000B000912A0008912A0008912A0008912A000834
:1000C000912A0008912A0008912A0008912A000824
:1000D000912A0008912A0008912A0008912A000814
:1000E000912A0008912A0008912A0008912A000804
:1000F000912A0008912A0008912A0008912A0008F4
:1001000030B490F800F020F007016FF0000C10F010
:10011000070491F820F040F048804FF000046FF0A1
:100120000700D1E9002391F840F000F1080082FABD
:100130004CF2A4FA8CF283FA4CF3A2FA8CF34BBB88
:10014000D1E9022382FA4CF200F10800A4FA8CF201
:1001500083FA4CF3A2FA8CF3E3B9D1E9042382FACF
:100160004CF200F10800A4FA8CF283FA4CF3A2FAE4
:100170008CF37BB9D1E9062301F1200182FA4CF21C
:1001800000F10800A4FA8CF283FA4CF3A2FA8CF383
:10019000002BC6D0002A04BF04301A4612BAB2FAA5
:1001A00082F200EBD20030BC7047D1E9002304F0AA
:1001B0000305C4F100004FEAC50514F0040F91F8DF
:1001C00040F00CFA05F562EA05021CBF63EA05037C
:1001D00062464FF00004AAE7844641EA000313F0A8
:1001E00003036DD1403A41D351F8043B40F8043B3E
:1001F00051F8043B40F8043B51F8043B40F8043B01
:1002000051F8043B40F8043B51F8043B40F8043BF0
:1002100051F8043B40F8043B51F8043B40F8043BE0
:1002200051F8043B40F8043B51F8043B40F8043BD0
:1002300051F8043B40F8043B51F8043B40F8043BC0
:1002400051F8043B40F8043B51F8043B40F8043BB0
:1002500051F8043B40F8043B51F8043B40F8043BA0
:1002600051F8043B40F8043B403ABDD2303211D340
:1002700051F8043B40F8043B51F8043B40F8043B80
:1002800051F8043B40F8043B51F8043B40F8043B70
:10029000103AEDD20C3205D351F8043B40F8043B40
:1002A000043AF9D2043208D0D2071CBF11F8013B3E
:1002B00000F8013B01D30B8803806046704700BF04
:1002C000082A13D38B078DD010F003038AD0C3F113
:1002D0000403D21ADB071CBF11F8013B00F8013BF5
:1002E00080D331F8023B20F8023B7BE7043AD9D3B4
:1002F000013A11F8013B00F8013BF9D20B78037089
:100300004B7843708B788370604670474FF0FF0CDA
:100310001CEAD0521EBF1CEAD15392EA0C0F93EA9A
:100320000C0F6FD01A4480EA010C400218BF5FEA3C
:1003300041211ED04FF0006343EA501043EA5111AF
:10034000A0FB01310CF00040B1F5000F3EBF4900A9
:1003500041EAD3715B0040EA010062F17F02FD2AAD
:100360001DD8B3F1004F40EBC25008BF20F0010090
:10037000704790F0000F0CF0004C08BF49024CEAA7
:10038000502040EA51207F3AC2BFD2F1FF0340EA39
:10039000C250704740F400004FF00003013A5DDCAA
:1003A00012F1190FDCBF00F000407047C2F10002EB
:1003B000410021FA02F1C2F1200200FA02FC5FEAD8
:1003C000310040F1000053EA4C0308BF20EADC7022
:1003D000704792F0000F00F0004C02BF400010F494
:1003E000000F013AF9D040EA0C0093F0000F01F041
:1003F000004C02BF490011F4000F013BF9D041EA63
:100400000C018FE70CEAD15392EA0C0F18BF93EA64
:100410000C0F0AD030F0004C18BF31F0004CD8D18E
:1004200080EA010000F00040704790F0000F17BF15
:1004300090F0004F084691F0000F91F0004F14D05B
:1004400092EA0C0F01D142020FD193EA0C0F03D1B3
:100450004B0218BF084608D180EA010000F00040B6
:1004600040F0FE4040F40000704740F0FE4040F491
:100470004000704780F0004002E000BF81F0004182
:1004800042001FBF5FEA410392EA030F7FEA226C3A
:100490007FEA236C6AD04FEA1262D2EB1363C1BFCA
:1004A000D218414048404140B8BF5B42192B88BF39
:1004B000704710F0004F40F4000020F07F4018BF5C
:1004C000404211F0004F41F4000121F07F4118BF7C
:1004D000494292EA030F3FD0A2F1010241FA03FC24
:1004E00010EB0C00C3F1200301FA03F100F000430C
:1004F00002D5494260EB4000B0F5000F13D3B0F1D4
:10050000807F06D340084FEA310102F10102FE2A42
:1005100051D2B1F1004F40EBC25008BF20F00100B2
:1005200040EA03007047490040EB0000013A28BF51
:10053000B0F5000FEDD2B0FA80FCACF1080CB2EBD4
:100540000C0200FA0CF0AABF00EBC2505242184352
:10055000BCBFD0401843704792F0000F81F40001F7
:1005600006BF80F400000132013BB5E74FEA4103CA
:100570007FEA226C18BF7FEA236C21D092EA030F36
:1005800004D092F0000F08BF0846704790EA010FB0
:100590001CBF0020704712F07F4F04D1400028BFDD
:1005A00040F00040704712F100723CBF00F50000BF
:1005B000704700F0004343F0FE4040F400007047F5
:1005C0007FEA226216BF08467FEA236301464202A1
:1005D00006BF5FEA412390EA010F40F480007047B4
:1005E0004FF0000304E000BF10F0004348BF40425A
:1005F0005FEA000C08BF704743F0964301464FF096
:1006000000001CE050EA010208BF70474FF00003F1
:100610000AE000BF50EA010208BF704711F0004332
:1006200002D5404261EB41015FEA010C02BF844602
:100630000146002043F0B64308BFA3F18053A3F561
:100640000003BCFA8CF2083AA3EBC25310DB01FAA8
:1006500002FC634400FA02FCC2F12002BCF1004F2C
:1006600020FA02F243EB020008BF20F001007047BD
:1006700002F1200201FA02FCC2F1200250EA4C0011
:1006800021FA02F243EB020008BF20EADC70704757
:100690004FF0FF3C06E000BF4FF0010C02E000BF4E
:1006A0004FF0010C4DF804CD4FEA40024FEA4103F0
:1006B0007FEA226C18BF7FEA236C11D001B052EAA6
:1006C000530C18BF90EA010F58BFB2EB030088BF6C
:1006D000C81738BF6FEAE17018BF40F001007047DB
:1006E0007FEA226C02D15FEA402C05D17FEA236CBD
:1006F000E4D15FEA412CE1D05DF8040B704700BF04
:10070000844608466146FFE70FB5FFF7C9FF00289A
:1007100048BF10F1000F0FBD4DF808EDFFF7F4FFD3
:100720000CBF012000205DF808FB00BF4DF808ED6C
:10073000FFF7EAFF34BF012000205DF808FB00BF8F
:100740004DF808EDFFF7E0FF94BF012000205DF8B1
:1007500008FB00BF4DF808EDFFF7D2FF94BF012062
:1007600000205DF808FB00BF4DF808EDFFF7C8FF5B
:1007700034BF012000205DF808FB00BF4FEA4002B3
:10078000B2F1FE4F0FD34FF09E03B3EB12620DD9BF
:100790004FEA002343F0004310F0004F23FA02F029
:1007A00018BF404270474FF00000704712F1610FD0
:1007B00001D1420205D110F0004008BF6FF00040A7
:1007C00070474FF00000704753B94AB9002908BF7D
:1007D00000281CBF4FF0FF314FF0FF3000F00CB885
:1007E000ADF1080C6DE904CE00F008F8DDF804E086
:1007F000DDE9022304B07047704700BF2DE9F047E0
:100800008C468E46089E154604461946002B40F03D
:10081000D080724547D9B2FA82F74FB1C7F12003B1
:100820000EFA07FC20FA03F3BD4043EA0C0CBC406F
:100830004FEA154EA8B2BCFBFEF8230C0EFB18CCF9
:1008400008FB00F943EA0C43994528D9EB1808F155
:10085000FF3204D2994502D9A8F102022B44A3EB3E
:100860000903A4B2B3FBFEFC0EFB1C330CFB00F02F
:1008700044EA0344A04214D92C190CF1FF3304D2EA
:10088000A04202D9ACF102032C44241A43EA0240EC
:100890001EB1FC40002334607360BDE8F08742461F
:1008A000DDE76346F1E7002A79D0B2FA82F3002B44
:1008B0003FD01946C1F1200302FA01F52EFA03F2E6
:1008C0000EFA01FE20FA03F343EA0E034FEA154E37
:1008D00000FA01F4B2FBFEFCAFB20EFB1C201A0CB6
:1008E0000CFB07F842EA004290455AD9AA180CF1CD
:1008F000FF3004D2904502D9ACF102002A44A2EBA9
:1009000008029BB2B2FBFEFC0EFB1C220CFB07F79D
:1009100043EA02439F4246D9EB180CF1FF3204D25E
:100920009F4202D9ACF102022B44DB1B42EA004297
:1009300002E0AEEB020301224FEA154EAFB2B3FB69
:10094000FEFC200C0EFB1C330CFB07F840EA0343B3
:1009500098452AD9EB180CF1FF3004D2984502D9FA
:10096000ACF102002B44A3EB0803A4B2B3FBFEFCE2
:100970000EFB1C330CFB07F744EA0344A74216D9CD
:100980002C190CF1FF3304D2A74202D9ACF10203B7
:100990002C44E41B43EA00400F46114678E71F2130
:1009A00088E76046ABE76246BFE76046DBE7634641
:1009B000EFE7734506D916B9002108466DE7C6E989
:1009C000000EF9E7B3FA83F787B9734501D3824282
:1009D00007D8841A6EEB030301209C461EB9002140
:1009E0005BE73846FAE7C6E9004CF8E7C7F1200CA8
:1009F000BB4022FA0CF51D4320FA0CF12EFA0CF341
:100A00000EFA07FE41EA0E014FEA154900FA07F413
:100A1000B3FBF9F81FFA85FE09FB18300B0C08FB35
:100A20000EFA43EA00439A4502FA07F240D9EB185E
:100A300008F1FF3004D29A4502D9A8F102002B44F4
:100A4000A3EB0A0389B2B3FBF9F809FB183308FBDF
:100A50000EFE41EA03418E452CD9691808F1FF3397
:100A600004D28E4502D9A8F10203294443EA00408A
:100A7000A0FB0298A1EB0E014145CE46434602D3AE
:100A800006D14C4504D2B9EB020E68EB05030138E0
:100A9000002EA4D0B4EB0E0261EB030101FA0CFCB2
:100AA00022FA07F34CEA0303F940C6E9003196E75E
:100AB0004046C5E74346D9E710B584B0002301930B
:100AC0000293ADF80C3001AC0A222146084B18689D
:100AD0000AF090FB02462146064B18680AF006FB16
:100AE00000F010FB4FF49670002108F03FFCEAE79D
:100AF0007C070020600700200023032B0DD803EBA8
:100B00004302074931F81220824201D00133F4E751
:100B100003EB430301EB430070470020704700BF25
:100B200018EB0008FF2805D008B5034B1B6803B17C
:100B3000984708BD704700BF5806002010B5044C08
:100B400023689878FFF7EEFF0023236010BD00BFF5
:100B50005406002008B5034B1B681879FFF7E2FF25
:100B600008BD00BF5006002038B58568C088FFF773
:100B7000C3FF002842D00446012D3CD1204B1B6806
:100B800083421AD0E378FF2B31D01E4D284607F060
:100B9000A1F81B4B1C604FF47A620023284606F034
:100BA000FFFF2379FF2B29D0174B1C604FF4FA521B
:100BB0000023164806F0F4FF20E0124807F08AF8F8
:100BC0000028DFD1114807F085F80D4B00221A608C
:100BD000E078FFF7A7FF2379FF2B0FD00A4B1C60AB
:100BE0004FF4FA520023094806F0DAFF06E0A07835
:100BF000FFF798FFD5E7054807F06CF838BD00BF50
:100C00005406002030020020500600200002002080
:100C100008B50549054806F00DFF0549054806F0E9
:100C200009FF002008BD00BF3D0B00083002002076
:100C3000550B000800020020014B1860704700BFF0
:100C40005806002090F82530064AA2FB031202F055
:100C5000FC0101EB92029B1ADBB2034A52F823001B
:100C6000704700BFCDCCCCCC441D010808B5054869
:100C700001F0A6F90448FFF7DFFF044B01221A70C8
:100C8000002008BDACE70008290F0008450F002030
:100C900000B583B00B468DF8042000228DF80520A6
:100CA000024601A902480BF06EF803B05DF804FBA0
:100CB000ACE700082DE9F0410646384C00212046FB
:100CC00001F070F900231A46316820460BF05BF8FA
:100CD0003469002302E064690133DBB2727E9A4218
:100CE00001D9002CF7D130460AF0E4F980460027FC
:100CF00019E02B4600222A4928480BF044F825E049
:100D000020460AF05CF958B32B460E2225492348A9
:100D10000BF039F82B462022216820480BF033F8DD
:100D200064690137FFB214B3022F20D83D01EDB240
:100D30001235EDB2737E3B44DBB2327E9A42D8D09C
:100D40002B460022184915480BF01DF82369002B8B
:100D5000D6D02B460E22154910480BF014F8D9E7CF
:100D60002B460E2212490D480BF00DF8D2E7B8F1D0
:100D7000030F05D9737E2BB9737E0333434507DB1D
:100D8000BDE8F0815E2212217820FFF781FFF3E7B2
:100D9000762232217820FFF77BFFF1E7ACE70008ED
:100DA00030EB00083CEB000834EB000838EB00089F
:100DB00040EB00082DE9F04782B08046894617468F
:100DC0001D4600211046FFF7B1FC40B9BA46504617
:100DD000FFF7D4FC06464FF0000C012407E007F1B2
:100DE000004AF4E704EB840464000CF1010CAC4508
:100DF000F8DB3046FFF7F8FB01465046FFF73EFBB5
:100E000082462046FFF7F0FB01465046FFF77EFA88
:100E10004FF07C51FFF734FBFFF7B0FC8246844271
:100E200002DC0136A0EB040A00213846FFF77EFC05
:100E300058B9CDF804A000953346094A49464046C2
:100E400009F028FB02B0BDE8F087CDF804A00095BA
:100E50003346044A4946404609F01CFBF2E700BF0E
:100E600050EB000844EB0008F8B50C46154690F826
:100E7000243043B9C26932B11368154A2946204665
:100E800009F008FB06E0012B05D02D2323706370C9
:100E90000023A370F8BD036A002BF6D01E6830460D
:100EA000FFF76CFC0746FFF79FFB3146FFF734FC6A
:100EB00030B13B46064A2946204609F0EBFAE9E7FD
:100EC0000223324629462046FFF774FFE2E700BFBF
:100ED00058EB000810B4044608460A600B71019BE9
:100EE0008B60CC6000230B614B610B764B76CB6142
:100EF0000B6281F82430012281F825208B62CB62BD
:100F000034B123694BB11A465B69002BFBD15061A8
:100F1000044B1B681BB110BC70472161F8E7014B03
:100F20001860F8E77C06002010B5704B1C68002C98
:100F300000F0D380052800F2D080DFE810F0340004
:100F4000060062009100B300CA00694B1B781BB118
:100F500020460AF034F8F8B92369002B00F0BD8070
:100F600020460AF0A7F8002800F0B780237E01335E
:100F700093FBF0F100FB1133DBB22376627E023289
:100F80009A4201DA9A1E6276627E934200D26376BA
:100F9000584B01221A70A0E020460AF056F8554B33
:100FA00001221A7099E0524B1B781BB120460AF0BF
:100FB00006F8E0B92369002B00F08F8020460AF084
:100FC00079F8002800F08980237EBBB9421ED3B295
:100FD0002376627E9A4200D96376627E02329A421A
:100FE00001DA023B6376434B01221A7075E020461A
:100FF00009F0F6FF3F4B01221A706EE0013BDBB2B5
:10100000E6E72269F2B1002302E052690133DBB264
:10101000217E994201D9002AF7D1002A5DD0364BB2
:101020001B68062B05DC013333490B60334941F85B
:1010300023402E4B1A602E4B00221A702D4B01229A
:101040001A704AE0204609F0BAFF002845D0284A25
:10105000137883F001031370264B01221A703CE0D1
:10106000234B1B7833B1224B00221A70214B0122F3
:101070001A7032E0204B1B68002B0BDB591E1E4AF6
:1010800011601E4A52F82320184B1A60194B012296
:101090001A7022E0E36803B3144A1360154B01226F
:1010A0001A701AE0124B1B78BBB1204609F087FF7B
:1010B00098B194F825200132114B83FB02135B1089
:1010C00003EB8303D31A84F825300A4B01221A70EC
:1010D00003E0204609F073FF00B910BD204609F077
:1010E000F2FF044B01221A70F7E700BF7C060020D4
:1010F000440F0020450F0020500100205C06002016
:10110000676666663F4B1B78002B7AD03E4B1B68A8
:10111000002B76D030B58BB000213A4B19703B488C
:1011200000F028FF384B1868036933B1FFF7C2FDA0
:10113000364800F0C1FE0BB030BD8368002B3ED0B6
:101140009847314B186809F03AFF0028F0D02F4C2F
:101150000021204600F026FF05AD142229462A4B27
:101160001868FFF781FE30230022294620460AF046
:101170000AFE274B1B78002B3CD0234B1868FFF747
:1011800061FD0446FFF7FAFA0546FFF72DFA2146FE
:10119000FFF7C2FA08B32B461E4A0C2102A809F039
:1011A00079F91A4C30233C2202A920460AF0EBFDC3
:1011B00030236422184920460AF0E5FDB8E7134CB5
:1011C0000021204600F0EEFE0F4B19681823002284
:1011D000096820460AF0D7FDB3E70223224608211A
:1011E0006846FFF7E7FD6B460C4A0C2102A809F0A0
:1011F00051F9D6E730234822094904480AF0C3FDD3
:1012000096E77047450F00207C060020ACE70008F9
:10121000440F00205CEB00086CEB000864EB000856
:1012200074EB000870B582B0164D0024009423467C
:10123000154A29462046FFF74DFE144E00942346DA
:10124000134A31462846FFF745FE124B009301230F
:10125000114A12493046FFF73DFE114D114B0093E4
:101260000123114A29463046FFF734FE0F4BEB614C
:1012700085F82440AC626423EB6232232B63204662
:1012800002B070BD280700207CEB0008F0060020AB
:1012900084EB0008D11200088CEB0008B80600208F
:1012A00080060020B112000894EB000854010020D1
:1012B00038B50446054D0021284600F073FE002392
:1012C0001A46216828460AF05EFD38BDACE70008E2
:1012D00038B50546084C0021204600F063FE002387
:1012E0001A46296820460AF04EFD142300220349BD
:1012F00020460AF048FD38BDACE700089CEB00082A
:1013000010B550B1836815498B4216D214498B42EF
:1013100013D31B6C03B1984710BD124C40F25B1302
:101320002246114911480AF0C3F811480AF0C0F8E2
:1013300040F25B1120460AF0B2F80A4C40F25B130F
:1013400022460C4909480AF0B3F80B490B480AF049
:10135000AFF840F25B1120460AF0A1F8C0EA00089D
:101360005CEA0008ACEB0008ECEB000800EC0008BD
:1013700020EC000834EC000874ED00087CED000857
:1013800010B550B1836815498B4216D214498B426F
:1013900013D35B6B03B1984710BD124C40F231136D
:1013A0002246114911480AF083F811480AF080F8E2
:1013B00040F2311120460AF072F80A4C40F2311323
:1013C00022460C4909480AF073F80B490B480AF009
:1013D0006FF840F2311120460AF061F8C0EA0008C7
:1013E0005CEA0008ACEB0008ECEB000800EC00083D
:1013F00020EC000834EC000874ED00087CED0008D7
:1014000010B550B1836815498B4216D214498B42EE
:1014100013D3DB6D03B1984710BD124C4FF4DE734C
:101420002246114911480AF043F811480AF040F8E1
:101430004FF4DE7120460AF032F80A4C4FF4DE73A6
:1014400022460C4909480AF033F80B490B480AF0C8
:101450002FF84FF4DE7120460AF021F8C0EA0008A8
:101460005CEA0008ACEB0008ECEB000800EC0008BC
:1014700020EC000834EC000874ED00087CED000856
:1014800010B550B1836817498B4216D216498B426A
:1014900013D3DB6B13B3984710BD144C40F24B13BE
:1014A0002246134913480AF003F813480AF000F8DB
:1014B00040F24B11204609F0F2FF0C4C40F24B1366
:1014C00022460E490B4809F0F3FF0D490D4809F07B
:1014D000EFFF40F24B11204609F0E1FF6FF057009B
:1014E000DAE700BFC0EA00085CEA0008ACEB0008DD
:1014F000ECEB000800EC000820EC000834EC0008DD
:1015000074ED00087CED000810B560B18446836876
:101510001548834215D21548834212D3DB6AFBB1CA
:101520006046984710BD124CE923224611491248E3
:1015300009F0BEFF114809F0BBFFE921204609F080
:10154000AEFF0B4CE92322460D490B4809F0B0FFD2
:101550000C490D4809F0ACFFE921204609F09FFF36
:101560006FF05700DEE700BFC0EA00085CEA000841
:10157000ACEB0008ECEB000800EC000820EC0008E5
:1015800034EC000874ED00087CED000810B550B193
:10159000836815498B4216D214498B4213D39B6B37
:1015A00003B1984710BD124C4FF49F732246114966
:1015B000114809F07DFF114809F07AFF4FF49F713F
:1015C000204609F06CFF0A4C4FF49F7322460C49E9
:1015D000094809F06DFF0B490B4809F069FF4FF40A
:1015E0009F71204609F05BFFC0EA00085CEA000832
:1015F000ACEB0008ECEB000800EC000820EC000865
:1016000034EC000874ED00087CED000810B550B112
:10161000836817498B4216D216498B4213D3DB6C71
:1016200013B3984710BD144C4FF4C27322461349AC
:10163000134809F03DFF134809F03AFF4FF4C27117
:10164000204609F02CFF0C4C4FF4C27322460E4981
:101650000B4809F02DFF0D490D4809F029FF4FF403
:10166000C271204609F01BFF6FF05700DAE700BF98
:10167000C0EA00085CEA0008ACEB0008ECEB0008EC
:1016800000EC000820EC000834EC000874ED0008C1
:101690007CED000810B560B184468368174883422A
:1016A00017D21748834214D31B6B1BB3604698476D
:1016B00010BD144C40F20D1322461349134809F093
:1016C000F7FE134809F0F4FE40F20D11204609F030
:1016D000E6FE0C4C40F20D1322460E490B4809F071
:1016E000E7FE0D490D4809F0E3FE40F20D112046DA
:1016F00009F0D5FE6FF05700DAE700BFC0EA000836
:101700005CEA0008ACEB0008ECEB000800EC000819
:1017100020EC000834EC000874ED00087CED0008B3
:1017200038B578B1B0FA80F464098368194DAB42DA
:101730001BD2194DAB4218D3A3B11B6E33B39847DC
:10174000204638BD154C4FF4E47322461449154821
:1017500009F0AEFE144809F0ABFE4FF4E4712046E8
:1017600009F09DFE6FF05704EAE70C4C4FF4E47368
:1017700022460E490B4809F09BFE0D490D4809F021
:1017800097FE4FF4E471204609F089FE6FF057048C
:10179000D6E700BFC0EA00085CEA0008ACEB00082E
:1017A000ECEB000800EC000820EC000834EC00082A
:1017B00074ED00087CED000810B50C4641608260B5
:1017C000C36000230374044B03600246034920688E
:1017D000FFF7A6FF10BD00BF8425010875B1000802
:1017E00010B50A4B1B680A4A12680A490A48FFF7F3
:1017F000E3FF044608B1204610BD0748074B1860B8
:101800004FF47A7109F07DFCF5E700BF78070020FE
:101810007C0700208C250108640700206007002059
:10182000B1F5004F09D20161026000230381C3803A
:101830008380C38183814381704710B5064CC323E5
:1018400022460649064809F033FE064809F030FEF4
:10185000C321204609F023FE94ED0008C8ED0008DE
:1018600000EC0008E0ED000810B50B4C0B4B4FF4FA
:1018700000720B49204609F0B4FC0A4B1C600A4C6C
:101880000A4B4FF400720A49204609F0AAFC094BA2
:101890001C60002010BD00BF980B002018EE00084F
:1018A000800900207C070020800B002020EE00082B
:1018B000800700207807002070B5B2F5802F31D264
:1018C0000346042A3ED9043AC81D20F007000A4402
:1018D00022F00702121AD608172A43D91860866028
:1018E0000023C360B6FA86F1C1F1200EC1F12405D0
:1018F000AD000735E9084B1CB34294BF0023012318
:10190000002B45D0354C40F233332246344935481C
:1019100009F0CEFD344809F0CBFD40F233312046CA
:1019200009F0BDFD2D4C40F20A3322462F492D48C7
:1019300009F0BEFD2E4809F0BBFD40F20A312046F9
:1019400009F0ADFD254C40F21133224629492548C6
:1019500009F0AEFD244809F0ABFD40F211312046FC
:1019600009F09DFD1D4C40F21D33224622491D48C1
:1019700009F09EFD1C4809F09BFD40F21D312046F8
:1019800009F08DFD03F1040C002440F82C400133D4
:101990007345F7DB1FFA81FC4FEA4C039BB243808F
:1019A0000024048043F001034380731A25F00705E7
:1019B000AE1C9BB24FEA430E20F806E020F805C0AB
:1019C00022F00705961C845302444353538843F086
:1019D0000103538009F0C8FC70BD00BF28EE000869
:1019E00024EF000800EC0008DCEE000888EE000898
:1019F000A0EE0008B8EE0008F8EE000808B50248AE
:101A000009F03FFD002008BD50EF000808B5024B6B
:101A10001B68984708BD00BF58010020014B1860A3
:101A2000704700BF5801002000B585B084460A46C3
:101A300068460023009301930293039302238DF8D9
:101A40000230044B0193614608F0D6FD05B05DF805
:101A500004FB00BF0D1A00082DE9F04182B080465A
:101A60000E46154600272A4601A9404609F04FFDBB
:101A7000044640B1024631460198FEF7ADFB2744CB
:101A800026442D1BEFD13A4608F10401404609F0E7
:101A900063FD18B9384602B0BDE8F081054C492312
:101AA00022460549054809F003FD4921204609F071
:101AB000F6FC00BF8CEF0008B8EF000800EC00084F
:101AC0002DE9F04182B080460E461546002702E01F
:101AD00027442D1B0FD02A4601A9404609F02AFDB4
:101AE000044640B1002EF3D0024601993046FEF77D
:101AF00073FB2644ECE73A4608F10A01404609F038
:101B00002BFD18B9384602B0BDE8F081054C6423BE
:101B100022460549054809F0CBFC6421204609F01E
:101B2000BEFC00BF8CEF0008B8EF000800EC000816
:101B3000034A536843F0020353600020704700BF1C
:101B4000002004E008B5024909F027FD08BD00BFE8
:101B50005D1C000810B560B10246836815488342D9
:101B600015D21548834212D31B68FBB11046984723
:101B700010BD124CB62322461149124809F098FCB8
:101B8000114809F095FCB621204609F088FC0B4C61
:101B9000B62322460D490B4809F08AFC0C490D4832
:101BA00009F086FCB621204609F079FC6FF0570059
:101BB000DEE700BF28EA00080CEA0008C4EF0008CE
:101BC000ECEB000800EC000820EC000800F0000836
:101BD0007CF100087CED000810B560B10246836816
:101BE0001548834215D21548834212D35B68FBB176
:101BF0001046984710BD124CCC232246114912487A
:101C000009F056FC114809F053FCCC21204609F09C
:101C100046FC0B4CCC2322460D490B4809F048FCEE
:101C20000C490D4809F044FCCC21204609F037FC52
:101C30006FF05700DEE700BF28EA00080CEA000852
:101C4000C4EF0008ECEB000800EC000820EC0008F2
:101C500000F000087CF100087CED000808B50B4698
:101C600041680C31012B11D007D81BB90948FFF787
:101C7000B3FF0EE06FF085000BE0023BDBB2012BFF
:101C800001D8002005E06FF0850002E00148FFF771
:101C900061FF08BD08E6000810B5082808D8064B03
:101CA00053F8204020460CF0B2FA18B1204610BD7F
:101CB0000024FBE70024F9E744260108084B1A68D2
:101CC00042F480721A601A6842F400721A601A684C
:101CD00042F480621A60034B034A1A60704700BFE7
:101CE000003C0240840100200024F400014B03600A
:101CF000002070476826010870B544798C4279D974
:101D000090F806C0944577D92346644528BF6346BA
:101D1000022B03D99D1EC5F3470500E00025374877
:101D2000A0FB0303DB08AB4228BF2B46E01AC0B27E
:101D3000ACEB030C5FFA8CFC5D1CA84204D9C41AFE
:101D4000013CC4F3470400E00124654505D2ACEB37
:101D50000305013DC5F3470500E00125A0EB030E97
:101D6000ACEB0306B645A8BFB646244EA6FB0E6EE6
:101D70004FEADE0EBEF1010F38BF4FF0010EAC424C
:101D800028BF2C46A64528BFA646994207D38142C4
:101D900011D29A4211D3624511D3002400E00024ED
:101DA0005FFA8EFE734499420BDBA0EB0E0081427A
:101DB00010DB012106E00024F2E70024F0E7012413
:101DC000EEE70121934207DCACEB0E0C624509DB28
:101DD000012302E00021F5E701232CB131B93BB921
:101DE000002008E00023F8E7002004E0012002E0E2
:101DF000012000E0002070BD0020FCE7CDCCCCCC61
:101E00002DE9F04F83B01E469DF83080294B9F6826
:101E1000002F49D0894614461B68002B47D0254B1C
:101E20009B7D03EB430307EB83070846FEF768F946
:101E30008246002514E01F4B9B7B13F0010F1FD03F
:101E40001C4890F917B0A4B219F80510CDF800801D
:101E5000B3B2224609F0DDFE83445C4424B201356E
:101E600055451DD27A792244124B1B8A9A42E2DDF3
:101E7000B8F1000FDFD0BB7933441EB20024DAE79B
:101E80000C4890F917B0A4B219F80510CDF80080ED
:101E9000B3B2224609F0DDFE83445C4424B2DEE79F
:101EA000002003B0BDE8F08F6FF01200F9E76FF08B
:101EB0001200F6E7400C002070B586B08568274B0D
:101EC0009D4229D20446264B9D4225D3254B1968B5
:101ED00000293FD00023039304930593214B5A68B4
:101EE00003921A8AADF81020588AADF81200ADF8A6
:101EF00014209A89042A14BF002201221B7E9A42D0
:101F000017D1AD68009103AB002211462046A847C7
:101F10000446204606B070BD134C40F2C72322464B
:101F20001249134809F0C4FA40F2C721204609F0CB
:101F3000B6FA0C4E304609F016FFAD6833680093D0
:101F400003AB002211462046A8470446304609F05C
:101F50000AFFDEE76FF01204DBE700BF5CEA00086F
:101F600028EA0008400C00201CF2000840F200089B
:101F700000EC000838B50546094B186860B10C46FE
:101F80005A68002108F01CFA0CB9002038BD284618
:101F9000FFF792FF0020F9E76FF01200F6E700BFAD
:101FA000400C0020054B5B7D8B4203D9034B997598
:101FB000002070476FF01500704700BF400C0020F4
:101FC00010B584B08368254A934236D2244A93429E
:101FD00033D31B6A69469847224C234A121B234B72
:101FE000A3FB0232D208224B5A75BDF800001882BA
:101FF000BDF80210598208221A75BDF80C209A818A
:102000009DF808209A730022DA751A769C609A75FA
:1020100001FB00F090420EDBC010154C606008F030
:1020200091F92060B0B1124B5A68002108F0C8F94C
:10203000002004B010BD0730EEE70E4C40F22D3307
:1020400022460D490D4809F033FA40F22D31204661
:1020500009F025FA6FF00B00EBE700BF5CEA00081F
:1020600028EA0008CCEA0008E4EA0008ABAAAAAA19
:10207000400C00201CF2000840F2000800EC0008B0
:1020800010B50C4B1B78012B04D100F011FD0A4B4D
:10209000185810BD094C40F28F33224608490948B0
:1020A00009F006FA084809F003FA40F28F31204699
:1020B00009F0F5F9470F00200800000094F300082C
:1020C000C0F3000800EC0008D4F3000880B5044613
:1020D0000D4616461F4607F089FA024600F0E8FC56
:1020E000044B1A503A4631462846A047FFF7C8FF2E
:1020F00000F06AFC0800000008B50348034A121A01
:10210000002109F048FE08BD00020020480F002011
:1021100008B50648064A121A064909F040FE064864
:10212000064A121A064909F03AFE08BD00000020CE
:1021300000020020B4290108000000200000002057
:10214000B429010810B5044683684268016809484B
:1021500009F097F963692269E168074809F091F984
:10216000E169064809F08DF9A169054809F089F986
:1021700010BD00BFF8F3000828F4000858F4000868
:1021800068F4000838B504460D4611B10846FFF75B
:10219000D9FF012C04D02946204604F0F5F838BDBB
:1021A000EFF305811039024809F06BF9F3E700BF3E
:1021B00098F4000830BFFFF7FDBF00BF38B50446F4
:1021C000054D2A460549FEF707F8054A0021601922
:1021D00008F0F6F838BD00BF00000000E4EA00088F
:1021E0000400000070B50646054D064B1D444C1B0F
:1021F0002046FFF7E3FF083C346705F1080070BD97
:1022000000000000040000008169104B5A6942F48C
:1022100080725A61BFF34F8FBFF36F8F31F8021C8A
:102220005A6922F480725A61BFF34F8FBFF36F8FE8
:1022300001F47F43B3F55F4F01D000207047C9B26E
:10224000022901D0002070470120704700ED00E016
:1022500008B54FF0000C83F800C0DDF808E08EF8F8
:1022600000C002F07F4CBCF17F4F11D102F00C0C8A
:10227000BCF1080F04D012F0080F06D0084608BDC4
:10228000044809F0FEF80020F9E701221A70F6E789
:102290000020F4E7ACF40008F8B505460F461446F4
:1022A0002F4809F0EEF82F4B9B6A13F4805F25D17D
:1022B00016262C4B9B6A13F4006F24D1294B9B6A82
:1022C00013F4007F24D1274B9B6A13F4806F37D11E
:1022D000244B9B6A13F4807F37D1224B9B6A13F403
:1022E000005F37D11F4A936A43F47F439362012111
:1022F000284609F064FD20703046F8BD1A4809F000
:10230000C0F81726D5E7194809F0BBF81826D5E715
:10231000174809F0B6F8134B996B9B6A13F4004FFA
:1023200001D11926CFE7134809F0ABF837B10D4AB0
:10233000936A23F4004393621926C4E71926C2E77F
:102340000D4809F09EF81A26C2E70C4809F099F8E2
:102350001B26C7E70A4809F094F81C26C2E700BF0D
:10236000D8F4000800ED00E0F0F4000804F50008DF
:1023700018F5000834F500084CF5000868F5000869
:1023800084F5000808B5244809F07BF8234B9B6AC4
:1023900013F0007F21D11D20204B9B6A13F0807F1A
:1023A00020D11E4B9B6A13F4002F20D11B4B9B6A3C
:1023B00013F4802F20D1194B9B6A13F4003F20D1D6
:1023C000164B9B6A13F4803F20D1144A936A6FEA3C
:1023D00003436FEA1343936208BD114809F051F8B3
:1023E0001E20D9E70F4809F04CF81F20D9E70E4806
:1023F00009F047F82120D9E70C4809F042F82220DB
:10240000D9E70B4809F03DF82320D9E7094809F03E
:1024100038F82420D9E700BFB4F5000800ED00E04B
:10242000D0F50008E4F5000800F6000820F60008E2
:1024300048F6000864F6000808B500230B7002484F
:1024400009F01FF808BD00BF90F6000808B50A465D
:102450000F2905DC0349103A034809F012F808BDBA
:102460000249F8E7B8F60008ECF60008D0F60008D4
:102470002DE9F04104460F461546494809F001F898
:10248000484B9B6A13F0100F3CD11026454B9B6ABA
:1024900013F0080F3BD1434B9B6A13F0020F3BD163
:1024A0006FF015083F4B9B6A13F0010F50D13D4B65
:1024B0009B6A13F0200F50D13A4B9B6A13F0100F18
:1024C00004D1384B9B6A13F0020F04D0354B5B6884
:1024D00013F4006F46D1334B9B6A13F0200F04D0E6
:1024E000304A536A23F4005353622E4A936A43F0EE
:1024F000FF0393620121204609F061FC28703046F9
:10250000BDE8F081284808F0BCFF1126BEE7274847
:1025100008F0B7FF1226BEE7254808F0B2FF214BAE
:10252000D3F834809B6A13F0800F03D16FF0150845
:102530001326B7E741461F4808F0A3FF37B1194AF1
:10254000936A23F0800393621326ABE71326A9E76F
:10255000194808F096FF1426A9E7184808F091FFDB
:102560001526A9E72146404609F060FCA0B90D4BAD
:102570009B6A13F0100FAED0114C4FF498732246A3
:102580001049114808F094FF104808F091FF4FF4EB
:102590009871204608F083FF80F3098802269AE7A5
:1025A00000F7000800ED00E018F7000804F5000847
:1025B0004CF7000868F7000880F7000884F5000869
:1025C000A0F70008D4F7000800EC000820F8000885
:1025D00070B506460D46364808F053FF00232B70B1
:1025E000344BDC6A14F0020423D1324BDB6A002B3B
:1025F00025DB304BDB6A13F0804F48D02E4808F0C3
:1026000040FF3046FFF700FEE8B92A4B9B6A13F003
:10261000FF0F1ED1274B9B6A13F47F4F20D1254B10
:102620009B6AB3F5803F22D33046FFF7ABFE0446EA
:1026300003E0224808F025FF0024204670BD204812
:1026400008F01FFFF9E731681E4808F01AFF3468E8
:10265000F3E72A4601213046FFF70AFF0446ECE77C
:102660002A4601213046FFF717FE0446E5E7164CDF
:1026700040F2033322461549154808F019FF154862
:1026800008F016FF40F20331204608F008FF0E4C18
:1026900040F2063322460D490D4808F009FF0E4866
:1026A00008F006FF40F20631204608F0F8FE00BFB1
:1026B00044F8000800ED00E090F800085CF800081D
:1026C00080F80008B0F80008A0F70008D0F800086B
:1026D00000EC0008D4F80008F8F8000830B58FB016
:1026E000244B5D68C5F30805002383F31188BFF30D
:1026F0006F8F0BAB00930DF13603FFF7A9FD68B1A7
:1027000004469DF82C300DF13702294609F059FB9B
:1027100005469DF837304BB10FB030BD164808F074
:10272000B0FE00210846FFF72DFDF5E70DF10C0C7A
:1027300020686168A268E368ACE80F0020696169FD
:10274000A269E369ACE80F009DF836304BB10A9BF3
:10275000C3F308024AB96FEA53236FEA43230A938B
:1027600003E00A9B6FF308030A9303A92846FFF7C7
:1027700009FDD1E700ED00E028F90008044B5A6993
:1027800042F010025A615A6922F008025A617047F9
:1027900000ED00E0EFF30880EFF3098101B5724628
:1027A000FFF79CFF01BD00BF0A4880F30888102096
:1027B00080F3118808484FF40461401880F30988B9
:1027C000EFF314800221084380F31488BFF36F8F66
:1027D00000F06AF880210020C01300201EF0040FD2
:1027E0000CBFEFF30880EFF30980816911F8021C38
:1027F0000229FFD001B5724609F0D5FA01BD00BF2C
:10280000002807DB00F01F02400901239340024A21
:1028100042F82030704700BF00E100E0002808DBEC
:102820000901C9B200F1604000F5614080F8001371
:10283000704700F00F000901C9B2014B19547047ED
:1028400014ED00E070B505460C4601310F2903D8A0
:1028500040B2FFF7E3FF70BD084E6B2332460849D4
:10286000084808F025FE0F232A462146064808F0AE
:102870001FFE6B21304608F012FE00BF68F9000809
:10288000A0F9000800EC0008BCF90008044B23F094
:102890007F03044A9360BFF34F8FBFF36F8F70477E
:1028A0000000000800ED00E008B5FFF7EFFF0B4A5D
:1028B000D2F8883023F47003C2F88830EFF3148321
:1028C00023F0040383F31488BFF36F8FFFF714FC26
:1028D000FFF71EFC00F0C2F803F000FF00ED00E07F
:1028E0000E4B9B68A3B110F1160F0AD01A6EA2F11D
:1028F000400C84450ED882420ED98A4206D8002068
:1029000070471A6E8A4201D800207047186E7047CF
:10291000002070470020704700207047EC0E002018
:1029200010B4A2F120040D4942F8081C21F0010165
:1029300042F8081C42F8203C019B42F81C3C029BD8
:1029400042F8183C039B42F8143C4FF0807342F865
:10295000043C04650023436710BC7047CD20000889
:1029600008B50E4615460B4A9060026F0A4B1A6076
:1029700000F0B2F82C4686F309880020034B9847F4
:102980002046002100220023014C20473BBE0008C6
:10299000CD200008EC0E00205C0C0020014B102222
:1029A0001A61704700ED00E0054B5A699B689A4236
:1029B00004D0044A536843F080535360704700BF0B
:1029C000EC0E002000ED00E008B50A4B9B68834246
:1029D00002D005F007FB08BDEFF30583002BF8D00C
:1029E000054B5A6842F080525A605A6A22F40042FB
:1029F0005A62EEE7EC0E002000ED00E014498A6810
:102A00004FF030001044EFF3098C80E8F01F1020E5
:102A100080F31288BFF36F8F0E4F4FF000664A6944
:102A20008A603E60106F0C4C2060506F002353672B
:102A300080F3118804B5104600F04EF8BDE804405C
:102A400002F1300090E8F01F8CF309887047000015
:102A5000EC0E002004ED00E05C0C0020002206E0FB
:102A600003F00F030949194410230B7601322F2A72
:102A70000ADC53B2002BF3DB03F1604303F561433F
:102A8000102183F80013F1E7704700BFFCEC00E071
:102A900008B5EFF30583103B044A02EBC301496814
:102AA00052F833008847FFF77FFF08BDE4E70008CE
:102AB00001480068704700005C0C002008B5034B1B
:102AC000034A0121034800F0A1F908BD00000220DB
:102AD000000000206826010808B5036E403B054849
:102AE000036040234360044B8360012100F0B0F990
:102AF00008BD00BF600C002000000B15084AC2F89A
:102B000098000B6823F01F03034343F01003C2F83F
:102B10009C308B6843F00103C2F8A030704700BFBF
:102B200000ED00E0084BD3F89030C3F30723013BDE
:102B3000984205D810B50446FFF7E0FF204610BDC7
:102B40006FF01500704700BF00ED00E010B5034CBA
:102B50000123227809F0B5F9207010BD460F00203E
:102B600008B500230B4A127809F0ABF910F1160FE3
:102B70000FD0024606E0084BC3F898200021C3F8A6
:102B8000A0100132044BD3F89030C3F307239342D3
:102B9000F1DC08BD460F002000ED00E0F0B585B087
:102BA000054603A8FFF7A2F80646002438E0B3F173
:102BB000007F00F0CC80B3F1805F00F0E580B3F1DE
:102BC000807F2CD1506851F80C109368202B40F274
:102BD000BA80B3F1004F00F2B880013BB3FA83F33F
:102BE000C3F11F035B0003F03E0343F0885343F43B
:102BF000801300900191029307E0082343F088536B
:102C000043F4302300900191029369462878FFF73E
:102C100089FF0028C0F2D5802B7801332B70013456
:102C2000B44280F0D1804FEA041C039901EB0412F6
:102C3000D068030D1B05B3F5000F67D0B7D8B3F507
:102C4000001F19D0B3F5800F43D0B3F5801FE6D134
:102C5000506851F80C109368202BCED9B3F1004F77
:102C600008D8013BB3FA83F3C3F11F035B0003F001
:102C70003E03C3E73E23C1E7576851F80C10936841
:102C8000202B22D9B3F1004F21D8013BB3FA83F3B3
:102C9000C3F11F035B0003F03E0343F0885343F48A
:102CA000002300970191029310F0010FADD0484C22
:102CB000952322464749484808F0FAFB474808F060
:102CC000F7FB9521204608F0EAFB0823E5E73E23C1
:102CD000E3E7506851F80C109368202B12D9B3F138
:102CE000004F11D8013BB3FA83F3C3F11F035B001C
:102CF00003F03E0343F0C06343F4003300900191BE
:102D0000029382E70823F5E73E23F3E7506851F882
:102D10000C109368202B12D9B3F1004F11D8013B4E
:102D2000B3FA83F3C3F11F035B0003F03E0343F0E8
:102D3000885343F4802300900191029365E70823B0
:102D4000F5E73E23F3E708234FE73E234DE75068BE
:102D500051F80C109368202B12D9B3F1004F11D801
:102D6000013BB3FA83F3C3F11F035B0003F03E039F
:102D700043F0805343F4802300900191029344E791
:102D80000823F5E73E23F3E7506851F80C109368E9
:102D9000202B12D9B3F1004F11D8013BB3FA83F3C2
:102DA000C3F11F035B0003F03E0343F0885343F479
:102DB000003300900191029327E70823F5E73E23B3
:102DC000F3E76FF0150000E0002005B0F0BD00BF94
:102DD000FCF900082CFA000800EC000854FA00087E
:102DE000044B0522C3F89420BFF34F8FBFF36F8FBE
:102DF000704700BF00ED00E0BFF35F8F024B002281
:102E0000C3F89420704700BF00ED00E038B50C46D1
:102E1000FFF79CFE10F1160F00D038BD084D40F2B0
:102E200071132A460749084808F042FB2146074823
:102E300008F03EFB40F27111284608F030FB00BF5D
:102E4000FCF90008D0F8000800EC000884FA00083B
:102E500038B50C46FFF784FE10F1160F00D038BDD0
:102E6000084D4FF4C8732A460749084808F020FB6C
:102E70002146074808F01CFB4FF4C871284608F0AB
:102E80000EFB00BFFCF90008D0F8000800EC0008B9
:102E9000B0FA000838B5394B1D68394BD3F890307B
:102EA000C3F307239D4203D8FFF7A6FF00241FE0CA
:102EB000344C4FF4F57322463349344808F0F8FA9D
:102EC0002F4BD3F89020C2F307222946304808F050
:102ED000EFFA4FF4F571204608F0E1FA274B5B68F2
:102EE00004EB440103EB81012046FFF707FE0134A8
:102EF000A542F3D827480570FFF750FE10F1160FD2
:102F000010D0244B1A781E4BD3F89030C3F307230C
:102F10009A4217DA1A4BC3F898200021C3F8A01080
:102F20000132F0E7174C40F22D232246164917488C
:102F300008F0BEFA184808F0BBFA40F22D212046EE
:102F400008F0ADFAFFF74CFF0D4BD3F8903003F4C7
:102F50007F43B3F5006F01D1002038BD094C40F22A
:102F6000752322460D49094808F0A2FA0C4808F0DA
:102F70009FFA40F27521204608F091FA7426010864
:102F800000ED00E0FCF90008D0F8000800EC0008B3
:102F9000E0FA0008460F002014FB000840FB000880
:102FA00090FB000808B5024B1B689847002008BD3D
:102FB0006C0C0020034B1860034A937843F0020323
:102FC000937070476C0C00205C01002008B5064926
:102FD00021F00701C1F1005202F500320348FEF76B
:102FE0006BFC002008BD00BF0B2F0020700C0020E0
:102FF00010B50C4B1B78012B04D1FFF759FD0A4B80
:10300000185810BD094C40F28F3322460849094830
:1030100008F04EFA084808F04BFA40F28F3120468B
:1030200008F03DFA470F00200800000094F3000864
:10303000C0F3000800EC0008D4F3000838B50546DA
:10304000114C04E06368A168284698470C340F4B84
:103050009C4209D80D4B9C4214D22368002BF1D01E
:103060002A689342F2D1EDE7094C1623224609491A
:10307000094808F01DFA094808F01AFA16212046F6
:1030800008F00DFA38BD00BFC0EA0008CCEA00081D
:10309000C4FB0008ECFB000800EC000814FC00086E
:1030A00000B585B04FF0FF324FF0FF3301A904485F
:1030B00003F0C0FC0028F5D101A8FFF7BFFFF1E73E
:1030C000D401002030B585B00A9D0B9C01909DF87D
:1030D00020008DF808008DF80910ADF80A20039340
:1030E00054EA050306D0FFF783FF094BD3F880307D
:1030F00083420AD02A46234601A906480BF0A2F8CB
:10310000002800DB002005B030BD00252C46F1E78B
:1031100010050020D401002010B560B1024683687C
:103120001548834215D21548834212D31B68FBB160
:103130001046984710BD124CB6232246114912483A
:1031400008F0B6F9114808F0B3F9B621204608F0A6
:10315000A6F90B4CB62322460D490B4808F0A8F9F6
:103160000C490D4808F0A4F9B621204608F097F95B
:103170006FF05700DEE700BF28EA00080CEA0008FD
:10318000C4EF0008ECEB000800EC000820EC00089D
:1031900000F000087CF100087CED000800B583B069
:1031A000054A92E80300CDE9000169460348FFF7AC
:1031B000B3FF03B05DF804FBE8EA000808E6000886
:1031C00000F01F02012393401F2806D8044A5269C9
:1031D00093430CBF0120002070470020704700BFC0
:1031E000003C014000F01F02012393401F2803D838
:1031F000034A5361002070476FF01500704700BF0D
:10320000003C0140002399420ADD10B400EB030C9E
:10321000044C04F80C2001339942F7DC10BC7047D1
:10322000704700BF6C010020F8B50746002401E09C
:103230000134E4B27B78A34217D93D786619304651
:10324000FFF7BEFF0028F3D03046FFF7CBFF074B58
:1032500053F83620002AEBD006F01F0503EBC60317
:1032600059680120A8409047E2E7F8BD7C0C002097
:1032700010B558B10346421E024207D1A0B923B38C
:10328000B3FA83F0C0F11F00C0B210BD104C602330
:1032900022461049104808F00BF9104808F008F9C8
:1032A0006021204608F0FBF8B0FA80F2C2F11F025C
:1032B0000F2AE4DD064C612322460949064808F03E
:1032C000F7F86121204608F0EAF8FF20DDE700BFAB
:1032D000A0FC0008E4FC000800EC00081CFD00084D
:1032E00048FD00085FFA81FC0CF102020A4B53F81A
:1032F00022200B0C22EA114193FAA3F34BB1B3FA4B
:1033000083F3984001430CF1020C034A42F82C105D
:1033100070472023F5E700BF00380140C3B20233F5
:10332000074A52F82320030C02EA104093FAA3F351
:103330001BB1B3FA83F3D84070472023FBE700BFEB
:103340000038014010B50446FFF792FF044B1856B1
:10335000044B1A6814431C6008F05DFD10BD00BFEB
:103360006C010020003C0140024A136823EA00037C
:1033700013607047003C0140032927D8DFE801F0C3
:10338000020C151E184B9A6822EA00029A60DA684D
:1033900022EA0002DA607047134B9A6802439A608F
:1033A000DA6822EA0002DA6070470F4BDA680243FB
:1033B000DA609A6822EA00029A6070470A4B9A68BB
:1033C00002439A60DA681043D860704710B5074C22
:1033D0004FF4817322460649064808F069F84FF415
:1033E0008171204608F05BF8003C0140A0FC000819
:1033F000D0F8000800EC000838B50C461546FFF779
:1034000037FF0C4B53F83030A34208D07BB9094B3F
:1034100043F8304003EBC0035D60002038BD054A2F
:1034200002EBC0025268AA42F0D10020F6E76FF02A
:103430000F00F3E77C0C002008B5FFF719FF044BE1
:10344000002243F8302003EBC0035A6008BD00BFE0
:103450007C0C00200C4B1B6813F0020F09D10A4AA8
:10346000136843F001031360074B1B6813F0020F4E
:10347000FAD0054A936823F003039360024B9B68DC
:1034800013F00C0FFAD17047003802400C4B1A6849
:1034900022F480221A601A6842F480321A60084BC3
:1034A0001B6813F4003FFAD0054A536F43F0010341
:1034B0005367034B5B6F13F0020FFAD0704700BFE6
:1034C0000038024039B133B1B0FBF1F000FB02F239
:1034D000B2FBF3F0704710B5054C4723224605496F
:1034E000054807F0E5FF4721204607F0D8FF00BF59
:1034F000C4FD000808FE000800EC0008F8B50C4602
:103500001546434B1E680421304608F074FD0746FB
:103510000221304608F06FFD2388C3F30B010B46F0
:10352000442929D809B2002969D0013B432B69D825
:10353000DFE803F03D53565A5D3F496868686868A4
:103540006868686868686868606368686868686808
:1035500068686868686868686868686868686868EB
:103560006868683568686835686868376868686872
:10357000686868396868683BA8290DD12E6023689F
:10358000B3F5805F41D32A68C3F313330133B2FB31
:10359000F3F22A60002037E06FF0850034E02E60FF
:1035A000EDE72E60EBE72F60E9E72860E7E72E60A4
:1035B000E5E700F0CBF802234FF4A8720821FFF7EB
:1035C00081FF2860DBE700F0C1F807234FF4A87201
:1035D0000821FFF777FF2860D1E700232B60CEE7B3
:1035E0004FF4FA432B60CAE700232B60C7E7094B6F
:1035F0002B60C4E77F002F60C1E72E60BFE76FF04C
:10360000850001E06FF08500F8BD0020FCE700BFF9
:103610008401002000127A0008B51A4B9B6803F061
:103620000C03082B25D0174A136823F0807313600E
:10363000144B1B6813F0007FFAD1134AD2F80438F8
:1036400023F44033C2F80438D2F8043823F070630E
:1036500043F0E063C2F8043800F07CF8094A1368CC
:1036600043F080731360074B1B6813F0007FFAD0A0
:1036700008BDFFF7EFFE034A936823F0F003936061
:10368000D1E700BF0038024000300240162806D8BB
:10369000064BC34013F0010F04D0002070476FF0B9
:1036A000850070476FF08500704700BFEA0060003A
:1036B00038B500F071F8214C204608F019FD02F0F1
:1036C00013FD1F4B9B68C3F303131E4AD35C20FA00
:1036D00003F513781C41A54228D3FFF7D7FEFFF767
:1036E0009BFF174A936823F0F0039360936823F0DD
:1036F000030343F002039360114B9B6803F00C0338
:10370000082BF9D1A54215D20F4B0C4A1A600C4A6E
:10371000936823F4E05343F4A0539360936823F435
:10372000604343F400439360002038BD204602F01C
:1037300093FDD2E7204602F08FFDE5E7007A030A09
:1037400000380240742901088401002000487047B5
:1037500000127A0008B508F0CCFC0B4B59680B4AF4
:103760000A4040F4A84141F008010A435A605A68EF
:1037700022F440325A605968054A0A40054901431B
:103780000A435A6008BD00BF003802400080BFFFF6
:103790000080BFF00854000782B0064B1A6C42F05C
:1037A00080521A641B6C03F080530193019B02B09A
:1037B000704700BF0038024010B5044C2046FFF7A8
:1037C000F9FB2046FEF72AF910BD00BF6938000852
:1037D00008B505480AF01BFD18B1FFF7EDFF002002
:1037E00008BD6FF01200FBE774E7000810B558B190
:1037F000024683681348834214D21348834211D38C
:10380000DB691046984710BD104CB823224610497A
:10381000104807F04DFE104807F04AFEB821204638
:1038200007F03DFE094CB82322460C49094807F031
:103830003FFE0B490B4807F03BFEB821204607F03E
:103840002EFE00BFC0EA00085CEA0008ACEB0008EE
:10385000ECEB000800EC000820EC000834EC000859
:1038600074ED00087CED000810B504460A2805D068
:10387000E1B20548FFF7BAFF204610BD0D2102480E
:10388000FFF7B4FFF4E700BF74E7000810B558B1C4
:10389000024683681548834216D21548834213D3E3
:1038A000DB681046984710BD124C40F2F253224696
:1038B0001149124807F0FCFD114807F0F9FD40F2EC
:1038C000F251204607F0EBFD0A4C40F2F25322463B
:1038D0000C490A4807F0ECFD0B490C4807F0E8FDDD
:1038E00040F2F251204607F0DAFD00BFE4E900089B
:1038F000C0E9000830FE000864FE000800EC000883
:1039000020EC000878FE0008B8FF00087CED0008F5
:1039100010B558B1024683681548834216D215483F
:10392000834213D31B691046984710BD124C40F2D6
:103930001F6322461149124807F0BAFD114807F0EB
:10394000B7FD40F21F61204607F0A9FD0A4C40F286
:103950001F6322460C490A4807F0AAFD0B490C4890
:1039600007F0A6FD40F21F61204607F098FD00BF5A
:10397000E4E90008C0E9000830FE000864FE000821
:1039800000EC000820EC000878FE0008B8FF0008F2
:103990007CED000810B543681C68012303FA01F1AF
:1039A0000C4203D092B1FFF771FF10BD094C40F2F9
:1039B000F76322460849094807F07AFD084807F0EE
:1039C00077FD40F2F761204607F069FDFFF7A0FFA1
:1039D000EBE700BF30FE0008C0FF000800EC000865
:1039E0000000010838B5436805691C6801238B4055
:1039F0001C4208D02C68234202D0B2FA82F252094B
:103A0000FFF7C8FF38BD084C40F222732246074931
:103A1000074807F04DFD074807F04AFD40F22271C4
:103A2000204607F03CFD00BF30FE0008C0FF000844
:103A300000EC00080000010870B5002842D01346D1
:103A4000864684686B4A94424CD26B4A944249D36E
:103A50004668006913F0FC6F55D103F03002302A3C
:103A600061D0664A1A40664DAA426CD003F0060245
:103A7000042A78D013F4402240F08280B2F5402F1F
:103A800000F0928013F4801F05D022B113F0010FD3
:103A900001D083F4402323F4801235684FF0010CE9
:103AA0000CFA01FC15EA0C0F00F08E8013F0010FE8
:103AB00000F09A8003684CEA0303036023687046B1
:103AC000984770BD4F4C40F2534322464E494F48F1
:103AD00007F0EEFC4E4807F0EBFC40F25341204665
:103AE00007F0DDFC474C40F2534322464949474822
:103AF00007F0DEFC4849494807F0DAFC40F2534140
:103B0000204607F0CCFC3F4C40F25C43224644493F
:103B10003E4807F0CDFC434807F0CAFC40F25C4148
:103B2000204607F0BCFC374C40F25F4322463E493A
:103B3000364807F0BDFC3D4807F0BAFC40F25F4153
:103B4000204607F0ACFC2F4C40F263432246384934
:103B50002E4807F0ADFC374807F0AAFC40F263415D
:103B6000204607F09CFC274C40F26643224632492F
:103B7000264807F09DFC40F26641204607F08FFC86
:103B800013F4003F7FF47AAF1E4C40F269432246A3
:103B90002A491E4807F08CFC294807F089FC40F2AE
:103BA0006941204607F07BFC164C40F26D432246EB
:103BB0002449164807F07CFC234807F079FC40F2C2
:103BC0006D41204607F06BFC0E4C40F279432246D3
:103BD0001E490E4807F06CFC1D4807F069FC40F2D6
:103BE0007941204607F05BFC036823EA0C0303607D
:103BF00064E700BFE4E90008C0E900080200030030
:103C00000200010030FE000864FE000800EC00081D
:103C100020EC000878FE0008B8FF00087CED0008E2
:103C20001400010884000108A8000108E40001084C
:103C30002401010874010108C4010108F801010808
:103C40004802010884020108D4020108C0FF0008EC
:103C500000000108002A3BD038B5154602EB420CA3
:103C60004FEA8C0CACF10C0C8C449CF808E04EF044
:103C7000020E8CF808E050B18468164A944216D2BD
:103C8000154A944213D3A4682A46A04738BD134C62
:103C90004FF47B7322461249124807F009FC124880
:103CA00007F006FC4FF47B71204607F0F8FB0B4C45
:103CB0004FF47B7322460D490A4807F0F9FB0C4983
:103CC0000C4807F0F5FB4FF47B71204607F0E7FB4B
:103CD00000207047FCE90008E4E90008000301083F
:103CE000ECEB000800EC000820EC000830030108B1
:103CF000680401087CED00082DE9F0411446436892
:103D00001E695A698A4217D99F69C1EBC1054FEAFA
:103D1000850807EB8505084600F058FB084B1B5C3F
:103D20001E4473689BB2636017F808306370AB7908
:103D300023700020BDE8F0816FF01500FAE700BFA6
:103D400044270108F8B543681F695A698A4229D98E
:103D500006460C469D69C1EBC10305EB83056B79F3
:103D600013B10020A871F8BD384600F0A1FC08B9D5
:103D70000020F8E7204600F029FB0C4B1A5CBB58EA
:103D800023F01003BB502146384600F0BDFC21460D
:103D9000304608F073FD2146384608F07FFD0020CC
:103DA000A871E0E76FF01500DDE700BF44270108C8
:103DB0002DE9F84F0C461F4641680E694B69A34236
:103DC00066D99046D1F818A0C4EBC4054FEA850B1C
:103DD0000AEB85052146304608F060FD8146002843
:103DE00059D15AF80B30012B05D0022B2ED06BB3D2
:103DF0006FF0150927E0204600F0E8FADFF89CA0F4
:103E00001AF800303344C3F80C80204600F0DEFA84
:103E10001AF8003033449F602B794BB3204600F0F2
:103E2000D5FAAB680A9AB2FBF3F31C4A125C32442F
:103E300051686FF30F010B4353600123AB712146AF
:103E4000304600F027FC4846BDE8F88F204600F0D9
:103E5000BDFADFF848A01AF800303344C3F80880F0
:103E6000204600F0B3FA1AF800303344DF60D3E79D
:103E7000204600F0ABFAEB680A9AB2FBF3F3074A6C
:103E8000125C324451686FF30F010B435360D4E767
:103E90006FF01509D7E76FF00F09D4E74427010841
:103EA0002DE9F04F93B080460E461446D0F80490AA
:103EB000D9F810A003A80AF099F9D9F81430B34240
:103EC00040F27C81D9F818B0C6EBC605AB0001936F
:103ED0000BEB8505AB79002B40F0738131465046E2
:103EE00008F0DCFC0746002840F06E813146404671
:103EF00008F0C4FC638803F4FE53B3F5FE5F71D091
:103F000022695369B3F5803F80F06181637813F0D3
:103F1000070F04D199F80C30002B00F05B81E18889
:103F2000A388994240F05981042B04D0022B02D07F
:103F3000012B40F05581137FC3F38012B2EBD31FE6
:103F400040F051810123AB71A3696B61637803F089
:103F50000703019A4BF8023062692A61A288AA60BD
:103F6000E288EA602269127FC2F380122A76216910
:103F7000A28892FAA2F0B0FA80F00AB94FF0FF30AE
:103F8000E28892FAA2F7B7FA87F70AB94FF0FF373B
:103F9000012B34D00B6803934B680493984B53F870
:103FA00020300993974B53F827300A93A0780DA936
:103FB00000F00F0008F011FC071E1CDB607805A95B
:103FC00000F0070008F024FC071E14DB637803F000
:103FD0000703012B00F0CC80022B1DD0E3B16FF062
:103FE000150708E00123AB716B71A3696B6163690D
:103FF0002B6100232B76384613B0BDE8F08F0B6899
:1040000004934B6803937F4B53F820300A937C4B07
:1040100053F827300993C9E7236993F81C80C8F344
:104020000110C8F3810808A908F004FC071EE2DBB0
:1040300007A9404608F010FC071EDCDB2B7E002B96
:1040400000F09E804FF480730693019B5BF8031091
:10405000022914BF0021012129712389A288B3FB01
:10406000F2F002FB10339BB2002B40F0BF8063895B
:10407000E288B3FBF2F002FB10339BB2002B40F05E
:10408000B880204600F050FB10902979204600F0BF
:1040900085FB1190637813F0070F74D02378072BFA
:1040A00000F2AA80207800F0ABF90C902369587FC9
:1040B00000F00F0008F0ECFD0F9003A808F09CFD45
:1040C000002866D004230E932B79002B64D023693B
:1040D0005B69A288B3FBF2F30B93304600F076F9EC
:1040E000014603AA504602F06DF8304600F06EF922
:1040F000454B1A5C5AF8023043F004034AF8023088
:104100002B7E0BB16B6953B1304600F05FF93E4B2B
:104110001A5C5AF8023043F010034AF802302B7E42
:1041200063B16B6953B1304600F050F9364B1A5CFD
:104130005AF8023043F008034AF802300E9B042B71
:1041400031D0304600F042F92F4B1B5C53445A6982
:1041500022F004025A61304600F038F92A4B1B5C09
:104160009A44DAF8143023F08003CAF8143042E796
:10417000236993F81C80C8F38100C8F3011852E743
:104180000023069361E72378072B8BD90023237044
:1041900088E700230E9397E723695B69E288B3FB06
:1041A000F2F30B9399E7304600F010F9164B1B5CC5
:1041B00053445A6942F004025A61CCE76FF0150784
:1041C00019E76FF00F0716E76FF00F0713E76FF0AF
:1041D000150710E76FF085070DE76FF015070AE781
:1041E0006FF0150707E76FF0150704E76FF0150785
:1041F00001E76FF01507FEE66FF01507FBE600BF5D
:104200002C270108382701084427010810B560B1A0
:10421000024683681548834215D21548834212D35B
:104220001B68FBB11046984710BD124CB6232246BE
:104230001149124807F03CF9114807F039F9B62145
:10424000204607F02CF90B4CB62322460D490B48AB
:1042500007F02EF90C490D4807F02AF9B62120463F
:1042600007F01DF96FF05700DEE700BF28EA0008ED
:104270000CEA0008C4EF0008ECEB000800EC0008B2
:1042800020EC000800F000087CF100087CED00083C
:1042900070B50546446821461048FFF7B7FFC8B916
:1042A0000646A36828469847002307E0A269C3EBA7
:1042B000C30102EB810200219171013362699342D3
:1042C000F4D32A69002313602A6953602A69936032
:1042D000304670BD6FF00406FAE700BF08E600083C
:1042E0002DE9F04143681F695E698E428CBF00264C
:1042F0000126DEB980460C469D69C1EBC10305EB82
:1043000083056B790BB9AB79DBB12146384600F0F8
:1043100091F9F8B16B79BBB101266F6927B13346CA
:10432000224629694046B847BDE8F081244C602305
:1043300022462449244807F0BBF86021204607F0B4
:10434000AEF808F09BFAEFE72146384600F072F825
:104350000126E2E72146384600F052F950B12B7EA3
:1043600003B9AB716B79002BD7D12146384600F0E9
:104370007DF8D2E72146384600F076F978B16B79BE
:1043800013B16FF00406C8E72146384608F025FC53
:104390002146384608F022FC6FF00406BDE76B7931
:1043A00013B16FF00406B8E7AB712146404608F040
:1043B000F2FA2146404608F061FA6FF00406ACE7D5
:1043C00078040108A404010800EC0008072803D8B9
:1043D000074B53F82000704710B5064C21232246A6
:1043E0000549064807F064F82121204607F057F8F0
:1043F0006C280108D00401080005010800EC000841
:10440000072803D8074B53F82000704710B5064C17
:10441000342322460549064807F04AF8342120464D
:1044200007F03DF84C280108D0040108B805010840
:1044300000EC000810B5072904D8084B53F82130C8
:10444000984710BD064C472322460649064807F008
:104450002FF84721204607F022F800BF2C2801083A
:10446000D00401087806010800EC000810B50729FF
:1044700004D8084B53F82130984710BD064C5923F7
:1044800022460649064807F013F85921204607F04E
:1044900006F800BF0C280108D004010878060108BE
:1044A00000EC000810B5072907D8094B53F8213054
:1044B0009847003818BF012010BD064C6B232246D8
:1044C0000549064806F0F4FF6B21204606F0E7FF99
:1044D000EC270108D00401087806010800EC000868
:1044E00010B5072907D8094B53F8213098470038F1
:1044F00018BF012010BD064C7D2322460549064801
:1045000006F0D6FF7D21204606F0C9FFCC27010822
:10451000D00401087806010800EC000810B507294E
:1045200004D8084B53F82130984710BD064C8F2310
:1045300022460649064806F0BBFF8F21204606F0BA
:10454000AEFF00BFAC270108D004010878060108BF
:1045500000EC000810B5072904D8084B53F82130A7
:10456000984710BD064CA12322460649064806F08E
:104570009FFFA121204606F092FF00BF8C27010873
:10458000D00401087806010800EC000810B50729DE
:1045900004D8084B53F82130984710BD064CB3237C
:1045A00022460649064806F083FFB321204606F05E
:1045B00076FF00BF6C270108D004010878060108C7
:1045C00000EC000810B5072907D8094B53F8213033
:1045D0009847003818BF012010BD064CE923224639
:1045E0000549064806F064FFE921204606F057FF1A
:1045F0004C270108D00401087806010800EC0008E7
:1046000038B504460D460846FFF7E0FE084B1B5C34
:10461000E35813F0100F01D1002038BD2946204681
:10462000FFF75EFF08B10120F7E70020F5E700BFC4
:104630008C28010838B504460D460846FFF7C6FE2B
:10464000084B1B5CE35813F0080F01D1002038BD64
:1046500029462046FFF726FF08B10120F7E7002092
:10466000F5E700BF8C28010838B504460D4608461A
:10467000FFF7ACFE064B1B5C23445B6913F0800F15
:1046800001D1002038BD29462046FFF79BFFF9E7FE
:104690008C28010810B504460846FFF797FE034B27
:1046A0001A5CA35843F00103A35010BD8C280108E5
:1046B00010B504460846FFF789FE054B1B5CE3581E
:1046C00013F0010F01D1002010BD0120FCE700BF55
:1046D0008C28010838B504460D460846FFF776FEDB
:1046E000084B1A5CA35823F00103A3502946204627
:1046F000FFF7DEFF0028F9D129462046FFF7B6FE76
:10470000002038BD8C28010810B504460846FFF784
:104710005DFE044B1B5CE018436923F0800343619A
:1047200010BD00BF8C28010870B589B1C5884489C7
:10473000B4FBF5F305FB13436BB9B4FBF5F4082C9C
:104740001BD0102C1CD0042C1DD14FF4000019E0FC
:1047500085880489ECE70D4E4FF4B37332460C495B
:104760000C4806F0A5FE2A4621460B4806F0A0FE9E
:104770004FF4B371304606F092FE4FF0807001E0C6
:104780004FF0C07070BD0020FCE700BFD0040108EE
:104790001C07010800EC00084407010870B589B146
:1047A00085880489B4FBF5F305FB13436BB9B4FBAF
:1047B000F5F4082C1BD0102C1CD0042C1DD14FF468
:1047C000001019E0C5884489ECE70D4E40F28913CA
:1047D00032460C490C4806F06BFE2A4621460B482F
:1047E00006F066FE40F28911304606F058FE4FF49E
:1047F000800001E04FF4C00070BD0020FCE700BF66
:10480000D00401087C07010800EC000844070108F7
:10481000F8B581B1044616460D464B68B3FA83F7E6
:104820007F09B3B1036813B308F052FA50BBFEB965
:104830006FF0150721E0164C6423224615491648EF
:1048400006F036FE154806F033FE6421204606F0D9
:1048500026FE0F4C6523224611490F4806F028FE1C
:10486000104806F025FE6521204606F018FE32B1FC
:1048700023682B60256063683BB13846F8BD6FF054
:104880001507FAE7002EF8D0F2E76560F5E700BFFC
:10489000A4070108E007010800EC0008EC07010884
:1048A000FC0701081008010870B50E46154601689E
:1048B00091B10C68ACB1A1B90C4612E0124C89233D
:1048C00022461249124806F0F3FD124806F0F0FDA8
:1048D0008921204606F0E3FD0C4602E023462146EE
:1048E0001C4681B18A682A4004D04B68002BE5D071
:1048F00030469847002CF1D02368002BEFD0002CD5
:10490000EDD12346EBE770BDA40701082808010894
:1049100000EC0008100801082DE9F84380460F4616
:1049200016461C46D0F80490D9F8080007F043FB5F
:10493000B6F5001F0ED00546B6F5800F2AD0B4F1AB
:10494000806F0ED0B4F1C06F0DD0B4F1007F24D1D0
:10495000022609E03946D9F8080008F02BFA0024AD
:1049600015E0012600E0032642460F492846FEF7DF
:1049700043FD0446A0B9D9F80810384607F020FBDB
:1049800031462846FEF7F8FC2846FEF7DBFC2046B9
:10499000BDE8F8836FF08504F9E76FF01504F6E7DA
:1049A0006FF00F04F3E700BFA7CD0008104B98424B
:1049B00013D00AD90F4B984215D003F5C31303F552
:1049C0002063984211D10A2070470B4B984206D0C1
:1049D0000A4B984205D104207047062070470220F8
:1049E000704700207047082070470020704700BFC4
:1049F00040420F0040E13300A0860100801A06000B
:104A000010B560B1844683681748834217D21748AF
:104A1000834214D3DB681BB36046984710BD144C27
:104A20004FF48C7322461349134806F041FD134896
:104A300006F03EFD4FF48C71204606F030FD0C4C24
:104A40004FF48C7322460E490B4806F031FD0D4998
:104A50000D4806F02DFD4FF48C71204606F01FFD29
:104A60006FF05700DAE700BF28EA00080CEA0008F8
:104A7000C4EF0008ECEB000800EC000820EC000894
:104A800000F000087CF100087CED000810B560B172
:104A9000844683681748834217D21748834214D349
:104AA0009B691BB36046984710BD144C4FF4AC7320
:104AB00022461349134806F0FBFC134806F0F8FCA5
:104AC0004FF4AC71204606F0EAFC0C4C4FF4AC738A
:104AD00022460E490B4806F0EBFC0D490D4806F046
:104AE000E7FC4FF4AC71204606F0D9FC6FF057009C
:104AF000DAE700BF28EA00080CEA0008C4EF000863
:104B0000ECEB000800EC000820EC000800F00008C6
:104B10007CF100087CED0008F0B583B004460F4638
:104B200043680569DE68002201929A68012A2DD93E
:104B3000596801AA08311C48FFF762FF00282FDBE3
:104B40002F6205F110074FF0FF324FF0FF33384668
:104B500002F0DEFA336823F00103336095F8521057
:104B6000204608F0E7F90199204600F05BF9041EA1
:104B700006DB95F851301BB1336843F00103336015
:104B8000384602F057FA204603B0F0BD01AA596832
:104B90000548FFF735FF0028D2DA6FF00404F2E78A
:104BA0006FF00404EFE700BF08E6000870B50446A4
:104BB000466805694FF0FF320021284609F067FB7F
:104BC000336820469847002385F8503085F85230E6
:104BD00005F110000122114609F059FB204600F0B2
:104BE00061F8B368012B07D97168002208310B48BE
:104BF000FFF74CFF00280EDB3069FFF7D7FE40F0CF
:104C000010012046FFF788FF002803DB012385F809
:104C10005030002070BD6FF00400FBE708E600088C
:104C200010B560B1024683681548834215D2154815
:104C3000834212D31B68FBB11046984710BD124C3B
:104C4000B62322461149124806F032FC114806F0FC
:104C50002FFCB621204606F022FC0B4CB623224640
:104C60000D490B4806F024FC0C490D4806F020FCC9
:104C7000B621204606F013FC6FF05700DEE700BFB8
:104C800028EA00080CEA0008C4EF0008ECEB000872
:104C900000EC000820EC000800F000087CF100089F
:104CA0007CED000810B544680021206A08F055F931
:104CB000002804DB61680448FFF7B2FF00B910BDAB
:104CC0006FF00400FBE700BF08E6000830B52A4C8F
:104CD000A4FB014E4FEA9E4C446824F03F0444EA92
:104CE0009E444460046A24F03F04244DAA421BD829
:104CF0000CF1010C44EA0C040462204CA24231D9AC
:104D0000F3B902EB4202B1FBF2F2C2F30B0119B3A9
:104D100042F400410B43C26922F44F4C2CF0FF0CCB
:104D20004CEA0303C36130BD4FF4967505FB0CFCE0
:104D3000134DA5FB0C5C4FEA9C1C0CF1010CD9E750
:104D400002EB820202EB8202B1FBF2F2C2F30B0130
:104D500029B142F40041DDE748F20101DAE748F207
:104D60000101D7E75200B1FBF2F340F6FC721342A7
:104D7000D1D10423CFE700BF83DE1B43A08601000F
:104D8000D34D6210F0B583B00446154647680669F6
:104D90004FF0000CCDF800C008F0C5FA204608F02E
:104DA0002AF9D7E90623304602F0B2F930B9064AAB
:104DB0002946204608F062F903B0F0BD204608F00D
:104DC00029F96FF00400F7E7C82801082DE9F04140
:104DD00082B0044615464668D0F81080F7684FF058
:104DE000010CCDF800C008F09EFA204608F003F947
:104DF0007B6843F4C0637B60D6E90623404602F03B
:104E000087F938B9064A2946204608F037F902B032
:104E1000BDE8F081204608F0FDF86FF00400F6E7E9
:104E2000B428010808B542680369D0681B6AC3F357
:104E30004203012B04D0022B08D06FF0150004E0D0
:104E40000023054AFFF742FF002008BD0023034A64
:104E5000FFF73CFF0020F8E7A0860100801A06005B
:104E600070B5002842D01346864684686B4A944247
:104E70004CD26B4A944249D34668006913F0FC6FE8
:104E800055D103F03002302A61D0664A1A40664D8F
:104E9000AA426CD003F00602042A78D013F4402210
:104EA00040F08280B2F5402F00F0928013F4801F12
:104EB00005D022B113F0010F01D083F4402323F475
:104EC000801235684FF0010C0CFA01FC15EA0C0F4A
:104ED00000F08E8013F0010F00F09A8003684CEA16
:104EE0000303036023687046984770BD4F4C40F23F
:104EF000534322464E494F4806F0DAFA4E4806F030
:104F0000D7FA40F25341204606F0C9FA474C40F226
:104F1000534322464949474806F0CAFA4849494896
:104F200006F0C6FA40F25341204606F0B8FA3F4C6C
:104F300040F25C43224644493E4806F0B9FA4348F1
:104F400006F0B6FA40F25C41204606F0A8FA374C6B
:104F500040F25F4322463E49364806F0A9FA3D48F2
:104F600006F0A6FA40F25F41204606F098FA2F4C70
:104F700040F26343224638492E4806F099FA3748F2
:104F800006F096FA40F26341204606F088FA274C74
:104F900040F2664322463249264806F089FA40F23A
:104FA0006641204606F07BFA13F4003F7FF47AAFA7
:104FB0001E4C40F2694322462A491E4806F078FA00
:104FC000294806F075FA40F26941204606F067FA72
:104FD000164C40F26D4322462449164806F068FA02
:104FE000234806F065FA40F26D41204606F057FA74
:104FF0000E4C40F2794322461E490E4806F058FAFC
:105000001D4806F055FA40F27941204606F047FA6D
:10501000036823EA0C03036064E700BFE4E90008C7
:10502000C0E90008020003000200010030FE000891
:1050300064FE000800EC000820EC000878FE000880
:10504000B8FF00087CED0008140001088400010886
:10505000A8000108E4000108240101087401010806
:10506000C4010108F801010848020108840201088E
:10507000D4020108C0FF00080000010810B518B1F3
:1050800091B14160826010BD0F4C40F26E732246B8
:105090000E490F4806F00CFA0E4806F009FA40F2E5
:1050A0006E71204606F0FBF9074C40F26F73224602
:1050B0000949074806F0FCF9084806F0F9F940F2FA
:1050C0006F71204606F0EBF930FE0008E00701089A
:1050D00000EC0008440801082C0801086C080108CD
:1050E00010B558B18368174A934217D2164A9342B3
:1050F00014D3DB691BB30122984710BD134C40F257
:10510000877322461249134806F0D2F9124806F076
:10511000CFF940F28771204606F0C1F90B4C40F2FE
:10512000877322460D490B4806F0C2F90C490D4819
:1051300006F0BEF940F28771204606F0B0F96FF034
:105140005700DAE7E4E90008C0E9000830FE00088B
:1051500064FE000800EC000820EC000878FE00085F
:10516000B8FF00087CED000810B558B1024683680E
:105170001548834216D21548834213D35B68104604
:10518000984710BD124C40F26D5322461149124807
:1051900006F08EF9114806F08BF940F26D51204669
:1051A00006F07DF90A4C40F26D5322460C490A483C
:1051B00006F07EF90B490C4806F07AF940F26D5181
:1051C000204606F06CF900BFE4E90008C0E90008D9
:1051D00030FE000864FE000800EC000820EC000827
:1051E00078FE0008B8FF00087CED000810B582B01A
:1051F00043681B6801248C4023420AD001A908F0AF
:1052000074F920B9019B1C40201E18BF012002B078
:1052100010BD084C40F2C56322460749074806F016
:1052200047F9074806F044F940F2C561204606F008
:1052300036F900BF30FE0008C0FF000800EC00088F
:105240000000010838B5002834D0844683685348EC
:1052500083423FD2524883423CD3DCF80400DCF85E
:1052600010509C69002C00F0968002F4C003B3F546
:10527000C00F40D0002B4ED002F0E863B3F1C86FEE
:1052800059D002F0C863B3F5800F64D000680123E1
:105290008B4018426FD012F4000F04D028680342EC
:1052A00001D082F0C0623F4B134002F0B072604602
:1052B000A04738BD3C4C40F2E33322463B493C48D2
:1052C00006F0F6F83B4806F0F3F840F2E3312046EA
:1052D00006F0E5F8344C40F2E333224636493448D0
:1052E00006F0E6F83549364806F0E2F840F2E331D8
:1052F000204606F0D4F82C4C40F2F33322463149D4
:105300002B4806F0D5F8304806F0D2F840F2F331D9
:10531000204606F0C4F8244C40F2F73322462B49CD
:10532000234806F0C5F82A4806F0C2F840F2F731E3
:10533000204606F0B4F81C4C40F2FA3322462549C8
:105340001B4806F0B5F8244806F0B2F840F2FA31EE
:10535000204606F0A4F8144C40F2094322461F49A7
:10536000134806F0A5F81E4806F0A2F840F20941DD
:10537000204606F094F80C4C40F20E4322461949A0
:105380000B4806F095F8184806F092F840F20E41E6
:10539000204606F084F86FF057008AE7E4E9000839
:1053A000C0E900084000000630FE000864FE000866
:1053B00000EC000820EC000878FE0008B8FF0008A8
:1053C0007CED00089C080108EC0801081809010898
:1053D0004809010874090108080A01085C0A010863
:1053E000C40A0108C0FF00080000010838B50446DF
:1053F0000D46037901229A400B492846FFF73EFEED
:1054000029462068FFF76CFE00280CDB2068217914
:10541000FFF7ECFE28734FF0E861204608F070F8C3
:10542000002800DB002038BDB3D4000808B5A0F187
:10543000180350F8180C4268D2689B1ADB10034915
:1054400003FB01F108F0B5F808BD00BF398EE33861
:1054500010B50446B2F5004F2FD04FF0000C48189D
:105460004CEB0C0C40184CF1000C4FEACC0C4CEA05
:10547000507CC00040184FEA83024FEA93734CF10E
:105480000001FBF7A1F92449A1FB00235B091A01E4
:1054900092B24FF0640C0CFB13031B013233A1FBDF
:1054A0000313C3F34F1303F0F0010A4492B203F065
:1054B0000F0313449BB2A36010BD4FF0000C4818BB
:1054C0004CEB0C02401842F10002D20042EA50724A
:1054D000C000401842F10001DA184CEB0C03FBF756
:1054E00073F90D49A1FB00235B091A0192B24FF039
:1054F000640C0CFB1303DB003233A1FB0313C3F377
:105500004F13590001F4F8710A4492B203F00703F3
:1055100013449BB2A360CFE71F85EB5108B5024A45
:1055200008F032F908BD00BFF7D7000808B5024AF5
:1055300008F044F908BD00BFFDD7000810B5436866
:105540001B68DC68DB6814F4805F03D1054B08F04E
:10555000A5F910BD03F4C063002BF7D16FF08500EF
:10556000F7E700BFEFD8000810B543681B68DC6898
:10557000DB6814F4805F03D1054B08F0BBF910BD64
:1055800003F4C063002BF7D16FF08500F7E700BF8D
:105590003DD9000843681A6802F1140353E8003F3C
:1055A00043F0010302F1140040E800310029F3D177
:1055B000134B9A4213D0A3F54C439A420FD003F5F4
:1055C00080639A420BD003F580639A4207D003F5BB
:1055D00080639A4203D003F544439A4203D113698E
:1055E00043F04003136102F10C0353E8003F43F41E
:1055F000807302F10C0040E800310029F3D17047BC
:105600000010014043681A6802F1140353E8003F98
:1056100023F0010302F1140040E800310029F3D126
:10562000134B9A4213D0A3F54C439A420FD003F583
:1056300080639A420BD003F580639A4207D003F54A
:1056400080639A4203D003F544439A4203D113691D
:1056500023F04003136102F10C0353E8003F23F4ED
:10566000807302F10C0040E800310029F3D170474B
:105670000010014010B560B184468368174883422A
:105680001AD21748834217D39B6993B16046984753
:1056900010BD144C40F28A2322461349134805F0EA
:1056A00007FF134805F004FF40F28A21204605F069
:1056B000F6FE6FF05700EBE70A4C40F28A232246D1
:1056C0000C490A4805F0F4FE0B490C4805F0F0FEC1
:1056D00040F28A21204605F0E2FE00BFC0E9000842
:1056E00098E90008280B0108ECEB000800EC000822
:1056F00020EC0008580B0108900C01087CED000814
:1057000010B558B1024683681548834216D2154831
:10571000834213D39B681046984710BD124C4FF438
:10572000E37322461149124805F0C2FE114805F004
:10573000BFFE4FF4E371204605F0B1FE0A4C4FF472
:10574000E37322460C490A4805F0B2FE0B490C48A7
:1057500005F0AEFE4FF4E371204605F0A0FE00BF59
:10576000C0E9000898E90008280B0108ECEB0008E4
:1057700000EC000820EC0008580B0108900C010810
:105780007CED000810B560B18446836817488342F9
:1057900017D21748834214D3DB681BB3604698477F
:1057A00010BD144C4FF48C7322461349134805F076
:1057B0007FFE134805F07CFE4FF48C71204605F007
:1057C0006EFE0C4C4FF48C7322460E490B4805F0CC
:1057D0006FFE0D490D4805F06BFE4FF48C712046AD
:1057E00005F05DFE6FF05700DAE700BF28EA000819
:1057F0000CEA0008C4EF0008ECEB000800EC00081D
:1058000020EC000800F000087CF100087CED0008A6
:1058100070B582B043681D68002952D00E4601AAB7
:1058200019695868FFF7AEFF002838DBEB6823F4EE
:105830000043EB60019C002120194941001941F10E
:105840000001C90041EA5071C00000194FEA860208
:105850004FEA967341F10001FAF7B6FF1C4AA2FB2A
:1058600000314909642303FB11031B013233A2FBFE
:1058700003235B0903F0F00202EB011203F00F03B4
:1058800013440F2B20D93346002221462846FFF728
:10589000DFFDA8680F288CBF0020012008B902B0E6
:1058A00070BD0C4C40F23D1322460B490B4805F0ED
:1058B000FFFD0B4805F0FCFD40F23D11204605F0D0
:1058C000EEFD6FF01500EAE76FF01500E7E700BFA7
:1058D0001F85EB51940C0108C40C010800EC000872
:1058E000E80C01082DE9F0410C4643681D68036986
:1058F0001E680B79012B04D0022B0DD14FF4806868
:1059000001E04FF4C0686279012A08D0022A08D069
:105910001ABB4FF4805706E04FF00008F3E700276A
:1059200001E04FF4405794F806C0BCF1040F17D0C3
:10593000CBB94FF0000ED91EC9B2012956D913B107
:10594000BCF1040F55D0B7F5805F0FD0B7F5405FBD
:105950000ED0002F3FD101230BE04FF40057E2E7B8
:105960004FF4805EE7E74FF4805EE4E7002300E059
:1059700002239A4240D1BEF1000F2ED1B8F1000FA0
:1059800032D103239C453AD1E37983B1012B39D13C
:10599000214B9D420BD0A3F54C439D4207D003F50C
:1059A00080639D4203D003F54C439D422DD1EB68AB
:1059B00023F40053EB60214608F03CF9002827DB74
:1059C000EB6843F40053EB6094E8030086E80300BF
:1059D0000020BDE8F0810323CBE7B8F1000F01D12F
:1059E0000423CFE70323CDE70223CBE76FF0850045
:1059F000EFE76FF08500ECE76FF08500E9E76FF007
:105A00008500E6E76FF08500E3E76FF08500E0E7EB
:105A10006FF08500DDE700BF0010014010B560B1F8
:105A2000024683681748834217D21748834214D32B
:105A3000DB681BB31046984710BD144C4FF4EF734E
:105A400022461349134805F033FD134805F030FD95
:105A50004FF4EF71204605F022FD0C4C4FF4EF732C
:105A600022460E490B4805F023FD0D490D4805F06F
:105A70001FFD4FF4EF71204605F011FD6FF0570048
:105A8000DAE700BFC0E9000898E90008280B010820
:105A9000ECEB000800EC000820EC0008580B0108B3
:105AA000900C01087CED000810B558B1844683685D
:105AB0001548834216D21548834213D31B686046AB
:105AC000984710BD124C4FF4C97322461149124831
:105AD00005F0EEFC114805F0EBFC4FF4C9712046CF
