:020000040800F2
:1000000040700020199100085D6E010805910008FC
:100010000591000805910008059100080000000006
:100020000000000000000000000000004D910008EA
:1000300005910008000000006D930008B5F4000869
:10004000019400080194000801940008019400083C
:10005000019400080194000801940008019400082C
:10006000019400080194000801940008019400081C
:10007000019400080194000801940008019400080C
:1000800001940008019400080194000801940008FC
:1000900001940008019400080194000801940008EC
:1000A00001940008019400080194000801940008DC
:1000B00001940008019400080194000801940008CC
:1000C00001940008019400080194000801940008BC
:1000D00001940008019400080194000801940008AC
:1000E000019400080194000801940008019400089C
:1000F000019400080194000801940008019400088C
:0C0100000194000801940008019400081C
:1001400030B490F800F020F007016FF0000C10F0D0
:10015000070491F820F040F048804FF000046FF061
:100160000700D1E9002391F840F000F1080082FA7D
:100170004CF2A4FA8CF283FA4CF3A2FA8CF34BBB48
:10018000D1E9022382FA4CF200F10800A4FA8CF2C1
:1001900083FA4CF3A2FA8CF3E3B9D1E9042382FA8F
:1001A0004CF200F10800A4FA8CF283FA4CF3A2FAA4
:1001B0008CF37BB9D1E9062301F1200182FA4CF2DC
:1001C00000F10800A4FA8CF283FA4CF3A2FA8CF343
:1001D000002BC6D0002A04BF04301A4612BAB2FA65
:1001E00082F200EBD20030BC7047D1E9002304F06A
:1001F0000305C4F100004FEAC50514F0040F91F89F
:1002000040F00CFA05F562EA05021CBF63EA05033B
:1002100062464FF00004AAE7844641EA000313F067
:1002200003036DD1403A41D351F8043B40F8043BFD
:1002300051F8043B40F8043B51F8043B40F8043BC0
:1002400051F8043B40F8043B51F8043B40F8043BB0
:1002500051F8043B40F8043B51F8043B40F8043BA0
:1002600051F8043B40F8043B51F8043B40F8043B90
:1002700051F8043B40F8043B51F8043B40F8043B80
:1002800051F8043B40F8043B51F8043B40F8043B70
:1002900051F8043B40F8043B51F8043B40F8043B60
:1002A00051F8043B40F8043B403ABDD2303211D300
:1002B00051F8043B40F8043B51F8043B40F8043B40
:1002C00051F8043B40F8043B51F8043B40F8043B30
:1002D000103AEDD20C3205D351F8043B40F8043B00
:1002E000043AF9D2043208D0D2071CBF11F8013BFE
:1002F00000F8013B01D30B8803806046704700BFC4
:10030000082A13D38B078DD010F003038AD0C3F1D2
:100310000403D21ADB071CBF11F8013B00F8013BB4
:1003200080D331F8023B20F8023B7BE7043AD9D373
:10033000013A11F8013B00F8013BF9D20B78037048
:100340004B7843708B7883706046704781F0004132
:1003500002E000BF83F0004330B54FEA41044FEAAA
:10036000430594EA050F08BF90EA020F1FBF54EA45
:10037000000C55EA020C7FEA645C7FEA655C00F0E1
:10038000E2804FEA5454D4EB5555B8BF6D420CDDB2
:100390002C4480EA020281EA030382EA000083EA35
:1003A000010180EA020281EA0303362D88BF30BDD5
:1003B00011F0004F4FEA01314FF4801C4CEA11312B
:1003C00002D0404261EB410113F0004F4FEA03338A
:1003D0004CEA133302D0524263EB430394EA050F15
:1003E00000F0A780A4F10104D5F1200E0DDB02FA84
:1003F0000EFC22FA05F2801841F1000103FA0EF218
:10040000801843FA05F359410EE0A5F120050EF1DD
:10041000200E012A03FA0EFC28BF4CF0020C43FA0E
:1004200005F3C01851EBE37101F0004507D54FF01B
:10043000000EDCF1000C7EEB00006EEB0101B1F56B
:10044000801F1BD3B1F5001F0CD349085FEA3000B1
:100450004FEA3C0C04F101044FEA445212F5800FBC
:1004600080F09A80BCF1004F08BF5FEA500C50F159
:10047000000041EB045141EA050130BD5FEA4C0C3C
:10048000404141EB0101013C28BFB1F5801FE9D299
:1004900091F0000F04BF01460020B1FA81F308BFBC
:1004A0002033A3F10B03B3F120020CDA0C3208DD88
:1004B00002F1140CC2F10C0201FA0CF021FA02F163
:1004C0000CE002F11402D8BFC2F1200C01FA02F1D3
:1004D00020FA0CFCDCBF41EA0C019040E41AA2BFF8
:1004E00001EB0451294330BD6FEA04041F3C1CDAC0
:1004F0000C340EDC04F11404C4F1200220FA04F0E0
:1005000001FA02F340EA030021FA04F345EA030189
:1005100030BDC4F10C04C4F1200220FA02F001FA4B
:1005200004F340EA0300294630BD21FA04F02946CD
:1005300030BD94F0000F83F4801306BF81F4801166
:100540000134013D4EE77FEA645C18BF7FEA655CD9
:1005500029D094EA050F08BF90EA020F05D054EAAB
:10056000000C04BF1946104630BD91EA030F1EBFB0
:100570000021002030BD5FEA545C05D140004941B4
:1005800028BF41F0004130BD14F580043CBF01F5A7
:10059000801130BD01F0004545F0FE4141F470018D
:1005A0004FF0000030BD7FEA645C1ABF1946104668
:1005B0007FEA655C1CBF0B46024650EA013406BF69
:1005C00052EA033591EA030F41F4002130BD00BF28
:1005D00090F0000F04BF0021704730B54FF48064E5
:1005E00004F132044FF000054FF0000150E700BF66
:1005F00090F0000F04BF0021704730B54FF48064C5
:1006000004F1320410F0004548BF40424FF00001B1
:100610003EE700BF42004FEAE2014FEA31014FEAF4
:1006200002701FBF12F07F4393F07F4F81F0605143
:10063000704732F07F4208BF704793F07F4F04BF8E
:1006400041F40021704730B54FF4607401F000456B
:1006500021F000411CE700BF50EA010208BF7047CB
:1006600030B54FF000050AE050EA010208BF7047BC
:1006700030B511F0004502D5404261EB41014FF425
:10068000806404F132045FEA915C3FF4D8AE4FF02D
:1006900003025FEADC0C18BF03325FEADC0C18BF10
:1006A000033202EBDC02C2F1200300FA03FC20FA61
:1006B00002F001FA03FE40EA0E0021FA02F11444AE
:1006C000BDE600BF70B54FF0FF0C4CF4E06C1CEAC7
:1006D00011541DBF1CEA135594EA0C0F95EA0C0F38
:1006E00000F0DEF82C4481EA030621EA4C5123EAAB
:1006F0004C5350EA013518BF52EA033541F48011DA
:1007000043F4801338D0A0FB02CE4FF00005E1FB8C
:1007100002E506F00042E0FB03E54FF00006E1FBD6
:1007200003569CF0000F18BF4EF0010EA4F1FF0419
:10073000B6F5007F64F5407404D25FEA4E0E6D4159
:1007400046EB060642EAC62141EA55514FEAC5206A
:1007500040EA5E504FEACE2EB4F1FD0C88BFBCF5E6
:10076000E06F1ED8BEF1004F08BF5FEA500E50F197
:10077000000041EB045170BD06F0004646EA01015D
:1007800040EA020081EA0301B4EB5C04C2BFD4EB8F
:100790000C0541EA045170BD41F480114FF0000E88
:1007A000013C00F3AB8014F1360FDEBF002001F0F6
:1007B000004170BDC4F10004203C35DA0C341BDC70
:1007C00004F11404C4F1200500FA05F320FA04F042
:1007D00001FA05F240EA020001F0004221F0004176
:1007E00010EBD37021FA04F642EB06015EEA430EE9
:1007F00008BF20EAD37070BDC4F10C04C4F1200519
:1008000000FA04F320FA05F001FA04F240EA0200CB
:1008100001F0004110EBD37041F100015EEA430E9C
:1008200008BF20EAD37070BDC4F1200500FA05F2BC
:100830004EEA020E20FA04F301FA05F243EA02033B
:1008400021FA04F001F0004121FA04F220EA02004A
:1008500000EBD3705EEA430E08BF20EAD37070BD90
:1008600094F0000F0FD101F00046400041EB010170
:1008700011F4801F08BF013CF7D041EA060195F052
:10088000000F18BF704703F00046520043EB03030C
:1008900013F4801F08BF013DF7D043EA06037047F9
:1008A00094EA0C0F0CEA135518BF95EA0C0F0CD004
:1008B00050EA410618BF52EA4306D1D181EA03014A
:1008C00001F000414FF0000070BD50EA410606BF44
:1008D0001046194652EA430619D094EA0C0F02D189
:1008E00050EA013613D195EA0C0F05D152EA0336CE
:1008F0001CBF104619460AD181EA030101F00041EC
:1009000041F0FE4141F470014FF0000070BD41F034
:10091000FE4141F4780170BD70B54FF0FF0C4CF40E
:10092000E06C1CEA11541DBF1CEA135594EA0C0F2D
:1009300095EA0C0F00F0A7F8A4EB050481EA030E7A
:1009400052EA03354FEA013100F088804FEA033361
:100950004FF0805545EA131343EA12634FEA02222F
:1009600045EA111545EA10654FEA00260EF00041F0
:100970009D4208BF964244F1FD0404F5407402D242
:100980005B084FEA3202B61A65EB03055B084FEAD3
:1009900032024FF480104FF4002CB6EB020E75EBD0
:1009A000030E22BFB61A754640EA0C005B084FEAF8
:1009B0003202B6EB020E75EB030E22BFB61A754675
:1009C00040EA5C005B084FEA3202B6EB020E75EBC0
:1009D000030E22BFB61A754640EA9C005B084FEA38
:1009E0003202B6EB020E75EB030E22BFB61A754645
:1009F00040EADC0055EA060E18D04FEA051545EA34
:100A000016754FEA06164FEAC30343EA52734FEADC
:100A1000C2025FEA1C1CC0D111F4801F0BD141EA55
:100A200000014FF000004FF0004CB6E711F4801FBA
:100A300004BF01430020B4F1FD0C88BFBCF5E06F9A
:100A40003FF6AFAEB5EB030C04BFB6EB020C5FEAAA
:100A5000500C50F1000041EB045170BD0EF0004EFF
:100A60004EEA113114EB5C04C2BFD4EB0C0541EA31
:100A7000045170BD41F480114FF0000E013C90E62E
:100A800045EA060E8DE60CEA135594EA0C0F08BFF2
:100A900095EA0C0F3FF43BAF94EA0C0F0AD150EAF1
:100AA00001347FF434AF95EA0C0F7FF425AF104684
:100AB00019462CE795EA0C0F06D152EA03353FF4AC
:100AC000FDAE1046194622E750EA410618BF52EA29
:100AD00043067FF4C5AE50EA41047FF40DAF52EAFD
:100AE00043057FF4EBAE12E74FEA4102B2F1E04377
:100AF00024BFB3F5001CDCF1FE5C0DD901F0004C05
:100B00004FEAC0024CEA5070B2F1004F40EB830054
:100B100008BF20F00100704711F0804F21D113F180
:100B20003872BCBF01F00040704741F480114FEAB9
:100B30005252C2F11802C2F1200C10FA0CF320FA42
:100B400002F018BF40F001004FEAC1234FEAD3235F
:100B500003FA0CFC40EA0C0023FA02F34FEA4303C9
:100B6000CCE77FEA625307D150EA01331EBF4FF052
:100B7000FE4040F44000704701F0004040F0FE406D
:100B800040F40000704700BF80F0004002E000BF6A
:100B900081F0004142001FBF5FEA410392EA030F68
:100BA0007FEA226C7FEA236C6AD04FEA1262D2EBB2
:100BB0001363C1BFD218414048404140B8BF5B42B7
:100BC000192B88BF704710F0004F40F4000020F050
:100BD0007F4018BF404211F0004F41F4000121F066
:100BE0007F4118BF494292EA030F3FD0A2F10102B0
:100BF00041FA03FC10EB0C00C3F1200301FA03F1EE
:100C000000F0004302D5494260EB4000B0F5000F10
:100C100013D3B0F1807F06D340084FEA310102F1CF
:100C20000102FE2A51D2B1F1004F40EBC25008BF81
:100C300020F0010040EA03007047490040EB00004B
:100C4000013A28BFB0F5000FEDD2B0FA80FCACF14C
:100C5000080CB2EB0C0200FA0CF0AABF00EBC25079
:100C600052421843BCBFD0401843704792F0000F67
:100C700081F4000106BF80F400000132013BB5E7BA
:100C80004FEA41037FEA226C18BF7FEA236C21D030
:100C900092EA030F04D092F0000F08BF0846704795
:100CA00090EA010F1CBF0020704712F07F4F04D163
:100CB000400028BF40F00040704712F100723CBF76
:100CC00000F50000704700F0004343F0FE4040F4A0
:100CD000000070477FEA226216BF08467FEA23635E
:100CE0000146420206BF5FEA412390EA010F40F449
:100CF000800070474FF0000304E000BF10F0004395
:100D000048BF40425FEA000C08BF704743F096437B
:100D100001464FF000001CE050EA010208BF704796
:100D20004FF000030AE000BF50EA010208BF70471D
:100D300011F0004302D5404261EB41015FEA010C32
:100D400002BF84460146002043F0B64308BFA3F12A
:100D50008053A3F50003BCFA8CF2083AA3EBC2530C
:100D600010DB01FA02FC634400FA02FCC2F120022B
:100D7000BCF1004F20FA02F243EB020008BF20F062
:100D80000100704702F1200201FA02FCC2F12002C8
:100D900050EA4C0021FA02F243EB020008BF20EABD
:100DA000DC7070474FF0FF0C1CEAD0521EBF1CEAEB
:100DB000D15392EA0C0F93EA0C0F6FD01A4480EAD9
:100DC000010C400218BF5FEA41211ED04FF00063C2
:100DD00043EA501043EA5111A0FB01310CF00040EE
:100DE000B1F5000F3EBF490041EAD3715B0040EA14
:100DF000010062F17F02FD2A1DD8B3F1004F40EBE4
:100E0000C25008BF20F00100704790F0000F0CF0B6
:100E1000004C08BF49024CEA502040EA51207F3A7A
:100E2000C2BFD2F1FF0340EAC250704740F4000055
:100E30004FF00003013A5DDC12F1190FDCBF00F046
:100E400000407047C2F10002410021FA02F1C2F1F4
:100E5000200200FA02FC5FEA310040F1000053EA90
:100E60004C0308BF20EADC70704792F0000F00F0DE
:100E7000004C02BF400010F4000F013AF9D040EAE4
:100E80000C0093F0000F01F0004C02BF490011F478
:100E9000000F013BF9D041EA0C018FE70CEAD15376
:100EA00092EA0C0F18BF93EA0C0F0AD030F0004CF6
:100EB00018BF31F0004CD8D180EA010000F00040AA
:100EC000704790F0000F17BF90F0004F084691F068
:100ED000000F91F0004F14D092EA0C0F01D14202A2
:100EE0000FD193EA0C0F03D14B0218BF084608D16B
:100EF00080EA010000F0004040F0FE4040F40000B5
:100F0000704740F0FE4040F4400070474FF0FF0C47
:100F10001CEAD0521EBF1CEAD15392EA0C0F93EA8E
:100F20000C0F69D0A2EB030280EA010C49024FEAE0
:100F3000402037D04FF0805343EA111143EA101399
:100F40000CF000408B4238BF5B0042F17D024FF451
:100F5000000C8B4224BF5B1A40EA0C00B3EB510F2C
:100F600024BFA3EB510340EA5C00B3EB910F24BF15
:100F7000A3EB910340EA9C00B3EBD10F24BFA3EB9A
:100F8000D10340EADC001B0118BF5FEA1C1CE0D162
:100F9000FD2A3FF650AF8B4240EBC25008BF20F015
:100FA000010070470CF0004C4CEA50207F32C2BF69
:100FB000D2F1FF0340EAC250704740F400004FF006
:100FC0000003013A37E792F0000F00F0004C02BF37
:100FD000400010F4000F013AF9D040EA0C0093F001
:100FE000000F01F0004C02BF490011F4000F013B5B
:100FF000F9D041EA0C0195E70CEAD15392EA0C0FC3
:1010000008D142027FF47DAF93EA0C0F7FF470AFFA
:10101000084676E793EA0C0F04D14B023FF44CAF3D
:1010200008466EE730F0004C18BF31F0004CCAD1D2
:1010300030F000427FF45CAF31F000437FF43CAF0E
:101040005FE700BF4FF0FF3C06E000BF4FF0010C30
:1010500002E000BF4FF0010C4DF804CD4FEA400212
:101060004FEA41037FEA226C18BF7FEA236C11D05C
:1010700001B052EA530C18BF90EA010F58BFB2EB0F
:10108000030088BFC81738BF6FEAE17018BF40F08F
:10109000010070477FEA226C02D15FEA402C05D143
:1010A0007FEA236CE4D15FEA412CE1D05DF8040BC8
:1010B000704700BF844608466146FFE70FB5FFF75B
:1010C000C9FF002848BF10F1000F0FBD4DF808ED13
:1010D000FFF7F4FF0CBF012000205DF808FB00BF04
:1010E0004DF808EDFFF7EAFF34BF012000205DF85E
:1010F00008FB00BF4DF808EDFFF7E0FF94BF0120AB
:1011000000205DF808FB00BF4DF808EDFFF7D2FFA7
:1011100094BF012000205DF808FB00BF4DF808EDEA
:10112000FFF7C8FF34BF012000205DF808FB00BFB7
:101130004FEA4002B2F1FE4F0FD34FF09E03B3EBE4
:1011400012620DD94FEA002343F0004310F0004F24
:1011500023FA02F018BF404270474FF0000070477A
:1011600012F1610F01D1420205D110F0004008BF19
:101170006FF0004070474FF00000704742000ED201
:10118000B2F1FE4F0BD34FF09E03B3EB126209D4C2
:101190004FEA002343F0004323FA02F070474FF078
:1011A0000000704712F1610F01D1420202D14FF0ED
:1011B000FF3070474FF00000704700BF7BB972B935
:1011C0000029BEBF00204FF0004106E008BF002804
:1011D0001CBF6FF000414FF0FF3000F057B8ADF189
:1011E000080C6DE904CE002909DB002B1ADB00F0A6
:1011F0004FF8DDF804E0DDE9022304B07047404217
:1012000061EB4101002B1BDB00F042F8DDF804E04C
:10121000DDE9022304B0404261EB4101524263EB3D
:1012200043037047524263EB430300F031F8DDF8AB
:1012300004E0DDE9022304B0404261EB4101704764
:10124000524263EB430300F023F8DDF804E0DDE9EC
:10125000022304B0524263EB4303704753B94AB9C7
:10126000002908BF00281CBF4FF0FF314FF0FF30AE
:1012700000F00CB8ADF1080C6DE904CE00F008F8F0
:10128000DDF804E0DDE9022304B07047704700BFD9
:101290002DE9F0478C468E46089E154604461946B1
:1012A000002B40F0D080724547D9B2FA82F74FB197
:1012B000C7F120030EFA07FC20FA03F3BD4043EA0E
:1012C0000C0CBC404FEA154EA8B2BCFBFEF8230C38
:1012D0000EFB18CC08FB00F943EA0C43994528D9CA
:1012E000EB1808F1FF3204D2994502D9A8F10202A5
:1012F0002B44A3EB0903A4B2B3FBFEFC0EFB1C338F
:101300000CFB00F044EA0344A04214D92C190CF160
:10131000FF3304D2A04202D9ACF102032C44241AB8
:1013200043EA02401EB1FC40002334607360BDE814
:10133000F0874246DDE76346F1E7002A79D0B2FA4A
:1013400082F3002B3FD01946C1F1200302FA01F5C8
:101350002EFA03F20EFA01FE20FA03F343EA0E031B
:101360004FEA154E00FA01F4B2FBFEFCAFB20EFBE1
:101370001C201A0C0CFB07F842EA004290455AD98F
:10138000AA180CF1FF3004D2904502D9ACF102004A
:101390002A44A2EB08029BB2B2FBFEFC0EFB1C220D
:1013A0000CFB07F743EA02439F4246D9EB180CF1C6
:1013B000FF3204D29F4202D9ACF102022B44DB1B64
:1013C00042EA004202E0AEEB020301224FEA154E70
:1013D000AFB2B3FBFEFC200C0EFB1C330CFB07F87A
:1013E00040EA034398452AD9EB180CF1FF3004D2A8
:1013F000984502D9ACF102002B44A3EB0803A4B238
:10140000B3FBFEFC0EFB1C330CFB07F744EA034462
:10141000A74216D92C190CF1FF3304D2A74202D9E6
:10142000ACF102032C44E41B43EA00400F46114692
:1014300078E71F2188E76046ABE76246BFE7604672
:10144000DBE76346EFE7734506D916B90021084686
:101450006DE7C6E9000EF9E7B3FA83F787B973457C
:1014600001D3824207D8841A6EEB030301209C4605
:101470001EB900215BE73846FAE7C6E9004CF8E7F9
:10148000C7F1200CBB4022FA0CF51D4320FA0CF1E9
:101490002EFA0CF30EFA07FE41EA0E014FEA154947
:1014A00000FA07F4B3FBF9F81FFA85FE09FB1830C0
:1014B0000B0C08FB0EFA43EA00439A4502FA07F2C6
:1014C00040D9EB1808F1FF3004D29A4502D9A8F1AF
:1014D00002002B44A3EB0A0389B2B3FBF9F809FB22
:1014E000183308FB0EFE41EA03418E452CD96918DA
:1014F00008F1FF3304D28E4502D9A8F10203294432
:1015000043EA0040A0FB0298A1EB0E014145CE4604
:10151000434602D306D14C4504D2B9EB020E68EB28
:1015200005030138002EA4D0B4EB0E0261EB0301D9
:1015300001FA0CFC22FA07F34CEA0303F940C6E96E
:10154000003196E74046C5E74346D9E70000000072
:10155000F0B587B00446284B18686A46032101F0AD
:1015600017FE0546002840D1002C3ED00098FFF71A
:101570003FF806460F460198FFF73AF81CA3D3E957
:101580000023FFF7C9F902460B4630463946FEF7FD
:10159000E3FEC4E900010298FFF72AF806460F4669
:1015A0000398FFF725F812A3D3E90023FFF7B4F956
:1015B00002460B4630463946FEF7CEFEC4E902012C
:1015C0000498FFF715F806460F460598FFF710F840
:1015D00007A3D3E90023FFF79FF902460B463046E5
:1015E0003946FEF7B9FEC4E90401284607B0F0BD4C
:1015F0000000000080842E41E42000200000000054
:101600002DE9F04F87B082463F4B18686A460721A4
:1016100001F0BEFD8346002862D1BAF1000F5FD011
:101620000098FEF7E5FF04460D460198FEF7E0FF3F
:101630002DA3D3E90023FFF76FF902460B4620469E
:101640002946FEF789FE80468946CAE90089029844
:10165000FEF7CEFF04460D460398FEF7C9FF22A30E
:10166000D3E90023FFF758F902460B4620462946E6
:10167000FEF772FE06460F46CAE902670498FEF7B7
:10168000B7FF04460D460598FEF7B2FF16A3D3E94F
:101690000023FFF741F902460B4620462946FEF794
:1016A0005BFE04460D46CAE9044511A3D3E90023B5
:1016B00040464946FEF750FECAE900010EA3D3E9B1
:1016C000002330463946FEF747FECAE902010CA363
:1016D000D3E9002320462946FEF73EFECAE904016D
:1016E000584607B0BDE8F08F0000000080842E410E
:1016F0009A9999999999A93F7B14AE47E17A843FC9
:101700007B14AE47E17AA43FE420002000000000F3
:101710002DE9F04F85B006460F461546984602AAB9
:1017200002F07AFB00282FDB029CDDF80C90A5FB71
:1017300004AB05FB09BB1AA3D3E900235046594665
:10174000FFF78CFD05464FF0FF335345164B73EB07
:101750000B031CD3A8FB04A408FB094410A3D3E982
:10176000002350462146FFF779FD03464FF0FF3234
:1017700052450D4AA2410DD3BDF8382000922A46A9
:101780003946304602F08AFB05B0BDE8F08F6FF0B5
:101790008500F9E76FF08500F6E700BFAFF3008042
:1017A00000CA9A3B00000000FFC99A3B08B50248F6
:1017B0000FF064F808BD00BFEC03002010B54168CD
:1017C00050B18368164A934216D2164A934213D3F5
:1017D0001B6B13B3984710BD134C4FF46B73224629
:1017E0001249134814F015FC124814F012FC4FF47F
:1017F0006B71204614F004FC0B4C4FF46B732246C3
:101800000D490B4814F005FC0C490D4814F001FC7F
:101810004FF46B71204614F0F3FB0868DBE700BF60
:10182000149A0108E0990108F89C01082C9D010810
:10183000449D0108649D0108789D0108CC9E010823
:10184000D49E01082DE9F04791469846FFF7B6FF70
:10185000054606461C4A002348464146FFF7FEFC63
:101860008A46044655B12A4600234FF0FF30002136
:10187000FFF7F4FCA04271EB0A0121D3A6FB04742C
:1018800005FB0A44104A002348464146FFF7E6FCA0
:101890001946A2FB06060C4A002305FB0161FFF76F
:1018A000DDFC3F1844EB010438464FF0FF33BB42E8
:1018B0004FF00003A34101D24FF0FF30BDE8F087A5
:1018C0004FF0FF30FAE700BF40420F0010B548B1BB
:1018D000836815498B4215D214498B4212D31B6879
:1018E000984710BD124C40F28A43224611491248D3
:1018F00014F08FFB114814F08CFB40F28A41204613
:1019000014F07EFB0A4C40F28A4322460C490A48F6
:1019100014F07FFB0B490C4814F07BFB40F28A412A
:10192000204614F06DFB00BF149A0108E0990108ED
:10193000F89C01082C9D0108449D0108649D010844
:10194000789D0108CC9E0108D49E010810B580B195
:1019500003468268194882421BD21948824218D332
:101960000C6858684068844224D8D2691846904769
:1019700010BD144C40F22F5322461349134814F063
:1019800048FB134814F045FB40F22F51204614F059
:1019900037FB0C4C40F22F5322460E490B4814F0F3
:1019A00038FB0D490D4814F034FB40F22F5120460E
:1019B00014F026FB6FF01500DAE700BF149A010857
:1019C000E0990108F89C01082C9D0108449D01083C
:1019D000649D0108789D0108CC9E0108D49E0108F1
:1019E00030B585B02048214B186017F071FB50B31B
:1019F0001E4D2868FFF7E2FE01461D4814F0F2FA7A
:101A000028684FF47A720023FFF71CFF0446014652
:101A1000184814F0E7FA0094174B0193002302933F
:101A200003932868FFF752FF044690B90F4B1868DC
:101A30006946FFF78BFF044680B9104814F0D2FACC
:101A4000204605B030BD0E4814F0CCFA6FF01204F9
:101A5000F6E701460B4814F0C5FAF1E701460A48DB
:101A600014F0C0FAECE700BFE0960108481000202F
:101A7000049F01081C9F0108AD170008709F010812
:101A8000EC9E0108309F01084C9F010808B508E052
:101A90000C4B18600C4BB3F90A100C4B186802F091
:101AA0006BFB4FF0FF324FF0FF3309480EF054FF4D
:101AB000002014F06AF917F085FC024B1B68834282
:101AC000E6D1EEE740100020782100202021002000
:101AD000EC0300202DE98048C3B0374B186800F0B4
:101AE00009FC364C0DF1340B022362680A2158467A
:101AF00001F0D4FB13AE0223314A92690A21304629
:101B000001F0CCFB17F05EFCFFF7F4F82D49FFF76E
:101B100049F9024616AD03230A21284601F0BEFB0F
:101B200010AF0223E2680A21384601F0B7FB0DF13D
:101B30006408022362690A21404601F0AFFB0DF1FF
:101B400070090223A2690A21484601F0A7FB0DF1A2
:101B50007C0A0223E2690A21504601F09FFBB4F996
:101B600008300B93237C22ACCDF820A0CDF81C903C
:101B7000CDF81880059304970396114A5069FFF732
:101B8000D7FA0290CDF804B00B9B00932B460E4A77
:101B90008021204612F0CEFB2046FEF7D1FA024605
:101BA00021460A4B186813F0C4FE00F0B1FB042074
:101BB00013F003FC91E700BFB01000207821002053
:101BC000982100206F12833A989F01085C1800202A
:101BD00000B585B069460C4B186813F03FFF02A9A9
:101BE0000A4B186813F03AFF094C0198FFF786F882
:101BF00020610398FFF782F86061022014F0C5F8B5
:101C0000092013F0DAFBE5E704210020E82000209A
:101C10009821002010B502E0042013F0CEFB01F063
:101C200007FB01F0E3FE012014F0AFF80D4CB4F90E
:101C300008100D4B186802F09FFAB4F90A100B4B0C
:101C4000186802F099FA17F0BDFB094B1B68834234
:101C5000E2D0074B1860B4F90A10044B186802F080
:101C60008BFAD9E7782100202C21002020210020A8
:101C700044100020D0B588B003F04EFC00260027A9
:101C8000CDE906670024049402230393029401948F
:101C900000942C4B4FF404622B492C480FF088FD24
:101CA000CDE90667049404230393029401940094FD
:101CB000274B4FF48252274927480FF079FDCDE991
:101CC0000667049405230393029401940094234B24
:101CD0004FF40462224923480FF06AFDCDE90667FC
:101CE0000494062303930294019400941E4B4FF432
:101CF00088621E491E480FF05BFDCDE9066704941B
:101D00000A2303930294019400941A4B4FF48862BF
:101D100019491A480FF04CFDCDE9066704940B23CE
:101D20000393029401940094154B4FF48862154973
:101D300015480FF03DFD4FF47A70002110F0F4FFCC
:101D4000F9E700BF8D1A0008C04D00208006002072
:101D5000151C00084035002080050020D11B00081C
:101D60008045002000060020D7530108C02C002029
:101D700080040020D51A0008003100200005002052
:101D8000C9530108802800200004002008B503285A
:101D900036D8DFE800F002101E33012906D00429EE
:101DA0002ED11A4B1B680020984729E0174B1B685F
:101DB0000020984724E0012906D0042920D1134BA4
:101DC0001B68012098471BE0104B1B6801209847B7
:101DD00016E0012908D002290BD0032910D10B4BA2
:101DE0001B68052098470BE0084B1B6802209847AA
:101DF00006E0064B1B680420984701E0012900D04B
:101E000008BD024B1B6803209847F9E74C100020DF
:101E100008B5024802F038FB002008BDA0020020EF
:101E2000014B1860704700BF4C10002090F825301F
:101E3000064AA2FB031202F0FC0101EB92029B1A7C
:101E4000DBB2034A52F82300704700BFCDCCCCCCA4
:101E500050EC010808B5054806F032FC0448FFF7CD
:101E6000DFFF044B01221A70002008BD889701088B
:101E7000192100086D28002000B583B00B468DF8AD
:101E8000042000228DF80520024601A9024814F022
:101E9000CFFF03B05DF804FB889701082DE9F041FE
:101EA0000646384C0021204606F0FCFB00231A466B
:101EB0003168204614F0BCFF3469002302E06469F5
:101EC0000133DBB2727E9A4201D9002CF7D1304641
:101ED00013F003FB8046002719E02B4600222A4915
:101EE000284814F0A5FF25E0204613F07BFA58B3EC
:101EF0002B460E222549234814F09AFF2B46202218
:101F00002168204814F094FF64690137FFB214B3CC
:101F1000022F20D83D01EDB21235EDB2737E3B4465
:101F2000DBB2327E9A42D8D02B460022184915489F
:101F300014F07EFF2369002BD6D02B460E221549C4
:101F4000104814F075FFD9E72B460E2212490D48B0
:101F500014F06EFFD2E7B8F1030F05D9737E2BB9E9
:101F6000737E0333434507DBBDE8F0815E22122117
:101F70007820FFF781FFF3E7762232217820FFF700
:101F80007BFFF1E788970108C49F0108D09F0108F3
:101F9000C89F0108CC9F0108D49F01082DE9F04794
:101FA00082B08046894617461D4600211046FFF73D
:101FB00097F840B9BA465046FFF7BAF806464FF0D0
:101FC000000C012407E007F1004AF4E704EB840465
:101FD00064000CF1010CAC45F8DB3046FEF78EFED8
:101FE00001465046FEF7D4FD82462046FEF786FEA7
:101FF00001465046FEF7D6FE4FF07C51FEF7CAFD73
:10200000FFF796F88246844202DC0136A0EB040A10
:1020100000213846FFF764F858B9CDF804A00095C0
:102020003346094A4946404612F084F902B0BDE8F9
:10203000F087CDF804A000953346044A494640464F
:1020400012F078F9F2E700BFE49F0108D89F010879
:10205000F8B50C46154690F8243043B9C26932B140
:102060001368154A2946204612F064F906E0012B50
:1020700005D02D23237063700023A370F8BD036A7D
:10208000002BF6D01E683046FFF752F80746FEF7E1
:1020900035FE3146FFF71AF830B13B46064A29466D
:1020A000204612F047F9E9E7022332462946204646
:1020B000FFF774FFE2E700BFEC9F010810B404468D
:1020C00008460A600B71019B8B60CC6000230B619A
:1020D0004B610B764B76CB610B6281F82430012289
:1020E00081F825208B62CB621B600B6A00221A608C
:1020F00034B123694BB11A465B69002BFBD15061A7
:10210000044B1B681BB110BC70472161F8E7014B01
:102110001860F8E77010002010B5704B1C68002C98
:1021200000F0D380052800F2D080DFE810F0340002
:10213000060062009100B300CA00694B1B781BB116
:10214000204613F04FF9F8B92369002B00F0BD8049
:10215000204613F0C2F9002800F0B780237E013337
:1021600093FBF0F100FB1133DBB22376627E023287
:102170009A4201DA9A1E6276627E934200D26376B8
:10218000584B01221A70A0E0204613F071F9554B0C
:1021900001221A7099E0524B1B781BB1204613F0B4
:1021A00021F9E0B92369002B00F08F80204613F05D
:1021B00094F9002800F08980237EBBB9421ED3B277
:1021C0002376627E9A4200D96376627E02329A4218
:1021D00001DA023B6376434B01221A7075E0204618
:1021E00013F011F93F4B01221A706EE0013BDBB294
:1021F000E6E72269F2B1002302E052690133DBB263
:10220000217E994201D9002AF7D1002A5DD0364BB0
:102210001B68062B05DC013333490B60334941F859
:1022200023402E4B1A602E4B00221A702D4B012298
:102230001A704AE0204613F0D5F8002845D0284A05
:10224000137883F001031370264B01221A703CE0CF
:10225000234B1B7833B1224B00221A70214B0122F1
:102260001A7032E0204B1B68002B0BDB591E1E4AF4
:1022700011601E4A52F82320184B1A60194B012294
:102280001A7022E0E36803B3144A1360154B01226D
:102290001A701AE0124B1B78BBB1204613F0A2F85B
:1022A00098B194F825200132114B83FB02135B1087
:1022B00003EB8303D31A84F825300A4B01221A70EA
:1022C00003E0204613F08EF800B910BD204613F04D
:1022D0000DF9044B01221A70F7E700BF70100020BF
:1022E0006C2800206D280020AC0200205010002037
:1022F0006766666618B1044A1268824200D0704769
:10230000024B01221A70FAE7701000206D2800209D
:102310003F4B1B78002B7AD03E4B1B68002B76D0AE
:1023200030B58BB000213A4B19703B4806F0A2F94A
:10233000384B1868036933B1FFF7B0FD364806F033
:102340003BF90BB030BD8368002B3ED09847314B32
:10235000186813F047F80028F0D02F4C00212046D1
:1023600006F0A0F905AD142229462A4B1868FFF79C
:102370006FFE302300222946204614F059FD274BDA
:102380001B78002B3CD0234B1868FFF74FFD044609
:10239000FEF7CEFE0546FEF7B1FC2146FEF796FE9F
:1023A00008B32B461E4A0C2102A811F0C3FF1A4C99
:1023B00030233C2202A9204614F03AFD3023642247
:1023C0001849204614F034FDB8E7134C002120468C
:1023D00006F068F90F4B1968182300220968204697
:1023E00014F026FDB3E70223224608216846FFF7D2
:1023F000D5FD6B460C4A0C2102A811F09BFFD6E7D5
:10240000302348220949044814F012FD96E770472A
:102410006D28002070100020889701086C2800208B
:10242000F09F010800A00108F89F010808A001081A
:1024300070B582B0224D002400942346214A2946DB
:102440002046FFF73BFE204E009423461F4A3146AC
:102450002846FFF733FE1E4B009301231D4A1E49F9
:102460002846FFF72BFE1D4B18601D4B00930123E0
:102470001C4A1D492846FFF721FE1C4B18601C4BC7
:10248000009301231B4A1C493046FFF717FE1B4BE4
:1024900018601B4D1B4B009301231B4A29463046F5
:1024A000FFF70CFE194BEB6185F824406FF0310209
:1024B000AA623222EA622C631C60204602B070BD20
:1024C0009811002010A001086011002018A0010838
:1024D000B526000824A00108F0100020EC10002010
:1024E000312600082CA00108B4100020B0100020F4
:1024F0006D25000834A00108781000207410002019
:1025000028110020112500083CA00108D01100204E
:1025100030B585B00446134D0121284606F0C2F8B7
:1025200000231A462168284614F082FC0021284620
:1025300006F0B8F8E36923B11868FEF7DFFB0A4B31
:10254000986101AC0223084A92690A21204600F0F2
:10255000A5FE1E2314222146024814F069FC05B092
:1025600030BD00BF889701089821002070B58CB05D
:102570000446284D0121284606F094F800231A4607
:102580002168284614F054FC0021284606F08AF8F9
:1025900002A9002602964E60009601961E4B18680E
:1025A00013F05CFA69461D4B186813F057FA04AC37
:1025B000039B1B4A2021204611F0BCFE1423324607
:1025C0002146284614F034FC029B164A202120465E
:1025D00011F0B0FE142340222146284614F028FCB6
:1025E000019B114A2021204611F0A4FE1E233246F1
:1025F0002146284614F01CFC009B0C4A2021204652
:1026000011F098FE1E2340222146284614F010FCAB
:102610000CB070BD8897010804210020E82000203C
:1026200044A001084CA0010854A001085CA00108C6
:10263000F0B58DB005461B4C0121204606F032F85E
:1026400000231A462968204614F0F2FB0021204698
:1026500006F028F8144F08AE02237A68102130469D
:1026600000F01CFE3346114A2021684611F062FE3C
:10267000142300226946204614F0DAFB02233A684C
:102680001021304600F00AFE3346094A20216846F0
:1026900011F050FE142340226946204614F0C8FB76
:1026A0000DB0F0BD889701087821002064A00108D2
:1026B00070A001082DE9F04192B00446504F00216E
:1026C000384605F0EFFF00231A462168384614F01B
:1026D000AFFB002600960196029603960496059697
:1026E0006846FEF735FFDDE90001FEF7FDF9024619
:1026F0000EAD02231021284600F0D0FD06AC2B467B
:10270000404A2021204611F015FE0A233246214678
:10271000384614F08DFBDDE90201FEF7E5F90246CB
:1027200002231021284600F0B9FD2B46364A20210D
:10273000204611F0FFFD0A2340222146384614F0BE
:1027400077FBDDE90401FEF7CFF9024602231021F1
:10275000284600F0A3FD2B462C4A2021204611F0EC
:10276000E9FD142332462146384614F061FB6846E1
:10277000FEF746FFDDE90001FEF7B6F90246022347
:102780001021284600F08AFD2B46214A20212046B0
:1027900011F0D0FD142340222146384614F048FBA6
:1027A000DDE90201FEF7A0F90246022310212846C6
:1027B00000F074FD2B46174A2021204611F0BAFD87
:1027C0001E2332462146384614F032FBDDE904016F
:1027D000FEF78AF9024602231021284600F05EFD2A
:1027E0002B460D4A2021204611F0A4FD1E23402235
:1027F0002146384614F01CFB12B0BDE8F08100BF42
:102800008897010878A0010880A0010888A0010825
:1028100090A0010898A00108A0A00108034668B193
:1028200079B1106880B1906888B159609A600020D1
:10283000187398735873074A1A6070474FF0FF3047
:1028400070474FF0FF3070474FF0FF3070474FF048
:10285000FF30704790F4010808B5064A064907485A
:10286000FFF7DCFF18B9064B044A1A6008BD4FF0A9
:10287000FF30FBE7C0F40108D81100203418002015
:10288000D411002010B5064C00221146206813F028
:102890001BF814220121206813F016F8002010BD47
:1028A000D411002010B558B1024683681548834200
:1028B00016D21548834213D35B691046984710BD62
:1028C000124C40F24C6322461149124813F0A1FB0E
:1028D000114813F09EFB40F24C61204613F090FB30
:1028E0000A4C40F24C6322460C490A4813F091FB13
:1028F0000B490C4813F08DFB40F24C61204613F05D
:102900007FFB00BF609A01083C9A0108A8A001085B
:10291000DCA00108449D0108649D0108F0A00108A5
:1029200030A20108D49E010810B543681A6801233B
:1029300003FA01F10A4202D0FFF7B4FF10BD084CC0
:1029400040F24D7322460749074813F062FB0748DF
:1029500013F05FFB40F24D71204613F051FB00BFB6
:10296000A8A0010838A20108449D010878A2010826
:10297000C2788B1F9A425CD110B582B00446002306
:102980001A469E4608E014F803C0F4445FFA8CFE31
:102990007244D2B20133DBB2881E8342F3DB235C84
:1029A000734518D10139635C934214D1A37873B98C
:1029B000ADF804308DF80630237963B9637953B9E3
:1029C000A37943B91B4B186812F0A2FF03E0E02B78
:1029D00003D0032B12D002B010BD01A90023ADF823
:1029E00004308B70A3788DF804308DF805E08DF8F5
:1029F0000620104B186812F056FFECE708210E482D
:102A0000FFF792FF6068FDF7F3FD00220B4BFDF727
:102A100083FFFEF769F80A4B1860E068FDF7E8FDF0
:102A20000022064BFDF778FFFEF75EF8054B1860B5
:102A3000D1E77047D41100208C96010800408F40E8
:102A4000C40200205823002070B582B00C46154601
:102A500038B101281BD10B785A1C0A700122EA54A4
:102A600015E001AE0023ADF804308DF80630314694
:102A7000084B186812F03BFF2378EA18BDF80400F1
:102A80009DF80610E852917023780333237002B04A
:102A900070BD00BFD411002008B50A460146024BA4
:102AA000186812F046FF08BD5C18002010B550B140
:102AB000836815498B4216D214498B4213D31B6C81
:102AC00003B1984710BD124C40F25B1322461149E6
:102AD000114813F09EFA114813F09BFA40F25B1173
:102AE000204613F08DFA0A4C40F25B1322460C4943
:102AF000094813F08EFA0B490B4813F08AFA40F29A
:102B00005B11204613F07CFA7C9B0108189B01089E
:102B10008CA201082C9D0108449D0108649D0108B8
:102B2000CCA2010860B70108D49E010810B550B1CD
:102B3000836815498B4216D214498B4213D35B6BC1
:102B400003B1984710BD124C40F23113224611498F
:102B5000114813F05EFA114813F05BFA40F231119C
:102B6000204613F04DFA0A4C40F2311322460C492C
:102B7000094813F04EFA0B490B4813F04AFA40F299
:102B80003111204613F03CFA7C9B0108189B010888
:102B90008CA201082C9D0108449D0108649D010838
:102BA000CCA2010860B70108D49E010810B550B14D
:102BB000836815498B4216D214498B4213D3DB6DBF
:102BC00003B1984710BD124C4FF4DE7322461149F1
:102BD000114813F01EFA114813F01BFA4FF4DE717E
:102BE000204613F00DFA0A4C4FF4DE7322460C49CE
:102BF000094813F00EFA0B490B4813F00AFA4FF488
:102C0000DE71204613F0FCF97C9B0108189B01083B
:102C10008CA201082C9D0108449D0108649D0108B7
:102C2000CCA2010860B70108D49E010810B550B1CC
:102C3000836817498B4216D216498B4213D3DB6B3C
:102C400013B3984710BD144C40F24B13224613495E
:102C5000134813F0DEF9134813F0DBF940F24B117F
:102C6000204613F0CDF90C4C40F24B1322460E498E
:102C70000B4813F0CEF90D490D4813F0CAF940F294
:102C80004B11204613F0BCF96FF05700DAE700BF94
:102C90007C9B0108189B01088CA201082C9D01084F
:102CA000449D0108649D0108CCA2010860B7010899
:102CB000D49E010810B560B18446836815488342EC
:102CC00015D21548834212D3DB6AFBB160469847A0
:102CD00010BD124CE92322461149124813F099F90C
:102CE000114813F096F9E921204613F089F90B4CAD
:102CF000E92322460D490B4813F08BF90C490D4886
:102D000013F087F9E921204613F07AF96FF05700A4
:102D1000DEE700BF7C9B0108189B01088CA201081C
:102D20002C9D0108449D0108649D0108CCA2010866
:102D300060B70108D49E010810B550B183681549E9
:102D40008B4216D214498B4213D39B6B03B1984725
:102D500010BD124C4FF49F7322461149114813F0D5
:102D600058F9114813F055F94FF49F71204613F0AC
:102D700047F90A4C4FF49F7322460C49094813F057
:102D800048F90B490B4813F044F94FF49F71204662
:102D900013F036F97C9B0108189B01088CA20108EE
:102DA0002C9D0108449D0108649D0108CCA20108E6
:102DB00060B70108D49E010810B550B18368174967
:102DC0008B4216D216498B4213D3DB6C13B3984750
:102DD00010BD144C4FF4C27322461349134813F02C
:102DE00018F9134813F015F94FF4C271204613F087
:102DF00007F90C4C4FF4C27322460E490B4813F0EE
:102E000008F90D490D4813F004F94FF4C27120463A
:102E100013F0F6F86FF05700DAE700BF7C9B01086B
:102E2000189B01088CA201082C9D0108449D0108F3
:102E3000649D0108CCA2010860B70108D49E010876
:102E400010B560B1844683681748834217D217488B
:102E5000834214D31B6B1BB36046984710BD144CC0
:102E600040F20D1322461349134813F0D2F81348C9
:102E700013F0CFF840F20D11204613F0C1F80C4CBE
:102E800040F20D1322460E490B4813F0C2F80D49CB
:102E90000D4813F0BEF840F20D11204613F0B0F8C3
:102EA0006FF05700DAE700BF7C9B0108189B010810
:102EB0008CA201082C9D0108449D0108649D010815
:102EC000CCA2010860B70108D49E010838B578B1DA
:102ED000B0FA80F464098368194DAB421BD2194DD6
:102EE000AB4218D3A3B11B6E33B39847204638BD0D
:102EF000154C4FF4E47322461449154813F089F831
:102F0000144813F086F84FF4E471204613F078F873
:102F10006FF05704EAE70C4C4FF4E47322460E4975
:102F20000B4813F076F80D490D4813F072F84FF482
:102F3000E471204613F064F86FF05704D6E700BF41
:102F40007C9B0108189B01088CA201082C9D01089C
:102F5000449D0108649D0108CCA2010860B70108E6
:102F6000D49E010810B50C4641608260C360002306
:102F70000374044B0360024603492068FFF7A6FF71
:102F800010BD00BFD8F40108BB59010808B5164BA5
:102F90001B68164A126816491648FFF7E3FF0346F6
:102FA00008B1184608BD144B1B68144A126814492E
:102FB0001448FFF7D7FF03460028F2D10D48124B03
:102FC0001860124B0F4A1A604FF47A7112F0BCFC71
:102FD00003460028E5D14FF47A710C4B186812F0C3
:102FE000B3FC0346DDE700BFAC1C0020B01C002092
:102FF000E4F40108601800207418002078180020FC
:10300000E0F40108481800205C1800204418002053
:10301000B1F5004F09D20161026000230381C38032
:103020008380C38183814381704710B5064CC323DD
:1030300022460649064812F0ECFF064812F0E9FF66
:10304000C321204612F0DCFF0CA4010840A40108B3
:10305000449D010858A4010810B5154C154B4FF4B8
:1030600000721549204612F0DFFC144B1C60144C12
:10307000144B4FF400721449204612F0D5FC134B48
:103080001C60134C134B4FF400721349204612F08E
:10309000CBFC124B1C60124C124B4FF400721249C5
:1030A000204612F0C1FC114B1C60002010BD00BF77
:1030B000CC20002090A40108B41E0020B01C0020E9
:1030C000B420002098A40108B41C0020AC1C0020EF
:1030D0007C1C0020A0A401087C180020741800208B
:1030E000941C0020A8A401087C1A00207818002055
:1030F00008B50548054B186015F0EAFF08B1002037
:1031000008BD6FF01200FBE7F8970108E4200020EB
:1031100010B550B1836815498B4216D214498B42C1
:1031200013D3DB684E21984710BD124C40F2B733E1
:1031300022461149114812F06CFF114812F069FF44
:1031400040F2B731204612F05BFF0A4C40F2B73331
:1031500022460C49094812F05CFF0B490B4812F05B
:1031600058FF40F2B731204612F04AFFC89A0108D2
:10317000909A0108B0A401082C9D0108449D010803
:10318000649D0108E4A4010830A60108D49E01084A
:1031900010B558B1844683681548834216D2154845
:1031A000834213D31B696046984710BD124C40F20E
:1031B000F53322461149124812F02BFF114812F044
:1031C00028FF40F2F531204612F01AFF0A4C40F277
:1031D000F53322460C490A4812F01BFF0B490C48F4
:1031E00012F017FF40F2F531204612F009FF00BF40
:1031F000C89A0108909A0108B0A401082C9D010802
:10320000449D0108649D0108E4A4010830A601085A
:10321000D49E010808B5044B1868FFF76BF8034B00
:103220001868FFF775FF08BDEC100020E4200020AF
:1032300010B58CB0FFF7EEFF06A80023069343609D
:103240008360C3600361436100930193029303931E
:1032500004930593FEF77CF96846FEF7D1F9DDE9A2
:103260000001FDF741FC0C4CE061DDE90201FDF7D6
:103270003BFC2060DDE90601FDF736FC6060DDE91E
:103280000801FDF731FCA060DDE90A01FDF72CFC27
:10329000E0600CB010BD00BF98210020002800F0B5
:1032A00086802DE9F04385B00F4691461C460646C0
:1032B00001297FD9062B00D9062400214846FDF7B5
:1032C0000FFF60B9002500234FF001089C420CD984
:1032D00008EB88084FEA48080133DBB2F6E72D23F4
:1032E000337009F100490125EDE74046FDF702FD85
:1032F0004946FDF757FD4FF07C51FDF74BFCFDF7BC
:103300003DFF0346B0FBF8F008FB103198451CD98F
:1033100030238DF8003001225319BB424DD2531E89
:103320001DE02A4BA3FB00C3DB089C4603EB830391
:10333000A0EB4303303302F11000684400F8103C66
:10334000604601320028ECD1E6E70022FAE703F1FB
:1033500010026A4412F8102C7255013B0135002B03
:10336000F5DAF4B1013FAF422AD92E237355631E1B
:10337000013510E002EB820252000CF1010C6345B2
:10338000F8DCB1FBF2F002FB1011AF421BD9303078
:103390007055013B0135002B03DB4FF0000C01227F
:1033A000EDE700237355284605B0BDE8F0834FF0E4
:1033B000FF3070474FF0FF30F6E74FF0FF30F3E794
:1033C0004FF0FF30F0E74FF0FF30EDE7CDCCCCCC45
:1033D0002DE9F04F83B00191002800F086809146DE
:1033E0000446002900F08480002A00F084804FF019
:1033F000000853E0013422785AB1A2F12B03DBB26A
:103400000E2BF7D847F6ED7121FA03F313F0010FF5
:10341000F0D0002A70D02D2A0DD02B2A0FD04FF0DB
:10342000010B2278A2F13003DBB2092B3BD92E2A03
:1034300034D1013432E001344FF0FF3BF1E7013485
:103440004FF0010BEDE705EB8505303B03EB450540
:1034500001342378A3F13002D2B2092AF3D92E2BFA
:1034600023D04FF07E5700262846FDF747FC05463F
:1034700039463046FDF74AFD01462846FDF78AFBEE
:1034800005465846FDF73AFC2946FDF78BFC08F146
:103490000103019A42F828005FFA83F823785BB3AE
:1034A000C845A8D328E00025D3E701344FF07E5764
:1034B000002694F800A0AAF13003DBB2092BD3D880
:1034C0000F493046FDF76EFC0646AAF13000FDF7C5
:1034D00015FC01463046FDF75DFB064608493846B7
:1034E000FDF760FC07460134E3E74FF0000803E016
:1034F0004FF0000800E09046404603B0BDE8F08F72
:103500000000204110B550B1836815498B4216D296
:1035100014498B4213D3DB684E21984710BD124CDF
:1035200040F2B73322461149114812F072FD11489A
:1035300012F06FFD40F2B731204612F061FD0A4CE7
:1035400040F2B73322460C49094812F062FD0B499C
:103550000B4812F05EFD40F2B731204612F050FDEC
:10356000C89A0108909A0108B0A401082C9D01088E
:10357000449D0108649D0108E4A4010830A60108E7
:10358000D49E010810B558B184468368154883421B
:1035900016D21548834213D31B696046984710BD65
:1035A000124C40F2F53322461149124812F031FD17
:1035B000114812F02EFD40F2F531204612F020FDA8
:1035C0000A4C40F2F53322460C490A4812F021FD1C
:1035D0000B490C4812F01DFD40F2F531204612F067
:1035E0000FFD00BFC89A0108909A0108B0A4010815
:1035F0002C9D0108449D0108649D0108E4A4010874
:1036000030A60108D49E0108B0B582B000AF1546BF
:1036100028B3044619B34160226015F0D3FEE06080
:103620006C4600233B7102237B7188B0EC461CF191
:1036300010026AD00E2022B1042802DD4F4BCCF8D4
:10364000143000233B7002237B70002A6AD00828C4
:1036500001DDCCF818500CF11C03002160E06C4631
:1036600000233B7102237B7188B0EC461CF11002F1
:1036700013D00E2022B1042802DD414BCCF81430C7
:1036800000233B7002237B70A2B1082801DDCCF837
:1036900018500CF11C0300210AE06FF00040E9E72C
:1036A00001F108053D4415F8085C03F8015B0131A0
:1036B0000129F5D90D2825DD0E234AB103213971E1
:1036C00000217971B9710121F9717868CCF8100085
:1036D000002121F0010121F0020121F0040121F07B
:1036E0003801012060F38811C3F30A0363F3532107
:1036F000C1F313010023234804F0FEF9A5466FF03F
:10370000150035E06FF01B03D7E76FF0004092E73C
:1037100001F108053D4415F8085C03F8015B01312F
:103720000129F5D90D2826DD0E234AB1032139716F
:1037300000217971B9710121F9717868CCF8100014
:10374000002121F0010121F0020121F0040121F00A
:103750003801032060F38811C3F30A0363F3532194
:10376000C1F313010023074804F0C6F9A546002061
:103770000837BD46B0BD6FF01B03D6E754A601085D
:1037800038A60108AC9B010810B5094C094A0A4942
:103790002046FFF739FF094A146000B110BD084CFC
:1037A000084A09492046FFF72FFF084B1C60F5E740
:1037B000082100206CA60108F0F401080421002073
:1037C000EC20002078A60108E8F40108E820002099
:1037D0002DE9F04184B000AF002800F0FA800446E3
:1037E00043681868FFF78EFE0546002859D0216807
:1037F0006E4600233B7102237B718AB06C4614F144
:10380000100215D012201AB1042801DD724B636139
:1038100000233B7002237B70BAB10346082800DD09
:10382000A1610C2B00DDE56104F1200300210AE019
:103830006FF00040E7E701F1100CBC441CF810CC1D
:1038400003F801CB01310129F5D9112826DD122316
:1038500042B10421397100217971B9710121F971E5
:1038600078682061002121F0010121F0020121F09E
:10387000040121F03801012060F38811C3F30A0329
:1038800063F35321C1F313010023544804F034F9C6
:10389000B54628461037BD46BDE8F0816FF01B03E2
:1038A000D6E76368186807F108024C21FFF76AFE43
:1038B0000546002855D021686E4600233B7102233F
:1038C0007B718AB06C4614F1100215D012201AB127
:1038D000042801DD424B636100233B7002237B70AF
:1038E000BAB10346082800DDA1610C2B00DDE561BB
:1038F00004F1200300210AE06FF00040E7E701F146
:10390000100CBC441CF810CC03F801CB0131012988
:10391000F5D9112822DD122342B104213971002189
:103920007971B9710121F97178682061002121F064
:10393000010121F0020121F0040121F038010120F0
:1039400060F38811C3F30A0363F35321C1F3130136
:103950000023224804F0D0F8B5469AE76FF01B0325
:10396000DAE715F02FFD0246B968A368CB1A4EF6C8
:103970006020834224DDA3F57F43EB3BE668961B82
:103980006068007918B34FF0FF3003FB00F0236943
:1039900003442361A160E260002E3FF47AAFFDF79B
:1039A000ADF980463046FDF7A5F901464046FDF7E2
:1039B000ADFA0C49FDF7F6F9FDF7BAFB606168E76F
:1039C00009488342DADA03F57F43FF33D6E7012063
:1039D000DBE76FF015055CE784A60108AC9B0108E6
:1039E000A8A6010800002041A015FFFF08B5064B5E
:1039F0001868FFF7EDFE054B1868FFF7E9FE044B6A
:103A00001868FEF777FC08BD04210020E82000209C
:103A10007410002008B5024800F036FD002008BDF3
:103A2000B002002010B558B10246836815488342A1
:103A300016D21548834213D3DB681046984710BD51
:103A4000124C40F2F25322461149124812F0E1FAA8
:103A5000114812F0DEFA40F2F251204612F0D0FA8C
:103A60000A4C40F2F25322460C490A4812F0D1FAAD
:103A70000B490C4812F0CDFA40F2F251204612F0F8
:103A8000BFFA00BF609A01083C9A0108A8A001088B
:103A9000DCA00108449D0108649D0108F0A0010814
:103AA00030A20108D49E010810B558B102468368BF
:103AB0001548834216D21548834213D31B6910461A
:103AC000984710BD124C40F21F632246114912481C
:103AD00012F09FFA114812F09CFA40F21F61204642
:103AE00012F08EFA0A4C40F21F6322460C490A4833
:103AF00012F08FFA0B490C4812F08BFA40F21F615A
:103B0000204612F07DFA00BF609A01083C9A010835
:103B1000A8A00108DCA00108449D0108649D0108DB
:103B2000F0A0010830A20108D49E010810B5436836
:103B30001C68012303FA01F10C4203D092B1FFF794
:103B400071FF10BD094C40F2F7632246084909484D
:103B500012F05FFA084812F05CFA40F2F761204672
:103B600012F04EFAFFF7A0FFEBE700BFA8A0010894
:103B700038A20108449D010878A2010838B54368BD
:103B800005691C6801238B401C4208D02C68234225
:103B900002D0B2FA82F25209FFF7C8FF38BD084CD2
:103BA00040F2227322460749074812F032FA0748CA
:103BB00012F02FFA40F22271204612F021FA00BFD3
:103BC000A8A0010838A20108449D010878A20108B4
:103BD00008B9022900D0704708B5064B93F8282091
:103BE00082F0010283F8282008210348FFF7C6FF6E
:103BF00008BD00BF982100208C96010870B50028F0
:103C000042D01346864684686B4A94424CD26B4A33
:103C1000944249D34668006913F0FC6F55D103F014
:103C20003002302A61D0664A1A40664DAA426CD0F2
:103C300003F00602042A78D013F4402240F0828078
:103C4000B2F5402F00F0928013F4801F05D022B10E
:103C500013F0010F01D083F4402323F48012356860
:103C60004FF0010C0CFA01FC15EA0C0F00F08E80ED
:103C700013F0010F00F09A8003684CEA030303601D
:103C800023687046984770BD4F4C40F2534322461C
:103C90004E494F4812F0BDF94E4812F0BAF940F2C1
:103CA0005341204612F0ACF9474C40F253432246B0
:103CB0004949474812F0ADF94849494812F0A9F975
:103CC00040F25341204612F09BF93F4C40F25C43D6
:103CD000224644493E4812F09CF9434812F099F9B3
:103CE00040F25C41204612F08BF9374C40F25F43C2
:103CF00022463E49364812F08CF93D4812F089F9C7
:103D000040F25F41204612F07BF92F4C40F26343B2
:103D1000224638492E4812F07CF9374812F079F9DA
:103D200040F26341204612F06BF9274C40F26643A3
:103D300022463249264812F06CF940F2664120468C
:103D400012F05EF913F4003F7FF47AAF1E4C40F29C
:103D5000694322462A491E4812F05BF9294812F0AD
:103D600058F940F26941204612F04AF9164C40F2E7
:103D70006D4322462449164812F04BF9234812F0AD
:103D800048F940F26D41204612F03AF90E4C40F2EB
:103D9000794322461E490E4812F03BF91D4812F0A5
:103DA00038F940F27941204612F02AF9036823EAF3
:103DB0000C03036064E700BF609A01083C9A0108A5
:103DC0000200030002000100A8A00108DCA0010815
:103DD000449D0108649D0108F0A0010830A201087B
:103DE000D49E0108CCA601083CA7010860A70108E1
:103DF0009CA70108DCA701082CA801087CA80108E1
:103E0000B0A8010800A901083CA901088CA9010873
:103E100038A2010878A2010810B558B18446836819
:103E20001548834216D21548834213D35B68604617
:103E3000984710BD124C40F2822322461149124885
:103E400012F0E7F8114812F0E4F840F2822120461F
:103E500012F0D6F80A4C40F2822322460C490A4856
:103E600012F0D7F80B490C4812F0D3F840F2822137
:103E7000204612F0C5F800BF809A0108789A010820
:103E8000B8A901082C9D0108449D0108649D010802
:103E9000E8A9010820AB0108D49E0108934231D85B
:103EA00030B583B068B18468184DAC4219D2184D52
:103EB000AC4216D32468BDF818500095A04703B053
:103EC00030BD144C40F26E2322461349134812F0C1
:103ED000A0F8134812F09DF840F26E21204612F02F
:103EE0008FF80C4C40F26E2322460E490B4812F01C
:103EF00090F80D490D4812F08CF840F26E212046E2
:103F000012F07EF86FF01500704700BF809A01082C
:103F1000789A0108B8A901082C9D0108449D010860
:103F2000649D0108E8A9010820AB0108D49E01089E
:103F30002DE9F04184B002AF002800F0D9800C4692
:103F400015460646002900F0D680002A00F0D680EB
:103F5000086815F0BDF878B1746035604FF4B011A1
:103F600004F1080011F091FD0446002857D02046C6
:103F70000837BD46BDE8F0816E4600233B71022341
:103F80007B7188B002AC14F1100211D00E201AB16E
:103F9000042801DD5B4B636100233B7002237B70CF
:103FA0009AB1082800DDA56104F11C0300210AE094
:103FB0006FF00040EBE701F108053D4415F8085C9F
:103FC00003F8015B01310129F5D90D2824DD0E2309
:103FD00042B10321397100217971B9710121F9715F
:103FE00078682061002121F0010121F0020121F017
:103FF000040121F03801012060F38811C3F30A03A2
:1040000063F35321C1F3130100233F4803F074FD10
:10401000B5466FF01204AAE76FF01B03D8E770688B
:104020004FF4B011103011F030FD044600289ED13D
:104030007368186859684FF00008CDF8008043464F
:10404000324AFDF765FB6E4687F8048002237B71D8
:1040500088B00DF1080C1CF1100213D00E2022B113
:10406000042802DD2A4BCCF8143000233B700223D5
:104070007B70A2B1082801DDCCF818500CF11C03AC
:1040800000210AE06FF00040E9E701F108053D4436
:1040900015F8085C03F8015B01310129F5D90D28F9
:1040A00023DD0E234AB10321397100217971B971E1
:1040B0000121F9717868CCF81000002121F001018C
:1040C00021F0020121F0040121F03801032060F306
:1040D0008811C3F30A0363F35321C1F313010023CF
:1040E000094803F009FDB54641E76FF01B03D9E726
:1040F0006FF015043BE76FF0150438E76FF0150417
:1041000035E700BF24AB01085C9C0108002D31019C
:104110003CAB010810B54FF4B01208210D48FFF771
:104120006DFD034608B1184610BD0B4C0B4A0C49F7
:104130002046FFF7FDFE0B4B1C6003460028F2D122
:10414000094C0A4A0A492046FFF7F2FE0346094A8B
:104150001460E8E78C9601083021002054AB010878
:1041600010F501082C210020242100205CAB01085F
:10417000F8F4010820210020002843D030B583B096
:104180000C460546B1F57A7F04DC11F57A7F03DA37
:104190001E4C03E04FF47A74002C16DC002C23DB59
:1041A00068680021083011F068FC68680021103050
:1041B00011F063FC00236A681068516800220092C5
:1041C000134AFDF7A5FA03B030BD68680121083035
:1041D00011F053FC68680021103011F04EFC44F6D9
:1041E000206304FB03F3E6E768680021083011F060
:1041F00044FC68680121103011F03FFC054B04FBC2
:1042000003F3D8E76FF01500704700BF18FCFFFFFD
:10421000002D3101E0B1FFFF70B506460D46064B9B
:104220001C6800E0246834B16368002BFAD029468A
:1042300030469847F6E770BD3821002010B50A4B8C
:104240001C7804EB44029300084AD35C022B00D094
:1042500010BD01212046FFF7DFFF04EB4404A3005B
:10426000024A0021D154F3E7702800203C210020AD
:10427000F8B54379012B0BD10446C08811F010FC2E
:104280000546A468012C14BF00270127032800D984
:10429000F8BD15F097F8064605EB45022A4B03EBEF
:1042A00082031F72012C12D005EB4503264A12F837
:1042B0002330012B32D0032BEAD124480DF02EF904
:1042C00005EB4505AD00204B00225A55E0E71346AB
:1042D0001D4A12F823307BB1022BD9D11C480DF0B6
:1042E0001DF902212846FFF797FF05EB4505AD00B4
:1042F000154B00225A55CBE7134B05EB4502012124
:1043000003F8221003EB82035E60124B1D704FF422
:104310007A72002310480DF067F8B9E70E480DF0E7
:10432000FDF8094B05EB4502022103F8221003EBCF
:1043300082035E60094B1D704FF49672002304489F
:104340000DF052F8A4E700BF3C2100200007002038
:10435000600700206F280020300700207028002010
:1043600010B5114B1C7804EB4402104B13F82230AB
:10437000032B00D010BD0D4B03EB82031B7A002BE7
:10438000F8D004212046FFF747FF15F01BF804EB97
:104390004404064B03EB84035860C82200230448FE
:1043A0000DF022F8E6E700BF6E2800203C21002037
:1043B0000007002070B5154B1C7804EB4402144B29
:1043C00013F82230012B00D070BD114B03EB820398
:1043D0001B7A002BF8D003212046FFF71DFF0C4D60
:1043E000660004EB4403032205F8232014F0EAFFDF
:1043F000264405EB86056860044B1A78054B1A7055
:10440000C822002304480CF0EFFFDDE76F280020EE
:104410003C2100206E2800200007002008B5002362
:104420000AE0104803EB43018A0000EB020C002174
:1044300081548CF808100133032BF2DD0A490B4834
:104440000CF01CFF0A490B480CF018FF0A490B48F6
:104450000CF014FF0A4A03210A4812F04DF900201B
:1044600008BD00BF3C2100203D420008600700203D
:10447000B543000830070020614300080007002012
:1044800074AB0108EC9B0108024B1A6802601860CB
:10449000704700BF3821002038B520F0004421F0DB
:1044A000004529462046FCF71BFE48B92946204610
:1044B000FCF734FEA8B913492046FCF773FC38BD5D
:1044C00029462046FCF722FD0146FCF76BFC4FF025
:1044D0007E51FCF75FFB10F0E9FC2946FCF762FC1B
:1044E000EDE721462846FCF711FD0146FCF75AFC92
:1044F0004FF07E51FCF74EFB10F0D8FC2146FCF744
:1045000051FCDCE7F304B53F2DE9F04F87B081465D
:1045100090469B46D1F804C0BD4BC3F83CC10A6825
:10452000C3F84021CB6801938B6802930024CDF837
:104530000CC00492CDF814B0012C3DDC04F1020A49
:1045400059F82A70A60059F824B039460398FCF7A8
:1045500029FC054659460498FCF724FC01462846E8
:10456000FCF718FBAA4DB31D45F8230058F824208A
:1045700006F1080345F8232039460198FCF712FCA0
:10458000074659460298FCF70DFC01463846FCF7F1
:1045900001FBF31D45F8230058F82A30093645F889
:1045A000263004F12402002345F8223004F12602CB
:1045B00045F822300134BFE7DDF814B00025D946B4
:1045C00087E1B246D6F85831063356F8238039468B
:1045D0004046FFF761FF0646CAF840010021404609
:1045E000FCF792FD18B106F10046CAF84061884B0D
:1045F000D3F8407127F000404FF04061FCF770FDA8
:10460000002800F09E80824B4FF0FF32C3F85C21FF
:104610000194AB462AE07E4E671D4FF0E64156F806
:104620002700FCF7BFFB46F82700013408F1040619
:10463000A642F0DA764F4FF0E641D7F84001FCF79A
:10464000B1FB0446C7F840014FF0E641D7F83C0102
:10465000FCF7A8FB8046C7F83C0124F000404FF06F
:104660004061FCF73DFD70B1122D0CDC684BD3F8B6
:104670005C510135C3F85C51D3F858A1AAEB0B0883
:10468000D3F86041D2E7019C5D46624F0AF1020215
:104690003946204611F0A4FA01464046FFF7FCFED9
:1046A0000446C7F82801183FD7F83C710021384666
:1046B000FCF72AFD20B104F10044554BC3F84041FA
:1046C000534CD4F8408139464046FCF761FA4146E4
:1046D000FCF71CFC05F1240344F82300414638464E
:1046E000FCF756FA01464FF07E50FCF70FFC82466D
:1046F000C4F83C01D4F860410AE0454F04F10508D4
:1047000057F828105046FCF74DFB47F828000134B5
:10471000A642F2DA002409E03D4E4FF04061D6F89F
:104720004001FCF73FFBC6F840010134384BD3F899
:104730005C31A342F0DA364BD3F84021C3F83C2178
:10474000EDE041463846FCF723FA3946FCF7DEFB3C
:104750002F4C05F1240344F8230039464046FCF76A
:1047600017FA01464FF07E50FCF7D0FB8346C4F8A1
:104770003C01D4F85831A3EB0508D4F860410AE0B5
:10478000234E04F1050A56F82A105846FCF70AFB96
:1047900046F82A00013408F10403A342F0DA1C4B66
:1047A000C3F83C71BBE0C5F10403194AC2F860319B
:1047B000AAEB050404E0013F154BC3F86071013C0E
:1047C000134BD3F86071002F09DD04F109030021B8
:1047D0000F4A52F82300FCF779FC0028EBD16B421A
:1047E00098461BE008F1FF380223ABB907EB0B0337
:1047F0000433A342F6DB631D0021054A52F823006F
:10480000FCF764FC10B101340023EEE70123ECE770
:10481000C4210020DC210020012B0AD0B8F1000FB8
:1048200004DB0AEB880B0BF10504DFE7CDF804800D
:104830009AE0CDF8048097E05A1C920000219F482E
:104840000FF0D2FC9CE09E4DD5F840610AEB0403CA
:10485000A3EB08030633621D55F8221055F8230018
:10486000FCF7A0FA01463046FCF794F9C5F8400180
:1048700001345C45E7DBA8EB0A04053CA410904D2D
:104880002634D5F8401155F82400FCF783F945F893
:10489000240008F104087B1D434509DB884B0022F6
:1048A000C3F84021D3F8603103EB080B4446E0E73E
:1048B000029E039D00213046FCF708FC00286AD0C8
:1048C0007F4BD3F85821D3F83C11063243F822101D
:1048D0000135012D00F3B88005EB8503784EC6F84D
:1048E00058319A1CC6F86021063356F82330C6F8B2
:1048F0003C3105F124034FF0000846F82380C5F150
:10490000030406F11801204611F06AF90746C6F8BB
:1049100040014146FCF7DAFB00283FF452AE684BF9
:10492000D3F858A1D3F83C110AF1060243F822103B
:10493000002DCDDC4FF07E5143F822100AF1050224
:10494000C3F85C2105F1240253F8226000213046AF
:10495000FCF7BCFB00283FF426AF594B0022C3F8FC
:1049600060214FF0FF330193554BD3F86031002B9A
:10497000A6DD019BB3F1FF3F9CD0002BBFF65CAFDF
:104980004F4BD3F858A1019A0AEB8207D3F85C8108
:10499000029603957FE74A4BD3F85821114600222F
:1049A000C3F85C218B4603960495019FCDF81490C3
:1049B00089461EE0424E671D56F827A004EB090306
:1049C000A3EB0B03013356F823102846FCF7EAF952
:1049D00001465046FCF7DEF846F82700013444450E
:1049E000E8DD019E029F0BF1040B0136344BC3F846
:1049F0005C61334BD3F85C61BE4221DC304B06F185
:104A0000260253F82240C3F8404100212046FCF71B
:104A10005DFB0028E7D1039B03F100412046FCF732
:104A2000C1F90546264BC3F840010BF10504D3F844
:104A3000603103EB0B0808F1040801960297CEE7FA
:104A4000049DDDF814903BE7CB461D4B0022C3F8D4
:104A5000582113E002EB830002EB4301184C0630AF
:104A600054F820001E3144F8210001329342F1DA5B
:104A7000002B0ADD0133124AC2F85831104BD3F82B
:104A80005831012B08DC0022F0E75A001F320C4994
:104A9000002041F82200EDE7094B9A6FCBF8002087
:104AA000D3F88020CBF80420DA6FCBF80820D3F8B5
:104AB0008430CBF80C3007B0BDE8F08F5C220020CA
:104AC000C42100202DE9F04F8BB0AF4C94F8833116
:104AD0000993276927F00040AC4E3146FCF762F994
:104AE000314610F003FB0546C4F80801014638467C
:104AF000FCF750F83946FCF74BF82946FCF706FA64
:104B0000A06429460020FCF701FAE064676927F0F9
:104B100000403146FCF746F9314610F0E7FA054609
:104B2000C4F8080101460020FCF7F0F92065294689
:104B30003846FCF72FF83946FCF72AF82946FCF7E7
:104B4000E5F9606504F13803914A214604F1480013
:104B5000FFF7DAFC0023C4F84C313EE08A4C54F8ED
:104B60002560C4F80C6121683046FCF71BF98046CB
:104B7000C4F8100161683046FCF714F90746C4F820
:104B800014016E00C4F8506106F11A034FF0000AD8
:104B900044F823A0AB1C54F82390C4F80C91A168EE
:104BA0004846FCF7FFF801464046FBF7F3FF06F1E5
:104BB000160344F82300E1684846FCF7F3F8014681
:104BC0003846FBF7E7FF06F1170344F823001B36CE
:104BD00044F826A00135C4F84C516B4BD3F84C5126
:104BE000012DBBDD9A6DC3F80C21D3F85CE0C3F84E
:104BF00010E1D3F860C0C3F814C1D3F864B0C3F8AF
:104C000018B10021C3F84C110192CDF808E0CDF89D
:104C10000CC041E05C4C05F1120354F82370C4F859
:104C20001C716E00C4F8506139460198FCF7BAF85F
:104C300006F11A0A54F82A10FBF7ACFF8046C4F8B4
:104C400020011B3654F8269039460298FCF7AAF842
:104C500001464846FBF79EFF0746C4F8280105F1C8
:104C6000140354F82390C4F81C9149460398FCF7A8
:104C700099F801464046FBF78DFF44F82A00494663
:104C80005846FCF78FF801463846FBF783FF44F897
:104C900026000135C4F84C513B4BD3F84C51012D43
:104CA000B8DD1C469B6EA365236FE365E36E236648
:104CB000636F636604F1380504F15801284610F06B
:104CC00003FFA36BA366236CE366E36B2367636C4C
:104CD0006367A36DA363E36DE363236E2364636E75
:104CE0006364294604F1680010F039FFD4F838A055
:104CF000C4F858A0D4F84090C4F85C90E36B0193DA
:104D00002366626C029262660AF100410391C4F864
:104D1000101109F100410491C4F8141103F100438A
:104D20000593C4F8183102F100430693C4F81C310E
:104D3000184E7768B56829462846FCF733F8804650
:104D4000F66831463046FCF72DF801464046FBF741
:104D500021FF10F0ABF8014607F1004010F00AF90E
:104D60002169FBF715FF0790C4F82001314628465A
:104D700010F000F96169FBF70BFFC4F8280100236C
:104D8000C4F8503108909BE0C4210020F304B539E9
:104D9000280A0208982100207500B74CC4F84C512D
:104DA00005F1120354F82370C4F80C7139460398C6
:104DB000FBF7F8FF8046C4F8240139460498FBF756
:104DC000F1FF0746C4F8080105F1130354F823B0B6
:104DD000C4F80CB159460598FBF7E4FF014640467C
:104DE000FBF7D8FE05F11A0344F82300594606984C
:104DF000FBF7D8FF01463846FBF7CCFE05F11B0355
:104E000044F82300AF19C4F854711A374FF07E519B
:104E100054F82700FBF7BEFE44F82700DFF85CB229
:104E200005F5A8635BF82370C4F80C713946504649
:104E3000FBF7B8FF8046C4F8240139464846FBF723
:104E4000B1FF0746C4F8080105F241535BF823B0EF
:104E5000C4F80CB159460198FBF7A4FF014640463F
:104E6000FBF798FE05F10E0344F82300594602981B
:104E7000FBF798FF01463846FBF78CFE0F3544F8E8
:104E80002500371D54F8278006F1180354F8231025
:104E90000898FBF787FF054606F1160354F8231020
:104EA0000798FBF77FFF01462846FBF773FE014694
:104EB0004046FBF76FFE44F827000136C4F8506106
:104EC0006D4BD3F85061012E7FF766AF0022C3F817
:104ED0004C2109E0684A52F8230003F1160142F818
:104EE00021000133C2F84C31634BD3F84C31032B12
:104EF000F0DD614C234604F1380204F1580104F15D
:104F00006800FFF701FB5E496069FBF74BFF5D4BF3
:104F100018605B492069FBF745FF0146C4F80C01A6
:104F2000D4F8E000FBF734FE0546C4F810015649FA
:104F3000FBF738FF0646C4F8140154492846FBF72E
:104F400031FFC4F81801D4F8EC10FBF721FEC4F8C7
:104F50001C014F49FBF726FFC4F82001099B13B938
:104F60000022C4F8F020444CD4F8F4102846FBF793
:104F700011FE4FF07F51FBF7C9FFC4F828014FF035
:104F80007C51FBF70FFF4149FBF70CFFC4F82401EC
:104F9000099B002B40F084804FF0000919F5487FF1
:104FA000C0F2FB803B4D3C492868FBF7FBFE324CCE
:104FB0000190C4F83401D4F810B05946FBF7EAFD6B
:104FC0000646C4F830013449E869FBF7EBFE02906D
:104FD000C4F83801D4F814A05146FBF7DBFD0546B0
:104FE000C4F82C012BF00040DFF8B0804146FBF7FD
:104FF000D9FE414610F07AF80746C4F80801014688
:105000005846FBF7C7FD01460198FBF7C3FD314643
:10501000FBF7BEFD3946FBF779FFA0642946284619
:10502000FBF7B6FD3946FBF771FFE0642AF000405C
:105030004146FBF7B7FE414610F058F80746C4F862
:10504000080131463046FBF7A3FD3946FBF75EFF0A
:10505000206539465046FBF79DFD01460298FBF757
:1050600099FD2946FBF794FD3946FBF74FFF606534
:105070000023C4F84C319DE0C421002028F501082C
:10508000E12E654278210020CDCCCC3D0000484384
:105090008FC2753C982100200AD7A33BF304B53991
:1050A00004F188058B4F2B4614223946304610F008
:1050B00035FEA5F18804C5F8E4002B1D14223946FD
:1050C000D5F8980010F02AFEC5F8E8000023C5F8CE
:1050D000EC3005F1E409152307F15402294648464E
:1050E00010F0CCFD8046C5F880000123C5F8EC30F7
:1050F000152307F5E7622946484610F0BFFD06462E
:10510000C5F8AC000223C5F8EC30152307F61C6285
:105110002946484610F0B2FD0546C4F8300100218A
:105120004046FBF73FFE6C4B1968FBF733FDD4F8A4
:105130001011FBF737FE074600213046FBF732FE21
:10514000D4F8F010FBF72EFE01463846FBF722FD9F
:10515000064600212846FBF725FE604B1968FBF741
:1051600019FD0546D4F8F810D4F82401FBF710FD1A
:1051700001462846FBF716FE01463046FBF70AFDBE
:105180000FF064FEFBF7D4FF0FFA80F9B9F5487F02
:105190007FF704AF4FF4487904E7DFF8449101E763
:1051A000504A52F8230003F1160142F8210001335E
:1051B000C2F84C314B4BD3F84C31032BF0DD494C4A
:1051C0002346494A04F1580104F14800FFF79CF9CD
:1051D000D4F830312361D4F82C316361D4F818311C
:1051E000C4F8EC30D4F8F0504049D4F81001FBF783
:1051F000D9FD01462846FBF7CDFC0546C4F8F00072
:105200003B49FBF78BFF58B3394AC4F8F020354BC4
:10521000D3F82821C3F8F420D3F82421C3F8F820C8
:10522000D3F80C41334A5460B3F97A111181B3F9C0
:105230007C115181D3F8E450C3F810512E4B93F8F0
:105240002830C3B12D492846FBF768FF00283DD020
:105250002B492846FBF744FF002839D100210BE0F9
:1052600028492846FBF73CFF0028D0D01D4B254A93
:10527000C3F8F020CBE70021C9B21E4A1174194BC4
:10528000D3F814015061D3F820019061D3F81C01C8
:10529000D06193F8842183F8812193F8852183F8E4
:1052A000822183F883111FFA89F2B3F87801151A65
:1052B000A3F87A510244A3F87C21C3F8E44083F8B0
:1052C000841183F885110BB0BDE8F08F0021D3E77E
:1052D0000121D1E728F50108C4020020582300204D
:1052E000E0FCFFFFC4210020380A02080AD7A33BD4
:1052F00000004843782100209821002000005CC273
:1053000000007042000048C32DE9F047484CD4F833
:10531000E830C4F8E030474AD360474D69692869EE
:10532000FBF738FC4FF07C51FBF73CFDA969FBF71C
:105330002FFC054694F88141002C0CBF0127002763
:1053400003D03B4B93F97F311BB1394B0022C3F89B
:1053500000212946394B1868FBF724FD81461CB112
:10536000334B93F980311BB1314B0022C3F8042138
:10537000334B19682846FBF715FD2D4CD4F800A1D6
:105380005146FBF705FC2F49FBF70CFD06462E4B5B
:1053900019682846FBF706FDD4F804512946FBF7A7
:1053A000F9FB3146FBF7F6FB804628493046FBF710
:1053B000F9FC01465046FBF7EDFBC4F800017FB253
:1053C00084F87F7149462846FBF7E4FB0546C4F89C
:1053D00004011F49FBF7A2FE80B11D4AC4F8042155
:1053E000134B83F880711B494046FBF797FE80B151
:1053F0000F4B184AC3F8E820BDE8F0871649284645
:10540000FBF76EFE0028EBD0094B134AC3F80421CA
:10541000E6E712494046FBF763FE20B1044B0F4A12
:10542000C3F8E820E8E7024BC3F8E880E4E700BFF0
:10543000C421002078210020982100205023002042
:10544000542300200000C8424C2300200AD7233CEC
:105450000000204100007041000020C1000070C128
:10546000F8B5254B93F88231002B0CBF012700279C
:1054700003D0214B93F97E311BB11F4B0022C3F89F
:10548000FC201D4BD3F8FC601C493046FBF78AFC1E
:1054900005461B4B19681B4B586AFBF783FC2946D2
:1054A000FBF778FB04461849FBF738FE30B917497B
:1054B0002046FBF715FE10B1144C00E0124C2046BC
:1054C0000FF0C4FCFBF734FE0B4CA4F87801104B32
:1054D00019680C4B186AFBF765FC2946FBF758FB6B
:1054E0000C49FBF75FFC01463046FBF753FBC4F861
:1054F000FC0084F87E71F8BDC42100200000C84281
:10550000BC020020982100200000FA430000FAC3EA
:10551000C00200200AD7A33C084B01221A720522C0
:105520005A720A229A721422DA72054B4FF07E5296
:105530001A60002159609960DA6070476C21002080
:10554000C421002010B558B1024683681548834233
:1055500016D21548834213D3DB681046984710BD16
:10556000124C40F2F25322461149124810F051FDFC
:10557000114810F04EFD40F2F251204610F040FD6F
:105580000A4C40F2F25322460C490A4810F041FD01
:105590000B490C4810F03DFD40F2F251204610F04E
:1055A0002FFD00BF609A01083C9A0108A8A00108DD
:1055B000DCA00108449D0108649D0108F0A00108D9
:1055C00030A20108D49E010810B558B10246836884
:1055D0001548834216D21548834213D31B691046DF
:1055E000984710BD124C40F21F63224611491248E1
:1055F00010F00FFD114810F00CFD40F21F61204625
:1056000010F0FEFC0A4C40F21F6322460C490A4887
:1056100010F0FFFC0B490C4810F0FBFC40F21F613E
:10562000204610F0EDFC00BF609A01083C9A01088A
:10563000A8A00108DCA00108449D0108649D0108A0
:10564000F0A0010830A20108D49E010810B54368FB
:105650001C68012303FA01F10C4203D092B1FFF759
:1056600071FF10BD094C40F2F76322460849094812
:1056700010F0CFFC084810F0CCFC40F2F761204657
:1056800010F0BEFCFFF7A0FFEBE700BFA8A00108E9
:1056900038A20108449D010878A2010838B5436882
:1056A00005691C6801238B401C4208D02C682342EA
:1056B00002D0B2FA82F25209FFF7C8FF38BD084C97
:1056C00040F2227322460749074810F0A2FC07481F
:1056D00010F09FFC40F22271204610F091FC00BFB8
:1056E000A8A0010838A20108449D010878A2010879
:1056F00010B584B0044600230093019302930393F2
:10570000062251490EF0C8FD002848D006224F4914
:1057100020460EF0C1FD00284BD006224C49204601
:105720000EF0BAFD00284DD006224A4920460EF060
:10573000B3FD00284FD00722474920460EF0ACFDAC
:10574000002851D00722454920460EF0A5FD00282B
:1057500053D00722424920460EF09EFD002855D026
:105760000722404920460EF097FD002857D0082216
:105770003D4920460EF090FD002859D009223B49B2
:1057800020460EF089FD90B9042269462046FDF7B7
:105790001FFE374B009A5A62019A9A6107E0042271
:1057A00069462046FDF714FE009A324B1A6004B099
:1057B00010BD042269462046FDF70AFE009A2E4BD2
:1057C0001A60F4E7042269462046FDF701FE009ABC
:1057D0002A4B1A60EBE7042269462046FDF7F8FDE4
:1057E000009A274B1A60E2E7042269462046FDF73B
:1057F000EFFD009A1E4B9A61D9E7042269462046C4
:10580000FDF7E6FD009A1F4B1A60D0E704226946B7
:105810002046FDF7DDFD009A1B4B1A60C7E7042206
:1058200069462046FDF7D4FD009A184B1A60BEE782
:105830000F4B93F8282082F0010283F828200821DA
:105840001348FFF72BFFB2E798AB0108A0AB0108A4
:10585000A8AB0108B0AB0108B8AB0108C4AB0108A4
:10586000D0AB0108DCAB0108E4AB0108F0AB0108E8
:1058700098210020C4020020582300204C2300203F
:1058800050230020BC020020C0020020542300202E
:105890008C96010830B583B0002408E03CB1114873
:1058A00000250555FFF724FF2C4600E000240E4B91
:1058B000186810F0CCF898B901220DF107010A4BD5
:1058C000186810F0BAF89DF807300A2BE6D00D2BB7
:1058D000E4D07E2CEAD8621C02490B55D4B2E6E72C
:1058E00003B030BD5C230020B01C002008B500EBE5
:1058F000C1035B8813F0010F06D101EB530330F8AD
:1059000033209B1A99420DD00C4A01210C4810F00B
:10591000F3FE002383F31188BFF36F8F042318462F
:1059200002DF08BD30F83130CB1A00EBC3004288EB
:1059300003EB52039942E7D1F3E700BFFCAB010848
:105940001C9C01082DE9F0410446164600EBC100FD
:10595000C588A94226D0CB0023449F884FEAC708B8
:1059600008F1060834F80830994204D104EBC50365
:105970009B8899420CD0114A0121114810F0BCFEBD
:10598000002383F31188BFF36F8F0423184602DFCF
:10599000321D44F8225024F80850EB000433E7523B
:1059A000BDE8F081E3680122B24023EA0203E3602C
:1059B000321D002344F82230F2E700BF24AC010876
:1059C0001C9C01082DE9F84304460D46131D50F8B0
:1059D00023607EB9C368012191400B43C360043248
:1059E00040F82250EB001A1DADB285520633C55265
:1059F000BDE8F883F700043730F807904FEAC9088C
:105A000008F1060830F808309E420AD1EB001A1D52
:105A100024F802900633E652ADB224F80850E5535C
:105A2000E6E7074A0121074810F066FE002383F3EA
:105A30001188BFF36F8F0423184602DFE6E700BF2B
:105A400024AC01081C9C010870B5B2F5802F31D23E
:105A50000346042A3ED9043AC81D20F007000A4430
:105A600022F00702121AD608172A43D91860866056
:105A70000023C360B6FA86F1C1F1200EC1F12405FE
:105A8000AD000735E9084B1CB34294BF0023012346
:105A9000002B45D0354C40F233332246344935484B
:105AA00010F0B7FA344810F0B4FA40F2333120461F
:105AB00010F0A6FA2D4C40F20A3322462F492D4809
:105AC00010F0A7FA2E4810F0A4FA40F20A3120464E
:105AD00010F096FA254C40F2113322462949254808
:105AE00010F097FA244810F094FA40F21131204651
:105AF00010F086FA1D4C40F21D33224622491D4803
:105B000010F087FA1C4810F084FA40F21D3120464C
