:020000040800F2
:10000000C01B002051420008F3A500083D42000833
:100010003D4200083D4200083D420008000000004B
:1000200000000000000000000000000095420008F1
:100030003D420008000000007D44000845560008CD
:100040001545000815450008154500081545000828
:100050001545000815450008154500081545000818
:100060001545000815450008154500081545000808
:1000700015450008154500081545000815450008F8
:1000800015450008154500081545000815450008E8
:1000900015450008154500081545000815450008D8
:1000A00015450008154500081545000815450008C8
:1000B00015450008154500081545000815450008B8
:1000C00015450008154500081545000815450008A8
:1000D0001545000815450008154500081545000898
:0400E00015450008BA
:1001000030B490F800F020F007016FF0000C10F010
:10011000070491F820F040F048804FF000046FF0A1
:100120000700D1E9002391F840F000F1080082FABD
:100130004CF2A4FA8CF283FA4CF3A2FA8CF34BBB88
:10014000D1E9022382FA4CF200F10800A4FA8CF201
:1001500083FA4CF3A2FA8CF3E3B9D1E9042382FACF
:100160004CF200F10800A4FA8CF283FA4CF3A2FAE4
:100170008CF37BB9D1E9062301F1200182FA4CF21C
:1001800000F10800A4FA8CF283FA4CF3A2FA8CF383
:10019000002BC6D0002A04BF04301A4612BAB2FAA5
:1001A00082F200EBD20030BC7047D1E9002304F0AA
:1001B0000305C4F100004FEAC50514F0040F91F8DF
:1001C00040F00CFA05F562EA05021CBF63EA05037C
:1001D00062464FF00004AAE70000000000000000A3
:1001E00002780B78012A28BF9A4240F0D8806DE946
:1001F000044540EA0104CDE902676FF0000C4FEAC4
:1002000044721AB380EA010414F0070F6BD100F0B6
:10021000070420F0070004F0030521F007014FEA6E
:10022000C505F0E8042314F0040FF1E804670CFAA4
:1002300005F462EA040266EA04060BD063EA0403EA
:10024000624667EA0407664604E000BFF0E804235C
:10025000F1E8046782FA4CF582EA0604A4FA8CF409
:100260006CBB83FA4CF583EA0705A5FA8CF595B9C2
:1002700050E9022351E9026782FA4CF582EA06044A
:10028000A4FA8CF483FA4CF583EA0705A5FA8CF5F9
:100290002543DBD09CB92DBAB5FA85F424F00704C8
:1002A00027FA04F1DDE9026723FA04F303F0FF0003
:1002B00001F0FF01FDE80445A0EB0100704724BAFE
:1002C000B4FA84F424F0070426FA04F1DDE90267A5
:1002D00022FA04F202F0FF0001F0FF01FDE80445FC
:1002E000A0EB0100704714F0030F3CD110F00304A1
:1002F00028D150F8082B51F8083B82FA4CF582EAD5
:100300000305A5FA8CF55DB950F8042C51F8043CAE
:1003100082FA4CF582EA0305A5FA8CF5002DE8D0A7
:100320002DBAB5FA85F424F0070423FA04F122FA71
:1003300004F202F0FF0001F0FF01FDE80445A0EB2C
:10034000010070474FEAC40420F0030050F8082B66
:1003500021F0030151F8083B0CFA04F462EA0402AC
:1003600063EA0403C9E710F003041DD0A1EB040104
:1003700020F00300E40750F8042B06D012D28B784B
:100380005FFAA2F4E41A06D12BB1CB785FFAB2F48B
:10039000E41A00D133B920465DF8104B7047A2EB48
:1003A0000300704701F1040150F8042BCC0721F041
:1003B000030151F8043B48D824D222F07F4482FA4A
:1003C0004CF594EA1325A5FA8CF50AD165B951F8D4
:1003D000043B84EA0204B4EB036F0ED150F8042B03
:1003E000EBE74FEA132355E035F07F454DD1087810
:1003F000FDE80445C0F1000070474FEA126203F0C7
:10040000FF0347E002EA1C4482FA4CF594EA1345E4
:10041000A5FA8CF50AD165B951F8043B84EA0204C7
:10042000B4EB034F0CD150F8042BEBE74FEA134326
:1004300030E015EA1C4528D10B884FEA124229E02A
:100440004FEA124203EA1C4324E002F0FF0482FA5E
:100450004CF594EA1365A5FA8CF50AD165B951F803
:10046000043B84EA0204B4EB032F09D150F8042BB7
:10047000EBE74FEA13630DE015F0FF0F05D10B68B2
:100480004FEA122223F07F4304E04FF00000FDE822
:100490000445704712BA1BBA82FA4CF482EA03048C
:1004A000A4FA8CF5B5FA85F402FA04F203FA04F31F
:1004B0004FEA1260FDE80445A0EB1360704700BFEF
:1004C00080EA0102844612F0030F4FD111F0030FAE
:1004D00032D14DF8044D11F0040F51F8043B0BD00C
:1004E000A3F101329A4312F0803F04BF4CF8043B61
:1004F00051F8043B16D100BF51F8044BA3F101326F
:100500009A4312F0803FA4F101320BD14CF8043B26
:10051000A24312F0803F04BF51F8043B4CF8044B57
:10052000EAD023460CF8013B13F0FF0F4FEA3323C8
:10053000F8D15DF8044B704711F0010F06D011F8A7
:10054000012B0CF8012B002A08BF704711F0020F95
:10055000BFD031F8022B12F0FF0F16BF2CF8022B80
:100560008CF8002012F47F4FB3D1704711F8012BA3
:100570000CF8012B002AF9D1704700BF844641EAEC
:10058000000313F003036DD1403A41D351F8043B0B
:1005900040F8043B51F8043B40F8043B51F8043B5D
:1005A00040F8043B51F8043B40F8043B51F8043B4D
:1005B00040F8043B51F8043B40F8043B51F8043B3D
:1005C00040F8043B51F8043B40F8043B51F8043B2D
:1005D00040F8043B51F8043B40F8043B51F8043B1D
:1005E00040F8043B51F8043B40F8043B51F8043B0D
:1005F00040F8043B51F8043B40F8043B51F8043BFD
:1006000040F8043B51F8043B40F8043B403ABDD26B
:10061000303211D351F8043B40F8043B51F8043B0D
:1006200040F8043B51F8043B40F8043B51F8043BCC
:1006300040F8043B103AEDD20C3205D351F8043B9C
:1006400040F8043B043AF9D2043208D0D2071CBF68
:1006500011F8013B00F8013B01D30B880380604691
:10066000704700BF082A13D38B078DD010F0030307
:100670008AD0C3F10403D21ADB071CBF11F8013B77
:1006800000F8013B80D331F8023B20F8023B7BE7C6
:10069000043AD9D3013A11F8013B00F8013BF9D2F1
:1006A0000B7803704B7843708B788370604670478B
:1006B00081F0004102E000BF83F0004330B54FEA13
:1006C00041044FEA430594EA050F08BF90EA020F80
:1006D0001FBF54EA000C55EA020C7FEA645C7FEA13
:1006E000655C00F0E2804FEA5454D4EB5555B8BF36
:1006F0006D420CDD2C4480EA020281EA030382EAA7
:10070000000083EA010180EA020281EA0303362D38
:1007100088BF30BD11F0004F4FEA01314FF4801C0B
:100720004CEA113102D0404261EB410113F0004F1D
:100730004FEA03334CEA133302D0524263EB4303D4
:1007400094EA050F00F0A780A4F10104D5F1200E72
:100750000DDB02FA0EFC22FA05F2801841F10001CD
:1007600003FA0EF2801843FA05F359410EE0A5F1A1
:1007700020050EF1200E012A03FA0EFC28BF4CF0D2
:10078000020C43FA05F3C01851EBE37101F0004588
:1007900007D54FF0000EDCF1000C7EEB00006EEB95
:1007A0000101B1F5801F1BD3B1F5001F0CD349081F
:1007B0005FEA30004FEA3C0C04F101044FEA445276
:1007C00012F5800F80F09A80BCF1004F08BF5FEAFD
:1007D000500C50F1000041EB045141EA050130BDDD
:1007E0005FEA4C0C404141EB0101013C28BFB1F5EF
:1007F000801FE9D291F0000F04BF01460020B1FA3A
:1008000081F308BF2033A3F10B03B3F120020CDA0C
:100810000C3208DD02F1140CC2F10C0201FA0CF0EA
:1008200021FA02F10CE002F11402D8BFC2F1200C4F
:1008300001FA02F120FA0CFCDCBF41EA0C01904005
:10084000E41AA2BF01EB0451294330BD6FEA04044E
:100850001F3C1CDA0C340EDC04F11404C4F1200239
:1008600020FA04F001FA02F340EA030021FA04F34B
:1008700045EA030130BDC4F10C04C4F1200220FAA2
:1008800002F001FA04F340EA0300294630BD21FAE0
:1008900004F0294630BD94F0000F83F4801306BFA6
:1008A00081F480110134013D4EE77FEA645C18BF9A
:1008B0007FEA655C29D094EA050F08BF90EA020F31
:1008C00005D054EA000C04BF1946104630BD91EA29
:1008D000030F1EBF0021002030BD5FEA545C05D12C
:1008E0004000494128BF41F0004130BD14F580046B
:1008F0003CBF01F5801130BD01F0004545F0FE41DF
:1009000041F470014FF0000030BD7FEA645C1ABF13
:10091000194610467FEA655C1CBF0B46024650EA4A
:10092000013406BF52EA033591EA030F41F4002176
:1009300030BD00BF90F0000F04BF0021704730B5FC
:100940004FF4806404F132044FF000054FF00001D1
:1009500050E700BF90F0000F04BF0021704730B592
:100960004FF4806404F1320410F0004548BF404267
:100970004FF000013EE700BF42004FEAE2014FEABC
:1009800031014FEA02701FBF12F07F4393F07F4F97
:1009900081F06051704732F07F4208BF704793F09A
:1009A0007F4F04BF41F40021704730B54FF46074AD
:1009B00001F0004521F000411CE700BF50EA0102B0
:1009C00008BF704730B54FF000050AE050EA010259
:1009D00008BF704730B511F0004502D5404261EBC9
:1009E00041014FF4806404F132045FEA915C3FF40A
:1009F000D8AE4FF003025FEADC0C18BF03325FEAA7
:100A0000DC0C18BF033202EBDC02C2F1200300FA57
:100A100003FC20FA02F001FA03FE40EA0E0021FA7C
:100A200002F11444BDE600BF80F0004002E000BFC8
:100A300081F0004142001FBF5FEA410392EA030FC9
:100A40007FEA226C7FEA236C6AD04FEA1262D2EB13
:100A50001363C1BFD218414048404140B8BF5B4218
:100A6000192B88BF704710F0004F40F4000020F0B1
:100A70007F4018BF404211F0004F41F4000121F0C7
:100A80007F4118BF494292EA030F3FD0A2F1010211
:100A900041FA03FC10EB0C00C3F1200301FA03F14F
:100AA00000F0004302D5494260EB4000B0F5000F72
:100AB00013D3B0F1807F06D340084FEA310102F131
:100AC0000102FE2A51D2B1F1004F40EBC25008BFE3
:100AD00020F0010040EA03007047490040EB0000AD
:100AE000013A28BFB0F5000FEDD2B0FA80FCACF1AE
:100AF000080CB2EB0C0200FA0CF0AABF00EBC250DB
:100B000052421843BCBFD0401843704792F0000FC8
:100B100081F4000106BF80F400000132013BB5E71B
:100B20004FEA41037FEA226C18BF7FEA236C21D091
:100B300092EA030F04D092F0000F08BF08467047F6
:100B400090EA010F1CBF0020704712F07F4F04D1C4
:100B5000400028BF40F00040704712F100723CBFD7
:100B600000F50000704700F0004343F0FE4040F401
:100B7000000070477FEA226216BF08467FEA2363BF
:100B80000146420206BF5FEA412390EA010F40F4AA
:100B9000800070474FF0000304E000BF10F00043F6
:100BA00048BF40425FEA000C08BF704743F09643DD
:100BB00001464FF000001CE050EA010208BF7047F8
:100BC0004FF000030AE000BF50EA010208BF70477F
:100BD00011F0004302D5404261EB41015FEA010C94
:100BE00002BF84460146002043F0B64308BFA3F18C
:100BF0008053A3F50003BCFA8CF2083AA3EBC2536E
:100C000010DB01FA02FC634400FA02FCC2F120028C
:100C1000BCF1004F20FA02F243EB020008BF20F0C3
:100C20000100704702F1200201FA02FCC2F1200229
:100C300050EA4C0021FA02F243EB020008BF20EA1E
:100C4000DC7070474FF0FF3C06E000BF4FF0010C36
:100C500002E000BF4FF0010C4DF804CD4FEA400216
:100C60004FEA41037FEA226C18BF7FEA236C11D060
:100C700001B052EA530C18BF90EA010F58BFB2EB13
:100C8000030088BFC81738BF6FEAE17018BF40F093
:100C9000010070477FEA226C02D15FEA402C05D147
:100CA0007FEA236CE4D15FEA412CE1D05DF8040BCC
:100CB000704700BF844608466146FFE70FB5FFF75F
:100CC000C9FF002848BF10F1000F0FBD4DF808ED17
:100CD000FFF7F4FF0CBF012000205DF808FB00BF08
:100CE0004DF808EDFFF7EAFF34BF012000205DF862
:100CF00008FB00BF4DF808EDFFF7E0FF94BF0120AF
:100D000000205DF808FB00BF4DF808EDFFF7D2FFAB
:100D100094BF012000205DF808FB00BF4DF808EDEE
:100D2000FFF7C8FF34BF012000205DF808FB00BFBB
:100D30004FEA4002B2F1FE4F0FD34FF09E03B3EBE8
:100D400012620DD94FEA002343F0004310F0004F28
:100D500023FA02F018BF404270474FF0000070477E
:100D600012F1610F01D1420205D110F0004008BF1D
:100D70006FF0004070474FF0000070477BB972B9C8
:100D80000029BEBF00204FF0004106E008BF002848
:100D90001CBF6FF000414FF0FF3000F057B8ADF1CD
:100DA000080C6DE904CE002909DB002B1ADB00F0EA
:100DB0004FF8DDF804E0DDE9022304B0704740425B
:100DC00061EB4101002B1BDB00F042F8DDF804E091
:100DD000DDE9022304B0404261EB4101524263EB82
:100DE00043037047524263EB430300F031F8DDF8F0
:100DF00004E0DDE9022304B0404261EB41017047A9
:100E0000524263EB430300F023F8DDF804E0DDE930
:100E1000022304B0524263EB4303704753B94AB90B
:100E2000002908BF00281CBF4FF0FF314FF0FF30F2
:100E300000F00CB8ADF1080C6DE904CE00F008F834
:100E4000DDF804E0DDE9022304B07047704700BF1D
:100E50002DE9F0478C468E46089E154604461946F5
:100E6000002B40F0D080724547D9B2FA82F74FB1DB
:100E7000C7F120030EFA07FC20FA03F3BD4043EA52
:100E80000C0CBC404FEA154EA8B2BCFBFEF8230C7C
:100E90000EFB18CC08FB00F943EA0C43994528D90E
:100EA000EB1808F1FF3204D2994502D9A8F10202E9
:100EB0002B44A3EB0903A4B2B3FBFEFC0EFB1C33D3
:100EC0000CFB00F044EA0344A04214D92C190CF1A5
:100ED000FF3304D2A04202D9ACF102032C44241AFD
:100EE00043EA02401EB1FC40002334607360BDE859
:100EF000F0874246DDE76346F1E7002A79D0B2FA8F
:100F000082F3002B3FD01946C1F1200302FA01F50C
:100F10002EFA03F20EFA01FE20FA03F343EA0E035F
:100F20004FEA154E00FA01F4B2FBFEFCAFB20EFB25
:100F30001C201A0C0CFB07F842EA004290455AD9D3
:100F4000AA180CF1FF3004D2904502D9ACF102008E
:100F50002A44A2EB08029BB2B2FBFEFC0EFB1C2251
:100F60000CFB07F743EA02439F4246D9EB180CF10A
:100F7000FF3204D29F4202D9ACF102022B44DB1BA8
:100F800042EA004202E0AEEB020301224FEA154EB4
:100F9000AFB2B3FBFEFC200C0EFB1C330CFB07F8BE
:100FA00040EA034398452AD9EB180CF1FF3004D2EC
:100FB000984502D9ACF102002B44A3EB0803A4B27C
:100FC000B3FBFEFC0EFB1C330CFB07F744EA0344A7
:100FD000A74216D92C190CF1FF3304D2A74202D92B
:100FE000ACF102032C44E41B43EA00400F461146D7
:100FF00078E71F2188E76046ABE76246BFE76046B7
:10100000DBE76346EFE7734506D916B900210846CA
:101010006DE7C6E9000EF9E7B3FA83F787B97345C0
:1010200001D3824207D8841A6EEB030301209C4649
:101030001EB900215BE73846FAE7C6E9004CF8E73D
:10104000C7F1200CBB4022FA0CF51D4320FA0CF12D
:101050002EFA0CF30EFA07FE41EA0E014FEA15498B
:1010600000FA07F4B3FBF9F81FFA85FE09FB183004
:101070000B0C08FB0EFA43EA00439A4502FA07F20A
:1010800040D9EB1808F1FF3004D29A4502D9A8F1F3
:1010900002002B44A3EB0A0389B2B3FBF9F809FB66
:1010A000183308FB0EFE41EA03418E452CD969181E
:1010B00008F1FF3304D28E4502D9A8F10203294476
:1010C00043EA0040A0FB0298A1EB0E014145CE4649
:1010D000434602D306D14C4504D2B9EB020E68EB6D
:1010E00005030138002EA4D0B4EB0E0261EB03011E
:1010F00001FA0CFC22FA07F34CEA0303F940C6E9B3
:10110000003196E74046C5E74346D9E700000000B6
:101110002DE9F04F8FB00B900C4615460BF0D5FA29
:101120000022431880F0858013444F4FA7FB032C07
:101130002CF0030202EB9C029B1AC01A61F1000220
:101140004FF0CC3100FB01F107FB0211A0FB0703BC
:101150001944400840EAC1704F088046012C6AD00B
:101160006C6821464148FFF73BF828B121464048CA
:10117000FFF736F8002867D139A3D3E900234046AA
:101180003946FFF7FBFD0C900E4635A3D3E900234B
:1011900040463946FFF7F2FD15461C46354A002306
:1011A00028462146FFF7EAFD07460D91314A002304
:1011B00028462146FFF7E2FD15461C464EF6602202
:1011C000002328462146FFF7D9FD814688464EF682
:1011D0006022002328462146FFF7D0FD15461C4615
:1011E0004FF47A72002328462146FFF7C7FD834655
:1011F0008A464FF47A72002328462146FFF7BEFD47
:10120000CDE90823CDF818B0CDF81CA0CDF810908A
:10121000CDF8148002970D9B03930C9B00930196CD
:10122000154A08210B9808F0B7FD00200FB0BDE863
:10123000F08F012278E700900197104A08210B985F
:1012400008F0AAFD0020F1E723460D4A01210B9882
:1012500008F0A2FD6FF00400E8E700BFAFF30080E4
:10126000005C260500000000CDCCCCCCB4D000083A
:10127000B8D0000880EE3600DCD00008A0D000080E
:10128000C4D0000810B515480AF0BCFE10B3134CCA
:10129000204601F0A1F80121204601F077F8002155
:1012A000204601F08BF800231A460D49204608F02D
:1012B000BAFC204601F02AF800F0F4F907F096FE97
:1012C00000F0EAFA00F09CF84FF49670002105F067
:1012D000BFFEF5E7034808F04CF8D8E748CA000815
:1012E00098CE000880CE00080023032B0DD803EB16
:1012F0004302074931F81220824201D00133F4E75A
:1013000003EB430301EB430070470020704700BF2D
:101310000CEB0008FF2805D008B5034B1B6803B190
:10132000984708BD704700BFC805002070B5044647
:1013300085680BF0CAF9034600205A181DD20244F2
:10134000254EA6FB020C2CF0030000EB9C00121AA9
:101350009B1A61F100004FF0CC3103FB01F106FB59
:101360000011A3FB063211445B0843EAC176012D4C
:1013700005D01A4B00221A7070BD0120DFE7E58806
:101380002846FFF7B1FF03460028F5D0144A12881B
:10139000954205D1134A1268B21AB2F5C87F12D32A
:1013A0009878FFF7B7FF0F4B1E60E3880C4A138055
:1013B0000A4A012111700C4A16600C4A13800C4B2A
:1013C00000221A70D8E7C078FFF7A4FF0023054A6F
:1013D0001360024A1370CFE7CDCCCCCC910900202A
:1013E0008E090020C4050020C00500208C090020C3
:1013F00090090020014B1860704700BFC80500200D
:1014000008B51C4B1B7813B11B4B1B7803B108BDEF
:101410000BF05BF9002243182AD21344174AA2FBAF
:1014200003CE2EF0030C0CEB9E0CA3EB0C03C01AA6
:1014300061F100014FF0CC3300FB03F302FB0133F9
:10144000A0FB02021344400840EAC3700C4B1B6827
:10145000C01AB0F5487FDAD30A4B1888FFF744FF6B
:1014600010B10079FFF756FF034B01221A70CEE747
:101470000122D2E79109002090090020CDCCCCCCEC
:10148000C00500208C09002090F82530064AA2FBF8
:10149000031202F0FC0101EB92029B1ADBB2034A39
:1014A00052F82300704700BFCDCCCCCC24EB000811
:1014B00000B583B00B468DF8042000228DF805207E
:1014C000024601A9024808F0AEFB03B05DF804FB38
:1014D00048CA00082DE9F0410646384C0021204654
:1014E00000F06CFF00231A463168204608F09BFB91
:1014F0003469002302E064690133DBB2727E9A42F0
:1015000001D9002CF7D1304607F054FD8046002762
:1015100019E02B4600222A49284808F084FB25E0E0
:10152000204607F0CCFC58B32B460E222549234811
:1015300008F079FB2B4620222168204808F073FB35
:1015400064690137FFB214B3022F20D83D01EDB218
:101550001235EDB2737E3B44DBB2327E9A42D8D074
:101560002B4600221849154808F05DFB2369002B23
:10157000D6D02B460E221549104808F054FBD9E767
:101580002B460E2212490D4808F04DFBD2E7B8F168
:10159000030F05D9737E2BB9737E0333434507DBF5
:1015A000BDE8F0815E2212217820FFF781FFF3E78A
:1015B000762232217820FFF77BFFF1E748CA000846
:1015C000A8CE0008B4CE0008ACCE0008B0CE00080B
:1015D000B8CE0008F0B583B00C46154690F824301C
:1015E00043B9C26932B11368174A2946204606F04A
:1015F00063FD06E0012B06D02D23237063700023CA
:10160000A37003B0F0BD036A002BF5D01E6830460E
:10161000FFF78EFB0746FFF7C1FA3146FFF756FB8F
:1016200030B13B46084A2946204606F045FDE8E72A
:101630003046FFF7A1F9CDE90001044A29462046CA
:1016400006F03AFDDDE700BFBCCE0008C0CE0008C2
:1016500010B4044608460A600B71019B8B60CC6095
:1016600000230B614B610B764B76CB610B6281F8EB
:101670002430012281F825208B62CB6234B12369AA
:101680004BB11A465B69002BFBD15061044B1B68C0
:101690001BB110BC70472161F8E7014B1860F8E7F7
:1016A000EC05002008B50348FFF7A4FE024B012219
:1016B0001A7008BDBD1600089309002010B5704BC4
:1016C0001C68002C00F0D380052800F2D080DFE8F1
:1016D00010F03400060062009100B300CA00694BAC
:1016E0001B781BB1204607F0EAFBF8B92369002BF1
:1016F00000F0BD80204607F05DFC002800F0B780B8
:10170000237E013393FBF0F100FB1133DBB2237630
:10171000627E02329A4201DA9A1E6276627E9342B9
:1017200000D26376584B01221A70A0E0204607F0E1
:101730000CFC554B01221A7099E0524B1B781BB1DF
:10174000204607F0BCFBE0B92369002B00F08F8036
:10175000204607F02FFC002800F08980237EBBB9CB
:10176000421ED3B22376627E9A4200D96376627EAD
:1017700002329A4201DA023B6376434B01221A702D
:1017800075E0204607F0ACFB3F4B01221A706EE07B
:10179000013BDBB2E6E72269F2B1002302E05269C5
:1017A0000133DBB2217E994201D9002AF7D1002A08
:1017B0005DD0364B1B68062B05DC013333490B60CB
:1017C000334941F823402E4B1A602E4B00221A70E9
:1017D0002D4B01221A704AE0204607F070FB0028CA
:1017E00045D0284A137883F001031370264B012259
:1017F0001A703CE0234B1B7833B1224B00221A7045
:10180000214B01221A7032E0204B1B68002B0BDBAE
:10181000591E1E4A11601E4A52F82320184B1A60A6
:10182000194B01221A7022E0E36803B3144A1360D3
:10183000154B01221A701AE0124B1B78BBB12046DF
:1018400007F03DFB98B194F825200132114B83FB42
:1018500002135B1003EB8303D31A84F825300A4B81
:1018600001221A7003E0204607F029FB00B910BDE1
:10187000204607F0A8FB044B01221A70F7E700BFCF
:10188000EC050020920900209309002000000020B0
:10189000CC050020676666663E4B1B78002B78D02F
:1018A0003D4B1B68002B74D030B58BB00021394BF9
:1018B00019703A4800F06AFD374B1868036933B174
:1018C000FFF708FE354800F021FD0BB030BD8368FE
:1018D000002B3ED09847304B186807F0F0FA0028EC
:1018E000F0D02E4C0021204600F068FD05AD1422FA
:1018F0002946294B1868FFF76DFE30230022294640
:10190000204608F090F9264B1B78002B3AD0224B4A
:101910001868FFF7B9FD0446FFF70AFA0546FFF716
:101920003DF92146FFF7D2F908B32B461D4A0A219B
:1019300002A806F0C1FB194C30233C2202A9204624
:1019400008F071F9302364221749204608F06BF93A
:10195000B8E7124C0021204600F030FD0E4B19680C
:10196000182300220968204608F05DF9B3E72046F5
:10197000FFF702F8CDE900010C4A0A2102A806F09F
:101980009BFBD8E7302348220949044808F04BF96B
:1019900098E7704793090020EC05002048CA00082A
:1019A00092090020C8CE0008D8CE0008D0CE00088A
:1019B000E0CE000870B582B0164D00240094234696
:1019C000154A29462046FFF743FE144E009423464D
:1019D000134A31462846FFF73BFE124B0093012382
:1019E000114A12493046FFF733FE114D114B009357
:1019F0000123114A29463046FFF72AFE0F4BEB61BF
:101A000085F82440AC626423EB6232232B6302B07E
:101A100070BD00BF98060020E8CE000860060020D8
:101A2000F0CE0008611A0008F8CE00082806002051
:101A3000F0050020411A000800CF00080400002033
:101A400038B50446054D0021284600F0B7FC0023B8
:101A50001A462168284608F0E6F838BD48CA00084A
:101A600038B50546084C0021204600F0A7FC0023AD
:101A70001A462968204608F0D6F8142300220349A4
:101A8000204608F0D0F838BD48CA000808CF000842
:101A900008B5024807F06DFC002008BD18CF00080B
:101AA0002DE9F04180460F46144642F210720023A1
:101AB000FFF7B4F906460D4642F210720023404685
:101AC0003946FFF7ABF9044B03FB02F22660656071
:101AD000A260BDE8F08100BFA086010000B5844689
:101AE0000023EFF3118E102282F31288BFF36F8F61
:101AF00008E0064B0FCB8CE80F008EF31188BFF384
:101B00006F8F0123002BF4D05DF804FBA8000020A8
:101B100030B585B005460C4607F0D1FB08B3012D62
:101B200018D10AF0D2FD2246FFF7BAFF6846FFF748
:101B3000D5FF6946204607F0CCFB80F0010010F08D
:101B4000FF0F02D1002005B030BD074B0FCB84E85A
:101B50000F00F7E70AF0B9FD2246FFF7A1FF0020CA
:101B6000F1E76FF01500EEE7F8CD000801282BD162
:101B700030B585B00C468A68164B9A4227D80AF0D1
:101B8000A4FD6A46FFF78CFF684607F0DBFB2146A1
:101B9000684607F09EFB0023EFF3118C102282F3BE
:101BA0001288BFF36F8F0AE00B4C04AB13E90F00F0
:101BB00084E80F008CF31188BFF36F8F0123002B93
:101BC000F2D0002005B030BD6FF0150070476FF007
:101BD0001500F7E7FFC99A3BA800002008B5024BA3
:101BE0001B68984708BD00BF0800002000B585B0FD
:101BF00084460A46684600230093019302930393A8
:101C000002238DF80230044B0193614606F074FC08
:101C100005B05DF804FB00BFDD1B000870B59646FB
:101C2000022A8CBF00220122801A61F100010029E2
:101C300078DBCC1704F02105C0F3130C020D42EA47
:101C40000132C2F313029444C1F3132294440CEB07
:101C5000117CAC44554AA2FB0C52D20802EB820222
:101C600002EB8202ACEB020C24F01704A444B0EBAC
:101C70000C0261EBEC714E4C4E4D02FB05F504FB82
:101C80000155A2FB042129448C460029C0F287801B
:101C9000120942EA0C714FEA2C1C474A02FB010070
:101CA000BEF1020F7FD96FF00202724402EBC20252
:101CB00002EB02120232414CA4FB024203EB9202FD
:101CC000830840F26D1404FB0033384CA4FB004041
:101CD000A3EB501083184FEACC0040EA5170CA00C1
:101CE00052184CEB0000000140EA12701201521829
:101CF0004CEB0000000140EA12701201521A60EB36
:101D00000C00810141EA92614FEA821CBCEB0202A5
:101D100061EB0001D01841F10001294BC01861F1BD
:101D2000000170BD6FF4C772821861F10001CD1718
:101D300005F0210CC2F31304160D46EA0136C6F372
:101D400013063444C1F31326344404EB1174644481
:101D5000164EA6FB046C4FEADC0C0CEB8C0C0CEB67
:101D60008C0CA4EB0C0425F017052C44121B61EB22
:101D7000E4710F4C0F4D02FB05F504FB0151A2FB72
:101D800004240C44A446002C05DB120942EA0C7121
:101D90004FEA2C1C81E70F3244F1000CF5E70F32BB
:101DA00041F1000C74E709227FE700BF1F85EB516A
:101DB000295C8FC2F5285C8F70FEFFFFCDCCCCCCA8
:101DC0009405F5FF10B507F0E2FA02460B4602F063
:101DD000B1FB0349002444501046194610BD00BF12
:101DE0000C00000030B483682E4A93422FDD2E4948
:101DF00081FB0321DA17C2EB2172002B33DB294967
:101E00008B4213DD04684168012C71F100050DDB84
:101E1000E443C1F1FF4101F5FF0101F5FF417F31CD
:101E20004FEAE27C94426446A14139DB1D498B4272
:101E300025DD01684468511844EBE2740160446098
:101E40001A4901FB02338360012030BC7047002B2C
:101E500001DB0022D1E7134AD21A520A1449A1FB2E
:101E60000212D209C9E7056841680029C7DA01F101
:101E70000041D4179542A141C1DA0020E5E7002BCB
:101E800001DB0120E1E701684468891A64EBE27430
:101E900001604460074901FB023383600120D4E7FD
:101EA0000020D2E7FFC99A3BA12FB844003665C491
:101EB000834B040000CA9A3B08B500F0D7F8012212
:101EC0000260426000238360C36003610649416190
:101ED00006490A6006490A60064A1360064A13600A
:101EE000064A136008BD00BF70D200082800002019
:101EF00024000020D8060020D4060020D0060020B0
:101F00002DE9F04106460F46154600F0AFF80446AD
:101F1000C3681BB943691A78002A54D10023E360CF
:101F2000616857F821306361B14231DA5A1C62614D
:101F30001A782D2A2CD19A1C62615A78A2602D2A17
:101F40002ED04AB9394B63612D21284605F0CCFCCF
:101F5000002832D02D23A360D4F8088041462846BB
:101F600005F0C2FCB8F13A0F32D0002830D04378E7
:101F70003A2B38D00023236163691B7813B9636857
:101F800001336360204600F053F8A068BDE8F0819B
:101F9000264B6361204600F04BF84FF0FF30F5E729
:101FA0009B78002BCDD101316160204B63612046CD
:101FB00000F03EF84FF0FF30E8E7204600F038F838
:101FC0004FF0FF30E2E75A1C42611B788360C3E7A1
:101FD00063691B7813B9636801336360204600F0BE
:101FE00027F83F20D2E763691A7832B123610F4B9B
:101FF0006361636801336360C4E7636801336360EE
:10200000B34203DA57F823302361F0E7074B6361EB
:102010002B783A2B04D0204600F00AF83F20B5E791
:10202000204600F005F83A20B0E700BF70D2000863
:1020300008B50168084A11604168084A1160816862
:10204000074A1160C168074A11600269064B1A60AD
:1020500002F06AFB08BD00BF280000202400002019
:10206000D8060020D4060020D00600200048704783
:102070000C000020034A536843F002035360002021
:10208000704700BF002004E008B50B4641680C31E2
:10209000012B14D00AD833B90F4B9B685B68C3B1CE
:1020A0000D48984707E06FF0850004E0023BDBB283
:1020B000012B01D8002008BD6FF08500FBE7064B1F
:1020C0009B681B6813B104489847F4E76FF057000A
:1020D000F1E76FF05700EEE7C8C8000808B50249FD
:1020E00007F0ABF908BD00BF8920000810B508282B
:1020F00008D8064B53F82040204609F083FF18B15A
:10210000204610BD0024FBE70024F9E784F4000812
:10211000084B1A6842F480721A601A6842F400721E
:102120001A601A6842F480621A60034B034A1A600C
:10213000704700BF003C02403C0000200024F40037
:10214000014B036000207047A8F4000870B5447983
:102150008C4279D990F806C0944577D923466445D6
:1021600028BF6346022B03D99D1EC5F3470500E037
:1021700000253748A0FB0303DB08AB4228BF2B46F2
:10218000E01AC0B2ACEB030C5FFA8CFC5D1CA842F9
:1021900004D9C41A013CC4F3470400E00124654596
:1021A00005D2ACEB0305013DC5F3470500E0012571
:1021B000A0EB030EACEB0306B645A8BFB646244E13
:1021C000A6FB0E6E4FEADE0EBEF1010F38BF4FF0D8
:1021D000010EAC4228BF2C46A64528BFA646994210
:1021E00007D3814211D29A4211D3624511D3002400
:1021F00000E000245FFA8EFE734499420BDBA0EBF3
:102200000E00814210DB012106E00024F2E70024E9
:10221000F0E70124EEE70121934207DCACEB0E0C62
:10222000624509DB012302E00021F5E701232CB11F
:1022300031B93BB9002008E00023F8E7002004E0B2
:10224000012002E0012000E0002070BD0020FCE73A
:10225000CDCCCCCC2DE9F04F83B01E469DF830801C
:10226000294B9F68002F49D0894614461B68002BD4
:1022700047D0254B9B7D03EB430307EB83070846C1
:10228000FDF73EFF8246002514E01F4B9B7B13F0B9
:10229000010F1FD01C4890F917B0A4B219F805100F
:1022A000CDF80080B3B2224607F003FC83445C44BF
:1022B00024B2013555451DD27A792244124B1B8A2E
:1022C0009A42E2DDB8F1000FDFD0BB7933441EB291
:1022D0000024DAE70C4890F917B0A4B219F80510F9
:1022E000CDF80080B3B2224607F003FC83445C447F
:1022F00024B2DEE7002003B0BDE8F08F6FF01200DB
:10230000F9E76FF01200F6E76C07002070B586B0B1
:1023100085681D4B1968002933D0044600230393B8
:1023200004930593184B5A6803921A8AADF810204B
:10233000588AADF81200ADF814209A89042A14BF07
:10234000002201221B7E9A420AD1AD68009103ABA4
:10235000002211462046A8470446204606B070BD1C
:10236000094E304607F04FFCAD683368009303AB6D
:10237000002211462046A8470446304607F043FC99
:10238000EBE76FF01204E8E76C07002038B505466C
:10239000094B186860B10C465A68002105F01EFA16
:1023A0000CB9002038BD2846FFF7B0FF0020F9E740
:1023B0006FF01200F6E700BF6C070020054B5B7D55
:1023C0008B4203D9034B9975002070476FF01500BD
:1023D000704700BF6C07002010B584B083681B6A8B
:1023E00069469847194C1A4A121B1A4BA3FB023232
:1023F000D208194B5A75BDF800001882BDF80210BA
:10240000598208221A75BDF80C209A819DF808207F
:102410009A730022DA751A769C609A7501FB00F0B7
:1024200090420DDBC0100C4C606005F0C5F92060D7
:1024300040B16268002105F0D1F9002004B010BD60
:102440000730EFE76FF00B00F8E700BFE0CD0008C2
:10245000F8CD0008ABAAAAAA6C07002010B5044664
:1024600003F0D0F90346034A0821204607F094FC04
:10247000002010BD44D0000830B583B00546134697
:102480000022019201AA0A21586800F04FFF019C26
:1024900024B907F0D0FB204603B030BD2346034AE1
:1024A0000121284607F078FC019CF4E774D000086D
:1024B00008B5034B034A082107F06EFC002008BD55
:1024C00074D100087CD1000800B583B000900023CF
:1024D0008DF80430694604480AF0DFF89DF80400DE
:1024E00003B05DF804FB00BF579C000838B50446F4
:1024F000EFF31185102383F31288BFF36F8F03F07E
:1025000067F9034685F31188BFF36F8F074A0821E7
:10251000204607F041FC064A0821204607F03CFC13
:10252000214604480AF0C3F8002038BDC0D1000895
:10253000E0D100083925000870B58EB004460D467C
:10254000D0F8A06009F038FF024601F0F3FF254BF8
:102550001B589C4230D0244B002A2FD0019200946B
:10256000224A0821284607F017FCD4E9082394F9E9
:102570000E10CDE902230091A3891D4A08212846A7
:1025800007F00AFC202205A9204603F0FFFF0346BE
:10259000A26E0092174A0821284607F0FDFB0DA9FC
:1025A000204609F02BFF034650B1134A0821284664
:1025B00007F0F2FB0EB070BD104BCDE7104ACDE72F
:1025C0000D9AB11A642301FB03F3B3FBF6F30393F3
:1025D00002960191009233460A4A0821284607F0E4
:1025E000DBFBE7E70800000004DC0008F4D100088A
:1025F00000D200082CD2000844D20008ECD1000818
:10260000F0D1000874D2000870B592B005460AAC4B
:1026100020220021204605F0E1F84FF020330A93F4
:102620000B930C930D930E930F93ADF84030294606
:1026300016480AF03CF8002414B1002012B070BD16
:1026400004EB4413124E06EB831609AA4FF4006103
:1026500006F1400009F0C1FE0999C1F5006064224D
:1026600000FB02F2D20A06924FF400630593049035
:10267000039102930AAB019300943346054A082163
:10268000284607F089FB0134D6E700BF99260008E9
:10269000000E0020CCD20008F0B589B004460D46EB
:1026A000D0F8A06007A909F0A9FEC8B9204609F032
:1026B00083FE079AB11A642301FB03F3B3FBF6F31D
:1026C0000746A0B1059304960391029201960097E4
:1026D0002346084A0821284607F05EFB09B0F0BDF2
:1026E0000346054A0821284607F056FBF6E7034F44
:1026F000E8E700BF18D3000844D20008F0D1000872
:1027000038B50546134610220021586805F082FDB1
:102710000446FFF7D9FE80B101F00CFF0F4B1B58A8
:102720009C4213D0204603F0C5FF23460C4A0821E3
:10273000284607F031FB002038BD2346094A012115
:10274000284607F029FB6FF01500F5E7064A01213E
:10275000284607F021FB6FF01500EDE708000000A8
:10276000C4D3000880D300089CD3000838B50546C0
:10277000134610220021586805F04CFD0446FFF76F
:10278000A3FE80B101F0D6FE0F4B1B589C4213D024
:10279000204603F0B1FF23460C4A0821284607F0E3
:1027A000FBFA002038BD2346094A0121284607F0DC
:1027B000F3FA6FF01500F5E7064A0121284607F005
:1027C000EBFA6FF01500EDE70800000030D40008C8
:1027D00080D3000808D4000838B5054613461022F7
:1027E0000021586805F016FD0446FFF76DFE80B124
:1027F00001F0A0FE0F4B1B589C4213D0204601F065
:1028000023FE23460C4A0821284607F0C5FA00207B
:1028100038BD2346094A0121284607F0BDFA6FF06A
:102820001500F5E7064A0121284607F0B5FA6FF0D2
:102830001500EDE70800000098D4000880D30008D8
:1028400070D4000810B50C46002107F0C4FB034605
:1028500000B1036823600023E360024A6260A36062
:1028600010BD00BFDCE9000810B50C46002107F0E0
:10287000B8FB034600B1036823600023E360024A0B
:102880006260A36010BD00BFDCE9000870B582B0D3
:1028900005461446506807F0B4FB80B1064609F0BF
:1028A000B1FBA8B9304609F0A1FB0646D0B10090B3
:1028B0006368104A0121284607F06EFA0FE063684A
:1028C0000D4A0121284607F067FA6FF0120606E06C
:1028D00063680A4A0221284607F05EFA002630465D
:1028E00002B070BD6368064A0221284607F054FA18
:1028F000F5E700BF10D50008D4D40008ECD40008D8
:1029000040D5000810B503460C461146006808B1D2
:10291000027822B9024A204605F0CEFB204610BDBF
:1029200064D500082DE9F0478EB0064688469146EA
:102930000DA803F051F80D9F07EB4017284A082116
:10294000304607F029FA0D9C16E02B46254A08214F
:10295000304607F021FA204609F054FBF0B1224B33
:10296000224A0821304607F017FAE3691BB11D68B7
:102970000DB12B68A3B92034BC422CD2302201A95E
:102980002046FFF7BFFF0546B8F1020FDDD1D9F8A9
:10299000041005F0EBF90028D7D1ECE7144BDFE782
:1029A000144A0821304607F0F7F94FF0000A2B6867
:1029B00053450AD905EB8A035B680F4A0821304664
:1029C00007F0EAF90AF1010AF1E70C4A082130465A
:1029D00007F0E2F9CFE700200EB0BDE8F08700BFB6
:1029E00080D500088CD500086CD5000894D5000867
:1029F00074D500089CD50008B0D5000818E7000879
:102A000000B587B04B690A69D1F800C0CDF810C095
:102A1000D1F804C0CDF80CC0D1F808C0CDF808C07A
:102A2000C96801910132009203F26C73034A0821D4
:102A300007F0B2F907B05DF804FB00BF34D6000818
:102A40002DE9F04182B080460E4614460A2201A9C3
:102A5000204605F065FB019BA3423BD007461A7850
:102A60002D2A3AD15C1C0A2201A9204605F058FB08
:102A70000546019BA34233D01A782D2A33D1421E3A
:102A80000B2A17D85C1C0A2201A9204605F048FB36
:102A9000019BA3422AD01B785BBB431E1E2B11D87F
:102AA000A7F26C777761013D3561F060002002B0DC
:102AB000BDE8F081104A0121404607F06DF96FF042
:102AC0001500F4E70D4A0121404607F065F96FF063
:102AD0001500ECE76FF01500E9E76FF01500E6E789
:102AE0006FF01500E3E76FF01500E0E76FF01500F9
:102AF000DDE76FF01500DAE758D6000868D6000861
:102B000070B582B006460D46144613783A2B15D19F
:102B1000013423783A2B29D101340A2201A9204615
:102B200005F0FEFA2860019BA3424BD01B78002BD6
:102B30004BD13C2832D8002002B070BD0A2201A936
:102B4000204605F0EDFAA860019BA3422ED01A782A
:102B50003A2A2ED1172801D85C1CDAE71C4A012139
:102B6000304607F019F96FF01500E5E70A2201A9D0
:102B7000204605F0D5FA6860019BA3421CD01A7864
:102B80003A2A1CD13B2801D85C1CC6E7114A012116
:102B9000304607F001F96FF01500CDE70E4A01212C
:102BA000304607F0F9F86FF01500C5E76FF0150033
:102BB000C2E76FF01500BFE76FF01500BCE76FF0DC
:102BC0001500B9E76FF01500B6E76FF01500B3E731
:102BD00078D6000888D6000898D60008F0B58FB0DF
:102BE00004460D4616460AAF39460120FEF790FF0F
:102BF00001A9384605F068F9032D21D0022D3ED1F8
:102C0000726801A92046FFF77BFF90BB01A8FFF780
:102C1000D9F80A900B91B1F1FF3F08BFB0F1FF3F27
:102C200033D000230C930AA90120FEF79FFF05462D
:102C300098BB01A92046FFF7E3FE28460FB0F0BD80
:102C4000726801A92046FFF7FBFE60B9B26801A9CE
:102C50002046FFF755FF0028D8D0204607F0DAF8C5
:102C60006FF01505E9E7204607F0D4F86FF0150579
:102C7000E3E7204607F0CEF86FF01505DDE72046C4
:102C800007F0C8F86FF01505D7E7084A012120467C
:102C900007F082F86FF01505CFE70346044A0121DB
:102CA000204607F079F86FF01505C6E7A8D60008AA
:102CB000D4D6000800B583B0102A0FD0202A11D036
:102CC000082A12D10B780022009301920A4A0821A7
:102CD00007F062F8002003B05DF804FB0B889BB29C
:102CE0000022F1E70B680022EEE7044A082107F012
:102CF00053F86FF01500EEE73CD7000824D7000822
:102D000008B5029B102A07D0202A09D0082A0AD128
:102D1000DBB20B70002008BD9BB20B800020FAE7ED
:102D20000B600020F7E7034A082107F035F86FF041
:102D30001500F0E724D700082DE9F04182B00446E1
:102D40000D46164610220021706805F063FA07460A
:102D5000022D21D84FF020084346164A082120466C
:102D600007F01AF8032D1FD910220021F06805F092
:102D7000BFFA06460D46009001910F4A08212046F1
:102D800007F00AF800960195424639462046FFF7BB
:102D9000B7FF02B0BDE8F0810A220021B06805F05B
:102DA00039FA5FFA80F8D7E7424639462046FFF7FE
:102DB00081FFEEE750D7000868D7000838B5044611
:102DC0000D4611B10F4B1B7863B90E4A137883F08F
:102DD000010313706BB900222946204607F034F82E
:102DE000002038BD084A012106F0D6FF6FF00F0021
:102DF000F7E7064A0821204606F0CEFF014B0122E4
:102E00001A70E8E79409002080D70008BCD70008B2
:102E1000F8B507460E4615460023244A1370244A87
:102E20001360244A13600CE000231C440222224950
:102E3000204604F0C1FD98B91C4B01221A700435DC
:102E4000013E012E1ED96C6802221C49204604F066
:102E5000B3FD0028E8D1A378002BE6D00123E4E7F6
:102E600016492046FDF7BCF958B123782D2B09D11E
:102E700063783BB12346124A0821384606F08CFF9E
:102E8000DDE7043500221146686805F0C3F90D4BF3
:102E9000186000221146686805F0BCF90A4B1860FA
:102EA0000A493846FFF78AFF0020F8BD960900203E
:102EB0008C07002090070020ECD70008E8D7000816
:102EC000F0D700089807002094070020D12E0008B2
:102ED0002DE9F04180460E461746002421E0335D7F
:102EE000112B24D100243C4B1C703C4B1B683C4AEA
:102EF0000821404606F050FF21464046FFF75EFF9E
:102F0000384B1B78002B41D0BDE8F081364A15685C
:102F100036494B5501351560334B1B68022B19D0D0
:102F20000134BC42F0D22C4B1B78182BD7D0335D28
:102F3000294A1370A3F13005EDB2092DE6D9A3F1AA
:102F40006102D2B2052AE1D9A3F14102D2B2052A27
:102F5000E2D8DBE710220021244805F05BF9244A7F
:102F6000136803F8010B13601C4A136801331360E4
:102F70001D4B00221A60D3E71E480368196809BA7E
:102F800043F8041B0360043A144B1A60134B1A688D
:102F9000042AF1DC12F0030F05D1164B1A681368EE
:102FA0001BBA1360B0E7534202F0030203F00303BD
:102FB00058BF5A42022A08D0032AA5D10D4B1A68DD
:102FC00013681BBA1B0A13609EE70A4B1A68136842
:102FD0005BBA9BB2136097E7950900209007002029
:102FE00008D80008960900208C07002088070020D8
:102FF00098070020940700202DE9F04385B0804613
:103000001C46DD08083BDBB2182B07D80F461646D6
:103010002D4A22FA03F313F0010F4CD123462B4A19
:103020000821404606F0B8FE6FF0150048E03CF875
:1030300007309BB26A4662440CF110010DEB010CA3
:103040000CF8103C1B0A5370F446AE4225D30CEB2F
:10305000050EBEF1100F20D8102CE8D0202C0AD07D
:10306000082CF1D11CF807300CF110020DEB020C0A
:103070000CF8103CE8E75CF807306A4662440CF153
:1030800010010DEB010C0CF8103CC3F3072151703B
:10309000190C91701B0ED370D6E7B146102E28BFC5
:1030A0004FF010094B466A463946404600F06CF92D
:1030B0001037A6EB090616B14FF0000CC5E700204B
:1030C00005B0BDE8F08300BF0101000124D800086D
:1030D0002DE9F04383B081460D4614460023019349
:1030E0003B4B01221A60FEF7E7FE4FF0FF364FF030
:1030F00020083746374A21462846FEF701FFB0F13F
:10310000FF3F41D0732817D0772829D0612859D1A3
:1031100001AA1021304B186800F008F90646019BFF
:10312000002BE7D02C4B1B682C4A0121484606F0A7
:1031300033FE6FF0150047E001AA0021264B186806
:1031400000F0F4F80746019B002BD3D0224B1B68FC
:10315000234A0121484606F01FFE6FF0150033E0B8
:1031600001AA00211C4B186800F0E0F88046019B82
:10317000002BBFD0184B1B681A4A0121484606F0A5
:103180000BFE6FF015001FE0B6F1FF3F0AD0B7F15C
:10319000FF3F0FD05FFA88F33A4631464846FFF7C3
:1031A0002BFF11E0104A0121484606F0F5FD6FF0B3
:1031B000150009E00D4A0121484606F0EDFD6FF0CB
:1031C000150001E06FF0150003B0BDE8F08300BF0B
:1031D000240000207CD80008D006002040D8000839
:1031E00054D8000868D8000884D80008A4D800087B
:1031F00010B5044681681C3100F00AFBA168034A3F
:103200001C31204607F085F810BD00BF1CDA00080D
:1032100010B504460C4A082106F0BEFD0B4A0821F1
:10322000204606F0B9FD0A4A0821204606F0B4FD02
:10323000084A0821204606F0AFFD074A0021204633
:1032400007F067F8002010BD2CDA00086CDA0008DF
:10325000CCDA000820DB0008BCDB000810B504460F
:1032600013460A460146054801F030FA23691B79E6
:1032700003B910BD204606F0F1FDFAE7759E00087F
:1032800010B504460B4602460549064805F0E7FF1F
:1032900023691B7903B910BD204606F0DFFDFAE76C
:1032A000CD460008759E00080B460146B0B110B52A
:1032B0001446806848B3174A904219D3164A904280
:1032C00016D2A27C22F00302A2748A6812682146F8
:1032D000184690472068C0B1204616E00F48104AB3
:1032E000121AB3EB920F01D250F823100846704720
:1032F0000C4A904202D30C4A904207D3006803EB79
:10330000830300EB8300036813B110BD0133F6E7BC
:103310001846FAE7D4CD0008E0CD0008A0CC00089C
:10332000D0CC0008D0CC0008D4CD0008F0B583B0D4
:10333000164603782D2B19D0044601F0FBF80546FC
:10334000104F0023C3510A4601A9204604F062FF32
:10335000EB59222B10D023B9019BA34201D01B783B
:1033600043B16FF015033360002003E06FF01503E5
:103370001360002003B0F0BD6FF021033360002024
:10338000F8E700BF0C000000F8B5054617461E46DA
:103390000B46294A082106F0FFFC00240BE0274ACF
:1033A0000821284606F0F8FC0CE0254A08212846AA
:1033B00006F0F2FC01340F2C0DDC002C02DD14F0C1
:1033C000070FECD0B442F0D23B5D1E4A08212846DC
:1033D00006F0E2FCEEE71C4A0821284606F0DCFC79
:1033E00000240BE0154A0821284606F0D5FC0CE025
:1033F000164A0821284606F0CFFC01340F2C14DCB5
:10340000002C02DD14F0070FECD0B44207D23B5D74
:103410000F4AD25C12F0970FEAD12E23E8E7074A51
:103420000821284606F0B8FCE7E70A4A08212846A2
:1034300006F0B2FCF8BD00BFF8DB000804DC0008B1
:1034400008DC000800DC00080CDC000824DC0008B4
:1034500040FC000810DC000808B58368D3F880320F
:1034600013F0200F00D108BD0249406906F00FFE9D
:10347000F9E700BF1CCE0008082915D814D008B5FC
:10348000836893F843208A4207D083F84310836807
:10349000D3F8803213F0200F00D108BD0A4603494B
:1034A000406906F0F4FDF8E7704700BF14DC00083F
:1034B00008B50A1E09DD4123002A0ADB8168D1F81C
:1034C000801211F0200F06D108BD002AFCD0422343
:1034D000F2E75242F2E70249406906F0D8FDF3E70D
:1034E00020DC000808B50A1E09DD4323002A0ADB98
:1034F0008168D1F8801211F0200F06D108BD002A92
:10350000FCD04423F2E75242F2E70249406906F058
:10351000BEFDF3E720DC0008F8B505468468B4F882
:103520005820B4F85A1004F1340006F031FD278F0A
:10353000668F284606F0B9FD70B9B74211D0618F89
:10354000238FC91A2846FFF7B3FFA18EE38EC91A4D
:103550002846FFF7C7FFF8BD0549686906F097FDE3
:10356000EBE7A18EE38EC91A2846FFF7BBFFF2E70F
:1035700018E700082DE9F8430546846814F1600057
:1035800006D0FCF7BDFD86B294F8407000211AE029
:103590000026F9E70C44234493F860904FF00008AC
:1035A00083F86080AA6860310A440F49686906F0B0
:1035B0006EFDAB68234483F86090AB68DB8FDB1B48
:1035C000F61A21464746AB68DC8FE41BB442E1DBC8
:1035D000002E01DCBDE8F88301F160021A440349C2
:1035E000686906F054FDF5E728E8000828DC0008C3
:1035F000082921D808B5836893F842208A4209D067
:1036000083F8421008290CD08368D3F8803213F075
:10361000200F00D108BD0A460849406906F037FD71
:10362000F8E78368D3F8803213F0200FF2D0044912
:10363000406906F02CFDEDE7704700BF2CDC000868
:1036400028CE000808B583689A7D02B108BD024AF9
:10365000022106F017FEF9E728DC0008002977D0E0
:103660002DE9F843804617460E460BB9002404E0C6
:103670001146FFF737FFF9E70134335D354AD35C74
:1036800013F0080FF8D115E0002339E0D8F8140042
:1036900006F0E4FB2A463119404606F07EFD09F1AA
:1036A00001042D49D8F8140006F025FE394640469D
:1036B000FFF718FF3046FCF723FD83B21B1BD8F839
:1036C0000820D08FC51B9D42DED300259D4207D226
:1036D00004EB050916F809200A2AD7D00135F5E7C9
:1036E0003119D8F8140006F006FE1B49D8F814006A
:1036F00006F001FEBDE8F883DA1990420CD90133D7
:10370000E218B25C1349895C11F0080FF4D00A2A60
:1037100001D01D46F0E71D46D8F8140006F09EFBC8
:103720002A463119404606F038FD2C4400E00134A9
:10373000335D084AD35C13F0080FF8D10649D8F876
:10374000140006F0D8FD39464046FFF7CBFEB1E73E
:10375000704700BF40FC000818E70008F8B50546B0
:103760000F4614461E46516819B100233246FFF732
:1037700075FFA3687BB131462846FFF7B3FE3B4691
:10378000054A0821284606F07DFD0023F21DA168A8
:103790002846FFF763FFF8BD38DC000879B3F0B5C1
:1037A00083B004461D46931D9EB20F460B780BB99D
:1037B00003B0F0BD01910092114B124A082106F0AE
:1037C00061FD85B10E4B104A0821204606F05AFDD6
:1037D000284606F077FD58B133462A46394620463A
:1037E000FFF7BCFFE4E70949606906F084FDDFE705
:1037F0000023324629462046FFF730FFD8E77047BE
:10380000DCF5000844DC00084CDC000818E7000880
:10381000F0B583B006460D460F68D7B13846FCF7C1
:103820006FFC84B20334A4B20E4B00933B460E4AA5
:103830000821304606F026FD6F68384606F042FD46
:1038400048B123463A4629683046FFF787FF03B060
:10385000F0BD0024E6E70023224639463046FFF754
:10386000FDFEF4E7D8F5000854DC000810B5044666
:103870008368D3F8803213F0200F07D1A368D3F800
:10388000803213F0200F06D1002010BD044940699A
:1038900006F07EFDF2E70349606906F079FDF3E783
:1038A00030CE000838CE000808B58368D3F88032DF
:1038B00013F0200F00D108BD0249406906F068FDF1
:1038C000F9E700BF40CE000808B58368D3F880321E
:1038D00013F0200F00D108BD0249406906F058FDE1
:1038E000F9E700BF44CE000810B504468368D3F85A
:1038F000803213F0200F07D1A3685022DA87A36823
:1039000018229A87002010BD0249406906F040FD48
:10391000F2E700BF48CE000808B583691B68034A78
:10392000082106F039FA002008BD00BF5CDC000861
:1039300000B583B002290ED08368D3F8803213F02B
:10394000020F14D00B4B0C4A082106F025FA002078
:1039500003B05DF804FB53680193084B00931368B0
:10396000074A012106F018FA6FF01500F0E7054B41
:10397000E9E700BF6CDC000898DC000880DC000888
:1039800074DC000870DC000870B582B006460D4A91
:10399000082106F001FA0C4C00230CE05D1CADB2CE
:1039A000A268216A01910092084A0821304606F077
:1039B000F3F92C342B46064A9442EFD3002002B090
:1039C00070BD00BFACDC0008A0CC0008C4DC00085F
:1039D000A0CC000808B5024906F0EEF9002008BDA9
:1039E00070D2000870B584B004460025A2680DF1BD
:1039F0000E0302F5B0720121E06806F0BCFDBDF8CF
:103A00000E3063B16E1CA36803F5B07300932B46B0
:103A1000064A0821204606F0BFF93546E6E7A368C6
:103A2000002083F8600104B070BD00BFD8DC00083E
:103A30002DE9F04383B005468946164600248DF8EB
:103A400003400C80148080684FF48072214600F59A
:103A5000B07003F0C3FE4A49686906F099FC6869D2
:103A600006F0FCF9A046B8F57A7F15D36FF0730025
:103A700080E04FF47A7008F090FA08F101081FFA1C
:103A800088F8F0E7522B1ED0AA68224482F86031F1
:103A90000134A4B2092C67D8686803681F6901ABB8
:103AA00001220DF10301B847002863DB019B002BC5
:103AB000DFD09DF803301B2BE4D0AA6892F8602178
:103AC0001B2ADFD0E8E7AB682344002283F860219B
:103AD000AB6893F861215B2A15D10222AB681344CD
:103AE00093F860113B2914D0338803EB83035B0008
:103AF0009BB2013292B20B44303B3380FF2AEDD9A6
:103B00006FF0790036E0002283F860216FF0040046
:103B100030E0531C9BB2FF2B2FD8AA681A4492F8AE
:103B2000601181B1B9F8002002EB8202520092B21A
:103B300001339BB20A44303AA9F80020FF2BECD99C
:103B40006FF0790016E0B9F80030FA2B02D9FA23A9
:103B5000A9F800303388FA2B01D9FA233380AB68F7
:103B6000002083F8600105E0AB68002283F8602143
:103B70006FF00B0003B0BDE8F0836FF00400F9E7CD
:103B8000E0F5000810B582B00446012904D106F022
:103B9000C3FC68B902B010BD536801930B4B00938E
:103BA00013680B4A012106F0F7F86FF01500F1E7F2
:103BB000A3685022DA87A36818229A87054A03214E
:103BC000204606F0E9F86FF00700E3E780DC000824
:103BD00074DC0008E4DC000810B5044606F02CF99B
:103BE0000346034A0821204606F0D6F8002010BDFF
:103BF000CCE2000880B505460E461746984603F00D
:103C000095FA034600F096FC0446DFF8189049F850
:103C10000030424639463046A84754F8090000F0C3
:103C200013FC00BF0800000008B50348034A121A3D
:103C3000002106F0D0FC08BDA80000209C0900204F
:103C400008B50648064A121A064906F0C8FC064896
:103C5000064A121A064906F0C2FC08BD0000002000
:103C6000A800002040FD0008000000200000002007
:103C700040FD000810B504468368426801680948A1
:103C800005F077FB63692269E168074805F071FB7D
:103C9000E169064805F06DFBA169054805F069FB7F
:103CA00010BD00BF1CE200084CE200087CE20008E6
:103CB0008CE2000838B504460D4611B10846FFF7FE
:103CC000D9FF012C04D02946204601F0E1FE38BD81
:103CD000EFF305811039024805F04BFBF3E700BF15
:103CE000BCE2000830BFFFF7FDBF00BF38B5044697
:103CF000054D2A460549FCF741FC054A002160199B
:103D000003F06CFD38BD00BF00000000F8CD0008D6
:103D10000800000070B50646064D074B1D444C1BBD
:103D20002046FFF7E3FF083CC6F8AC4005F1080069
:103D300070BD00BF00000000080000008169104B4A
:103D40005A6942F480725A61BFF34F8FBFF36F8F8D
:103D500031F8021C5A6922F480725A61BFF34F8F06
:103D6000BFF36F8F01F47F43B3F55F4F01D00020A5
:103D70007047C9B2022901D0002070470120704766
:103D800000ED00E008B54FF0000C83F800C0DDF84E
:103D900008E08EF800C002F07F4CBCF17F4F11D1DB
:103DA00002F00C0CBCF1080F04D012F0080F06D082
:103DB000084608BD044805F0DCFA0020F9E70122B6
:103DC0001A70F6E70020F4E7D0E20008F8B50546DF
:103DD0000F4614462F4805F0CCFA2F4B9B6A13F47C
:103DE000805F25D116262C4B9B6A13F4006F24D1DB
:103DF000294B9B6A13F4007F24D1274B9B6A13F451
:103E0000806F37D1244B9B6A13F4807F37D1224BCC
:103E10009B6A13F4005F37D11F4A936A43F47F43D0
:103E200093620121284606F0EAFB20703046F8BD77
:103E30001A4805F09EFA1726D5E7194805F099FAB1
:103E40001826D5E7174805F094FA134B996B9B6A2F
:103E500013F4004F01D11926CFE7134805F089FA72
:103E600037B10D4A936A23F4004393621926C4E7DD
:103E70001926C2E70D4805F07CFA1A26C2E70C485D
:103E800005F077FA1B26C7E70A4805F072FA1C26E8
:103E9000C2E700BFFCE2000800ED00E014E3000808
:103EA00028E300083CE3000858E3000870E300083A
:103EB0008CE30008A8E3000808B5244805F059FA87
:103EC000234B9B6A13F0007F21D11D20204B9B6A5E
:103ED00013F0807F20D11E4B9B6A13F4002F20D15A
:103EE0001B4B9B6A13F4802F20D1194B9B6A13F450
:103EF000003F20D1164B9B6A13F4803F20D1144A17
:103F0000936A6FEA03436FEA1343936208BD114853
:103F100005F02FFA1E20D9E70F4805F02AFA1F20D6
:103F2000D9E70E4805F025FA2120D9E70C4805F01D
:103F300020FA2220D9E70B4805F01BFA2320D9E705
:103F4000094805F016FA2420D9E700BFD8E3000895
:103F500000ED00E0F4E3000808E4000824E40008B1
:103F600044E400086CE4000888E4000808B5002375
:103F70000B70024805F0FDF908BD00BFB4E400086D
:103F800008B50A460F2905DC0349103A034805F035
:103F9000F0F908BD0249F8E7DCE4000810E5000884
:103FA000F4E400082DE9F04104460F4615463F4869
:103FB00005F0DFF93E4B9B6A13F0100F3CD1102641
:103FC0003B4B9B6A13F0080F3BD1394B9B6A13F0B4
:103FD000020F3BD16FF01508354B9B6A13F0010FB0
:103FE00050D1334B9B6A13F0200F50D1304B9B6A5A
:103FF00013F0100F04D12E4B9B6A13F0020F04D064
:104000002B4B5B6813F4006F46D1294B9B6A13F06E
:10401000200F04D0264A536A23F400535362244AE3
:10402000936A43F0FF0393620121204606F0E7FA0A
:1040300028703046BDE8F0811E4805F09AF9112637
:10404000BEE71D4805F095F91226BEE71B4805F0AE
:1040500090F9174BD3F834809B6A13F0800F03D18B
:104060006FF015081326B7E74146154805F081F9AA
:1040700037B10F4A936A23F0800393621326ABE7AC
:104080001326A9E70F4805F074F91426A9E70E488E
:1040900005F06FF91526A9E72146404606F0ECFA2F
:1040A0000028B2D080F309880226AEE724E5000894
:1040B00000ED00E03CE5000828E3000870E500089A
:1040C0008CE50008A4E50008A8E3000870B50646E2
:1040D0000D46264805F04DF900232B70244BDC6A71
:1040E00014F002040AD1224BDB6A002B0BDB204BBD
:1040F000DC6A14F080440AD1204670BD1D4805F0EA
:1041000038F90024F8E71C4805F033F9F4E71B48B8
:1041100005F02FF93046FFF711FE98B9144B9B6A52
:1041200013F0FF0F14D1124B9C6A14F47F4416D184
:104130000F4B9B6AB3F5803FDED33046FFF7BCFEE2
:104140000446D9E731680E4805F013F93468D3E71F
:104150002A4601213046FFF725FF0446CCE72A46D0
:1041600001213046FFF732FE0446C5E7C4E50008EA
:1041700000ED00E0DCE5000800E6000810E60008BD
:1041800030E6000830B58FB0244B5D68C5F30805F4
:10419000002383F31188BFF36F8F0BAB00930DF1F6
:1041A0003603FFF7EFFD68B104469DF82C300DF1A2
:1041B0003702294606F025FA05469DF837304BB1FF
:1041C0000FB030BD164805F0D4F800210846FFF7BF
:1041D00071FDF5E70DF10C0C20686168A268E368D9
:1041E000ACE80F0020696169A269E369ACE80F00DF
:1041F0009DF836304BB10A9BC3F308024AB96FEA07
:1042000053236FEA43230A9303E00A9B6FF30803E7
:104210000A9303A92846FFF74DFDD1E700ED00E022
:1042200050E60008044B5A6942F010025A615A697C
:1042300022F008025A61704700ED00E0EFF30880B9
:10424000EFF3098101B57246FFF79CFF01BD00BF86
:104250000E4880F30888102080F311880C484FF036
:10426000AA014FF4046206F0B6F909484FF404615C
:10427000401880F30988EFF314800221084380F38B
:104280001488BFF36F8F00F047F80000C01B0020B8
:10429000000E00201EF0040F0CBFEFF30880EFF3B8
:1042A0000980816911F8021C0229FFD001B572460C
:1042B00006F099F901BD00BF002807DB00F01F02DE
:1042C000400901239340024A42F82030704700BF62
:1042D00000E100E0002808DB0901C9B200F16040FC
:1042E00000F5614080F80013704700F00F000901ED
:1042F000C9B2014B1954704714ED00E0044B23F090
:104300007F03044A9360BFF34F8FBFF36F8F7047F3
:104310000000000800ED00E008B5FFF7EFFF0B4AD2
:10432000D2F8883023F47003C2F88830EFF3148396
:1043300023F0040383F31488BFF36F8FFFF774FC3B
:10434000FFF77EFC00F0CCF801F0CAFC00ED00E0C5
:10435000104B9B68BBB110F1160F0BD0D3F89C200B
:10436000A2F1400C844510D8824210D98A4207D865
:1043700000207047D3F89C208A4201D80020704763
:10438000D3F89C0070470020704700207047002041
:10439000704700BF4C09002010B4A2F120040E4960
:1043A00042F8081C21F0010142F8081C42F8203CA8
:1043B000019B42F81C3C029B42F8183C039B42F8CC
:1043C000143C4FF0807342F8043C04650023C0F8AD
:1043D000B03010BC704700BFF53B000808B50E4672
:1043E00015460C4A9060D0F8AC200B4B1A6000F0D8
:1043F000B5F82C4686F309880020044B98472046E0
:10440000002100220023024C2047000087A600085C
:10441000F53B00084C0900209C070020014B1022AE
:104420001A61704700ED00E0054B5A699B689A429B
:1044300004D0044A536843F080535360704700BF70
:104440004C09002000ED00E008B50A4B9B68834250
:1044500002D007F0FEFF08BDEFF30583002BF8D074
:10446000054B5A6842F080525A605A6A22F4004260
:104470005A62EEE74C09002000ED00E015498A6819
:104480004FF030001044EFF3098C80E8F01F10204B
:1044900080F31288BFF36F8F0F4F4FF000664A69A9
:1044A0008A603E60D2F8AC000C4C2060D2F8B000BC
:1044B0000023C2F8B03080F3118804B5104600F034
:1044C0004DF8BDE8044002F1300090E8F01F8CF395
:1044D000098870474C09002004ED00E09C0700208B
:1044E000002206E003F00F030949194410230B765C
:1044F0000132282A0ADC53B2002BF3DB03F16043BC
:1045000003F56143102183F80013F1E7704700BF02
:10451000FCEC00E008B5EFF30583103B044A02EB26
:10452000C301496852F833008847FFF77DFF08BD93
:1045300088CA000801480068704700009C070020F6
:1045400008B5034B034A0121034806F009FA08BDE8
:104550000000022000000020B0F8000808B5D0F8E4
:104560009C30403B0448036040234360034B83601E
:10457000012106F0F9F908BDA007002000000B1585
:10458000084AC2F898000B6823F01F03034343F066
:104590001003C2F89C308B6843F00103C2F8A030CE
:1045A000704700BF00ED00E0084BD3F89030C3F334
:1045B0000723013B984205D810B50446FFF7E0FFFA
:1045C000204610BD6FF01500704700BF00ED00E001
:1045D00010B5034C0123227806F099F8207010BD25
:1045E0009709002008B500230B4A127806F08FF8CF
:1045F00010F1160F0FD0024606E0084BC3F89820C2
:104600000021C3F8A0100132044BD3F89030C3F35B
:1046100007239342F1DC08BD9709002000ED00E07C
:10462000044B0522C3F89420BFF34F8FBFF36F8F65
:10463000704700BF00ED00E0BFF35F8F024B002228
:10464000C3F89420704700BF00ED00E038B51C4B64
:104650001D681C4BD3F89030C3F307239D422BD821
:10466000FFF7EAFF002409E0154B5B6804EB440107
:1046700003EB81012046FFF783FF0134A542F3D805
:104680001148057006F06BF810F1160F13D00E4BA1
:104690001A780C4BD3F89030C3F307239A4207DA09
:1046A000084BC3F898200021C3F8A0100132F0E7AE
:1046B000FFF7B6FF002038BD4FF0FF30FBE700BF2B
:1046C000BCF8000800ED00E09709002070B586B046
:1046D00006460D4611466846002400940194029453
:1046E00003940494059402228DF80220044A019256
:1046F000049605951A4603F0FFFE06B070BD00BF94
:1047000071A9000808B5064921F00701C1F100525E
:1047100002F50032034804F056FD002008BD00BF3A
:104720004B290020AC0700200268064B1A60426843
:10473000054B1A608268054B1A600269044B1A60C7
:10474000704700BFC0070020BC070020B80700204A
:10475000C407002038B50546084C04E06368A1682A
:10476000284698470C34064B9C4206D22368002BFF
:10477000F4D02A689342F5D1F0E738BD94CC000814
:10478000A0CC000800B585B04FF0FF324FF0FF33EA
:1047900001A9044801F074FB0028F5D101A8FFF736
:1047A000D9FFF1E78000002010B584B094461C4684
:1047B000089A099B01909DF818008DF808008DF863
:1047C0000910ADF80AC0039453EA020108D0FFF7BC
:1047D000B1FE094909580948D0F8B800884208D004
:1047E00001A9074807F03EFC002800DB002004B0C8
:1047F00010BD00221346F3E708000000100400205B
:104800008000002000B583B0094B93E8030002ABA1
:1048100003E90300074B9B681B682BB169460548F9
:10482000984703B05DF804FB6FF05700F9E700BF4D
:1048300050CE0008C8C8000800F01F0201239340B2
:104840001F2806D8044A526993430CBF0120002058
:1048500070470020704700BF003C014000F01F027D
:10486000012393401F2803D8034A53610020704757
:104870006FF01500704700BF003C014000239942D3
:104880000ADD10B400EB030C044C04F80C200133D7
:104890009942F7DC10BC7047704700BF2C00002025
:1048A000F8B50746002401E00134E4B27B78A34266
:1048B00017D93D7866193046FFF7BEFF0028F3D0C0
:1048C0003046FFF7CBFF074B53F83620002AEBD0DA
:1048D00006F01F0503EBC60359680120A840904766
:1048E000E2E7F8BDC80700205FFA81FC0CF1020284
:1048F0000A4B53F822200B0C22EA114193FAA3F33E
:104900004BB1B3FA83F3984001430CF1020C034A14
:1049100042F82C1070472023F5E700BF0038014013
:10492000C3B20233074A52F82320030C02EA1040B4
:1049300093FAA3F31BB1B3FA83F3D8407047202353
:10494000FBE700BF0038014008B5034668B1B0FA84
:1049500080F2C2F11F02D2B205498856054A116899
:104960000B43136005F077FE08BDFF22F4E700BF9C
:104970002C000020003C0140024A136823EA000397
:1049800013607047003C0140032926D8DFE801F09E
:10499000020C151E114B9A6822EA00029A60DA682E
:1049A00022EA0002DA6070470C4B9A6802439A6070
:1049B000DA6822EA0002DA607047084BDA680243DC
:1049C000DA609A6822EA00029A607047034B9A689C
:1049D00002439A60DA681043D8607047003C014097
:1049E00010B498B1B0FA80F3C3F11F03DBB29C4658
:1049F0000D4850F8330088420AD088B90A4B43F872
:104A00003C1003EBCC035A6010BC7047FF23EEE769
:104A1000054C04EBC3035B689342EED10020F3E73F
:104A20006FF00F00F0E700BFC807002060B1B0FAD8
:104A300080F3C3F11F03DBB2044A002142F83310B4
:104A400002EBC30251607047FF23F5E7C80700205F
:104A50000C4B1B6813F0020F09D10A4A136843F08C
:104A600001031360074B1B6813F0020FFAD0054ACD
:104A7000936823F003039360024B9B6813F00C0FC1
:104A8000FAD17047003802400C4B1A6822F4802299
:104A90001A601A6842F480321A60084B1B6813F4DB
:104AA000003FFAD0054A536F43F001035367034BAD
:104AB0005B6F13F0020FFAD0704700BF003802405E
:104AC000F8B50C461546434B1E680421304605F0E8
:104AD000C9FF07460221304605F0C4FF2388C3F30F
:104AE0000B010B46442929D809B2002969D0013BA2
:104AF000432B69D8DFE803F03D53565A5D3F4968C0
:104B00006868686868686868686868686063686832
:104B10006868686868686868686868686868686815
:104B2000686868686868683568686835686868379C
:104B300068686868686868396868683BA8290DD142
:104B40002E602368B3F5805F41D32A68C3F3133323
:104B50000133B2FBF3F22A60002037E06FF08500EA
:104B600034E02E60EDE72E60EBE72F60E9E7286088
:104B7000E7E72E60E5E700F0CBF802234FF4A872D8
:104B8000082105F068FF2860DBE700F0C1F8072383
:104B90004FF4A872082105F05EFF2860D1E70023DA
:104BA0002B60CEE74FF4FA432B60CAE700232B605B
:104BB000C7E7094B2B60C4E77F002F60C1E72E6079
:104BC000BFE76FF0850001E06FF08500F8BD0020C1
:104BD000FCE700BF3C00002000127A0008B51A4B29
:104BE0009B6803F00C03082B25D0174A136823F0A9
:104BF00080731360144B1B6813F0007FFAD1134AC3
:104C0000D2F8043823F44033C2F80438D2F8043818
:104C100023F0706343F0E063C2F8043800F07CF8DE
:104C2000094A136843F080731360074B1B6813F045
:104C3000007FFAD008BDFFF70BFF034A936823F00B
:104C4000F0039360D1E700BF00380240003002401B
:104C5000162806D8064BC34013F0010F04D00020DD
:104C600070476FF0850070476FF08500704700BF98
:104C7000EA00600038B500F071F8214C204605F0DC
:104C80006EFF00F0D5FD1F4B9B68C3F303131E4A54
:104C9000D35C20FA03F513781C41A54228D3FFF713
:104CA000F3FEFFF79BFF174A936823F0F00393602E
:104CB000936823F0030343F002039360114B9B6856
:104CC00003F00C03082BF9D1A54215D20F4B0C4A67
:104CD0001A600C4A936823F4E05343F4A0539360A2
:104CE000936823F4604343F400439360002038BD8D
:104CF000204600F00BFED2E7204600F007FEE5E775
:104D0000007A030A003802404CFB00083C000020F7
:104D10000048704700127A0008B505F021FF0B4BE0
:104D200059680B4A0A4040F4A84141F008010A437F
:104D30005A605A6822F440325A605968054A0A405B
:104D4000054901430A435A6008BD00BF00380240CC
:104D50000080BFFF0080BFF00854000782B0064B00
:104D60001A6C42F080521A641B6C03F0805301935A
:104D7000019B02B0704700BF003802402DE9F843A4
:104D800080460F4616461C46D0F80490D9F8080015
:104D900005F041FEB6F5001F0ED00546B6F5800FB2
:104DA0002AD0B4F1806F0ED0B4F1C06F0DD0B4F141
:104DB000007F24D1022609E03946D9F8080006F020
:104DC00063FB002415E0012600E0032642460F495C
:104DD0002846FFF705FE0446A0B9D9F80810384662
:104DE00005F01EFE31462846FFF7CEFD2846FFF7A8
:104DF000ABFD2046BDE8F8836FF08504F9E76FF05E
:104E00001504F6E76FF00F04F3E700BFC5B3000821
:104E10008368064A934204D2054A934203D2002093
:104E20007047002070470120704700BF44CC000845
:104E30002CCC000810B50C46054905F0C5F8034612
:104E400000B1036823600023E3606360A36010BDCA
:104E5000114E000838B505461446506805F0C7F8ED
:104E600028B106F0B7FB044650B9204638BD636848
:104E7000074A0121284604F08FFF6FF01204F4E77F
:104E80000346044A0121284604F086FFEDE700BFEF
:104E9000F8E600081CE700082DE9F04F87B005464A
:104EA0009246506805F0A3F840B18146304A082187
:104EB000284604F071FF0027B84641E0DAF80430D4
:104EC0002C4A0121284604F067FF6FF012004CE0E5
:104ED000294A0821284604F05FFF0134E4B20F2C70
:104EE00027D804EB060BBBF1030FF1DDBBF1770F05
:104EF000EEDC0DF10B0303930023049302238DF8E2
:104F000014303B19012203A9484606F011FB50B9A1
:104F10005B461A4A0821284604F03EFF08F10108C2
:104F20005FFA88F8D9E7164A0821284604F034FFCA
:104F3000D3E7144A0821284604F02EFF1037FFB2A9
:104F4000772F08D83E463B460F4A0821284604F0F2
:104F500023FF0024C3E7DAF80430009343460B4AEA
:104F60000821284604F018FF002007B0BDE8F08FA4
:104F700040E70008F8E6000808DC000800DC00084C
:104F800080E7000818E7000878E7000884E70008D1
:104F9000F0B583B00646144657680023019338469F
:104FA00005F025F8F0B105460A220021A06803F0BB
:104FB000B7F8044601A9284606F003FBD8B9019BBF
:104FC00023F00E030193600000F00E0003430193F1
:104FD0000199AB681B6828469847002812DB00201F
:104FE00003B0F0BD3B460C4A0121304604F0D4FE2C
:104FF0006FF01200F4E7640004F00E0444F01004B3
:105000000194E5E73B46054A0121304604F0C4FE21
:105010006FF00400E4E700BFF8E600089CE7000832
:105020002DE9F04F87B082460C4690461F46109EF1
:105030009DF84450084604F0DAFF08B38346102276
:105040000021404603F06CF88146102200213846CA
:1050500003F066F80446384606F0C5FA0746230C06
:10506000220E8DF804208DF80530C4F307238DF847
:1050700006308DF807402B18102B0ADC002420E0A6
:1050800023461D4A0121504604F086FE6FF01200AF
:1050900026E0C5B2C5F11005EDB2C0F11003174A04
:1050A0000221504604F078FEE8E71022002156F86D
:1050B000240003F035F804F11C036B4403F8140CCE
:1050C0000134A542F1DCC7F104011FFA89F3EA19A2
:1050D00001A80144584606F042FA002803DB0020EC
:1050E00007B0BDE8F08F4346054A0121504604F061
:1050F00053FE6FF00400F3E7F8E60008C4E7000889
:10510000ECE700082DE9F04784B080460D461646CE
:105110001C469DF834A0084604F069FF78B3814628
:1051200010220021304602F0FBFF074684B3102214
:105130000021204602F0F4FF0546204606F053FA0F
:1051400003462A0C290E8DF80C108DF80D20C5F39E
:1051500007228DF80E208DF80F50C0F10402CDF813
:1051600004A00C99009103A90A44B9B2484606F07C
:1051700012FA002813DB002004B0BDE8F0872B46AC
:105180000B4A0121404604F007FE6FF01200F3E7DE
:1051900083B252460C99484606F0EFF9E9E73346E8
:1051A000044A0121404604F0F7FD6FF00400E3E7F4
:1051B000F8E600080CE8000830B585B00446114652
:1051C000012301930DF10F030093D368926849689E
:1051D000FFF798FF054610B1284605B030BD9DF891
:1051E0000F30034A0821204604F0D6FDF4E700BF43
:1051F0002CE80008104B984213D00AD90F4B984264
:1052000015D003F5C31303F52063984211D10A208A
:1052100070470B4B984206D00A4B984205D10420A8
:105220007047062070470220704700207047082012
:1052300070470020704700BF40420F0040E133003C
:10524000A0860100801A0600F0B583B004460E4621
:1052500043680569DF68002201929A68012A33D900
:10526000596808311F4B9B68DB6853B301AA1D487E
:105270009847002825DB2E6205F110064FF0FF321B
:105280004FF0FF33304600F079FF3B6823F0010315
:105290003B6095F85210204606F095FA0199204699
:1052A00000F022F9041E06DB95F851301BB13B6873
:1052B00043F001033B60304600F028FF204603B076
:1052C000F0BD6FF00404F9E75968064B9B68DB6892
:1052D00023B101AA034898470028CCDA6FF00404F0
:1052E000ECE700BFC8C8000870B504464668056909
:1052F0004FF0FF320021284606F0D9FE33682046E1
:105300009847002385F8503085F8523005F1100099
:105310000122114606F0CBFE204600F023F8B368C8
:10532000012B0AD9716808310D4B9B689B699BB1B1
:1053300000220B48984700280EDB3069FFF75AFF20
:1053400040F010012046FFF77FFF002803DB012318
:1053500085F85030002070BD6FF00400FBE700BFFF
:10536000C8C8000810B544680021206A06F03EFA5B
:10537000002807DB6168054B9B681B681BB103486D
:10538000984700B910BD6FF00400FBE7C8C80008DB
:1053900030B52A4CA4FB014E4FEA9E4C446824F0E1
:1053A0003F0444EA9E444460046A24F03F04244DD0
:1053B000AA421BD80CF1010C44EA0C040462204CF4
:1053C000A24231D9F3B902EB4202B1FBF2F2C2F3CD
:1053D0000B0119B342F400410B43C26922F44F4C54
:1053E0002CF0FF0C4CEA0303C36130BD4FF49675FB
:1053F00005FB0CFC134DA5FB0C5C4FEA9C1C0CF14F
:10540000010CD9E702EB820202EB8202B1FBF2F25D
:10541000C2F30B0129B142F40041DDE748F201017A
:10542000DAE748F20101D7E75200B1FBF2F340F6A8
:10543000FC721342D1D10423CFE700BF83DE1B43AC
:10544000A0860100D34D6210F0B583B00446154626
:10545000476806694FF0000CCDF800C006F0ACFBC1
:10546000204606F011FAD7E90623304600F086FE02
:1054700030B9064A2946204606F049FA03B0F0BD85
:10548000204606F010FA6FF00400F7E7E8FA00088B
:105490002DE9F04182B0044615464668D0F81080E8
:1054A000F7684FF0010CCDF800C006F085FB2046F0
:1054B00006F0EAF97B6843F4C0637B60D6E9062313
:1054C000404600F05BFE38B9064A2946204606F001
:1054D0001EFA02B0BDE8F081204606F0E4F96FF054
:1054E0000400F6E7D4FA000808B542680369D068FA
:1054F0001B6AC3F34203012B04D0022B08D06FF0C8
:10550000150004E00023054AFFF742FF002008BD14
:105510000023034AFFF73CFF0020F8E7A0860100C4
:10552000801A060038B5836805699C697CB112F45D
:10553000000F06D02D6801238B401D4201D082F060
:10554000C062044B134002F0B072A04738BD6FF048
:105550005700FBE74000000638B504460D460279C7
:10556000012393400A4A4A608B60006806F048FCB9
:1055700000280CDB2068217906F030FC28734FF0FE
:10558000E861204606F0DEFB002800DB002038BD85
:1055900015BE000808B5A0F1180350F8180C4268B1
:1055A000D2689B1ADB10034903FB01F106F08FFC64
:1055B00008BD00BF398EE3384FF0E0239A691969BE
:1055C0009B6900B103600AB90C4A12680BB90B4B16
:1055D0001B6811F4803F01D19A4208D208490A6839
:1055E0000648006802440A604FF0E0221269034A4C
:1055F0001068C31A024A106818447047480900200E
:105600003C0900200B4B102283F823200A4B4FF457
:10561000D2621A60094B44F2A0121A600020084BB3
:1056200018604FF0E02344F29F125A6198610722FC
:105630001A61704700ED00E044090020480900208D
:105640003C090020684620F007018D4679B5EFF34C
:105650001184102383F31288BFF36F8F0020FFF7AC
:10566000ABFF14480368144A0026156851685B199B
:1056700041F10001136051600660104D2A686968AD
:10568000981A0F4BA3FB0030800B44F2A01300FBD1
:1056900003F3D21841F100012A606960094B1E60D2
:1056A000214601F0F3FFFEF7BFFEBDE879408546D5
:1056B000704700BF3C0900209802002090020020A3
:1056C0002D34A9F94009002030B583B0054601A862
:1056D000FFF772FF384B1968384C23686268C318AB
:1056E00042F10000236060600024354A1460354CAC
:1056F000226864689A1A60EB040EBEF1000F32DB78
:10570000314B18680024281844EB04054FEA451C67
:105710004CEAD06C43011B1845EB0C0C4FEA8C0C87
:105720004CEA937C9B001B1A6CEB050C4FEA8C0C2B
:105730004CEA937C9B001B1845EB0C056D0145EA78
:10574000D3655B019B1A65EB0E05204A12689A42ED
:10575000AC410ADA1A46B3F1807F75F1000504DB2B
:105760006FF07F4201E0194B1A68134B1A604FF03B
:10577000E0239869013A5A6100229A6103F5506367
:105780004FF000725A60019B83420BD2091A0B44FE
:105790000A490A684868D21840F100000A60486067
:1057A00003B030BD1B1A05490A684868D21840F199
:1057B00000000A604860F3E74809002098020020D2
:1057C0003C090020900200204009002044090020EC
:1057D00010B5084B1C68084B1B68E41A0020FFF743
:1057E000EBFE2044054BA3FB0030800B044B1860FC
:1057F00010BD00BF98020020900200202D34A9F9AE
:105800004009002038B5EFF31185102383F3128887
:10581000BFF36F8F054B1C680020FFF7CDFE2044BF
:1058200085F31188BFF36F8F38BD00BF9802002049
:1058300008B5334B9B6803F00C03042B5BD0082B9B
:105840005BD12F4B5A6802F03F025B6813F4800F64
:105850002CD02B4B5868C0F388104FEA401CBCEB8F
:10586000000C6EEB0E0E4FEA8E1343EA9C634FEA78
:105870008C11B1EB0C0163EB0E03DB0043EA5173B7
:10588000C90011EB000C43F10003590200234FEA59
:105890004C2041EADC51FBF7C1FA194B5B68C3F3BA
:1058A000014301335B00B0FBF3F008BD144B5868B3
:1058B000C0F388104FEA401CBCEB000C6EEB0E0EE0
:1058C0004FEA8E1343EA9C634FEA8C11B1EB0C0153
:1058D00063EB0E03DB0043EA5173C90011EB000CCC
:1058E00043F10003990200234FEA8C2041EA9C51C6
:1058F000FBF794FAD1E70348D7E70348D5E700BFA1
:105900000038024000127A000024F4000246002809
:1059100050D02A4B1B6813F480431DD0284B98426B
:1059200004D8284B984212D9002300E0052383B104
:1059300025498A4201D903B9032324498A4200D95F
:105940004BB123498A4207D933B9012304E000232C
:10595000EEE70423ECE702231849096811F4804FAD
:1059600014D118498A4201D903B9042316498A423D
:1059700001D903B9032315498A4200D92BB114492F
:105980008A4203D913B9012300E0022311490A68AE
:1059900022F007021A430A6002210E4A126802F03E
:1059A00007020139934201D00029F6D1934203D076
:1059B00001207047012070470020704700700040B0
:1059C00080D1F008000E2707804A5D050087930309
:1059D00080C3C901003C0240024B03600248C01A68
:1059E00040097047C8C8000888CA000838B505468D
:1059F000B8B10378BBB10D4C0D4B9C420ED221685F
:105A0000A94205D02846FAF7EBFB08B12034F3E7AA
:105A1000204606F0F7FA10B9002400E000242046E2
:105A200038BD0446FBE70024F9E700BFC8C80008FA
:105A300088CA0008F8B5074608B303780BB3124EBE
:105A400000E02036114B9E4216D2F56905B12D6853
:105A5000304606F0D7FA0028F3D0002DF1D000240C
:105A60002B68A342EDD905EB840359683846FAF751
:105A7000B7FB10B10134F3E700263046F8BD064607
:105A8000FBE70026F9E700BFC8C8000888CA00087D
:105A900038B5EFF31185102383F31288BFF36F8FAE
:105AA000054B9C6806F0C6FA85F31188BFF36F8F2B
:105AB0002046FEF7C9FC38BD4C09002010B586B061
:105AC000B823114C03FB004400EB400C00EB8000BA
:105AD0000E4B03EB80030E4A0592012204920F2223
:105AE000039200220292019200930A4B4FF4A0729B
