:020000040800F2
:10000000C02E0020C541000877E30008B141000878
:10001000B1410008B1410008B141000800000000F2
:10002000000000000000000000000000F94100088E
:10003000B14100080000000019440008257C0008B8
:10004000AD440008AD440008AD440008AD440008CC
:10005000AD440008AD440008AD440008AD440008BC
:10006000AD440008AD440008AD440008AD440008AC
:10007000AD440008AD440008AD440008AD4400089C
:10008000AD440008AD440008AD440008AD4400088C
:10009000AD440008AD440008AD440008AD4400087C
:1000A000AD440008AD440008AD440008AD4400086C
:1000B000AD440008AD440008AD440008AD4400085C
:1000C000AD440008AD440008AD440008AD4400084C
:1000D000AD440008AD440008AD440008AD4400083C
:1000E000AD440008AD440008AD440008AD4400082C
:1000F000AD440008AD440008AD440008AD4400081C
:1001000030B490F800F020F007016FF0000C10F010
:10011000070491F820F040F048804FF000046FF0A1
:100120000700D1E9002391F840F000F1080082FABD
:100130004CF2A4FA8CF283FA4CF3A2FA8CF34BBB88
:10014000D1E9022382FA4CF200F10800A4FA8CF201
:1001500083FA4CF3A2FA8CF3E3B9D1E9042382FACF
:100160004CF200F10800A4FA8CF283FA4CF3A2FAE4
:100170008CF37BB9D1E9062301F1200182FA4CF21C
:1001800000F10800A4FA8CF283FA4CF3A2FA8CF383
:10019000002BC6D0002A04BF04301A4612BAB2FAA5
:1001A00082F200EBD20030BC7047D1E9002304F0AA
:1001B0000305C4F100004FEAC50514F0040F91F8DF
:1001C00040F00CFA05F562EA05021CBF63EA05037C
:1001D00062464FF00004AAE7844641EA000313F0A8
:1001E00003036DD1403A41D351F8043B40F8043B3E
:1001F00051F8043B40F8043B51F8043B40F8043B01
:1002000051F8043B40F8043B51F8043B40F8043BF0
:1002100051F8043B40F8043B51F8043B40F8043BE0
:1002200051F8043B40F8043B51F8043B40F8043BD0
:1002300051F8043B40F8043B51F8043B40F8043BC0
:1002400051F8043B40F8043B51F8043B40F8043BB0
:1002500051F8043B40F8043B51F8043B40F8043BA0
:1002600051F8043B40F8043B403ABDD2303211D340
:1002700051F8043B40F8043B51F8043B40F8043B80
:1002800051F8043B40F8043B51F8043B40F8043B70
:10029000103AEDD20C3205D351F8043B40F8043B40
:1002A000043AF9D2043208D0D2071CBF11F8013B3E
:1002B00000F8013B01D30B8803806046704700BF04
:1002C000082A13D38B078DD010F003038AD0C3F113
:1002D0000403D21ADB071CBF11F8013B00F8013BF5
:1002E00080D331F8023B20F8023B7BE7043AD9D3B4
:1002F000013A11F8013B00F8013BF9D20B78037089
:100300004B7843708B788370604670474FF0FF0CDA
:100310001CEAD0521EBF1CEAD15392EA0C0F93EA9A
:100320000C0F6FD01A4480EA010C400218BF5FEA3C
:1003300041211ED04FF0006343EA501043EA5111AF
:10034000A0FB01310CF00040B1F5000F3EBF4900A9
:1003500041EAD3715B0040EA010062F17F02FD2AAD
:100360001DD8B3F1004F40EBC25008BF20F0010090
:10037000704790F0000F0CF0004C08BF49024CEAA7
:10038000502040EA51207F3AC2BFD2F1FF0340EA39
:10039000C250704740F400004FF00003013A5DDCAA
:1003A00012F1190FDCBF00F000407047C2F10002EB
:1003B000410021FA02F1C2F1200200FA02FC5FEAD8
:1003C000310040F1000053EA4C0308BF20EADC7022
:1003D000704792F0000F00F0004C02BF400010F494
:1003E000000F013AF9D040EA0C0093F0000F01F041
:1003F000004C02BF490011F4000F013BF9D041EA63
:100400000C018FE70CEAD15392EA0C0F18BF93EA64
:100410000C0F0AD030F0004C18BF31F0004CD8D18E
:1004200080EA010000F00040704790F0000F17BF15
:1004300090F0004F084691F0000F91F0004F14D05B
:1004400092EA0C0F01D142020FD193EA0C0F03D1B3
:100450004B0218BF084608D180EA010000F00040B6
:1004600040F0FE4040F40000704740F0FE4040F491
:100470004000704781F0004102E000BF83F000437C
:1004800030B54FEA41044FEA430594EA050F08BF2F
:1004900090EA020F1FBF54EA000C55EA020C7FEAF3
:1004A000645C7FEA655C00F0E2804FEA5454D4EB70
:1004B0005555B8BF6D420CDD2C4480EA020281EA3A
:1004C000030382EA000083EA010180EA020281EA72
:1004D0000303362D88BF30BD11F0004F4FEA0131C4
:1004E0004FF4801C4CEA113102D0404261EB4101D3
:1004F00013F0004F4FEA03334CEA133302D0524259
:1005000063EB430394EA050F00F0A780A4F1010414
:10051000D5F1200E0DDB02FA0EFC22FA05F280184E
:1005200041F1000103FA0EF2801843FA05F3594134
:100530000EE0A5F120050EF1200E012A03FA0EFCB3
:1005400028BF4CF0020C43FA05F3C01851EBE371DD
:1005500001F0004507D54FF0000EDCF1000C7EEBFA
:1005600000006EEB0101B1F5801F1BD3B1F5001F38
:100570000CD349085FEA30004FEA3C0C04F1010457
:100580004FEA445212F5800F80F09A80BCF1004F80
:1005900008BF5FEA500C50F1000041EB045141EA02
:1005A000050130BD5FEA4C0C404141EB0101013CCB
:1005B00028BFB1F5801FE9D291F0000F04BF0146BA
:1005C0000020B1FA81F308BF2033A3F10B03B3F18C
:1005D00020020CDA0C3208DD02F1140CC2F10C021C
:1005E00001FA0CF021FA02F10CE002F11402D8BF7A
:1005F000C2F1200C01FA02F120FA0CFCDCBF41EA46
:100600000C019040E41AA2BF01EB0451294330BD14
:100610006FEA04041F3C1CDA0C340EDC04F11404F1
:10062000C4F1200220FA04F001FA02F340EA0300C8
:1006300021FA04F345EA030130BDC4F10C04C4F10E
:10064000200220FA02F001FA04F340EA03002946EE
:1006500030BD21FA04F0294630BD94F0000F83F438
:10066000801306BF81F480110134013D4EE77FEA1B
:10067000645C18BF7FEA655C29D094EA050F08BF67
:1006800090EA020F05D054EA000C04BF1946104648
:1006900030BD91EA030F1EBF0021002030BD5FEA8C
:1006A000545C05D14000494128BF41F0004130BDB4
:1006B00014F580043CBF01F5801130BD01F0004508
:1006C00045F0FE4141F470014FF0000030BD7FEA7B
:1006D000645C1ABF194610467FEA655C1CBF0B4676
:1006E000024650EA013406BF52EA033591EA030F8D
:1006F00041F4002130BD00BF90F0000F04BF002185
:10070000704730B54FF4806404F132044FF00005B7
:100710004FF0000150E700BF90F0000F04BF002130
:10072000704730B54FF4806404F1320410F0004596
:1007300048BF40424FF000013EE700BF42004FEA91
:10074000E2014FEA31014FEA02701FBF12F07F430E
:1007500093F07F4F81F06051704732F07F4208BFC5
:10076000704793F07F4F04BF41F40021704730B5CC
:100770004FF4607401F0004521F000411CE700BF18
:1007800050EA010208BF704730B54FF000050AE09B
:1007900050EA010208BF704730B511F0004502D59C
:1007A000404261EB41014FF4806404F132045FEA9E
:1007B000915C3FF4D8AE4FF003025FEADC0C18BF47
:1007C00003325FEADC0C18BF033202EBDC02C2F139
:1007D000200300FA03FC20FA02F001FA03FE40EACB
:1007E0000E0021FA02F11444BDE600BF70B54FF0CF
:1007F000FF0C4CF4E06C1CEA11541DBF1CEA1355AD
:1008000094EA0C0F95EA0C0F00F0DEF82C4481EA14
:10081000030621EA4C5123EA4C5350EA013518BF34
:1008200052EA033541F4801143F4801338D0A0FB21
:1008300002CE4FF00005E1FB02E506F00042E0FBCE
:1008400003E54FF00006E1FB03569CF0000F18BFD4
:100850004EF0010EA4F1FF04B6F5007F64F540747C
:1008600004D25FEA4E0E6D4146EB060642EAC6210F
:1008700041EA55514FEAC52040EA5E504FEACE2E7C
:10088000B4F1FD0C88BFBCF5E06F1ED8BEF1004F7F
:1008900008BF5FEA500E50F1000041EB045170BDFB
:1008A00006F0004646EA010140EA020081EA03013F
:1008B000B4EB5C04C2BFD4EB0C0541EA045170BD3B
:1008C00041F480114FF0000E013C00F3AB8014F1B5
:1008D000360FDEBF002001F0004170BDC4F10004FE
:1008E000203C35DA0C341BDC04F11404C4F120057F
:1008F00000FA05F320FA04F001FA05F240EA0200DA
:1009000001F0004221F0004110EBD37021FA04F60F
:1009100042EB06015EEA430E08BF20EAD37070BDC9
:10092000C4F10C04C4F1200500FA04F320FA05F028
:1009300001FA04F240EA020001F0004110EBD3702A
:1009400041F100015EEA430E08BF20EAD37070BD9A
:10095000C4F1200500FA05F24EEA020E20FA04F373
:1009600001FA05F243EA020321FA04F001F0004122
:1009700021FA04F220EA020000EBD3705EEA430E93
:1009800008BF20EAD37070BD94F0000F0FD101F0C2
:100990000046400041EB010111F4801F08BF013CFB
:1009A000F7D041EA060195F0000F18BF704703F039
:1009B0000046520043EB030313F4801F08BF013DC0
:1009C000F7D043EA0603704794EA0C0F0CEA13557C
:1009D00018BF95EA0C0F0CD050EA410618BF52EA36
:1009E0004306D1D181EA030101F000414FF000003C
:1009F00070BD50EA410606BF1046194652EA43064A
:100A000019D094EA0C0F02D150EA013613D195EABD
:100A10000C0F05D152EA03361CBF104619460AD105
:100A200081EA030101F0004141F0FE4141F470010F
:100A30004FF0000070BD41F0FE4141F4780170BDFF
:100A400070B54FF0FF0C4CF4E06C1CEA11541DBF64
:100A50001CEA135594EA0C0F95EA0C0F00F0A7F866
:100A6000A4EB050481EA030E52EA03354FEA013193
:100A700000F088804FEA03334FF0805545EA1313A6
:100A800043EA12634FEA022245EA111545EA10656E
:100A90004FEA00260EF000419D4208BF964244F105
:100AA000FD0404F5407402D25B084FEA3202B61A24
:100AB00065EB03055B084FEA32024FF480104FF4F8
:100AC000002CB6EB020E75EB030E22BFB61A75466C
:100AD00040EA0C005B084FEA3202B6EB020E75EBFF
:100AE000030E22BFB61A754640EA5C005B084FEA67
:100AF0003202B6EB020E75EB030E22BFB61A754634
:100B000040EA9C005B084FEA3202B6EB020E75EB3E
:100B1000030E22BFB61A754640EADC0055EA060EFF
:100B200018D04FEA051545EA16754FEA06164FEA42
:100B3000C30343EA52734FEAC2025FEA1C1CC0D1EE
:100B400011F4801F0BD141EA00014FF000004FF07B
:100B5000004CB6E711F4801F04BF01430020B4F13C
:100B6000FD0C88BFBCF5E06F3FF6AFAEB5EB030CF4
:100B700004BFB6EB020C5FEA500C50F1000041EBF1
:100B8000045170BD0EF0004E4EEA113114EB5C04BE
:100B9000C2BFD4EB0C0541EA045170BD41F4801191
:100BA0004FF0000E013C90E645EA060E8DE60CEA99
:100BB000135594EA0C0F08BF95EA0C0F3FF43BAFB6
:100BC00094EA0C0F0AD150EA01347FF434AF95EA6D
:100BD0000C0F7FF425AF104619462CE795EA0C0F51
:100BE00006D152EA03353FF4FDAE1046194622E71E
:100BF00050EA410618BF52EA43067FF4C5AE50EAF8
:100C000041047FF40DAF52EA43057FF4EBAE12E7E7
:100C10004FF0FF3C06E000BF4FF0010C02E000BFC8
:100C20004FF0010C4DF804CD4FEA410C7FEA6C5CAB
:100C30004FEA430C18BF7FEA6C5C1BD001B050EA4E
:100C4000410C0CBF52EA430C91EA030F02BF90EA39
:100C5000020F0020704710F1000F91EA030F58BFF8
:100C6000994208BF90422CBFD8176FEAE37040F05A
:100C7000010070474FEA410C7FEA6C5C02D150EAF8
:100C8000013C07D14FEA430C7FEA6C5CD6D152EAB3
:100C9000033CD3D05DF8040B704700BF8446104678
:100CA00062468C461946634600E000BF01B5FFF777
:100CB000B7FF002848BF10F1000F01BD4DF808ED47
:100CC000FFF7F4FF0CBF012000205DF808FB00BF18
:100CD0004DF808EDFFF7EAFF34BF012000205DF872
:100CE00008FB00BF4DF808EDFFF7E0FF94BF0120BF
:100CF00000205DF808FB00BF4DF808EDFFF7CEFFC0
:100D000094BF012000205DF808FB00BF4DF808EDFE
:100D1000FFF7C4FF34BF012000205DF808FB00BFCF
:100D20004FEA4102B2F1E04324BFB3F5001CDCF10D
:100D3000FE5C0DD901F0004C4FEAC0024CEA507045
:100D4000B2F1004F40EB830008BF20F00100704774
:100D500011F0804F21D113F13872BCBF01F0004077
:100D6000704741F480114FEA5252C2F11802C2F1A9
:100D7000200C10FA0CF320FA02F018BF40F001002A
:100D80004FEAC1234FEAD32303FA0CFC40EA0C00DC
:100D900023FA02F34FEA4303CCE77FEA625307D119
:100DA00050EA01331EBF4FF0FE4040F44000704750
:100DB00001F0004040F0FE4040F40000704700BFEA
:100DC00080F0004002E000BF81F0004142001FBF00
:100DD0005FEA410392EA030F7FEA226C7FEA236C09
:100DE0006AD04FEA1262D2EB1363C1BFD2184140FE
:100DF00048404140B8BF5B42192B88BF704710F094
:100E0000004F40F4000020F07F4018BF404211F036
:100E1000004F41F4000121F07F4118BF494292EA9E
:100E2000030F3FD0A2F1010241FA03FC10EB0C00CA
:100E3000C3F1200301FA03F100F0004302D5494257
:100E400060EB4000B0F5000F13D3B0F1807F06D304
:100E500040084FEA310102F10102FE2A51D2B1F1FC
:100E6000004F40EBC25008BF20F0010040EA0300F1
:100E70007047490040EB0000013A28BFB0F5000F71
:100E8000EDD2B0FA80FCACF1080CB2EB0C0200FA27
:100E90000CF0AABF00EBC25052421843BCBFD04076
:100EA0001843704792F0000F81F4000106BF80F4F0
:100EB00000000132013BB5E74FEA41037FEA226CB3
:100EC00018BF7FEA236C21D092EA030F04D092F07E
:100ED000000F08BF0846704790EA010F1CBF0020B2
:100EE000704712F07F4F04D1400028BF40F000400F
:100EF000704712F100723CBF00F50000704700F02F
:100F0000004343F0FE4040F4000070477FEA226255
:100F100016BF08467FEA23630146420206BF5FEA26
:100F2000412390EA010F40F4800070474FF0000326
:100F300004E000BF10F0004348BF40425FEA000CED
:100F400008BF704743F0964301464FF000001CE095
:100F500050EA010208BF70474FF000030AE000BFEB
:100F600050EA010208BF704711F0004302D5404229
:100F700061EB41015FEA010C02BF8446014600209B
:100F800043F0B64308BFA3F18053A3F50003BCFAB6
:100F90008CF2083AA3EBC25310DB01FA02FC634463
:100FA00000FA02FCC2F12002BCF1004F20FA02F26A
:100FB00043EB020008BF20F00100704702F120025D
:100FC00001FA02FCC2F1200250EA4C0021FA02F2BE
:100FD00043EB020008BF20EADC7070474FF0FF3C93
:100FE00006E000BF4FF0010C02E000BF4FF0010C23
:100FF0004DF804CD4FEA40024FEA41037FEA226CEC
:1010000018BF7FEA236C11D001B052EA530C18BF0D
:1010100090EA010F58BFB2EB030088BFC81738BF72
:101020006FEAE17018BF40F0010070477FEA226C60
:1010300002D15FEA402C05D17FEA236CE4D15FEA5C
:10104000412CE1D05DF8040B704700BF8446084690
:101050006146FFE70FB5FFF7C9FF002848BF10F151
:10106000000F0FBD4DF808EDFFF7F4FF0CBF012096
:1010700000205DF808FB00BF4DF808EDFFF7EAFF20
:1010800034BF012000205DF808FB00BF4DF808EDDB
:10109000FFF7E0FF94BF012000205DF808FB00BFD0
:1010A0004DF808EDFFF7D2FF94BF012000205DF856
:1010B00008FB00BF4DF808EDFFF7C8FF34BF012063
:1010C00000205DF808FB00BF4FEA4002B2F1FE4F7E
:1010D0000FD34FF09E03B3EB12620DD94FEA0023FA
:1010E00043F0004310F0004F23FA02F018BF4042D3
:1010F00070474FF00000704712F1610F01D14202BA
:1011000005D110F0004008BF6FF0004070474FF06D
:101110000000704742000ED2B2F1FE4F0BD34FF0E9
:101120009E03B3EB126209D44FEA002343F000435D
:1011300023FA02F070474FF00000704712F1610F80
:1011400001D1420202D14FF0FF3070474FF0000052
:10115000704700BF7BB972B90029BEBF00204FF0B5
:10116000004106E008BF00281CBF6FF000414FF0AF
:10117000FF3000F057B8ADF1080C6DE904CE00293E
:1011800009DB002B1ADB00F04FF8DDF804E0DDE9A5
:10119000022304B07047404261EB4101002B1BDB8E
:1011A00000F042F8DDF804E0DDE9022304B040423B
:1011B00061EB4101524263EB43037047524263EBE0
:1011C000430300F031F8DDF804E0DDE9022304B068
:1011D000404261EB41017047524263EB430300F030
:1011E00023F8DDF804E0DDE9022304B0524263EBAA
:1011F0004303704753B94AB9002908BF00281CBFF0
:101200004FF0FF314FF0FF3000F00CB8ADF1080C9B
:101210006DE904CE00F008F8DDF804E0DDE9022312
:1012200004B07047704700BF2DE9F0478C468E46EA
:10123000089E154604461946002B40F0D0807245A2
:1012400047D9B2FA82F74FB1C7F120030EFA07FC73
:1012500020FA03F3BD4043EA0C0CBC404FEA154EA4
:10126000A8B2BCFBFEF8230C0EFB18CC08FB00F95F
:1012700043EA0C43994528D9EB1808F1FF3204D210
:10128000994502D9A8F102022B44A3EB0903A4B2A9
:10129000B3FBFEFC0EFB1C330CFB00F044EA0344E2
:1012A000A04214D92C190CF1FF3304D2A04202D968
:1012B000ACF102032C44241A43EA02401EB1FC4064
:1012C000002334607360BDE8F0874246DDE7634683
:1012D000F1E7002A79D0B2FA82F3002B3FD0194609
:1012E000C1F1200302FA01F52EFA03F20EFA01FE13
:1012F00020FA03F343EA0E034FEA154E00FA01F415
:10130000B2FBFEFCAFB20EFB1C201A0C0CFB07F864
:1013100042EA004290455AD9AA180CF1FF3004D293
:10132000904502D9ACF102002A44A2EB08029BB21C
:10133000B2FBFEFC0EFB1C220CFB07F743EA024348
:101340009F4246D9EB180CF1FF3204D29F4202D9DA
:10135000ACF102022B44DB1B42EA004202E0AEEB9E
:10136000020301224FEA154EAFB2B3FBFEFC200C84
:101370000EFB1C330CFB07F840EA034398452AD9BF
:10138000EB180CF1FF3004D2984502D9ACF1020001
:101390002B44A3EB0803A4B2B3FBFEFC0EFB1C33EF
:1013A0000CFB07F744EA0344A74216D92C190CF1A9
:1013B000FF3304D2A74202D9ACF102032C44E41B50
:1013C00043EA00400F46114678E71F2188E7604650
:1013D000ABE76246BFE76046DBE76346EFE773458E
:1013E00006D916B9002108466DE7C6E9000EF9E7EF
:1013F000B3FA83F787B9734501D3824207D8841AB9
:101400006EEB030301209C461EB900215BE73846C2
:10141000FAE7C6E9004CF8E7C7F1200CBB4022FA16
:101420000CF51D4320FA0CF12EFA0CF30EFA07FE10
:1014300041EA0E014FEA154900FA07F4B3FBF9F847
:101440001FFA85FE09FB18300B0C08FB0EFA43EA65
:1014500000439A4502FA07F240D9EB1808F1FF3031
:1014600004D29A4502D9A8F102002B44A3EB0A0347
:1014700089B2B3FBF9F809FB183308FB0EFE41EA09
:1014800003418E452CD9691808F1FF3304D28E45EB
:1014900002D9A8F10203294443EA0040A0FB0298C4
:1014A000A1EB0E014145CE46434602D306D14C4541
:1014B00004D2B9EB020E68EB05030138002EA4D06C
:1014C000B4EB0E0261EB030101FA0CFC22FA07F304
:1014D0004CEA0303F940C6E9003196E74046C5E708
:1014E0004346D9E700000000F0B587B00446284B1A
:1014F00018686A46032101F0F5FD0546002840D131
:10150000002C3ED00098FFF707F906460F460198D9
:10151000FFF702F91CA3D3E90023FFF791FA024673
:101520000B4630463946FEF7ABFFC4E9000102988E
:10153000FFF7F2F806460F460398FFF7EDF812A3FF
:10154000D3E90023FFF77CFA02460B4630463946C2
:10155000FEF796FFC4E902010498FFF7DDF806469E
:101560000F460598FFF7D8F807A3D3E90023FFF744
:1015700067FA02460B4630463946FEF781FFC4E95A
:101580000401284607B0F0BD0000000080842E4111
:10159000B818002000000000F0B587B00446284BC2
:1015A00018686A46072101F09DFD0546002840D1D4
:1015B000002C3ED00098FFF7AFF806460F46019882
:1015C000FFF7AAF81CA3D3E90023FFF739FA024674
:1015D0000B4630463946FEF753FFC4E90001029836
:1015E000FFF79AF806460F460398FFF795F812A3FF
:1015F000D3E90023FFF724FA02460B46304639466A
:10160000FEF73EFFC4E902010498FFF785F806469D
:101610000F460598FFF780F807A3D3E90023FFF7EB
:101620000FFA02460B4630463946FEF729FFC4E959
:101630000401284607B0F0BD0000000080842E4160
:10164000B8180020000000002DE9F04F91B001F023
:101650008BFD0AA800240A9444608460C46004617D
:10166000446104AD04940594069407940894099485
:10167000FFF73AFF2846FFF78FFF0FF05EFB431896
:1016800080F0A48023445E4AA2FB034525F00304B6
:1016900004EB95041B1BC01A61F100034FF0CC3121
:1016A00000FB01F102FB0311A0FB02021144400800
:1016B00040EAC1704908FFF76BF80022514BFFF771
:1016C000BFF904460D46DDE90A6732463B4630461F
:1016D0003946FFF78BF882468B46DDE90E89424694
:1016E0004B4640464946FFF781F802460B465046B6
:1016F0005946FEF7C5FE0BF011FB82468B460022D1
:101700000023FFF7DBFA002862D152465B46DDE991
:101710000C01FFF795F900F083F837A3D3E9002314
:10172000FFF764F882468B4642464B4630463946C0
:1017300000F04EFA30A3D3E90023FFF757F806462E
:101740000F460022304BFFF7C3FA38B100222F4B6F
:101750002F49D1E90001FFF7D9FA80B900222B4BBC
:1017600030463946FFF7D2FA002836D00022264B01
:101770002749D1E90001FFF7ABFA00282DD0254B0E
:10178000C3E90667224BC3E90067CDE90245DDE9FD
:101790000423CDE9002352465B461F480BF015FF9A
:1017A0001B4EC6E9020122462B46DDE90801FFF780
:1017B0001DF800220023FEF763FEC6E90401174B63
:1017C000186800F025FE11B0BDE8F08F012459E73C
:1017D0004FF0000A4FF0000BA6E7CDE90245DDE926
:1017E0000623CDE9002332463B460A480BF0EDFEC6
:1017F000074BC3E90001C8E7F8C1631ADCA54C40F8
:10180000CDCCCCCC00408F40008056C000805640EC
:10181000500400204800002000000020880800201C
:101820002DE9F04FCA4A21F00043934285B00446A7
:101830000D468A4614D9C74A934200F2EB8000F065
:10184000E680BAF1000F9EA3D3E9002340F3148190
:101850009DA1D1E90001FEF713FE05B0BDE8F08FB0
:10186000BD4A934200F2A180A2F1DE72934240F29F
:10187000D78000220023CDE90223CDE900234FF0D9
:10188000FF3B22462B4620462946FEF7AFFF024685
:101890000B4680468946FEF7A9FF8DA3D3E90023B6
:1018A00006460F46FEF7A2FF8BA3D3E90023FEF7FF
:1018B000E7FD32463B46FEF799FF89A3D3E90023B3
:1018C000FEF7DEFD32463B46FEF790FF86A3D3E9E6
:1018D0000023FEF7D5FD32463B46FEF787FF84A383
:1018E000D3E90023FEF7CCFD32463B46FEF77EFFF0
:1018F00081A3D3E90023FEF7C3FD42464B46FEF722
:1019000075FF7FA3D3E900238046894630463946D8
:10191000FEF76CFF7CA3D3E90023FEF7AFFD324650
:101920003B46FEF763FF7AA3D3E90023FEF7A6FD4B
:1019300032463B46FEF75AFF77A3D3E90023FEF772
:101940009DFD32463B46FEF751FF75A3D3E90023C8
:10195000FEF794FD32463B46FEF748FF02460B4633
:1019600040464946FEF78CFD22462B46FEF73EFFD9
:10197000BBF1FF3F02460B4600F08680DDE9022303
:10198000FEF77CFD22462B46FEF778FD02460B460D
:10199000DDE90001FEF772FDBAF1000F40DA01F156
:1019A0000043194605B0BDE8F08F6C4A93420646E5
:1019B00021F0004737D8A2F55022934200F2D88098
:1019C00002463B463946FEF75BFD654B0022FEF7BB
:1019D00055FD002204460D464FF0804330463946FF
:1019E000FEF74EFD02460B4620462946FFF728F833
:1019F0004DA4D4E90034CDE902344DA3D3E900234A
:101A00000446CDE900230D464FF0000B39E70028CE
:101A10003FF417AF22462B4620462946FEF730FDFD
:101A200005B0BDE8F08F4F4A934234D24E4B0022AE
:101A30003946FEF723FD4C4B04460D460022304646
:101A40003946FEF7D3FE464B0022FEF719FD02464B
:101A50000B4620462946FEF7F3FF37A4D4E90034AD
:101A6000CDE9023436A3D3E900230446CDE90023AF
:101A70000D464FF0020B04E733A1D1E90001FEF758
:101A8000FDFC05B0BDE8F08F20462946FEF7F6FCC8
:101A900005B0BDE8F08F02463B4634490020FEF712
:101AA000CFFF07A4D4E90034CDE9023406A3D3E97B
:101AB00000230446CDE900230D464FF0030BE0E67A
:101AC000075C143326A6913C182D4454FB21F93FA2
:101AD00011DA22E33AAD903FEB0D76244B7BA93F20
:101AE000513DD0A0660DB13F6E204CC5CD45B73FEE
:101AF000FF8300922449C23F0D5555555555D53F9A
:101B00002F6C6A2C44B4A2BF9AFDDE522DDEAD3F8D
:101B10006D9A74AFF2B0B33F711623FEC671BC3F2D
:101B2000C4EB98999999C93FE2652F227F2B7A3CA3
:101B30004FBB610567ACDD3FBDCBF07A8807703CD9
:101B40009BF681D20B73EF3F182D4454FB21F9BF54
:101B5000FFFF0F440000F07FFFFFDB3FFFFFF23F7E
:101B60000000F03F008003400000F83F0000F0BF9D
:101B7000154B00223946FEF781FC134B04460D46F7
:101B8000002230463946FEF77BFC02460B462046D3
:101B90002946FEF755FF08A4D4E90034CDE9023404
:101BA00007A3D3E900230446CDE900230D464FF0F7
:101BB000010B66E6AFF30080075C143326A6813C78
:101BC000182D4454FB21E93F0000F03F00000000C5
:101BD0002DE9F84F994653427F4F134329F0004EA9
:101BE0004EEAD373BB42904604460D463ED8464269
:101BF000064321F0004A4AEAD676BE4203468B46A7
:101C000034D809F1404606F5801616434FD04FEA06
:101C1000A97606F0020653EA0A0346EAD1762DD0E9
:101C200052EA0E0237D0BE4554D0BA4533D0AAEBA3
:101C30000E0ABAF1747F4FEA2A5357DB50A3D3E957
:101C4000002351A1D1E90001FEF71AFC012E68D052
:101C5000022E59D086B14EA3D3E90023FEF70EFC25
:101C60004DA3D3E90023FEF709FC05E022462B46ED
:101C700040464946FEF704FCBDE8F88F022E1AD014
:101C8000032EF9D146A3D3E9002347A1D1E90001EE
:101C9000FEF7F4FBF0E7BBF1000F41A3D3E900230B
:101CA00012DB39A1D1E90001FEF7EAFBE4E7BDE868
:101CB000F84FFFF7B5BD3AA3D3E9002336A1D1E928
:101CC0000001FEF7DDFBD7E739A1D1E90001FEF7FE
:101CD000D5FBD1E7F24528D0022EECD0032ED1D08F
:101CE000012E4FF0000034D00021C5E7B9F1000FFC
:101CF0002ADB42464B4620462946FEF7A1FE21F04C
:101D00000041FFF78DFDA1E721A3D3E90023FEF7F2
:101D1000B5FB02460B4620A1D1E90001FEF7AEFB60
:101D2000AAE701F100431946A6E7022E1CA3D3E956
:101D300000231DD0032E15D0012E0DD01EA1D1E9F8
:101D40000001FEF79DFB97E73C33D2DA002000212B
:101D50007CE74FF000418FE719A1D1E90001FEF7C0
:101D60008DFB89E718A1D1E90001FEF787FB83E726
:101D700017A1D1E90001FEF783FB7DE7AFF30080F7
:101D8000075C143326A6913C182D4454FB21F93FDF
:101D9000075C143326A6A13C182D4454FB210940AE
:101DA00059F3F8C21F6EA501182D4454FB2109C038
:101DB000182D4454FB21F9BF182D4454FB21E93F51
:101DC000182D4454FB21E9BFD221337F7CD902C0B6
:101DD000D221337F7CD902400000F07F08B5FFF7A5
:101DE00033FC074B18680BF040FB00F0F9FD00F0E6
:101DF0001DFB4FF49670002109F070F9EFE700BF6A
:101E0000A80900200023032B0DD803EB4302074948
:101E100031F81220824201D00133F4E703EB43038F
:101E200001EB430070470020704700BF20140108F9
:101E3000FF2805D008B5034B1B6803B1984708BDC0
:101E4000704700BF6008002010B5044C23689878E4
:101E5000FFF7EEFF0023236010BD00BF5C080020E9
:101E600008B5034B1B681879FFF7E2FF08BD00BFF8
:101E70005808002038B58568C088FFF7C3FF0028E0
:101E800042D00446012D3CD1204B1B6883421AD01E
:101E9000E378FF2B31D01E4D284607F0D3FD1B4BB6
:101EA0001C604FF47A620023284607F031FD237945
:101EB000FF2B29D0174B1C604FF4FA520023164811
:101EC00007F026FD20E0124807F0BCFD0028DFD116
:101ED000114807F0B7FD0D4B00221A60E078FFF7BC
:101EE000A7FF2379FF2B0FD00A4B1C604FF4FA5247
:101EF0000023094807F00CFD06E0A078FFF798FFE3
:101F0000D5E7054807F09EFD38BD00BF5C080020FE
:101F10002004002058080020F003002008B50549DF
:101F2000054807F03FFC0549054807F03BFC002049
:101F300008BD00BF491E000820040020611E0008E3
:101F4000F0030020014B1860704700BF60080020BC
:101F500090F82530064AA2FB031202F0FC0101EBC7
:101F600092029B1ADBB2034A52F82300704700BF6B
:101F7000CDCCCCCC5448010808B5054801F02EFD65
:101F80000448FFF7DFFF044B01221A70002008BD50
:101F90005410010835220008B91C002000B583B098
:101FA0000B468DF8042000228DF80520024601A979
:101FB00002480CF0CAF903B05DF804FB54100108A4
:101FC0002DE9F0410646384C0021204601F0F8FC8E
:101FD00000231A46316820460CF0B7F93469002313
:101FE00002E064690133DBB2727E9A4201D9002CAF
:101FF000F7D130460AF0FCFF8046002719E02B4657
:1020000000222A4928480CF0A0F925E020460AF0D1
:1020100074FF58B32B460E22254923480CF095F93E
:102020002B462022216820480CF08FF96469013783
:10203000FFB214B3022F20D83D01EDB21235EDB23C
:10204000737E3B44DBB2327E9A42D8D02B460022CC
:10205000184915480CF079F92369002BD6D02B4686
:102060000E22154910480CF070F9D9E72B460E22C4
:1020700012490D480CF069F9D2E7B8F1030F05D900
:10208000737E2BB9737E0333434507DBBDE8F081D4
:102090005E2212217820FFF781FFF3E776223221BA
:1020A0007820FFF77BFFF1E754100108381401088E
:1020B000441401083C1401084014010848140108A4
:1020C0002DE9F04782B08046894617461D4600211B
:1020D0001046FEF7D1FF40B9BA465046FEF7F4FF6E
:1020E00006464FF0000C012407E007F1004AF4E730
:1020F00004EB840464000CF1010CAC45F8DB3046C1
:10210000FEF718FF01465046FEF75EFE8246204667
:10211000FEF710FF01465046FEF7F8F84FF07C51ED
:10212000FEF754FEFEF7D0FF8246844202DC013601
:10213000A0EB040A00213846FEF79EFF58B9CDF8FF
:1021400004A000953346094A494640460AF05AF829
:1021500002B0BDE8F087CDF804A000953346044AEC
:10216000494640460AF04EF8F2E700BF581401080D
:102170004C140108F8B50C46154690F8243043B9C4
:10218000C26932B11368154A294620460AF03AF866
:1021900006E0012B05D02D23237063700023A3706C
:1021A000F8BD036A002BF6D01E683046FEF78CFFA0
:1021B0000746FEF7BFFE3146FEF754FF30B13B46FF
:1021C000064A294620460AF01DF8E9E7022332466E
:1021D00029462046FFF774FFE2E700BF60140108BC
:1021E00010B4044608460A600B71019B8B60CC60FA
:1021F00000230B614B610B764B76CB610B6281F850
:102200002430012281F825208B62CB6234B123690E
:102210004BB11A465B69002BFBD15061044B1B6824
:102220001BB110BC70472161F8E7014B1860F8E75B
:102230008408002010B5704B1C68002C00F0D3807F
:10224000052800F2D080DFE810F0340006006200BC
:102250009100B300CA00694B1B781BB120460AF0FD
:102260004CFEF8B92369002B00F0BD8020460AF02F
:10227000BFFE002800F0B780237E013393FBF0F10E
:1022800000FB1133DBB22376627E02329A4201DA1E
:102290009A1E6276627E934200D26376584B012288
:1022A0001A70A0E020460AF06EFE554B01221A700B
:1022B00099E0524B1B781BB120460AF01EFEE0B994
:1022C0002369002B00F08F8020460AF091FE002841
:1022D00000F08980237EBBB9421ED3B22376627E92
:1022E0009A4200D96376627E02329A4201DA023B58
:1022F0006376434B01221A7075E020460AF00EFE09
:102300003F4B01221A706EE0013BDBB2E6E7226927
:10231000F2B1002302E052690133DBB2217E99421F
:1023200001D9002AF7D1002A5DD0364B1B68062B55
:1023300005DC013333490B60334941F823402E4B10
:102340001A602E4B00221A702D4B01221A704AE09F
:1023500020460AF0D2FD002845D0284A137883F0A1
:1023600001031370264B01221A703CE0234B1B78AB
:1023700033B1224B00221A70214B01221A7032E035
:10238000204B1B68002B0BDB591E1E4A11601E4A96
:1023900052F82320184B1A60194B01221A7022E0C0
:1023A000E36803B3144A1360154B01221A701AE054
:1023B000124B1B78BBB120460AF09FFD98B194F8F0
:1023C00025200132114B83FB02135B1003EB8303C7
:1023D000D31A84F825300A4B01221A7003E02046F4
:1023E0000AF08BFD00B910BD20460AF00AFE044B2E
:1023F00001221A70F7E700BF84080020B81C0020F3
:10240000B91C00203003002064080020676666665F
:1024100018B1044A1268824200D07047024B012270
:102420001A70FAE784080020B91C00203F4B1B7883
:10243000002B7AD03E4B1B68002B76D030B58BB08A
:1024400000213A4B19703B4801F0A2FA384B18684A
:10245000036933B1FFF7B4FD364801F03BFA0BB026
:1024600030BD8368002B3ED09847314B18680AF086
:1024700044FD0028F0D02F4C0021204601F0A0FAA6
:1024800005AD142229462A4B1868FFF773FE302346
:102490000022294620460BF058FF274B1B78002BC3
:1024A0003CD0234B1868FFF753FD0446FEF70CFEA3
:1024B0000546FEF73FFD2146FEF7D4FD08B32B4647
:1024C0001E4A0C2102A809F09DFE1A4C30233C2222
:1024D00002A920460BF039FF302364221849204618
:1024E0000BF033FFB8E7134C0021204601F068FAE7
:1024F0000F4B196818230022096820460BF025FFAE
:10250000B3E70223224608216846FFF7D9FD6B4650
:102510000C4A0C2102A809F075FED6E730234822A8
:10252000094904480BF011FF96E77047B91C0020D9
:102530008408002054100108B81C0020641401080D
:10254000741401086C1401087C14010870B582B081
:102550001C4D0024009423461B4A29462046FFF7C1
:102560003FFE1A4E00942346194A31462846FFF78B
:1025700037FE184B00930123174A18492846FFF7E6
:102580002FFE174B1860174B00930123164A17496B
:102590002846FFF725FE164B1860164D164B009384
:1025A0000123164A29463046FFF71AFE144BEB6109
:1025B00085F82440AC626423EB6232232B6320460F
:1025C00002B070BD70090020841401083809002091
:1025D0008C140108F926000894140108C80800208A
:1025E000C4080020252600089C1401088C0800203F
:1025F000880800200009002005260008A41401080E
:102600003403002038B50446054D0021284601F06A
:10261000D7F900231A46216828460BF096FE38BDEC
:1026200054100108F0B593B004462F4D01212846FF
:1026300001F0C6F900231A46216828460BF085FEF2
:102640000021284601F0BCF968460024009401945A
:10265000029403940494059400F094FDDDE90001D4
:10266000FEF75EFB02460EAF02231021384600F053
:1026700097FD06AE3B461D4A2021304609F0C2FDBB
:1026800014232246314628460BF05FFEDDE90201A5
:10269000FEF746FB024602231021384600F080FD7B
:1026A0003B46134A2021304609F0ACFD142340225A
:1026B000314628460BF049FEDDE90401FEF730FB08
:1026C000024602231021384600F06AFD3B46094AC3
:1026D0002021304609F096FD1E2322463146284629
:1026E0000BF033FE13B0F0BD54100108AC14010818
:1026F000B8140108C01401082DE9F04192B0044655
:10270000504F0021384601F05BF900231A4621683A
:1027100038460BF01AFE00260096019602960396A4
:10272000049605966846FEF7DFFEDDE90001FEF738
:10273000F7FA02460EAD02231021284600F030FDC4
:1027400006AC2B46404A2021204609F05BFD0A23B7
:102750003246214638460BF0F8FDDDE90201FEF76E
:10276000DFFA024602231021284600F019FD2B460D
:10277000364A2021204609F045FD0A234022214601
:1027800038460BF0E2FDDDE90401FEF7C9FA024626
:1027900002231021284600F003FD2B462C4A20215D
:1027A000204609F02FFD14233246214638460BF00F
:1027B000CCFD6846FEF7F0FEDDE90001FEF7B0FA59
:1027C000024602231021284600F0EAFC2B46214A4B
:1027D0002021204609F016FD1423402221463846C8
:1027E0000BF0B3FDDDE90201FEF79AFA024602237F
:1027F0001021284600F0D4FC2B46174A2021204601
:1028000009F000FD1E233246214638460BF09DFD9F
:10281000DDE90401FEF784FA02460223102128466E
:1028200000F0BEFC2B460D4A2021204609F0EAFCB0
:102830001E234022214638460BF087FD12B0BDE82A
:10284000F08100BF54100108C8140108D014010819
:10285000D8140108E0140108E8140108F014010874
:10286000034668B179B1106880B1906888B1596049
:102870009A600020187398735873074A1A6070475B
:102880004FF0FF3070474FF0FF3070474FF0FF3090
:1028900070474FF0FF3070479450010808B5064A62
:1028A00006490748FFF7DCFF18B9064B044A1A60CF
:1028B00008BD4FF0FF30FBE7C4500108AC09002011
:1028C00008100020A809002010B5064C002211466F
:1028D00020680AF084FD1422012120680AF07FFD9F
:1028E000002010BDA8090020C2788B1F9A4241D158
:1028F00000B583B000231A469E4608E010F803C0D6
:10290000F4445FFA8CFE7244D2B20133DBB2A1F11F
:10291000020C6345F2DB10F80C30734516D1013917
:10292000435C934212D1837873B9ADF804308DF8CB
:102930000630037953B9437943B9837933B90E4BE0
:1029400018680AF0A3FD01E0E02B02D003B05DF8A7
:1029500004FB01A90023ADF804308B7083788DF857
:1029600004308DF805E08DF80620034B18680AF056
:1029700025FDEBE7704700BFA809002070B582B0C5
:102980000C46154638B101281BD10B785A1C0A7029
:102990000122EA5415E001AE0023ADF804308DF8B1
:1029A00006303146084B18680AF03DFD2378EA18D6
:1029B000BDF804009DF80610E852917023780333A7
:1029C000237002B070BD00BFA809002008B50A46F8
:1029D0000146024B18680AF06AFD08BD1810002075
:1029E00010B5064C20680AF02FFD002120680AF07F
:1029F00009FDE02120680AF005FD10BDA8090020AE
:102A000010B550B1836815498B4216D214498B42D8
:102A100013D31B6C03B1984710BD124C40F25B13EB
:102A20002246114911480BF025F811480BF022F805
:102A300040F25B1120460BF014F80A4C40F25B1395
:102A400022460C4909480BF015F80B490B480BF0CE
:102A500011F840F25B1120460BF003F8A4130108B3
:102A600040130108F8140108381501084C15010835
:102A70006C15010880150108C0160108C816010868
:102A800010B550B1836815498B4216D214498B4258
:102A900013D35B6B03B1984710BD124C40F2311356
:102AA0002246114911480AF0E5FF11480AF0E2FFF9
:102AB00040F2311120460AF0D4FF0A4C40F23113A3
:102AC00022460C4909480AF0D5FF0B490B480AF089
:102AD000D1FF40F2311120460AF0C3FFA4130108D0
:102AE00040130108F8140108381501084C150108B5
:102AF0006C15010880150108C0160108C8160108E8
:102B000010B550B1836815498B4216D214498B42D7
:102B100013D3DB6D03B1984710BD124C4FF4DE7335
:102B20002246114911480AF0A5FF11480AF0A2FFF8
:102B30004FF4DE7120460AF094FF0A4C4FF4DE7326
:102B400022460C4909480AF095FF0B490B480AF048
:102B500091FF4FF4DE7120460AF083FFA4130108B1
:102B600040130108F8140108381501084C15010834
:102B70006C15010880150108C0160108C816010867
:102B800010B550B1836817498B4216D216498B4253
:102B900013D3DB6B13B3984710BD144C40F24B13A7
:102BA0002246134913480AF065FF13480AF062FFF2
:102BB00040F24B1120460AF054FF0C4C40F24B13EC
:102BC00022460E490B480AF055FF0D490D480AF000
:102BD00051FF40F24B1120460AF043FF6FF05700BF
:102BE000DAE700BFA413010840130108F814010834
:102BF000381501084C1501086C15010880150108ED
:102C0000C0160108C816010810B560B18446836873
:102C10001548834215D21548834212D3DB6AFBB1B3
:102C20006046984710BD124CE923224611491248CC
:102C30000AF020FF11480AF01DFFE92120460AF0A2
:102C400010FF0B4CE92322460D490B480AF012FFF6
:102C50000C490D480AF00EFFE92120460AF001FF59
:102C60006FF05700DEE700BFA4130108401301080E
:102C7000F8140108381501084C1501086C150108F5
:102C800080150108C0160108C816010810B550B11A
:102C9000836815498B4216D214498B4213D39B6B20
:102CA00003B1984710BD124C4FF49F73224611494F
:102CB00011480AF0DFFE11480AF0DCFE4FF49F7164
:102CC00020460AF0CEFE0A4C4FF49F7322460C4970
:102CD00009480AF0CFFE0B490B480AF0CBFE4FF42F
:102CE0009F7120460AF0BDFEA4130108401301089D
:102CF000F8140108381501084C1501086C15010875
:102D000080150108C0160108C816010810B550B199
:102D1000836817498B4216D216498B4213D3DB6C5A
:102D200013B3984710BD144C4FF4C2732246134995
:102D300013480AF09FFE13480AF09CFE4FF4C2713C
:102D400020460AF08EFE0C4C4FF4C27322460E4908
:102D50000B480AF08FFE0D490D480AF08BFE4FF428
:102D6000C27120460AF07DFE6FF05700DAE700BF1F
:102D7000A413010840130108F814010838150108CC
:102D80004C1501086C15010880150108C0160108D2
:102D9000C816010810B560B184468368174883429D
:102DA00017D21748834214D31B6B1BB36046984756
:102DB00010BD144C40F20D132246134913480AF07B
:102DC00059FE13480AF056FE40F20D1120460AF053
:102DD00048FE0C4C40F20D1322460E490B480AF0F7
:102DE00049FE0D490D480AF045FE40F20D112046FE
:102DF0000AF037FE6FF05700DAE700BFA4130108AE
:102E000040130108F8140108381501084C15010891
:102E10006C15010880150108C0160108C8160108C4
:102E200038B578B1B0FA80F464098368194DAB42C3
:102E30001BD2194DAB4218D3A3B11B6E33B39847C5
:102E4000204638BD154C4FF4E4732246144915480A
:102E50000AF010FE14480AF00DFE4FF4E47120460B
:102E60000AF0FFFD6FF05704EAE70C4C4FF4E473EF
:102E700022460E490B480AF0FDFD0D490D480AF0A7
:102E8000F9FD4FF4E47120460AF0EBFD6FF05704B2
:102E9000D6E700BFA413010840130108F814010885
:102EA000381501084C1501086C150108801501083A
:102EB000C0160108C816010810B50C4641608260B2
:102EC000C36000230374044B036002460349206877
:102ED000FFF7A6FF10BD00BFDC50010837D5000882
:102EE00008B5164B1B68164A126816491648FFF7B4
:102EF000E3FF034608B1184608BD144B1B68144A8B
:102F0000126814491448FFF7D7FF03460028F2D18E
:102F10000D48124B1860124B0F4A1A604FF47A7129
:102F20000AF0D0FA03460028E5D14FF47A710C4B31
:102F300018680AF0C7FA0346DDE700BF80140020D6
:102F400084140020E85001083410002048100020AC
:102F50004C100020E45001081C100020301000200C
:102F600018100020B1F5004F09D201610260002362
:102F70000381C3808380C38183814381704710B5FF
:102F8000064CC3232246064906480AF073FD06484C
:102F90000AF070FDC32120460AF063FDE016010827
:102FA000141701084C1501082C17010810B5154C11
:102FB000154B4FF40072154920460AF0F3FA144BF2
:102FC0001C60144C144B4FF40072144920460AF054
:102FD000E9FA134B1C60134C134B4FF40072134966
:102FE00020460AF0DFFA124B1C60124C124B4FF4D1
:102FF0000072124920460AF0D5FA114B1C600020DD
:1030000010BD00BFA018002064170108881600201A
:1030100084140020881800206C17010888140020F0
:103020008014002050140020741701085010002054
:1030300048100020681400207C170108501200205E
:103040004C10002008B50548054B18600DF0FAFC3F
:1030500008B1002008BD6FF01200FBE78C100108DA
:10306000B818002010B550B1836815498B4216D2AC
:1030700014498B4213D3DB684E21984710BD124C84
:1030800040F2B7332246114911480AF0F3FC1148C7
:103090000AF0F0FC40F2B73120460AF0E2FC0A4C9C
:1030A00040F2B73322460C4909480AF0E3FC0B49C9
:1030B0000B480AF0DFFC40F2B73120460AF0D1FCA1
:1030C000F0120108D412010884170108381501080C
:1030D0004C1501086C150108B817010804190108FE
:1030E000C816010810B558B1844683681548834254
:1030F00016D21548834213D31B696046984710BD0A
:10310000124C40F2F5332246114912480AF0B2FC43
:1031100011480AF0AFFC40F2F53120460AF0A1FC5C
:103120000A4C40F2F53322460C490A480AF0A2FC48
:103130000B490C480AF09EFC40F2F53120460AF09B
:1031400090FC00BFF0120108D41201088417010896
:10315000381501084C1501086C150108B81701084D
:1031600004190108C816010808B5044B1868FFF7D0
:103170004FF9034B1868FFF775FF08BDC40800201E
:10318000B818002010B48446044C0FCCACE80F00F3
:1031900094E803008CE8030010BC70475004002042
:1031A000002800F086802DE9F04385B00F46914657
:1031B0001C46064601297FD9062B00D9062400218A
:1031C0004846FDF759FF60B9002500234FF001087C
:1031D0009C420CD908EB88084FEA48080133DBB25F
:1031E000F6E72D23337009F100490125EDE740464C
:1031F000FDF79CFE4946FDF789F84FF07C51FDF73D
:10320000E5FDFDF787FF0346B0FBF8F008FB103142
:1032100098451CD930238DF8003001225319BB4248
:103220004DD2531E1DE02A4BA3FB00C3DB089C4676
:1032300003EB8303A0EB4303303302F11000684437
:1032400000F8103C604601320028ECD1E6E700228D
:10325000FAE703F110026A4412F8102C7255013B90
:103260000135002BF5DAF4B1013FAF422AD92E2304
:103270007355631E013510E002EB820252000CF11F
:10328000010C6345F8DCB1FBF2F002FB1011AF4218
:103290001BD930307055013B0135002B03DB4FF05B
:1032A000000C0122EDE700237355284605B0BDE868
:1032B000F0834FF0FF3070474FF0FF30F6E74FF0EC
:1032C000FF30F3E74FF0FF30F0E74FF0FF30EDE76E
:1032D000CDCCCCCC70B5B2F5802F31D20346042AC8
:1032E0003ED9043AC81D20F007000A4422F0070224
:1032F000121AD608172A43D9186086600023C360C3
:10330000B6FA86F1C1F1200EC1F12405AD000735F2
:10331000E9084B1CB34294BF00230123002B45D086
:10332000354C40F233332246344935480AF0A2FB8B
:1033300034480AF09FFB40F2333120460AF091FBFB
:103340002D4C40F20A3322462F492D480AF092FBB9
:103350002E480AF08FFB40F20A3120460AF081FB2A
:10336000254C40F211332246294925480AF082FBB8
:1033700024480AF07FFB40F2113120460AF071FB2D
:103380001D4C40F21D33224622491D480AF072FBB3
:103390001C480AF06FFB40F21D3120460AF061FB29
:1033A00003F1040C002440F82C4001337345F7DB93
:1033B0001FFA81FC4FEA4C039BB243800024048037
:1033C00043F001034380731A25F00705AE1C9BB23E
:1033D0004FEA430E20F806E020F805C022F007056A
:1033E000961C845302444353538843F00103538093
:1033F0000AF09CFA70BD00BF0C190108081A0108F8
:103400004C150108C01901086C190108841901083C
:103410009C190108DC19010808B502480AF013FBE1
:10342000002008BD341A010808B5024B1B689847F4
:1034300008BD00BF38030020014B1860704700BF73
:103440003803002000B585B084460A46684600234C
:10345000009301930293039302238DF80230044BEF
:103460000193614608F080FF05B05DF804FB00BFE2
:10347000293400082DE9F04182B080460E461546F9
:1034800000272A4601A940460AF023FB044640B122
:10349000024631460198FCF79FFE274426442D1B27
:1034A000EFD13A4608F1040140460AF037FB18B95B
:1034B000384602B0BDE8F081054C49232246054953
:1034C00005480AF0D7FA492120460AF0CAFA00BF97
:1034D000701A01089C1A01084C1501082DE9F041E9
:1034E00082B080460E461546002702E027442D1B79
:1034F0000FD02A4601A940460AF0FEFA044640B120
:10350000002EF3D0024601993046FCF765FE2644B2
:10351000ECE73A4608F10A0140460AF0FFFA18B90A
:10352000384602B0BDE8F081054C642322460549C7
:1035300005480AF09FFA642120460AF092FA00BF7B
:10354000701A01089C1A01084C150108034A5368B7
:1035500043F0020353600020704700BF002004E0E6
:1035600008B502490AF0FBFA08BD00BF7936000829
:1035700010B560B1024683681548834215D21548DC
:10358000834212D31B68FBB11046984710BD124C02
:10359000B6232246114912480AF06CFA11480AF083
:1035A00069FAB62120460AF05CFA0B4CB623224693
:1035B0000D490B480AF05EFA0C490D480AF05AFA18
:1035C000B62120460AF04DFA6FF05700DEE700BF43
:1035D0000C130108F0120108A81A01083815010897
:1035E0004C1501086C150108E41A0108601C01085B
:1035F000C816010810B560B10246836815488342B9
:1036000015D21548834212D35B68FBB11046984728
:1036100010BD124CCC232246114912480AF02AFA56
:1036200011480AF027FACC2120460AF01AFA0B4C6E
:10363000CC2322460D490B480AF01CFA0C490D48D0
:103640000AF018FACC2120460AF00BFA6FF0570066
:10365000DEE700BF0C130108F0120108A81A0108E8
:10366000381501084C1501086C150108E41A010809
:10367000601C0108C816010808B50B4641680C31EA
:10368000012B11D007D81BB90948FFF7B3FF0EE093
:103690006FF085000BE0023BDBB2012B01D800206C
:1036A00005E06FF0850002E00148FFF761FF08BD0B
:1036B000780E010810B5082808D8064B53F82040AA
:1036C00020460DF0BFF918B1204610BD0024FBE7DD
:1036D0000024F9E7A0510108084B1A6842F48072EF
:1036E0001A601A6842F400721A601A6842F4806222
:1036F0001A60034B034A1A60704700BF003C024047
:103700006C0300200024F400014B0360002070478C
:10371000C451010870B544798C4279D990F806C03B
:10372000944577D92346644528BF6346022B03D9C5
:103730009D1EC5F3470500E000253748A0FB0303A5
:10374000DB08AB4228BF2B46E01AC0B2ACEB030C3F
:103750005FFA8CFC5D1CA84204D9C41A013CC4F376
:10376000470400E00124654505D2ACEB0305013DAB
:10377000C5F3470500E00125A0EB030EACEB030603
:10378000B645A8BFB646244EA6FB0E6E4FEADE0E27
:10379000BEF1010F38BF4FF0010EAC4228BF2C46DE
:1037A000A64528BFA646994207D3814211D29A4224
:1037B00011D3624511D3002400E000245FFA8EFE8D
:1037C000734499420BDBA0EB0E00814210DB012118
:1037D00006E00024F2E70024F0E70124EEE70121EF
:1037E000934207DCACEB0E0C624509DB012302E0DF
:1037F0000021F5E701232CB131B93BB9002008E0E5
:103800000023F8E7002004E0012002E0012000E0AE
:10381000002070BD0020FCE7CDCCCCCC2DE9F04FD2
:1038200083B01E469DF83080294B9F68002F49D0F9
:10383000894614461B68002B47D0254B9B7D03EB24
:10384000430307EB83070846FCF75AFC8246002532
:1038500014E01F4B9B7B13F0010F1FD01C4890F905
:1038600017B0A4B219F80510CDF80080B3B2224603
:103870000AF0B1FC83445C4424B2013555451DD2A5
:103880007A792244124B1B8A9A42E2DDB8F1000F8A
:10389000DFD0BB7933441EB20024DAE70C4890F93C
:1038A00017B0A4B219F80510CDF80080B3B22246C3
:1038B0000AF0B1FC83445C4424B2DEE7002003B08C
:1038C000BDE8F08F6FF01200F9E76FF01200F6E735
:1038D0004C19002070B586B08568274B9D4229D2CF
:1038E0000446264B9D4225D3254B196800293FD01D
:1038F0000023039304930593214B5A6803921A8A79
:10390000ADF81020588AADF81200ADF814209A894D
:10391000042A14BF002201221B7E9A4217D1AD68EF
:10392000009103AB002211462046A84704462046DA
:1039300006B070BD134C40F2C7232246124913480B
:103940000AF098F840F2C72120460AF08AF80C4E97
:1039500030460AF0EAFCAD683368009303AB0022FE
:1039600011462046A847044630460AF0DEFCDEE752
:103970006FF01204DBE700BF401301080C130108CD
:103980004C190020001D0108241D01084C150108D8
:1039900038B50546094B186860B10C465A680021D5
:1039A00008F0C6FB0CB9002038BD2846FFF792FF8F
:1039B0000020F9E76FF01200F6E700BF4C19002075
:1039C000054B5B7D8B4203D9034B997500207047F3
:1039D0006FF01500704700BF4C19002010B584B07F
:1039E0008368254A934236D2244A934233D31B6AD2
:1039F00069469847224C234A121B234BA3FB0232F1
:103A0000D208224B5A75BDF800001882BDF802108A
:103A1000598208221A75BDF80C209A819DF8082059
:103A20009A730022DA751A769C609A7501FB00F091
:103A300090420EDBC010154C606008F03BFB20602C
:103A4000B0B1124B5A68002108F072FB002004B09C
:103A500010BD0730EEE70E4C40F22D3322460D49E3
:103A60000D480AF007F840F22D31204609F0F9FF21
:103A70006FF00B00EBE700BF401301080C130108C7
:103A8000B0130108C8130108ABAAAAAA4C19002058
:103A9000001D0108241D01084C15010810B50C4B30
:103AA0001B78012B04D100F011FD0A4B185810BDF2
:103AB000094C40F28F3322460849094809F0DAFFE1
:103AC000084809F0D7FF40F28F31204609F0C9FFBE
:103AD000BB1C002008000000781E0108A41E01087D
:103AE0004C150108B81E010880B504460D4616465F
:103AF0001F4607F033FC024600F0E8FC044B1A5066
:103B00003A4631462846A047FFF7C8FF00F06AFC56
:103B10000800000008B50348034A121A00210AF001
:103B20001CFC08BDF0030020BC1C002008B50648A2
:103B3000064A121A06490AF014FC0648064A121AE6
:103B400006490AF00EFC08BD00000020EC0300202E
:103B50009455010800000020000000209455010841
:103B600010B50446836842680168094809F06BFF94
:103B700063692269E168074809F065FFE169064861
:103B800009F061FFA169054809F05DFF10BD00BFA4
:103B9000DC1E01080C1F01083C1F01084C1F010816
:103BA00038B504460D4611B10846FFF7D9FF012C80
:103BB00004D02946204604F09FFA38BDEFF3058172
:103BC0001039024809F03FFFF3E700BF7C1F0108EE
:103BD00030BFFFF7FDBF00BF38B50446054D2A468C
:103BE0000549FCF7F9FA054A0021601908F0A0FA26
:103BF00038BD00BF00000000C81301080400000029
:103C000070B50646054D064B1D444C1B2046FFF77C
:103C1000E3FF083C346705F1080070BD00000000B8
:103C2000040000008169104B5A6942F480725A61A5
:103C3000BFF34F8FBFF36F8F31F8021C5A6922F424
:103C400080725A61BFF34F8FBFF36F8F01F47F43D0
:103C5000B3F55F4F01D000207047C9B2022901D0EF
:103C6000002070470120704700ED00E008B54FF0DC
:103C7000000C83F800C0DDF808E08EF800C002F008
:103C80007F4CBCF17F4F11D102F00C0CBCF1080F3E
:103C900004D012F0080F06D0084608BD044809F009
:103CA000D2FE0020F9E701221A70F6E70020F4E7BF
:103CB000901F0108F8B505460F4614462F4809F035
:103CC000C2FE2F4B9B6A13F4805F25D116262C4B26
:103CD0009B6A13F4006F24D1294B9B6A13F4007F75
:103CE00024D1274B9B6A13F4806F37D1244B9B6AF6
:103CF00013F4807F37D1224B9B6A13F4005F37D1D6
:103D00001F4A936A43F47F439362012128460AF0D5
:103D100038FB20703046F8BD1A4809F094FE17268B
:103D2000D5E7194809F08FFE1826D5E7174809F09E
:103D30008AFE134B996B9B6A13F4004F01D119262D
:103D4000CFE7134809F07FFE37B10D4A936A23F499
:103D5000004393621926C4E71926C2E70D4809F00B
:103D600072FE1A26C2E70C4809F06DFE1B26C7E753
:103D70000A4809F068FE1C26C2E700BFBC1F010804
:103D800000ED00E0D41F0108E81F0108FC1F010836
:103D900018200108302001084C2001086820010883
:103DA00008B5244809F04FFE234B9B6A13F0007FAF
:103DB00021D11D20204B9B6A13F0807F20D11E4B08
:103DC0009B6A13F4002F20D11B4B9B6A13F4802FA6
:103DD00020D1194B9B6A13F4003F20D1164B9B6AEC
:103DE00013F4803F20D1144A936A6FEA03436FEAC9
:103DF0001343936208BD114809F025FE1E20D9E740
:103E00000F4809F020FE1F20D9E70E4809F01BFEDD
:103E10002120D9E70C4809F016FE2220D9E70B48EB
:103E200009F011FE2320D9E7094809F00CFE2420EF
:103E3000D9E700BF9820010800ED00E0B420010898
:103E4000C8200108E4200108042101082C210108F0
:103E50004821010808B500230B70024809F0F3FD62
:103E600008BD00BF7421010808B50A460F2905DC0A
:103E70000349103A034809F0E6FD08BD0249F8E796
:103E80009C210108D0210108B42101082DE9F0414D
:103E900004460F461546494809F0D5FD484B9B6A34
:103EA00013F0100F3CD11026454B9B6A13F0080FFE
:103EB0003BD1434B9B6A13F0020F3BD16FF01508C7
:103EC0003F4B9B6A13F0010F50D13D4B9B6A13F09F
:103ED000200F50D13A4B9B6A13F0100F04D1384B8E
:103EE0009B6A13F0020F04D0354B5B6813F4006F2C
:103EF00046D1334B9B6A13F0200F04D0304A536AEB
:103F000023F4005353622E4A936A43F0FF039362F3
:103F1000012120460AF035FA28703046BDE8F081CC
:103F2000284809F090FD1126BEE7274809F08BFDCF
:103F30001226BEE7254809F086FD214BD3F83480D0
:103F40009B6A13F0800F03D16FF015081326B7E7B3
:103F500041461F4809F077FD37B1194A936A23F0AB
:103F6000800393621326ABE71326A9E7194809F0EB
:103F70006AFD1426A9E7184809F065FD1526A9E78A
:103F8000214640460AF034FAA0B90D4B9B6A13F063
:103F9000100FAED0114C4FF49873224610491148BF
:103FA00009F068FD104809F065FD4FF4987120464E
:103FB00009F057FD80F3098802269AE7E4210108F9
:103FC00000ED00E0FC210108E81F01083022010893
:103FD0004C2201086422010868200108842201089B
:103FE000B82201084C1501080423010870B50646E3
:103FF0000D46364809F027FD00232B70344BDC6A50
:1040000014F0020423D1324BDB6A002B25DB304B4A
:10401000DB6A13F0804F48D02E4809F014FD30467B
:10402000FFF700FEE8B92A4B9B6A13F0FF0F1ED181
:10403000274B9B6A13F47F4F20D1254B9B6AB3F526
:10404000803F22D33046FFF7ABFE044603E0224810
:1040500009F0F9FC0024204670BD204809F0F3FC6B
:10406000F9E731681E4809F0EEFC3468F3E72A46A8
:1040700001213046FFF70AFF0446ECE72A460121FA
:104080003046FFF717FE0446E5E7164C40F20333CF
:1040900022461549154809F0EDFC154809F0EAFCDF
:1040A00040F20331204609F0DCFC0E4C40F20633AE
:1040B00022460D490D4809F0DDFC0E4809F0DAFCF6
:1040C00040F20631204609F0CCFC00BF282301084D
:1040D00000ED00E074230108402301086423010877
:1040E0009423010884220108B42301084C15010817
:1040F000B8230108DC23010830B58FB0244B5D687C
:10410000C5F30805002383F31188BFF36F8F0BAB52
:1041100000930DF13603FFF7A9FD68B104469DF841
:104120002C300DF1370229460AF02DF905469DF88D
:1041300037304BB10FB030BD164809F084FC002178
:104140000846FFF72DFDF5E70DF10C0C20686168BE
:10415000A268E368ACE80F0020696169A269E369BD
:10416000ACE80F009DF836304BB10A9BC3F3080250
:104170004AB96FEA53236FEA43230A9303E00A9B89
:104180006FF308030A9303A92846FFF709FDD1E757
:1041900000ED00E00C240108044B5A6942F01002C3
:1041A0005A615A6922F008025A61704700ED00E036
:1041B000EFF30880EFF3098101B57246FFF79CFF2A
:1041C00001BD00BF0A4880F30888102080F31188E1
:1041D00008484FF40461401880F30988EFF3148015
:1041E0000221084380F31488BFF36F8F00F06AF850
:1041F000C02E0020002100201EF0040F0CBFEFF3A2
:104200000880EFF30980816911F8021C0229FFD0B0
:1042100001B572460AF0A9F801BD00BF002807DB0E
:1042200000F01F02400901239340024A42F8203067
:10423000704700BF00E100E0002808DB0901C9B2B7
:1042400000F1604000F5614080F80013704700F015
:104250000F000901C9B2014B1954704714ED00E079
:1042600070B505460C4601310F2903D840B2FFF75F
:10427000E3FF70BD084E6B2332460849084809F039
:10428000F9FB0F232A462146064809F0F3FB6B2170
:10429000304609F0E6FB00BF4C24010884240108E5
:1042A0004C150108A0240108044B23F07F03044AA5
:1042B0009360BFF34F8FBFF36F8F7047000000080C
:1042C00000ED00E008B5FFF7EFFF0B4AD2F88830A9
:1042D00023F47003C2F88830EFF3148323F004034F
:1042E00083F31488BFF36F8FFFF714FCFFF71EFCF6
:1042F00000F0C2F804F0AAF800ED00E00E4B9B6855
:10430000A3B110F1160F0AD01A6EA2F1400C844529
:104310000ED882420ED98A4206D8002070471A6E03
:104320008A4201D800207047186E704700207047FD
:104330000020704700207047601C002010B4A2F1DC
:1043400020040D4942F8081C21F0010142F8081C24
:1043500042F8203C019B42F81C3C029B42F8183C6E
:10436000039B42F8143C4FF0807342F8043C046510
:104370000023436710BC7047E93A000808B50E46B1
:1043800015460B4A9060026F0A4B1A6000F0B2F8B3
:104390002C4686F309880020034B984720460021CD
:1043A00000220023014C2047FFE30008E93A0008FF
:1043B000601C002068190020014B10221A61704710
:1043C00000ED00E0054B5A699B689A4204D0044A0C
:1043D000536843F080535360704700BF601C002057
:1043E00000ED00E008B50A4B9B68834202D005F05F
:1043F000B1FC08BDEFF30583002BF8D0054B5A68DC
:1044000042F080525A605A6A22F400425A62EEE741
:10441000601C002000ED00E014498A684FF0300075
:104420001044EFF3098C80E8F01F102080F312880D
:10443000BFF36F8F0E4F4FF000664A698A603E608F
:10444000106F0C4C2060506F0023536780F311886D
:1044500004B5104600F04EF8BDE8044002F130000B
:1044600090E8F01F8CF3098870470000601C002062
:1044700004ED00E068190020002206E003F00F03BD
:104480000949194410230B7601322F2A0ADC53B252
:10449000002BF3DB03F1604303F56143102183F844
:1044A0000013F1E7704700BFFCEC00E008B5EFF344
:1044B0000583103B044A02EBC301496852F83300FC
:1044C0008847FFF77FFF08BDA81001080148006872
:1044D000704700006819002008B5034B034A01210A
:1044E000034800F0A1F908BD0000022000000020F0
:1044F000C451010808B5036E403B054803604023E2
:104500004360044B8360012100F0B0F908BD00BF97
:104510006C19002000000B15084AC2F898000B68BF
:1045200023F01F03034343F01003C2F89C308B6851
:1045300043F00103C2F8A030704700BF00ED00E077
:10454000084BD3F89030C3F30723013B984205D8BA
:1045500010B50446FFF7E0FF204610BD6FF01500D0
:10456000704700BF00ED00E010B5034C0123227836
:1045700009F089FF207010BDBA1C002008B5002387
:104580000B4A127809F07FFF10F1160F0FD0024688
:1045900006E0084BC3F898200021C3F8A0100132B0
:1045A000044BD3F89030C3F307239342F1DC08BDEA
:1045B000BA1C002000ED00E0F0B585B0054603A868
:1045C000FFF7A2F80646002438E0B3F1007F00F0C0
:1045D000CC80B3F1805F00F0E580B3F1807F2CD117
:1045E000506851F80C109368202B40F2BA80B3F158
:1045F000004F00F2B880013BB3FA83F3C3F11F030D
:104600005B0003F03E0343F0885343F480130090B3
:104610000191029307E0082343F0885343F43023C9
:1046200000900191029369462878FFF789FF0028DE
:10463000C0F2D5802B7801332B700134B44280F066
:10464000D1804FEA041C039901EB0412D068030DDA
:104650001B05B3F5000F67D0B7D8B3F5001F19D00D
:10466000B3F5800F43D0B3F5801FE6D1506851F801
:104670000C109368202BCED9B3F1004F08D8013B22
:10468000B3FA83F3C3F11F035B0003F03E03C3E7F8
:104690003E23C1E7576851F80C109368202B22D9AC
:1046A000B3F1004F21D8013BB3FA83F3C3F11F03E9
:1046B0005B0003F03E0343F0885343F4002300976C
:1046C0000191029310F0010FADD0484C9523224682
:1046D0004749484809F0CEF9474809F0CBF99521F8
:1046E000204609F0BEF90823E5E73E23E3E75068DA
:1046F00051F80C109368202B12D9B3F1004F11D848
:10470000013BB3FA83F3C3F11F035B0003F03E03E5
:1047100043F0C06343F4003300900191029382E7B9
:104720000823F5E73E23F3E7506851F80C1093682F
:10473000202B12D9B3F1004F11D8013BB3FA83F308
:10474000C3F11F035B0003F03E0343F0885343F4BF
:10475000802300900191029365E70823F5E73E234B
:10476000F3E708234FE73E234DE7506851F80C105C
:104770009368202B12D9B3F1004F11D8013BB3FA43
:1047800083F3C3F11F035B0003F03E0343F0805348
:1047900043F4802300900191029344E70823F5E756
:1047A0003E23F3E7506851F80C109368202B12D980
:1047B000B3F1004F11D8013BB3FA83F3C3F11F03E8
:1047C0005B0003F03E0343F0885343F40033009052
:1047D0000191029327E70823F5E73E23F3E76FF003
:1047E000150000E0002005B0F0BD00BFE024010886
:1047F000102501084C15010838250108044B052235
:10480000C3F89420BFF34F8FBFF36F8F704700BF83
:1048100000ED00E0BFF35F8F024B0022C3F894204D
:10482000704700BF00ED00E038B50C46FFF79CFE76
:1048300010F1160F00D038BD084D40F271132A4612
:104840000749084809F016F92146074809F012F906
:1048500040F27111284609F004F900BFE024010874
:10486000B42301084C1501086825010838B50C4629
:10487000FFF784FE10F1160F00D038BD084D4FF43D
:10488000C8732A460749084809F0F4F82146074842
:1048900009F0F0F84FF4C871284609F0E2F800BFBB
:1048A000E0240108B42301084C15010894250108EF
:1048B00038B5394B1D68394BD3F89030C3F3072313
:1048C0009D4203D8FFF7A6FF00241FE0344C4FF4AD
:1048D000F57322463349344809F0CCF82F4BD3F80E
:1048E0009020C2F307222946304809F0C3F84FF45C
:1048F000F571204609F0B5F8274B5B6804EB4401DD
:1049000003EB81012046FFF707FE0134A542F3D8EF
:1049100027480570FFF750FE10F1160F10D0244BFA
:104920001A781E4BD3F89030C3F307239A4217DA54
:104930001A4BC3F898200021C3F8A0100132F0E709
:10494000174C40F22D2322461649174809F092F8D9
:10495000184809F08FF840F22D21204609F081F81F
:10496000FFF74CFF0D4BD3F8903003F47F43B3F5C2
:10497000006F01D1002038BD094C40F2752322465A
:104980000D49094809F076F80C4809F073F840F22F
:104990007521204609F065F8D051010800ED00E0CE
:1049A000E0240108B42301084C150108C4250108BE
:1049B000BA1C0020F82501082426010874260108E5
:1049C00008B5024B1B689847002008BD78190020E5
:1049D000034B1860034A937843F0020393707047C7
:1049E000781900203C03002008B5064921F0070192
:1049F000C1F1005202F500320348FEF76BFC0020C3
:104A000008BD00BF4B3C00207C19002010B50C4BAA
:104A10001B78012B04D1FFF759FD0A4B185810BD24
:104A2000094C40F28F3322460849094809F022F820
:104A3000084809F01FF840F28F31204609F011F8BC
:104A4000BB1C002008000000781E0108A41E0108FD
:104A50004C150108B81E010838B50546114C04E094
:104A60006368A168284698470C340F4B9C4209D8CC
:104A70000D4B9C4214D22368002BF1D02A6893423C
:104A8000F2D1EDE7094C162322460949094808F0FE
:104A9000F1FF094808F0EEFF1621204608F0E1FF7B
:104AA00038BD00BFA4130108B0130108A8260108EF
:104AB000D02601084C150108F826010800B585B07C
:104AC0004FF0FF324FF0FF3301A9044803F06AFEB4
:104AD0000028F5D101A8FFF7BFFFF1E7C0030020D0
:104AE00030B585B00A9D0B9C01909DF820008DF893
:104AF00008008DF80910ADF80A20039354EA050365
:104B000006D0FFF783FF094BD3F8803083420AD0E9
:104B10002A46234601A906480BF0AFFF002800DB18
:104B2000002005B030BD00252C46F1E71807002015
:104B3000C003002010B560B1024683681548834267
:104B400015D21548834212D31B68FBB11046984713
:104B500010BD124CB62322461149124808F08AFFB4
:104B6000114808F087FFB621204608F07AFF0B4C69
:104B7000B62322460D490B4808F07CFF0C490D482E
:104B800008F078FFB621204608F06BFF6FF0570061
:104B9000DEE700BF0C130108F0120108A81A010893
:104BA000381501084C1501086C150108E41A0108B4
:104BB000601C0108C816010800B583B0054A92E8D8
:104BC0000300CDE9000169460348FFF7B3FF03B0D6
:104BD0005DF804FBC8130108780E010800F01F02FD
:104BE000012393401F2806D8044A526993430CBFFF
:104BF0000120002070470020704700BF003C0140AA
:104C000000F01F02012393401F2803D8034A536179
:104C1000002070476FF01500704700BF003C014056
:104C2000002399420ADD10B400EB030C044C04F895
:104C30000C2001339942F7DC10BC7047704700BF6D
:104C40004C030020F8B50746002401E00134E4B22B
:104C50007B78A34217D93D7866193046FFF7BEFF2F
:104C60000028F3D03046FFF7CBFF074B53F8362030
:104C7000002AEBD006F01F0503EBC603596801209C
:104C8000A8409047E2E7F8BD8819002010B558B158
:104C90000346421E024207D1A0B923B3B3FA83F000
:104CA000C0F11F00C0B210BD104C60232246104955
:104CB000104808F0DFFE104808F0DCFE60212046B6
:104CC00008F0CFFEB0FA80F2C2F11F020F2AE4DD35
:104CD000064C612322460949064808F0CBFE6121B3
:104CE000204608F0BEFEFF20DDE700BF8427010854
:104CF000C82701084C150108002801082C280108C4
:104D00005FFA81FC0CF102020A4B53F822200B0CD3
:104D100022EA114193FAA3F34BB1B3FA83F398401B
:104D200001430CF1020C034A42F82C107047202377
:104D3000F5E700BF00380140C3B20233074A52F81A
:104D40002320030C02EA104093FAA3F31BB1B3FA39
:104D500083F3D84070472023FBE700BF00380140B1
:104D600010B50446FFF792FF044B1856044B1A681F
:104D700014431C6009F031FB10BD00BF4C03002040
:104D8000003C0140024A136823EA000313607047A5
:104D9000003C0140032927D8DFE801F0020C151E72
:104DA000184B9A6822EA00029A60DA6822EA000246
:104DB000DA607047134B9A6802439A60DA6822EA15
:104DC0000002DA6070470F4BDA680243DA609A68D3
:104DD00022EA00029A6070470A4B9A6802439A607E
:104DE000DA681043D860704710B5074C4FF48173F0
:104DF00022460649064808F03DFE4FF481712046E0
:104E000008F02FFE003C014084270108B42301086C
:104E10004C15010838B50C461546FFF737FF0C4B0B
:104E200053F83030A34208D07BB9094B43F83040E7
:104E300003EBC0035D60002038BD054A02EBC002F1
:104E40005268AA42F0D10020F6E76FF00F00F3E7B6
:104E50008819002008B5FFF719FF044B002243F81A
:104E6000302003EBC0035A6008BD00BF8819002042
:104E70000C4B1B6813F0020F09D10A4A136843F068
:104E800001031360074B1B6813F0020FFAD0054AA9
:104E9000936823F003039360024B9B6813F00C0F9D
:104EA000FAD17047003802400C4B1A6822F4802275
:104EB0001A601A6842F480321A60084B1B6813F4B7
:104EC000003FFAD0054A536F43F001035367034B89
:104ED0005B6F13F0020FFAD0704700BF003802403A
:104EE00039B133B1B0FBF1F000FB02F2B2FBF3F0E9
:104EF000704710B5054C472322460549054808F080
:104F0000B9FD4721204608F0ACFD00BFA8280108E4
:104F1000EC2801084C150108F8B50C461546434B22
:104F20001E680421304609F048FB0746022130463E
:104F300009F043FB2388C3F30B010B46442929D80E
:104F400009B2002969D0013B432B69D8DFE803F09F
:104F50003D53565A5D3F4968686868686868686884
:104F600068686868606368686868686868686868CE
:104F700068686868686868686868686868686835E4
:104F80006868683568686837686868686868683934
:104F90006868683BA8290DD12E602368B3F5805F4F
:104FA00041D32A68C3F313330133B2FBF3F22A600F
:104FB000002037E06FF0850034E02E60EDE72E60D2
:104FC000EBE72F60E9E72860E7E72E60E5E700F010
:104FD000CBF802234FF4A8720821FFF781FF286065
:104FE000DBE700F0C1F807234FF4A8720821FFF7B0
:104FF00077FF2860D1E700232B60CEE74FF4FA4318
:105000002B60CAE700232B60C7E7094B2B60C4E77E
:105010007F002F60C1E72E60BFE76FF0850001E0E1
:105020006FF08500F8BD0020FCE700BF6C03002096
:1050300000127A0008B51A4B9B6803F00C03082B8A
:1050400025D0174A136823F080731360144B1B6834
:1050500013F0007FFAD1134AD2F8043823F4403316
:10506000C2F80438D2F8043823F0706343F0E063E8
:10507000C2F8043800F07CF8094A136843F08073E2
:105080001360074B1B6813F0007FFAD008BDFFF7D1
:10509000EFFE034A936823F0F0039360D1E700BF6B
:1050A0000038024000300240162806D8064BC340A4
:1050B00013F0010F04D0002070476FF08500704797
:1050C0006FF08500704700BFEA00600038B500F05F
:1050D00071F8214C204609F0EDFA02F0BDFE1F4B9D
:1050E0009B68C3F303131E4AD35C20FA03F51378BD
:1050F0001C41A54228D3FFF7D7FEFFF79BFF174AB5
:10510000936823F0F0039360936823F0030343F064
:1051100002039360114B9B6803F00C03082BF9D139
:10512000A54215D20F4B0C4A1A600C4A936823F41F
:10513000E05343F4A0539360936823F4604343F433
:1051400000439360002038BD204602F03DFFD2E7C7
:10515000204602F039FFE5E7007A030A00380240F2
:10516000545501086C0300200048704700127A0073
:1051700008B509F0A0FA0B4B59680B4A0A4040F4F5
:10518000A84141F008010A435A605A6822F44032AB
:105190005A605968054A0A40054901430A435A6062
:1051A00008BD00BF003802400080BFFF0080BFF094
:1051B0000854000782B0064B1A6C42F080521A6401
:1051C0001B6C03F080530193019B02B0704700BF3A
:1051D0000038024010B5044C2046FFF7F9FB20468A
:1051E000FEF72AF910BD00BF8552000808B5054832
:1051F0000BF028FC18B1FFF7EDFF002008BD6FF0A1
:105200001200FBE70010010810B558B10246836890
:105210001348834214D21348834211D3DB691046EA
:10522000984710BD104CB82322461049104808F08A
:1052300021FC104808F01EFCB821204608F011FCA3
:10524000094CB82322460C49094808F013FC0B49C5
:105250000B4808F00FFCB821204608F002FC00BF04
:10526000A413010840130108F814010838150108B7
:105270004C1501086C15010880150108C0160108BD
:10528000C816010810B504460A2805D0E1B2054841
:10529000FFF7BAFF204610BD0D210248FFF7B4FF0B
:1052A000F4E700BF0010010810B558B1024683684A
:1052B0001548834216D21548834213D3DB68104643
:1052C000984710BD124C40F2F25322461149124841
:1052D00008F0D0FB114808F0CDFB40F2F251204617
:1052E00008F0BFFB0A4C40F2F25322460C490A4830
:1052F00008F0C0FB0B490C4808F0BCFB40F2F2512F
:10530000204608F0AEFB00BFAC120108881201086D
:1053100014290108482901084C1501086C150108D9
:105320005C2901089C2A0108C816010810B558B16B
:10533000024683681548834216D21548834213D328
:105340001B691046984710BD124C40F21F6322465D
:105350001149124808F08EFB114808F08BFB40F20F
:105360001F61204608F07DFB0A4C40F21F63224675
:105370000C490A4808F07EFB0B490C4808F07AFB00
:1053800040F21F61204608F06CFB00BFAC12010820
:105390008812010814290108482901084C15010840
:1053A0006C1501085C2901089C2A0108C81601082F
:1053B00010B543681C68012303FA01F10C4203D0C5
:1053C00092B1FFF771FF10BD094C40F2F76322461E
:1053D0000849094808F04EFB084808F04BFB40F22A
:1053E000F761204608F03DFBFFF7A0FFEBE700BFA9
:1053F00014290108A42A01084C150108E42A01080F
:1054000038B5436805691C6801238B401C4208D0ED
:105410002C68234202D0B2FA82F25209FFF7C8FF89
:1054200038BD084C40F2227322460749074808F06D
:1054300021FB074808F01EFB40F22271204608F0CD
:1054400010FB00BF14290108A42A01084C1501080B
:10545000E42A010870B5002842D0134686468468C5
:105460006B4A94424CD26B4A944249D346680069D5
:1054700013F0FC6F55D103F03002302A61D0664A38
:105480001A40664DAA426CD003F00602042A78D076
:1054900013F4402240F08280B2F5402F00F0928059
:1054A00013F4801F05D022B113F0010F01D083F453
:1054B000402323F4801235684FF0010C0CFA01FCF4
:1054C00015EA0C0F00F08E8013F0010F00F09A80A7
:1054D00003684CEA0303036023687046984770BD75
:1054E0004F4C40F2534322464E494F4808F0C2FA0F
:1054F0004E4808F0BFFA40F25341204608F0B1FA96
:10550000474C40F2534322464949474808F0B2FA13
:105510004849494808F0AEFA40F25341204608F0A5
:10552000A0FA3F4C40F25C43224644493E4808F012
:10553000A1FA434808F09EFA40F25C41204608F088
:1055400090FA374C40F25F4322463E49364808F015
:1055500091FA3D4808F08EFA40F25F41204608F08B
:1055600080FA2F4C40F26343224638492E4808F017
:1055700081FA374808F07EFA40F26341204608F08D
:1055800070FA274C40F2664322463249264808F01A
:1055900071FA40F26641204608F063FA13F4003FC6
:1055A0007FF47AAF1E4C40F2694322462A491E48D6
:1055B00008F060FA294808F05DFA40F26941204697
:1055C00008F04FFA164C40F26D4322462449164823
:1055D00008F050FA234808F04DFA40F26D41204699
:1055E00008F03FFA0E4C40F2794322461E490E481D
:1055F00008F040FA1D4808F03DFA40F27941204693
:1056000008F02FFA036823EA0C03036064E700BF85
:10561000AC12010888120108020003000200010018
:1056200014290108482901084C1501086C150108C6
:105630005C2901089C2A0108C8160108F82A0108FB
:10564000682B01088C2B0108C82B0108082C0108C5
:10565000582C0108A82C0108DC2C01082C2D01086D
:10566000682D0108B82D0108A42A0108E42A0108C0
:10567000002A3BD038B5154602EB420C4FEA8C0CA1
:10568000ACF10C0C8C449CF808E04EF0020E8CF847
:1056900008E050B18468164A944216D2154A9442E2
:1056A00013D3A4682A46A04738BD134C4FF47B732C
:1056B00022461249124808F0DDF9124808F0DAF9DA
:1056C0004FF47B71204608F0CCF90B4C4FF47B7300
:1056D00022460D490A4808F0CDF90C490C4808F05B
:1056E000C9F94FF47B71204608F0BBF900207047E0
:1056F000C4120108AC120108E42D01083815010894
:105700004C1501086C150108142E01084C2F0108D6
:10571000C81601082DE9F041144643681E695A690C
:105720008A4217D99F69C1EBC1054FEA850807EB8B
:105730008505084600F058FB084B1B5C1E44736847
:105740009BB2636017F808306370AB792370002058
:10575000BDE8F0816FF01500FAE700BFA052010824
:10576000F8B543681F695A698A4229D906460C462A
:105770009D69C1EBC10305EB83056B7913B1002073
:10578000A871F8BD384600F0A1FC08B90020F8E780
:10579000204600F029FB0C4B1A5CBB5823F0100389
:1057A000BB502146384600F0BDFC2146304609F08A
:1057B00047FB2146384609F053FB0020A871E0E77B
:1057C0006FF01500DDE700BFA05201082DE9F84F8A
:1057D0000C461F4641680E694B69A34266D9904644
:1057E000D1F818A0C4EBC4054FEA850B0AEB850578
:1057F0002146304609F034FB8146002859D15AF839
:105800000B30012B05D0022B2ED06BB36FF0150996
:1058100027E0204600F0E8FADFF89CA01AF80030F4
:105820003344C3F80C80204600F0DEFA1AF800304A
:1058300033449F602B794BB3204600F0D5FAAB6818
:105840000A9AB2FBF3F31C4A125C324451686FF3BC
:105850000F010B4353600123AB712146304600F02A
:1058600027FC4846BDE8F88F204600F0BDFADFF877
:1058700048A01AF800303344C3F80880204600F0EE
:10588000B3FA1AF800303344DF60D3E7204600F063
:10589000ABFAEB680A9AB2FBF3F3074A125C3244A4
:1058A00051686FF30F010B435360D4E76FF0150994
:1058B000D7E76FF00F09D4E7A05201082DE9F04FA8
:1058C00093B080460E461446D0F80490D9F810A044
:1058D00003A80BF0A6F8D9F81430B34240F27C814B
:1058E000D9F818B0C6EBC605AB0001930BEB8505E4
:1058F000AB79002B40F073813146504609F0B0FA85
:105900000746002840F06E813146404609F098FA7B
:10591000638803F4FE53B3F5FE5F71D022695369C7
:10592000B3F5803F80F06181637813F0070F04D1F5
:1059300099F80C30002B00F05B81E188A388994234
:1059400040F05981042B04D0022B02D0012B40F0EF
:105950005581137FC3F38012B2EBD31F40F0518106
:105960000123AB71A3696B61637803F00703019AAC
:105970004BF8023062692A61A288AA60E288EA6074
:105980002269127FC2F380122A762169A28892FAD4
:10599000A2F0B0FA80F00AB94FF0FF30E28892FA34
:1059A000A2F7B7FA87F70AB94FF0FF37012B34D0C7
:1059B0000B6803934B680493984B53F8203009937A
:1059C000974B53F827300A93A0780DA900F00F00E9
:1059D00009F0E5F9071E1CDB607805A900F0070057
:1059E00009F0F8F9071E14DB637803F00703012BB5
:1059F00000F0CC80022B1DD0E3B16FF0150708E05A
:105A00000123AB716B71A3696B6163692B61002327
:105A10002B76384613B0BDE8F08F0B6804934B68C3
:105A200003937F4B53F820300A937C4B53F8273075
:105A30000993C9E7236993F81C80C8F30110C8F3E0
:105A4000810808A909F0D8F9071EE2DB07A940463A
:105A500009F0E4F9071EDCDB2B7E002B00F09E80B2
:105A60004FF480730693019B5BF80310022914BF67
:105A70000021012129712389A288B3FBF2F002FBE6
:105A800010339BB2002B40F0BF806389E288B3FBE8
:105A9000F2F002FB10339BB2002B40F0B88020469E
:105AA00000F050FB10902979204600F085FB119002
:105AB000637813F0070F74D02378072B00F2AA80C5
:105AC000207800F0ABF90C902369587F00F00F00AC
:105AD00009F0C0FB0F9003A809F070FB002866D006
