:020000040800F2
:1000000080700020E99100082D6F0108D59100084B
:10001000D5910008D5910008D59100080000000096
:100020000000000000000000000000001D92000819
:10003000D5910008000000003D94000885F50008F7
:10004000D1940008D1940008D1940008D1940008FC
:10005000D1940008D1940008D1940008D1940008EC
:10006000D1940008D1940008D1940008D1940008DC
:10007000D1940008D1940008D1940008D1940008CC
:10008000D1940008D1940008D1940008D1940008BC
:10009000D1940008D1940008D1940008D1940008AC
:1000A000D1940008D1940008D1940008D19400089C
:1000B000D1940008D1940008D1940008D19400088C
:1000C000D1940008D1940008D1940008D19400087C
:1000D000D1940008D1940008D1940008D19400086C
:1000E000D1940008D1940008D1940008D19400085C
:1000F000D1940008D1940008D1940008D19400084C
:0C010000D1940008D1940008D1940008AC
:1001400030B490F800F020F007016FF0000C10F0D0
:10015000070491F820F040F048804FF000046FF061
:100160000700D1E9002391F840F000F1080082FA7D
:100170004CF2A4FA8CF283FA4CF3A2FA8CF34BBB48
:10018000D1E9022382FA4CF200F10800A4FA8CF2C1
:1001900083FA4CF3A2FA8CF3E3B9D1E9042382FA8F
:1001A0004CF200F10800A4FA8CF283FA4CF3A2FAA4
:1001B0008CF37BB9D1E9062301F1200182FA4CF2DC
:1001C00000F10800A4FA8CF283FA4CF3A2FA8CF343
:1001D000002BC6D0002A04BF04301A4612BAB2FA65
:1001E00082F200EBD20030BC7047D1E9002304F06A
:1001F0000305C4F100004FEAC50514F0040F91F89F
:1002000040F00CFA05F562EA05021CBF63EA05033B
:1002100062464FF00004AAE7844641EA000313F067
:1002200003036DD1403A41D351F8043B40F8043BFD
:1002300051F8043B40F8043B51F8043B40F8043BC0
:1002400051F8043B40F8043B51F8043B40F8043BB0
:1002500051F8043B40F8043B51F8043B40F8043BA0
:1002600051F8043B40F8043B51F8043B40F8043B90
:1002700051F8043B40F8043B51F8043B40F8043B80
:1002800051F8043B40F8043B51F8043B40F8043B70
:1002900051F8043B40F8043B51F8043B40F8043B60
:1002A00051F8043B40F8043B403ABDD2303211D300
:1002B00051F8043B40F8043B51F8043B40F8043B40
:1002C00051F8043B40F8043B51F8043B40F8043B30
:1002D000103AEDD20C3205D351F8043B40F8043B00
:1002E000043AF9D2043208D0D2071CBF11F8013BFE
:1002F00000F8013B01D30B8803806046704700BFC4
:10030000082A13D38B078DD010F003038AD0C3F1D2
:100310000403D21ADB071CBF11F8013B00F8013BB4
:1003200080D331F8023B20F8023B7BE7043AD9D373
:10033000013A11F8013B00F8013BF9D20B78037048
:100340004B7843708B7883706046704781F0004132
:1003500002E000BF83F0004330B54FEA41044FEAAA
:10036000430594EA050F08BF90EA020F1FBF54EA45
:10037000000C55EA020C7FEA645C7FEA655C00F0E1
:10038000E2804FEA5454D4EB5555B8BF6D420CDDB2
:100390002C4480EA020281EA030382EA000083EA35
:1003A000010180EA020281EA0303362D88BF30BDD5
:1003B00011F0004F4FEA01314FF4801C4CEA11312B
:1003C00002D0404261EB410113F0004F4FEA03338A
:1003D0004CEA133302D0524263EB430394EA050F15
:1003E00000F0A780A4F10104D5F1200E0DDB02FA84
:1003F0000EFC22FA05F2801841F1000103FA0EF218
:10040000801843FA05F359410EE0A5F120050EF1DD
:10041000200E012A03FA0EFC28BF4CF0020C43FA0E
:1004200005F3C01851EBE37101F0004507D54FF01B
:10043000000EDCF1000C7EEB00006EEB0101B1F56B
:10044000801F1BD3B1F5001F0CD349085FEA3000B1
:100450004FEA3C0C04F101044FEA445212F5800FBC
:1004600080F09A80BCF1004F08BF5FEA500C50F159
:10047000000041EB045141EA050130BD5FEA4C0C3C
:10048000404141EB0101013C28BFB1F5801FE9D299
:1004900091F0000F04BF01460020B1FA81F308BFBC
:1004A0002033A3F10B03B3F120020CDA0C3208DD88
:1004B00002F1140CC2F10C0201FA0CF021FA02F163
:1004C0000CE002F11402D8BFC2F1200C01FA02F1D3
:1004D00020FA0CFCDCBF41EA0C019040E41AA2BFF8
:1004E00001EB0451294330BD6FEA04041F3C1CDAC0
:1004F0000C340EDC04F11404C4F1200220FA04F0E0
:1005000001FA02F340EA030021FA04F345EA030189
:1005100030BDC4F10C04C4F1200220FA02F001FA4B
:1005200004F340EA0300294630BD21FA04F02946CD
:1005300030BD94F0000F83F4801306BF81F4801166
:100540000134013D4EE77FEA645C18BF7FEA655CD9
:1005500029D094EA050F08BF90EA020F05D054EAAB
:10056000000C04BF1946104630BD91EA030F1EBFB0
:100570000021002030BD5FEA545C05D140004941B4
:1005800028BF41F0004130BD14F580043CBF01F5A7
:10059000801130BD01F0004545F0FE4141F470018D
:1005A0004FF0000030BD7FEA645C1ABF1946104668
:1005B0007FEA655C1CBF0B46024650EA013406BF69
:1005C00052EA033591EA030F41F4002130BD00BF28
:1005D00090F0000F04BF0021704730B54FF48064E5
:1005E00004F132044FF000054FF0000150E700BF66
:1005F00090F0000F04BF0021704730B54FF48064C5
:1006000004F1320410F0004548BF40424FF00001B1
:100610003EE700BF42004FEAE2014FEA31014FEAF4
:1006200002701FBF12F07F4393F07F4F81F0605143
:10063000704732F07F4208BF704793F07F4F04BF8E
:1006400041F40021704730B54FF4607401F000456B
:1006500021F000411CE700BF50EA010208BF7047CB
:1006600030B54FF000050AE050EA010208BF7047BC
:1006700030B511F0004502D5404261EB41014FF425
:10068000806404F132045FEA915C3FF4D8AE4FF02D
:1006900003025FEADC0C18BF03325FEADC0C18BF10
:1006A000033202EBDC02C2F1200300FA03FC20FA61
:1006B00002F001FA03FE40EA0E0021FA02F11444AE
:1006C000BDE600BF70B54FF0FF0C4CF4E06C1CEAC7
:1006D00011541DBF1CEA135594EA0C0F95EA0C0F38
:1006E00000F0DEF82C4481EA030621EA4C5123EAAB
:1006F0004C5350EA013518BF52EA033541F48011DA
:1007000043F4801338D0A0FB02CE4FF00005E1FB8C
:1007100002E506F00042E0FB03E54FF00006E1FBD6
:1007200003569CF0000F18BF4EF0010EA4F1FF0419
:10073000B6F5007F64F5407404D25FEA4E0E6D4159
:1007400046EB060642EAC62141EA55514FEAC5206A
:1007500040EA5E504FEACE2EB4F1FD0C88BFBCF5E6
:10076000E06F1ED8BEF1004F08BF5FEA500E50F197
:10077000000041EB045170BD06F0004646EA01015D
:1007800040EA020081EA0301B4EB5C04C2BFD4EB8F
:100790000C0541EA045170BD41F480114FF0000E88
:1007A000013C00F3AB8014F1360FDEBF002001F0F6
:1007B000004170BDC4F10004203C35DA0C341BDC70
:1007C00004F11404C4F1200500FA05F320FA04F042
:1007D00001FA05F240EA020001F0004221F0004176
:1007E00010EBD37021FA04F642EB06015EEA430EE9
:1007F00008BF20EAD37070BDC4F10C04C4F1200519
:1008000000FA04F320FA05F001FA04F240EA0200CB
:1008100001F0004110EBD37041F100015EEA430E9C
:1008200008BF20EAD37070BDC4F1200500FA05F2BC
:100830004EEA020E20FA04F301FA05F243EA02033B
:1008400021FA04F001F0004121FA04F220EA02004A
:1008500000EBD3705EEA430E08BF20EAD37070BD90
:1008600094F0000F0FD101F00046400041EB010170
:1008700011F4801F08BF013CF7D041EA060195F052
:10088000000F18BF704703F00046520043EB03030C
:1008900013F4801F08BF013DF7D043EA06037047F9
:1008A00094EA0C0F0CEA135518BF95EA0C0F0CD004
:1008B00050EA410618BF52EA4306D1D181EA03014A
:1008C00001F000414FF0000070BD50EA410606BF44
:1008D0001046194652EA430619D094EA0C0F02D189
:1008E00050EA013613D195EA0C0F05D152EA0336CE
:1008F0001CBF104619460AD181EA030101F00041EC
:1009000041F0FE4141F470014FF0000070BD41F034
:10091000FE4141F4780170BD70B54FF0FF0C4CF40E
:10092000E06C1CEA11541DBF1CEA135594EA0C0F2D
:1009300095EA0C0F00F0A7F8A4EB050481EA030E7A
:1009400052EA03354FEA013100F088804FEA033361
:100950004FF0805545EA131343EA12634FEA02222F
:1009600045EA111545EA10654FEA00260EF00041F0
:100970009D4208BF964244F1FD0404F5407402D242
:100980005B084FEA3202B61A65EB03055B084FEAD3
:1009900032024FF480104FF4002CB6EB020E75EBD0
:1009A000030E22BFB61A754640EA0C005B084FEAF8
:1009B0003202B6EB020E75EB030E22BFB61A754675
:1009C00040EA5C005B084FEA3202B6EB020E75EBC0
:1009D000030E22BFB61A754640EA9C005B084FEA38
:1009E0003202B6EB020E75EB030E22BFB61A754645
:1009F00040EADC0055EA060E18D04FEA051545EA34
:100A000016754FEA06164FEAC30343EA52734FEADC
:100A1000C2025FEA1C1CC0D111F4801F0BD141EA55
:100A200000014FF000004FF0004CB6E711F4801FBA
:100A300004BF01430020B4F1FD0C88BFBCF5E06F9A
:100A40003FF6AFAEB5EB030C04BFB6EB020C5FEAAA
:100A5000500C50F1000041EB045170BD0EF0004EFF
:100A60004EEA113114EB5C04C2BFD4EB0C0541EA31
:100A7000045170BD41F480114FF0000E013C90E62E
:100A800045EA060E8DE60CEA135594EA0C0F08BFF2
:100A900095EA0C0F3FF43BAF94EA0C0F0AD150EAF1
:100AA00001347FF434AF95EA0C0F7FF425AF104684
:100AB00019462CE795EA0C0F06D152EA03353FF4AC
:100AC000FDAE1046194622E750EA410618BF52EA29
:100AD00043067FF4C5AE50EA41047FF40DAF52EAFD
:100AE00043057FF4EBAE12E74FEA4102B2F1E04377
:100AF00024BFB3F5001CDCF1FE5C0DD901F0004C05
:100B00004FEAC0024CEA5070B2F1004F40EB830054
:100B100008BF20F00100704711F0804F21D113F180
:100B20003872BCBF01F00040704741F480114FEAB9
:100B30005252C2F11802C2F1200C10FA0CF320FA42
:100B400002F018BF40F001004FEAC1234FEAD3235F
:100B500003FA0CFC40EA0C0023FA02F34FEA4303C9
:100B6000CCE77FEA625307D150EA01331EBF4FF052
:100B7000FE4040F44000704701F0004040F0FE406D
:100B800040F40000704700BF80F0004002E000BF6A
:100B900081F0004142001FBF5FEA410392EA030F68
:100BA0007FEA226C7FEA236C6AD04FEA1262D2EBB2
:100BB0001363C1BFD218414048404140B8BF5B42B7
:100BC000192B88BF704710F0004F40F4000020F050
:100BD0007F4018BF404211F0004F41F4000121F066
:100BE0007F4118BF494292EA030F3FD0A2F10102B0
:100BF00041FA03FC10EB0C00C3F1200301FA03F1EE
:100C000000F0004302D5494260EB4000B0F5000F10
:100C100013D3B0F1807F06D340084FEA310102F1CF
:100C20000102FE2A51D2B1F1004F40EBC25008BF81
:100C300020F0010040EA03007047490040EB00004B
:100C4000013A28BFB0F5000FEDD2B0FA80FCACF14C
:100C5000080CB2EB0C0200FA0CF0AABF00EBC25079
:100C600052421843BCBFD0401843704792F0000F67
:100C700081F4000106BF80F400000132013BB5E7BA
:100C80004FEA41037FEA226C18BF7FEA236C21D030
:100C900092EA030F04D092F0000F08BF0846704795
:100CA00090EA010F1CBF0020704712F07F4F04D163
:100CB000400028BF40F00040704712F100723CBF76
:100CC00000F50000704700F0004343F0FE4040F4A0
:100CD000000070477FEA226216BF08467FEA23635E
:100CE0000146420206BF5FEA412390EA010F40F449
:100CF000800070474FF0000304E000BF10F0004395
:100D000048BF40425FEA000C08BF704743F096437B
:100D100001464FF000001CE050EA010208BF704796
:100D20004FF000030AE000BF50EA010208BF70471D
:100D300011F0004302D5404261EB41015FEA010C32
:100D400002BF84460146002043F0B64308BFA3F12A
:100D50008053A3F50003BCFA8CF2083AA3EBC2530C
:100D600010DB01FA02FC634400FA02FCC2F120022B
:100D7000BCF1004F20FA02F243EB020008BF20F062
:100D80000100704702F1200201FA02FCC2F12002C8
:100D900050EA4C0021FA02F243EB020008BF20EABD
:100DA000DC7070474FF0FF0C1CEAD0521EBF1CEAEB
:100DB000D15392EA0C0F93EA0C0F6FD01A4480EAD9
:100DC000010C400218BF5FEA41211ED04FF00063C2
:100DD00043EA501043EA5111A0FB01310CF00040EE
:100DE000B1F5000F3EBF490041EAD3715B0040EA14
:100DF000010062F17F02FD2A1DD8B3F1004F40EBE4
:100E0000C25008BF20F00100704790F0000F0CF0B6
:100E1000004C08BF49024CEA502040EA51207F3A7A
:100E2000C2BFD2F1FF0340EAC250704740F4000055
:100E30004FF00003013A5DDC12F1190FDCBF00F046
:100E400000407047C2F10002410021FA02F1C2F1F4
:100E5000200200FA02FC5FEA310040F1000053EA90
:100E60004C0308BF20EADC70704792F0000F00F0DE
:100E7000004C02BF400010F4000F013AF9D040EAE4
:100E80000C0093F0000F01F0004C02BF490011F478
:100E9000000F013BF9D041EA0C018FE70CEAD15376
:100EA00092EA0C0F18BF93EA0C0F0AD030F0004CF6
:100EB00018BF31F0004CD8D180EA010000F00040AA
:100EC000704790F0000F17BF90F0004F084691F068
:100ED000000F91F0004F14D092EA0C0F01D14202A2
:100EE0000FD193EA0C0F03D14B0218BF084608D16B
:100EF00080EA010000F0004040F0FE4040F40000B5
:100F0000704740F0FE4040F4400070474FF0FF0C47
:100F10001CEAD0521EBF1CEAD15392EA0C0F93EA8E
:100F20000C0F69D0A2EB030280EA010C49024FEAE0
:100F3000402037D04FF0805343EA111143EA101399
:100F40000CF000408B4238BF5B0042F17D024FF451
:100F5000000C8B4224BF5B1A40EA0C00B3EB510F2C
:100F600024BFA3EB510340EA5C00B3EB910F24BF15
:100F7000A3EB910340EA9C00B3EBD10F24BFA3EB9A
:100F8000D10340EADC001B0118BF5FEA1C1CE0D162
:100F9000FD2A3FF650AF8B4240EBC25008BF20F015
:100FA000010070470CF0004C4CEA50207F32C2BF69
:100FB000D2F1FF0340EAC250704740F400004FF006
:100FC0000003013A37E792F0000F00F0004C02BF37
:100FD000400010F4000F013AF9D040EA0C0093F001
:100FE000000F01F0004C02BF490011F4000F013B5B
:100FF000F9D041EA0C0195E70CEAD15392EA0C0FC3
:1010000008D142027FF47DAF93EA0C0F7FF470AFFA
:10101000084676E793EA0C0F04D14B023FF44CAF3D
:1010200008466EE730F0004C18BF31F0004CCAD1D2
:1010300030F000427FF45CAF31F000437FF43CAF0E
:101040005FE700BF4FF0FF3C06E000BF4FF0010C30
:1010500002E000BF4FF0010C4DF804CD4FEA400212
:101060004FEA41037FEA226C18BF7FEA236C11D05C
:1010700001B052EA530C18BF90EA010F58BFB2EB0F
:10108000030088BFC81738BF6FEAE17018BF40F08F
:10109000010070477FEA226C02D15FEA402C05D143
:1010A0007FEA236CE4D15FEA412CE1D05DF8040BC8
:1010B000704700BF844608466146FFE70FB5FFF75B
:1010C000C9FF002848BF10F1000F0FBD4DF808ED13
:1010D000FFF7F4FF0CBF012000205DF808FB00BF04
:1010E0004DF808EDFFF7EAFF34BF012000205DF85E
:1010F00008FB00BF4DF808EDFFF7E0FF94BF0120AB
:1011000000205DF808FB00BF4DF808EDFFF7D2FFA7
:1011100094BF012000205DF808FB00BF4DF808EDEA
:10112000FFF7C8FF34BF012000205DF808FB00BFB7
:101130004FEA4002B2F1FE4F0FD34FF09E03B3EBE4
:1011400012620DD94FEA002343F0004310F0004F24
:1011500023FA02F018BF404270474FF0000070477A
:1011600012F1610F01D1420205D110F0004008BF19
:101170006FF0004070474FF00000704742000ED201
:10118000B2F1FE4F0BD34FF09E03B3EB126209D4C2
:101190004FEA002343F0004323FA02F070474FF078
:1011A0000000704712F1610F01D1420202D14FF0ED
:1011B000FF3070474FF00000704700BF7BB972B935
:1011C0000029BEBF00204FF0004106E008BF002804
:1011D0001CBF6FF000414FF0FF3000F057B8ADF189
:1011E000080C6DE904CE002909DB002B1ADB00F0A6
:1011F0004FF8DDF804E0DDE9022304B07047404217
:1012000061EB4101002B1BDB00F042F8DDF804E04C
:10121000DDE9022304B0404261EB4101524263EB3D
:1012200043037047524263EB430300F031F8DDF8AB
:1012300004E0DDE9022304B0404261EB4101704764
:10124000524263EB430300F023F8DDF804E0DDE9EC
:10125000022304B0524263EB4303704753B94AB9C7
:10126000002908BF00281CBF4FF0FF314FF0FF30AE
:1012700000F00CB8ADF1080C6DE904CE00F008F8F0
:10128000DDF804E0DDE9022304B07047704700BFD9
:101290002DE9F0478C468E46089E154604461946B1
:1012A000002B40F0D080724547D9B2FA82F74FB197
:1012B000C7F120030EFA07FC20FA03F3BD4043EA0E
:1012C0000C0CBC404FEA154EA8B2BCFBFEF8230C38
:1012D0000EFB18CC08FB00F943EA0C43994528D9CA
:1012E000EB1808F1FF3204D2994502D9A8F10202A5
:1012F0002B44A3EB0903A4B2B3FBFEFC0EFB1C338F
:101300000CFB00F044EA0344A04214D92C190CF160
:10131000FF3304D2A04202D9ACF102032C44241AB8
:1013200043EA02401EB1FC40002334607360BDE814
:10133000F0874246DDE76346F1E7002A79D0B2FA4A
:1013400082F3002B3FD01946C1F1200302FA01F5C8
:101350002EFA03F20EFA01FE20FA03F343EA0E031B
:101360004FEA154E00FA01F4B2FBFEFCAFB20EFBE1
:101370001C201A0C0CFB07F842EA004290455AD98F
:10138000AA180CF1FF3004D2904502D9ACF102004A
:101390002A44A2EB08029BB2B2FBFEFC0EFB1C220D
:1013A0000CFB07F743EA02439F4246D9EB180CF1C6
:1013B000FF3204D29F4202D9ACF102022B44DB1B64
:1013C00042EA004202E0AEEB020301224FEA154E70
:1013D000AFB2B3FBFEFC200C0EFB1C330CFB07F87A
:1013E00040EA034398452AD9EB180CF1FF3004D2A8
:1013F000984502D9ACF102002B44A3EB0803A4B238
:10140000B3FBFEFC0EFB1C330CFB07F744EA034462
:10141000A74216D92C190CF1FF3304D2A74202D9E6
:10142000ACF102032C44E41B43EA00400F46114692
:1014300078E71F2188E76046ABE76246BFE7604672
:10144000DBE76346EFE7734506D916B90021084686
:101450006DE7C6E9000EF9E7B3FA83F787B973457C
:1014600001D3824207D8841A6EEB030301209C4605
:101470001EB900215BE73846FAE7C6E9004CF8E7F9
:10148000C7F1200CBB4022FA0CF51D4320FA0CF1E9
:101490002EFA0CF30EFA07FE41EA0E014FEA154947
:1014A00000FA07F4B3FBF9F81FFA85FE09FB1830C0
:1014B0000B0C08FB0EFA43EA00439A4502FA07F2C6
:1014C00040D9EB1808F1FF3004D29A4502D9A8F1AF
:1014D00002002B44A3EB0A0389B2B3FBF9F809FB22
:1014E000183308FB0EFE41EA03418E452CD96918DA
:1014F00008F1FF3304D28E4502D9A8F10203294432
:1015000043EA0040A0FB0298A1EB0E014145CE4604
:10151000434602D306D14C4504D2B9EB020E68EB28
:1015200005030138002EA4D0B4EB0E0261EB0301D9
:1015300001FA0CFC22FA07F34CEA0303F940C6E96E
:10154000003196E74046C5E74346D9E70000000072
:10155000F0B587B00446284B18686A46032101F0AD
:1015600041FE0546002840D1002C3ED00098FFF7F0
:101570003FF806460F460198FFF73AF81CA3D3E957
:101580000023FFF7C9F902460B4630463946FEF7FD
:10159000E3FEC4E900010298FFF72AF806460F4669
:1015A0000398FFF725F812A3D3E90023FFF7B4F956
:1015B00002460B4630463946FEF7CEFEC4E902012C
:1015C0000498FFF715F806460F460598FFF710F840
:1015D00007A3D3E90023FFF79FF902460B463046E5
:1015E0003946FEF7B9FEC4E90401284607B0F0BD4C
:1015F0000000000080842E41DC200020000000005C
:101600002DE9F04F87B082463F4B18686A460721A4
:1016100001F0E8FD8346002862D1BAF1000F5FD0E7
:101620000098FEF7E5FF04460D460198FEF7E0FF3F
:101630002DA3D3E90023FFF76FF902460B4620469E
:101640002946FEF789FE80468946CAE90089029844
:10165000FEF7CEFF04460D460398FEF7C9FF22A30E
:10166000D3E90023FFF758F902460B4620462946E6
:10167000FEF772FE06460F46CAE902670498FEF7B7
:10168000B7FF04460D460598FEF7B2FF16A3D3E94F
:101690000023FFF741F902460B4620462946FEF794
:1016A0005BFE04460D46CAE9044511A3D3E90023B5
:1016B00040464946FEF750FECAE900010EA3D3E9B1
:1016C000002330463946FEF747FECAE902010CA363
:1016D000D3E9002320462946FEF73EFECAE904016D
:1016E000584607B0BDE8F08F0000000080842E410E
:1016F0009A9999999999A93F7B14AE47E17A843FC9
:101700007B14AE47E17AA43FDC20002000000000FB
:101710002DE9F04F85B006460F461546984602AAB9
:1017200002F0A2FB00282FDB029CDDF80C90A5FB49
:1017300004AB05FB09BB1AA3D3E900235046594665
:10174000FFF78CFD05464FF0FF335345164B73EB07
:101750000B031CD3A8FB04A408FB094410A3D3E982
:10176000002350462146FFF779FD03464FF0FF3234
:1017700052450D4AA2410DD3BDF8382000922A46A9
:101780003946304602F0B2FB05B0BDE8F08F6FF08D
:101790008500F9E76FF08500F6E700BFAFF3008042
:1017A00000CA9A3B00000000FFC99A3B08B50248F6
:1017B0000FF0CCF808BD00BFE403002010B541686D
:1017C00050B18368164A934216D2164A934213D3F5
:1017D0001B6B13B3984710BD134C4FF46B73224629
:1017E0001249134814F07DFC124814F07AFC4FF4AF
:1017F0006B71204614F06CFC0B4C4FF46B7322465B
:101800000D490B4814F06DFC0C490D4814F069FCAF
:101810004FF46B71204614F05BFC0868DBE700BFF7
:10182000E49A0108B09A0108C89D0108FC9D0108CE
:10183000149E0108349E0108489E01089C9F0108DF
:10184000A49F01082DE9F04791469846FFF7B6FF9F
:10185000054606461C4A002348464146FFF7FEFC63
:101860008A46044655B12A4600234FF0FF30002136
:10187000FFF7F4FCA04271EB0A0121D3A6FB04742C
:1018800005FB0A44104A002348464146FFF7E6FCA0
:101890001946A2FB06060C4A002305FB0161FFF76F
:1018A000DDFC3F1844EB010438464FF0FF33BB42E8
:1018B0004FF00003A34101D24FF0FF30BDE8F087A5
:1018C0004FF0FF30FAE700BF40420F0010B548B1BB
:1018D000836815498B4215D214498B4212D31B6879
:1018E000984710BD124C40F28A43224611491248D3
:1018F00014F0F7FB114814F0F4FB40F28A41204643
:1019000014F0E6FB0A4C40F28A4322460C490A488E
:1019100014F0E7FB0B490C4814F0E3FB40F28A415A
:10192000204614F0D5FB00BFE49A0108B09A0108E4
:10193000C89D0108FC9D0108149E0108349E010801
:10194000489E01089C9F0108A49F010810B580B122
:1019500003468268194882421BD21948824218D332
:101960000C6858684068844224D8D2691846904769
:1019700010BD144C40F22F5322461349134814F063
:10198000B0FB134814F0ADFB40F22F51204614F089
:101990009FFB0C4C40F22F5322460E490B4814F08B
:1019A000A0FB0D490D4814F09CFB40F22F5120463E
:1019B00014F08EFB6FF01500DAE700BFE49A01081F
:1019C000B09A0108C89D0108FC9D0108149E0108F9
:1019D000349E0108489E01089C9F0108A49F0108AD
:1019E00030B585B02048214B186017F0D9FB50B3B3
:1019F0001E4D2868FFF7E2FE01461D4814F05AFB11
:101A000028684FF47A720023FFF71CFF0446014652
:101A1000184814F04FFB0094174B019300230293D6
:101A200003932868FFF752FF044690B90F4B1868DC
:101A30006946FFF78BFF044680B9104814F03AFB63
:101A4000204605B030BD0E4814F034FB6FF0120490
:101A5000F6E701460B4814F02DFBF1E701460A4872
:101A600014F028FBECE700BFB097010840100020FD
:101A7000D49F0108EC9F0108AD17000840A00108A1
:101A8000BC9F010800A001081CA0010808B508E0DF
:101A90000C4B18600C4BB3F90A100C4B186802F091
:101AA00093FB4FF0FF324FF0FF3309480EF0BCFFBD
:101AB000002014F0D2F917F0EDFC024B1B688342B2
:101AC000E6D1EEE738100020702100201821002018
:101AD000E40300202DE98048D9B0474B186800F096
:101AE00025FC464C0EAD022362680A21284601F00F
:101AF000FFFB0223424A92690A2114A801F0F8FB75
:101B000017F0C8FCFFF7F6F83E49FFF74BF902461D
:101B100003230A2117A801F0EBFB0223E2680A2144
:101B200011A801F0E5FB022362690A211AA801F05D
:101B3000DFFB0223A2690A211DA801F0D9FB20AF17
:101B40000223E2690A21384601F0D2FB0DF18C082C
:101B50000223626A0A21404601F0CAFB0DF198098E
:101B60000223226B0A21484601F0C2FB0DF1A40AB0
:101B70000223A26A0A21504601F0BAFB2FAE0223CB
:101B8000226A0A21304601F0B3FB0DF1B00B0223AB
:101B9000E26A0A21584601F0ABFBB4F90830227C16
:101BA00032ACCDF830B0CDF82CA0CDF82890CDF8DF
:101BB000248008971DA907911AA90691059214AAD5
:101BC00004920396029311AB0193009517AB0E4A52
:101BD0009621204612F016FC2046FEF7B1FA024686
:101BE00021460A4B186813F00CFF00F0ADFB0420EF
:101BF00013F04BFC71E700BFA810002070210020FB
:101C0000A42100206F12833A68A001085418002014
:101C100000B585B069460A4B186813F087FF02A922
:101C2000084B186813F082FF074B019A1A61039A58
:101C30005A61022014F011F9092013F026FCE9E79B
:101C4000FC200020E0200020A421002010B502E0AC
:101C5000042013F01AFC01F015FB01F0EFFE012047
:101C600014F0FBF80D4CB4F908100D4B186802F095
:101C7000ABFAB4F90A100B4B186802F0A5FA17F08A
:101C800009FC094B1B688342E2D0074B1860B4F98A
:101C90000A10044B186802F097FAD9E77021002067
:101CA00024210020182100203C100020D0B588B04D
:101CB00003F082FC00260027CDE906670024049487
:101CC000022303930294019400942C4B4FF404627A
:101CD0002B492C480FF0D4FDCDE90667049404236A
:101CE0000393029401940094274B4FF482522749A6
:101CF00027480FF0C5FDCDE906670494052303933B
:101D0000029401940094234B4FF404622249234827
:101D10000FF0B6FDCDE90667049406230393029401
:101D2000019400941E4B4FF488621E491E480FF028
:101D3000A7FDCDE9066704940A2303930294019456
:101D400000941A4B4FF4886219491A480FF098FD15
:101D5000CDE9066704940B23039302940194009445
:101D6000154B4FF48862154915480FF089FD4FF463
:101D70007A70002111F040F8F9E700BF8D1A0008D1
:101D8000004E0020780600204D1C00088035002001
:101D900078050020111C0008C0450020F80500202F
:101DA000A7540108002D002078040020D51A00084F
:101DB00040310020F804002099540108C028002078
:101DC000F803002008B5032836D8DFE800F0021039
:101DD0001E33012906D004292ED11A4B1B6800207E
:101DE000984729E0174B1B680020984724E00129F9
:101DF00006D0042920D1134B1B68012098471BE013
:101E0000104B1B680120984716E0012908D00229D1
:101E10000BD0032910D10B4B1B68052098470BE012
:101E2000084B1B680220984706E0064B1B680420FD
:101E3000984701E0012900D008BD024B1B68032030
:101E40009847F9E74410002008B5024802F044FB27
:101E5000002008BDA0020020014B1860704700BFA1
:101E60004410002090F82530064AA2FB031202F02D
:101E7000FC0101EB92029B1ADBB2034A52F82300E9
:101E8000704700BFCDCCCCCC70ED010808B505483B
:101E900006F07EFC0448FFF7DFFF044B01221A70B6
:101EA000002008BD58980108512100088D28002005
:101EB00000B583B00B468DF8042000228DF8052074
:101EC000024601A9024815F01BF803B05DF804FBB7
:101ED000589801082DE9F0410646384C002120466B
:101EE00006F048FC00231A463168204615F008F831
:101EF0003469002302E064690133DBB2727E9A42E6
:101F000001D9002CF7D1304613F04FFB8046002753
:101F100019E02B4600222A49284814F0F1FF25E059
:101F2000204613F0C7FA58B32B460E222549234802
:101F300014F0E6FF2B4620222168204814F0E0FF31
:101F400064690137FFB214B3022F20D83D01EDB20E
:101F50001235EDB2737E3B44DBB2327E9A42D8D06A
:101F60002B4600221849154814F0CAFF2369002B9C
:101F7000D6D02B460E221549104814F0C1FFD9E7E0
:101F80002B460E2212490D4814F0BAFFD2E7B8F1E1
:101F9000030F05D9737E2BB9737E0333434507DBEB
:101FA000BDE8F0815E2212217820FFF781FFF3E780
:101FB000762232217820FFF77BFFF1E7589801085D
:101FC000A0A00108ACA00108A4A00108A8A00108D5
:101FD000B0A001082DE9F04782B080468946174637
:101FE0001D4600211046FFF77BF840B9BA4650461F
:101FF000FFF79EF806464FF0000C012407E007F1BA
:10200000004AF4E704EB840464000CF1010CAC45D5
:10201000F8DB3046FEF772FE01465046FEF7B8FD8B
:1020200082462046FEF76AFE01465046FEF7BAFE9B
:102030004FF07C51FEF7AEFDFFF77AF882468442FE
:1020400002DC0136A0EB040A00213846FFF748F80D
:1020500058B9CDF804A000953346094A4946404690
:1020600012F0D0F902B0BDE8F087CDF804A00095D9
:102070003346044A4946404612F0C4F9F2E700BF2D
:10208000C0A00108B4A00108F8B50C46154690F8A8
:10209000243043B9C26932B11368154A2946204633
:1020A00012F0B0F906E0012B05D02D2323706370E8
:1020B0000023A370F8BD036A002BF6D01E683046DB
:1020C000FFF736F80746FEF719FE3146FEF7FEFF2A
:1020D00030B13B46064A2946204612F093F9E9E71B
:1020E0000223324629462046FFF774FFE2E700BF8D
:1020F000C8A0010810B4044608460A600B71019B91
:102100008B60CC6000230B614B610B764B76CB610F
:102110000B6281F82430012281F825208B62CB628A
:102120001B600B6A00221A6034B123694BB11A4656
:102130005B69002BFBD15061044B1B681BB110BCC9
:1021400070472161F8E7014B1860F8E7681000203C
:1021500010B5704B1C68002C00F0D380052800F2ED
:10216000D080DFE810F03400060062009100B30078
:10217000CA00694B1B781BB1204613F09BF9F8B9D4
:102180002369002B00F0BD80204613F00EFA0028D2
:1021900000F0B780237E013393FBF0F100FB113395
:1021A000DBB22376627E02329A4201DA9A1E6276AE
:1021B000627E934200D26376584B01221A70A0E0EF
:1021C000204613F0BDF9554B01221A7099E0524B8D
:1021D0001B781BB1204613F06DF9E0B92369002B81
:1021E00000F08F80204613F0E0F9002800F089808D
:1021F000237EBBB9421ED3B22376627E9A4200D9B7
:102200006376627E02329A4201DA023B6376434B86
:1022100001221A7075E0204613F05DF93F4B012250
:102220001A706EE0013BDBB2E6E72269F2B10023EF
:1022300002E052690133DBB2217E994201D9002AC2
:10224000F7D1002A5DD0364B1B68062B05DC013325
:1022500033490B60334941F823402E4B1A602E4B13
:1022600000221A702D4B01221A704AE0204613F00A
:1022700021F9002845D0284A137883F00103137010
:10228000264B01221A703CE0234B1B7833B1224BC2
:1022900000221A70214B01221A7032E0204B1B6879
:1022A000002B0BDB591E1E4A11601E4A52F82320D8
:1022B000184B1A60194B01221A7022E0E36803B32D
:1022C000144A1360154B01221A701AE0124B1B7846
:1022D000BBB1204613F0EEF898B194F825200132F6
:1022E000114B83FB02135B1003EB8303D31A84F8B7
:1022F00025300A4B01221A7003E0204613F0DAF869
:1023000000B910BD204613F059F9044B01221A7090
:10231000F7E700BF681000208C2800208D280020DF
:10232000AC020020481000206766666618B1044AB7
:102330001268824200D07047024B01221A70FAE7FD
:10234000681000208D2800203F4B1B78002B7AD08E
:102350003E4B1B68002B76D030B58BB000213A4B3A
:1023600019703B4806F0EEF9384B1868036933B131
:10237000FFF7B0FD364806F087F90BB030BD836833
:10238000002B3ED09847314B186813F093F8002883
:10239000F0D02F4C0021204606F0ECF905AD1422B8
:1023A00029462A4B1868FFF76FFE30230022294682
:1023B000204614F0A5FD274B1B78002B3CD0234B67
:1023C0001868FFF74FFD0446FEF7B2FE0546FEF71C
:1023D00095FC2146FEF77AFE08B32B461E4A0C21D7
:1023E00002A812F00FF81A4C30233C2202A9204612
:1023F00014F086FD302364221849204614F080FD35
:10240000B8E7134C0021204606F0B4F90F4B1968C9
:10241000182300220968204614F072FDB3E7022356
:10242000224608216846FFF7D5FD6B460C4A0C2171
:1024300002A811F0E7FFD6E73023482209490448F3
:1024400014F05EFD96E770478D280020681000208C
:10245000589801088C280020CCA00108DCA00108B5
:10246000D4A00108E4A0010870B582B0224D002478
:1024700000942346214A29462046FFF73BFE204E82
:10248000009423461F4A31462846FFF733FE1E4B71
:10249000009301231D4A1E492846FFF72BFE1D4BC2
:1024A00018601D4B009301231C4A1D492846FFF765
:1024B00021FE1C4B18601C4B009301231B4A1C4936
:1024C0003046FFF717FE1B4B18601B4D1B4B00934C
:1024D00001231B4A29463046FFF70CFE194BEB61DE
:1024E00085F824406FF03102AA623222EA622C633E
:1024F0001C60204602B070BD90110020ECA00108C5
:1025000058110020F4A001080927000800A10108C3
:10251000E8100020E41000208526000808A101082A
:10252000AC100020A8100020A525000810A101086B
:10253000701000206C100020201100204925000898
:1025400018A10108C811002030B585B00446134D0C
:102550000121284606F00EF900231A462168284674
:1025600014F0CEFC0021284606F004F9E36923B1FB
:102570001868FEF7C3FB0A4B986101AC0223084AB6
:1025800092690A21204600F0B3FE1E231422214640
:10259000024814F0B5FC05B030BD00BF58980108E2
:1025A000A4210020F0B591B004462F4D012128460A
:1025B00006F0E0F800231A462168284614F0A0FC33
:1025C0000021284606F0D6F803A9002603964E609F
:1025D00001AC01960296254B186813F0A7FA214624
:1025E000234B186813F0A2FA0DAF0223049A0A21B4
:1025F000384600F07DFE05AC3B461E4A20212046B1
:1026000011F000FF142332462146284614F078FCCE
:10261000039B194A2021204611F0F4FE1423402286
:102620002146284614F06CFC0223029A0A213846FF
:1026300000F05EFE3B46114A2021204611F0E2FEEA
:102640001E2332462146284614F05AFC019B0C4AB0
:102650002021204611F0D6FE1E2340222146284686
:1026600014F04EFC11B0F0BD58980108FC20002079
:10267000E020002020A1010828A1010830A10108C4
:1026800038A10108F0B58DB005461B4C012120464C
:1026900006F070F800231A462968204614F030FC32
:1026A0000021204606F066F8144F08AE02237A682F
:1026B0001021304600F01CFE3346114A20216846A6
:1026C00011F0A0FE142300226946204614F018FCE5
:1026D00002233A681021304600F00AFE3346094AC8
:1026E0002021684611F08EFE1423402269462046C0
:1026F00014F006FC0DB0F0BD5898010870210020C0
:1027000040A101084CA101082DE9F04192B0044616
:10271000504F0021384606F02DF800231A46216854
:10272000384614F0EDFB00260096019602960396BB
:10273000049605966846FEF70BFFDDE90001FEF7FB
:10274000D3F902460EAD02231021284600F0D0FD39
:1027500006AC2B46404A2021204611F053FE0A23A6
:1027600032462146384614F0CBFBDDE90201FEF784
:10277000BBF9024602231021284600F0B9FD2B4682
:10278000364A2021204611F03DFE0A2340222146F0
:10279000384614F0B5FBDDE90401FEF7A5F9024661
:1027A00002231021284600F0A3FD2B462C4A2021AD
:1027B000204611F027FE142332462146384614F0F5
:1027C0009FFB6846FEF71CFFDDE90001FEF78CF970
:1027D000024602231021284600F08AFD2B46214A9A
:1027E0002021204611F00EFE1423402221463846B7
:1027F00014F086FBDDE90201FEF776F902460223BA
:102800001021284600F074FD2B46174A202120464F
:1028100011F0F8FD1E2332462146384614F070FBB5
:10282000DDE90401FEF760F9024602231021284683
:1028300000F05EFD2B460D4A2021204611F0E2FDFE
:102840001E2340222146384614F05AFB12B0BDE840
:10285000F08100BF5898010854A101085CA101084B
:1028600064A101086CA1010874A101087CA1010800
:10287000034668B179B1106880B1906888B1596039
:102880009A600020187398735873074A1A6070474B
:102890004FF0FF3070474FF0FF3070474FF0FF3080
:1028A00070474FF0FF307047B0F5010808B5064A91
:1028B00006490748FFF7DCFF18B9064B044A1A60BF
:1028C00008BD4FF0FF30FBE7E0F50108D011002014
:1028D0002C180020CC11002010B5064C0022114607
:1028E000206813F059F814220121206813F054F8DD
:1028F000002010BDCC11002010B558B102468368ED
:102900001548834216D21548834213D35B6910469B
:10291000984710BD124C40F24C63224611491248B0
:1029200013F0DFFB114813F0DCFB40F24C61204652
:1029300013F0CEFB0A4C40F24C6322460C490A4885
:1029400013F0CFFB0B490C4813F0CBFB40F24C616A
:10295000204613F0BDFB00BF309B01080C9B010813
:1029600084A10108B8A10108149E0108349E010841
:10297000CCA101080CA30108A49F010810B543686D
:102980001A68012303FA01F10A4202D0FFF7B4FFEB
:1029900010BD084C40F24D7322460749074813F01A
:1029A000A0FB074813F09DFB40F24D71204613F049
:1029B0008FFB00BF84A1010814A30108149E010825
:1029C00054A30108C2788B1F9A425CD110B582B023
:1029D000044600231A469E4608E014F803C0F44457
:1029E0005FFA8CFE7244D2B20133DBB2881E83429E
:1029F000F3DB235C734518D10139635C934214D136
:102A0000A37873B9ADF804308DF80630237963B933
:102A1000637953B9A37943B91B4B186812F0E0FFEF
:102A200003E0E02B03D0032B12D002B010BD01A9AC
:102A30000023ADF804308B70A3788DF804308DF846
:102A400005E08DF80620104B186812F094FFECE7B3
:102A500008210E48FFF792FF6068FDF7C9FD0022CC
:102A60000B4BFDF759FFFEF73FF80A4B1860E06883
:102A7000FDF7BEFD0022064BFDF74EFFFEF734F8D2
:102A8000054B1860D1E77047CC1100205C97010816
:102A900000408F40BC0200207823002070B582B037
:102AA0000C46154638B101281BD10B785A1C0A7008
:102AB0000122EA5415E001AE0023ADF804308DF890
:102AC00006303146084B186812F079FF2378EA186F
:102AD000BDF804009DF80610E85291702378033386
:102AE000237002B070BD00BFCC11002008B50A46AB
:102AF0000146024B186812F084FF08BD54180020EC
:102B000010B550B1836815498B4216D214498B42D7
:102B100013D31B6C03B1984710BD124C40F25B13EA
:102B200022461149114813F0DCFA114813F0D9FA82
:102B300040F25B11204613F0CBFA0A4C40F25B13D3
:102B400022460C49094813F0CCFA0B490B4813F004
:102B5000C8FA40F25B11204613F0BAFA4C9C010807
:102B6000E89B010868A30108FC9D0108149E010868
:102B7000349E0108A8A3010880B80108A49F010899
:102B800010B550B1836815498B4216D214498B4257
:102B900013D35B6B03B1984710BD124C40F2311355
:102BA00022461149114813F09CFA114813F099FA82
:102BB00040F23111204613F08BFA0A4C40F23113E7
:102BC00022460C49094813F08CFA0B490B4813F0C4
:102BD00088FA40F23111204613F07AFA4C9C010831
:102BE000E89B010868A30108FC9D0108149E0108E8
:102BF000349E0108A8A3010880B80108A49F010819
:102C000010B550B1836815498B4216D214498B42D6
:102C100013D3DB6D03B1984710BD124C4FF4DE7334
:102C200022461149114813F05CFA114813F059FA81
:102C30004FF4DE71204613F04BFA0A4C4FF4DE736A
:102C400022460C49094813F04CFA0B490B4813F083
:102C500048FA4FF4DE71204613F03AFA4C9C010812
:102C6000E89B010868A30108FC9D0108149E010867
:102C7000349E0108A8A3010880B80108A49F010898
:102C800010B550B1836817498B4216D216498B4252
:102C900013D3DB6B13B3984710BD144C40F24B13A6
:102CA00022461349134813F01CFA134813F019FA7B
:102CB00040F24B11204613F00BFA0C4C40F24B1330
:102CC00022460E490B4813F00CFA0D490D4813F03B
:102CD00008FA40F24B11204613F0FAF96FF0570052
:102CE000DAE700BF4C9C0108E89B010868A30108D3
:102CF000FC9D0108149E0108349E0108A8A3010848
:102D000080B80108A49F010810B560B184468368AB
:102D10001548834215D21548834212D3DB6AFBB1B2
:102D20006046984710BD124CE923224611491248CB
:102D300013F0D7F9114813F0D4F9E921204613F024
:102D4000C7F90B4CE92322460D490B4813F0C9F98A
:102D50000C490D4813F0C5F9E921204613F0B8F9E4
:102D60006FF05700DEE700BF4C9C0108E89B0108AC
:102D700068A30108FC9D0108149E0108349E010807
:102D8000A8A3010880B80108A49F010810B550B19C
:102D9000836815498B4216D214498B4213D39B6B1F
:102DA00003B1984710BD124C4FF49F73224611494E
:102DB000114813F096F9114813F093F94FF49F71ED
:102DC000204613F085F90A4C4FF49F7322460C49B4
:102DD000094813F086F90B490B4813F082F94FF4B8
:102DE0009F71204613F074F94C9C0108E89B010880
:102DF00068A30108FC9D0108149E0108349E010887
:102E0000A8A3010880B80108A49F010810B550B11B
:102E1000836817498B4216D216498B4213D3DB6C59
:102E200013B3984710BD144C4FF4C2732246134994
:102E3000134813F056F9134813F053F94FF4C271C5
:102E4000204613F045F90C4C4FF4C27322460E494C
:102E50000B4813F046F90D490D4813F042F94FF4B1
:102E6000C271204613F034F96FF05700DAE700BF63
:102E70004C9C0108E89B010868A30108FC9D01081F
:102E8000149E0108349E0108A8A3010880B8010817
:102E9000A49F010810B560B1844683681748834237
:102EA00017D21748834214D31B6B1BB36046984755
:102EB00010BD144C40F20D1322461349134813F071
:102EC00010F9134813F00DF940F20D11204613F0DC
:102ED000FFF80C4C40F20D1322460E490B4813F03C
:102EE00000F90D490D4813F0FCF840F20D11204691
:102EF00013F0EEF86FF05700DAE700BF4C9C0108C2
:102F0000E89B010868A30108FC9D0108149E0108C4
:102F1000349E0108A8A3010880B80108A49F0108F5
:102F200038B578B1B0FA80F464098368194DAB42C2
:102F30001BD2194DAB4218D3A3B11B6E33B39847C4
:102F4000204638BD154C4FF4E47322461449154809
:102F500013F0C7F8144813F0C4F84FF4E471204696
:102F600013F0B6F86FF05704EAE70C4C4FF4E47333
:102F700022460E490B4813F0B4F80D490D4813F0E2
:102F8000B0F84FF4E471204613F0A2F86FF0570444
:102F9000D6E700BF4C9C0108E89B010868A3010824
:102FA000FC9D0108149E0108349E0108A8A3010895
:102FB00080B80108A49F010810B50C4641608260EA
:102FC000C36000230374044B036002460349206876
:102FD000FFF7A6FF10BD00BFF8F501088B5A0108E6
:102FE00008B5164B1B68164A126816491648FFF7B3
:102FF000E3FF034608B1184608BD144B1B68144A8A
:10300000126814491448FFF7D7FF03460028F2D18D
:103010000D48124B1860124B0F4A1A604FF47A7128
:1030200012F0FAFC03460028E5D14FF47A710C4BFC
:10303000186812F0F1FC0346DDE700BFA41C002075
:10304000A81C002004F60108581800206C18002065
:103050007018002000F601084018002054180020C5
:103060003C180020B1F5004F09D201610260002335
:103070000381C3808380C38183814381704710B5FE
:10308000064CC32322460649064813F02AF8064890
:1030900013F027F8C321204613F01AF8E8A401081A
:1030A0001CA50108149E010834A5010810B5154C93
:1030B000154B4FF400721549204612F01DFD144BBC
:1030C0001C60144C144B4FF400721449204612F04B
:1030D00013FD134B1C60134C134B4FF40072134938
:1030E000204612F009FD124B1C60124C124B4FF49B
:1030F00000721249204612F0FFFC114B1C600020A8
:1031000010BD00BFC42000206CA50108AC1E00202B
:10311000A81C0020AC20002074A50108AC1C0020D5
:10312000A41C0020741C00207CA501087418002039
:103130006C1800208C1C002084A50108741A002043
:103140007018002008B50548054B186016F028F8DF
:1031500008B1002008BD6FF01200FBE7C898010815
:10316000DC20002010B550B1836815498B4216D27F
:1031700014498B4213D3DB684E21984710BD124C83
:1031800040F2B73322461149114812F0AAFF114804
:1031900012F0A7FF40F2B731204612F099FF0A4C17
:1031A00040F2B73322460C49094812F09AFF0B4906
:1031B0000B4812F096FF40F2B731204612F088FF1C
:1031C000989B0108609B01088CA50108FC9D0108E3
:1031D000149E0108349E0108C0A501080CA701082F
:1031E000A49F010810B558B18446836815488342EE
:1031F00016D21548834213D31B696046984710BD09
:10320000124C40F2F53322461149124812F069FF80
:10321000114812F066FF40F2F531204612F058FFD7
:103220000A4C40F2F53322460C490A4812F059FF85
:103230000B490C4812F055FF40F2F531204612F0D0
:1032400047FF00BF989B0108609B01088CA50108FF
:10325000FC9D0108149E0108349E0108C0A50108C8
:103260000CA70108A49F010808B5044B1868FFF7D4
:103270005DF8034B1868FFF775FF08BDE4100020E8
:10328000DC20002010B58CB0FFF7EEFF06A800236D
:10329000069343608360C3600361436100930193BD
:1032A0000293039304930593FEF752F96846FEF7E1
:1032B000A7F9DDE90001FDF717FC0C4CE061DDE941
:1032C0000201FDF711FC2060DDE90601FDF70CFCB1
:1032D0006060DDE90801FDF707FCA060DDE90A0197
:1032E000FDF702FCE0600CB010BD00BFA42100207F
:1032F000002800F086802DE9F04385B00F46914606
:103300001C46064601297FD9062B00D90624002138
:103310004846FDF7E5FE60B9002500234FF001089F
:103320009C420CD908EB88084FEA48080133DBB20D
:10333000F6E72D23337009F100490125EDE74046FA
:10334000FDF7D8FC4946FDF72DFD4FF07C51FDF708
:1033500021FCFDF713FF0346B0FBF8F008FB10312A
:1033600098451CD930238DF8003001225319BB42F7
:103370004DD2531E1DE02A4BA3FB00C3DB089C4625
:1033800003EB8303A0EB4303303302F110006844E6
:1033900000F8103C604601320028ECD1E6E700223C
:1033A000FAE703F110026A4412F8102C7255013B3F
:1033B0000135002BF5DAF4B1013FAF422AD92E23B3
:1033C0007355631E013510E002EB820252000CF1CE
:1033D000010C6345F8DCB1FBF2F002FB1011AF42C7
:1033E0001BD930307055013B0135002B03DB4FF00A
:1033F000000C0122EDE700237355284605B0BDE817
:10340000F0834FF0FF3070474FF0FF30F6E74FF09A
:10341000FF30F3E74FF0FF30F0E74FF0FF30EDE71C
:10342000CDCCCCCC2DE9F04F83B00191002800F039
:10343000868091460446002900F08480002A00F02E
:1034400084804FF0000853E0013422785AB1A2F191
:103450002B03DBB20E2BF7D847F6ED7121FA03F3FD
:1034600013F0010FF0D0002A70D02D2A0DD02B2A96
:103470000FD04FF0010B2278A2F13003DBB2092B01
:103480003BD92E2A34D1013432E001344FF0FF3BD6
:10349000F1E701344FF0010BEDE705EB8505303B1B
:1034A00003EB450501342378A3F13002D2B2092A97
:1034B000F3D92E2B23D04FF07E5700262846FDF758
:1034C0001DFC054639463046FDF720FD01462846DD
:1034D000FDF760FB05465846FDF710FC2946FDF751
:1034E00061FC08F10103019A42F828005FFA83F8B1
:1034F00023785BB3C845A8D328E00025D3E701347F
:103500004FF07E57002694F800A0AAF13003DBB2FA
:10351000092BD3D80F493046FDF744FC0646AAF1E3
:103520003000FDF7EBFB01463046FDF733FB064666
:1035300008493846FDF736FC07460134E3E74FF00B
:10354000000803E04FF0000800E09046404603B05A
:10355000BDE8F08F0000204110B550B183681549D7
:103560008B4216D214498B4213D3DB684E21984705
:1035700010BD124C40F2B73322461149114812F0E7
:10358000B0FD114812F0ADFD40F2B731204612F007
:103590009FFD0A4C40F2B73322460C49094812F00D
:1035A000A0FD0B490B4812F09CFD40F2B7312046BC
:1035B00012F08EFD989B0108609B01088CA5010804
:1035C000FC9D0108149E0108349E0108C0A5010855
:1035D0000CA70108A49F010810B558B18446836860
:1035E0001548834216D21548834213D31B6960469F
:1035F000984710BD124C40F2F5332246114912484B
:1036000012F06FFD114812F06CFD40F2F5312046CA
:1036100012F05EFD0A4C40F2F53322460C490A488E
:1036200012F05FFD0B490C4812F05BFD40F2F531E2
:10363000204612F04DFD00BF989B0108609B0108D9
:103640008CA50108FC9D0108149E0108349E010808
:10365000C0A501080CA70108A49F0108B0B582B05D
:1036600000AF154628B3044619B34160226015F037
:1036700011FFE0606C4600233B7102237B7188B030
:10368000EC461CF110026AD00E2022B1042802DDA3
:103690004F4BCCF8143000233B7002237B70002A80
:1036A0006AD0082801DDCCF818500CF11C03002169
:1036B00060E06C4600233B7102237B7188B0EC46CE
:1036C0001CF1100213D00E2022B1042802DD414B60
:1036D000CCF8143000233B7002237B70A2B1082881
:1036E00001DDCCF818500CF11C0300210AE06FF04A
:1036F0000040E9E701F108053D4415F8085C03F8CE
:10370000015B01310129F5D90D2825DD0E234AB1D0
:103710000321397100217971B9710121F97178683A
:10372000CCF81000002121F0010121F0020121F06C
:10373000040121F03801012060F38811C3F30A036A
:1037400063F35321C1F313010023234804F03CFA2F
:10375000A5466FF0150035E06FF01B03D7E76FF05B
:10376000004092E701F108053D4415F8085C03F8B4
:10377000015B01310129F5D90D2826DD0E234AB15F
:103780000321397100217971B9710121F9717868CA
:10379000CCF81000002121F0010121F0020121F0FC
:1037A000040121F03801032060F38811C3F30A03F8
:1037B00063F35321C1F313010023074804F004FA13
:1037C000A54600200837BD46B0BD6FF01B03D6E705
:1037D00030A7010814A701087C9C010810B5094C0A
:1037E000094A0A492046FFF739FF094A146000B127
:1037F00010BD084C084A09492046FFF72FFF084B27
:103800001C60F5E70021002048A7010810F6010818
:10381000FC200020E420002054A7010808F601083D
:10382000E02000202DE9F04184B000AF002800F036
:10383000F880044643681868FFF78EFE05460028A6
:1038400059D021686E4600233B7102237B718AB0F8
:103850006C4614F1100215D012201AB1042801DDB3
:10386000714B636100233B7002237B70BAB1034646
:10387000082800DDA1610C2B00DDE56104F12003C7
:1038800000210AE06FF00040E7E701F1100CBC44B2
:103890001CF810CC03F801CB01310129F5D911280E
:1038A00026DD122342B10421397100217971B971E9
:1038B0000121F97178682061002121F0010121F0D6
:1038C000020121F0040121F03801012060F3881188
:1038D000C3F30A0363F35321C1F3130100235348D5
:1038E00004F072F9B54628461037BD46BDE8F081B0
:1038F0006FF01B03D6E76368186807F108024C21D4
:10390000FFF76AFE0546002855D021686E46002361
:103910003B7102237B718AB06C4614F1100215D002
:1039200012201AB1042801DD414B636100233B7072
:1039300002237B70BAB10346082800DDA1610C2B7D
:1039400000DDE56104F1200300210AE06FF0004092
:10395000E7E701F1100CBC441CF810CC03F801CBD4
:1039600001310129F5D9112822DD122342B10421A8
:10397000397100217971B9710121F971786820617B
:10398000002121F0010121F0020121F0040121F0C8
:103990003801012060F38811C3F30A0363F3532154
:1039A000C1F313010023214804F00EF9B5469AE74C
:1039B0006FF01B03DAE715F06DFD0246B968A368E6
:1039C000CB1A4EF66020834222DDA3F57F43EB3B0A
:1039D000E668961B6068007908B34FF0FF3003FB80
:1039E00000F0236903442361A160E260002E3FF4EC
:1039F0007AAFFDF783F980463046FDF77BF9014643
:103A00004046FDF783FA0B49FDF7CCF960616AE7A0
:103A100009488342DCDA03F57F43FF33D8E701200E
:103A2000DDE76FF015055EE760A701087C9C0108E3
:103A300084A7010800002041A015FFFF08B5064B30
:103A40001868FFF7EFFE054B1868FFF7EBFE044B15
:103A50001868FEF76BFC08BDFC200020E020002069
:103A60006C10002008B5024800F036FD002008BDAB
:103A7000B002002010B558B1024683681548834251
:103A800016D21548834213D3DB681046984710BD01
:103A9000124C40F2F25322461149124812F021FB17
:103AA000114812F01EFB40F2F251204612F010FBBA
:103AB0000A4C40F2F25322460C490A4812F011FB1C
:103AC0000B490C4812F00DFB40F2F251204612F067
:103AD000FFFA00BF309B01080C9B010884A101087C
:103AE000B8A10108149E0108349E0108CCA1010868
:103AF0000CA30108A49F010810B558B102468368C1
:103B00001548834216D21548834213D31B691046C9
:103B1000984710BD124C40F21F63224611491248CB
:103B200012F0DFFA114812F0DCFA40F21F61204671
:103B300012F0CEFA0A4C40F21F6322460C490A48A2
:103B400012F0CFFA0B490C4812F0CBFA40F21F6189
:103B5000204612F0BDFA00BF309B01080C9B010803
:103B600084A10108B8A10108149E0108349E01082F
:103B7000CCA101080CA30108A49F010810B543685B
:103B80001C68012303FA01F10C4203D092B1FFF744
:103B900071FF10BD094C40F2F763224608490948FD
:103BA00012F09FFA084812F09CFA40F2F7612046A2
:103BB00012F08EFAFFF7A0FFEBE700BF84A1010827
:103BC00014A30108149E010854A3010838B54368E2
:103BD00005691C6801238B401C4208D02C682342D5
:103BE00002D0B2FA82F25209FFF7C8FF38BD084C82
:103BF00040F2227322460749074812F072FA07483A
:103C000012F06FFA40F22271204612F061FA00BF02
:103C100084A1010814A30108149E010854A30108FB
:103C200008B9022900D0704708B5064B93F8282040
:103C300082F0010283F8282008210348FFF7C6FF1D
:103C400008BD00BFA42100205C97010870B50028C2
:103C500042D01346864684686B4A94424CD26B4AE3
:103C6000944249D34668006913F0FC6F55D103F0C4
:103C70003002302A61D0664A1A40664DAA426CD0A2
:103C800003F00602042A78D013F4402240F0828028
:103C9000B2F5402F00F0928013F4801F05D022B1BE
:103CA00013F0010F01D083F4402323F48012356810
:103CB0004FF0010C0CFA01FC15EA0C0F00F08E809D
:103CC00013F0010F00F09A8003684CEA03030360CD
:103CD00023687046984770BD4F4C40F253432246CC
:103CE0004E494F4812F0FDF94E4812F0FAF940F2F1
:103CF0005341204612F0ECF9474C40F25343224620
:103D00004949474812F0EDF94849494812F0E9F9A4
:103D100040F25341204612F0DBF93F4C40F25C4345
:103D2000224644493E4812F0DCF9434812F0D9F9E2
:103D300040F25C41204612F0CBF9374C40F25F4331
:103D400022463E49364812F0CCF93D4812F0C9F9F6
:103D500040F25F41204612F0BBF92F4C40F2634322
:103D6000224638492E4812F0BCF9374812F0B9F90A
:103D700040F26341204612F0ABF9274C40F2664313
:103D800022463249264812F0ACF940F266412046FC
:103D900012F09EF913F4003F7FF47AAF1E4C40F20C
:103DA000694322462A491E4812F09BF9294812F01D
:103DB00098F940F26941204612F08AF9164C40F217
:103DC0006D4322462449164812F08BF9234812F01D
:103DD00088F940F26D41204612F07AF90E4C40F21B
:103DE000794322461E490E4812F07BF91D4812F015
:103DF00078F940F27941204612F06AF9036823EA23
:103E00000C03036064E700BF309B01080C9B0108B2
:103E1000020003000200010084A10108B8A101080A
:103E2000149E0108349E0108CCA101080CA30108CE
:103E3000A49F0108A8A7010818A801083CA8010828
:103E400078A80108B8A8010808A9010858A901081C
:103E50008CA90108DCA9010818AA010868AA0108B0
:103E600014A3010854A3010810B558B1844683680F
:103E70001548834216D21548834213D35B686046C7
:103E8000984710BD124C40F2822322461149124835
:103E900012F027F9114812F024F940F2822120464D
:103EA00012F016F90A4C40F2822322460C490A48C5
:103EB00012F017F90B490C4812F013F940F2822165
:103EC000204612F005F900BF509B0108489B0108ED
:103ED00094AA0108FC9D0108149E0108349E010863
:103EE000C4AA0108FCAB0108A49F0108934231D881
:103EF00030B583B068B18468184DAC4219D2184D02
:103F0000AC4216D32468BDF818500095A04703B002
:103F100030BD144C40F26E2322461349134812F070
:103F2000E0F8134812F0DDF840F26E21204612F05E
:103F3000CFF80C4C40F26E2322460E490B4812F08B
:103F4000D0F80D490D4812F0CCF840F26E21204611
:103F500012F0BEF86FF01500704700BF509B0108CB
:103F6000489B010894AA0108FC9D0108149E0108C1
:103F7000349E0108C4AA0108FCAB0108A49F0108F3
:103F80002DE9F04184B002AF002800F0D9800C4642
:103F900015460646002900F0D680002A00F0D6809B
:103FA000086815F0FDF878B1746035604FF4B01111
:103FB00004F1080011F0D1FD0446002857D0204636
:103FC0000837BD46BDE8F0816E4600233B710223F1
:103FD0007B7188B002AC14F1100211D00E201AB11E
:103FE000042801DD5B4B636100233B7002237B707F
:103FF0009AB1082800DDA56104F11C0300210AE044
:104000006FF00040EBE701F108053D4415F8085C4E
:1040100003F8015B01310129F5D90D2824DD0E23B8
:1040200042B10321397100217971B9710121F9710E
:1040300078682061002121F0010121F0020121F0C6
:10404000040121F03801012060F38811C3F30A0351
:1040500063F35321C1F3130100233F4803F0B4FD80
:10406000B5466FF01204AAE76FF01B03D8E770683B
:104070004FF4B011103011F070FD044600289ED1AD
:104080007368186859684FF00008CDF800804346FF
:10409000324AFDF73DFB6E4687F8048002237B71B0
:1040A00088B00DF1080C1CF1100213D00E2022B1C3
:1040B000042802DD2A4BCCF8143000233B70022385
:1040C0007B70A2B1082801DDCCF818500CF11C035C
:1040D00000210AE06FF00040E9E701F108053D44E6
:1040E00015F8085C03F8015B01310129F5D90D28A9
:1040F00023DD0E234AB10321397100217971B97191
:104100000121F9717868CCF81000002121F001013B
:1041100021F0020121F0040121F03801032060F3B5
:104120008811C3F30A0363F35321C1F3130100237E
:10413000094803F049FDB54641E76FF01B03D9E795
:104140006FF015043BE76FF0150438E76FF01504C6
:1041500035E700BF00AC01082C9D0108002D31019E
:1041600018AC010810B54FF4B01208210D48FFF744
:104170006DFD034608B1184610BD0B4C0B4A0C49A7
:104180002046FFF7FDFE0B4B1C6003460028F2D1D2
:10419000094C0A4A0A492046FFF7F2FE0346094A3B
:1041A0001460E8E75C9701082821002030AC010882
:1041B00030F60108242100201C21002038AC010821
:1041C00018F6010818210020002843D030B583B02C
:1041D0000C460546B1F57A7F04DC11F57A7F03DAE7
:1041E0001E4C03E04FF47A74002C16DC002C23DB09
:1041F00068680021083011F0A8FC686800211030C0
:1042000011F0A3FC00236A68106851680022009234
:10421000134AFDF77DFA03B030BD6868012108300C
:1042200011F093FC68680021103011F08EFC44F608
:10423000206304FB03F3E6E768680021083011F00F
:1042400084FC68680121103011F07FFC054B04FBF1
:1042500003F3D8E76FF01500704700BF18FCFFFFAD
:10426000002D3101E0B1FFFF70B506460D46064B4B
:104270001C6800E0246834B16368002BFAD029463A
:1042800030469847F6E770BD3021002010B50A4B44
:104290001C7804EB44029300084AD35C022B00D044
:1042A00010BD01212046FFF7DFFF04EB4404A3000B
:1042B000024A0021D154F3E7902800203421002045
:1042C000F8B54379012B0BD10446C08811F050FC9E
:1042D0000546A468012C14BF00270127032800D934
:1042E000F8BD15F0D7F8064605EB45022A4B03EB5F
:1042F00082031F72012C12D005EB4503264A12F8E7
:104300002330012B32D0032BEAD124480DF06EF973
:1043100005EB4505AD00204B00225A55E0E713465A
:104320001D4A12F823307BB1022BD9D11C480DF065
:104330005DF902212846FFF797FF05EB4505AD0023
:10434000154B00225A55CBE7134B05EB45020121D3
:1043500003F8221003EB82035E60124B1D704FF4D2
:104360007A72002310480DF0A7F8B9E70E480DF057
:104370003DF9094B05EB4502022103F8221003EB3E
:1043800082035E60094B1D704FF49672002304484F
:104390000DF092F8A4E700BF34210020F8060020B9
:1043A000580700208F280020280700209028002090
:1043B00010B5114B1C7804EB4402104B13F822305B
:1043C000032B00D010BD0D4B03EB82031B7A002B97
:1043D000F8D004212046FFF747FF15F05BF804EB07
:1043E0004404064B03EB84035860C82200230448AE
:1043F0000DF062F8E6E700BF8E280020342100208F
:10440000F806002070B5154B1C7804EB4402144BE1
:1044100013F82230012B00D070BD114B03EB820347
:104420001B7A002BF8D003212046FFF71DFF0C4D0F
:10443000660004EB4403032205F8232015F02AF854
:10444000264405EB86056860044B1A78054B1A7004
:10445000C822002304480DF02FF8DDE78F28002044
:10446000342100208E280020F806002008B5002303
:104470000AE0104803EB43018A0000EB020C002124
:1044800081548CF808100133032BF2DD0A490B48E4
:104490000CF05CFF0A490B480CF058FF0A490B4826
:1044A0000CF054FF0A4A03210A4812F08DF900204B
:1044B00008BD00BF342100208D42000858070020AD
:1044C0000544000828070020B1430008F806002032
:1044D00050AC0108BC9C0108024B1A6802601860CD
:1044E000704700BF3021002038B520F0004421F093
:1044F000004529462046FCF7F3FD48B929462046E9
:10450000FCF70CFEA8B913492046FCF74BFC38BD5C
:1045100029462046FCF7FAFC0146FCF743FC4FF025
:104520007E51FCF737FB10F029FD2946FCF73AFCD9
:10453000EDE721462846FCF7E9FC0146FCF732FC92
:104540004FF07E51FCF726FB10F018FD2146FCF7DA
:1045500029FCDCE7F304B53F2DE9F04F87B0814635
:1045600090469B46D1F804C0BD4BC3F834C10A68DD
:10457000C3F83821CB6801938B6802930024CDF8EF
:104580000CC00492CDF814B0012C3DDC04F1020AF9
:1045900059F82A70A60059F824B039460398FCF758
:1045A00001FC054659460498FCF7FCFB01462846E9
:1045B000FCF7F0FAAA4DB31D45F8230058F8242063
:1045C00006F1080345F8232039460198FCF7EAFB79
:1045D000074659460298FCF7E5FB01463846FCF7CA
:1045E000D9FAF31D45F8230058F82A30093645F862
:1045F000263004F12402002345F8223004F126027B
:1046000045F822300134BFE7DDF814B00025D94663
:1046100087E1B246D6F85031063356F82380394642
:104620004046FFF761FF0646CAF8380100214046C0
:10463000FCF76AFD18B106F10046CAF83861884BEC
:10464000D3F8387127F000404FF04061FCF748FD87
:10465000002800F09E80824B4FF0FF32C3F85421B7
:104660000194AB462AE07E4E671D4FF0E64156F8B6
:104670002700FCF797FB46F82700013408F10406F1
:10468000A642F0DA764F4FF0E641D7F83801FCF752
:1046900089FB0446C7F838014FF0E641D7F83401EA
:1046A000FCF780FB8046C7F8340124F000404FF04F
:1046B0004061FCF715FD70B1122D0CDC684BD3F88E
:1046C00054510135C3F85451D3F850A1AAEB0B084B
:1046D000D3F85841D2E7019C5D46624F0AF10202CD
:1046E0003946204611F0E4FA01464046FFF7FCFE49
:1046F0000446C7F82001183FD7F834710021384626
:10470000FCF702FD20B104F10044554BC3F83841D9
:10471000534CD4F8388139464046FCF739FA4146C3
:10472000FCF7F4FB05F1240344F823004146384626
:10473000FCF72EFA01464FF07E50FCF7E7FB82466D
:10474000C4F83401D4F858410AE0454F04F1050893
:1047500057F828105046FCF725FB47F8280001348D
:10476000A642F2DA002409E03D4E4FF04061D6F84F
:104770003801FCF717FBC6F838010134384BD3F881
:104780005431A342F0DA364BD3F83821C3F8342140
:10479000EDE041463846FCF7FBF93946FCF7B6FB3D
:1047A0002F4C05F1240344F8230039464046FCF71A
:1047B000EFF901464FF07E50FCF7A8FB8346C4F8A2
:1047C0003401D4F85031A3EB0508D4F858410AE07D
:1047D000234E04F1050A56F82A105846FCF7E2FA6F
:1047E00046F82A00013408F10403A342F0DA1C4B16
:1047F000C3F83471BBE0C5F10403194AC2F858315B
:10480000AAEB050404E0013F154BC3F85871013CC5
:10481000134BD3F85871002F09DD04F1090300216F
:104820000F4A52F82300FCF751FC0028EBD16B42F1
:1048300098461BE008F1FF380223ABB907EB0B03E6
:104840000433A342F6DB631D0021054A52F823001E
:10485000FCF73CFC10B101340023EEE70123ECE748
:10486000D0210020E8210020012B0AD0B8F1000F50
:1048700004DB0AEB880B0BF10504DFE7CDF80480BD
:104880009AE0CDF8048097E05A1C920000219F48DE
:104890000FF012FD9CE09E4DD5F838610AEB040341
:1048A000A3EB08030633621D55F8221055F82300C8
:1048B000FCF778FA01463046FCF76CF9C5F8380188
:1048C00001345C45E7DBA8EB0A04053CA410904DDD
:1048D0002634D5F8381155F82400FCF75BF945F873
:1048E000240008F104087B1D434509DB884B0022A6
:1048F000C3F83821D3F8583103EB080B4446E0E7FE
:10490000029E039D00213046FCF7E0FB00286AD0A0
:104910007F4BD3F85021D3F83411063243F82210DC
:104920000135012D00F3B88005EB8503784EC6F8FC
:1049300050319A1CC6F85821063356F82330C6F871
:10494000343105F124034FF0000846F82380C5F107
:10495000030406F11801204611F0AAF90746C6F82B
:1049600038014146FCF7B2FB00283FF452AE684BD9
:10497000D3F850A1D3F834110AF1060243F82210FB
:10498000002DCDDC4FF07E5143F822100AF10502D4
:10499000C3F8542105F1240253F822600021304667
:1049A000FCF794FB00283FF426AF594B0022C3F8D4
:1049B00058214FF0FF330193554BD3F85831002B5A
:1049C000A6DD019BB3F1FF3F9CD0002BBFF65CAF8F
:1049D0004F4BD3F850A1019A0AEB8207D3F85481C8
:1049E000029603957FE74A4BD3F8502111460022E7
:1049F000C3F854218B4603960495019FCDF814907B
:104A000089461EE0424E671D56F827A004EB0903B5
:104A1000A3EB0B03013356F823102846FCF7C2F929
:104A200001465046FCF7B6F846F8270001344445E5
:104A3000E8DD019E029F0BF1040B0136344BC3F8F5
:104A40005461334BD3F85461BE4221DC304B06F144
:104A5000260253F82240C3F8384100212046FCF7D3
:104A600035FB0028E7D1039B03F100412046FCF70A
:104A700099F90546264BC3F838010BF10504D3F824
:104A8000583103EB0B0808F1040801960297CEE7B2
:104A9000049DDDF814903BE7CB461D4B0022C3F884
:104AA000502113E002EB830002EB4301184C063067
:104AB00054F820001E3144F8210001329342F1DA0B
:104AC000002B0ADD0133124AC2F85031104BD3F8E3
:104AD0005031012B08DC0022F0E75A001F320C494C
:104AE000002041F82200EDE7094B9A6FCBF8002037
:104AF000D3F88020CBF80420DA6FCBF80820D3F865
:104B00008430CBF80C3007B0BDE8F08F682200206D
:104B1000D02100202DE9F04F8BB0AF4C94F87B31C1
:104B20000993276927F00040AC4E3146FCF73AF96B
:104B3000314610F043FB0546C4F8000101463846F3
:104B4000FCF728F83946FCF723F82946FCF7DEF98C
:104B5000A06429460020FCF7D9F9E064676927F0D2
:104B600000403146FCF71EF9314610F027FB0546A0
:104B7000C4F8000101460020FCF7C8F92065294669
:104B80003846FCF707F83946FCF702F82946FCF7E7
:104B9000BDF9606504F13803914A214604F14800EB
:104BA000FFF7DAFC0023C4F844313EE08A4C54F8A5
:104BB0002560C4F8046121683046FCF7F3F88046AC
:104BC000C4F8080161683046FCF7ECF80746C4F801
:104BD0000C016E00C4F8486106F11A034FF0000A98
:104BE00044F823A0AB1C54F82390C4F80491A168A6
:104BF0004846FCF7D7F801464046FBF7CBFF06F1E5
:104C0000160344F82300E1684846FCF7CBF8014658
:104C10003846FBF7BFFF06F1170344F823001B36A5
:104C200044F826A00135C4F844516B4BD3F84451E5
:104C3000012DBBDD9A6DC3F80421D3F85CE0C3F805
:104C400008E1D3F860C0C3F80CC1D3F864B0C3F86E
:104C500010B10021C3F844110192CDF808E0CDF85D
:104C60000CC041E05C4C05F1120354F82370C4F809
:104C700028716E00C4F8486139460198FCF792F833
:104C800006F11A0A54F82A10FBF784FF8046C4F88C
:104C900024011B3654F8269039460298FCF782F816
:104CA00001464846FBF776FF0746C4F8000105F1C8
:104CB000140354F82390C4F8289149460398FCF74C
:104CC00071F801464046FBF765FF44F82A00494663
:104CD0005846FCF767F801463846FBF75BFF44F897
:104CE00026000135C4F844513B4BD3F84451012D03
:104CF000B8DD1C469B6EA365236FE365E36E2366F8
:104D0000636F636604F1380504F15801284610F01A
:104D100043FFA36BA366236CE366E36B2367636CBB
:104D20006367A36DA363E36DE363236E2364636E24
:104D30006364294604F1680010F079FFD4F838A0C4
:104D4000C4F858A0D4F84090C4F85C90E36B019389
:104D50002366626C029262660AF100410391C4F814
:104D6000081109F100410491C4F80C1103F100434A
:104D70000593C4F8103102F100430693C4F82831BA
:104D8000184E7768B56829462846FCF70BF8804628
:104D9000F66831463046FCF705F801464046FBF719
:104DA000F9FE10F0EBF8014607F1004010F04AF967
:104DB0002169FBF7EDFE0790C4F82401314628462F
:104DC00010F040F96169FBF7E3FEC4F8000100232D
:104DD000C4F8483108909BE0D0210020F304B53995
:104DE000480B0208A42100207500BC4CC4F84451B3
:104DF00005F1120354F82370C4F80471394603987E
:104E0000FBF7D0FF8046C4F8140139460498FBF73D
:104E1000C9FF0746C4F8180105F1130354F823B07D
:104E2000C4F804B159460598FBF7BCFF014640465B
:104E3000FBF7B0FE05F11A0344F823005946069823
:104E4000FBF7B0FF01463846FBF7A4FE05F11B0354
:104E500044F82300AF19C4F84C711A374FF07E5153
:104E600054F82700FBF796FE44F82700DFF870B2ED
:104E700005F5A8635BF82370C4F804713946504601
:104E8000FBF790FF8046C4F8140139464846FBF70B
:104E900089FF0746C4F8180105F241535BF823B0B7
:104EA000C4F804B159460198FBF77CFF014640461F
:104EB000FBF770FE05F10E0344F8230059460298F3
:104EC000FBF770FF01463846FBF764FE0F3544F8E8
:104ED0002500371D54F8278006F1180354F82310D5
:104EE0000898FBF75FFF054606F1160354F82310F8
:104EF0000798FBF757FF01462846FBF74BFE014694
:104F00004046FBF747FE44F827000136C4F84861E5
:104F1000724BD3F84861012E7FF766AF0022C3F8C9
:104F2000442109E06D4A52F8230003F1160142F8CA
:104F300021000133C2F84431684BD3F84431032BCC
:104F4000F0DD664C234604F1380204F1580104F107
:104F50006800FFF701FB63492069FBF723FF014667
:104F6000C4F80401D4F8E000FBF712FEC4F808010D
:104F70005D49FBF717FF0646C4F80C015B4B186848
:104F800000F100405A49FBF70DFFC4F8100104F18D
:104F90008808534D434614222946304610F026FF18
:104FA000C4F8640104F18C0314222946D4F81001DA
:104FB00010F01CFFC4F868010023C4F86C3104F53C
:104FC000B279152305F154024146484610F0BEFE61
:104FD0000746C4F828010123C4F86C31152305F5F0
:104FE000E7624146484610F0B1FE0646C4F80001AB
:104FF0000223C4F86C31152305F61C62414648466D
:1050000010F0A4FE0546C4F824013A4B196838464E
:10501000FBF7C8FE384B1968FBF7BCFD0746C4F820
:105020002801364B19682846FBF7BCFE344B19683B
:10503000FBF7B0FD0546C4F82401099B13B9002213
:10504000C4F8EC20254CD4F8EC902E4BC3F82C90EF
:105050002D4B19683046FBF7A5FE2C4B1968FBF762
:1050600099FD8246C4F81401204B1E683146D4F8DD
:10507000F000FBF78DFD4FF07F51FBF747FF8046B7
:10508000C4F81801099B002B42D0D4F80811384607
:10509000FBF788FE044651464846FBF783FE01466F
:1050A0002046FBF777FD04464FF07C514046FBF766
:1050B00079FE01462846FBF775FE01462046FBF7C0
:1050C00069FD0FF02BFFFCF733F803B20193B3F542
:1050D000487F1FDD4FF4487301931FE0D02100206B
:1050E00048F60108E12E6542CDCCCC3DA42100203C
:1050F000AC572F3F54230020BC0200205C2300202B
:1051000078230020702100205823002074230020E1
:1051100000230193019B13F5487F70DB884CD4F882
:10512000149088494846FBF73DFE874B1860874935
:105130003046FBF737FE0290C4F82C01D4F810B0CB
:105140005946FBF727FD0646C4F820017F49804BEE
:10515000D869FBF727FE8046C4F83001014648466F
:10516000FBF718FD0546C4F81C012BF00040DFF8E2
:10517000E4A15146FBF716FE514610F01FF8074612
:10518000C4F8000101465846FBF704FD01460298A9
:10519000FBF700FD3146FBF7FBFC3946FBF7B6FE9B
:1051A000A06429462846FBF7F3FC3946FBF7AEFE20
:1051B000E06429F000405146FBF7F4FD51460FF042
:1051C000FDFF0746C4F8000131463046FBF7E0FC1E
:1051D0003946FBF79BFE206539464846FBF7DAFC6B
:1051E00001464046FBF7D6FC2946FBF7D1FC394681
:1051F000FBF78CFE60650023C4F844310CE0564B8D
:1052000001938BE74E4A52F8230003F1160142F84E
:1052100021000133C2F84431494BD3F84431032B08
:10522000F0DD474C23464D4A04F1580104F1480093
:10523000FFF792F9D4F820312361D4F81C3163616F
:10524000D4F8EC504149D4F80801FBF7ABFD014616
:105250002846FBF79FFC0546C4F8EC004049FBF7E5
:105260005DFF38B33E4AC4F8EC20354BD3F8182123
:10527000C3F8F020D3F80441334A5460B3F97211F3
:105280001181B3F974115181D3F8E450C3F8085176
:105290002F4B93F82830C3B132492846FBF73EFF25
:1052A000002848D030492846FBF71AFF002844D18F
:1052B00000210BE02D492846FBF712FF0028D4D02F
:1052C0001F4B2A4AC3F8EC20CFE70021C9B21E4A7F
:1052D00011741B4BD3F80C015061D3F8100190618D
:1052E0001B48006800F10040D06193F87C0183F80E
:1052F000790193F87D0183F87A01D3F8280150628F
:10530000D3F824019062D3F81401106383F87B1161
:10531000BDF80420B3F87001151AA3F872510244C5
:10532000A3F87421C3F8E44083F87C1183F87D115D
:105330000BB0BDE8F08F0021C8E70121C6E700BF30
:10534000D0210020E12E6542702100200AD7A33B26
:10535000A4210020F304B539E0FCFFFF580B02083C
:105360000000484300005CC200005C42000048C3EB
:105370002DE9F04F83B0554DD5F8E830C5F8E03051
:10538000534AD360534C61692069FBF703FC4FF02B
:105390007C51FBF707FD0190D4F818B05946FBF794
:1053A000F7FB044695F87931002B0CBF0125002549
:1053B00062D1464B0022C3F8F820444B0022C3F8C8
:1053C000FC20454B19682046FBF7ECFC3F4FD7F813
:1053D000FC904946FBF7DCFB4049FBF7E3FC064643
:1053E0003F4B19682046FBF7DDFCD7F8F8A0514683
:1053F000FBF7D0FB3146FBF7CDFB8046394B1968F4
:1054000001F100415846FBF7CDFC01464046FBF751
:10541000C1FB8046344B19682046FBF7C3FC0146AC
:105420005046FBF7B7FB0446C7F8F8002F49FBF7D7
:1054300075FE002830D02D4AC7F8F8206DB2234CF5
:1054400084F877512A493046FBF7ACFC01464846C0
:10545000FBF7A0FBC4F8FC0084F878511C4B019AC0
:105460001A6224494046FBF759FE00B3214AC4F8AA
:10547000E82003B0BDE8F08F144A92F977211AB101
:10548000124A0021C2F8F810002B96D00F4B93F966
:105490007831002B95D090E717492046FBF720FE86
:1054A0000028CBD0094B144AC3F8F820C6E71349AB
:1054B0004046FBF715FE20B1044B104AC3F8E82024
:1054C000D7E7024BC3F8E880D3E700BFD021002024
:1054D00070210020A4210020702300200000C84279
:1054E00068230020502300206C2300200000484245
:1054F0000AD7233C00009041000048C2000090C140
:10550000F8B5254B93F87A31002B0CBF0127002703
:1055100003D0214B93F976311BB11F4B0022C3F806
:10552000F4201D4BD3F8F4601C493046FBF73AFCDD
:1055300005461B4B19681B4B586AFBF733FC294681
:10554000FBF728FB04461849FBF7E8FD30B917497B
:105550002046FBF7C5FD10B1144C00E0124C20466C
:105560000FF0DCFCFBF7E4FD0B4CA4F87001104BD2
:1055700019680C4B186AFBF715FC2946FBF708FB6A
:105580000C49FBF70FFC01463046FBF703FBC4F860
:10559000F40084F87671F8BDD02100200000C842E4
:1055A00060230020A42100200000FA430000FAC379
:1055B000642300200AD7A33C084B01221A7205225B
:1055C0005A720A229A721422DA72054B4FF07E52F6
:1055D0001A60002159609960DA60704764210020E8
:1055E000D021002010B558B1024683681548834287
:1055F00016D21548834213D3DB681046984710BD76
:10560000124C40F2F25322461149124810F069FD43
:10561000114810F066FD40F2F251204610F058FD9E
:105620000A4C40F2F25322460C490A4810F059FD48
:105630000B490C4810F055FD40F2F251204610F095
:1056400047FD00BF309B01080C9B010884A10108A5
:10565000B8A10108149E0108349E0108CCA10108DC
:105660000CA30108A49F010810B558B10246836835
:105670001548834216D21548834213D31B6910463E
:10568000984710BD124C40F21F6322461149124840
:1056900010F027FD114810F024FD40F21F61204654
:1056A00010F016FD0A4C40F21F6322460C490A48CE
:1056B00010F017FD0B490C4810F013FD40F21F616C
:1056C000204610F005FD00BF309B01080C9B01082F
:1056D00084A10108B8A10108149E0108349E0108A4
:1056E000CCA101080CA30108A49F010810B54368D0
:1056F0001C68012303FA01F10C4203D092B1FFF7B9
:1057000071FF10BD094C40F2F76322460849094871
:1057100010F0E7FC084810F0E4FC40F2F761204686
:1057200010F0D6FCFFF7A0FFEBE700BF84A1010853
:1057300014A30108149E010854A3010838B5436856
:1057400005691C6801238B401C4208D02C68234249
:1057500002D0B2FA82F25209FFF7C8FF38BD084CF6
:1057600040F2227322460749074810F0BAFC074866
:1057700010F0B7FC40F22271204610F0A9FC00BFE7
:1057800084A1010814A30108149E010854A3010870
:1057900010B584B004466946002300930193029338
:1057A00003930422FDF73EFE0822514920460EF0E5
:1057B000DBFD20B9009A4F4B1A6004B010BD0E22D9
:1057C0004D4920460EF0D0FD18B9009A4B4B1A6097
:1057D000F3E70E224A4920460EF0C6FD18B9009A9A
:1057E000484B1A60E9E70E22474920460EF0BCFDFF
:1057F00018B9009A454B1A60DFE706224449204653
:105800000EF0B2FD18B9009A424B1A60D5E7062295
:10581000414920460EF0A8FD18B9009A3F4B1A6086
:10582000CBE706223E4920460EF09EFD18B9009AAD
:105830003C4B1A60C1E706223B4920460EF094FD1E
:1058400018B9009A394B1A60B7E706223849204642
:105850000EF08AFD18B9009A364B1A60ADE70722A0
:10586000354920460EF080FD18B9009A334B9A61F5
:10587000A3E70722324920460EF076FD18B9009AB8
:10588000304B1A6099E707222F4920460EF06CFD35
:1058900018B9009A2D4B1A608FE707222C49204631
:1058A0000EF062FD18B9009A2A4B1A6085E70822AB
:1058B000294920460EF058FD68B1092227492046A3
:1058C0000EF052FD00287FF478AF1C4B009A5A620C
:1058D000019A9A6171E7194B93F8282082F001022E
:1058E00083F8282008211E48FFF728FF65E700BF3E
:1058F00074AC01085023002080AC01085423002020
:1059000090AC010858230020A0AC01085C230020C3
:10591000B0AC0108BC020020B8AC01087423002020
:10592000C0AC010878230020C8AC0108682300201F
:10593000D0AC01086C230020D8AC0108A4210020C1
:10594000E4AC010860230020F0AC010864230020CF
:10595000FCAC01087023002004AD010810AD010863
:105960005C97010830B583B0002408E03CB11148D1
:1059700000250555FFF70CFF2C4600E000240E4BD8
:10598000186810F0CCF898B901220DF107010A4B04
:10599000186810F0BAF89DF807300A2BE6D00D2BE6
:1059A000E4D07E2CEAD8621C02490B55D4B2E6E75B
:1059B00003B030BD7C230020A81C002008B500EBFC
:1059C000C1035B8813F0010F06D101EB530330F8DC
:1059D00033209B1A99420DD00C4A01210C4810F03B
:1059E000F3FE002383F31188BFF36F8F042318465F
:1059F00002DF08BD30F83130CB1A00EBC30042881B
:105A000003EB52039942E7D1F3E700BF1CAD010855
:105A1000EC9C01082DE9F0410446164600EBC1005C
:105A2000C588A94226D0CB0023449F884FEAC708E7
:105A300008F1060834F80830994204D104EBC50394
:105A40009B8899420CD0114A0121114810F0BCFEEC
:105A5000002383F31188BFF36F8F0423184602DFFE
:105A6000321D44F8225024F80850EB000433E7526A
:105A7000BDE8F081E3680122B24023EA0203E3605B
:105A8000321D002344F82230F2E700BF44AD010884
:105A9000EC9C01082DE9F84304460D46131D50F80F
:105AA00023607EB9C368012191400B43C360043277
:105AB00040F82250EB001A1DADB285520633C55294
:105AC000BDE8F883F700043730F807904FEAC908BB
:105AD00008F1060830F808309E420AD1EB001A1D82
:105AE00024F802900633E652ADB224F80850E5538C
:105AF000E6E7074A0121074810F066FE002383F31A
:105B00001188BFF36F8F0423184602DFE6E700BF5A
