:020000040800F2
:1000000080580020597000087539010845700008B3
:1000100045700008457000084570000800000000A9
:100020000000000000000000000000008D700008CB
:100030004570000800000000AD72000849C40008C7
:1000400041730008417300084173000841730008C0
:1000500041730008417300084173000841730008B0
:1000600041730008417300084173000841730008A0
:100070004173000841730008417300084173000890
:100080004173000841730008417300084173000880
:100090004173000841730008417300084173000870
:1000A0004173000841730008417300084173000860
:1000B0004173000841730008417300084173000850
:1000C0004173000841730008417300084173000840
:1000D0004173000841730008417300084173000830
:1000E0004173000841730008417300084173000820
:1000F0004173000841730008417300084173000810
:1001000030B490F800F020F007016FF0000C10F010
:10011000070491F820F040F048804FF000046FF0A1
:100120000700D1E9002391F840F000F1080082FABD
:100130004CF2A4FA8CF283FA4CF3A2FA8CF34BBB88
:10014000D1E9022382FA4CF200F10800A4FA8CF201
:1001500083FA4CF3A2FA8CF3E3B9D1E9042382FACF
:100160004CF200F10800A4FA8CF283FA4CF3A2FAE4
:100170008CF37BB9D1E9062301F1200182FA4CF21C
:1001800000F10800A4FA8CF283FA4CF3A2FA8CF383
:10019000002BC6D0002A04BF04301A4612BAB2FAA5
:1001A00082F200EBD20030BC7047D1E9002304F0AA
:1001B0000305C4F100004FEAC50514F0040F91F8DF
:1001C00040F00CFA05F562EA05021CBF63EA05037C
:1001D00062464FF00004AAE7844641EA000313F0A8
:1001E00003036DD1403A41D351F8043B40F8043B3E
:1001F00051F8043B40F8043B51F8043B40F8043B01
:1002000051F8043B40F8043B51F8043B40F8043BF0
:1002100051F8043B40F8043B51F8043B40F8043BE0
:1002200051F8043B40F8043B51F8043B40F8043BD0
:1002300051F8043B40F8043B51F8043B40F8043BC0
:1002400051F8043B40F8043B51F8043B40F8043BB0
:1002500051F8043B40F8043B51F8043B40F8043BA0
:1002600051F8043B40F8043B403ABDD2303211D340
:1002700051F8043B40F8043B51F8043B40F8043B80
:1002800051F8043B40F8043B51F8043B40F8043B70
:10029000103AEDD20C3205D351F8043B40F8043B40
:1002A000043AF9D2043208D0D2071CBF11F8013B3E
:1002B00000F8013B01D30B8803806046704700BF04
:1002C000082A13D38B078DD010F003038AD0C3F113
:1002D0000403D21ADB071CBF11F8013B00F8013BF5
:1002E00080D331F8023B20F8023B7BE7043AD9D3B4
:1002F000013A11F8013B00F8013BF9D20B78037089
:100300004B7843708B7883706046704781F0004172
:1003100002E000BF83F0004330B54FEA41044FEAEA
:10032000430594EA050F08BF90EA020F1FBF54EA85
:10033000000C55EA020C7FEA645C7FEA655C00F021
:10034000E2804FEA5454D4EB5555B8BF6D420CDDF2
:100350002C4480EA020281EA030382EA000083EA75
:10036000010180EA020281EA0303362D88BF30BD15
:1003700011F0004F4FEA01314FF4801C4CEA11316B
:1003800002D0404261EB410113F0004F4FEA0333CA
:100390004CEA133302D0524263EB430394EA050F55
:1003A00000F0A780A4F10104D5F1200E0DDB02FAC4
:1003B0000EFC22FA05F2801841F1000103FA0EF258
:1003C000801843FA05F359410EE0A5F120050EF11E
:1003D000200E012A03FA0EFC28BF4CF0020C43FA4F
:1003E00005F3C01851EBE37101F0004507D54FF05C
:1003F000000EDCF1000C7EEB00006EEB0101B1F5AC
:10040000801F1BD3B1F5001F0CD349085FEA3000F1
:100410004FEA3C0C04F101044FEA445212F5800FFC
:1004200080F09A80BCF1004F08BF5FEA500C50F199
:10043000000041EB045141EA050130BD5FEA4C0C7C
:10044000404141EB0101013C28BFB1F5801FE9D2D9
:1004500091F0000F04BF01460020B1FA81F308BFFC
:100460002033A3F10B03B3F120020CDA0C3208DDC8
:1004700002F1140CC2F10C0201FA0CF021FA02F1A3
:100480000CE002F11402D8BFC2F1200C01FA02F113
:1004900020FA0CFCDCBF41EA0C019040E41AA2BF38
:1004A00001EB0451294330BD6FEA04041F3C1CDA00
:1004B0000C340EDC04F11404C4F1200220FA04F020
:1004C00001FA02F340EA030021FA04F345EA0301CA
:1004D00030BDC4F10C04C4F1200220FA02F001FA8C
:1004E00004F340EA0300294630BD21FA04F029460E
:1004F00030BD94F0000F83F4801306BF81F48011A7
:100500000134013D4EE77FEA645C18BF7FEA655C19
:1005100029D094EA050F08BF90EA020F05D054EAEB
:10052000000C04BF1946104630BD91EA030F1EBFF0
:100530000021002030BD5FEA545C05D140004941F4
:1005400028BF41F0004130BD14F580043CBF01F5E7
:10055000801130BD01F0004545F0FE4141F47001CD
:100560004FF0000030BD7FEA645C1ABF19461046A8
:100570007FEA655C1CBF0B46024650EA013406BFA9
:1005800052EA033591EA030F41F4002130BD00BF68
:1005900090F0000F04BF0021704730B54FF4806425
:1005A00004F132044FF000054FF0000150E700BFA6
:1005B00090F0000F04BF0021704730B54FF4806405
:1005C00004F1320410F0004548BF40424FF00001F2
:1005D0003EE700BF42004FEAE2014FEA31014FEA35
:1005E00002701FBF12F07F4393F07F4F81F0605184
:1005F000704732F07F4208BF704793F07F4F04BFCF
:1006000041F40021704730B54FF4607401F00045AB
:1006100021F000411CE700BF50EA010208BF70470B
:1006200030B54FF000050AE050EA010208BF7047FC
:1006300030B511F0004502D5404261EB41014FF465
:10064000806404F132045FEA915C3FF4D8AE4FF06D
:1006500003025FEADC0C18BF03325FEADC0C18BF50
:10066000033202EBDC02C2F1200300FA03FC20FAA1
:1006700002F001FA03FE40EA0E0021FA02F11444EE
:10068000BDE600BF70B54FF0FF0C4CF4E06C1CEA07
:1006900011541DBF1CEA135594EA0C0F95EA0C0F78
:1006A00000F0DEF82C4481EA030621EA4C5123EAEB
:1006B0004C5350EA013518BF52EA033541F480111A
:1006C00043F4801338D0A0FB02CE4FF00005E1FBCD
:1006D00002E506F00042E0FB03E54FF00006E1FB17
:1006E00003569CF0000F18BF4EF0010EA4F1FF045A
:1006F000B6F5007F64F5407404D25FEA4E0E6D419A
:1007000046EB060642EAC62141EA55514FEAC520AA
:1007100040EA5E504FEACE2EB4F1FD0C88BFBCF526
:10072000E06F1ED8BEF1004F08BF5FEA500E50F1D7
:10073000000041EB045170BD06F0004646EA01019D
:1007400040EA020081EA0301B4EB5C04C2BFD4EBCF
:100750000C0541EA045170BD41F480114FF0000EC8
:10076000013C00F3AB8014F1360FDEBF002001F036
:10077000004170BDC4F10004203C35DA0C341BDCB0
:1007800004F11404C4F1200500FA05F320FA04F082
:1007900001FA05F240EA020001F0004221F00041B6
:1007A00010EBD37021FA04F642EB06015EEA430E29
:1007B00008BF20EAD37070BDC4F10C04C4F1200559
:1007C00000FA04F320FA05F001FA04F240EA02000C
:1007D00001F0004110EBD37041F100015EEA430EDD
:1007E00008BF20EAD37070BDC4F1200500FA05F2FD
:1007F0004EEA020E20FA04F301FA05F243EA02037C
:1008000021FA04F001F0004121FA04F220EA02008A
:1008100000EBD3705EEA430E08BF20EAD37070BDD0
:1008200094F0000F0FD101F00046400041EB0101B0
:1008300011F4801F08BF013CF7D041EA060195F092
:10084000000F18BF704703F00046520043EB03034C
:1008500013F4801F08BF013DF7D043EA0603704739
:1008600094EA0C0F0CEA135518BF95EA0C0F0CD044
:1008700050EA410618BF52EA4306D1D181EA03018A
:1008800001F000414FF0000070BD50EA410606BF84
:100890001046194652EA430619D094EA0C0F02D1C9
:1008A00050EA013613D195EA0C0F05D152EA03360E
:1008B0001CBF104619460AD181EA030101F000412C
:1008C00041F0FE4141F470014FF0000070BD41F075
:1008D000FE4141F4780170BD70B54FF0FF0C4CF44F
:1008E000E06C1CEA11541DBF1CEA135594EA0C0F6E
:1008F00095EA0C0F00F0A7F8A4EB050481EA030EBB
:1009000052EA03354FEA013100F088804FEA0333A1
:100910004FF0805545EA131343EA12634FEA02226F
:1009200045EA111545EA10654FEA00260EF0004130
:100930009D4208BF964244F1FD0404F5407402D282
:100940005B084FEA3202B61A65EB03055B084FEA13
:1009500032024FF480104FF4002CB6EB020E75EB10
:10096000030E22BFB61A754640EA0C005B084FEA38
:100970003202B6EB020E75EB030E22BFB61A7546B5
:1009800040EA5C005B084FEA3202B6EB020E75EB00
:10099000030E22BFB61A754640EA9C005B084FEA78
:1009A0003202B6EB020E75EB030E22BFB61A754685
:1009B00040EADC0055EA060E18D04FEA051545EA74
:1009C00016754FEA06164FEAC30343EA52734FEA1D
:1009D000C2025FEA1C1CC0D111F4801F0BD141EA96
:1009E00000014FF000004FF0004CB6E711F4801FFB
:1009F00004BF01430020B4F1FD0C88BFBCF5E06FDB
:100A00003FF6AFAEB5EB030C04BFB6EB020C5FEAEA
:100A1000500C50F1000041EB045170BD0EF0004E3F
:100A20004EEA113114EB5C04C2BFD4EB0C0541EA71
:100A3000045170BD41F480114FF0000E013C90E66E
:100A400045EA060E8DE60CEA135594EA0C0F08BF32
:100A500095EA0C0F3FF43BAF94EA0C0F0AD150EA31
:100A600001347FF434AF95EA0C0F7FF425AF1046C4
:100A700019462CE795EA0C0F06D152EA03353FF4EC
:100A8000FDAE1046194622E750EA410618BF52EA69
:100A900043067FF4C5AE50EA41047FF40DAF52EA3D
:100AA00043057FF4EBAE12E74FF0FF3C06E000BFDA
:100AB0004FF0010C02E000BF4FF0010C4DF804CDE7
:100AC0004FEA410C7FEA6C5C4FEA430C18BF7FEAA7
:100AD0006C5C1BD001B050EA410C0CBF52EA430CD5
:100AE00091EA030F02BF90EA020F0020704710F155
:100AF000000F91EA030F58BF994208BF90422CBFE4
:100B0000D8176FEAE37040F0010070474FEA410CDC
:100B10007FEA6C5C02D150EA013C07D14FEA430CFA
:100B20007FEA6C5CD6D152EA033CD3D05DF8040B6B
:100B3000704700BF8446104662468C46194663469D
:100B400000E000BF01B5FFF7B7FF002848BF10F174
:100B5000000F01BD4DF808EDFFF7F4FF0CBF0120B9
:100B600000205DF808FB00BF4DF808EDFFF7EAFF35
:100B700034BF012000205DF808FB00BF4DF808EDF0
:100B8000FFF7E0FF94BF012000205DF808FB00BFE5
:100B90004DF808EDFFF7CEFF94BF012000205DF86F
:100BA00008FB00BF4DF808EDFFF7C4FF34BF01207C
:100BB00000205DF808FB00BF4FEA4102B2F1E043BC
:100BC00024BFB3F5001CDCF1FE5C0DD901F0004C34
:100BD0004FEAC0024CEA5070B2F1004F40EB830084
:100BE00008BF20F00100704711F0804F21D113F1B0
:100BF0003872BCBF01F00040704741F480114FEAE9
:100C00005252C2F11802C2F1200C10FA0CF320FA71
:100C100002F018BF40F001004FEAC1234FEAD3238E
:100C200003FA0CFC40EA0C0023FA02F34FEA4303F8
:100C3000CCE77FEA625307D150EA01331EBF4FF081
:100C4000FE4040F44000704701F0004040F0FE409C
:100C500040F40000704700BF80F0004002E000BF99
:100C600081F0004142001FBF5FEA410392EA030F97
:100C70007FEA226C7FEA236C6AD04FEA1262D2EBE1
:100C80001363C1BFD218414048404140B8BF5B42E6
:100C9000192B88BF704710F0004F40F4000020F07F
:100CA0007F4018BF404211F0004F41F4000121F095
:100CB0007F4118BF494292EA030F3FD0A2F10102DF
:100CC00041FA03FC10EB0C00C3F1200301FA03F11D
:100CD00000F0004302D5494260EB4000B0F5000F40
:100CE00013D3B0F1807F06D340084FEA310102F1FF
:100CF0000102FE2A51D2B1F1004F40EBC25008BFB1
:100D000020F0010040EA03007047490040EB00007A
:100D1000013A28BFB0F5000FEDD2B0FA80FCACF17B
:100D2000080CB2EB0C0200FA0CF0AABF00EBC250A8
:100D300052421843BCBFD0401843704792F0000F96
:100D400081F4000106BF80F400000132013BB5E7E9
:100D50004FEA41037FEA226C18BF7FEA236C21D05F
:100D600092EA030F04D092F0000F08BF08467047C4
:100D700090EA010F1CBF0020704712F07F4F04D192
:100D8000400028BF40F00040704712F100723CBFA5
:100D900000F50000704700F0004343F0FE4040F4CF
:100DA000000070477FEA226216BF08467FEA23638D
:100DB0000146420206BF5FEA412390EA010F40F478
:100DC000800070474FF0000304E000BF10F00043C4
:100DD00048BF40425FEA000C08BF704743F09643AB
:100DE00001464FF000001CE050EA010208BF7047C6
:100DF0004FF000030AE000BF50EA010208BF70474D
:100E000011F0004302D5404261EB41015FEA010C61
:100E100002BF84460146002043F0B64308BFA3F159
:100E20008053A3F50003BCFA8CF2083AA3EBC2533B
:100E300010DB01FA02FC634400FA02FCC2F120025A
:100E4000BCF1004F20FA02F243EB020008BF20F091
:100E50000100704702F1200201FA02FCC2F12002F7
:100E600050EA4C0021FA02F243EB020008BF20EAEC
:100E7000DC7070474FF0FF0C1CEAD0521EBF1CEA1A
:100E8000D15392EA0C0F93EA0C0F6FD01A4480EA08
:100E9000010C400218BF5FEA41211ED04FF00063F1
:100EA00043EA501043EA5111A0FB01310CF000401D
:100EB000B1F5000F3EBF490041EAD3715B0040EA43
:100EC000010062F17F02FD2A1DD8B3F1004F40EB13
:100ED000C25008BF20F00100704790F0000F0CF0E6
:100EE000004C08BF49024CEA502040EA51207F3AAA
:100EF000C2BFD2F1FF0340EAC250704740F4000085
:100F00004FF00003013A5DDC12F1190FDCBF00F075
:100F100000407047C2F10002410021FA02F1C2F123
:100F2000200200FA02FC5FEA310040F1000053EABF
:100F30004C0308BF20EADC70704792F0000F00F00D
:100F4000004C02BF400010F4000F013AF9D040EA13
:100F50000C0093F0000F01F0004C02BF490011F4A7
:100F6000000F013BF9D041EA0C018FE70CEAD153A5
:100F700092EA0C0F18BF93EA0C0F0AD030F0004C25
:100F800018BF31F0004CD8D180EA010000F00040D9
:100F9000704790F0000F17BF90F0004F084691F097
:100FA000000F91F0004F14D092EA0C0F01D14202D1
:100FB0000FD193EA0C0F03D14B0218BF084608D19A
:100FC00080EA010000F0004040F0FE4040F40000E4
:100FD000704740F0FE4040F4400070474FF0FF0C77
:100FE0001CEAD0521EBF1CEAD15392EA0C0F93EABE
:100FF0000C0F69D0A2EB030280EA010C49024FEA10
:10100000402037D04FF0805343EA111143EA1013C8
:101010000CF000408B4238BF5B0042F17D024FF480
:10102000000C8B4224BF5B1A40EA0C00B3EB510F5B
:1010300024BFA3EB510340EA5C00B3EB910F24BF44
:10104000A3EB910340EA9C00B3EBD10F24BFA3EBC9
:10105000D10340EADC001B0118BF5FEA1C1CE0D191
:10106000FD2A3FF650AF8B4240EBC25008BF20F044
:10107000010070470CF0004C4CEA50207F32C2BF98
:10108000D2F1FF0340EAC250704740F400004FF035
:101090000003013A37E792F0000F00F0004C02BF66
:1010A000400010F4000F013AF9D040EA0C0093F030
:1010B000000F01F0004C02BF490011F4000F013B8A
:1010C000F9D041EA0C0195E70CEAD15392EA0C0FF2
:1010D00008D142027FF47DAF93EA0C0F7FF470AF2A
:1010E000084676E793EA0C0F04D14B023FF44CAF6D
:1010F00008466EE730F0004C18BF31F0004CCAD102
:1011000030F000427FF45CAF31F000437FF43CAF3D
:101110005FE700BF4FF0FF3C06E000BF4FF0010C5F
:1011200002E000BF4FF0010C4DF804CD4FEA400241
:101130004FEA41037FEA226C18BF7FEA236C11D08B
:1011400001B052EA530C18BF90EA010F58BFB2EB3E
:10115000030088BFC81738BF6FEAE17018BF40F0BE
:10116000010070477FEA226C02D15FEA402C05D172
:101170007FEA236CE4D15FEA412CE1D05DF8040BF7
:10118000704700BF844608466146FFE70FB5FFF78A
:10119000C9FF002848BF10F1000F0FBD4DF808ED42
:1011A000FFF7F4FF0CBF012000205DF808FB00BF33
:1011B0004DF808EDFFF7EAFF34BF012000205DF88D
:1011C00008FB00BF4DF808EDFFF7E0FF94BF0120DA
:1011D00000205DF808FB00BF4DF808EDFFF7D2FFD7
:1011E00094BF012000205DF808FB00BF4DF808ED1A
:1011F000FFF7C8FF34BF012000205DF808FB00BFE7
:101200004FEA4002B2F1FE4F0FD34FF09E03B3EB13
:1012100012620DD94FEA002343F0004310F0004F53
:1012200023FA02F018BF404270474FF000007047A9
:1012300012F1610F01D1420205D110F0004008BF48
:101240006FF0004070474FF00000704742000ED230
:10125000B2F1FE4F0BD34FF09E03B3EB126209D4F1
:101260004FEA002343F0004323FA02F070474FF0A7
:101270000000704712F1610F01D1420202D14FF01C
:10128000FF3070474FF00000704700BF7BB972B964
:101290000029BEBF00204FF0004106E008BF002833
:1012A0001CBF6FF000414FF0FF3000F057B8ADF1B8
:1012B000080C6DE904CE002909DB002B1ADB00F0D5
:1012C0004FF8DDF804E0DDE9022304B07047404246
:1012D00061EB4101002B1BDB00F042F8DDF804E07C
:1012E000DDE9022304B0404261EB4101524263EB6D
:1012F00043037047524263EB430300F031F8DDF8DB
:1013000004E0DDE9022304B0404261EB4101704793
:10131000524263EB430300F023F8DDF804E0DDE91B
:10132000022304B0524263EB4303704753B94AB9F6
:10133000002908BF00281CBF4FF0FF314FF0FF30DD
:1013400000F00CB8ADF1080C6DE904CE00F008F81F
:10135000DDF804E0DDE9022304B07047704700BF08
:101360002DE9F0478C468E46089E154604461946E0
:10137000002B40F0D080724547D9B2FA82F74FB1C6
:10138000C7F120030EFA07FC20FA03F3BD4043EA3D
:101390000C0CBC404FEA154EA8B2BCFBFEF8230C67
:1013A0000EFB18CC08FB00F943EA0C43994528D9F9
:1013B000EB1808F1FF3204D2994502D9A8F10202D4
:1013C0002B44A3EB0903A4B2B3FBFEFC0EFB1C33BE
:1013D0000CFB00F044EA0344A04214D92C190CF190
:1013E000FF3304D2A04202D9ACF102032C44241AE8
:1013F00043EA02401EB1FC40002334607360BDE844
:10140000F0874246DDE76346F1E7002A79D0B2FA79
:1014100082F3002B3FD01946C1F1200302FA01F5F7
:101420002EFA03F20EFA01FE20FA03F343EA0E034A
:101430004FEA154E00FA01F4B2FBFEFCAFB20EFB10
:101440001C201A0C0CFB07F842EA004290455AD9BE
:10145000AA180CF1FF3004D2904502D9ACF1020079
:101460002A44A2EB08029BB2B2FBFEFC0EFB1C223C
:101470000CFB07F743EA02439F4246D9EB180CF1F5
:10148000FF3204D29F4202D9ACF102022B44DB1B93
:1014900042EA004202E0AEEB020301224FEA154E9F
:1014A000AFB2B3FBFEFC200C0EFB1C330CFB07F8A9
:1014B00040EA034398452AD9EB180CF1FF3004D2D7
:1014C000984502D9ACF102002B44A3EB0803A4B267
:1014D000B3FBFEFC0EFB1C330CFB07F744EA034492
:1014E000A74216D92C190CF1FF3304D2A74202D916
:1014F000ACF102032C44E41B43EA00400F461146C2
:1015000078E71F2188E76046ABE76246BFE76046A1
:10151000DBE76346EFE7734506D916B900210846B5
:101520006DE7C6E9000EF9E7B3FA83F787B97345AB
:1015300001D3824207D8841A6EEB030301209C4634
:101540001EB900215BE73846FAE7C6E9004CF8E728
:10155000C7F1200CBB4022FA0CF51D4320FA0CF118
:101560002EFA0CF30EFA07FE41EA0E014FEA154976
:1015700000FA07F4B3FBF9F81FFA85FE09FB1830EF
:101580000B0C08FB0EFA43EA00439A4502FA07F2F5
:1015900040D9EB1808F1FF3004D29A4502D9A8F1DE
:1015A00002002B44A3EB0A0389B2B3FBF9F809FB51
:1015B000183308FB0EFE41EA03418E452CD9691809
:1015C00008F1FF3304D28E4502D9A8F10203294461
:1015D00043EA0040A0FB0298A1EB0E014145CE4634
:1015E000434602D306D14C4504D2B9EB020E68EB58
:1015F00005030138002EA4D0B4EB0E0261EB030109
:1016000001FA0CFC22FA07F34CEA0303F940C6E99D
:10161000003196E74046C5E74346D9E700000000A1
:10162000F0B587B00446284B18686A46032101F0DC
:101630007BFE0546002840D1002C3ED00098FEF7E6
:10164000B7FF06460F460198FEF7B2FF1CA3D3E989
:101650000023FFF741F902460B4630463946FEF7B4
:101660005BFEC4E900010298FEF7A2FF06460F46A2
:101670000398FEF79DFF12A3D3E90023FFF72CF98F
:1016800002460B4630463946FEF746FEC4E90201E3
:101690000498FEF78DFF06460F460598FEF788FF73
:1016A00007A3D3E90023FFF717F902460B4630469C
:1016B0003946FEF731FEC4E90401284607B0F0BD03
:1016C0000000000080842E4158200020000000000F
:1016D000F0B587B00446284B18686A46072101F028
:1016E00023FE0546002840D1002C3ED00098FEF78E
:1016F0005FFF06460F460198FEF75AFF1CA3D3E989
:101700000023FFF7E9F802460B4630463946FEF75C
:1017100003FEC4E900010298FEF74AFF06460F46A1
:101720000398FEF745FF12A3D3E90023FFF7D4F88F
:1017300002460B4630463946FEF7EEFDC4E902018B
:101740000498FEF735FF06460F460598FEF730FF72
:1017500007A3D3E90023FFF7BFF802460B46304644
:101760003946FEF7D9FDC4E90401284607B0F0BDAB
:101770000000000080842E4158200020000000005E
:101780002DE9F04F91B001F011FE0AA800240A944F
:1017900044608460C4600461446104AD04940594B1
:1017A0000694079408940994FFF73AFF2846FFF738
:1017B0008FFF14F062F9431880F0A48023445E4A3E
:1017C000A2FB034525F0030404EB95041B1BC01A80
:1017D00061F100034FF0CC3100FB01F102FB03117A
:1017E000A0FB02021144400840EAC1704908FEF71C
:1017F0001BFF0022514BFFF76FF804460D46DDE951
:101800000A6732463B4630463946FEF73BFF824682
:101810008B46DDE90E8942464B4640464946FEF777
:1018200031FF02460B4650465946FEF775FD10F053
:10183000BFFA82468B4600220023FFF78BF900286F
:1018400062D152465B46DDE90C01FFF745F800F036
:1018500083F837A3D3E90023FEF714FF82468B46B3
:1018600042464B463046394600F04EFA30A3D3E9A3
:101870000023FEF707FF06460F460022304BFFF716
:1018800073F938B100222F4B2F49D1E90001FFF73E
:1018900089F980B900222B4B30463946FFF782F98F
:1018A000002836D00022264B2749D1E90001FFF756
:1018B0005BF900282DD0254BC3E90667224BC3E90D
:1018C0000067CDE90245DDE90423CDE90023524656
:1018D0005B461F4810F0E8FE1B4EC6E90201224697
:1018E0002B46DDE90801FEF7CDFE00220023FEF7BE
:1018F00013FDC6E90401174B186800F0ABFE11B0E8
:10190000BDE8F08F012459E74FF0000A4FF0000BBB
:10191000A6E7CDE90245DDE90623CDE900233246FD
:101920003B460A4810F0C0FE074BC3E90001C8E778
:10193000F8C1631ADCA54C40CDCCCCCC00408F4024
:10194000008056C00080564030070020480000202C
:1019500000000020281000202DE9F04FCA4A21F095
:101960000043934285B004460D468A4614D9C74ABF
:10197000934200F2EB8000F0E680BAF1000F9EA3E4
:10198000D3E9002340F314819DA1D1E90001FEF7C2
:10199000C3FC05B0BDE8F08FBD4A934200F2A180C0
:1019A000A2F1DE72934240F2D78000220023CDE9FB
:1019B0000223CDE900234FF0FF3B22462B46204671
:1019C0002946FEF75FFE02460B4680468946FEF733
:1019D00059FE8DA3D3E9002306460F46FEF752FEBB
:1019E0008BA3D3E90023FEF797FC32463B46FEF774
:1019F00049FE89A3D3E90023FEF78EFC32463B461D
:101A0000FEF740FE86A3D3E90023FEF785FC3246AD
:101A10003B46FEF737FE84A3D3E90023FEF77CFCA8
:101A200032463B46FEF72EFE81A3D3E90023FEF7A4
:101A300073FC42464B46FEF725FE7FA3D3E9002305
:101A40008046894630463946FEF71CFE7CA3D3E922
:101A50000023FEF75FFC32463B46FEF713FE7AA3F7
:101A6000D3E90023FEF756FC32463B46FEF70AFE5A
:101A700077A3D3E90023FEF74DFC32463B46FEF741
:101A800001FE75A3D3E90023FEF744FC32463B4632
:101A9000FEF7F8FD02460B4640464946FEF73CFC81
:101AA00022462B46FEF7EEFDBBF1FF3F02460B46FA
:101AB00000F08680DDE90223FEF72CFC22462B464F
:101AC000FEF728FC02460B46DDE90001FEF722FC8A
:101AD000BAF1000F40DA01F10043194605B0BDE844
:101AE000F08F6C4A9342064621F0004737D8A2F5A2
:101AF0005022934200F2D88002463B463946FEF718
:101B00000BFC654B0022FEF705FC002204460D4647
:101B10004FF0804330463946FEF7FEFB02460B4647
:101B200020462946FEF7D8FE4DA4D4E90034CDE97D
:101B300002344DA3D3E900230446CDE900230D462A
:101B40004FF0000B39E700283FF417AF22462B4631
:101B500020462946FEF7E0FB05B0BDE8F08F4F4A6E
:101B6000934234D24E4B00223946FEF7D3FB4C4B06
:101B700004460D46002230463946FEF783FD464BAB
:101B80000022FEF7C9FB02460B4620462946FEF717
:101B9000A3FE37A4D4E90034CDE9023436A3D3E957
:101BA00000230446CDE900230D464FF0020B04E765
:101BB00033A1D1E90001FEF7ADFB05B0BDE8F08F20
:101BC00020462946FEF7A6FB05B0BDE8F08F024689
:101BD0003B4634490020FEF77FFE07A4D4E90034D9
:101BE000CDE9023406A3D3E900230446CDE900235E
:101BF0000D464FF0030BE0E6075C143326A6913C3C
:101C0000182D4454FB21F93F11DA22E33AAD903FFD
:101C1000EB0D76244B7BA93F513DD0A0660DB13F23
:101C20006E204CC5CD45B73FFF8300922449C23F8B
:101C30000D5555555555D53F2F6C6A2C44B4A2BF50
:101C40009AFDDE522DDEAD3F6D9A74AFF2B0B33F18
:101C5000711623FEC671BC3FC4EB98999999C93F90
:101C6000E2652F227F2B7A3C4FBB610567ACDD3FDD
:101C7000BDCBF07A8807703C9BF681D20B73EF3FA7
:101C8000182D4454FB21F9BFFFFF0F440000F07FE3
:101C9000FFFFDB3FFFFFF23F0000F03F008003400B
:101CA0000000F83F0000F0BF154B00223946FEF758
:101CB00031FB134B04460D46002230463946FEF7F1
:101CC0002BFB02460B4620462946FEF705FE08A4DC
:101CD000D4E90034CDE9023407A3D3E90023044654
:101CE000CDE900230D464FF0010B66E6AFF300800F
:101CF000075C143326A6813C182D4454FB21E93F90
:101D00000000F03F000000002DE9F84F99465342D3
:101D10007F4F134329F0004E4EEAD373BB429046E7
:101D200004460D463ED84642064321F0004A4AEAA0
:101D3000D676BE4203468B4634D809F1404606F5B6
:101D4000801616434FD04FEAA97606F0020653EAF2
:101D50000A0346EAD1762DD052EA0E0237D0BE45AC
:101D600054D0BA4533D0AAEB0E0ABAF1747F4FEAC9
:101D70002A5357DB50A3D3E9002351A1D1E9000135
:101D8000FEF7CAFA012E68D0022E59D086B14EA3B2
:101D9000D3E90023FEF7BEFA4DA3D3E90023FEF7F3
:101DA000B9FA05E022462B4640464946FEF7B4FA0A
:101DB000BDE8F88F022E1AD0032EF9D146A3D3E93D
:101DC000002347A1D1E90001FEF7A4FAF0E7BBF137
:101DD000000F41A3D3E9002312DB39A1D1E90001AF
:101DE000FEF79AFAE4E7BDE8F84FFFF7B5BD3AA36E
:101DF000D3E9002336A1D1E90001FEF78DFAD7E738
:101E000039A1D1E90001FEF785FAD1E7F24528D0E2
:101E1000022EECD0032ED1D0012E4FF0000034D092
:101E20000021C5E7B9F1000F2ADB42464B462046A8
:101E30002946FEF751FD21F00041FFF78DFDA1E796
:101E400021A3D3E90023FEF765FA02460B4620A141
:101E5000D1E90001FEF75EFAAAE701F10043194655
:101E6000A6E7022E1CA3D3E900231DD0032E15D014
:101E7000012E0DD01EA1D1E90001FEF74DFA97E722
:101E80003C33D2DA002000217CE74FF000418FE79D
:101E900019A1D1E90001FEF73DFA89E718A1D1E9BE
:101EA0000001FEF737FA83E717A1D1E90001FEF739
:101EB00033FA7DE7AFF30080075C143326A6913C2C
:101EC000182D4454FB21F93F075C143326A6A13C8E
:101ED000182D4454FB21094059F3F8C21F6EA50187
:101EE000182D4454FB2109C0182D4454FB21F9BF7F
:101EF000182D4454FB21E93F182D4454FB21E9BF20
:101F0000D221337F7CD902C0D221337F7CD90240D9
:101F10000000F07F00B587B001A9002001F02CFC83
:101F200003AC0223029A0A21204601F05BFA224602
:101F30000199034810F0DDFD642010F028F8EBE76C
:101F4000D862010808B5FFF71BFC044B186810F0B5
:101F5000FBFA012010F01BF8F5E700BF4811002044
:101F6000D0B588B000260027CDE906670024049488
:101F700002230393029401940094244B4FF40462CF
:101F8000234924480CF0DEFBCDE9066704940523C1
:101F900003930294019400941F4B4FF488621F49ED
:101FA0001F480CF0CFFBCDE906670494042303938C
:101FB0000294019400941B4B4FF4C8621A491B48C9
:101FC0000CF0C0FBCDE9066704940A230393029446
:101FD00001940094164B4FF48862164916480CF091
:101FE000B1FBCDE9066704940B230393029401949B
:101FF0000094124B4FF41072114912480CF0A2FBDE
:1020000042F2107000210DF059FEF9E7451F00085B
:102010000036002050060020CB1F0108C0310020F0
:10202000D0050020BD1F0108802B00205005002096
:10203000AF1F010840270020D0040020151F000812
:1020400000250020500400200023032B0DD803EBB3
:102050004302074931F81220824201D00133F4E7EC
:1020600003EB430301EB430070470020704700BFC0
:1020700074AA0108FF2805D008B5034B1B6803B1FB
:10208000984708BD704700BF0010002010B5044CF1
:1020900023689878FFF7EEFF0023236010BD00BF90
:1020A000FC0F002008B5034B1B681879FFF7E2FF0F
:1020B00008BD00BFF80F002038B58568C088FFF75D
:1020C000C3FF002842D00446012D3CD1204B1B68A1
:1020D00083421AD0E378FF2B31D01E4D28460CF0F6
:1020E000E7F91B4B1C604FF47A62002328460CF082
:1020F00045F92379FF2B29D0174B1C604FF4FA5276
:10210000002316480CF03AF920E012480CF0D0F900
:102110000028DFD111480CF0CBF90D4B00221A60DA
:10212000E078FFF7A7FF2379FF2B0FD00A4B1C6045
:102130004FF4FA52002309480CF020F906E0A07889
:10214000FFF798FFD5E705480CF0B2F938BD00BF9E
:10215000FC0F002000070020F80F0020D006002010
:1021600008B5054905480CF053F8054905480CF039
:102170004FF8002008BD00BF8D2000080007002098
:10218000A5200008D0060020014B1860704700BF52
:102190000010002090F82530064AA2FB031202F03E
:1021A000FC0101EB92029B1ADBB2034A52F82300B6
:1021B000704700BFCDCCCCCC8CAA010808B505482F
:1021C00004F01EFA0448FFF7DFFF044B01221A70E7
:1021D000002008BDD85D010879240008E92400200A
:1021E00000B583B00B468DF8042000228DF8052041
:1021F000024601A9024811F0A7FB03B05DF804FBF9
:10220000D85D01082DE9F0410646384C00212046F2
:1022100004F0E8F900231A463168204611F094FBD7
:102220003469002302E064690133DBB2727E9A42B2
:1022300001D9002CF7D130460FF049FF8046002726
:1022400019E02B4600222A49284811F07DFB25E0A1
:1022500020460FF0C1FE58B32B460E2225492348D5
:1022600011F072FB2B4620222168204811F06CFBF4
:1022700064690137FFB214B3022F20D83D01EDB2DB
:102280001235EDB2737E3B44DBB2327E9A42D8D037
:102290002B4600221849154811F056FB2369002BE4
:1022A000D6D02B460E221549104811F04DFBD9E728
:1022B0002B460E2212490D4811F046FBD2E7B8F129
:1022C000030F05D9737E2BB9737E0333434507DBB8
:1022D000BDE8F0815E2212217820FFF781FFF3E74D
:1022E000762232217820FFF77BFFF1E7D85D0108E5
:1022F000F86201080863010800630108046301082B
:102300000C6301082DE9F04782B0804689461746E4
:102310001D4600211046FEF74BFF40B9BA46504615
:10232000FEF76EFF06464FF0000C012407E007F1B0
:10233000004AF4E704EB840464000CF1010CAC45A2
:10234000F8DB3046FEF742FD01465046FEF788FCBA
:1023500082462046FEF73AFD01465046FEF78AFDCA
:102360004FF07C51FEF77EFCFEF74AFF8246844226
:1023700002DC0136A0EB040A00213846FEF718FF04
:1023800058B9CDF804A000953346094A494640465D
:102390000EF082FF02B0BDE8F087CDF804A00095F2
:1023A0003346044A494640460EF076FFF2E700BF46
:1023B0001C63010810630108F8B50C46154690F837
:1023C000243043B9C26932B11368154A2946204600
:1023D0000EF062FF06E0012B05D02D232370637001
:1023E0000023A370F8BD036A002BF6D01E683046A8
:1023F000FEF706FF0746FEF7E9FC3146FEF7CEFE84
:1024000030B13B46064A294620460EF045FFE9E733
:102410000223324629462046FFF774FFE2E700BF59
:102420002463010810B4044608460A600B71019B3E
:102430008B60CC6000230B614B610B764B76CB61DC
:102440000B6281F82430012281F825208B62CB6257
:1024500034B123694BB11A465B69002BFBD1506143
:10246000044B1B681BB110BC70472161F8E7014B9E
:102470001860F8E72410002010B5704B1C68002C81
:1024800000F0D380052800F2D080DFE810F034009F
:10249000060062009100B300CA00694B1B781BB1B3
:1024A00020460FF099FDF8B92369002B00F0BD809C
:1024B00020460FF00CFE002800F0B780237E013389
:1024C00093FBF0F100FB1133DBB22376627E023224
:1024D0009A4201DA9A1E6276627E934200D2637655
:1024E000584B01221A70A0E020460FF0BBFD554B5F
:1024F00001221A7099E0524B1B781BB120460FF055
:102500006BFDE0B92369002B00F08F8020460FF0AF
:10251000DEFD002800F08980237EBBB9421ED3B2C5
:102520002376627E9A4200D96376627E02329A42B4
:1025300001DA023B6376434B01221A7075E02046B4
:102540000FF05BFD3F4B01221A706EE0013BDBB2E6
:10255000E6E72269F2B1002302E052690133DBB2FF
:10256000217E994201D9002AF7D1002A5DD0364B4D
:102570001B68062B05DC013333490B60334941F8F6
:1025800023402E4B1A602E4B00221A702D4B012235
:102590001A704AE020460FF01FFD002845D0284A57
:1025A000137883F001031370264B01221A703CE06C
:1025B000234B1B7833B1224B00221A70214B01228E
:1025C0001A7032E0204B1B68002B0BDB591E1E4A91
:1025D00011601E4A52F82320184B1A60194B012231
:1025E0001A7022E0E36803B3144A1360154B01220A
:1025F0001A701AE0124B1B78BBB120460FF0ECFCAE
:1026000098B194F825200132114B83FB02135B1023
:1026100003EB8303D31A84F825300A4B01221A7086
:1026200003E020460FF0D8FC00B910BD20460FF0A3
:1026300057FD044B01221A70F7E700BF2410002059
:10264000E8240020E92400203003002004100020AA
:102650006766666618B1044A1268824200D0704705
:10266000024B01221A70FAE724100020E92400200E
:102670003F4B1B78002B7AD03E4B1B68002B76D04B
:1026800030B58BB000213A4B19703B4803F092FFF4
:10269000384B1868036933B1FFF7B4FD364803F0CF
:1026A0002BFF0BB030BD8368002B3ED09847314BD9
:1026B00018680FF091FC0028F0D02F4C0021204624
:1026C00003F090FF05AD142229462A4B1868FFF746
:1026D00073FE302300222946204611F035F9274B9E
:1026E0001B78002B3CD0234B1868FFF753FD0446A2
:1026F000FEF786FD0546FEF769FB2146FEF74EFD17
:1027000008B32B461E4A0C2102A80EF0C5FD1A4C38
:1027100030233C2202A9204611F016F9302364220E
:102720001849204611F010F9B8E7134C0021204653
:1027300003F058FF0F4B1968182300220968204640
:1027400011F002F9B3E70223224608216846FFF799
:10275000D9FD6B460C4A0C2102A80EF09DFDD6E770
:10276000302348220949044811F0EEF896E77047F3
:10277000E924002024100020D85D0108E82400206E
:1027800028630108386301083063010840630108C9
:1027900070B582B01C4D0024009423461B4A294684
:1027A0002046FFF73FFE1A4E00942346194A314651
:1027B0002846FFF737FE184B00930123174A1849A4
:1027C0002846FFF72FFE174B1860174B0093012385
:1027D000164A17492846FFF725FE164B1860164D76
:1027E000164B00930123164A29463046FFF71AFE7E
:1027F000144BEB6185F82440AC626423EB62322316
:102800002B63204602B070BD101100204863010800
:10281000D8100020506301083D29000858630108C2
:102820006810002064100020692800086063010817
:102830002C10002028100020A0100020492800089B
:10284000686301083403002038B50446054D0021B3
:10285000284603F0C7FE00231A462168284611F0D7
:1028600073F838BDD85D0108F0B593B004462F4D1C
:102870000121284603F0B6FE00231A4621682846A7
:1028800011F062F80021284603F0ACFE68460024EF
:1028900000940194029403940494059400F094FD30
:1028A000DDE90001FEF788F902460EAF0223102190
:1028B000384600F097FD06AE3B461D4A20213046C3
:1028C0000EF0EAFC142322463146284611F03CF86B
:1028D000DDE90201FEF770F90246022310213846B5
:1028E00000F080FD3B46134A202130460EF0D4FC18
:1028F000142340223146284611F026F8DDE9040170
:10290000FEF75AF9024602231021384600F06AFD0C
:102910003B46094A202130460EF0BEFC1E232246CB
:102920003146284611F010F813B0F0BDD85D01080B
:10293000706301087C630108846301082DE9F0419C
:1029400092B00446504F0021384603F04BFE00235E
:102950001A462168384610F0F7FF002600960196C7
:1029600002960396049605966846FEF759FEDDE941
:102970000001FEF721F902460EAD02231021284680
:1029800000F030FD06AC2B46404A202120460EF0D8
:1029900083FC0A2332462146384610F0D5FFDDE994
:1029A0000201FEF709F9024602231021284600F031
:1029B00019FD2B46364A202120460EF06DFC0A23D5
:1029C00040222146384610F0BFFFDDE90401FEF742
:1029D000F3F8024602231021284600F003FD2B469F
:1029E0002C4A202120460EF057FC14233246214663
:1029F000384610F0A9FF6846FEF76AFEDDE90001DF
:102A0000FEF7DAF8024602231021284600F0EAFC1D
:102A10002B46214A202120460EF03EFC1423402262
:102A20002146384610F090FFDDE90201FEF7C4F8B8
:102A3000024602231021284600F0D4FC2B46174AF8
:102A4000202120460EF028FC1E233246214638461F
:102A500010F07AFFDDE90401FEF7AEF8024602232A
:102A60001021284600F0BEFC2B460D4A20212046AE
:102A70000EF012FC1E2340222146384610F064FF5F
:102A800012B0BDE8F08100BFD85D01088C63010879
:102A9000946301089C630108A4630108AC63010806
:102AA000B4630108034668B179B1106880B19068D9
:102AB00088B159609A600020187398735873074A58
:102AC0001A6070474FF0FF3070474FF0FF3070478B
:102AD0004FF0FF3070474FF0FF307047CCB2010825
:102AE00008B5064A06490748FFF7DCFF18B9064B48
:102AF000044A1A6008BD4FF0FF30FBE7FCB2010842
:102B00004C110020A81700204811002010B5064CD9
:102B10000022114620680FF0D1FC14220121206808
:102B20000FF0CCFC002010BD48110020C2788B1F94
:102B30009A4241D100B583B000231A469E4608E070
:102B400010F803C0F4445FFA8CFE7244D2B2013331
:102B5000DBB2A1F1020C6345F2DB10F80C307345D7
:102B600016D10139435C934212D1837873B9ADF821
:102B700004308DF80630037953B9437943B983792A
:102B800033B90E4B18680FF0F0FC01E0E02B02D0D7
:102B900003B05DF804FB01A90023ADF804308B708D
:102BA00083788DF804308DF805E08DF80620034B0E
:102BB00018680FF072FCEBE7704700BF4811002067
:102BC00070B582B00C46154638B101281BD10B7880
:102BD0005A1C0A700122EA5415E001AE0023ADF838
:102BE00004308DF806303146084B18680FF08AFC27
:102BF0002378EA18BDF804009DF80610E852917099
:102C000023780333237002B070BD00BF4811002049
:102C100008B50A460146024B18680FF0B7FC08BD1C
:102C2000B817002010B5064C20680FF07CFC00217E
:102C300020680FF056FCE02120680FF052FC10BD18
:102C40004811002010B550B1836815498B4216D247
:102C500014498B4213D31B6C03B1984710BD124C1F
:102C600040F25B132246114911480FF059FF1148F9
:102C70000FF056FF40F25B1120460FF048FF0A4C60
:102C800040F25B1322460C4909480FF049FF0B49FB
:102C90000B480FF045FF40F25B1120460FF037FF65
:102CA0007861010814610108BC630108FC63010834
:102CB000106401083064010844640108B07301081D
:102CC0008465010810B550B1836815498B4216D24E
:102CD00014498B4213D35B6B03B1984710BD124C60
:102CE00040F231132246114911480FF019FF1148E3
:102CF0000FF016FF40F2311120460FF008FF0A4C8A
:102D000040F2311322460C4909480FF009FF0B49E4
:102D10000B480FF005FF40F2311120460FF0F7FE8F
:102D20007861010814610108BC630108FC630108B3
:102D3000106401083064010844640108B07301089C
:102D40008465010810B550B1836815498B4216D2CD
:102D500014498B4213D3DB6D03B1984710BD124C5D
:102D60004FF4DE732246114911480FF0D9FE114885
:102D70000FF0D6FE4FF4DE7120460FF0C8FE0A4C6D
:102D80004FF4DE7322460C4909480FF0C9FE0B4987
:102D90000B480FF0C5FE4FF4DE7120460FF0B7FE72
:102DA0007861010814610108BC630108FC63010833
:102DB000106401083064010844640108B07301081C
:102DC0008465010810B550B1836817498B4216D24B
:102DD00016498B4213D3DB6B13B3984710BD144CC9
:102DE00040F24B132246134913480FF099FE134843
:102DF0000FF096FE40F24B1120460FF088FE0C4C6F
:102E000040F24B1322460E490B480FF089FE0D4944
:102E10000D480FF085FE40F24B1120460FF077FE73
:102E20006FF05700DAE700BF78610108146101080C
:102E3000BC630108FC6301081064010830640108E8
:102E400044640108B07301088465010810B560B1DD
:102E5000844683681548834215D21548834212D3AD
:102E6000DB6AFBB16046984710BD124CE92322464D
:102E7000114912480FF054FE11480FF051FEE9219C
:102E800020460FF044FE0B4CE92322460D490B4827
:102E90000FF046FE0C490D480FF042FEE921204696
:102EA0000FF035FE6FF05700DEE700BF78610108D4
:102EB00014610108BC630108FC6301081064010887
:102EC0003064010844640108B07301088465010896
:102ED00010B550B1836815498B4216D214498B4204
:102EE00013D39B6B03B1984710BD124C4FF49F73E3
:102EF0002246114911480FF013FE11480FF010FE41
:102F00004FF49F7120460FF002FE0A4C4FF49F735E
:102F100022460C4909480FF003FE0B490B480FF0FD
:102F2000FFFD4FF49F7120460FF0F1FD786101081D
:102F300014610108BC630108FC6301081064010806
:102F40003064010844640108B07301088465010815
:102F500010B550B1836817498B4216D216498B427F
:102F600013D3DB6C13B3984710BD144C4FF4C273EA
:102F70002246134913480FF0D3FD13480FF0D0FD3C
:102F80004FF4C27120460FF0C2FD0C4C4FF4C273D7
:102F900022460E490B480FF0C3FD0D490D480FF0B6
:102FA000BFFD4FF4C27120460FF0B1FD6FF0570026
:102FB000DAE700BF7861010814610108BC63010809
:102FC000FC630108106401083064010844640108CE
:102FD000B07301088465010810B560B18446836848
:102FE0001748834217D21748834214D31B6B1BB375
:102FF0006046984710BD144C40F20D132246134909
:1030000013480FF08DFD13480FF08AFD40F20D11AB
:1030100020460FF07CFD0C4C40F20D1322460E4969
:103020000B480FF07DFD0D490D480FF079FD40F282
:103030000D1120460FF06BFD6FF05700DAE700BF6F
:103040007861010814610108BC630108FC63010890
:10305000106401083064010844640108B073010879
:103060008465010838B578B1B0FA80F464098368E2
:10307000194DAB421BD2194DAB4218D3A3B11B6EF5
:1030800033B39847204638BD154C4FF4E4732246BD
:10309000144915480FF044FD14480FF041FD4FF45A
:1030A000E47120460FF033FD6FF05704EAE70C4C53
:1030B0004FF4E47322460E490B480FF031FD0D49E1
:1030C0000D480FF02DFD4FF4E47120460FF01FFD69
:1030D0006FF05704D6E700BF78610108146101085A
:1030E000BC630108FC630108106401083064010836
:1030F00044640108B07301088465010810B50C46EA
:1031000041608260C36000230374044B0360024685
:1031100003492068FFF7A6FF10BD00BF14B30108E4
:103120001526010808B5164B1B68164A1268164981
:103130001648FFF7E3FF034608B1184608BD144BD5
:103140001B68144A126814491448FFF7D7FF034656
:103150000028F2D10D48124B1860124B0F4A1A602A
:103160004FF47A710FF01DFA03460028E5D14FF4B1
:103170007A710C4B18680FF014FA0346DDE700BFB4
:10318000201C0020241C002020B30108D41700209C
:10319000E8170020EC1700201CB30108BC17002022
:1031A000D0170020B8170020B1F5004F09D20161F7
:1031B000026000230381C3808380C38183814381B4
:1031C000704710B5064CC3232246064906480FF047
:1031D000A7FC06480FF0A4FCC32120460FF097FC83
:1031E0009C650108D065010810640108E8650108C4
:1031F00010B5154C154B4FF40072154920460FF0D1
:1032000040FA144B1C60144C144B4FF400721449D8
:1032100020460FF036FA134B1C60134C134B4FF43F
:103220000072134920460FF02CFA124B1C60124C0E
:10323000124B4FF40072124920460FF022FA114B44
:103240001C60002010BD00BF402000202066010847
:10325000281E0020241C00202820002028660108A9
:10326000281C0020201C0020F01B002030660108D4
:10327000F0170020E8170020081C0020386601081D
:10328000F0190020EC17002008B50548054B186020
:1032900012F079FA08B1002008BD6FF01200FBE7C8
:1032A000485E01085820002010B550B183681549C8
:1032B0008B4216D214498B4213D3DB684E219847B8
:1032C00010BD124C40F2B7332246114911480FF09D
:1032D00027FC11480FF024FC40F2B73120460FF0D4
:1032E00016FC0A4C40F2B73322460C4909480FF04D
:1032F00017FC0B490B480FF013FC40F2B731204686
:103300000FF005FCC46001088C60010840660108EC
:10331000FC63010810640108306401087466010848
:10332000C06701088465010810B558B184468368F8
:103330001548834216D21548834213D31B69604651
:10334000984710BD124C40F2F533224611491248FD
:103350000FF0E6FB11480FF0E3FB40F2F531204699
:103360000FF0D5FB0A4C40F2F53322460C490A48CF
:103370000FF0D6FB0B490C480FF0D2FB40F2F531B1
:1033800020460FF0C4FB00BFC46001088C60010838
:1033900040660108FC6301081064010830640108FC
:1033A00074660108C06701088465010808B5044B0C
:1033B0001868FFF74FF9034B1868FFF775FF08BD52
:1033C000641000205820002010B48446044C0FCC18
:1033D000ACE80F0094E803008CE8030010BC7047D1
:1033E00030070020002800F086802DE9F04385B0EA
:1033F0000F4691461C46064601297FD9062B00D967
:10340000062400214846FDF7D3FE60B900250023BD
:103410004FF001089C420CD908EB88084FEA480895
:103420000133DBB2F6E72D23337009F100490125A2
:10343000EDE74046FDF7C6FC4946FDF71BFD4FF0A2
:103440007C51FDF70FFCFDF701FF0346B0FBF8F0E0
:1034500008FB103198451CD930238DF8003001222B
:103460005319BB424DD2531E1DE02A4BA3FB00C390
:10347000DB089C4603EB8303A0EB4303303302F1EC
:103480001000684400F8103C604601320028ECD17E
:10349000E6E70022FAE703F110026A4412F8102C62
:1034A0007255013B0135002BF5DAF4B1013FAF4213
:1034B0002AD92E237355631E013510E002EB8202D8
:1034C00052000CF1010C6345F8DCB1FBF2F002FB99
:1034D0001011AF421BD930307055013B0135002B24
:1034E00003DB4FF0000C0122EDE700237355284663
:1034F00005B0BDE8F0834FF0FF3070474FF0FF306C
:10350000F6E74FF0FF30F3E74FF0FF30F0E74FF012
:10351000FF30EDE7CDCCCCCC10B550B18368154968
:103520008B4216D214498B4213D3DB684E21984745
:1035300010BD124C40F2B7332246114911480FF02A
:10354000EFFA11480FF0ECFA40F2B73120460FF0D5
:10355000DEFA0A4C40F2B73322460C4909480FF014
:10356000DFFA0B490B480FF0DBFA40F2B731204687
:103570000FF0CDFAC46001088C60010840660108B4
:10358000FC630108106401083064010874660108D6
:10359000C06701088465010810B558B18446836886
:1035A0001548834216D21548834213D31B696046DF
:1035B000984710BD124C40F2F5332246114912488B
:1035C0000FF0AEFA11480FF0ABFA40F2F531204699
:1035D0000FF09DFA0A4C40F2F53322460C490A4896
:1035E0000FF09EFA0B490C480FF09AFA40F2F531B1
:1035F00020460FF08CFA00BFC46001088C600108FF
:1036000040660108FC630108106401083064010889
:1036100074660108C06701088465010810B5174B7E
:10362000174A1A60174A9A610024012C23DC04EB24
:103630004403124A52F8330012F0A5F890B104EB9B
:1036400044020E4B03EBC20300221A6100215961B0
:10365000DA609A6023460C4A03210C480FF0E2FD21
:103660000134E2E723460A4A012108480FF0DAFD57
:103670006FF0120000E0002010BD00BF5C200020B1
:103680002C5E0108105E0108E4670108A0610108D2
:10369000C86701082DE9F04F85B001285BD80446C2
:1036A00000EB40032D4A52F83300FFF735FF064682
:1036B000002840D104EB4403284A52F8330002AA00
:1036C0003021FFF769FF064600283CD112F0D5F9FA
:1036D0008046224F04EB440507EBC505D5F804A04E
:1036E000029B2C2202FB03F31D4A82FB03121A44A5
:1036F000DB17C3EB2223A868181AE8602A69024482
:103700002A61AB60FDF762FB1649FDF767FC834653
:10371000A8EB0A00FDF756FB01461348FDF75EFCD7
:1037200001465846FDF7A6FB6861C5F8048030469F
:1037300005B0BDE8F08F009023460C4A01210C48EB
:103740000FF07BFDF3E7009023460A4A0121084869
:103750000FF073FDEBE76FF01506E8E75C20002043
:10376000B7600BB60000304200606A47FC67010892
:10377000A0610108206801080A4601280BD800EB67
:103780004000064B03EBC003103393E8030082E8CC
:103790000300002070476FF0120070475C2000208B
:1037A00008B500EBC1035B8813F0010F06D101EBF4
:1037B000530330F833209B1A99420DD00C4A012153
:1037C0000C480FF025FD002383F31188BFF36F8FA2
:1037D0000423184602DF08BD30F83130CB1A00EB65
:1037E000C300428803EB52039942E7D1F3E700BFDD
:1037F0004C680108086201082DE9F04104461646AC
:1038000000EBC100C588A94226D0CB0023449F8885
:103810004FEAC70808F1060834F80830994204D185
:1038200004EBC5039B8899420CD0114A0121114831
:103830000FF0EEFC002383F31188BFF36F8F042396
:10384000184602DF321D44F8225024F80850EB00DD
:103850000433E752BDE8F081E3680122B24023EA75
:103860000203E360321D002344F82230F2E700BF78
:1038700074680108086201082DE9F84304460D4602
:10388000131D50F823607EB9C368012191400B439A
:10389000C360043240F82250EB001A1DADB28552CD
:1038A0000633C552BDE8F883F700043730F80790B7
:1038B0004FEAC90808F1060830F808309E420AD1DC
:1038C000EB001A1D24F802900633E652ADB224F83C
:1038D0000850E553E6E7074A012107480FF098FC36
:1038E000002383F31188BFF36F8F0423184602DF90
:1038F000E6E700BF746801080862010870B5B2F518
:10390000802F31D20346042A3ED9043AC81D20F044
:1039100007000A4422F00702121AD608172A43D9D0
:10392000186086600023C360B6FA86F1C1F1200EEC
:10393000C1F12405AD000735E9084B1CB34294BF23
:1039400000230123002B45D0354C40F2333322466F
:10395000344935480FF0E4F834480FF0E1F840F20C
:10396000333120460FF0D3F82D4C40F20A33224673
:103970002F492D480FF0D4F82E480FF0D1F840F21F
:103980000A3120460FF0C3F8254C40F2113322468D
:10399000294925480FF0C4F824480FF0C1F840F237
:1039A000113120460FF0B3F81D4C40F21D33224672
:1039B00022491D480FF0B4F81C480FF0B1F840F24E
:1039C0001D3120460FF0A3F803F1040C002440F849
:1039D0002C4001337345F7DB1FFA81FC4FEA4C039F
:1039E0009BB243800024048043F001034380731A98
:1039F00025F00705AE1C9BB24FEA430E20F806E007
:103A000020F805C022F00705961C84530244435356
:103A1000538843F0010353800EF075FF70BD00BF63
:103A20009868010894690108106401084C6901084C
:103A3000F868010810690108286901086869010827
:103A400008B502480FF055F8002008BDC869010804
:103A50000F4B984202D30F4B98420FD30E4B23B11A
:103A6000984202D30D4B98420AD30D4B53B1984262
:103A70000AD30C4B984209D30020704701207047AD
:103A800001207047002070470020704701207047D8
:103A9000C45A0108C4BA0108000000000000000078
:103AA000000000000000000070B504460D461946F5
:103AB00016465AB164B129B93046FCF721FB83B2EE
:103AC000013399B22A463046A04770BD034EF1E754
:103AD0003046FCF715FB0130F7E700BF046A010828
:103AE000F8B540B1064603784578847804EB830442
:103AF0000444002711E00B4CC62322460A490B4818
:103B00000FF00EF8C62120460FF001F801342046D0
:103B1000FCF7F6FA013004440137AF42F6D3A01B9C
:103B2000F8BD00BF0C6A01083C6A01081064010876
:103B30002DE9F04F91B006920393134602F0040270
:103B40000092C3F3C20210F00303019340F05E82BF
:103B5000074689460132041D00284BD0072940F250
:103B60005882039B5D1EDDF804B0CDF810B0CDF88F
:103B700014B000264FF0FF3A4FF00408CDF808B01B
:103B8000C3460FB1039B2360531E0793002A40F3E3
:103B90005F81069B13F0020229D04FF0010CE11B5C
:103BA0008B081AB1B1F5007F80F05D81029A0F2A6F
:103BB00000F26981002F00F07A81DBB2029901F1F5
:103BC00040026A4402F8103C02F820ACBCF1000F3D
:103BD00000F0698163F07F0301F140026A4402F85A
:103BE000103C049B01330493029B01330293043481
:103BF00000223EE001F007031C44C3F10809B0E7CE
:103C0000002635E0002633E0002631E04FF00808BA
:103C1000C3462DE025292BD10AF1010A01264FF0D8
:103C20000408C34624E04729ECD82A2912D32A39AC
:103C3000C9B2012000FA01F14FF6DA70014217D142
:103C400011F0625F40F0C28011F0010F40F08C80F3
:103C500000260DE0252903D10AF1FF3A002607E0EE
:103C6000D2D8202904D0232902D0002600E0002643
:103C70001D466B1C6978002900F04581002EC9D0D3
:103C80007A29BDD84C29CED34C392E29EFD801A0A2
:103C900050F821F0713C00086F3C00086F3C0008B0
:103CA0006F3C00086F3C00086F3C00086F3C000848
:103CB0006F3C00086F3C00086F3C00086F3C000838
:103CC0006F3C0008613D00086F3C00086F3C000835
:103CD0006F3C00086F3C00086F3C00086F3C000818
:103CE0006F3C00086F3C0008CD3D00086F3C0008A9
:103CF000613D0008613D0008CD3D0008CD3D000854
:103D0000CD3D0008713C0008613D00080D3C0008F5
:103D10006F3C0008713C00086F3C00082B3E000817
:103D2000613D00082B3E00086F3C00086F3C000816
:103D3000353E0008593D0008613D00086F3C000811
:103D40006F3C0008613D00086F3C0008513D0008D1
:103D50004FF00408C3468BE74FF00408C34687E7DB
:103D600029786C2924D000264444013CB4FBF8F4A3
:103D700008FB04F427B1E11B5944494500F24C818A
:103D8000002A5DD1BBF1040F00F0A480BBF1080F45
:103D900040F0A8801A99073121F0070101F10800CD
:103DA0001A90D1E900010FB1C4E9000108345FE7BE
:103DB00013F8021C6C2904D000264FF00408C346F7
:103DC000D2E700264FF00808C346CDE729784C29F2
:103DD0001BD01A99073121F0070101F108001A9050
:103DE000D1E90001073424F0070447B1E61B083687
:103DF0004E4514D82D784C2D14D0C4E90001083458
:103E000000264FF00808C34632E71A99073121F01F
:103E1000070101F108001A90D1E90001E2E76FF013
:103E20001B00F0E0C4E90001E9E700264FF00408B8
:103E3000C34699E7324600264FF00408C34693E78D
:103E40001A9A111D1A9112680392079A1D4698E654
:103E50000398FFF7FDFD844600287FF49AAE069B89
:103E600003F002029BE6714C4FF422732246704924
:103E700070480EF055FE70480EF052FE4FF422715D
:103E800020460EF044FE694C40F28D2322466849DC
:103E900068480EF045FE69480EF042FE40F28D2162
:103EA00020460EF034FE059B013305939CE6BCF1E1
:103EB000000F02D009F1010996E6009B13B109F148
:103EC000020991E60398FCF71BF909EB000303F1E3
:103ED000020989E61A99081D1A90096807B121603C
:103EE0000434C5E6514C40F2D22322465049514891
:103EF0000EF016FE594652480EF012FE40F2D22144
:103F000020460EF004FEDDF808B0E31BB3F5806F29
:103F100011D207B300223A609B083B70009BF3B1BB
:103F2000059BFB70049BBB708BBB019DDDF810A053
:103F3000DDF80C804AE03D4C40F2DE2322463C494D
:103F40003C480EF0EDFD3F480EF0EAFD40F2DE2168
:103F500020460EF0DCFD4B44A3F1080053E0059B26
:103F60007B70DFE701339B45DFD903F140026A44F0
:103F700012F8101C12F9102C002AF3DA01F07F015C
:103F8000E21B01324A454AD804F8011BEAE7019BCB
:103F9000E9E7009B3BB305F140036B4413F8203C79
:103FA00004F8013B019EE31B334401334B4539D8F0
:103FB00005F140036B4413F8103C04F8013B324612
:103FC00041462046FCF708F934440135AB4519D980
:103FD000BAF1000FDDD005F140036B4413F9103C3A
:103FE000002BD6DAF1E705F140036B4413F8103CDF
:103FF00057F82380002247F823204046FCF780F83A
:10400000461CD0E7E01B11B0BDE8F08F6FF00D004B
:10401000F9E76FF01B00F6E76FF01B00F3E76FF0B6
:104020001B00F0E76FF01B00EDE700BF0C6A010812
:10403000546A010810640108586A01087C6A010882
:10404000986A0108B06A01082DE9F04F97B000AFF7
:104050007961BA61FB60002844D08346B0FA80F4ED
:104060006409D7F88030C3F3C0033B627B69002B3F
:1040700045D09BF80260B1462EB1D7F8803013F0DE
:10408000010F00D0012423469BF803207A6222B15D
:10409000D7F8802012F0020F00D1A3B39BF8005094
:1040A000AA00BA60DBF804203A610BEB8505BA6917
:1040B000AAB3002B00F02281B9F1100F00F2118198
:1040C00007F144004FF0000A4A462946FCF784F8FD
:1040D0009BF802301D444FF00008C7F80490C7F861
:1040E0001CB08CE1B34C40F2A5332246B249B34830
:1040F0000EF016FD40F2A53120460EF008FDFFF748
:10410000EFFC7861B5E7BB691BB1FA68796958467D
:1041100098477C6920465C37BD46BDE8F08F7C69D6
:10412000E3B94D4400237B6123E0044401350136AB
:104130004E451AD22A7800235BF822201946B86926
:10414000FFF7B2FCBAF1000FEFD0D7F888309845EE
:10415000EBD22AF8180008F10108E6E70026C7F8B4
:104160001C80B046D7F884A0E2E7C7F81480D7F8DF
:104170001C80D7F8803003F00503FB604FF0000A85
:10418000A146C7F81CB08AE0594638690EF084FC95
:10419000002800F096806C46002387F82C3002231C
:1041A00087F82D308AB0694611F1100237D01225F8
:1041B0001AB1042D01DD824B4B61002387F82830B2
:1041C000022387F829306ABB112D45DD122362B125
:1041D000042087F82C00002087F82D0087F82E0097
:1041E000012087F82F00F86A086128F0010828F0FC
:1041F000020828F0040828F03808022161F3881822
:10420000C3F30A0363F35328C8F31308002341469A
:104210006C4801F011FCA546A9F102093CE06FF0E1
:104220000045C5E72B46082D01DD386988610C2B58
:1042300001DDC1F81CB001F12003002009E000F10C
:10424000300C07F1280EF4441CF830CC03F801CBF5
:1042500001300128F3D9B7E76FF01B03B7E701235B
:104260003AE0D7F8803013F0020F15D00023224631
:104270001946B869FFF718FCD7F8843053B17B6949
:10428000D7F88820934205D2D7F8842022F813006B
:1042900001337B61013881440AF1010A35467B6AAA
:1042A0009A451CD22E4616F802BB6B78FA6952F872
:1042B00023402046FFF7CCFB05463B6A002B7FF4EA
:1042C00063AF002DCDD0D7F8803013F0010FCDD1E2
:1042D000FB68002BC3D10223A9EB0309DCE74C46A2
:1042E00018E7344C40F22D432246374933480EF04C
:1042F00017FC40F22D4120460EF009FCB9F1000FE9
:1043000019D0D7F8803013F0040F18D0B9F1100F7E
:1043100004D8B24607F134000026D5E6254C4FF408
:1043200087632246294925480EF0FAFB4FF487613E
:1043300020460EF0ECFB4FF0000A5646C8E64FF060
:10434000000A5646C4E6594638690EF0A5FB002817
:1043500066D051E0174C40F2614322461C49174891
:104360000EF0DEFB40F2614120460EF0D0FBD7F8A4
:10437000803013F0040F3FD0BAF10F0F0CD80AF1C0
:1043800001030AF1300207F1280102EB010A0AF8E1
:10439000249C5FFA83FA2FE0064C40F266432246E3
:1043A0000C4906480EF0BCFB40F2664120460EF078
:1043B000AEFB00BF0C6A0108C86A0108106401085E
:1043C000E46A010880610108886B0108A86B010894
:1043D000C86B0108E86B0108D7F8803013F0020FB2
:1043E0003ED00F2E2FD8731C06F1300207F12801A2
:1043F000561806F8149CDEB208F1010825467B6ABF
:10440000984551D22C4614F802BB95F80190FB69EF
:1044100053F82900FFF71CFB05463B6A002B92D19D
:10442000002DD9D0D7F8803013F0010F9FD00F2E78
:1044300090D8731C06F1300207F12801561806F8CF
:10444000149CDEB2D8E7664C40F26F4322466549C1
:1044500065480EF065FB40F26F4120460EF057FBB9
:10446000BAF10F0F13D80AF101030AF1300207F174
:1044700028010A4402F824BC0AF1020A5FFA8AFA07
:1044800007F1580252FA83F303F8249CB4E7544C22
:1044900040F274432246554953480EF041FB40F226
:1044A000744120460EF033FBD7F80490D7F81CB0C7
:1044B0009BF8003087F854309BF80130334487F87C
:1044C0005530D7F8803013F0020F0DD1CAF34703EF
:1044D00087F85730D7F8803013F0010F06D113F06A
:1044E000040F3AD1002302E00023F1E7002387F80C
:1044F0005630DBF800003863786DCBF80000FA68BE
:10450000B9685846D7F81880C047041EFFF602AEB7
:10451000386BCBF80000FA68514607F13400C24608
:10452000C047002855DB04EB0008B96849447B6AA2
:1045300001EB4301D7F80C904A467B69591A28468B
:10454000D047041EFFF6E6AD08EB04054FF0000867
:10455000C7F824B0B346544619E05346C7E74FF0B6
:10456000000A01E04FF0000A4A46012107F12C0041
:10457000A04700282FDB05445346324649462046D3
:10458000FFF792FA002828DB054408F10108D84516
:1045900018D208F1300307F12802134413F8143C31
:1045A00087F82C307A6A52F82360D7F88430002BD1
:1045B000D5D0D7F888309845D4D2D7F8843033F89E
:1045C00018A0D1E7FA6800210846BB6998472C4635
:1045D000A0E504469EE504469CE504469AE500BF36
:1045E0000C6A0108C86B010810640108E86B010837
:1045F000014B1860704700BF3803002038B50446EF
:104600000D46202200210CF0DDFDEB68E361AB6874
:10461000A3612B6823626B6863620022A2622A692D
:1046200022612BB1591E0B4202D142F001022261DC
:1046300004F12C000122002111F0E2F800B938BD8C
:10464000054C30232246054905480EF069FA302111
:1046500020460EF05CFA00BF1C6C0108446C010897
:10466000106401082DE9F04F89B0029299460023A9
:1046700007930593436A8B42C0F0018183468846C5
:104680004FF0000A0126CDF80CA065E07F4D8F2386
:104690002A467F497F480EF043FA21467E480EF0B5
:1046A0003FFA8F2128460EF032FA514658460EF056
:1046B00069FB0023059367E0DBF82030DBF800207E
:1046C00003EB8201039113F8221021F0010103F89A
:1046D0002210C9B221F0020103F82210DBF80030E9
:1046E0004344DBF8102012F0010F05D1DBF8241051
:1046F0008B4205D35B1A03E0DBF8241001390B4031
:10470000CBF80030DBF80C108B4201D0002609E01A
:1047100042F00802CBF81020002603E058460EF0C5
:1047200067FA2E46019D20460BF03EFD80F0010009
:1047300010F0FF0F40F0928085F31188BFF36F8F68
:10474000079931B1DBF818300BB158469847002370
:104750000793002E00F095800BF11404EFF31187FE
:10476000102383F31288BFF36F8F20460BF00CFDEC
:1047700080F0010010F0FF0F88D120460BF072FD91
:104780000197059A002A90D106A958460EF0D6F94D
:104790000546069941458FD20028BFD1029B59EAB0
:1047A00003030BD1002EBDD0DBF800A005AB07AA98
:1047B000069958460EF04FFA0646B3E711F003F992
:1047C0000028EFD1002FEDD120460BF0EDFC80F05A
:1047D000010010F0FF0F21D187F31188BFF36F8F15
:1047E0000BF12C00029A4B4609F080F80646EFF3D5
:1047F0001185102383F31288BFF36F8F20460BF0CF
:10480000C3FC80F0010010F0FF0F18D120460BF020
:1048100029FD0195B6FA86F6760983E71B4D40F22D
:104820003D132A461D491B480EF07AF921461C48C3
:104830000EF076F940F23D1128460EF068F9134D5E
:104840008F232A46124913480EF06AF9214612486E
:104850000EF066F98F2128460EF059F90B4D40F203
:104860003D132A460D490B480EF05AF921460C48D3
:104870000EF056F940F23D1128460EF048F900239B
:104880000393039809B0BDE8F08F00BF506C010896
:10489000806C010810640108986C0108B06C010874
:1048A000C86C01082DE9F04104460D46C36908466D
:1048B0009847804604F11406EFF31187102383F321
:1048C0001288BFF36F8F30460BF05EFC80F001035F
:1048D00013F0FF0F12D130460BF0C4FC2B7843F0DD
:1048E00001032B70636803EB0800236913F0010FC9
:1048F00013D1636A984213D3C01A11E01A4C8F2364
:1049000022461A491A480EF00BF9314619480EF0A2
:1049100007F98F2120460EF0FAF8636A013B184030
:10492000606020460EF042F930460BF03DFC80F00E
:10493000010010F0FF0F05D187F31188BFF36F8FCF
:10494000BDE8F081084C40F23D1322460A49084870
:104950000EF0E6F8314609480EF0E2F840F23D115B
:1049600020460EF0D4F800BF506C0108806C01089E
:1049700010640108986C0108B06C0108C86C01084B
:104980002DE9F04383B0044600274BE0544C8F23BD
:104990002246544954480EF0C3F8294653480EF0B5
:1049A000BFF88F2120460EF0B2F853F82210890884
:1049B00069D15EE0626A013A1340A36020460EF0BE
:1049C00004F90127B9461EE013F8221041F0020154
:1049D00003F82210D4F80890E36940469847484409
:1049E000236913F0010F04D1636A984204D3C01AFB
:1049F00002E0636A013B1840A0604FF0000902E04A
:104A00004FF00009C84628460BF0CEFB80F00100AD
:104A100010F0FF0F46D186F31188BFF36F8FB9F105
:104A2000000F50D004F11405EFF31186102383F327
:104A30001288BFF36F8F28460BF0A6FB80F00100B1
:104A400010F0FF0FA2D128460BF00CFC01A9204664
:104A50000EF088F8236AA26803EB82080199002906
:104A6000CED013F8221011F0030117D002299CD0E8
:104A7000002113F8220010F0010FA5D119B9E36944
:104A8000404698470146A3680B44226912F0010F83
:104A900090D1626A934290D39B1A8EE74FF000093F
:104AA000C846B0E70E4C40F23D13224610490E486E
:104AB0000EF036F829460F480EF032F840F23D115C
:104AC00020460EF024F817B1B8F1000F03D040468D
:104AD00003B0BDE8F08304F12C0008F099FEF6E77E
:104AE000506C0108806C010810640108986C010882
:104AF000B06C0108C86C01082DE9F04104460D4670
:104B0000C36908469847064604F11407EFF3118875
:104B1000102383F31288BFF36F8F38460BF034FBFA
:104B200080F0010010F0FF0F15D138460BF09AFB12
:104B30002B7823F001032B70236913F0020F19D097
:104B4000236AE26803EB8203AB4213D02B6866F35F
:104B50009F032B601AE0264C8F23224625492648C6
:104B60000DF0DEFF394625480DF0DAFF8F21204693
:104B70000DF0CDFF2B7823F002032B70E268A368C1
:104B80009A4215D0314620460EF01FF838460BF0F9
:104B90000BFB80F0010010F0FF0F18D188F3118893
:104BA000BFF36F8F04F12C0008F032FEBDE8F081F6
:104BB0003344226912F0010F04D1626A934204D394
:104BC0009B1A02E0626A013A1340A360DAE7084CDC
:104BD00040F23D1322460A4907480DF0A1FF39462D
:104BE00008480DF09DFF40F23D1120460DF08FFF6B
:104BF000506C0108806C010810640108986C010871
:104C0000B06C0108C86C010870B582B0044600F1B0
:104C10001405EFF31186102383F31288BFF36F8F0F
:104C200028460BF0B1FA80F0010010F0FF0F18D108
:104C300028460BF017FB01A920460DF093FF2846EC
:104C40000BF0B2FA80F0010010F0FF0F18D186F3DC
:104C50001188BFF36F8F0198003818BF012002B090
:104C600070BD104C8F2322460F4910480DF058FF9D
:104C700029460F480DF054FF8F2120460DF047FFC5
:104C8000084C40F23D1322460A4908480DF048FFFF
:104C9000294609480DF044FF40F23D1120460DF031
:104CA00036FF00BF506C0108806C010810640108D9
:104CB000986C0108B06C0108C86C01082DE9F0413E
:104CC00082B080460E46154600272A4601A9404676
:104CD0000EF0AAF8044640B1024631460198FBF7AF
:104CE0007BFA274426442D1BEFD13A4608F10401F4
:104CF00040460EF0BEF818B9384602B0BDE8F08163
:104D0000054C49232246054905480DF009FF492174
:104D100020460DF0FCFE00BFEC6C0108446C01085D
:104D2000106401082DE9F04182B080460E46154618
:104D3000002702E027442D1B0FD02A4601A9404638
:104D40000EF085F8044640B1002EF3D002460199DA
:104D50003046FBF741FA2644ECE73A4608F10A01EF
:104D600040460EF086F818B9384602B0BDE8F0812A
:104D7000054C64232246054905480DF0D1FE642107
:104D800020460DF0C4FE00BFEC6C0108446C010825
:104D900010640108034A536843F002035360002083
:104DA000704700BF002004E008B502490EF082F809
:104DB00008BD00BFC14E000810B560B1024683684F
:104DC0001548834215D21548834212D31B68FBB1A4
:104DD0001046984710BD124CB6232246114912487E
:104DE0000DF09EFE11480DF09BFEB62120460DF001
:104DF0008EFE0B4CB62322460D490B480DF090FE5B
:104E00000C490D480DF08CFEB62120460DF07FFEBA
:104E10006FF05700DEE700BFE0600108C4600108E2
:104E2000186D0108FC630108106401083064010872
:104E3000546D0108D06E01088465010810B560B199
:104E4000024683681548834215D21548834212D31F
:104E50005B68FBB11046984710BD124CCC2322462C
:104E6000114912480DF05CFE11480DF059FECC219D
:104E700020460DF04CFE0B4CCC2322460D490B482E
:104E80000DF04EFE0C490D480DF04AFECC21204697
:104E90000DF03DFE6FF05700DEE700BFE060010857
:104EA000C4600108186D0108FC6301081064010862
:104EB00030640108546D0108D06E01088465010852
:104EC00008B50B4641680C31012B11D007D81BB92E
:104ED0000948FFF7B3FF0EE06FF085000BE0023BDF
:104EE000DBB2012B01D8002005E06FF0850002E065
:104EF0000148FFF761FF08BDFC5B010810B50828F9
:104F000008D8064B53F82040204610F03CFC18B15E
:104F1000204610BD0024FBE70024F9E7D8B30108C0
:104F2000084B1A6842F480721A601A6842F40072E0
:104F30001A601A6842F480621A60034B034A1A60CE
:104F4000704700BF003C0240780300200024F400BA
:104F500010B143685879704710B5064C4FF4A673EA
:104F60002246054905480DF0DBFD4FF4A6712046A9
:104F70000DF0CDFD986F0108D06F01081064010895
:104F800010B143681971704710B5054CF8232246DB
:104F9000044905480DF0C4FDF82120460DF0B7FD89
:104FA000986F0108D06F01081064010810B540B176
:104FB00004460368DB6803B19847636801229A716D
:104FC00010BD054CA3232246044905480DF0A8FD59
:104FD000A32120460DF09BFD986F0108D06F0108BA
:104FE0001064010810B5034640B1B0FA80F04009E2
:104FF0001A6812690AB11846904710BD054CB723CC
:105000002246054905480DF08BFDB72120460DF0DD
:105010007EFD00BF986F0108D06F01081064010881
:1050200010B518B102689268904710BD054CE9238D
:105030002246054905480DF073FDE92120460DF093
:1050400066FD00BF986F0108D06F01081064010869
:1050500010B520B10268526802B1904710BD054CEE
:10506000DB232246044905480DF05AFDDB2120468A
:105070000DF04DFD986F0108D06F01081064010814
:1050800010B520B171B102681268904710BD0B4C89
:10509000CB2322460A490B480DF042FDCB21204686
:1050A0000DF035FD054CCC232246074905480DF08F
:1050B00037FDCC2120460DF02AFD00BF986F010876
:1050C000D06F010810640108E86F010838B5054683
:1050D000144C00E01034144B9C4212D8124B9C42EA
:1050E0001FD22046FFF734FF0028F3D02946204680
:1050F0000DF0E5FF0028EDD029462046FFF7C0FF60
:10510000E8E70A4C40F20A232246094909480DF013
:1051100007FD09480DF004FD40F20A2120460DF07C
:10512000F6FC38BD4862010858620108FC6F0108AE
:105130002C700108106401085070010810B50C4B68
:105140001B78012B04D102F00BF90A4B185810BD43
:10515000094C40F28F332246084909480DF0E0FC23
:1051600008480DF0DDFC40F28F3120460DF0CFFCF9
:10517000ED24002008000000707001089C700108F8
:1051800010640108B070010810B530B10346006822
:1051900084690CB11846A04710BD064C40F27B1341
:1051A0002246054905480DF0BBFC40F27B11204624
:1051B0000DF0ADFC986F0108D06F01081064010874
:1051C00070B506460D460F4C0F4B9C4209D80E4B4E
:1051D0009C4216D22A4631462046FFF7D5FF1034AE
:1051E000F2E70A4C40F2C3332246094909480DF060
:1051F00097FC09480DF094FC40F2C33120460DF0B5
:1052000086FC70BD4862010858620108FC6F010805
:105210002C700108106401085070010808B510F0E6
:105220002CFC0022431819D213440D4AA2FB03CED2
:105230002EF0030C0CEB9E0CA3EB0C03C01A61F1D7
:1052400000014FF0CC3300FB03F302FB0133A0FB62
:1052500002021344400840EAC37008BD0122E3E79C
:10526000CDCCCCCC2DE9F04107460546EDB195FA01
:10527000A5F6B6FA86F60E4C04EB06140123B340ED
:105280006FEA030825EA0305237B002BEED02046B6
:10529000FFF7A8FE0028E9D107EA0807636804229F
:1052A000196820460DF04BFFE0E73846BDE8F08175
:1052B000486201082DE9F041324D334BED1A8F2D34
:1052C00094BF002501258DB980460F462F4BBFF3B3
:1052D0005B8F53E8006F721C43E800210029F8D16E
:1052E000BFF35B8F002E49D1274C14E0284C40F2CD
:1052F00053132246274928480DF012FC40F253115F
:1053000020460DF004FC63680422196820460DF065
:1053100016FF013510341B4B9C4211D8194B9C428F
:105320001ED2237B002BF4D02046FFF73FFE204601
:10533000FFF758FE0028E6D00123AB401E43E8E704
:10534000134C40F25F132246144913480DF0E8FB5A
:1053500013480DF0E5FB40F25F1120460DF0D7FB3E
:10536000B8F1000F0BD056B13046FFF77BFF064671
:10537000002FF8D00A200DF0A4FEF4E700263046F6
:10538000BDE8F0815862010848620108342100201C
:10539000FC6F0108D4700108106401082C7001082A
:1053A0005070010808B5064B186018B1054B1B6812
:1053B000092B00DC08BD044808F02AFAFAE700BF10
:1053C00028210020302100203C04002008B502489C
:1053D00008F01EFA08BD00BF3C04002030B589B0BB
:1053E00000220F490F4810F04CFB0F4D0022002304
:1053F000CDE90623002404940E2303930294019420
:1054000000940A4B4FF400620949284609F09AF9C2
:105410000849284610F0DDFA204609B030BD00BF2B
:10542000CD530008D00B002048070020F958000891
:10543000403E002004710108014B53F820007047E2
:1054400010B4010848B108B5054A1060054B196051
:10545000084600F085FE002008BD6FF0150070477B
:105460003C0300202421002008B5054B1B781BB10C
:10547000034B01221A7008BD024808F0C9F9F7E78A
:10548000EA2400203C04002008B5104BBFF35B8FDA
:1054900053E8001F013143E80012002AF8D1BFF39E
:1054A0005B8F30B90A480BF0F3FC0A4808F0B0F9FA
:1054B00008BD094BBFF35B8F53E8001F013943E878
:1054C0000012002AF8D1BFF35B8FEBE72C210020FC
:1054D000D00B00203C04002030210020064B00228D
:1054E000BFF35B8F53E8000F43E800210029F9D197
:1054F000BFF35B8F704700BF2C21002038B5FFF74A
:10550000EDFF0546114C00E01034114B9C420CD8C5
:105510000F4B9C4219D22046FFF71AFD0028F3D00A
:1055200029462046FFF794FDEEE70A4C40F2162389
:105530002246094909480DF0F3FA09480DF0F0FA3E
:1055400040F2162120460DF0E2FA38BD486201080B
:1055500058620108FC6F01082C70010810640108F2
:1055600050700108034B18680028D4BF00200120A8
:10557000704700BF2C21002010B5044C0449204680
:10558000FFF73CF8034B1C6010BD00BFB8030020C0
:10559000FCB301081C21002010B50023174A13702A
:1055A000174A1360174A13604FF47A711648FFF7D1
:1055B00049FFFFF7E1FF154C154B9C420CD8144BEB
:1055C0009C4219D21149611A09110131C9B2204610
:1055D000FFF7D6FC1034EFE70E4C40F22B132246B7
:1055E0000D490E480DF09CFA0D480DF099FA40F265
:1055F0002B1120460DF08BFA10BD00BFEB240020CC
:105600002C210020302100201D5200084862010892
:1056100058620108FC6F01082C7001081064010831
:105620005070010808B5014601480DF05AFD08BD4B
:10563000B803002008B50248FFF7A2F908BD00BF73
:10564000B803002008B50146024B18680DF04FFD65
:1056500008BD00BF1C21002008B502480DF04BFD1D
:1056600008BD00BFB803002010B582B0002200239F
:10567000CDE90023304B187808B902B010BD684658
:105680000DF051FD044680B1FFF720FD2046FFF7E5
:10569000D9FF2A4BBFF35B8F53E8001F013943E862
:1056A0000012002AF8D1BFF35B8FFFF75BFF70B9E0
:1056B000234A1368516813F57A7341F100011360AE
:1056C0005160A4B3FFF7C8FF98B30120D5E710F0ED
:1056D000D4F90022431828D213441A4AA2FB03CE5D
:1056E0002EF0030C0CEB9E0CA3EB0C03C01A61F123
:1056F00000014FF0CC3300FB03F302FB0133A0FBAE
:1057000002021344400840EAC3705B080C490A686F
:105710004968801A63EB010340F2E932904273F169
:105720000003C5D3FFF7EAFEC2E70122D4E7002059
:10573000A3E70020A1E700BFEA24002030210020D9
:10574000C80B0020CDCCCCCC194B1B7803B17047D3
:1057500010B500210120FFF7ADFD164C00E010341C
:10576000154B9C420BD8144B9C4218D22046FFF795
:10577000EFFB0028F3D02046FFF752FCEFE70F4C79
:1057800040F2CF1322460E490E480DF0C9F90E48DB
:105790000DF0C6F940F2CF1120460DF0B8F9FFF731
:1057A00063FF0028FBD1024B01221A7010BD00BF1D
:1057B000EB2400204862010858620108FC6F0108D0
:1057C0002C700108106401085070010830B583B0D6
:1057D000354BBFF35B8F53E8002F511C43E800109B
:1057E0000028F8D1BFF35B8F304B1B786BB9304B7F
:1057F0001B685BB3002A4BD0092A27D12D480BF038
:1058000047FB2D4808F004F820E0EFF31184102343
:1058100083F31288BFF36F8F28480AF0B5FC80F03D
:10582000010010F0FF0F13D1244D28460AF01AFD95
:10583000FFF71AFF28460AF0B7FC80F0010010F0CD
:10584000FF0F14D184F31188BFF36F8F03B030BD05
:105850001B4C8F2322461B491B480DF061F9174949
:105860001A480DF05DF98F2120460DF050F9144CC7
:1058700040F23D132246164913480DF051F92946CE
:1058800014480DF04DF940F23D1120460DF03FF95E
:1058900000220023CDE9002342F2107200230548C4
:1058A0000BF088FAD2E700BF30210020EB24002063
:1058B00028210020D00B00203C04002020210020C3
:1058C000506C0108806C010810640108986C010894
:1058D000B06C0108C86C010810B50446044B1B6885
:1058E0009847A060214603480DF021FC10BD00BF81
:1058F0003C030020B80300202DE9F041224B234A4D
:105900009B1A1B090ED000210846FFF7D3FC8046E6
:10591000A8B14FF4FA760027FFF710FCFFF742FD1D
:10592000002522E01A4C40F2CF33224619491A488A
:105930000DF0F6F840F2CF3120460DF0E8F84FF0C8
:10594000FF364FF0FF37E7E74046FFF78BFC804616
:1059500070B94FF0FF364FF0FF3709E02C46324662
:105960003B460E4807F0C2FF2546B8F1000FEBD1C9
:10597000FFF77AFE04460028F6D1002DEED0002174
:105980000846FFF71DFCEAE7586201084862010873
:10599000FC6F01080C710108106401083C04002030
:1059A00028B142681160436801225A71704710B5EE
:1059B000064C40F231132246054906480DF0B0F876
:1059C00040F2311120460DF0A2F800BF986F010897
:1059D000D06F0108106401080248034BC01AC008C8
:1059E000704700BF486201087861010810B50C4695
:1059F000FFF7F2FFA04203D9024B53F8340010BD69
:105A00000020FCE77861010800B589B00592069393
:105A10000023079362B1074A0C9B02930B9B0193EF
:105A20000A9B009305ABFEF70FFB09B05DF804FB82
:105A30000022F1E74F3101082DE9F04F8BB004AFA0
:105A400005461E468846C1F34A24002C00F0978084
:105A500091460022FA603A617A6104230293FB18AE
:105A600001930A23009307F10C0321464846FEF7F1
:105A7000EBFAB0F5006F58D3D9F804106D46002347
:105A80003B7302237B738AB004AC14F1100217D06D
:105A900012201AB1042801DD424B636100233B70E0
:105AA00002237B70CAB10346082800DDA1610C2BDC
:105AB00002DD40F2FF73E36104F1200300210AE0FC
:105AC0006FF00040E5E701F118063E4416F8186C47
:105AD00003F8016B01310129F5D9112822DD1223C8
